{
  "contractName": "Factory",
  "abi": [
    {
      "inputs": [
        {
          "internalType": "uint256",
          "name": "marginRatio_",
          "type": "uint256"
        },
        {
          "internalType": "uint256",
          "name": "protocolFee_",
          "type": "uint256"
        },
        {
          "internalType": "uint256",
          "name": "liqProtocolFee_",
          "type": "uint256"
        },
        {
          "internalType": "address",
          "name": "priceAddress_",
          "type": "address"
        },
        {
          "internalType": "address",
          "name": "protocolReceipt_",
          "type": "address"
        },
        {
          "internalType": "address",
          "name": "dealer_",
          "type": "address"
        }
      ],
      "stateMutability": "nonpayable",
      "type": "constructor"
    },
    {
      "anonymous": false,
      "inputs": [
        {
          "indexed": false,
          "internalType": "address",
          "name": "pool",
          "type": "address"
        },
        {
          "indexed": false,
          "internalType": "address",
          "name": "payToken",
          "type": "address"
        },
        {
          "indexed": false,
          "internalType": "address",
          "name": "oracle",
          "type": "address"
        },
        {
          "indexed": false,
          "internalType": "bool",
          "name": "reverse",
          "type": "bool"
        },
        {
          "indexed": false,
          "internalType": "uint8",
          "name": "typ",
          "type": "uint8"
        },
        {
          "indexed": false,
          "internalType": "uint256",
          "name": "id",
          "type": "uint256"
        }
      ],
      "name": "CreatePool",
      "type": "event"
    },
    {
      "anonymous": false,
      "inputs": [
        {
          "indexed": true,
          "internalType": "address",
          "name": "previousOwner",
          "type": "address"
        },
        {
          "indexed": true,
          "internalType": "address",
          "name": "newOwner",
          "type": "address"
        }
      ],
      "name": "OwnershipTransferred",
      "type": "event"
    },
    {
      "anonymous": false,
      "inputs": [
        {
          "indexed": false,
          "internalType": "uint256",
          "name": "liqProtocolFee",
          "type": "uint256"
        }
      ],
      "name": "SetLiqProtocolFee",
      "type": "event"
    },
    {
      "anonymous": false,
      "inputs": [
        {
          "indexed": false,
          "internalType": "uint256",
          "name": "marginRatio",
          "type": "uint256"
        }
      ],
      "name": "SetMarginRatio",
      "type": "event"
    },
    {
      "anonymous": false,
      "inputs": [
        {
          "indexed": false,
          "internalType": "address",
          "name": "priceAddress",
          "type": "address"
        }
      ],
      "name": "SetPriceAddress",
      "type": "event"
    },
    {
      "anonymous": false,
      "inputs": [
        {
          "indexed": false,
          "internalType": "uint256",
          "name": "protocolFee",
          "type": "uint256"
        }
      ],
      "name": "SetProtocolFee",
      "type": "event"
    },
    {
      "anonymous": false,
      "inputs": [
        {
          "indexed": false,
          "internalType": "address",
          "name": "protocolReceipt",
          "type": "address"
        }
      ],
      "name": "SetProtocolReceipt",
      "type": "event"
    },
    {
      "inputs": [],
      "name": "dealer",
      "outputs": [
        {
          "internalType": "address",
          "name": "",
          "type": "address"
        }
      ],
      "stateMutability": "view",
      "type": "function"
    },
    {
      "inputs": [],
      "name": "liqProtocolFee",
      "outputs": [
        {
          "internalType": "uint256",
          "name": "",
          "type": "uint256"
        }
      ],
      "stateMutability": "view",
      "type": "function"
    },
    {
      "inputs": [],
      "name": "marginRatio",
      "outputs": [
        {
          "internalType": "uint256",
          "name": "",
          "type": "uint256"
        }
      ],
      "stateMutability": "view",
      "type": "function"
    },
    {
      "inputs": [],
      "name": "owner",
      "outputs": [
        {
          "internalType": "address",
          "name": "",
          "type": "address"
        }
      ],
      "stateMutability": "view",
      "type": "function"
    },
    {
      "inputs": [
        {
          "internalType": "address",
          "name": "",
          "type": "address"
        }
      ],
      "name": "pools",
      "outputs": [
        {
          "internalType": "bool",
          "name": "",
          "type": "bool"
        }
      ],
      "stateMutability": "view",
      "type": "function"
    },
    {
      "inputs": [],
      "name": "priceAddress",
      "outputs": [
        {
          "internalType": "address",
          "name": "",
          "type": "address"
        }
      ],
      "stateMutability": "view",
      "type": "function"
    },
    {
      "inputs": [],
      "name": "protocolFee",
      "outputs": [
        {
          "internalType": "uint256",
          "name": "",
          "type": "uint256"
        }
      ],
      "stateMutability": "view",
      "type": "function"
    },
    {
      "inputs": [],
      "name": "protocolReceipt",
      "outputs": [
        {
          "internalType": "address",
          "name": "",
          "type": "address"
        }
      ],
      "stateMutability": "view",
      "type": "function"
    },
    {
      "inputs": [],
      "name": "renounceOwnership",
      "outputs": [],
      "stateMutability": "nonpayable",
      "type": "function"
    },
    {
      "inputs": [
        {
          "internalType": "address",
          "name": "newOwner",
          "type": "address"
        }
      ],
      "name": "transferOwnership",
      "outputs": [],
      "stateMutability": "nonpayable",
      "type": "function"
    },
    {
      "inputs": [
        {
          "internalType": "uint256",
          "name": "id",
          "type": "uint256"
        },
        {
          "internalType": "address",
          "name": "payToken",
          "type": "address"
        },
        {
          "internalType": "address",
          "name": "oracle",
          "type": "address"
        },
        {
          "internalType": "bool",
          "name": "reverse",
          "type": "bool"
        },
        {
          "internalType": "uint8",
          "name": "typ",
          "type": "uint8"
        }
      ],
      "name": "createPool",
      "outputs": [],
      "stateMutability": "nonpayable",
      "type": "function"
    },
    {
      "inputs": [
        {
          "internalType": "uint256",
          "name": "marginRatio_",
          "type": "uint256"
        }
      ],
      "name": "setMarginRatio",
      "outputs": [],
      "stateMutability": "nonpayable",
      "type": "function"
    },
    {
      "inputs": [
        {
          "internalType": "uint256",
          "name": "protocolFee_",
          "type": "uint256"
        }
      ],
      "name": "setProtocolFee",
      "outputs": [],
      "stateMutability": "nonpayable",
      "type": "function"
    },
    {
      "inputs": [
        {
          "internalType": "uint256",
          "name": "liqProtocolFee_",
          "type": "uint256"
        }
      ],
      "name": "setLiqProtocolFee",
      "outputs": [],
      "stateMutability": "nonpayable",
      "type": "function"
    },
    {
      "inputs": [
        {
          "internalType": "address",
          "name": "priceAddress_",
          "type": "address"
        }
      ],
      "name": "setPriceAddress",
      "outputs": [],
      "stateMutability": "nonpayable",
      "type": "function"
    },
    {
      "inputs": [
        {
          "internalType": "address",
          "name": "protocolReceipt_",
          "type": "address"
        }
      ],
      "name": "setProtocolReceipt",
      "outputs": [],
      "stateMutability": "nonpayable",
      "type": "function"
    }
  ],
  "bytecode": "0x60806040523480156200001157600080fd5b506040516200429538038062004295833981016040819052620000349162000222565b6200004862000042620001b1565b620001b5565b600286905560038590556004849055600580546001600160a01b038086166001600160a01b03199283161790925560068054928516929091169190911790556040517f60e314eb1dcc14680ab3be0aaa5b70ea0d3828f11e6bcb38305fea8bbf2d49cc90620000b99088906200029b565b60405180910390a17fdc0410a296e1e33943a772020d333d5f99319d7fcad932a484c53889f7aaa2b185604051620000f291906200029b565b60405180910390a17ffec3e2cce26c0fccf827d7f8d326ecb9f37ad07b47912dc290d75e165e8e61ae846040516200012b91906200029b565b60405180910390a17fbe0f8c41260e53f3d847406e8870c8588bfe623a76be606cd46ae47e58d466a98360405162000164919062000287565b60405180910390a17fbc1e06e494fbfeb91b3fd39ead6160a6246fef341f5352a61918c05bf42cf98e826040516200019d919062000287565b60405180910390a1505050505050620002a4565b3390565b600080546001600160a01b038381166001600160a01b0319831681178455604051919092169283917f8be0079c531659141344cd1fd0a4f28419497f9722a3daafe3b4186f6b6457e09190a35050565b80516001600160a01b03811681146200021d57600080fd5b919050565b60008060008060008060c087890312156200023b578182fd5b8651955060208701519450604087015193506200025b6060880162000205565b92506200026b6080880162000205565b91506200027b60a0880162000205565b90509295509295509295565b6001600160a01b0391909116815260200190565b90815260200190565b613fe180620002b46000396000f3fe60806040523480156200001157600080fd5b5060043610620000f45760003560e01c8063959901a41162000093578063959901a414620001995780639de2ee2114620001b0578063a4063dbc14620001ba578063ac02c0bd14620001e0578063b0e21e8a14620001ea578063b5013b4f14620001f4578063b6d7a1c9146200020b578063f2fde38b146200022257620000f4565b80632d31c16e14620000f95780633a267ea3146200011b57806369145d6e1462000134578063715018a6146200014d578063787dce3d1462000157578063872d136a146200016e5780638da5cb5b146200018557806390666ff9146200018f575b600080fd5b6200010362000239565b60405162000112919062000a03565b60405180910390f35b620001256200023f565b604051620001129190620008d4565b6200014b62000145366004620007e3565b6200024e565b005b6200014b620002b0565b6200014b6200016836600462000847565b620002c8565b6200014b6200017f366004620007e3565b62000309565b6200012562000360565b620001256200036f565b6200014b620001aa36600462000847565b6200037e565b62000125620003bf565b620001d1620001cb366004620007e3565b620003ce565b60405162000112919062000959565b62000103620003e3565b62000103620003e9565b6200014b6200020536600462000860565b620003ef565b6200014b6200021c36600462000847565b620006b9565b6200014b62000233366004620007e3565b620006fa565b60025481565b6006546001600160a01b031681565b620002586200073b565b600680546001600160a01b0319166001600160a01b0383161790556040517fbc1e06e494fbfeb91b3fd39ead6160a6246fef341f5352a61918c05bf42cf98e90620002a5908390620008d4565b60405180910390a150565b620002ba6200073b565b620002c6600062000781565b565b620002d26200073b565b60038190556040517fdc0410a296e1e33943a772020d333d5f99319d7fcad932a484c53889f7aaa2b190620002a590839062000a03565b620003136200073b565b600580546001600160a01b0319166001600160a01b0383161790556040517fbe0f8c41260e53f3d847406e8870c8588bfe623a76be606cd46ae47e58d466a990620002a5908390620008d4565b6000546001600160a01b031690565b6005546001600160a01b031681565b620003886200073b565b60048190556040517ffec3e2cce26c0fccf827d7f8d326ecb9f37ad07b47912dc290d75e165e8e61ae90620002a590839062000a03565b6001546001600160a01b031681565b60076020526000908152604090205460ff1681565b60045481565b60035481565b60015460405163fa2085cf60e01b815286916001600160a01b03169063fa2085cf906200042190849060040162000a03565b60206040518083038186803b1580156200043a57600080fd5b505afa1580156200044f573d6000803e3d6000fd5b505050506040513d601f19601f8201168201806040525081019062000475919062000828565b80156200050e57506001546040516331a9108f60e11b815233916001600160a01b031690636352211e90620004af90859060040162000a03565b60206040518083038186803b158015620004c857600080fd5b505afa158015620004dd573d6000803e3d6000fd5b505050506040513d601f19601f8201168201806040525081019062000503919062000809565b6001600160a01b0316145b620005365760405162461bcd60e51b81526004016200052d90620009aa565b60405180910390fd5b6000858585858a6040516200054b90620007d5565b6200055b95949392919062000925565b604051809103906000f08015801562000578573d6000803e3d6000fd5b509050806001600160a01b031663f2fde38b6200059462000360565b6040518263ffffffff1660e01b8152600401620005b29190620008d4565b600060405180830381600087803b158015620005cd57600080fd5b505af1158015620005e2573d6000803e3d6000fd5b5050506001600160a01b0380831660009081526007602052604090819020805460ff19166001908117909155805491516338d9f74f60e01b81529190921692506338d9f74f9162000639918b919060040162000a0c565b600060405180830381600087803b1580156200065457600080fd5b505af115801562000669573d6000803e3d6000fd5b505050507fe72bfaacd17ad20bb1c314226e04028654a384df25fbbcedd65f92589b286e7f81878787878c604051620006a896959493929190620008e8565b60405180910390a150505050505050565b620006c36200073b565b60028190556040517f60e314eb1dcc14680ab3be0aaa5b70ea0d3828f11e6bcb38305fea8bbf2d49cc90620002a590839062000a03565b620007046200073b565b6001600160a01b0381166200072d5760405162461bcd60e51b81526004016200052d9062000964565b620007388162000781565b50565b62000745620007d1565b6001600160a01b03166200075862000360565b6001600160a01b031614620002c65760405162461bcd60e51b81526004016200052d90620009ce565b600080546001600160a01b038381166001600160a01b0319831681178455604051919092169283917f8be0079c531659141344cd1fd0a4f28419497f9722a3daafe3b4186f6b6457e09190a35050565b3390565b61356c8062000a4083390190565b600060208284031215620007f5578081fd5b8135620008028162000a1a565b9392505050565b6000602082840312156200081b578081fd5b8151620008028162000a1a565b6000602082840312156200083a578081fd5b8151620008028162000a30565b60006020828403121562000859578081fd5b5035919050565b600080600080600060a0868803121562000878578081fd5b8535945060208601356200088c8162000a1a565b935060408601356200089e8162000a1a565b92506060860135620008b08162000a30565b9150608086013560ff81168114620008c6578182fd5b809150509295509295909350565b6001600160a01b0391909116815260200190565b6001600160a01b03968716815294861660208601529290941660408401521515606083015260ff909216608082015260a081019190915260c00190565b6001600160a01b039586168152939094166020840152901515604083015260ff166060820152608081019190915260a00190565b901515815260200190565b60208082526026908201527f4f776e61626c653a206e6577206f776e657220697320746865207a65726f206160408201526564647265737360d01b606082015260800190565b6020808252600a90820152693737ba102232b0b632b960b11b604082015260600190565b6020808252818101527f4f776e61626c653a2063616c6c6572206973206e6f7420746865206f776e6572604082015260600190565b90815260200190565b918252602082015260400190565b6001600160a01b03811681146200073857600080fd5b80151581146200073857600080fdfe6080604052600e8054600160a01b600160e01b03191690556000600f553480156200002957600080fd5b506040516200356c3803806200356c8339810160408190526200004c9162000661565b620000606200005a620005cc565b620005d0565b6003819055600880546001600160a01b0319166001600160a01b038716179055604080516390666ff960e01b81529051339182916390666ff991600480820192602092909190829003018186803b158015620000bb57600080fd5b505afa158015620000d0573d6000803e3d6000fd5b505050506040513d601f19601f82011682018060405250810190620000f691906200063d565b600e80546001600160a01b0319166001600160a01b0392831617908190556040516310cd532560e01b81529116906310cd5325906200013e90889087908990600401620006ee565b600060405180830381600087803b1580156200015957600080fd5b505af11580156200016e573d6000803e3d6000fd5b5050505060405180608001604052806000815260200160008152602001600e60009054906101000a90046001600160a01b03166001600160a01b03166398d5fdca6040518163ffffffff1660e01b815260040160206040518083038186803b158015620001da57600080fd5b505afa158015620001ef573d6000803e3d6000fd5b505050506040513d601f19601f82011682018060405250810190620002159190620006d5565b815260006020918201819052825160115582820151601255604080840151601355606093840151601455805160a08101825282815280840183905280820192909252600e548151634c6afee560e11b8152915192948501936001600160a01b03909116926398d5fdca926004808201939291829003018186803b1580156200029c57600080fd5b505afa158015620002b1573d6000803e3d6000fd5b505050506040513d601f19601f82011682018060405250810190620002d79190620006d5565b8152600060209182015281516015558181015160165560408083015160175560608301516018556080909201516019558151631698e0b760e11b815291516001600160a01b03841692632d31c16e926004828101939192829003018186803b1580156200034357600080fd5b505afa15801562000358573d6000803e3d6000fd5b505050506040513d601f19601f820116820180604052508101906200037e9190620006d5565b600a81905550806001600160a01b031663b0e21e8a6040518163ffffffff1660e01b815260040160206040518083038186803b158015620003be57600080fd5b505afa158015620003d3573d6000803e3d6000fd5b505050506040513d601f19601f82011682018060405250810190620003f99190620006d5565b600b81905550806001600160a01b031663ac02c0bd6040518163ffffffff1660e01b815260040160206040518083038186803b1580156200043957600080fd5b505afa1580156200044e573d6000803e3d6000fd5b505050506040513d601f19601f82011682018060405250810190620004749190620006d5565b600c81905550806001600160a01b0316633a267ea36040518163ffffffff1660e01b815260040160206040518083038186803b158015620004b457600080fd5b505afa158015620004c9573d6000803e3d6000fd5b505050506040513d601f19601f82011682018060405250810190620004ef91906200063d565b600d80546001600160a01b0319166001600160a01b0392909216919091179055600a546040517f60e314eb1dcc14680ab3be0aaa5b70ea0d3828f11e6bcb38305fea8bbf2d49cc91620005429162000714565b60405180910390a17fdc0410a296e1e33943a772020d333d5f99319d7fcad932a484c53889f7aaa2b1600b546040516200057d919062000714565b60405180910390a17ffec3e2cce26c0fccf827d7f8d326ecb9f37ad07b47912dc290d75e165e8e61ae600c54604051620005b8919062000714565b60405180910390a15050505050506200071d565b3390565b600080546001600160a01b038381166001600160a01b0319831681178455604051919092169283917f8be0079c531659141344cd1fd0a4f28419497f9722a3daafe3b4186f6b6457e09190a35050565b80516001600160a01b03811681146200063857600080fd5b919050565b6000602082840312156200064f578081fd5b6200065a8262000620565b9392505050565b600080600080600060a0868803121562000679578081fd5b620006848662000620565b9450620006946020870162000620565b935060408601518015158114620006a9578182fd5b606087015190935060ff81168114620006c0578182fd5b80925050608086015190509295509295909350565b600060208284031215620006e7578081fd5b5051919050565b6001600160a01b0393909316835260ff9190911660208301521515604082015260600190565b90815260200190565b612e3f806200072d6000396000f3fe608060405234801561001057600080fd5b50600436106101dc5760003560e01c80638fd418d311610105578063b868723e1161009d578063b868723e1461038c578063b9dcde1014610394578063bef3a0831461039c578063cf9afab5146103a4578063d3ce1c82146103ac578063da8e1d75146103bf578063deebe410146103c7578063e38fd531146103ec578063f2fde38b146103ff576101dc565b80638fd418d31461030e57806396336b301461032657806398d5fdca1461032e5780639de2ee2114610336578063ac02c0bd1461033e578063af640d0f14610346578063b0e21e8a1461034e578063b22e2b9314610356578063b6d7a1c914610379576101dc565b80633608cdf8116101785780633608cdf8146102805780633627d0e0146102935780633a267ea3146102a657806348db5f89146102bb5780635d9e05db146102c3578063669c636d146102e357806369145d6e146102eb578063715018a6146102fe5780638da5cb5b14610306576101dc565b8063053f14da146101e15780630a0e5c9d146101ff5780630c2804441461021457806317fbe3541461021c5780632843d22d146102245780632986c0e5146102375780632d1aeb281461024c5780632d31c16e1461025f5780633572623414610267575b600080fd5b6101e9610412565b6040516101f69190612aec565b60405180910390f35b61021261020d3660046124d3565b610418565b005b6101e96105d6565b6101e96105e6565b610212610232366004612616565b6105ec565b61023f610b9c565b6040516101f69190612b76565b61021261025a3660046124fc565b610baf565b6101e9610f11565b61026f610f17565b6040516101f6959493929190612b53565b6101e961028e3660046125fc565b610f29565b6102126102a13660046125aa565b610fd0565b6102ae611068565b6040516101f6919061265d565b6102ae611077565b6102d66102d1366004612590565b611086565b6040516101f691906126ef565b61021261109b565b6102126102f93660046124b9565b611130565b61021261115a565b6102ae61116e565b61031661117d565b6040516101f69493929190612b38565b6102ae61118c565b6101e961119b565b6102ae611218565b6101e9611227565b6101e961122d565b6101e9611233565b6103696103643660046125fc565b611239565b6040516101f69493929190612671565b6102126103873660046125cc565b611273565b6101e96112b0565b6101e96112b6565b6101e96112bc565b6102d66112c2565b6102126103ba366004612537565b6112cb565b61023f611802565b6103da6103d53660046125fc565b611815565b6040516101f69695949392919061269d565b6102126103fa3660046125aa565b61185d565b61021261040d3660046124b9565b6118e8565b600f5481565b60025482906001600160a01b038083169116146104505760405162461bcd60e51b8152600401610447906128fb565b60405180910390fd5b600454156104705760405162461bcd60e51b8152600401610447906127af565b42821161048f5760405162461bcd60e51b8152600401610447906129bd565b600254600354604051630a15c49160e11b81526001600160a01b039092169163142b8922916104c2918690600401612b14565b600060405180830381600087803b1580156104dc57600080fd5b505af11580156104f0573d6000803e3d6000fd5b506001925050505b600e5463ffffffff600160c01b90910481169082161161056a5763ffffffff81166000908152601a602052604090208054600180830154600290930154610557936001600160a01b0393841693811692600160a01b909104900b611922565b508061056281612d99565b9150506104f8565b506002546003546040516338d9f74f60e01b81526001600160a01b03909216916338d9f74f9161059f91600090600401612b14565b600060405180830381600087803b1580156105b957600080fd5b505af11580156105cd573d6000803e3d6000fd5b50505050505050565b60006105e0611c4b565b90505b90565b60105481565b60015460035460405163b28a0a7f60e01b815284926000926001600160a01b039091169162fdd58e918591849163b28a0a7f9161062c9190600401612aec565b60206040518083038186803b15801561064457600080fd5b505afa158015610658573d6000803e3d6000fd5b505050506040513d601f19601f8201168201806040525081019061067c91906125e4565b6040518363ffffffff1660e01b81526004016106999291906126d6565b60206040518083038186803b1580156106b157600080fd5b505afa1580156106c5573d6000803e3d6000fd5b505050506040513d601f19601f820116820180604052508101906106e991906125e4565b116107065760405162461bcd60e51b815260040161044790612778565b61070e6112c2565b1561072b5760405162461bcd60e51b8152600401610447906127dc565b63ffffffff84166000908152601b6020908152604091829020825160c08101845281546001600160a01b0390811680835260018085015492831695840195909552600160a01b909104840b840b90930b9381019390935260028101546060840152600381015460808401526004015460a083015233146107bd5760405162461bcd60e51b815260040161044790612940565b836001600160a01b031681602001516001600160a01b0316146107f25760405162461bcd60e51b815260040161044790612869565b6006546107fe81611cab565b6000610825836080015161081f8560a0015185611d5090919063ffffffff16565b90611d74565b905060006108656000856040015160010b1361085157846040015161084990612dbd565b60010b61085a565b846040015160010b5b606086015190611d8d565b9050600080856040015160010b13156108915761088a610883611c4b565b8490611d74565b90506108c1565b6108be61089c611c4b565b61081f856108b860028a60800151611d9990919063ffffffff16565b90611da5565b90505b60006108d8600b5483611d7490919063ffffffff16565b9050610907816109016108f6600a5487611d7490919063ffffffff16565b60608a015190611db1565b90611db1565b6109118385611db1565b1161092e5760405162461bcd60e51b81526004016104479061272d565b6000866040015160010b13156109825760125484111561094e5760125493505b60125461095b9085611da5565b6012556013859055606086015160115461097491611da5565b6011556012546014556109d6565b6016548411156109925760165493505b601885905560608601516015546109a891611da5565b6015556016546109b89085611da5565b60165560808601516017546109cc91611da5565b6017556016546019555b8160105410156109e65760105491505b6010546109f39083611da5565b6010556060860151600090610a0c906108b88587611db1565b6008546040516370a0823160e01b81529192506000916001600160a01b03909116906370a0823190610a4290309060040161265d565b60206040518083038186803b158015610a5a57600080fd5b505afa158015610a6e573d6000803e3d6000fd5b505050506040513d601f19601f82011682018060405250810190610a9291906125e4565b905081811015610aa0578091505b600b5415610aeb57610ac98a610ab68486611da5565b6008546001600160a01b03169190611dbd565b600d54600854610ae6916001600160a01b03918216911685611dbd565b610b02565b600854610b02906001600160a01b03168b84611dbd565b7fd0f219269b2989457aec2ba9ff3e215e5834b740f1bbea057f5ab4c7f250cf1d8c896020015188878b88604051610b3f96959493929190612bc3565b60405180910390a150505063ffffffff9098166000908152601b6020526040812080546001600160a01b03191681556001810180546001600160b01b03191690556002810182905560038101829055600401555050505050505050565b600e54600160c01b900463ffffffff1681565b60015460035460405163b28a0a7f60e01b815285926000926001600160a01b039091169162fdd58e918591849163b28a0a7f91610bef9190600401612aec565b60206040518083038186803b158015610c0757600080fd5b505afa158015610c1b573d6000803e3d6000fd5b505050506040513d601f19601f82011682018060405250810190610c3f91906125e4565b6040518363ffffffff1660e01b8152600401610c5c9291906126d6565b60206040518083038186803b158015610c7457600080fd5b505afa158015610c88573d6000803e3d6000fd5b505050506040513d601f19601f82011682018060405250810190610cac91906125e4565b11610cc95760405162461bcd60e51b815260040161044790612778565b60045415610ce95760405162461bcd60e51b8152600401610447906127af565b60015460035460405163b28a0a7f60e01b81526001600160a01b039092169162fdd58e918791849163b28a0a7f91610d249190600401612aec565b60206040518083038186803b158015610d3c57600080fd5b505afa158015610d50573d6000803e3d6000fd5b505050506040513d601f19601f82011682018060405250810190610d7491906125e4565b6040518363ffffffff1660e01b8152600401610d919291906126d6565b60206040518083038186803b158015610da957600080fd5b505afa158015610dbd573d6000803e3d6000fd5b505050506040513d601f19601f82011682018060405250810190610de191906125e4565b6001600160a01b03851660009081526007602052604090205410610e175760405162461bcd60e51b815260040161044790612a6a565b600e8054600160a01b900463ffffffff16906014610e3483612d99565b82546101009290920a63ffffffff818102199093169183160217909155604080516080810182523381526001600160a01b03888116602080840182815260018a810b868801908152606087018d8152600e54600160a01b90819004909a166000908152601a8652898120985189546001600160a01b0319908116918a16919091178a559451898501805494519490961698169790971761ffff60a01b191661ffff9290930b919091169098021790559451600290930192909255908152600790925281208054925090610f0683612d7e565b919050555050505050565b600a5481565b60155460165460175460185460195485565b63ffffffff81166000908152601b60209081526040808320815160c08101835281546001600160a01b03908116825260018084015491821695830195909552600160a01b9004840b840b90930b918301919091526002810154606083018190526003820154608084015260049091015460a0830152610fba5760405162461bcd60e51b815260040161044790612a93565b6000610fc582611e18565b50925050505b919050565b610fd8612063565b600181810b810b60009081526009602081905260408220805460ff1916841790559061100384612dbd565b60010b60010b815260200190815260200160002060006101000a81548160ff0219169083151502179055507ff67b5be99da014dc5bbb05f7a10b5c1e1eaf761dcff49aef0a830ffd33b5c9dc8160405161105d9190612add565b60405180910390a150565b600d546001600160a01b031681565b6001546001600160a01b031681565b60096020526000908152604090205460ff1681565b6110a3612063565b600e60009054906101000a90046001600160a01b03166001600160a01b0316631bde34566040518163ffffffff1660e01b8152600401602060405180830381600087803b1580156110f357600080fd5b505af1158015611107573d6000803e3d6000fd5b505050506040513d601f19601f8201168201806040525081019061112b91906125e4565b600655565b611138612063565b600d80546001600160a01b0319166001600160a01b0392909216919091179055565b611162612063565b61116c60006120a2565b565b6000546001600160a01b031690565b60115460125460135460145484565b6008546001600160a01b031681565b600e5460408051634c6afee560e11b815290516000926001600160a01b0316916398d5fdca916004808301926020929190829003018186803b1580156111e057600080fd5b505afa1580156111f4573d6000803e3d6000fd5b505050506040513d601f19601f820116820180604052508101906105e091906125e4565b6002546001600160a01b031681565b600c5481565b60035481565b600b5481565b601a60205260009081526040902080546001808301546002909301546001600160a01b039283169392831692600160a01b900490910b9084565b61127b612063565b600a8190556040517f60e314eb1dcc14680ab3be0aaa5b70ea0d3828f11e6bcb38305fea8bbf2d49cc9061105d908390612aec565b60065481565b60055481565b60045481565b60045442111590565b60015460035460405163b28a0a7f60e01b815285926000926001600160a01b039091169162fdd58e918591849163b28a0a7f9161130b9190600401612aec565b60206040518083038186803b15801561132357600080fd5b505afa158015611337573d6000803e3d6000fd5b505050506040513d601f19601f8201168201806040525081019061135b91906125e4565b6040518363ffffffff1660e01b81526004016113789291906126d6565b60206040518083038186803b15801561139057600080fd5b505afa1580156113a4573d6000803e3d6000fd5b505050506040513d601f19601f820116820180604052508101906113c891906125e4565b116113e55760405162461bcd60e51b815260040161044790612778565b6113ed6112c2565b1561140a5760405162461bcd60e51b8152600401610447906127dc565b63ffffffff83166000908152601b6020908152604091829020825160c08101845281546001600160a01b03908116825260018084015491821694830194909452600160a01b9004830b830b90920b928201929092526002820154606082018190526003830154608083015260049092015460a08201529061149d5760405162461bcd60e51b81526004016104479061291f565b6006546000806114ac84611e18565b915091506000198214156114d25760405162461bcd60e51b8152600401610447906128d1565b816114df5782915061150e565b6000846040015160010b13151583831115151461150e5760405162461bcd60e51b8152600401610447906128d1565b61151782611cab565b6000611538856080015161081f8760a0015186611d5090919063ffffffff16565b9050600080866040015160010b13156115645761155d611556611c4b565b8390611d74565b905061158e565b61158b61156f611c4b565b61081f846108b860028b60800151611d9990919063ffffffff16565b90505b6000866040015160010b13156115e1576012548211156115ae5760125491505b601384905560608601516011546115c491611da5565b6011556012546115d49083611da5565b6012819055601455611635565b6016548211156115f15760165491505b6018849055606086015160155461160791611da5565b6015556016546116179083611da5565b601655608086015160175461162b91611da5565b6017556016546019555b80601054101561164457506010545b6010546116519082611da5565b6010556008546040516370a0823160e01b81526000916001600160a01b0316906370a082319061168590309060040161265d565b60206040518083038186803b15801561169d57600080fd5b505afa1580156116b1573d6000803e3d6000fd5b505050506040513d601f19601f820116820180604052508101906116d591906125e4565b905060006116ee600a5486611d7490919063ffffffff16565b9050600080600c5411156117485781831015611708578291505b600c54611716908390611d74565b90506117268b610ab68484611da5565b600d54600854611743916001600160a01b03918216911683611dbd565b61176b565b81831015611754578291505b60085461176b906001600160a01b03168c84611dbd565b7f6f38507ff54d95a72680dddf08a58aa66bd84d38c252b5bbf63465b56e11aed28c8c87878b866040516117a496959493929190612bc3565b60405180910390a150505063ffffffff9098166000908152601b6020526040812080546001600160a01b03191681556001810180546001600160b01b0319169055600281018290556003810182905560040155505050505050505050565b600e54600160a01b900463ffffffff1681565b601b6020526000908152604090208054600180830154600284015460038501546004909501546001600160a01b039485169594831694600160a01b90930490930b9290919086565b611865612063565b600181810b900b60009081526009602081905260408220805460ff191690558161188e84612dbd565b60010b60010b815260200190815260200160002060006101000a81548160ff0219169083151502179055507f0ad48029b5a777c16c44eb514377797a70850e93d05fabaffea42f25954401268160405161105d9190612add565b6118f0612063565b6001600160a01b0381166119165760405162461bcd60e51b815260040161044790612803565b61191f816120a2565b50565b600181810b900b60009081526009602052604081205460ff166119575760405162461bcd60e51b815260040161044790612755565b600083116119775760405162461bcd60e51b815260040161044790612964565b61198184846120f2565b600e5460408051630def1a2b60e11b815290516000926001600160a01b031691631bde345691600480830192602092919082900301818787803b1580156119c757600080fd5b505af11580156119db573d6000803e3d6000fd5b505050506040513d601f19601f820116820180604052508101906119ff91906125e4565b60058190559050611a0f81611cab565b600e8054600160c01b900463ffffffff16906018611a2c83612d99565b91906101000a81548163ffffffff021916908363ffffffff160217905550506000808460010b13611a7257611a6d611a6385612dbd565b869060010b611d99565b611a80565b611a8085600186900b611d99565b90506000611a96611a8f611c4b565b8390611d50565b6040805160c0810182526001600160a01b03808c1682528a8116602080840191825260018b810b858701818152606087018b8152608088018a815260a089018e8152600e5463ffffffff600160c01b909104166000908152601b909752998620985189549089166001600160a01b0319918216178a5596518986018054945190960b61ffff16600160a01b0261ffff60a01b199190991693909716929092179590951695909517909155915160028501559151600384015592516004909201919091559192501315611b91576013839055601154611b749083611db1565b601155601254611b849082611db1565b6012819055601455611bcd565b6018839055601554611ba39083611db1565b601555601654611bb39082611db1565b601655601754611bc39082611db1565b6017556016546019555b601054611bda9083611db1565b601055600e546040517f561cdb01c3e4e301a13e882a3914d5d30dbb217e14dab8bfec1730111b32426091611c2791600160c01b90910463ffffffff16908a908a90869089908c90612b87565b60405180910390a15050600e54600160c01b900463ffffffff169695505050505050565b601654601754600091611c7191611c6891906108b8906002611d99565b60125490611db1565b611c845750670de0b6b3a76400006105e3565b6016546017546105e091611ca291611c6891906108b8906002611d99565b60105490611d50565b80600f541415611cba5761191f565b600f819055601154611cd0576000601255611cea565b601454601354611ce6919061081f908490611d50565b6012555b601554611d005760006016819055601755611d1a565b601954601854611d16919061081f908490611d50565b6016555b6012546016546040517fc6642d24d84e7f3d36ca39f5cce10e75639d9b158d5193aa350e2f900653e4c09261105d928592612b22565b6000611d6d611d6784670de0b6b3a7640000611d99565b83611d8d565b9392505050565b6000611d6d611d838484611d99565b670de0b6b3a76400005b6000611d6d8284612c42565b6000611d6d8284612cd9565b6000611d6d8284612d37565b6000611d6d8284612bfc565b611e138363a9059cbb60e01b8484604051602401611ddc9291906126d6565b60408051601f198184030181529190526020810180516001600160e01b03166001600160e01b0319909316929092179091526122ca565b505050565b600080611e576000846040015160010b13611e43578360400151611e3b90612dbd565b60010b611e4c565b836040015160010b5b606085015190611d8d565b90506000611e82611e77600a54670de0b6b3a76400006108839190612d37565b606086015190611da5565b90506000846040015160010b1315611f3457601854601954600091611ed591611eaa91611d50565b61090160105461081f86611ecf8b60a001518c60800151611d5090919063ffffffff16565b90611d50565b601354601454919250600091611eea91611d50565b905080821115611f2857601754611f05576000199450611f23565b611f20611f128383611da5565b601754611ecf906002611d99565b94505b611f2d565b600094505b505061205d565b601354601454600091611f479190611d50565b601854601954919250600091611f5c91611d50565b9050600081831115611fa057611f99611f86611f788486612d37565b60105461081f908890611d50565b60a089015160808a015161090191611d50565b9050611fdb565b611fbb611fad8484612d37565b60105461081f908790611d50565b60a08801516080890151611fce91611d50565b611fd89190612cf8565b90505b6000612006600261200060156002015461081f6010548a611d5090919063ffffffff16565b90611d99565b6080890151612016906002611d99565b6120209190612cf8565b90506000808313908213146120385760009650612058565b8161204b670de0b6b3a764000083612c56565b6120559190612c14565b96505b505050505b50915091565b61206b612359565b6001600160a01b031661207c61116e565b6001600160a01b03161461116c5760405162461bcd60e51b815260040161044790612988565b600080546001600160a01b038381166001600160a01b0319831681178455604051919092169283917f8be0079c531659141344cd1fd0a4f28419497f9722a3daafe3b4186f6b6457e09190a35050565b601c5460ff16156121155760405162461bcd60e51b815260040161044790612abf565b601c805460ff191660011790556008546040516370a0823160e01b81526000916001600160a01b0316906370a082319061215390309060040161265d565b60206040518083038186803b15801561216b57600080fd5b505afa15801561217f573d6000803e3d6000fd5b505050506040513d601f19601f820116820180604052508101906121a391906125e4565b6008546040516327adaa4560e01b815291925033916327adaa45916121d89186916001600160a01b0316908890600401612af5565b600060405180830381600087803b1580156121f257600080fd5b505af1158015612206573d6000803e3d6000fd5b5050505061221d8282611db190919063ffffffff16565b6008546040516370a0823160e01b81526001600160a01b03909116906370a082319061224d90309060040161265d565b60206040518083038186803b15801561226557600080fd5b505afa158015612279573d6000803e3d6000fd5b505050506040513d601f19601f8201168201806040525081019061229d91906125e4565b10156122bb5760405162461bcd60e51b815260040161044790612849565b5050601c805460ff1916905550565b600061231f826040518060400160405280602081526020017f5361666545524332303a206c6f772d6c6576656c2063616c6c206661696c6564815250856001600160a01b031661235d9092919063ffffffff16565b805190915015611e13578080602001905181019061233d9190612570565b611e135760405162461bcd60e51b815260040161044790612a20565b3390565b606061236c8484600085612374565b949350505050565b6060824710156123965760405162461bcd60e51b81526004016104479061288b565b61239f85612434565b6123bb5760405162461bcd60e51b8152600401610447906129e9565b600080866001600160a01b031685876040516123d79190612641565b60006040518083038185875af1925050503d8060008114612414576040519150601f19603f3d011682016040523d82523d6000602084013e612419565b606091505b5091509150612429828286612443565b979650505050505050565b6001600160a01b03163b151590565b60608315612452575081611d6d565b8251156124625782518084602001fd5b8160405162461bcd60e51b815260040161044791906126fa565b80356001600160a01b0381168114610fcb57600080fd5b8035600181900b8114610fcb57600080fd5b803563ffffffff81168114610fcb57600080fd5b6000602082840312156124ca578081fd5b611d6d8261247c565b600080604083850312156124e5578081fd5b6124ee8361247c565b946020939093013593505050565b600080600060608486031215612510578081fd5b6125198461247c565b92506020840135915061252e60408501612493565b90509250925092565b60008060006060848603121561254b578283fd5b6125548461247c565b9250612562602085016124a5565b915061252e6040850161247c565b600060208284031215612581578081fd5b81518015158114611d6d578182fd5b6000602082840312156125a1578081fd5b611d6d82612493565b6000602082840312156125bb578081fd5b813561ffff81168114611d6d578182fd5b6000602082840312156125dd578081fd5b5035919050565b6000602082840312156125f5578081fd5b5051919050565b60006020828403121561260d578081fd5b611d6d826124a5565b60008060006060848603121561262a578283fd5b612633846124a5565b92506125626020850161247c565b60008251612653818460208701612d4e565b9190910192915050565b6001600160a01b0391909116815260200190565b6001600160a01b03948516815292909316602083015260010b6040820152606081019190915260800190565b6001600160a01b03968716815294909516602085015260019290920b60408401526060830152608082015260a081019190915260c00190565b6001600160a01b03929092168252602082015260400190565b901515815260200190565b6000602082528251806020840152612719816040850160208701612d4e565b601f01601f19169190910160400192915050565b6020808252600e908201526d34b7103634b8bab4b230ba34b7b760911b604082015260600190565b6020808252600990820152683632bb32b61022b93960b91b604082015260600190565b6020808252601c908201527f796f7520617265206e6f74207468697320706f6f6c20706c6179657200000000604082015260600190565b6020808252601390820152722837b7b6103430b9903132b2b7103132b3bab760691b604082015260600190565b6020808252600d908201526c506f6f6c20697320676f696e6760981b604082015260600190565b60208082526026908201527f4f776e61626c653a206e6577206f776e657220697320746865207a65726f206160408201526564647265737360d01b606082015260800190565b602080825260069082015265282a1022b93960d11b604082015260600190565b6020808252600890820152673ab9b2b91022b93960c11b604082015260600190565b60208082526026908201527f416464726573733a20696e73756666696369656e742062616c616e636520666f6040820152651c8818d85b1b60d21b606082015260800190565b60208082526010908201526f1b1a5c5d5a59185d1a5bdb8819985a5b60821b604082015260600190565b6020808252600a90820152693737ba102232b0b632b960b11b604082015260600190565b6020808252600790820152663634b89022b93960c91b604082015260600190565b6020808252600a90820152693937baba32b91022b93960b11b604082015260600190565b6020808252600a908201526936b0b933b4b71022b93960b11b604082015260600190565b6020808252818101527f4f776e61626c653a2063616c6c6572206973206e6f7420746865206f776e6572604082015260600190565b602080825260129082015271646561646c696e6520746f6f206561726c7960701b604082015260600190565b6020808252601d908201527f416464726573733a2063616c6c20746f206e6f6e2d636f6e7472616374000000604082015260600190565b6020808252602a908201527f5361666545524332303a204552433230206f7065726174696f6e20646964206e6040820152691bdd081cdd58d8d9595960b21b606082015260800190565b6020808252600f908201526e1e5bdd481a185d99481bdc195b9959608a1b604082015260600190565b6020808252601290820152713737b716b2bc34b9ba103837b9b4ba34b7b760711b604082015260600190565b6020808252600490820152634c4f434b60e01b604082015260600190565b61ffff91909116815260200190565b90815260200190565b9283526001600160a01b03918216602084015216604082015260600190565b918252602082015260400190565b9283526020830191909152604082015260600190565b93845260208401929092526040830152606082015260800190565b948552602085019390935260408401919091526060830152608082015260a00190565b63ffffffff91909116815260200190565b63ffffffff9690961686526001600160a01b0394909416602086015260408501929092526060840152608083015260010b60a082015260c00190565b63ffffffff9690961686526001600160a01b0394909416602086015260408501929092526060840152608083015260a082015260c00190565b60008219821115612c0f57612c0f612ddd565b500190565b600082612c2357612c23612df3565b600160ff1b821460001984141615612c3d57612c3d612ddd565b500590565b600082612c5157612c51612df3565b500490565b60006001600160ff1b0381841382841380821686840486111615612c7c57612c7c612ddd565b600160ff1b84871282811687830589121615612c9a57612c9a612ddd565b858712925087820587128484161615612cb557612cb5612ddd565b87850587128184161615612ccb57612ccb612ddd565b505050929093029392505050565b6000816000190483118215151615612cf357612cf3612ddd565b500290565b60008083128015600160ff1b850184121615612d1657612d16612ddd565b6001600160ff1b0384018313811615612d3157612d31612ddd565b50500390565b600082821015612d4957612d49612ddd565b500390565b60005b83811015612d69578181015183820152602001612d51565b83811115612d78576000848401525b50505050565b6000600019821415612d9257612d92612ddd565b5060010190565b600063ffffffff80831681811415612db357612db3612ddd565b6001019392505050565b60008160010b617fff19811415612dd657612dd6612ddd565b9003919050565b634e487b7160e01b600052601160045260246000fd5b634e487b7160e01b600052601260045260246000fdfea26469706673582212209fd3e155b9bc1d4e2b578321478c53712cab621f048dd5be8da8957f81caa89564736f6c63430008010033a26469706673582212209a1c457a87d5c20cd1d86c5cac55bde109bb15737b7f17b66f5e1444dad20d0564736f6c63430008010033",
  "immutableReferences": {},
  "source": "pragma solidity ^0.8.0;\n\nimport \"@openzeppelin/contracts/access/Ownable.sol\";\nimport \"./proof/Dealer.sol\";\nimport \"./Pool.sol\";\nimport \"./interfaces/ISettings.sol\";\nimport \"./interfaces/IFactory.sol\";\n\n/**\n    \n        dealer\n\n    \n        ----nftgetDealerStatustrue\n        idnft\n */\ncontract Factory is Ownable, ISettings, IFactory {\n\n    address public dealer;\n\n    uint256 public override marginRatio;\n    uint256 public override protocolFee;\n    uint256 public override liqProtocolFee;\n    address public override priceAddress;\n    address public override protocolReceipt;\n    mapping(address => bool) public override pools;\n\n    constructor(\n        uint256 marginRatio_, \n        uint256 protocolFee_, \n        uint256 liqProtocolFee_, \n        address priceAddress_, \n        address protocolReceipt_,\n        address dealer_\n    ) {\n        marginRatio = marginRatio_;\n        protocolFee = protocolFee_;\n        liqProtocolFee = liqProtocolFee_;\n        priceAddress = priceAddress_;\n        protocolReceipt = protocolReceipt_;\n        dealer == dealer_;\n\n        emit SetMarginRatio(marginRatio_);\n        emit SetProtocolFee(protocolFee_);\n        emit SetLiqProtocolFee(liqProtocolFee_);\n        emit SetPriceAddress(priceAddress_);\n        emit SetProtocolReceipt(protocolReceipt_);\n    }\n\n    // typ: oracle \n    // 1 chain link\n    // 2 uni swap v2\n    // 3 uni swap v3\n    // 4 sushi swap v2\n    // 5 camelot\n    function createPool(uint256 id, address payToken, address oracle, bool reverse, uint8 typ) external onlyDealerAndType(id) {\n        Pool pool = new Pool(payToken, oracle, reverse, typ, id);\n        pool.transferOwnership(owner());\n\n        pools[address(pool)] = true;\n\n        Dealer(dealer).setDealerType(id, 1);\n        emit CreatePool(address(pool), payToken, oracle, reverse, typ, id);\n    }\n\n    function setMarginRatio(uint256 marginRatio_) external onlyOwner {\n        marginRatio = marginRatio_;\n        emit SetMarginRatio(marginRatio_);\n    }\n\n    function setProtocolFee(uint256 protocolFee_) external onlyOwner {\n        protocolFee = protocolFee_;\n        emit SetProtocolFee(protocolFee_);\n    }\n\n    function setLiqProtocolFee(uint256 liqProtocolFee_) external onlyOwner {\n        liqProtocolFee = liqProtocolFee_;\n        emit SetLiqProtocolFee(liqProtocolFee_);\n    }\n\n    function setPriceAddress(address priceAddress_) external onlyOwner {\n        priceAddress = priceAddress_;\n        emit SetPriceAddress(priceAddress_);\n    }\n\n    function setProtocolReceipt(address protocolReceipt_) external onlyOwner {\n        protocolReceipt = protocolReceipt_;\n        emit SetProtocolReceipt(protocolReceipt_);\n    }\n\n    modifier onlyDealerAndType(uint256 id) {\n        require(Dealer(dealer).getDealerStatus(id) && Dealer(dealer).ownerOf(id) == msg.sender, \"not Dealer\");\n        _;\n    }\n}\n",
  "sourcePath": "/Users/pengyun/Desktop/code/qilin-pvp-v2/contracts/Factory.sol",
  "compiler": {
    "name": "solc",
    "version": "0.8.1+commit.df193b15.Emscripten.clang"
  },
  "schemaVersion": "3.3.3",
  "updatedAt": "2023-05-16T09:40:32.463Z",
  "devdoc": {
    "kind": "dev",
    "methods": {
      "owner()": {
        "details": "Returns the address of the current owner."
      },
      "renounceOwnership()": {
        "details": "Leaves the contract without owner. It will not be possible to call `onlyOwner` functions anymore. Can only be called by the current owner. NOTE: Renouncing ownership will leave the contract without an owner, thereby removing any functionality that is only available to the owner."
      },
      "transferOwnership(address)": {
        "details": "Transfers ownership of the contract to a new account (`newOwner`). Can only be called by the current owner."
      }
    },
    "version": 1
  },
  "userdoc": {
    "kind": "user",
    "methods": {},
    "notice": " dealer  ----nftgetDealerStatustrue idnft",
    "version": 1
  }
}