{
  "contractName": "Player",
  "abi": [
    {
      "inputs": [
        {
          "internalType": "string",
          "name": "name_",
          "type": "string"
        },
        {
          "internalType": "string",
          "name": "symbol_",
          "type": "string"
        },
        {
          "internalType": "string",
          "name": "tokenURI_",
          "type": "string"
        }
      ],
      "stateMutability": "nonpayable",
      "type": "constructor"
    },
    {
      "anonymous": false,
      "inputs": [
        {
          "indexed": true,
          "internalType": "address",
          "name": "account",
          "type": "address"
        },
        {
          "indexed": true,
          "internalType": "address",
          "name": "operator",
          "type": "address"
        },
        {
          "indexed": false,
          "internalType": "bool",
          "name": "approved",
          "type": "bool"
        }
      ],
      "name": "ApprovalForAll",
      "type": "event"
    },
    {
      "anonymous": false,
      "inputs": [
        {
          "indexed": false,
          "internalType": "string",
          "name": "attribute",
          "type": "string"
        }
      ],
      "name": "CreateAttribute",
      "type": "event"
    },
    {
      "anonymous": false,
      "inputs": [
        {
          "indexed": false,
          "internalType": "string",
          "name": "attribute",
          "type": "string"
        },
        {
          "indexed": false,
          "internalType": "uint256[]",
          "name": "ids",
          "type": "uint256[]"
        },
        {
          "indexed": false,
          "internalType": "uint256[]",
          "name": "supply",
          "type": "uint256[]"
        }
      ],
      "name": "CreateID",
      "type": "event"
    },
    {
      "anonymous": false,
      "inputs": [
        {
          "components": [
            {
              "internalType": "string",
              "name": "name",
              "type": "string"
            },
            {
              "internalType": "string",
              "name": "symbol",
              "type": "string"
            },
            {
              "internalType": "string",
              "name": "baseURI",
              "type": "string"
            }
          ],
          "indexed": false,
          "internalType": "struct Player.PropertyParams",
          "name": "params",
          "type": "tuple"
        }
      ],
      "name": "Init",
      "type": "event"
    },
    {
      "anonymous": false,
      "inputs": [
        {
          "indexed": true,
          "internalType": "address",
          "name": "previousOwner",
          "type": "address"
        },
        {
          "indexed": true,
          "internalType": "address",
          "name": "newOwner",
          "type": "address"
        }
      ],
      "name": "OwnershipTransferred",
      "type": "event"
    },
    {
      "anonymous": false,
      "inputs": [
        {
          "indexed": false,
          "internalType": "string",
          "name": "baseUri",
          "type": "string"
        }
      ],
      "name": "SetBaseUri",
      "type": "event"
    },
    {
      "anonymous": false,
      "inputs": [
        {
          "indexed": false,
          "internalType": "address[]",
          "name": "whitelist",
          "type": "address[]"
        }
      ],
      "name": "SetWhitelist",
      "type": "event"
    },
    {
      "anonymous": false,
      "inputs": [
        {
          "indexed": true,
          "internalType": "address",
          "name": "operator",
          "type": "address"
        },
        {
          "indexed": true,
          "internalType": "address",
          "name": "from",
          "type": "address"
        },
        {
          "indexed": true,
          "internalType": "address",
          "name": "to",
          "type": "address"
        },
        {
          "indexed": false,
          "internalType": "uint256[]",
          "name": "ids",
          "type": "uint256[]"
        },
        {
          "indexed": false,
          "internalType": "uint256[]",
          "name": "values",
          "type": "uint256[]"
        }
      ],
      "name": "TransferBatch",
      "type": "event"
    },
    {
      "anonymous": false,
      "inputs": [
        {
          "indexed": true,
          "internalType": "address",
          "name": "operator",
          "type": "address"
        },
        {
          "indexed": true,
          "internalType": "address",
          "name": "from",
          "type": "address"
        },
        {
          "indexed": true,
          "internalType": "address",
          "name": "to",
          "type": "address"
        },
        {
          "indexed": false,
          "internalType": "uint256",
          "name": "id",
          "type": "uint256"
        },
        {
          "indexed": false,
          "internalType": "uint256",
          "name": "value",
          "type": "uint256"
        }
      ],
      "name": "TransferSingle",
      "type": "event"
    },
    {
      "anonymous": false,
      "inputs": [
        {
          "indexed": false,
          "internalType": "string",
          "name": "value",
          "type": "string"
        },
        {
          "indexed": true,
          "internalType": "uint256",
          "name": "id",
          "type": "uint256"
        }
      ],
      "name": "URI",
      "type": "event"
    },
    {
      "inputs": [
        {
          "internalType": "address",
          "name": "account",
          "type": "address"
        },
        {
          "internalType": "uint256",
          "name": "id",
          "type": "uint256"
        }
      ],
      "name": "balanceOf",
      "outputs": [
        {
          "internalType": "uint256",
          "name": "",
          "type": "uint256"
        }
      ],
      "stateMutability": "view",
      "type": "function"
    },
    {
      "inputs": [
        {
          "internalType": "address[]",
          "name": "accounts",
          "type": "address[]"
        },
        {
          "internalType": "uint256[]",
          "name": "ids",
          "type": "uint256[]"
        }
      ],
      "name": "balanceOfBatch",
      "outputs": [
        {
          "internalType": "uint256[]",
          "name": "",
          "type": "uint256[]"
        }
      ],
      "stateMutability": "view",
      "type": "function"
    },
    {
      "inputs": [],
      "name": "dealer",
      "outputs": [
        {
          "internalType": "address",
          "name": "",
          "type": "address"
        }
      ],
      "stateMutability": "view",
      "type": "function"
    },
    {
      "inputs": [
        {
          "internalType": "uint256",
          "name": "",
          "type": "uint256"
        }
      ],
      "name": "dealerToPlayer",
      "outputs": [
        {
          "internalType": "uint256",
          "name": "",
          "type": "uint256"
        }
      ],
      "stateMutability": "view",
      "type": "function"
    },
    {
      "inputs": [
        {
          "internalType": "uint256",
          "name": "",
          "type": "uint256"
        }
      ],
      "name": "idToAmount",
      "outputs": [
        {
          "internalType": "uint256",
          "name": "",
          "type": "uint256"
        }
      ],
      "stateMutability": "view",
      "type": "function"
    },
    {
      "inputs": [
        {
          "internalType": "address",
          "name": "account",
          "type": "address"
        },
        {
          "internalType": "address",
          "name": "operator",
          "type": "address"
        }
      ],
      "name": "isApprovedForAll",
      "outputs": [
        {
          "internalType": "bool",
          "name": "",
          "type": "bool"
        }
      ],
      "stateMutability": "view",
      "type": "function"
    },
    {
      "inputs": [],
      "name": "name",
      "outputs": [
        {
          "internalType": "string",
          "name": "",
          "type": "string"
        }
      ],
      "stateMutability": "view",
      "type": "function"
    },
    {
      "inputs": [],
      "name": "owner",
      "outputs": [
        {
          "internalType": "address",
          "name": "",
          "type": "address"
        }
      ],
      "stateMutability": "view",
      "type": "function"
    },
    {
      "inputs": [
        {
          "internalType": "uint256",
          "name": "",
          "type": "uint256"
        }
      ],
      "name": "playerToAmount",
      "outputs": [
        {
          "internalType": "uint256",
          "name": "",
          "type": "uint256"
        }
      ],
      "stateMutability": "view",
      "type": "function"
    },
    {
      "inputs": [
        {
          "internalType": "uint256",
          "name": "",
          "type": "uint256"
        }
      ],
      "name": "playerType",
      "outputs": [
        {
          "internalType": "uint256",
          "name": "",
          "type": "uint256"
        }
      ],
      "stateMutability": "view",
      "type": "function"
    },
    {
      "inputs": [],
      "name": "renounceOwnership",
      "outputs": [],
      "stateMutability": "nonpayable",
      "type": "function"
    },
    {
      "inputs": [
        {
          "internalType": "address",
          "name": "operator",
          "type": "address"
        },
        {
          "internalType": "bool",
          "name": "approved",
          "type": "bool"
        }
      ],
      "name": "setApprovalForAll",
      "outputs": [],
      "stateMutability": "nonpayable",
      "type": "function"
    },
    {
      "inputs": [
        {
          "internalType": "bytes4",
          "name": "interfaceId",
          "type": "bytes4"
        }
      ],
      "name": "supportsInterface",
      "outputs": [
        {
          "internalType": "bool",
          "name": "",
          "type": "bool"
        }
      ],
      "stateMutability": "view",
      "type": "function"
    },
    {
      "inputs": [],
      "name": "symbol",
      "outputs": [
        {
          "internalType": "string",
          "name": "",
          "type": "string"
        }
      ],
      "stateMutability": "view",
      "type": "function"
    },
    {
      "inputs": [
        {
          "internalType": "address",
          "name": "newOwner",
          "type": "address"
        }
      ],
      "name": "transferOwnership",
      "outputs": [],
      "stateMutability": "nonpayable",
      "type": "function"
    },
    {
      "inputs": [
        {
          "internalType": "uint256",
          "name": "id",
          "type": "uint256"
        },
        {
          "internalType": "uint256",
          "name": "supply",
          "type": "uint256"
        }
      ],
      "name": "createID",
      "outputs": [],
      "stateMutability": "nonpayable",
      "type": "function"
    },
    {
      "inputs": [
        {
          "internalType": "address[]",
          "name": "users",
          "type": "address[]"
        },
        {
          "internalType": "uint256",
          "name": "id",
          "type": "uint256"
        }
      ],
      "name": "mint",
      "outputs": [],
      "stateMutability": "nonpayable",
      "type": "function"
    },
    {
      "inputs": [
        {
          "internalType": "address",
          "name": "from",
          "type": "address"
        },
        {
          "internalType": "address",
          "name": "to",
          "type": "address"
        },
        {
          "internalType": "uint256",
          "name": "id",
          "type": "uint256"
        },
        {
          "internalType": "uint256",
          "name": "amount",
          "type": "uint256"
        },
        {
          "internalType": "bytes",
          "name": "data",
          "type": "bytes"
        }
      ],
      "name": "safeTransferFrom",
      "outputs": [],
      "stateMutability": "nonpayable",
      "type": "function"
    },
    {
      "inputs": [
        {
          "internalType": "address",
          "name": "from",
          "type": "address"
        },
        {
          "internalType": "address",
          "name": "to",
          "type": "address"
        },
        {
          "internalType": "uint256[]",
          "name": "ids",
          "type": "uint256[]"
        },
        {
          "internalType": "uint256[]",
          "name": "amounts",
          "type": "uint256[]"
        },
        {
          "internalType": "bytes",
          "name": "data",
          "type": "bytes"
        }
      ],
      "name": "safeBatchTransferFrom",
      "outputs": [],
      "stateMutability": "nonpayable",
      "type": "function"
    },
    {
      "inputs": [
        {
          "internalType": "uint256",
          "name": "id",
          "type": "uint256"
        }
      ],
      "name": "totalSupply",
      "outputs": [
        {
          "internalType": "uint256",
          "name": "",
          "type": "uint256"
        }
      ],
      "stateMutability": "view",
      "type": "function"
    },
    {
      "inputs": [
        {
          "internalType": "uint256[]",
          "name": "ids",
          "type": "uint256[]"
        }
      ],
      "name": "totalSupplyBatch",
      "outputs": [
        {
          "internalType": "uint256[]",
          "name": "",
          "type": "uint256[]"
        }
      ],
      "stateMutability": "view",
      "type": "function"
    },
    {
      "inputs": [
        {
          "internalType": "uint256",
          "name": "id",
          "type": "uint256"
        }
      ],
      "name": "uri",
      "outputs": [
        {
          "internalType": "string",
          "name": "",
          "type": "string"
        }
      ],
      "stateMutability": "view",
      "type": "function"
    },
    {
      "inputs": [
        {
          "internalType": "string",
          "name": "baseUri",
          "type": "string"
        }
      ],
      "name": "setBaseURI",
      "outputs": [],
      "stateMutability": "nonpayable",
      "type": "function"
    }
  ],
  "bytecode": "0x608060405260006007553480156200001657600080fd5b50604051620021bb380380620021bb833981016040819052620000399162000257565b8062000045816200008f565b506200005a62000054620000a8565b620000ac565b82516200006f906005906020860190620000fe565b50815162000085906006906020850190620000fe565b5050505062000337565b8051620000a4906002906020840190620000fe565b5050565b3390565b600380546001600160a01b038381166001600160a01b0319831681179093556040519116919082907f8be0079c531659141344cd1fd0a4f28419497f9722a3daafe3b4186f6b6457e090600090a35050565b8280546200010c90620002e4565b90600052602060002090601f0160209004810192826200013057600085556200017b565b82601f106200014b57805160ff19168380011785556200017b565b828001600101855582156200017b579182015b828111156200017b5782518255916020019190600101906200015e565b50620001899291506200018d565b5090565b5b808211156200018957600081556001016200018e565b600082601f830112620001b5578081fd5b81516001600160401b0380821115620001d257620001d262000321565b604051601f8301601f19908116603f01168101908282118183101715620001fd57620001fd62000321565b8160405283815260209250868385880101111562000219578485fd5b8491505b838210156200023c57858201830151818301840152908201906200021d565b838211156200024d57848385830101525b9695505050505050565b6000806000606084860312156200026c578283fd5b83516001600160401b038082111562000283578485fd5b6200029187838801620001a4565b94506020860151915080821115620002a7578384fd5b620002b587838801620001a4565b93506040860151915080821115620002cb578283fd5b50620002da86828701620001a4565b9150509250925092565b600281046001821680620002f957607f821691505b602082108114156200031b57634e487b7160e01b600052602260045260246000fd5b50919050565b634e487b7160e01b600052604160045260246000fd5b611e7480620003476000396000f3fe608060405234801561001057600080fd5b506004361061012c5760003560e01c80638da5cb5b116100b35780638da5cb5b1461022b57806395d89b41146102405780639de2ee2114610248578063a22cb46514610250578063acf11e3114610263578063b28a0a7f14610276578063bd85b03914610289578063c9d9c3bd1461029c578063e985e9c5146102af578063ea66696c146102c2578063f242432a146102d5578063f2fde38b146102e35761012c565b8062fdd58e1461013157806301ffc9a71461015a57806306fdde031461017a5780630e89341c1461018f5780631601ecdd146101a25780632eb2c2d6146101b55780634e1273f4146101ca57806355f804b3146101ea5780636f6b84ce146101fd578063715018a61461021057806377954ac214610218575b600080fd5b61014461013f36600461153d565b6102f6565b6040516101519190611bfb565b60405180910390f35b61016d610168366004611676565b61034d565b60405161015191906118b9565b610182610395565b60405161015191906118c4565b61018261019d3660046116f3565b610423565b6101446101b03660046116f3565b610482565b6101c86101c33660046113fc565b610494565b005b6101dd6101d8366004611566565b6104ac565b6040516101519190611878565b6101c86101f83660046116ae565b6105cb565b6101c861020b36600461170b565b610616565b6101c8610674565b6101dd610226366004611608565b610688565b610233610760565b60405161015191906117c1565b610182610770565b61023361077d565b6101c861025e366004611503565b61078c565b6101446102713660046116f3565b6107a2565b6101446102843660046116f3565b6107b4565b6101446102973660046116f3565b6107c6565b6101446102aa3660046116f3565b6107d8565b61016d6102bd3660046113ca565b6107ea565b6101c86102d03660046115c6565b610818565b6101c86101c33660046114a1565b6101c86102f13660046113b0565b610968565b60006001600160a01b0383166103275760405162461bcd60e51b815260040161031e906119da565b60405180910390fd5b506000908152602081815260408083206001600160a01b03949094168352929052205490565b60006001600160e01b03198216636cdb3d1360e11b148061037e57506001600160e01b031982166303a24d0760e21b145b8061038d575061038d826109a2565b90505b919050565b600580546103a290611ca8565b80601f01602080910402602001604051908101604052809291908181526020018280546103ce90611ca8565b801561041b5780601f106103f05761010080835404028352916020019161041b565b820191906000526020600020905b8154815290600101906020018083116103fe57829003601f168201915b505050505081565b60606000610430836109bb565b90506000815111610450576040518060200160405280600081525061047b565b8061045a84610a4f565b60405160200161046b929190611792565b6040516020818303038152906040525b9392505050565b600b6020526000908152604090205481565b60405162461bcd60e51b815260040161031e90611ac7565b606081518351146104cf5760405162461bcd60e51b815260040161031e90611b43565b600083516001600160401b038111156104f857634e487b7160e01b600052604160045260246000fd5b604051908082528060200260200182016040528015610521578160200160208202803683370190505b50905060005b84518110156105c35761058885828151811061055357634e487b7160e01b600052603260045260246000fd5b602002602001015185838151811061057b57634e487b7160e01b600052603260045260246000fd5b60200260200101516102f6565b8282815181106105a857634e487b7160e01b600052603260045260246000fd5b60209081029190910101526105bc81611d0f565b9050610527565b509392505050565b6105d3610cec565b6105dc81610d2b565b7fafa35f42f46f5052816d7c6a2e9406eca98294b20726677862d83b4a7418d8d58160405161060b91906118c4565b60405180910390a150565b6004546001600160a01b031633146106405760405162461bcd60e51b815260040161031e90611a24565b60075461064e906001611c35565b600781905560009283526008602090815260408085208390559184526009905290912055565b61067c610cec565b6106866000610d3e565b565b60606000826001600160401b038111156106b257634e487b7160e01b600052604160045260246000fd5b6040519080825280602002602001820160405280156106db578160200160208202803683370190505b50905060005b838110156105c3576009600086868481811061070d57634e487b7160e01b600052603260045260246000fd5b9050602002013581526020019081526020016000205482828151811061074357634e487b7160e01b600052603260045260246000fd5b60209081029190910101528061075881611d0f565b9150506106e1565b6003546001600160a01b03165b90565b600680546103a290611ca8565b6004546001600160a01b031681565b61079e610797610d90565b8383610d94565b5050565b600a6020526000908152604090205481565b60086020526000908152604090205481565b60009081526009602052604090205490565b60096020526000908152604090205481565b6001600160a01b03918216600090815260016020908152604080832093909416825291909152205460ff1690565b6004546001600160a01b031633146108425760405162461bcd60e51b815260040161031e90611a24565b6007546000908152600960209081526040808320548551600b90935292205461086b9190611c35565b11156108895760405162461bcd60e51b815260040161031e90611973565b81516000828152600b60205260409020546108a49190611c35565b6000828152600b60205260408120919091555b8251811015610963576108f18382815181106108e357634e487b7160e01b600052603260045260246000fd5b6020026020010151836102f6565b1561090e5760405162461bcd60e51b815260040161031e90611bcd565b61095183828151811061093157634e487b7160e01b600052603260045260246000fd5b602002602001015183600160405180602001604052806000815250610e37565b8061095b81611d0f565b9150506108b7565b505050565b610970610cec565b6001600160a01b0381166109965760405162461bcd60e51b815260040161031e90611994565b61099f81610d3e565b50565b6001600160e01b031981166301ffc9a760e01b14919050565b6060600280546109ca90611ca8565b80601f01602080910402602001604051908101604052809291908181526020018280546109f690611ca8565b8015610a435780601f10610a1857610100808354040283529160200191610a43565b820191906000526020600020905b815481529060010190602001808311610a2657829003601f168201915b50505050509050919050565b606081610a7457506040805180820190915260018152600360fc1b6020820152610390565b8160005b8115610a9e5780610a8881611d0f565b9150610a979050600a83611c4d565b9150610a78565b6000816001600160401b03811115610ac657634e487b7160e01b600052604160045260246000fd5b6040519080825280601f01601f191660200182016040528015610af0576020820181803683370190505b5090505b8415610b6957610b05600183611c61565b9150610b12600a86611d2a565b610b1d906030611c35565b60f81b818381518110610b4057634e487b7160e01b600052603260045260246000fd5b60200101906001600160f81b031916908160001a905350610b62600a86611c4d565b9450610af4565b949350505050565b8451811015610c70576000858281518110610b9c57634e487b7160e01b600052603260045260246000fd5b602002602001015190506000858381518110610bc857634e487b7160e01b600052603260045260246000fd5b602090810291909101810151600084815280835260408082206001600160a01b038e168352909352919091205490915081811015610c185760405162461bcd60e51b815260040161031e90611a48565b6000838152602081815260408083206001600160a01b038e8116855292528083208585039055908b16825281208054849290610c55908490611c35565b9250508190555050505080610c6990611d0f565b9050610b71565b50846001600160a01b0316866001600160a01b0316826001600160a01b03167f4a39dc06d4c0dbc64b70af90fd698a233a518aa5d07e595d983b8c0526c8f7fb8787604051610cc092919061188b565b60405180910390a4610cd6818787878787610ce4565b610ce4818787878787610f48565b505050505050565b610cf4610d90565b6001600160a01b0316610d05610760565b6001600160a01b0316146106865760405162461bcd60e51b815260040161031e90611a92565b805161079e9060029060208401906111a6565b600380546001600160a01b038381166001600160a01b0319831681179093556040519116919082907f8be0079c531659141344cd1fd0a4f28419497f9722a3daafe3b4186f6b6457e090600090a35050565b3390565b816001600160a01b0316836001600160a01b03161415610dc65760405162461bcd60e51b815260040161031e90611afa565b6001600160a01b0383811660008181526001602090815260408083209487168084529490915290819020805460ff1916851515179055517f17307eab39ab6107e8899845ad3d59bd9653f200f220920489ca2b5937696c3190610e2a9085906118b9565b60405180910390a3505050565b6001600160a01b038416610e5d5760405162461bcd60e51b815260040161031e90611b8c565b6000610e67610d90565b90506000610e748561106d565b90506000610e818561106d565b9050610e9283600089858589610ce4565b6000868152602081815260408083206001600160a01b038b16845290915281208054879290610ec2908490611c35565b92505081905550866001600160a01b031660006001600160a01b0316846001600160a01b03167fc3d58168c5ae7397731d063d5bbf3d657854427343f4c083240f7aacaa2d0f628989604051610f19929190611c04565b60405180910390a4610f3083600089858589610ce4565b610f3f836000898989896110c6565b50505050505050565b610f5a846001600160a01b0316611197565b15610ce45760405163bc197c8160e01b81526001600160a01b0385169063bc197c8190610f9390899089908890889088906004016117d5565b602060405180830381600087803b158015610fad57600080fd5b505af1925050508015610fdd575060408051601f3d908101601f19168201909252610fda91810190611692565b60015b61103d57610fe9611d80565b806308c379a014156110235750610ffe611d97565b806110095750611025565b8060405162461bcd60e51b815260040161031e91906118c4565b505b60405162461bcd60e51b815260040161031e906118d7565b6001600160e01b0319811663bc197c8160e01b14610f3f5760405162461bcd60e51b815260040161031e9061192b565b604080516001808252818301909252606091600091906020808301908036833701905050905082816000815181106110b557634e487b7160e01b600052603260045260246000fd5b602090810291909101015292915050565b6110d8846001600160a01b0316611197565b15610ce45760405163f23a6e6160e01b81526001600160a01b0385169063f23a6e61906111119089908990889088908890600401611833565b602060405180830381600087803b15801561112b57600080fd5b505af192505050801561115b575060408051601f3d908101601f1916820190925261115891810190611692565b60015b61116757610fe9611d80565b6001600160e01b0319811663f23a6e6160e01b14610f3f5760405162461bcd60e51b815260040161031e9061192b565b6001600160a01b03163b151590565b8280546111b290611ca8565b90600052602060002090601f0160209004810192826111d4576000855561121a565b82601f106111ed57805160ff191683800117855561121a565b8280016001018555821561121a579182015b8281111561121a5782518255916020019190600101906111ff565b5061122692915061122a565b5090565b5b80821115611226576000815560010161122b565b60006001600160401b0383111561125857611258611d6a565b60405161126f601f8501601f191660200182611ce3565b80915083815284848401111561128457600080fd5b83836020830137600060208583010152509392505050565b80356001600160a01b038116811461039057600080fd5b600082601f8301126112c3578081fd5b813560206112d082611c12565b6040516112dd8282611ce3565b8381528281019150858301838502870184018810156112fa578586fd5b855b8581101561131f5761130d8261129c565b845292840192908401906001016112fc565b5090979650505050505050565b600082601f83011261133c578081fd5b8135602061134982611c12565b6040516113568282611ce3565b838152828101915085830183850287018401881015611373578586fd5b855b8581101561131f57813584529284019290840190600101611375565b600082601f8301126113a1578081fd5b61047b8383356020850161123f565b6000602082840312156113c1578081fd5b61047b8261129c565b600080604083850312156113dc578081fd5b6113e58361129c565b91506113f36020840161129c565b90509250929050565b600080600080600060a08688031215611413578081fd5b61141c8661129c565b945061142a6020870161129c565b935060408601356001600160401b0380821115611445578283fd5b61145189838a0161132c565b94506060880135915080821115611466578283fd5b61147289838a0161132c565b93506080880135915080821115611487578283fd5b5061149488828901611391565b9150509295509295909350565b600080600080600060a086880312156114b8578081fd5b6114c18661129c565b94506114cf6020870161129c565b9350604086013592506060860135915060808601356001600160401b038111156114f7578182fd5b61149488828901611391565b60008060408385031215611515578182fd5b61151e8361129c565b915060208301358015158114611532578182fd5b809150509250929050565b6000806040838503121561154f578182fd5b6115588361129c565b946020939093013593505050565b60008060408385031215611578578182fd5b82356001600160401b038082111561158e578384fd5b61159a868387016112b3565b935060208501359150808211156115af578283fd5b506115bc8582860161132c565b9150509250929050565b600080604083850312156115d8578081fd5b82356001600160401b038111156115ed578182fd5b6115f9858286016112b3565b95602094909401359450505050565b6000806020838503121561161a578182fd5b82356001600160401b0380821115611630578384fd5b818501915085601f830112611643578384fd5b813581811115611651578485fd5b8660208083028501011115611664578485fd5b60209290920196919550909350505050565b600060208284031215611687578081fd5b813561047b81611e28565b6000602082840312156116a3578081fd5b815161047b81611e28565b6000602082840312156116bf578081fd5b81356001600160401b038111156116d4578182fd5b8201601f810184136116e4578182fd5b610b698482356020840161123f565b600060208284031215611704578081fd5b5035919050565b6000806040838503121561171d578182fd5b50508035926020909101359150565b6000815180845260208085019450808401835b8381101561175b5781518752958201959082019060010161173f565b509495945050505050565b6000815180845261177e816020860160208601611c78565b601f01601f19169290920160200192915050565b600083516117a4818460208801611c78565b8351908301906117b8818360208801611c78565b01949350505050565b6001600160a01b0391909116815260200190565b6001600160a01b0386811682528516602082015260a0604082018190526000906118019083018661172c565b8281036060840152611813818661172c565b905082810360808401526118278185611766565b98975050505050505050565b6001600160a01b03868116825285166020820152604081018490526060810183905260a06080820181905260009061186d90830184611766565b979650505050505050565b60006020825261047b602083018461172c565b60006040825261189e604083018561172c565b82810360208401526118b0818561172c565b95945050505050565b901515815260200190565b60006020825261047b6020830184611766565b60208082526034908201527f455243313135353a207472616e7366657220746f206e6f6e20455243313135356040820152732932b1b2b4bb32b91034b6b83632b6b2b73a32b960611b606082015260800190565b60208082526028908201527f455243313135353a204552433131353552656365697665722072656a656374656040820152676420746f6b656e7360c01b606082015260800190565b602080825260079082015266537570706c792160c81b604082015260600190565b60208082526026908201527f4f776e61626c653a206e6577206f776e657220697320746865207a65726f206160408201526564647265737360d01b606082015260800190565b6020808252602a908201527f455243313135353a2061646472657373207a65726f206973206e6f742061207660408201526930b634b21037bbb732b960b11b606082015260800190565b6020808252600a90820152693737ba102232b0b632b960b11b604082015260600190565b6020808252602a908201527f455243313135353a20696e73756666696369656e742062616c616e636520666f60408201526939103a3930b739b332b960b11b606082015260800190565b6020808252818101527f4f776e61626c653a2063616c6c6572206973206e6f7420746865206f776e6572604082015260600190565b60208082526019908201527822a92198989a9a9d1031b0b7103737ba103a3930b739b332b960391b604082015260600190565b60208082526029908201527f455243313135353a2073657474696e6720617070726f76616c20737461747573604082015268103337b91039b2b63360b91b606082015260800190565b60208082526029908201527f455243313135353a206163636f756e747320616e6420696473206c656e677468604082015268040dad2e6dac2e8c6d60bb1b606082015260800190565b60208082526021908201527f455243313135353a206d696e7420746f20746865207a65726f206164647265736040820152607360f81b606082015260800190565b6020808252601490820152733cb7ba903430bb32903132b2b710383630bcb2b960611b604082015260600190565b90815260200190565b918252602082015260400190565b60006001600160401b03821115611c2b57611c2b611d6a565b5060209081020190565b60008219821115611c4857611c48611d3e565b500190565b600082611c5c57611c5c611d54565b500490565b600082821015611c7357611c73611d3e565b500390565b60005b83811015611c93578181015183820152602001611c7b565b83811115611ca2576000848401525b50505050565b600281046001821680611cbc57607f821691505b60208210811415611cdd57634e487b7160e01b600052602260045260246000fd5b50919050565b601f8201601f191681016001600160401b0381118282101715611d0857611d08611d6a565b6040525050565b6000600019821415611d2357611d23611d3e565b5060010190565b600082611d3957611d39611d54565b500690565b634e487b7160e01b600052601160045260246000fd5b634e487b7160e01b600052601260045260246000fd5b634e487b7160e01b600052604160045260246000fd5b600060033d111561076d57600481823e5160e01c90565b600060443d1015611da75761076d565b6040516003193d81016004833e81513d6001600160401b038160248401118184111715611dd857505050505061076d565b8285019150815181811115611df25750505050505061076d565b843d8701016020828501011115611e0e5750505050505061076d565b611e1d60208286010187611ce3565b509094505050505090565b6001600160e01b03198116811461099f57600080fdfea26469706673582212201c9726039d3ee8ce5c6c776967bfb25aa8e783e407f6eff91e434d2448a9579864736f6c63430008010033",
  "immutableReferences": {},
  "source": "// SPDX-License-Identifier: GPL-3.0\npragma solidity >=0.4.22 <0.9.0;\n\nimport \"@openzeppelin/contracts/token/ERC1155/ERC1155.sol\";\nimport \"@openzeppelin/contracts/utils/Strings.sol\";\nimport \"@openzeppelin/contracts/access/Ownable.sol\";\n\n/**\n    dealer\n        idcreateID\n        TODO:\n        dealer idplayer index----dealerToPlayer\n        index----playerToAmount\n        mint 1155 \n\n */\ncontract Player is ERC1155, Ownable {\n    using Strings for uint256;\n\n    address public dealer;\n    string public name;\n    string public symbol;\n\n    uint256 index = 0;\n\n    mapping(uint256 => uint256) public dealerToPlayer;\n    mapping(uint256 => uint256) public playerToAmount;\n    mapping(uint256 => uint256) public playerType;\n    mapping(uint256 => uint256) public idToAmount;\n\n    struct PropertyParams {\n        string name;\n        string symbol;\n        string baseURI;\n    }\n\n    constructor(\n        string memory name_,\n        string memory symbol_,\n        string memory tokenURI_\n    ) ERC1155(tokenURI_) {\n        name = name_;\n        symbol = symbol_;\n    }\n\n    function createID(uint256 id, uint256 supply) external onlyDealer {\n        index = index + 1;\n        dealerToPlayer[id] = index;\n        playerToAmount[index] = supply;\n    }\n\n    function mint(address[] memory users, uint256 id) external onlyDealer {\n        require(idToAmount[index] + users.length <= playerToAmount[index], \"Supply!\");\n        idToAmount[id] = idToAmount[id] + users.length;\n        for (uint256 i = 0; i < users.length; i++) {\n            require(balanceOf(users[i], id) == 0, \"you have been player\");\n            _mint(users[i], id, 1, bytes(''));\n        }\n    }\n    \n    function safeTransferFrom(\n        address from,\n        address to,\n        uint256 id,\n        uint256 amount,\n        bytes memory data\n    ) public virtual override {\n        require(\n            false,\n            \"ERC1155: can not transfer\"\n        );\n        _safeTransferFrom(from, to, id, amount, data);\n    }\n\n    /**\n     * @dev See {IERC1155-safeBatchTransferFrom}.\n     */\n    function safeBatchTransferFrom(\n        address from,\n        address to,\n        uint256[] memory ids,\n        uint256[] memory amounts,\n        bytes memory data\n    ) public virtual override {\n        require(\n            false,\n            \"ERC1155: can not transfer\"\n        );\n        _safeBatchTransferFrom(from, to, ids, amounts, data);\n    }\n\n    function totalSupply(uint256 id) public view returns (uint256) {\n        return playerToAmount[id];\n    }\n\n    function totalSupplyBatch(uint256[] calldata ids) public view returns (uint256[] memory) {\n        uint256[] memory supply = new uint256[](ids.length);\n\n        for (uint i = 0; i < ids.length; i++) {\n            supply[i] = playerToAmount[ids[i]];\n        }\n\n        return supply;\n    }\n\n    function uri(uint256 id) public view override returns (string memory) {\n        string memory baseURI = super.uri(id);\n        return bytes(baseURI).length > 0 ? string(abi.encodePacked(baseURI, id.toString())) : \"\";\n    }\n\n    function setBaseURI(string memory baseUri) external onlyOwner {\n        _setURI(baseUri);\n        emit SetBaseUri(baseUri);\n    }\n\n    modifier onlyDealer() {\n        require(dealer == msg.sender, \"not Dealer\");\n        _;\n    }\n\n    event Init(PropertyParams params);\n\n    event CreateAttribute(string attribute);\n\n    event CreateID(string attribute, uint256[] ids, uint256[] supply);\n\n    event SetBaseUri(string baseUri);\n\n    event SetWhitelist(address[] whitelist);\n}\n",
  "sourcePath": "/Users/pengyun/Desktop/code/qilin-pvp-v2/contracts/proof/Player.sol",
  "compiler": {
    "name": "solc",
    "version": "0.8.1+commit.df193b15.Emscripten.clang"
  },
  "schemaVersion": "3.3.3",
  "updatedAt": "2023-05-16T09:40:32.540Z",
  "devdoc": {
    "kind": "dev",
    "methods": {
      "balanceOf(address,uint256)": {
        "details": "See {IERC1155-balanceOf}. Requirements: - `account` cannot be the zero address."
      },
      "balanceOfBatch(address[],uint256[])": {
        "details": "See {IERC1155-balanceOfBatch}. Requirements: - `accounts` and `ids` must have the same length."
      },
      "isApprovedForAll(address,address)": {
        "details": "See {IERC1155-isApprovedForAll}."
      },
      "owner()": {
        "details": "Returns the address of the current owner."
      },
      "renounceOwnership()": {
        "details": "Leaves the contract without owner. It will not be possible to call `onlyOwner` functions anymore. Can only be called by the current owner. NOTE: Renouncing ownership will leave the contract without an owner, thereby removing any functionality that is only available to the owner."
      },
      "safeBatchTransferFrom(address,address,uint256[],uint256[],bytes)": {
        "details": "See {IERC1155-safeBatchTransferFrom}."
      },
      "safeTransferFrom(address,address,uint256,uint256,bytes)": {
        "details": "See {IERC1155-safeTransferFrom}."
      },
      "setApprovalForAll(address,bool)": {
        "details": "See {IERC1155-setApprovalForAll}."
      },
      "supportsInterface(bytes4)": {
        "details": "See {IERC165-supportsInterface}."
      },
      "transferOwnership(address)": {
        "details": "Transfers ownership of the contract to a new account (`newOwner`). Can only be called by the current owner."
      }
    },
    "version": 1
  },
  "userdoc": {
    "kind": "user",
    "methods": {},
    "notice": "dealer idcreateID TODO: dealer idplayer index----dealerToPlayer index----playerToAmount mint 1155 ",
    "version": 1
  }
}