{
  "contractName": "Dealer",
  "abi": [
    {
      "inputs": [
        {
          "internalType": "string",
          "name": "name",
          "type": "string"
        },
        {
          "internalType": "string",
          "name": "symbol",
          "type": "string"
        },
        {
          "internalType": "string",
          "name": "tokenURI_",
          "type": "string"
        }
      ],
      "stateMutability": "nonpayable",
      "type": "constructor"
    },
    {
      "anonymous": false,
      "inputs": [
        {
          "indexed": true,
          "internalType": "address",
          "name": "owner",
          "type": "address"
        },
        {
          "indexed": true,
          "internalType": "address",
          "name": "approved",
          "type": "address"
        },
        {
          "indexed": true,
          "internalType": "uint256",
          "name": "tokenId",
          "type": "uint256"
        }
      ],
      "name": "Approval",
      "type": "event"
    },
    {
      "anonymous": false,
      "inputs": [
        {
          "indexed": true,
          "internalType": "address",
          "name": "owner",
          "type": "address"
        },
        {
          "indexed": true,
          "internalType": "address",
          "name": "operator",
          "type": "address"
        },
        {
          "indexed": false,
          "internalType": "bool",
          "name": "approved",
          "type": "bool"
        }
      ],
      "name": "ApprovalForAll",
      "type": "event"
    },
    {
      "anonymous": false,
      "inputs": [
        {
          "indexed": true,
          "internalType": "address",
          "name": "previousOwner",
          "type": "address"
        },
        {
          "indexed": true,
          "internalType": "address",
          "name": "newOwner",
          "type": "address"
        }
      ],
      "name": "OwnershipTransferred",
      "type": "event"
    },
    {
      "anonymous": false,
      "inputs": [
        {
          "indexed": true,
          "internalType": "address",
          "name": "from",
          "type": "address"
        },
        {
          "indexed": true,
          "internalType": "address",
          "name": "to",
          "type": "address"
        },
        {
          "indexed": true,
          "internalType": "uint256",
          "name": "tokenId",
          "type": "uint256"
        }
      ],
      "name": "Transfer",
      "type": "event"
    },
    {
      "inputs": [],
      "name": "TOTAL_MAX_QTY",
      "outputs": [
        {
          "internalType": "uint256",
          "name": "",
          "type": "uint256"
        }
      ],
      "stateMutability": "view",
      "type": "function"
    },
    {
      "inputs": [],
      "name": "_merkleRoot",
      "outputs": [
        {
          "internalType": "bytes32",
          "name": "",
          "type": "bytes32"
        }
      ],
      "stateMutability": "view",
      "type": "function"
    },
    {
      "inputs": [
        {
          "internalType": "address",
          "name": "to",
          "type": "address"
        },
        {
          "internalType": "uint256",
          "name": "tokenId",
          "type": "uint256"
        }
      ],
      "name": "approve",
      "outputs": [],
      "stateMutability": "nonpayable",
      "type": "function"
    },
    {
      "inputs": [
        {
          "internalType": "address",
          "name": "owner",
          "type": "address"
        }
      ],
      "name": "balanceOf",
      "outputs": [
        {
          "internalType": "uint256",
          "name": "",
          "type": "uint256"
        }
      ],
      "stateMutability": "view",
      "type": "function"
    },
    {
      "inputs": [
        {
          "internalType": "uint256",
          "name": "",
          "type": "uint256"
        }
      ],
      "name": "dealerToDeadline",
      "outputs": [
        {
          "internalType": "uint256",
          "name": "",
          "type": "uint256"
        }
      ],
      "stateMutability": "view",
      "type": "function"
    },
    {
      "inputs": [
        {
          "internalType": "uint256",
          "name": "",
          "type": "uint256"
        }
      ],
      "name": "dealerType",
      "outputs": [
        {
          "internalType": "uint256",
          "name": "",
          "type": "uint256"
        }
      ],
      "stateMutability": "view",
      "type": "function"
    },
    {
      "inputs": [],
      "name": "factory",
      "outputs": [
        {
          "internalType": "address",
          "name": "",
          "type": "address"
        }
      ],
      "stateMutability": "view",
      "type": "function"
    },
    {
      "inputs": [
        {
          "internalType": "uint256",
          "name": "tokenId",
          "type": "uint256"
        }
      ],
      "name": "getApproved",
      "outputs": [
        {
          "internalType": "address",
          "name": "",
          "type": "address"
        }
      ],
      "stateMutability": "view",
      "type": "function"
    },
    {
      "inputs": [
        {
          "internalType": "address",
          "name": "owner",
          "type": "address"
        },
        {
          "internalType": "address",
          "name": "operator",
          "type": "address"
        }
      ],
      "name": "isApprovedForAll",
      "outputs": [
        {
          "internalType": "bool",
          "name": "",
          "type": "bool"
        }
      ],
      "stateMutability": "view",
      "type": "function"
    },
    {
      "inputs": [],
      "name": "name",
      "outputs": [
        {
          "internalType": "string",
          "name": "",
          "type": "string"
        }
      ],
      "stateMutability": "view",
      "type": "function"
    },
    {
      "inputs": [],
      "name": "owner",
      "outputs": [
        {
          "internalType": "address",
          "name": "",
          "type": "address"
        }
      ],
      "stateMutability": "view",
      "type": "function"
    },
    {
      "inputs": [
        {
          "internalType": "uint256",
          "name": "tokenId",
          "type": "uint256"
        }
      ],
      "name": "ownerOf",
      "outputs": [
        {
          "internalType": "address",
          "name": "",
          "type": "address"
        }
      ],
      "stateMutability": "view",
      "type": "function"
    },
    {
      "inputs": [],
      "name": "players",
      "outputs": [
        {
          "internalType": "address",
          "name": "",
          "type": "address"
        }
      ],
      "stateMutability": "view",
      "type": "function"
    },
    {
      "inputs": [],
      "name": "renounceOwnership",
      "outputs": [],
      "stateMutability": "nonpayable",
      "type": "function"
    },
    {
      "inputs": [
        {
          "internalType": "address",
          "name": "from",
          "type": "address"
        },
        {
          "internalType": "address",
          "name": "to",
          "type": "address"
        },
        {
          "internalType": "uint256",
          "name": "tokenId",
          "type": "uint256"
        }
      ],
      "name": "safeTransferFrom",
      "outputs": [],
      "stateMutability": "nonpayable",
      "type": "function"
    },
    {
      "inputs": [
        {
          "internalType": "address",
          "name": "from",
          "type": "address"
        },
        {
          "internalType": "address",
          "name": "to",
          "type": "address"
        },
        {
          "internalType": "uint256",
          "name": "tokenId",
          "type": "uint256"
        },
        {
          "internalType": "bytes",
          "name": "data",
          "type": "bytes"
        }
      ],
      "name": "safeTransferFrom",
      "outputs": [],
      "stateMutability": "nonpayable",
      "type": "function"
    },
    {
      "inputs": [
        {
          "internalType": "address",
          "name": "operator",
          "type": "address"
        },
        {
          "internalType": "bool",
          "name": "approved",
          "type": "bool"
        }
      ],
      "name": "setApprovalForAll",
      "outputs": [],
      "stateMutability": "nonpayable",
      "type": "function"
    },
    {
      "inputs": [
        {
          "internalType": "bytes4",
          "name": "interfaceId",
          "type": "bytes4"
        }
      ],
      "name": "supportsInterface",
      "outputs": [
        {
          "internalType": "bool",
          "name": "",
          "type": "bool"
        }
      ],
      "stateMutability": "view",
      "type": "function"
    },
    {
      "inputs": [],
      "name": "symbol",
      "outputs": [
        {
          "internalType": "string",
          "name": "",
          "type": "string"
        }
      ],
      "stateMutability": "view",
      "type": "function"
    },
    {
      "inputs": [
        {
          "internalType": "uint256",
          "name": "",
          "type": "uint256"
        }
      ],
      "name": "tokenURIs",
      "outputs": [
        {
          "internalType": "string",
          "name": "",
          "type": "string"
        }
      ],
      "stateMutability": "view",
      "type": "function"
    },
    {
      "inputs": [],
      "name": "total_supply",
      "outputs": [
        {
          "internalType": "uint256",
          "name": "",
          "type": "uint256"
        }
      ],
      "stateMutability": "view",
      "type": "function"
    },
    {
      "inputs": [
        {
          "internalType": "address",
          "name": "from",
          "type": "address"
        },
        {
          "internalType": "address",
          "name": "to",
          "type": "address"
        },
        {
          "internalType": "uint256",
          "name": "tokenId",
          "type": "uint256"
        }
      ],
      "name": "transferFrom",
      "outputs": [],
      "stateMutability": "nonpayable",
      "type": "function"
    },
    {
      "inputs": [
        {
          "internalType": "address",
          "name": "newOwner",
          "type": "address"
        }
      ],
      "name": "transferOwnership",
      "outputs": [],
      "stateMutability": "nonpayable",
      "type": "function"
    },
    {
      "inputs": [
        {
          "internalType": "address",
          "name": "",
          "type": "address"
        }
      ],
      "name": "userToMint",
      "outputs": [
        {
          "internalType": "uint256",
          "name": "",
          "type": "uint256"
        }
      ],
      "stateMutability": "view",
      "type": "function"
    },
    {
      "inputs": [
        {
          "internalType": "uint256",
          "name": "index",
          "type": "uint256"
        },
        {
          "internalType": "bytes32[]",
          "name": "merkleProof",
          "type": "bytes32[]"
        }
      ],
      "name": "mint",
      "outputs": [],
      "stateMutability": "nonpayable",
      "type": "function"
    },
    {
      "inputs": [
        {
          "internalType": "uint256",
          "name": "id",
          "type": "uint256"
        },
        {
          "internalType": "uint256",
          "name": "supply",
          "type": "uint256"
        },
        {
          "internalType": "address[]",
          "name": "users",
          "type": "address[]"
        }
      ],
      "name": "setPlayers",
      "outputs": [],
      "stateMutability": "nonpayable",
      "type": "function"
    },
    {
      "inputs": [
        {
          "internalType": "uint256",
          "name": "id",
          "type": "uint256"
        },
        {
          "internalType": "address[]",
          "name": "users",
          "type": "address[]"
        }
      ],
      "name": "addPlayers",
      "outputs": [],
      "stateMutability": "nonpayable",
      "type": "function"
    },
    {
      "inputs": [
        {
          "internalType": "uint256",
          "name": "id",
          "type": "uint256"
        }
      ],
      "name": "getDealerStatus",
      "outputs": [
        {
          "internalType": "bool",
          "name": "",
          "type": "bool"
        }
      ],
      "stateMutability": "view",
      "type": "function"
    },
    {
      "inputs": [
        {
          "internalType": "uint256",
          "name": "id",
          "type": "uint256"
        },
        {
          "internalType": "uint256",
          "name": "deadline",
          "type": "uint256"
        }
      ],
      "name": "setDealerToDeadline",
      "outputs": [],
      "stateMutability": "nonpayable",
      "type": "function"
    },
    {
      "inputs": [
        {
          "internalType": "uint256",
          "name": "id",
          "type": "uint256"
        },
        {
          "internalType": "uint256",
          "name": "type_",
          "type": "uint256"
        }
      ],
      "name": "setDealerType",
      "outputs": [],
      "stateMutability": "nonpayable",
      "type": "function"
    },
    {
      "inputs": [
        {
          "internalType": "address",
          "name": "factory_",
          "type": "address"
        }
      ],
      "name": "setFactory",
      "outputs": [],
      "stateMutability": "nonpayable",
      "type": "function"
    },
    {
      "inputs": [
        {
          "internalType": "bytes32",
          "name": "merkleRoot_",
          "type": "bytes32"
        }
      ],
      "name": "setMerkleRoot",
      "outputs": [],
      "stateMutability": "nonpayable",
      "type": "function"
    },
    {
      "inputs": [
        {
          "internalType": "uint256",
          "name": "tokenId",
          "type": "uint256"
        }
      ],
      "name": "tokenURI",
      "outputs": [
        {
          "internalType": "string",
          "name": "",
          "type": "string"
        }
      ],
      "stateMutability": "view",
      "type": "function"
    },
    {
      "inputs": [
        {
          "internalType": "string",
          "name": "tokenURI_",
          "type": "string"
        }
      ],
      "name": "setTokenURI",
      "outputs": [],
      "stateMutability": "nonpayable",
      "type": "function"
    }
  ],
  "bytecode": "0x60806040523480156200001157600080fd5b506040516200221138038062002211833981016040819052620000349162000244565b82826200004a6200004462000097565b6200009b565b81516200005f906001906020850190620000eb565b50805162000075906002906020840190620000eb565b505081516200008d9150600b906020840190620000eb565b5050505062000324565b3390565b600080546001600160a01b038381166001600160a01b0319831681178455604051919092169283917f8be0079c531659141344cd1fd0a4f28419497f9722a3daafe3b4186f6b6457e09190a35050565b828054620000f990620002d1565b90600052602060002090601f0160209004810192826200011d576000855562000168565b82601f106200013857805160ff191683800117855562000168565b8280016001018555821562000168579182015b82811115620001685782518255916020019190600101906200014b565b50620001769291506200017a565b5090565b5b808211156200017657600081556001016200017b565b600082601f830112620001a2578081fd5b81516001600160401b0380821115620001bf57620001bf6200030e565b604051601f8301601f19908116603f01168101908282118183101715620001ea57620001ea6200030e565b8160405283815260209250868385880101111562000206578485fd5b8491505b838210156200022957858201830151818301840152908201906200020a565b838211156200023a57848385830101525b9695505050505050565b60008060006060848603121562000259578283fd5b83516001600160401b038082111562000270578485fd5b6200027e8783880162000191565b9450602086015191508082111562000294578384fd5b620002a28783880162000191565b93506040860151915080821115620002b8578283fd5b50620002c78682870162000191565b9150509250925092565b600281046001821680620002e657607f821691505b602082108114156200030857634e487b7160e01b600052602260045260246000fd5b50919050565b634e487b7160e01b600052604160045260246000fd5b611edd80620003346000396000f3fe608060405234801561001057600080fd5b50600436106101c65760003560e01c80638da5cb5b116100fa578063c45a01551161009d578063c45a0155146103a3578063c87b56dd146103ab578063dc0b3564146103be578063dee816e6146103c6578063e0df5b6f146103ce578063e985e9c5146103e1578063e9d4aae3146103f4578063f2fde38b14610407578063fa2085cf1461041a576101c6565b80638da5cb5b1461032157806395d89b41146103295780639a31e58d14610331578063a22cb46514610344578063b49d53a214610357578063b6ae63951461036a578063b88d4fde1461037d578063ba41b0c614610390576101c6565b806338d9f74f1161016d57806338d9f74f1461028c5780633940e9ee1461029f57806342842e0e146102a75780635bb47808146102ba5780636352211e146102cd5780636c8b703f146102e057806370a08231146102f3578063715018a6146103065780637cb647591461030e576101c6565b806301ffc9a7146101cb57806306fdde03146101f4578063081812fc14610209578063095ea7b314610229578063142b89221461023e57806323b872dd146102515780632fc37ab21461026457806331df567014610279575b600080fd5b6101de6101d9366004611660565b61042d565b6040516101eb9190611912565b60405180910390f35b6101fc610475565b6040516101eb9190611926565b61021c610217366004611648565b610507565b6040516101eb9190611870565b61023c61023736600461161f565b61052e565b005b61023c61024c366004611799565b6105cf565b61023c61025f366004611532565b6105e1565b61026c610619565b6040516101eb919061191d565b61023c6102873660046116dd565b61061f565b61023c61029a366004611799565b6106e5565b61026c6106ff565b61023c6102b5366004611532565b610705565b61023c6102c83660046114e6565b610720565b61021c6102db366004611648565b61074a565b6101fc6102ee366004611648565b61077f565b61026c6103013660046114e6565b610819565b61023c61085d565b61023c61031c366004611648565b610871565b61021c61087e565b6101fc61088d565b61026c61033f366004611648565b61089c565b61023c6103523660046115e5565b6108ae565b61023c6103653660046117ba565b6108c4565b61026c6103783660046114e6565b6109ef565b61023c61038b36600461156d565b610a01565b61023c61039e366004611721565b610a40565b61021c610b2e565b6101fc6103b9366004611648565b610b3d565b61021c610bb8565b61026c610bc7565b61023c6103dc366004611698565b610bcc565b6101de6103ef366004611500565b610bdf565b61026c610402366004611648565b610c0d565b61023c6104153660046114e6565b610c1f565b6101de610428366004611648565b610c59565b60006001600160e01b031982166380ac58cd60e01b148061045e57506001600160e01b03198216635b5e139f60e01b145b8061046d575061046d82610c84565b90505b919050565b60606001805461048490611e0f565b80601f01602080910402602001604051908101604052809291908181526020018280546104b090611e0f565b80156104fd5780601f106104d2576101008083540402835291602001916104fd565b820191906000526020600020905b8154815290600101906020018083116104e057829003601f168201915b5050505050905090565b600061051282610c9d565b506000908152600560205260409020546001600160a01b031690565b60006105398261074a565b9050806001600160a01b0316836001600160a01b031614156105765760405162461bcd60e51b815260040161056d90611ce7565b60405180910390fd5b806001600160a01b0316610588610cc2565b6001600160a01b031614806105a457506105a4816103ef610cc2565b6105c05760405162461bcd60e51b815260040161056d90611b74565b6105ca8383610cc6565b505050565b6000918252600e602052604090912055565b6105f26105ec610cc2565b82610d34565b61060e5760405162461bcd60e51b815260040161056d90611d28565b6105ca838383610d93565b60095481565b336106298361074a565b6001600160a01b03161461064f5760405162461bcd60e51b815260040161056d90611c06565b6000828152600e602052604090205442101561067d5760405162461bcd60e51b815260040161056d90611ac4565b600754604051633a999a5b60e21b81526001600160a01b039091169063ea66696c906106af90849086906004016118c1565b600060405180830381600087803b1580156106c957600080fd5b505af11580156106dd573d6000803e3d6000fd5b505050505050565b6106ed610ec6565b6000918252600d602052604090912055565b600a5481565b6105ca83838360405180602001604052806000815250610a01565b610728610ec6565b600880546001600160a01b0319166001600160a01b0392909216919091179055565b6000818152600360205260408120546001600160a01b03168061046d5760405162461bcd60e51b815260040161056d90611cb5565b600c602052600090815260409020805461079890611e0f565b80601f01602080910402602001604051908101604052809291908181526020018280546107c490611e0f565b80156108115780601f106107e657610100808354040283529160200191610811565b820191906000526020600020905b8154815290600101906020018083116107f457829003601f168201915b505050505081565b60006001600160a01b0382166108415760405162461bcd60e51b815260040161056d90611b2b565b506001600160a01b031660009081526004602052604090205490565b610865610ec6565b61086f6000610f05565b565b610879610ec6565b600955565b6000546001600160a01b031690565b60606002805461048490611e0f565b600d6020526000908152604090205481565b6108c06108b9610cc2565b8383610f55565b5050565b336108ce8461074a565b6001600160a01b0316146108f45760405162461bcd60e51b815260040161056d90611c06565b6000838152600e60205260409020544210156109225760405162461bcd60e51b815260040161056d90611ac4565b6007546040516337b5c26760e11b81526001600160a01b0390911690636f6b84ce906109549086908690600401611d76565b600060405180830381600087803b15801561096e57600080fd5b505af1158015610982573d6000803e3d6000fd5b5050600754604051633a999a5b60e21b81526001600160a01b03909116925063ea66696c91506109b890849087906004016118c1565b600060405180830381600087803b1580156109d257600080fd5b505af11580156109e6573d6000803e3d6000fd5b50505050505050565b600f6020526000908152604090205481565b610a12610a0c610cc2565b83610d34565b610a2e5760405162461bcd60e51b815260040161056d90611d28565b610a3a84848484610ff8565b50505050565b60008333604051602001610a55929190611855565b604051602081830303815290604052805190602001209050610aae83838080602002602001604051908101604052809392919081815260200183836020028082843760009201919091525050600954915084905061102b565b610aca5760405162461bcd60e51b815260040161056d90611aea565b336000908152600f602052604090205415610af75760405162461bcd60e51b815260040161056d90611aea565b600a54610b05906001611db4565b600a819055610b15903390611041565b5050336000908152600f60205260409020600190555050565b6008546001600160a01b031681565b6060610b488261105b565b610b645760405162461bcd60e51b815260040161056d90611c66565b6000610b6e611078565b90506000815111610b8e5760405180602001604052806000815250610bb1565b8083604051602001610ba1929190611833565b6040516020818303038152906040525b9392505050565b6007546001600160a01b031681565b606481565b80516108c090600b906020840190611357565b6001600160a01b03918216600090815260066020908152604080832093909416825291909152205460ff1690565b600e6020526000908152604090205481565b610c27610ec6565b6001600160a01b038116610c4d5760405162461bcd60e51b815260040161056d9061198b565b610c5681610f05565b50565b6000818152600e602052604081205442118061046d5750506000908152600d60205260409020541590565b6001600160e01b031981166301ffc9a760e01b14919050565b610ca68161105b565b610c565760405162461bcd60e51b815260040161056d90611cb5565b3390565b600081815260056020526040902080546001600160a01b0319166001600160a01b0384169081179091558190610cfb8261074a565b6001600160a01b03167f8c5be1e5ebec7d5bd14f71427d1e84f3dd0314c0f7b2291e5b200ac8c7c3b92560405160405180910390a45050565b600080610d408361074a565b9050806001600160a01b0316846001600160a01b03161480610d675750610d678185610bdf565b80610d8b5750836001600160a01b0316610d8084610507565b6001600160a01b0316145b949350505050565b826001600160a01b0316610da68261074a565b6001600160a01b031614610dcc5760405162461bcd60e51b815260040161056d906119d1565b6001600160a01b038216610df25760405162461bcd60e51b815260040161056d90611a4d565b610dfd8383836105ca565b610e08600082610cc6565b6001600160a01b0383166000908152600460205260408120805460019290610e31908490611dcc565b90915550506001600160a01b0382166000908152600460205260408120805460019290610e5f908490611db4565b909155505060008181526003602052604080822080546001600160a01b0319166001600160a01b0386811691821790925591518493918716917fddf252ad1be2c89b69c2b068fc378daa952ba7f163c4a11628f55a4df523b3ef91a46105ca8383836105ca565b610ece610cc2565b6001600160a01b0316610edf61087e565b6001600160a01b03161461086f5760405162461bcd60e51b815260040161056d90611c31565b600080546001600160a01b038381166001600160a01b0319831681178455604051919092169283917f8be0079c531659141344cd1fd0a4f28419497f9722a3daafe3b4186f6b6457e09190a35050565b816001600160a01b0316836001600160a01b03161415610f875760405162461bcd60e51b815260040161056d90611a91565b6001600160a01b0383811660008181526006602090815260408083209487168084529490915290819020805460ff1916851515179055517f17307eab39ab6107e8899845ad3d59bd9653f200f220920489ca2b5937696c3190610feb908590611912565b60405180910390a3505050565b611003848484610d93565b61100f84848484611087565b610a3a5760405162461bcd60e51b815260040161056d90611939565b60008261103885846111a2565b14949350505050565b6108c08282604051806020016040528060008152506111fd565b6000908152600360205260409020546001600160a01b0316151590565b6060600b805461048490611e0f565b600061109b846001600160a01b0316611230565b1561119757836001600160a01b031663150b7a026110b7610cc2565b8786866040518563ffffffff1660e01b81526004016110d99493929190611884565b602060405180830381600087803b1580156110f357600080fd5b505af1925050508015611123575060408051601f3d908101601f191682019092526111209181019061167c565b60015b61117d573d808015611151576040519150601f19603f3d011682016040523d82523d6000602084013e611156565b606091505b5080516111755760405162461bcd60e51b815260040161056d90611939565b805181602001fd5b6001600160e01b031916630a85bd0160e11b149050610d8b565b506001949350505050565b600081815b84518110156111f5576111e1828683815181106111d457634e487b7160e01b600052603260045260246000fd5b602002602001015161123f565b9150806111ed81611e4a565b9150506111a7565b509392505050565b6112078383611261565b6112146000848484611087565b6105ca5760405162461bcd60e51b815260040161056d90611939565b6001600160a01b03163b151590565b6000818310611257576112528284611348565b610bb1565b610bb18383611348565b6001600160a01b0382166112875760405162461bcd60e51b815260040161056d90611bd1565b6112908161105b565b156112ad5760405162461bcd60e51b815260040161056d90611a16565b6112b9600083836105ca565b6001600160a01b03821660009081526004602052604081208054600192906112e2908490611db4565b909155505060008181526003602052604080822080546001600160a01b0319166001600160a01b03861690811790915590518392907fddf252ad1be2c89b69c2b068fc378daa952ba7f163c4a11628f55a4df523b3ef908290a46108c0600083836105ca565b60009182526020526040902090565b82805461136390611e0f565b90600052602060002090601f01602090048101928261138557600085556113cb565b82601f1061139e57805160ff19168380011785556113cb565b828001600101855582156113cb579182015b828111156113cb5782518255916020019190600101906113b0565b506113d79291506113db565b5090565b5b808211156113d757600081556001016113dc565b60006001600160401b0383111561140957611409611e7b565b61141c601f8401601f1916602001611d84565b905082815283838301111561143057600080fd5b828260208301376000602084830101529392505050565b80356001600160a01b038116811461047057600080fd5b600082601f83011261146e578081fd5b813560206001600160401b0382111561148957611489611e7b565b808202611497828201611d84565b8381528281019086840183880185018910156114b1578687fd5b8693505b858410156114da576114c681611447565b8352600193909301929184019184016114b5565b50979650505050505050565b6000602082840312156114f7578081fd5b610bb182611447565b60008060408385031215611512578081fd5b61151b83611447565b915061152960208401611447565b90509250929050565b600080600060608486031215611546578081fd5b61154f84611447565b925061155d60208501611447565b9150604084013590509250925092565b60008060008060808587031215611582578081fd5b61158b85611447565b935061159960208601611447565b92506040850135915060608501356001600160401b038111156115ba578182fd5b8501601f810187136115ca578182fd5b6115d9878235602084016113f0565b91505092959194509250565b600080604083850312156115f7578182fd5b61160083611447565b915060208301358015158114611614578182fd5b809150509250929050565b60008060408385031215611631578182fd5b61163a83611447565b946020939093013593505050565b600060208284031215611659578081fd5b5035919050565b600060208284031215611671578081fd5b8135610bb181611e91565b60006020828403121561168d578081fd5b8151610bb181611e91565b6000602082840312156116a9578081fd5b81356001600160401b038111156116be578182fd5b8201601f810184136116ce578182fd5b610d8b848235602084016113f0565b600080604083850312156116ef578081fd5b8235915060208301356001600160401b0381111561170b578182fd5b6117178582860161145e565b9150509250929050565b600080600060408486031215611735578081fd5b8335925060208401356001600160401b0380821115611752578283fd5b818601915086601f830112611765578283fd5b813581811115611773578384fd5b8760208083028501011115611786578384fd5b6020830194508093505050509250925092565b600080604083850312156117ab578182fd5b50508035926020909101359150565b6000806000606084860312156117ce578081fd5b833592506020840135915060408401356001600160401b038111156117f1578182fd5b6117fd8682870161145e565b9150509250925092565b6000815180845261181f816020860160208601611de3565b601f01601f19169290920160200192915050565b60008351611845818460208801611de3565b9190910191825250602001919050565b91825260601b6001600160601b031916602082015260340190565b6001600160a01b0391909116815260200190565b6001600160a01b03858116825284166020820152604081018390526080606082018190526000906118b790830184611807565b9695505050505050565b604080825283519082018190526000906020906060840190828701845b828110156119035781516001600160a01b0316845292840192908401906001016118de565b50505092019290925292915050565b901515815260200190565b90815260200190565b600060208252610bb16020830184611807565b60208082526032908201527f4552433732313a207472616e7366657220746f206e6f6e20455243373231526560408201527131b2b4bb32b91034b6b83632b6b2b73a32b960711b606082015260800190565b60208082526026908201527f4f776e61626c653a206e6577206f776e657220697320746865207a65726f206160408201526564647265737360d01b606082015260800190565b60208082526025908201527f4552433732313a207472616e736665722066726f6d20696e636f72726563742060408201526437bbb732b960d91b606082015260800190565b6020808252601c908201527f4552433732313a20746f6b656e20616c7265616479206d696e74656400000000604082015260600190565b60208082526024908201527f4552433732313a207472616e7366657220746f20746865207a65726f206164646040820152637265737360e01b606082015260800190565b60208082526019908201527822a9219b99189d1030b8383937bb32903a379031b0b63632b960391b604082015260600190565b6020808252600c908201526b6e6674206973207573696e6760a01b604082015260600190565b60208082526021908201527f4d65726b6c654469737472696275746f723a20496e76616c69642070726f6f666040820152601760f91b606082015260800190565b60208082526029908201527f4552433732313a2061646472657373207a65726f206973206e6f7420612076616040820152683634b21037bbb732b960b91b606082015260800190565b6020808252603e908201527f4552433732313a20617070726f76652063616c6c6572206973206e6f7420746f60408201527f6b656e206f776e6572206e6f7220617070726f76656420666f7220616c6c0000606082015260800190565b6020808252818101527f4552433732313a206d696e7420746f20746865207a65726f2061646472657373604082015260600190565b6020808252601190820152706e6674206f776e6572206e6f7420796f7560781b604082015260600190565b6020808252818101527f4f776e61626c653a2063616c6c6572206973206e6f7420746865206f776e6572604082015260600190565b6020808252602f908201527f4552433732314d657461646174613a2055524920717565727920666f72206e6f60408201526e3732bc34b9ba32b73a103a37b5b2b760891b606082015260800190565b602080825260189082015277115490cdcc8c4e881a5b9d985b1a59081d1bdad95b88125160421b604082015260600190565b60208082526021908201527f4552433732313a20617070726f76616c20746f2063757272656e74206f776e656040820152603960f91b606082015260800190565b6020808252602e908201527f4552433732313a2063616c6c6572206973206e6f7420746f6b656e206f776e6560408201526d1c881b9bdc88185c1c1c9bdd995960921b606082015260800190565b918252602082015260400190565b604051601f8201601f191681016001600160401b0381118282101715611dac57611dac611e7b565b604052919050565b60008219821115611dc757611dc7611e65565b500190565b600082821015611dde57611dde611e65565b500390565b60005b83811015611dfe578181015183820152602001611de6565b83811115610a3a5750506000910152565b600281046001821680611e2357607f821691505b60208210811415611e4457634e487b7160e01b600052602260045260246000fd5b50919050565b6000600019821415611e5e57611e5e611e65565b5060010190565b634e487b7160e01b600052601160045260246000fd5b634e487b7160e01b600052604160045260246000fd5b6001600160e01b031981168114610c5657600080fdfea264697066735822122074c37f162fe5264f179831674be9380bd56aa100277cdc234dbd56ab20a5838064736f6c63430008010033",
  "immutableReferences": {},
  "source": "// SPDX-License-Identifier: MIT\npragma solidity >=0.4.22 <0.9.0;\n\nimport \"./Player.sol\";\nimport \"@openzeppelin/contracts/utils/cryptography/MerkleProof.sol\";\nimport \"@openzeppelin/contracts/access/Ownable.sol\";\nimport \"@openzeppelin/contracts/token/ERC721/ERC721.sol\";\n/**\n    Dealer\n    \n        Player\n        factory\n        \n\n    mint nft\n        mint----userToMint0mint, 1mint\n    \n    \n        nft----dealerToDeadlinedealerToDeadline[id] <= block.timestamp\n        playerid,id\n        mintplayer nft\n */\ncontract Dealer is Ownable, ERC721{\n\n    using Strings for uint256;\n\n    uint256 public constant TOTAL_MAX_QTY = 100;\n    \n    address public players;\n    address public factory;\n    bytes32 public _merkleRoot;\n    uint256 public total_supply;\n    string private _tokenURI;\n\n    mapping(uint256 => string) public tokenURIs;\n    mapping(uint256 => uint256) public dealerType;\n    mapping(uint256 => uint256) public dealerToDeadline;\n    mapping(address => uint256) public userToMint;\n\n    constructor(\n        string memory name,\n        string memory symbol,\n        string memory tokenURI_\n    ) ERC721(name, symbol) {\n        _tokenURI = tokenURI_;\n    }\n\n    function mint(uint256 index, bytes32[] calldata merkleProof) external {\n        bytes32 node = keccak256(abi.encodePacked(index, msg.sender));\n        require(MerkleProof.verify(merkleProof, _merkleRoot, node), 'MerkleDistributor: Invalid proof.');\n        require(userToMint[msg.sender] == 0, 'MerkleDistributor: Invalid proof.');\n        total_supply = total_supply + 1;\n        _safeMint(msg.sender, total_supply);\n        userToMint[msg.sender] = 1;\n    }\n\n    function setPlayers(uint256 id, uint256 supply, address[] memory users) external {\n        require(ownerOf(id) == msg.sender, \"nft owner not you\");\n        require(dealerToDeadline[id] <= block.timestamp, \"nft is using\");\n        Player(players).createID(id, supply);\n        Player(players).mint(users, id);\n    }\n\n    function addPlayers(uint256 id, address[] memory users) external {\n        require(ownerOf(id) == msg.sender, \"nft owner not you\");\n        require(dealerToDeadline[id] <= block.timestamp, \"nft is using\");\n        Player(players).mint(users, id);\n    }\n\n    function getDealerStatus(uint256 id) view external returns(bool) {\n        return block.timestamp > dealerToDeadline[id] || dealerType[id] == 0;\n    }\n\n    function setDealerToDeadline(uint256 id, uint256 deadline) external {\n        dealerToDeadline[id] = deadline;\n    }\n\n    function setDealerType(uint256 id, uint256 type_) external onlyOwner {\n        dealerType[id] = type_;\n    }\n\n    function setFactory(address factory_) external onlyOwner {\n        factory = factory_;\n    }\n\n    function setMerkleRoot(bytes32 merkleRoot_) external onlyOwner {\n        _merkleRoot = merkleRoot_;\n    }\n\n    function tokenURI(uint256 tokenId) public view virtual override returns (string memory) {\n        require(_exists(tokenId), \"ERC721Metadata: URI query for nonexistent token\");\n        string memory baseURI = _baseURI();\n        return bytes(baseURI).length > 0 ? string(abi.encodePacked(baseURI, tokenId)) : \"\";\n    }\n\n    function setTokenURI(string memory tokenURI_) external {\n        _tokenURI = tokenURI_;\n    }\n\n    function _baseURI() internal view virtual override returns (string memory) {\n        return _tokenURI;\n    }\n\n    modifier onlyFactory(uint256 id) {\n        require(false, \"not Dealer\");\n        _;\n    }\n}",
  "sourcePath": "/Users/pengyun/Desktop/code/qilin-pvp-v2/contracts/proof/Dealer.sol",
  "compiler": {
    "name": "solc",
    "version": "0.8.1+commit.df193b15.Emscripten.clang"
  },
  "schemaVersion": "3.3.3",
  "updatedAt": "2023-05-16T09:40:32.531Z",
  "devdoc": {
    "kind": "dev",
    "methods": {
      "approve(address,uint256)": {
        "details": "See {IERC721-approve}."
      },
      "balanceOf(address)": {
        "details": "See {IERC721-balanceOf}."
      },
      "getApproved(uint256)": {
        "details": "See {IERC721-getApproved}."
      },
      "isApprovedForAll(address,address)": {
        "details": "See {IERC721-isApprovedForAll}."
      },
      "name()": {
        "details": "See {IERC721Metadata-name}."
      },
      "owner()": {
        "details": "Returns the address of the current owner."
      },
      "ownerOf(uint256)": {
        "details": "See {IERC721-ownerOf}."
      },
      "renounceOwnership()": {
        "details": "Leaves the contract without owner. It will not be possible to call `onlyOwner` functions anymore. Can only be called by the current owner. NOTE: Renouncing ownership will leave the contract without an owner, thereby removing any functionality that is only available to the owner."
      },
      "safeTransferFrom(address,address,uint256)": {
        "details": "See {IERC721-safeTransferFrom}."
      },
      "safeTransferFrom(address,address,uint256,bytes)": {
        "details": "See {IERC721-safeTransferFrom}."
      },
      "setApprovalForAll(address,bool)": {
        "details": "See {IERC721-setApprovalForAll}."
      },
      "supportsInterface(bytes4)": {
        "details": "See {IERC165-supportsInterface}."
      },
      "symbol()": {
        "details": "See {IERC721Metadata-symbol}."
      },
      "tokenURI(uint256)": {
        "details": "See {IERC721Metadata-tokenURI}."
      },
      "transferFrom(address,address,uint256)": {
        "details": "See {IERC721-transferFrom}."
      },
      "transferOwnership(address)": {
        "details": "Transfers ownership of the contract to a new account (`newOwner`). Can only be called by the current owner."
      }
    },
    "version": 1
  },
  "userdoc": {
    "kind": "user",
    "methods": {},
    "notice": "Dealer  Player factory  mint nft mint----userToMint0mint, 1mint  nft----dealerToDeadlinedealerToDeadline[id] <= block.timestamp playerid,id mintplayer nft",
    "version": 1
  }
}