{
  "_format": "hh-sol-artifact-1",
  "contractName": "Dealer",
  "sourceName": "contracts/proof/Dealer.sol",
  "abi": [
    {
      "inputs": [
        {
          "internalType": "string",
          "name": "name",
          "type": "string"
        },
        {
          "internalType": "string",
          "name": "symbol",
          "type": "string"
        },
        {
          "internalType": "string",
          "name": "tokenURI_",
          "type": "string"
        }
      ],
      "stateMutability": "nonpayable",
      "type": "constructor"
    },
    {
      "anonymous": false,
      "inputs": [
        {
          "indexed": true,
          "internalType": "address",
          "name": "owner",
          "type": "address"
        },
        {
          "indexed": true,
          "internalType": "address",
          "name": "approved",
          "type": "address"
        },
        {
          "indexed": true,
          "internalType": "uint256",
          "name": "tokenId",
          "type": "uint256"
        }
      ],
      "name": "Approval",
      "type": "event"
    },
    {
      "anonymous": false,
      "inputs": [
        {
          "indexed": true,
          "internalType": "address",
          "name": "owner",
          "type": "address"
        },
        {
          "indexed": true,
          "internalType": "address",
          "name": "operator",
          "type": "address"
        },
        {
          "indexed": false,
          "internalType": "bool",
          "name": "approved",
          "type": "bool"
        }
      ],
      "name": "ApprovalForAll",
      "type": "event"
    },
    {
      "anonymous": false,
      "inputs": [
        {
          "indexed": false,
          "internalType": "uint256",
          "name": "id",
          "type": "uint256"
        },
        {
          "indexed": false,
          "internalType": "uint256",
          "name": "index",
          "type": "uint256"
        },
        {
          "indexed": false,
          "internalType": "address",
          "name": "pool",
          "type": "address"
        }
      ],
      "name": "DealerOracle",
      "type": "event"
    },
    {
      "anonymous": false,
      "inputs": [
        {
          "indexed": false,
          "internalType": "uint256",
          "name": "id",
          "type": "uint256"
        },
        {
          "indexed": false,
          "internalType": "address",
          "name": "user",
          "type": "address"
        }
      ],
      "name": "Mint",
      "type": "event"
    },
    {
      "anonymous": false,
      "inputs": [
        {
          "indexed": true,
          "internalType": "address",
          "name": "previousOwner",
          "type": "address"
        },
        {
          "indexed": true,
          "internalType": "address",
          "name": "newOwner",
          "type": "address"
        }
      ],
      "name": "OwnershipTransferred",
      "type": "event"
    },
    {
      "anonymous": false,
      "inputs": [
        {
          "indexed": true,
          "internalType": "address",
          "name": "from",
          "type": "address"
        },
        {
          "indexed": true,
          "internalType": "address",
          "name": "to",
          "type": "address"
        },
        {
          "indexed": true,
          "internalType": "uint256",
          "name": "tokenId",
          "type": "uint256"
        }
      ],
      "name": "Transfer",
      "type": "event"
    },
    {
      "inputs": [],
      "name": "TOTAL_MAX_QTY",
      "outputs": [
        {
          "internalType": "uint256",
          "name": "",
          "type": "uint256"
        }
      ],
      "stateMutability": "view",
      "type": "function"
    },
    {
      "inputs": [],
      "name": "WHITELIST_QTY",
      "outputs": [
        {
          "internalType": "uint256",
          "name": "",
          "type": "uint256"
        }
      ],
      "stateMutability": "view",
      "type": "function"
    },
    {
      "inputs": [],
      "name": "_merkleRoot",
      "outputs": [
        {
          "internalType": "bytes32",
          "name": "",
          "type": "bytes32"
        }
      ],
      "stateMutability": "view",
      "type": "function"
    },
    {
      "inputs": [
        {
          "internalType": "uint256",
          "name": "id",
          "type": "uint256"
        },
        {
          "internalType": "address[]",
          "name": "users",
          "type": "address[]"
        }
      ],
      "name": "addPlayers",
      "outputs": [],
      "stateMutability": "nonpayable",
      "type": "function"
    },
    {
      "inputs": [
        {
          "internalType": "address",
          "name": "to",
          "type": "address"
        },
        {
          "internalType": "uint256",
          "name": "tokenId",
          "type": "uint256"
        }
      ],
      "name": "approve",
      "outputs": [],
      "stateMutability": "nonpayable",
      "type": "function"
    },
    {
      "inputs": [
        {
          "internalType": "address",
          "name": "owner",
          "type": "address"
        }
      ],
      "name": "balanceOf",
      "outputs": [
        {
          "internalType": "uint256",
          "name": "",
          "type": "uint256"
        }
      ],
      "stateMutability": "view",
      "type": "function"
    },
    {
      "inputs": [
        {
          "internalType": "uint256",
          "name": "id",
          "type": "uint256"
        },
        {
          "internalType": "address",
          "name": "payToken",
          "type": "address"
        },
        {
          "internalType": "address",
          "name": "targetToken",
          "type": "address"
        },
        {
          "internalType": "address",
          "name": "oracle",
          "type": "address"
        },
        {
          "internalType": "bool",
          "name": "reverse",
          "type": "bool"
        },
        {
          "internalType": "uint8",
          "name": "typ",
          "type": "uint8"
        },
        {
          "internalType": "uint8",
          "name": "model",
          "type": "uint8"
        },
        {
          "internalType": "int256",
          "name": "supply",
          "type": "int256"
        },
        {
          "internalType": "address[]",
          "name": "users",
          "type": "address[]"
        }
      ],
      "name": "createPool",
      "outputs": [],
      "stateMutability": "nonpayable",
      "type": "function"
    },
    {
      "inputs": [
        {
          "internalType": "uint256",
          "name": "",
          "type": "uint256"
        }
      ],
      "name": "dealerToPlayer",
      "outputs": [
        {
          "internalType": "uint256",
          "name": "",
          "type": "uint256"
        }
      ],
      "stateMutability": "view",
      "type": "function"
    },
    {
      "inputs": [
        {
          "internalType": "uint256",
          "name": "",
          "type": "uint256"
        }
      ],
      "name": "dealerToStatus",
      "outputs": [
        {
          "internalType": "uint256",
          "name": "",
          "type": "uint256"
        }
      ],
      "stateMutability": "view",
      "type": "function"
    },
    {
      "inputs": [],
      "name": "factory",
      "outputs": [
        {
          "internalType": "address",
          "name": "",
          "type": "address"
        }
      ],
      "stateMutability": "view",
      "type": "function"
    },
    {
      "inputs": [
        {
          "internalType": "uint256",
          "name": "tokenId",
          "type": "uint256"
        }
      ],
      "name": "getApproved",
      "outputs": [
        {
          "internalType": "address",
          "name": "",
          "type": "address"
        }
      ],
      "stateMutability": "view",
      "type": "function"
    },
    {
      "inputs": [
        {
          "internalType": "address",
          "name": "owner",
          "type": "address"
        },
        {
          "internalType": "address",
          "name": "operator",
          "type": "address"
        }
      ],
      "name": "isApprovedForAll",
      "outputs": [
        {
          "internalType": "bool",
          "name": "",
          "type": "bool"
        }
      ],
      "stateMutability": "view",
      "type": "function"
    },
    {
      "inputs": [
        {
          "internalType": "uint256",
          "name": "index",
          "type": "uint256"
        },
        {
          "internalType": "bytes32[]",
          "name": "merkleProof",
          "type": "bytes32[]"
        }
      ],
      "name": "mint",
      "outputs": [],
      "stateMutability": "nonpayable",
      "type": "function"
    },
    {
      "inputs": [],
      "name": "name",
      "outputs": [
        {
          "internalType": "string",
          "name": "",
          "type": "string"
        }
      ],
      "stateMutability": "view",
      "type": "function"
    },
    {
      "inputs": [],
      "name": "owner",
      "outputs": [
        {
          "internalType": "address",
          "name": "",
          "type": "address"
        }
      ],
      "stateMutability": "view",
      "type": "function"
    },
    {
      "inputs": [
        {
          "internalType": "uint256",
          "name": "tokenId",
          "type": "uint256"
        }
      ],
      "name": "ownerOf",
      "outputs": [
        {
          "internalType": "address",
          "name": "",
          "type": "address"
        }
      ],
      "stateMutability": "view",
      "type": "function"
    },
    {
      "inputs": [],
      "name": "player",
      "outputs": [
        {
          "internalType": "address",
          "name": "",
          "type": "address"
        }
      ],
      "stateMutability": "view",
      "type": "function"
    },
    {
      "inputs": [],
      "name": "renounceOwnership",
      "outputs": [],
      "stateMutability": "nonpayable",
      "type": "function"
    },
    {
      "inputs": [
        {
          "internalType": "address",
          "name": "from",
          "type": "address"
        },
        {
          "internalType": "address",
          "name": "to",
          "type": "address"
        },
        {
          "internalType": "uint256",
          "name": "tokenId",
          "type": "uint256"
        }
      ],
      "name": "safeTransferFrom",
      "outputs": [],
      "stateMutability": "nonpayable",
      "type": "function"
    },
    {
      "inputs": [
        {
          "internalType": "address",
          "name": "from",
          "type": "address"
        },
        {
          "internalType": "address",
          "name": "to",
          "type": "address"
        },
        {
          "internalType": "uint256",
          "name": "tokenId",
          "type": "uint256"
        },
        {
          "internalType": "bytes",
          "name": "data",
          "type": "bytes"
        }
      ],
      "name": "safeTransferFrom",
      "outputs": [],
      "stateMutability": "nonpayable",
      "type": "function"
    },
    {
      "inputs": [
        {
          "internalType": "address",
          "name": "operator",
          "type": "address"
        },
        {
          "internalType": "bool",
          "name": "approved",
          "type": "bool"
        }
      ],
      "name": "setApprovalForAll",
      "outputs": [],
      "stateMutability": "nonpayable",
      "type": "function"
    },
    {
      "inputs": [
        {
          "internalType": "uint256",
          "name": "id",
          "type": "uint256"
        },
        {
          "internalType": "uint256",
          "name": "status_",
          "type": "uint256"
        }
      ],
      "name": "setDealerToStatus",
      "outputs": [],
      "stateMutability": "nonpayable",
      "type": "function"
    },
    {
      "inputs": [
        {
          "internalType": "address",
          "name": "factory_",
          "type": "address"
        }
      ],
      "name": "setFactory",
      "outputs": [],
      "stateMutability": "nonpayable",
      "type": "function"
    },
    {
      "inputs": [
        {
          "internalType": "bytes32",
          "name": "merkleRoot_",
          "type": "bytes32"
        }
      ],
      "name": "setMerkleRoot",
      "outputs": [],
      "stateMutability": "nonpayable",
      "type": "function"
    },
    {
      "inputs": [
        {
          "internalType": "address",
          "name": "player_",
          "type": "address"
        }
      ],
      "name": "setPlayer",
      "outputs": [],
      "stateMutability": "nonpayable",
      "type": "function"
    },
    {
      "inputs": [
        {
          "internalType": "string",
          "name": "tokenURI_",
          "type": "string"
        }
      ],
      "name": "setTokenURI",
      "outputs": [],
      "stateMutability": "nonpayable",
      "type": "function"
    },
    {
      "inputs": [
        {
          "internalType": "bytes4",
          "name": "interfaceId",
          "type": "bytes4"
        }
      ],
      "name": "supportsInterface",
      "outputs": [
        {
          "internalType": "bool",
          "name": "",
          "type": "bool"
        }
      ],
      "stateMutability": "view",
      "type": "function"
    },
    {
      "inputs": [],
      "name": "symbol",
      "outputs": [
        {
          "internalType": "string",
          "name": "",
          "type": "string"
        }
      ],
      "stateMutability": "view",
      "type": "function"
    },
    {
      "inputs": [
        {
          "internalType": "uint256",
          "name": "tokenId",
          "type": "uint256"
        }
      ],
      "name": "tokenURI",
      "outputs": [
        {
          "internalType": "string",
          "name": "",
          "type": "string"
        }
      ],
      "stateMutability": "view",
      "type": "function"
    },
    {
      "inputs": [],
      "name": "total_supply",
      "outputs": [
        {
          "internalType": "uint256",
          "name": "",
          "type": "uint256"
        }
      ],
      "stateMutability": "view",
      "type": "function"
    },
    {
      "inputs": [
        {
          "internalType": "address",
          "name": "from",
          "type": "address"
        },
        {
          "internalType": "address",
          "name": "to",
          "type": "address"
        },
        {
          "internalType": "uint256",
          "name": "tokenId",
          "type": "uint256"
        }
      ],
      "name": "transferFrom",
      "outputs": [],
      "stateMutability": "nonpayable",
      "type": "function"
    },
    {
      "inputs": [
        {
          "internalType": "address",
          "name": "newOwner",
          "type": "address"
        }
      ],
      "name": "transferOwnership",
      "outputs": [],
      "stateMutability": "nonpayable",
      "type": "function"
    },
    {
      "inputs": [
        {
          "internalType": "address",
          "name": "",
          "type": "address"
        }
      ],
      "name": "userToDealer",
      "outputs": [
        {
          "internalType": "uint256",
          "name": "",
          "type": "uint256"
        }
      ],
      "stateMutability": "view",
      "type": "function"
    },
    {
      "inputs": [
        {
          "internalType": "address",
          "name": "",
          "type": "address"
        }
      ],
      "name": "userToMint",
      "outputs": [
        {
          "internalType": "uint256",
          "name": "",
          "type": "uint256"
        }
      ],
      "stateMutability": "view",
      "type": "function"
    }
  ],
  "bytecode": "0x60806040523480156200001157600080fd5b506040516200269638038062002696833981016040819052620000349162000244565b82826200004a6200004462000097565b6200009b565b81516200005f906001906020850190620000eb565b50805162000075906002906020840190620000eb565b505081516200008d9150600b906020840190620000eb565b5050505062000324565b3390565b600080546001600160a01b038381166001600160a01b0319831681178455604051919092169283917f8be0079c531659141344cd1fd0a4f28419497f9722a3daafe3b4186f6b6457e09190a35050565b828054620000f990620002d1565b90600052602060002090601f0160209004810192826200011d576000855562000168565b82601f106200013857805160ff191683800117855562000168565b8280016001018555821562000168579182015b82811115620001685782518255916020019190600101906200014b565b50620001769291506200017a565b5090565b5b808211156200017657600081556001016200017b565b600082601f830112620001a2578081fd5b81516001600160401b0380821115620001bf57620001bf6200030e565b604051601f8301601f19908116603f01168101908282118183101715620001ea57620001ea6200030e565b8160405283815260209250868385880101111562000206578485fd5b8491505b838210156200022957858201830151818301840152908201906200020a565b838211156200023a57848385830101525b9695505050505050565b60008060006060848603121562000259578283fd5b83516001600160401b038082111562000270578485fd5b6200027e8783880162000191565b9450602086015191508082111562000294578384fd5b620002a28783880162000191565b93506040860151915080821115620002b8578283fd5b50620002c78682870162000191565b9150509250925092565b600281046001821680620002e657607f821691505b602082108114156200030857634e487b7160e01b600052602260045260246000fd5b50919050565b634e487b7160e01b600052604160045260246000fd5b61236280620003346000396000f3fe608060405234801561001057600080fd5b50600436106102065760003560e01c806395d89b411161011a578063c5bf51e2116100ad578063e0df5b6f1161007c578063e0df5b6f1461040e578063e985e9c514610421578063eb80c78314610434578063effca9681461043c578063f2fde38b1461044f57610206565b8063c5bf51e2146103cd578063c87b56dd146103e0578063d12e053a146103f3578063dee816e61461040657610206565b8063b88d4fde116100e9578063b88d4fde1461038c578063ba41b0c61461039f578063bc8d3ac4146103b2578063c45a0155146103c557610206565b806395d89b411461034b578063a22cb46514610353578063b28a0a7f14610366578063b6ae63951461037957610206565b806342842e0e1161019d5780636352211e1161016c5780636352211e1461030257806370a0823114610315578063715018a6146103285780637cb64759146103305780638da5cb5b1461034357610206565b806342842e0e146102c157806348db5f89146102d45780635bb47808146102dc57806362538f0f146102ef57610206565b806323b872dd116101d957806323b872dd1461027e5780632fc37ab21461029157806331df5670146102a65780633940e9ee146102b957610206565b806301ffc9a71461020b57806306fdde0314610234578063081812fc14610249578063095ea7b314610269575b600080fd5b61021e610219366004611949565b610462565b60405161022b9190611c87565b60405180910390f35b61023c6104aa565b60405161022b9190611c9b565b61025c610257366004611931565b61053c565b60405161022b9190611be5565b61027c610277366004611906565b610563565b005b61027c61028c366004611815565b610604565b61029961063c565b60405161022b9190611c92565b61027c6102b4366004611a98565b610642565b61029961070a565b61027c6102cf366004611815565b610710565b61025c61072b565b61027c6102ea3660046117a5565b61073a565b61027c6102fd366004611b56565b610764565b61025c610310366004611931565b610805565b6102996103233660046117a5565b610839565b61027c61087d565b61027c61033e366004611931565b610891565b61025c61089e565b61023c6108ad565b61027c6103613660046118d2565b6108bc565b610299610374366004611931565b6108d2565b6102996103873660046117a5565b6108e4565b61027c61039a366004611855565b6108f6565b61027c6103ad366004611add565b610935565b61027c6103c03660046117a5565b610a74565b61025c610a9e565b6102996103db366004611931565b610aad565b61023c6103ee366004611931565b610abf565b6102996104013660046117a5565b610b3a565b610299610b4c565b61027c61041c366004611981565b610b52565b61021e61042f3660046117dd565b610b65565b610299610b93565b61027c61044a3660046119df565b610b98565b61027c61045d3660046117a5565b610d62565b60006001600160e01b031982166380ac58cd60e01b148061049357506001600160e01b03198216635b5e139f60e01b145b806104a257506104a282610d9c565b90505b919050565b6060600180546104b99061227f565b80601f01602080910402602001604051908101604052809291908181526020018280546104e59061227f565b80156105325780601f1061050757610100808354040283529160200191610532565b820191906000526020600020905b81548152906001019060200180831161051557829003601f168201915b5050505050905090565b600061054782610db5565b506000908152600560205260409020546001600160a01b031690565b600061056e82610805565b9050806001600160a01b0316836001600160a01b031614156105ab5760405162461bcd60e51b81526004016105a290612057565b60405180910390fd5b806001600160a01b03166105bd610dda565b6001600160a01b031614806105d957506105d98161042f610dda565b6105f55760405162461bcd60e51b81526004016105a2906120cf565b6105ff8383610dde565b505050565b61061561060f610dda565b82610e4c565b6106315760405162461bcd60e51b81526004016105a290611cfa565b6105ff838383610eab565b600a5481565b813361064d82610805565b6001600160a01b0316146106735760405162461bcd60e51b81526004016105a29061212c565b6000838152600c60205260409020546001146106a15760405162461bcd60e51b81526004016105a290611ed6565b60075460405163601c676960e01b81526001600160a01b039091169063601c6769906106d39085908790600401611c36565b600060405180830381600087803b1580156106ed57600080fd5b505af1158015610701573d6000803e3d6000fd5b50505050505050565b60095481565b6105ff838383604051806020016040528060008152506108f6565b6007546001600160a01b031681565b610742610fe8565b600880546001600160a01b0319166001600160a01b0392909216919091179055565b81336001600160a01b0316631372088a6040518163ffffffff1660e01b815260040160206040518083038186803b15801561079e57600080fd5b505afa1580156107b2573d6000803e3d6000fd5b505050506040513d601f19601f820116820180604052508101906107d691906119c7565b146107f35760405162461bcd60e51b81526004016105a290611cae565b6000918252600c602052604090912055565b60008061081183611027565b90506001600160a01b0381166104a25760405162461bcd60e51b81526004016105a290612020565b60006001600160a01b0382166108615760405162461bcd60e51b81526004016105a290611f01565b506001600160a01b031660009081526004602052604090205490565b610885610fe8565b61088f6000611042565b565b610899610fe8565b600a55565b6000546001600160a01b031690565b6060600280546104b99061227f565b6108ce6108c7610dda565b8383611092565b5050565b600e6020526000908152604090205481565b600f6020526000908152604090205481565b610907610901610dda565b83610e4c565b6109235760405162461bcd60e51b81526004016105a290611cfa565b61092f84848484611135565b50505050565b6000833360405160200161094a929190611bc5565b6040516020818303038152906040528051906020012090506109a383838080602002602001604051908101604052809392919081815260200183836020028082843760009201919091525050600a549150849050611168565b6109d5576109b460646103e861223c565b60095411156109d55760405162461bcd60e51b81526004016105a290612003565b336000908152600f602052604090205415610a025760405162461bcd60e51b81526004016105a290611cda565b600954610a10906001612224565b6009819055610a2090339061117e565b336000818152600f6020526040908190206001905560095490517ff3cea5493d790af0133817606f7350a91d7f154ea52eaa79d179d4d231e5010292610a669291612154565b60405180910390a150505050565b610a7c610fe8565b600780546001600160a01b0319166001600160a01b0392909216919091179055565b6008546001600160a01b031681565b600c6020526000908152604090205481565b6060610aca82611198565b610ae65760405162461bcd60e51b81526004016105a290611fb4565b6000610af06111b5565b90506000815111610b105760405180602001604052806000815250610b33565b8083604051602001610b23929190611ba3565b6040516020818303038152906040525b9392505050565b600d6020526000908152604090205481565b6103e881565b80516108ce90600b906020840190611608565b6001600160a01b03918216600090815260066020908152604080832093909416825291909152205460ff1690565b606481565b8833610ba382610805565b6001600160a01b031614610bc95760405162461bcd60e51b81526004016105a29061212c565b60008a8152600c602052604090205415610bf55760405162461bcd60e51b81526004016105a290612098565b6008546040516363a3e40760e11b81526000916001600160a01b03169063c747c80e90610c32908e908e908e908e908e908e908e9060040161216b565b602060405180830381600087803b158015610c4c57600080fd5b505af1158015610c60573d6000803e3d6000fd5b505050506040513d601f19601f82011682018060405250810190610c8491906117c1565b60008c8152600c6020526040812060019055909150610ca68c8387878a6111c4565b604051631e8e3b7b60e11b81529091506001600160a01b03831690633d1c76f690610cd5908490600401611c92565b600060405180830381600087803b158015610cef57600080fd5b505af1158015610d03573d6000803e3d6000fd5b50505060008d8152600e602052604090819020839055517f06934bca8636bce75e41721a4aa1c5caa6b6a2ba8185fb2a3d0046795e5eaf429150610d4c908e90849086906121d4565b60405180910390a1505050505050505050505050565b610d6a610fe8565b6001600160a01b038116610d905760405162461bcd60e51b81526004016105a290611d99565b610d9981611042565b50565b6001600160e01b031981166301ffc9a760e01b14919050565b610dbe81611198565b610d995760405162461bcd60e51b81526004016105a290612020565b3390565b600081815260056020526040902080546001600160a01b0319166001600160a01b0384169081179091558190610e1382610805565b6001600160a01b03167f8c5be1e5ebec7d5bd14f71427d1e84f3dd0314c0f7b2291e5b200ac8c7c3b92560405160405180910390a45050565b600080610e5883610805565b9050806001600160a01b0316846001600160a01b03161480610e7f5750610e7f8185610b65565b80610ea35750836001600160a01b0316610e988461053c565b6001600160a01b0316145b949350505050565b826001600160a01b0316610ebe82610805565b6001600160a01b031614610ee45760405162461bcd60e51b81526004016105a290611ddf565b6001600160a01b038216610f0a5760405162461bcd60e51b81526004016105a290611e5b565b610f17838383600161092f565b826001600160a01b0316610f2a82610805565b6001600160a01b031614610f505760405162461bcd60e51b81526004016105a290611ddf565b600081815260056020908152604080832080546001600160a01b03199081169091556001600160a01b0387811680865260048552838620805460001901905590871680865283862080546001019055868652600390945282852080549092168417909155905184937fddf252ad1be2c89b69c2b068fc378daa952ba7f163c4a11628f55a4df523b3ef91a46105ff838383600161092f565b610ff0610dda565b6001600160a01b031661100161089e565b6001600160a01b03161461088f5760405162461bcd60e51b81526004016105a290611f7f565b6000908152600360205260409020546001600160a01b031690565b600080546001600160a01b038381166001600160a01b0319831681178455604051919092169283917f8be0079c531659141344cd1fd0a4f28419497f9722a3daafe3b4186f6b6457e09190a35050565b816001600160a01b0316836001600160a01b031614156110c45760405162461bcd60e51b81526004016105a290611e9f565b6001600160a01b0383811660008181526006602090815260408083209487168084529490915290819020805460ff1916851515179055517f17307eab39ab6107e8899845ad3d59bd9653f200f220920489ca2b5937696c3190611128908590611c87565b60405180910390a3505050565b611140848484610eab565b61114c8484848461132a565b61092f5760405162461bcd60e51b81526004016105a290611d47565b6000826111758584611445565b14949350505050565b6108ce8282604051806020016040528060008152506114a0565b6000806111a483611027565b6001600160a01b0316141592915050565b6060600b80546104b99061227f565b600085336111d182610805565b6001600160a01b0316146111f75760405162461bcd60e51b81526004016105a29061212c565b6000878152600c60205260409020546001146112255760405162461bcd60e51b81526004016105a290611ed6565b60075460405163d42e3cc760e01b81526001600160a01b039091169063d42e3cc79061125b908a908a908a9089906004016121ad565b602060405180830381600087803b15801561127557600080fd5b505af1158015611289573d6000803e3d6000fd5b505050506040513d601f19601f820116820180604052508101906112ad91906119c7565b91508260ff16600214156113205760075460405163601c676960e01b81526001600160a01b039091169063601c6769906112ed9087908690600401611c36565b600060405180830381600087803b15801561130757600080fd5b505af115801561131b573d6000803e3d6000fd5b505050505b5095945050505050565b600061133e846001600160a01b03166114d3565b1561143a57836001600160a01b031663150b7a0261135a610dda565b8786866040518563ffffffff1660e01b815260040161137c9493929190611bf9565b602060405180830381600087803b15801561139657600080fd5b505af19250505080156113c6575060408051601f3d908101601f191682019092526113c391810190611965565b60015b611420573d8080156113f4576040519150601f19603f3d011682016040523d82523d6000602084013e6113f9565b606091505b5080516114185760405162461bcd60e51b81526004016105a290611d47565b805181602001fd5b6001600160e01b031916630a85bd0160e11b149050610ea3565b506001949350505050565b600081815b8451811015611498576114848286838151811061147757634e487b7160e01b600052603260045260246000fd5b60200260200101516114e2565b915080611490816122ba565b91505061144a565b509392505050565b6114aa8383611504565b6114b7600084848461132a565b6105ff5760405162461bcd60e51b81526004016105a290611d47565b6001600160a01b03163b151590565b60008183106114fa576114f582846115f9565b610b33565b610b3383836115f9565b6001600160a01b03821661152a5760405162461bcd60e51b81526004016105a290611f4a565b61153381611198565b156115505760405162461bcd60e51b81526004016105a290611e24565b61155e60008383600161092f565b61156781611198565b156115845760405162461bcd60e51b81526004016105a290611e24565b6001600160a01b038216600081815260046020908152604080832080546001019055848352600390915280822080546001600160a01b0319168417905551839291907fddf252ad1be2c89b69c2b068fc378daa952ba7f163c4a11628f55a4df523b3ef908290a46108ce60008383600161092f565b60009182526020526040902090565b8280546116149061227f565b90600052602060002090601f016020900481019282611636576000855561167c565b82601f1061164f57805160ff191683800117855561167c565b8280016001018555821561167c579182015b8281111561167c578251825591602001919060010190611661565b5061168892915061168c565b5090565b5b80821115611688576000815560010161168d565b600067ffffffffffffffff8311156116bb576116bb6122eb565b6116ce601f8401601f19166020016121f3565b90508281528383830111156116e257600080fd5b828260208301376000602084830101529392505050565b600082601f830112611709578081fd5b8135602067ffffffffffffffff821115611725576117256122eb565b8082026117338282016121f3565b83815282810190868401838801850189101561174d578687fd5b8693505b8584101561177857803561176481612301565b835260019390930192918401918401611751565b50979650505050505050565b803580151581146104a557600080fd5b803560ff811681146104a557600080fd5b6000602082840312156117b6578081fd5b8135610b3381612301565b6000602082840312156117d2578081fd5b8151610b3381612301565b600080604083850312156117ef578081fd5b82356117fa81612301565b9150602083013561180a81612301565b809150509250929050565b600080600060608486031215611829578081fd5b833561183481612301565b9250602084013561184481612301565b929592945050506040919091013590565b6000806000806080858703121561186a578081fd5b843561187581612301565b9350602085013561188581612301565b925060408501359150606085013567ffffffffffffffff8111156118a7578182fd5b8501601f810187136118b7578182fd5b6118c6878235602084016116a1565b91505092959194509250565b600080604083850312156118e4578182fd5b82356118ef81612301565b91506118fd60208401611784565b90509250929050565b60008060408385031215611918578182fd5b823561192381612301565b946020939093013593505050565b600060208284031215611942578081fd5b5035919050565b60006020828403121561195a578081fd5b8135610b3381612316565b600060208284031215611976578081fd5b8151610b3381612316565b600060208284031215611992578081fd5b813567ffffffffffffffff8111156119a8578182fd5b8201601f810184136119b8578182fd5b610ea3848235602084016116a1565b6000602082840312156119d8578081fd5b5051919050565b60008060008060008060008060006101208a8c0312156119fd578687fd5b8935985060208a0135611a0f81612301565b975060408a0135611a1f81612301565b965060608a0135611a2f81612301565b9550611a3d60808b01611784565b9450611a4b60a08b01611794565b9350611a5960c08b01611794565b925060e08a013591506101008a013567ffffffffffffffff811115611a7c578182fd5b611a888c828d016116f9565b9150509295985092959850929598565b60008060408385031215611aaa578182fd5b82359150602083013567ffffffffffffffff811115611ac7578182fd5b611ad3858286016116f9565b9150509250929050565b600080600060408486031215611af1578081fd5b83359250602084013567ffffffffffffffff80821115611b0f578283fd5b818601915086601f830112611b22578283fd5b813581811115611b30578384fd5b8760208083028501011115611b43578384fd5b6020830194508093505050509250925092565b60008060408385031215611b68578182fd5b50508035926020909101359150565b60008151808452611b8f816020860160208601612253565b601f01601f19169290920160200192915050565b60008351611bb5818460208801612253565b9190910191825250602001919050565b91825260601b6bffffffffffffffffffffffff1916602082015260340190565b6001600160a01b0391909116815260200190565b6001600160a01b0385811682528416602082015260408101839052608060608201819052600090611c2c90830184611b77565b9695505050505050565b604080825283519082018190526000906020906060840190828701845b82811015611c785781516001600160a01b031684529284019290840190600101611c53565b50505092019290925292915050565b901515815260200190565b90815260200190565b600060208252610b336020830184611b77565b6020808252601290820152711413d3d30e881393d508151211481413d3d360721b604082015260600190565b60208082526006908201526514915411505560d21b604082015260600190565b6020808252602d908201527f4552433732313a2063616c6c6572206973206e6f7420746f6b656e206f776e6560408201526c1c881bdc88185c1c1c9bdd9959609a1b606082015260800190565b60208082526032908201527f4552433732313a207472616e7366657220746f206e6f6e20455243373231526560408201527131b2b4bb32b91034b6b83632b6b2b73a32b960711b606082015260800190565b60208082526026908201527f4f776e61626c653a206e6577206f776e657220697320746865207a65726f206160408201526564647265737360d01b606082015260800190565b60208082526025908201527f4552433732313a207472616e736665722066726f6d20696e636f72726563742060408201526437bbb732b960d91b606082015260800190565b6020808252601c908201527f4552433732313a20746f6b656e20616c7265616479206d696e74656400000000604082015260600190565b60208082526024908201527f4552433732313a207472616e7366657220746f20746865207a65726f206164646040820152637265737360e01b606082015260800190565b60208082526019908201527f4552433732313a20617070726f766520746f2063616c6c657200000000000000604082015260600190565b6020808252601190820152707374617475733a206e6f7420776169742160781b604082015260600190565b60208082526029908201527f4552433732313a2061646472657373207a65726f206973206e6f7420612076616040820152683634b21037bbb732b960b91b606082015260800190565b6020808252818101527f4552433732313a206d696e7420746f20746865207a65726f2061646472657373604082015260600190565b6020808252818101527f4f776e61626c653a2063616c6c6572206973206e6f7420746865206f776e6572604082015260600190565b6020808252602f908201527f4552433732314d657461646174613a2055524920717565727920666f72206e6f60408201526e3732bc34b9ba32b73a103a37b5b2b760891b606082015260800190565b60208082526003908201526209a82b60eb1b604082015260600190565b60208082526018908201527f4552433732313a20696e76616c696420746f6b656e2049440000000000000000604082015260600190565b60208082526021908201527f4552433732313a20617070726f76616c20746f2063757272656e74206f776e656040820152603960f91b606082015260800190565b60208082526017908201527f4465616c657220616c72656164792068617320706f6f6c000000000000000000604082015260600190565b6020808252603d908201527f4552433732313a20617070726f76652063616c6c6572206973206e6f7420746f60408201527f6b656e206f776e6572206f7220617070726f76656420666f7220616c6c000000606082015260800190565b6020808252600e908201526d6f776e65723a206e6f7420796f7560901b604082015260600190565b9182526001600160a01b0316602082015260400190565b9687526001600160a01b0395861660208801529385166040870152919093166060850152911515608084015260ff91821660a08401521660c082015260e00190565b9384526001600160a01b03929092166020840152604083015260ff16606082015260800190565b92835260208301919091526001600160a01b0316604082015260600190565b604051601f8201601f1916810167ffffffffffffffff8111828210171561221c5761221c6122eb565b604052919050565b60008219821115612237576122376122d5565b500190565b60008282101561224e5761224e6122d5565b500390565b60005b8381101561226e578181015183820152602001612256565b8381111561092f5750506000910152565b60028104600182168061229357607f821691505b602082108114156122b457634e487b7160e01b600052602260045260246000fd5b50919050565b60006000198214156122ce576122ce6122d5565b5060010190565b634e487b7160e01b600052601160045260246000fd5b634e487b7160e01b600052604160045260246000fd5b6001600160a01b0381168114610d9957600080fd5b6001600160e01b031981168114610d9957600080fdfea264697066735822122019a46a967c4a21df46846cf786a0f571ec04642c4899880ac3d99f41512217a164736f6c63430008010033",
  "linkReferences": {},
  "deployedLinkReferences": {}
}