{
  "contractName": "Dealer",
  "abi": [
    {
      "inputs": [
        {
          "internalType": "string",
          "name": "name",
          "type": "string"
        },
        {
          "internalType": "string",
          "name": "symbol",
          "type": "string"
        },
        {
          "internalType": "string",
          "name": "tokenURI_",
          "type": "string"
        }
      ],
      "stateMutability": "nonpayable",
      "type": "constructor"
    },
    {
      "anonymous": false,
      "inputs": [
        {
          "indexed": true,
          "internalType": "address",
          "name": "owner",
          "type": "address"
        },
        {
          "indexed": true,
          "internalType": "address",
          "name": "approved",
          "type": "address"
        },
        {
          "indexed": true,
          "internalType": "uint256",
          "name": "tokenId",
          "type": "uint256"
        }
      ],
      "name": "Approval",
      "type": "event"
    },
    {
      "anonymous": false,
      "inputs": [
        {
          "indexed": true,
          "internalType": "address",
          "name": "owner",
          "type": "address"
        },
        {
          "indexed": true,
          "internalType": "address",
          "name": "operator",
          "type": "address"
        },
        {
          "indexed": false,
          "internalType": "bool",
          "name": "approved",
          "type": "bool"
        }
      ],
      "name": "ApprovalForAll",
      "type": "event"
    },
    {
      "anonymous": false,
      "inputs": [
        {
          "indexed": true,
          "internalType": "address",
          "name": "previousOwner",
          "type": "address"
        },
        {
          "indexed": true,
          "internalType": "address",
          "name": "newOwner",
          "type": "address"
        }
      ],
      "name": "OwnershipTransferred",
      "type": "event"
    },
    {
      "anonymous": false,
      "inputs": [
        {
          "indexed": true,
          "internalType": "address",
          "name": "from",
          "type": "address"
        },
        {
          "indexed": true,
          "internalType": "address",
          "name": "to",
          "type": "address"
        },
        {
          "indexed": true,
          "internalType": "uint256",
          "name": "tokenId",
          "type": "uint256"
        }
      ],
      "name": "Transfer",
      "type": "event"
    },
    {
      "inputs": [],
      "name": "TOTAL_MAX_QTY",
      "outputs": [
        {
          "internalType": "uint256",
          "name": "",
          "type": "uint256"
        }
      ],
      "stateMutability": "view",
      "type": "function",
      "constant": true
    },
    {
      "inputs": [],
      "name": "_merkleRoot",
      "outputs": [
        {
          "internalType": "bytes32",
          "name": "",
          "type": "bytes32"
        }
      ],
      "stateMutability": "view",
      "type": "function",
      "constant": true
    },
    {
      "inputs": [
        {
          "internalType": "address",
          "name": "to",
          "type": "address"
        },
        {
          "internalType": "uint256",
          "name": "tokenId",
          "type": "uint256"
        }
      ],
      "name": "approve",
      "outputs": [],
      "stateMutability": "nonpayable",
      "type": "function"
    },
    {
      "inputs": [
        {
          "internalType": "address",
          "name": "owner",
          "type": "address"
        }
      ],
      "name": "balanceOf",
      "outputs": [
        {
          "internalType": "uint256",
          "name": "",
          "type": "uint256"
        }
      ],
      "stateMutability": "view",
      "type": "function",
      "constant": true
    },
    {
      "inputs": [
        {
          "internalType": "uint256",
          "name": "",
          "type": "uint256"
        }
      ],
      "name": "dealerToDeadline",
      "outputs": [
        {
          "internalType": "uint256",
          "name": "",
          "type": "uint256"
        }
      ],
      "stateMutability": "view",
      "type": "function",
      "constant": true
    },
    {
      "inputs": [
        {
          "internalType": "address",
          "name": "",
          "type": "address"
        }
      ],
      "name": "dealerToId",
      "outputs": [
        {
          "internalType": "uint256",
          "name": "",
          "type": "uint256"
        }
      ],
      "stateMutability": "view",
      "type": "function",
      "constant": true
    },
    {
      "inputs": [
        {
          "internalType": "uint256",
          "name": "",
          "type": "uint256"
        }
      ],
      "name": "dealerToPool",
      "outputs": [
        {
          "internalType": "address",
          "name": "",
          "type": "address"
        }
      ],
      "stateMutability": "view",
      "type": "function",
      "constant": true
    },
    {
      "inputs": [
        {
          "internalType": "uint256",
          "name": "",
          "type": "uint256"
        }
      ],
      "name": "dealerType",
      "outputs": [
        {
          "internalType": "uint256",
          "name": "",
          "type": "uint256"
        }
      ],
      "stateMutability": "view",
      "type": "function",
      "constant": true
    },
    {
      "inputs": [],
      "name": "factory",
      "outputs": [
        {
          "internalType": "address",
          "name": "",
          "type": "address"
        }
      ],
      "stateMutability": "view",
      "type": "function",
      "constant": true
    },
    {
      "inputs": [
        {
          "internalType": "uint256",
          "name": "tokenId",
          "type": "uint256"
        }
      ],
      "name": "getApproved",
      "outputs": [
        {
          "internalType": "address",
          "name": "",
          "type": "address"
        }
      ],
      "stateMutability": "view",
      "type": "function",
      "constant": true
    },
    {
      "inputs": [
        {
          "internalType": "address",
          "name": "owner",
          "type": "address"
        },
        {
          "internalType": "address",
          "name": "operator",
          "type": "address"
        }
      ],
      "name": "isApprovedForAll",
      "outputs": [
        {
          "internalType": "bool",
          "name": "",
          "type": "bool"
        }
      ],
      "stateMutability": "view",
      "type": "function",
      "constant": true
    },
    {
      "inputs": [],
      "name": "name",
      "outputs": [
        {
          "internalType": "string",
          "name": "",
          "type": "string"
        }
      ],
      "stateMutability": "view",
      "type": "function",
      "constant": true
    },
    {
      "inputs": [],
      "name": "owner",
      "outputs": [
        {
          "internalType": "address",
          "name": "",
          "type": "address"
        }
      ],
      "stateMutability": "view",
      "type": "function",
      "constant": true
    },
    {
      "inputs": [
        {
          "internalType": "uint256",
          "name": "tokenId",
          "type": "uint256"
        }
      ],
      "name": "ownerOf",
      "outputs": [
        {
          "internalType": "address",
          "name": "",
          "type": "address"
        }
      ],
      "stateMutability": "view",
      "type": "function",
      "constant": true
    },
    {
      "inputs": [],
      "name": "player",
      "outputs": [
        {
          "internalType": "address",
          "name": "",
          "type": "address"
        }
      ],
      "stateMutability": "view",
      "type": "function",
      "constant": true
    },
    {
      "inputs": [],
      "name": "renounceOwnership",
      "outputs": [],
      "stateMutability": "nonpayable",
      "type": "function"
    },
    {
      "inputs": [
        {
          "internalType": "address",
          "name": "from",
          "type": "address"
        },
        {
          "internalType": "address",
          "name": "to",
          "type": "address"
        },
        {
          "internalType": "uint256",
          "name": "tokenId",
          "type": "uint256"
        }
      ],
      "name": "safeTransferFrom",
      "outputs": [],
      "stateMutability": "nonpayable",
      "type": "function"
    },
    {
      "inputs": [
        {
          "internalType": "address",
          "name": "from",
          "type": "address"
        },
        {
          "internalType": "address",
          "name": "to",
          "type": "address"
        },
        {
          "internalType": "uint256",
          "name": "tokenId",
          "type": "uint256"
        },
        {
          "internalType": "bytes",
          "name": "data",
          "type": "bytes"
        }
      ],
      "name": "safeTransferFrom",
      "outputs": [],
      "stateMutability": "nonpayable",
      "type": "function"
    },
    {
      "inputs": [
        {
          "internalType": "address",
          "name": "operator",
          "type": "address"
        },
        {
          "internalType": "bool",
          "name": "approved",
          "type": "bool"
        }
      ],
      "name": "setApprovalForAll",
      "outputs": [],
      "stateMutability": "nonpayable",
      "type": "function"
    },
    {
      "inputs": [
        {
          "internalType": "bytes4",
          "name": "interfaceId",
          "type": "bytes4"
        }
      ],
      "name": "supportsInterface",
      "outputs": [
        {
          "internalType": "bool",
          "name": "",
          "type": "bool"
        }
      ],
      "stateMutability": "view",
      "type": "function",
      "constant": true
    },
    {
      "inputs": [],
      "name": "symbol",
      "outputs": [
        {
          "internalType": "string",
          "name": "",
          "type": "string"
        }
      ],
      "stateMutability": "view",
      "type": "function",
      "constant": true
    },
    {
      "inputs": [
        {
          "internalType": "uint256",
          "name": "",
          "type": "uint256"
        }
      ],
      "name": "tokenURIs",
      "outputs": [
        {
          "internalType": "string",
          "name": "",
          "type": "string"
        }
      ],
      "stateMutability": "view",
      "type": "function",
      "constant": true
    },
    {
      "inputs": [],
      "name": "total_supply",
      "outputs": [
        {
          "internalType": "uint256",
          "name": "",
          "type": "uint256"
        }
      ],
      "stateMutability": "view",
      "type": "function",
      "constant": true
    },
    {
      "inputs": [
        {
          "internalType": "address",
          "name": "from",
          "type": "address"
        },
        {
          "internalType": "address",
          "name": "to",
          "type": "address"
        },
        {
          "internalType": "uint256",
          "name": "tokenId",
          "type": "uint256"
        }
      ],
      "name": "transferFrom",
      "outputs": [],
      "stateMutability": "nonpayable",
      "type": "function"
    },
    {
      "inputs": [
        {
          "internalType": "address",
          "name": "newOwner",
          "type": "address"
        }
      ],
      "name": "transferOwnership",
      "outputs": [],
      "stateMutability": "nonpayable",
      "type": "function"
    },
    {
      "inputs": [
        {
          "internalType": "address",
          "name": "",
          "type": "address"
        }
      ],
      "name": "userToMint",
      "outputs": [
        {
          "internalType": "uint256",
          "name": "",
          "type": "uint256"
        }
      ],
      "stateMutability": "view",
      "type": "function",
      "constant": true
    },
    {
      "inputs": [
        {
          "internalType": "uint256",
          "name": "index",
          "type": "uint256"
        },
        {
          "internalType": "bytes32[]",
          "name": "merkleProof",
          "type": "bytes32[]"
        }
      ],
      "name": "mint",
      "outputs": [],
      "stateMutability": "nonpayable",
      "type": "function"
    },
    {
      "inputs": [
        {
          "internalType": "uint256",
          "name": "id",
          "type": "uint256"
        },
        {
          "internalType": "uint256",
          "name": "supply",
          "type": "uint256"
        },
        {
          "internalType": "address[]",
          "name": "users",
          "type": "address[]"
        }
      ],
      "name": "setPlayers",
      "outputs": [],
      "stateMutability": "nonpayable",
      "type": "function"
    },
    {
      "inputs": [
        {
          "internalType": "uint256",
          "name": "id",
          "type": "uint256"
        },
        {
          "internalType": "address[]",
          "name": "users",
          "type": "address[]"
        }
      ],
      "name": "addPlayers",
      "outputs": [],
      "stateMutability": "nonpayable",
      "type": "function"
    },
    {
      "inputs": [
        {
          "internalType": "uint256",
          "name": "id",
          "type": "uint256"
        }
      ],
      "name": "getDealerStatus",
      "outputs": [
        {
          "internalType": "bool",
          "name": "",
          "type": "bool"
        }
      ],
      "stateMutability": "view",
      "type": "function",
      "constant": true
    },
    {
      "inputs": [
        {
          "internalType": "uint256",
          "name": "id",
          "type": "uint256"
        },
        {
          "internalType": "address",
          "name": "pool_",
          "type": "address"
        }
      ],
      "name": "setDealerToPool",
      "outputs": [],
      "stateMutability": "nonpayable",
      "type": "function"
    },
    {
      "inputs": [
        {
          "internalType": "uint256",
          "name": "id",
          "type": "uint256"
        },
        {
          "internalType": "uint256",
          "name": "deadline",
          "type": "uint256"
        }
      ],
      "name": "setDealerToDeadline",
      "outputs": [],
      "stateMutability": "nonpayable",
      "type": "function"
    },
    {
      "inputs": [
        {
          "internalType": "uint256",
          "name": "id",
          "type": "uint256"
        },
        {
          "internalType": "uint256",
          "name": "type_",
          "type": "uint256"
        }
      ],
      "name": "setDealerType",
      "outputs": [],
      "stateMutability": "nonpayable",
      "type": "function"
    },
    {
      "inputs": [
        {
          "internalType": "address",
          "name": "player_",
          "type": "address"
        }
      ],
      "name": "setPlayer",
      "outputs": [],
      "stateMutability": "nonpayable",
      "type": "function"
    },
    {
      "inputs": [
        {
          "internalType": "address",
          "name": "factory_",
          "type": "address"
        }
      ],
      "name": "setFactory",
      "outputs": [],
      "stateMutability": "nonpayable",
      "type": "function"
    },
    {
      "inputs": [
        {
          "internalType": "bytes32",
          "name": "merkleRoot_",
          "type": "bytes32"
        }
      ],
      "name": "setMerkleRoot",
      "outputs": [],
      "stateMutability": "nonpayable",
      "type": "function"
    },
    {
      "inputs": [
        {
          "internalType": "uint256",
          "name": "tokenId",
          "type": "uint256"
        }
      ],
      "name": "tokenURI",
      "outputs": [
        {
          "internalType": "string",
          "name": "",
          "type": "string"
        }
      ],
      "stateMutability": "view",
      "type": "function",
      "constant": true
    },
    {
      "inputs": [
        {
          "internalType": "string",
          "name": "tokenURI_",
          "type": "string"
        }
      ],
      "name": "setTokenURI",
      "outputs": [],
      "stateMutability": "nonpayable",
      "type": "function"
    }
  ],
  "bytecode": "0x60806040523480156200001157600080fd5b506040516200226538038062002265833981016040819052620000349162000244565b82826200004a6200004462000097565b6200009b565b81516200005f906001906020850190620000eb565b50805162000075906002906020840190620000eb565b505081516200008d9150600b906020840190620000eb565b5050505062000324565b3390565b600080546001600160a01b038381166001600160a01b0319831681178455604051919092169283917f8be0079c531659141344cd1fd0a4f28419497f9722a3daafe3b4186f6b6457e09190a35050565b828054620000f990620002d1565b90600052602060002090601f0160209004810192826200011d576000855562000168565b82601f106200013857805160ff191683800117855562000168565b8280016001018555821562000168579182015b82811115620001685782518255916020019190600101906200014b565b50620001769291506200017a565b5090565b5b808211156200017657600081556001016200017b565b600082601f830112620001a2578081fd5b81516001600160401b0380821115620001bf57620001bf6200030e565b604051601f8301601f19908116603f01168101908282118183101715620001ea57620001ea6200030e565b8160405283815260209250868385880101111562000206578485fd5b8491505b838210156200022957858201830151818301840152908201906200020a565b838211156200023a57848385830101525b9695505050505050565b60008060006060848603121562000259578283fd5b83516001600160401b038082111562000270578485fd5b6200027e8783880162000191565b9450602086015191508082111562000294578384fd5b620002a28783880162000191565b93506040860151915080821115620002b8578283fd5b50620002c78682870162000191565b9150509250925092565b600281046001821680620002e657607f821691505b602082108114156200030857634e487b7160e01b600052602260045260246000fd5b50919050565b634e487b7160e01b600052604160045260246000fd5b611f3180620003346000396000f3fe608060405234801561001057600080fd5b50600436106101f25760003560e01c80637cb6475911610110578063ba41b0c6116100a8578063ba41b0c6146103fd578063bc8d3ac414610410578063c45a015514610423578063c87b56dd1461042b578063dee816e61461043e578063e0df5b6f14610446578063e985e9c514610459578063e9d4aae31461046c578063f2fde38b1461047f578063fa2085cf14610492576101f2565b80637cb64759146103685780638da5cb5b1461037b57806395d89b41146103835780639a31e58d1461038b578063a22cb4651461039e578063b49d53a2146103b1578063b6ae6395146103c4578063b88d4fde146103d7578063b8dd2d48146103ea576101f2565b806338d9f74f1161018e57806338d9f74f146102cb5780633940e9ee146102de57806342842e0e146102e657806348db5f89146102f95780634ad39fae146103015780635bb47808146103145780636352211e146103275780636c8b703f1461033a57806370a082311461034d578063715018a614610360576101f2565b806301ffc9a7146101f757806306fdde0314610220578063081812fc14610235578063095ea7b314610255578063142b89221461026a57806323b872dd1461027d5780632fc37ab21461029057806331df5670146102a557806336aa433d146102b8575b600080fd5b61020a6102053660046116c4565b6104a5565b604051610217919061197d565b60405180910390f35b6102286104ed565b6040516102179190611991565b6102486102433660046116ac565b61057f565b60405161021791906118db565b610268610263366004611683565b6105a6565b005b61026861027836600461181f565b610647565b61026861028b366004611596565b610692565b6102986106ca565b6040516102179190611988565b6102686102b3366004611763565b6106d0565b6102486102c63660046116ac565b610796565b6102686102d936600461181f565b6107b1565b6102986107ed565b6102686102f4366004611596565b6107f3565b61024861080e565b61029861030f36600461154a565b61081d565b61026861032236600461154a565b61082f565b6102486103353660046116ac565b610859565b6102286103483660046116ac565b61088e565b61029861035b36600461154a565b610928565b61026861096c565b6102686103763660046116ac565b610980565b61024861098d565b61022861099c565b6102986103993660046116ac565b6109ab565b6102686103ac366004611649565b6109bd565b6102686103bf366004611840565b6109d3565b6102986103d236600461154a565b610afe565b6102686103e53660046115d1565b610b10565b6102686103f8366004611741565b610b4f565b61026861040b3660046117a7565b610ba7565b61026861041e36600461154a565b610c19565b610248610c43565b6102286104393660046116ac565b610c52565b610298610ccd565b6102686104543660046116fc565b610cd2565b61020a610467366004611564565b610ce5565b61029861047a3660046116ac565b610d13565b61026861048d36600461154a565b610d25565b61020a6104a03660046116ac565b610d5f565b60006001600160e01b031982166380ac58cd60e01b14806104d657506001600160e01b03198216635b5e139f60e01b145b806104e557506104e582610d8a565b90505b919050565b6060600180546104fc90611e7e565b80601f016020809104026020016040519081016040528092919081815260200182805461052890611e7e565b80156105755780601f1061054a57610100808354040283529160200191610575565b820191906000526020600020905b81548152906001019060200180831161055857829003601f168201915b5050505050905090565b600061058a82610da3565b506000908152600560205260409020546001600160a01b031690565b60006105b182610859565b9050806001600160a01b0316836001600160a01b031614156105ee5760405162461bcd60e51b81526004016105e590611d31565b60405180910390fd5b806001600160a01b0316610600610dc8565b6001600160a01b0316148061061c575061061c81610467610dc8565b6106385760405162461bcd60e51b81526004016105e590611bbe565b6106428383610dcc565b505050565b6000828152600f602052604090205482906001600160a01b0316331461067f5760405162461bcd60e51b81526004016105e590611d72565b5060009182526010602052604090912055565b6106a361069d610dc8565b82610e3a565b6106bf5760405162461bcd60e51b81526004016105e590611d97565b610642838383610e99565b60095481565b336106da83610859565b6001600160a01b0316146107005760405162461bcd60e51b81526004016105e590611c50565b60008281526010602052604090205442101561072e5760405162461bcd60e51b81526004016105e590611b4f565b600754604051633a999a5b60e21b81526001600160a01b039091169063ea66696c90610760908490869060040161192c565b600060405180830381600087803b15801561077a57600080fd5b505af115801561078e573d6000803e3d6000fd5b505050505050565b600f602052600090815260409020546001600160a01b031681565b6008546001600160a01b031633146107db5760405162461bcd60e51b81526004016105e590611d72565b6000918252600e602052604090912055565b600a5481565b61064283838360405180602001604052806000815250610b10565b6007546001600160a01b031681565b600c6020526000908152604090205481565b610837610fcc565b600880546001600160a01b0319166001600160a01b0392909216919091179055565b6000818152600360205260408120546001600160a01b0316806104e55760405162461bcd60e51b81526004016105e590611cff565b600d60205260009081526040902080546108a790611e7e565b80601f01602080910402602001604051908101604052809291908181526020018280546108d390611e7e565b80156109205780601f106108f557610100808354040283529160200191610920565b820191906000526020600020905b81548152906001019060200180831161090357829003601f168201915b505050505081565b60006001600160a01b0382166109505760405162461bcd60e51b81526004016105e590611b75565b506001600160a01b031660009081526004602052604090205490565b610974610fcc565b61097e600061100b565b565b610988610fcc565b600955565b6000546001600160a01b031690565b6060600280546104fc90611e7e565b600e6020526000908152604090205481565b6109cf6109c8610dc8565b838361105b565b5050565b336109dd84610859565b6001600160a01b031614610a035760405162461bcd60e51b81526004016105e590611c50565b600083815260106020526040902054421015610a315760405162461bcd60e51b81526004016105e590611b4f565b6007546040516337b5c26760e11b81526001600160a01b0390911690636f6b84ce90610a639086908690600401611de5565b600060405180830381600087803b158015610a7d57600080fd5b505af1158015610a91573d6000803e3d6000fd5b5050600754604051633a999a5b60e21b81526001600160a01b03909116925063ea66696c9150610ac7908490879060040161192c565b600060405180830381600087803b158015610ae157600080fd5b505af1158015610af5573d6000803e3d6000fd5b50505050505050565b60116020526000908152604090205481565b610b21610b1b610dc8565b83610e3a565b610b3d5760405162461bcd60e51b81526004016105e590611d97565b610b49848484846110fe565b50505050565b6008546001600160a01b03163314610b795760405162461bcd60e51b81526004016105e590611d72565b6000918252600f602052604090912080546001600160a01b0319166001600160a01b03909216919091179055565b3360009081526011602052604090205415610bd45760405162461bcd60e51b81526004016105e590611ab8565b600a54610be2906001611e23565b600a819055610bf2903390611131565b5050600a54336000908152600c602090815260408083209390935560119052206001905550565b610c21610fcc565b600780546001600160a01b0319166001600160a01b0392909216919091179055565b6008546001600160a01b031681565b6060610c5d8261114b565b610c795760405162461bcd60e51b81526004016105e590611cb0565b6000610c83611168565b90506000815111610ca35760405180602001604052806000815250610cc6565b8083604051602001610cb69291906118b9565b6040516020818303038152906040525b9392505050565b606481565b80516109cf90600b9060208401906113bb565b6001600160a01b03918216600090815260066020908152604080832093909416825291909152205460ff1690565b60106020526000908152604090205481565b610d2d610fcc565b6001600160a01b038116610d535760405162461bcd60e51b81526004016105e5906119f6565b610d5c8161100b565b50565b6000818152601060205260408120544211806104e55750506000908152600e60205260409020541590565b6001600160e01b031981166301ffc9a760e01b14919050565b610dac8161114b565b610d5c5760405162461bcd60e51b81526004016105e590611cff565b3390565b600081815260056020526040902080546001600160a01b0319166001600160a01b0384169081179091558190610e0182610859565b6001600160a01b03167f8c5be1e5ebec7d5bd14f71427d1e84f3dd0314c0f7b2291e5b200ac8c7c3b92560405160405180910390a45050565b600080610e4683610859565b9050806001600160a01b0316846001600160a01b03161480610e6d5750610e6d8185610ce5565b80610e915750836001600160a01b0316610e868461057f565b6001600160a01b0316145b949350505050565b826001600160a01b0316610eac82610859565b6001600160a01b031614610ed25760405162461bcd60e51b81526004016105e590611a3c565b6001600160a01b038216610ef85760405162461bcd60e51b81526004016105e590611ad8565b610f03838383610642565b610f0e600082610dcc565b6001600160a01b0383166000908152600460205260408120805460019290610f37908490611e3b565b90915550506001600160a01b0382166000908152600460205260408120805460019290610f65908490611e23565b909155505060008181526003602052604080822080546001600160a01b0319166001600160a01b0386811691821790925591518493918716917fddf252ad1be2c89b69c2b068fc378daa952ba7f163c4a11628f55a4df523b3ef91a4610642838383610642565b610fd4610dc8565b6001600160a01b0316610fe561098d565b6001600160a01b03161461097e5760405162461bcd60e51b81526004016105e590611c7b565b600080546001600160a01b038381166001600160a01b0319831681178455604051919092169283917f8be0079c531659141344cd1fd0a4f28419497f9722a3daafe3b4186f6b6457e09190a35050565b816001600160a01b0316836001600160a01b0316141561108d5760405162461bcd60e51b81526004016105e590611b1c565b6001600160a01b0383811660008181526006602090815260408083209487168084529490915290819020805460ff1916851515179055517f17307eab39ab6107e8899845ad3d59bd9653f200f220920489ca2b5937696c31906110f190859061197d565b60405180910390a3505050565b611109848484610e99565b61111584848484611177565b610b495760405162461bcd60e51b81526004016105e5906119a4565b6109cf828260405180602001604052806000815250611292565b6000908152600360205260409020546001600160a01b0316151590565b6060600b80546104fc90611e7e565b600061118b846001600160a01b03166112c5565b1561128757836001600160a01b031663150b7a026111a7610dc8565b8786866040518563ffffffff1660e01b81526004016111c994939291906118ef565b602060405180830381600087803b1580156111e357600080fd5b505af1925050508015611213575060408051601f3d908101601f19168201909252611210918101906116e0565b60015b61126d573d808015611241576040519150601f19603f3d011682016040523d82523d6000602084013e611246565b606091505b5080516112655760405162461bcd60e51b81526004016105e5906119a4565b805181602001fd5b6001600160e01b031916630a85bd0160e11b149050610e91565b506001949350505050565b61129c83836112d4565b6112a96000848484611177565b6106425760405162461bcd60e51b81526004016105e5906119a4565b6001600160a01b03163b151590565b6001600160a01b0382166112fa5760405162461bcd60e51b81526004016105e590611c1b565b6113038161114b565b156113205760405162461bcd60e51b81526004016105e590611a81565b61132c60008383610642565b6001600160a01b0382166000908152600460205260408120805460019290611355908490611e23565b909155505060008181526003602052604080822080546001600160a01b0319166001600160a01b03861690811790915590518392907fddf252ad1be2c89b69c2b068fc378daa952ba7f163c4a11628f55a4df523b3ef908290a46109cf60008383610642565b8280546113c790611e7e565b90600052602060002090601f0160209004810192826113e9576000855561142f565b82601f1061140257805160ff191683800117855561142f565b8280016001018555821561142f579182015b8281111561142f578251825591602001919060010190611414565b5061143b92915061143f565b5090565b5b8082111561143b5760008155600101611440565b60006001600160401b0383111561146d5761146d611ecf565b611480601f8401601f1916602001611df3565b905082815283838301111561149457600080fd5b828260208301376000602084830101529392505050565b80356001600160a01b03811681146104e857600080fd5b600082601f8301126114d2578081fd5b813560206001600160401b038211156114ed576114ed611ecf565b8082026114fb828201611df3565b838152828101908684018388018501891015611515578687fd5b8693505b8584101561153e5761152a816114ab565b835260019390930192918401918401611519565b50979650505050505050565b60006020828403121561155b578081fd5b610cc6826114ab565b60008060408385031215611576578081fd5b61157f836114ab565b915061158d602084016114ab565b90509250929050565b6000806000606084860312156115aa578081fd5b6115b3846114ab565b92506115c1602085016114ab565b9150604084013590509250925092565b600080600080608085870312156115e6578081fd5b6115ef856114ab565b93506115fd602086016114ab565b92506040850135915060608501356001600160401b0381111561161e578182fd5b8501601f8101871361162e578182fd5b61163d87823560208401611454565b91505092959194509250565b6000806040838503121561165b578182fd5b611664836114ab565b915060208301358015158114611678578182fd5b809150509250929050565b60008060408385031215611695578182fd5b61169e836114ab565b946020939093013593505050565b6000602082840312156116bd578081fd5b5035919050565b6000602082840312156116d5578081fd5b8135610cc681611ee5565b6000602082840312156116f1578081fd5b8151610cc681611ee5565b60006020828403121561170d578081fd5b81356001600160401b03811115611722578182fd5b8201601f81018413611732578182fd5b610e9184823560208401611454565b60008060408385031215611753578081fd5b8235915061158d602084016114ab565b60008060408385031215611775578182fd5b8235915060208301356001600160401b03811115611791578182fd5b61179d858286016114c2565b9150509250929050565b6000806000604084860312156117bb578081fd5b8335925060208401356001600160401b03808211156117d8578283fd5b818601915086601f8301126117eb578283fd5b8135818111156117f9578384fd5b876020808302850101111561180c578384fd5b6020830194508093505050509250925092565b60008060408385031215611831578182fd5b50508035926020909101359150565b600080600060608486031215611854578081fd5b833592506020840135915060408401356001600160401b03811115611877578182fd5b611883868287016114c2565b9150509250925092565b600081518084526118a5816020860160208601611e52565b601f01601f19169290920160200192915050565b600083516118cb818460208801611e52565b9190910191825250602001919050565b6001600160a01b0391909116815260200190565b6001600160a01b03858116825284166020820152604081018390526080606082018190526000906119229083018461188d565b9695505050505050565b604080825283519082018190526000906020906060840190828701845b8281101561196e5781516001600160a01b031684529284019290840190600101611949565b50505092019290925292915050565b901515815260200190565b90815260200190565b600060208252610cc6602083018461188d565b60208082526032908201527f4552433732313a207472616e7366657220746f206e6f6e20455243373231526560408201527131b2b4bb32b91034b6b83632b6b2b73a32b960711b606082015260800190565b60208082526026908201527f4f776e61626c653a206e6577206f776e657220697320746865207a65726f206160408201526564647265737360d01b606082015260800190565b60208082526025908201527f4552433732313a207472616e736665722066726f6d20696e636f72726563742060408201526437bbb732b960d91b606082015260800190565b6020808252601c908201527f4552433732313a20746f6b656e20616c7265616479206d696e74656400000000604082015260600190565b60208082526006908201526514995c19585d60d21b604082015260600190565b60208082526024908201527f4552433732313a207472616e7366657220746f20746865207a65726f206164646040820152637265737360e01b606082015260800190565b60208082526019908201527822a9219b99189d1030b8383937bb32903a379031b0b63632b960391b604082015260600190565b6020808252600c908201526b6e6674206973207573696e6760a01b604082015260600190565b60208082526029908201527f4552433732313a2061646472657373207a65726f206973206e6f7420612076616040820152683634b21037bbb732b960b91b606082015260800190565b6020808252603e908201527f4552433732313a20617070726f76652063616c6c6572206973206e6f7420746f60408201527f6b656e206f776e6572206e6f7220617070726f76656420666f7220616c6c0000606082015260800190565b6020808252818101527f4552433732313a206d696e7420746f20746865207a65726f2061646472657373604082015260600190565b6020808252601190820152706e6674206f776e6572206e6f7420796f7560781b604082015260600190565b6020808252818101527f4f776e61626c653a2063616c6c6572206973206e6f7420746865206f776e6572604082015260600190565b6020808252602f908201527f4552433732314d657461646174613a2055524920717565727920666f72206e6f60408201526e3732bc34b9ba32b73a103a37b5b2b760891b606082015260800190565b602080825260189082015277115490cdcc8c4e881a5b9d985b1a59081d1bdad95b88125160421b604082015260600190565b60208082526021908201527f4552433732313a20617070726f76616c20746f2063757272656e74206f776e656040820152603960f91b606082015260800190565b6020808252600b908201526a6e6f7420666163746f727960a81b604082015260600190565b6020808252602e908201527f4552433732313a2063616c6c6572206973206e6f7420746f6b656e206f776e6560408201526d1c881b9bdc88185c1c1c9bdd995960921b606082015260800190565b918252602082015260400190565b604051601f8201601f191681016001600160401b0381118282101715611e1b57611e1b611ecf565b604052919050565b60008219821115611e3657611e36611eb9565b500190565b600082821015611e4d57611e4d611eb9565b500390565b60005b83811015611e6d578181015183820152602001611e55565b83811115610b495750506000910152565b600281046001821680611e9257607f821691505b60208210811415611eb357634e487b7160e01b600052602260045260246000fd5b50919050565b634e487b7160e01b600052601160045260246000fd5b634e487b7160e01b600052604160045260246000fd5b6001600160e01b031981168114610d5c57600080fdfea264697066735822122093f1696f6979d3e5b64b83803502648b9c098bfffbcc2fedd3a7d46426abe3a564736f6c63430008010033",
  "immutableReferences": {},
  "source": "// SPDX-License-Identifier: MIT\npragma solidity >=0.4.22 <0.9.0;\n\nimport \"./Player.sol\";\nimport \"@openzeppelin/contracts/utils/cryptography/MerkleProof.sol\";\nimport \"@openzeppelin/contracts/access/Ownable.sol\";\nimport \"@openzeppelin/contracts/token/ERC721/ERC721.sol\";\n/**\n    Dealer\n    \n        Player\n        factory\n        \n\n    mint nft\n        mint----userToMint0mint, 1mint\n    \n    \n        nft----dealerToDeadlinedealerToDeadline[id] <= block.timestamp\n        playerid,id\n        mintplayer nft\n */\ncontract Dealer is Ownable, ERC721{\n\n    using Strings for uint256;\n\n    uint256 public constant TOTAL_MAX_QTY = 100;\n    \n    address public player;\n    address public factory;\n    bytes32 public _merkleRoot;\n    uint256 public total_supply;\n    string private _tokenURI;\n\n    //mint0mint\n    mapping(address => uint256) public dealerToId;\n    mapping(uint256 => string) public tokenURIs;\n    //dealer0\n    mapping(uint256 => uint256) public dealerType;\n    //dealer\n    mapping(uint256 => address) public dealerToPool;\n    //dealer\n    mapping(uint256 => uint256) public dealerToDeadline;\n    //mint0mint\n    mapping(address => uint256) public userToMint;\n\n    constructor(\n        string memory name,\n        string memory symbol,\n        string memory tokenURI_\n    ) ERC721(name, symbol) {\n        _tokenURI = tokenURI_;\n    }\n\n    //mint\n    function mint(uint256 index, bytes32[] calldata merkleProof) external {\n        // bytes32 node = keccak256(abi.encodePacked(index, msg.sender));\n        // require(MerkleProof.verify(merkleProof, _merkleRoot, node), 'MerkleDistributor: Invalid proof.');\n        require(userToMint[msg.sender] == 0, 'Repeat');\n        total_supply = total_supply + 1;\n        _safeMint(msg.sender, total_supply);\n        dealerToId[msg.sender] = total_supply;\n        userToMint[msg.sender] = 1;\n    }\n\n    //\n    function setPlayers(uint256 id, uint256 supply, address[] memory users) external {\n        require(ownerOf(id) == msg.sender, \"nft owner not you\");\n        require(dealerToDeadline[id] <= block.timestamp, \"nft is using\");\n        Player(player).createID(id, supply);\n        Player(player).mint(users, id);\n    }\n\n    //\n    function addPlayers(uint256 id, address[] memory users) external {\n        require(ownerOf(id) == msg.sender, \"nft owner not you\");\n        require(dealerToDeadline[id] <= block.timestamp, \"nft is using\");\n        Player(player).mint(users, id);\n    }\n\n    function getDealerStatus(uint256 id) view external returns(bool) {\n        return block.timestamp > dealerToDeadline[id] || dealerType[id] == 0;\n    }\n\n    function setDealerToPool(uint256 id, address pool_) external onlyFactory {\n        dealerToPool[id] = pool_;\n    }\n\n    function setDealerToDeadline(uint256 id, uint256 deadline) external onlyPool(id) {\n        dealerToDeadline[id] = deadline;\n    }\n\n    function setDealerType(uint256 id, uint256 type_) external onlyFactory {\n        dealerType[id] = type_;\n    }\n\n    function setPlayer(address player_) external onlyOwner {\n        player = player_;\n    }\n\n    function setFactory(address factory_) external onlyOwner {\n        factory = factory_;\n    }\n\n    function setMerkleRoot(bytes32 merkleRoot_) external onlyOwner {\n        _merkleRoot = merkleRoot_;\n    }\n\n    function tokenURI(uint256 tokenId) public view virtual override returns (string memory) {\n        require(_exists(tokenId), \"ERC721Metadata: URI query for nonexistent token\");\n        string memory baseURI = _baseURI();\n        return bytes(baseURI).length > 0 ? string(abi.encodePacked(baseURI, tokenId)) : \"\";\n    }\n\n    function setTokenURI(string memory tokenURI_) external {\n        _tokenURI = tokenURI_;\n    }\n\n    function _baseURI() internal view virtual override returns (string memory) {\n        return _tokenURI;\n    }\n\n    modifier onlyFactory {\n        require(msg.sender == factory, \"not factory\");\n        _;\n    }\n\n    modifier onlyPool(uint256 id) {\n        require(msg.sender == dealerToPool[id], \"not factory\");\n        _;\n    }\n}",
  "sourcePath": "/Users/pengyun/Desktop/code/qilin-pvp-v2/contracts/proof/Dealer.sol",
  "compiler": {
    "name": "solc",
    "version": "0.8.1+commit.df193b15.Emscripten.clang"
  },
  "schemaVersion": "3.3.3",
  "updatedAt": "2023-05-18T05:56:30.221Z",
  "networkType": "ethereum",
  "devdoc": {
    "kind": "dev",
    "methods": {
      "approve(address,uint256)": {
        "details": "See {IERC721-approve}."
      },
      "balanceOf(address)": {
        "details": "See {IERC721-balanceOf}."
      },
      "getApproved(uint256)": {
        "details": "See {IERC721-getApproved}."
      },
      "isApprovedForAll(address,address)": {
        "details": "See {IERC721-isApprovedForAll}."
      },
      "name()": {
        "details": "See {IERC721Metadata-name}."
      },
      "owner()": {
        "details": "Returns the address of the current owner."
      },
      "ownerOf(uint256)": {
        "details": "See {IERC721-ownerOf}."
      },
      "renounceOwnership()": {
        "details": "Leaves the contract without owner. It will not be possible to call `onlyOwner` functions anymore. Can only be called by the current owner. NOTE: Renouncing ownership will leave the contract without an owner, thereby removing any functionality that is only available to the owner."
      },
      "safeTransferFrom(address,address,uint256)": {
        "details": "See {IERC721-safeTransferFrom}."
      },
      "safeTransferFrom(address,address,uint256,bytes)": {
        "details": "See {IERC721-safeTransferFrom}."
      },
      "setApprovalForAll(address,bool)": {
        "details": "See {IERC721-setApprovalForAll}."
      },
      "supportsInterface(bytes4)": {
        "details": "See {IERC165-supportsInterface}."
      },
      "symbol()": {
        "details": "See {IERC721Metadata-symbol}."
      },
      "tokenURI(uint256)": {
        "details": "See {IERC721Metadata-tokenURI}."
      },
      "transferFrom(address,address,uint256)": {
        "details": "See {IERC721-transferFrom}."
      },
      "transferOwnership(address)": {
        "details": "Transfers ownership of the contract to a new account (`newOwner`). Can only be called by the current owner."
      }
    },
    "version": 1
  },
  "userdoc": {
    "kind": "user",
    "methods": {},
    "notice": "Dealer  Player factory  mint nft mint----userToMint0mint, 1mint  nft----dealerToDeadlinedealerToDeadline[id] <= block.timestamp playerid,id mintplayer nft",
    "version": 1
  }
}