{
  "_format": "hh-sol-artifact-1",
  "contractName": "Dealer",
  "sourceName": "contracts/proof/Dealer.sol",
  "abi": [
    {
      "inputs": [
        {
          "internalType": "string",
          "name": "name",
          "type": "string"
        },
        {
          "internalType": "string",
          "name": "symbol",
          "type": "string"
        },
        {
          "internalType": "string",
          "name": "tokenURI_",
          "type": "string"
        },
        {
          "internalType": "uint256",
          "name": "marginRatio_",
          "type": "uint256"
        },
        {
          "internalType": "uint256",
          "name": "protocolFee_",
          "type": "uint256"
        },
        {
          "internalType": "uint256",
          "name": "liqProtocolFee_",
          "type": "uint256"
        },
        {
          "internalType": "address",
          "name": "priceAddress_",
          "type": "address"
        },
        {
          "internalType": "address",
          "name": "protocolReceipt_",
          "type": "address"
        }
      ],
      "stateMutability": "nonpayable",
      "type": "constructor"
    },
    {
      "anonymous": false,
      "inputs": [
        {
          "indexed": true,
          "internalType": "address",
          "name": "owner",
          "type": "address"
        },
        {
          "indexed": true,
          "internalType": "address",
          "name": "approved",
          "type": "address"
        },
        {
          "indexed": true,
          "internalType": "uint256",
          "name": "tokenId",
          "type": "uint256"
        }
      ],
      "name": "Approval",
      "type": "event"
    },
    {
      "anonymous": false,
      "inputs": [
        {
          "indexed": true,
          "internalType": "address",
          "name": "owner",
          "type": "address"
        },
        {
          "indexed": true,
          "internalType": "address",
          "name": "operator",
          "type": "address"
        },
        {
          "indexed": false,
          "internalType": "bool",
          "name": "approved",
          "type": "bool"
        }
      ],
      "name": "ApprovalForAll",
      "type": "event"
    },
    {
      "anonymous": false,
      "inputs": [
        {
          "indexed": false,
          "internalType": "address",
          "name": "pool",
          "type": "address"
        },
        {
          "indexed": false,
          "internalType": "address",
          "name": "payToken",
          "type": "address"
        },
        {
          "indexed": false,
          "internalType": "address",
          "name": "targetToken",
          "type": "address"
        },
        {
          "indexed": false,
          "internalType": "address",
          "name": "oracle",
          "type": "address"
        },
        {
          "indexed": false,
          "internalType": "uint256",
          "name": "id",
          "type": "uint256"
        },
        {
          "indexed": false,
          "internalType": "uint8",
          "name": "typ",
          "type": "uint8"
        }
      ],
      "name": "CreatePool",
      "type": "event"
    },
    {
      "anonymous": false,
      "inputs": [
        {
          "indexed": false,
          "internalType": "uint256",
          "name": "id",
          "type": "uint256"
        },
        {
          "indexed": false,
          "internalType": "uint256",
          "name": "index",
          "type": "uint256"
        },
        {
          "indexed": false,
          "internalType": "address",
          "name": "pool",
          "type": "address"
        }
      ],
      "name": "DealerOracle",
      "type": "event"
    },
    {
      "anonymous": false,
      "inputs": [
        {
          "indexed": false,
          "internalType": "uint256",
          "name": "id",
          "type": "uint256"
        },
        {
          "indexed": false,
          "internalType": "address",
          "name": "user",
          "type": "address"
        }
      ],
      "name": "Mint",
      "type": "event"
    },
    {
      "anonymous": false,
      "inputs": [
        {
          "indexed": true,
          "internalType": "address",
          "name": "previousOwner",
          "type": "address"
        },
        {
          "indexed": true,
          "internalType": "address",
          "name": "newOwner",
          "type": "address"
        }
      ],
      "name": "OwnershipTransferred",
      "type": "event"
    },
    {
      "anonymous": false,
      "inputs": [
        {
          "indexed": false,
          "internalType": "uint256",
          "name": "liqProtocolFee",
          "type": "uint256"
        }
      ],
      "name": "SetLiqProtocolFee",
      "type": "event"
    },
    {
      "anonymous": false,
      "inputs": [
        {
          "indexed": false,
          "internalType": "uint256",
          "name": "marginRatio",
          "type": "uint256"
        }
      ],
      "name": "SetMarginRatio",
      "type": "event"
    },
    {
      "anonymous": false,
      "inputs": [
        {
          "indexed": false,
          "internalType": "address",
          "name": "priceAddress",
          "type": "address"
        }
      ],
      "name": "SetPriceAddress",
      "type": "event"
    },
    {
      "anonymous": false,
      "inputs": [
        {
          "indexed": false,
          "internalType": "uint256",
          "name": "protocolFee",
          "type": "uint256"
        }
      ],
      "name": "SetProtocolFee",
      "type": "event"
    },
    {
      "anonymous": false,
      "inputs": [
        {
          "indexed": false,
          "internalType": "address",
          "name": "protocolReceipt",
          "type": "address"
        }
      ],
      "name": "SetProtocolReceipt",
      "type": "event"
    },
    {
      "anonymous": false,
      "inputs": [
        {
          "indexed": true,
          "internalType": "address",
          "name": "from",
          "type": "address"
        },
        {
          "indexed": true,
          "internalType": "address",
          "name": "to",
          "type": "address"
        },
        {
          "indexed": true,
          "internalType": "uint256",
          "name": "tokenId",
          "type": "uint256"
        }
      ],
      "name": "Transfer",
      "type": "event"
    },
    {
      "inputs": [],
      "name": "TOTAL_MAX_QTY",
      "outputs": [
        {
          "internalType": "uint256",
          "name": "",
          "type": "uint256"
        }
      ],
      "stateMutability": "view",
      "type": "function"
    },
    {
      "inputs": [],
      "name": "WHITELIST_QTY",
      "outputs": [
        {
          "internalType": "uint256",
          "name": "",
          "type": "uint256"
        }
      ],
      "stateMutability": "view",
      "type": "function"
    },
    {
      "inputs": [],
      "name": "_merkleRoot",
      "outputs": [
        {
          "internalType": "bytes32",
          "name": "",
          "type": "bytes32"
        }
      ],
      "stateMutability": "view",
      "type": "function"
    },
    {
      "inputs": [
        {
          "internalType": "uint256",
          "name": "id",
          "type": "uint256"
        },
        {
          "internalType": "address[]",
          "name": "users",
          "type": "address[]"
        }
      ],
      "name": "addPlayers",
      "outputs": [],
      "stateMutability": "nonpayable",
      "type": "function"
    },
    {
      "inputs": [
        {
          "internalType": "address",
          "name": "to",
          "type": "address"
        },
        {
          "internalType": "uint256",
          "name": "tokenId",
          "type": "uint256"
        }
      ],
      "name": "approve",
      "outputs": [],
      "stateMutability": "nonpayable",
      "type": "function"
    },
    {
      "inputs": [
        {
          "internalType": "address",
          "name": "owner",
          "type": "address"
        }
      ],
      "name": "balanceOf",
      "outputs": [
        {
          "internalType": "uint256",
          "name": "",
          "type": "uint256"
        }
      ],
      "stateMutability": "view",
      "type": "function"
    },
    {
      "inputs": [
        {
          "internalType": "uint256",
          "name": "id",
          "type": "uint256"
        },
        {
          "internalType": "address",
          "name": "payToken",
          "type": "address"
        },
        {
          "internalType": "address",
          "name": "targetToken",
          "type": "address"
        },
        {
          "internalType": "address",
          "name": "oracle",
          "type": "address"
        },
        {
          "internalType": "bool",
          "name": "reverse",
          "type": "bool"
        },
        {
          "internalType": "uint8",
          "name": "typ",
          "type": "uint8"
        },
        {
          "internalType": "int256",
          "name": "supply",
          "type": "int256"
        },
        {
          "internalType": "address[]",
          "name": "users",
          "type": "address[]"
        }
      ],
      "name": "createPool",
      "outputs": [],
      "stateMutability": "nonpayable",
      "type": "function"
    },
    {
      "inputs": [
        {
          "internalType": "uint256",
          "name": "",
          "type": "uint256"
        }
      ],
      "name": "dealerToPlayer",
      "outputs": [
        {
          "internalType": "uint256",
          "name": "",
          "type": "uint256"
        }
      ],
      "stateMutability": "view",
      "type": "function"
    },
    {
      "inputs": [
        {
          "internalType": "uint256",
          "name": "",
          "type": "uint256"
        }
      ],
      "name": "dealerToStatus",
      "outputs": [
        {
          "internalType": "uint256",
          "name": "",
          "type": "uint256"
        }
      ],
      "stateMutability": "view",
      "type": "function"
    },
    {
      "inputs": [
        {
          "internalType": "uint256",
          "name": "tokenId",
          "type": "uint256"
        }
      ],
      "name": "getApproved",
      "outputs": [
        {
          "internalType": "address",
          "name": "",
          "type": "address"
        }
      ],
      "stateMutability": "view",
      "type": "function"
    },
    {
      "inputs": [
        {
          "internalType": "uint256",
          "name": "id",
          "type": "uint256"
        },
        {
          "internalType": "address",
          "name": "poolAddress",
          "type": "address"
        },
        {
          "internalType": "int256",
          "name": "supply",
          "type": "int256"
        },
        {
          "internalType": "address[]",
          "name": "users",
          "type": "address[]"
        }
      ],
      "name": "initPlayer",
      "outputs": [],
      "stateMutability": "nonpayable",
      "type": "function"
    },
    {
      "inputs": [
        {
          "internalType": "address",
          "name": "owner",
          "type": "address"
        },
        {
          "internalType": "address",
          "name": "operator",
          "type": "address"
        }
      ],
      "name": "isApprovedForAll",
      "outputs": [
        {
          "internalType": "bool",
          "name": "",
          "type": "bool"
        }
      ],
      "stateMutability": "view",
      "type": "function"
    },
    {
      "inputs": [],
      "name": "liqProtocolFee",
      "outputs": [
        {
          "internalType": "uint256",
          "name": "",
          "type": "uint256"
        }
      ],
      "stateMutability": "view",
      "type": "function"
    },
    {
      "inputs": [],
      "name": "marginRatio",
      "outputs": [
        {
          "internalType": "uint256",
          "name": "",
          "type": "uint256"
        }
      ],
      "stateMutability": "view",
      "type": "function"
    },
    {
      "inputs": [
        {
          "internalType": "uint256",
          "name": "index",
          "type": "uint256"
        },
        {
          "internalType": "bytes32[]",
          "name": "merkleProof",
          "type": "bytes32[]"
        }
      ],
      "name": "mint",
      "outputs": [],
      "stateMutability": "nonpayable",
      "type": "function"
    },
    {
      "inputs": [],
      "name": "name",
      "outputs": [
        {
          "internalType": "string",
          "name": "",
          "type": "string"
        }
      ],
      "stateMutability": "view",
      "type": "function"
    },
    {
      "inputs": [],
      "name": "owner",
      "outputs": [
        {
          "internalType": "address",
          "name": "",
          "type": "address"
        }
      ],
      "stateMutability": "view",
      "type": "function"
    },
    {
      "inputs": [
        {
          "internalType": "uint256",
          "name": "tokenId",
          "type": "uint256"
        }
      ],
      "name": "ownerOf",
      "outputs": [
        {
          "internalType": "address",
          "name": "",
          "type": "address"
        }
      ],
      "stateMutability": "view",
      "type": "function"
    },
    {
      "inputs": [],
      "name": "player",
      "outputs": [
        {
          "internalType": "address",
          "name": "",
          "type": "address"
        }
      ],
      "stateMutability": "view",
      "type": "function"
    },
    {
      "inputs": [
        {
          "internalType": "address",
          "name": "",
          "type": "address"
        }
      ],
      "name": "pools",
      "outputs": [
        {
          "internalType": "bool",
          "name": "",
          "type": "bool"
        }
      ],
      "stateMutability": "view",
      "type": "function"
    },
    {
      "inputs": [],
      "name": "priceAddress",
      "outputs": [
        {
          "internalType": "address",
          "name": "",
          "type": "address"
        }
      ],
      "stateMutability": "view",
      "type": "function"
    },
    {
      "inputs": [],
      "name": "protocolFee",
      "outputs": [
        {
          "internalType": "uint256",
          "name": "",
          "type": "uint256"
        }
      ],
      "stateMutability": "view",
      "type": "function"
    },
    {
      "inputs": [],
      "name": "protocolReceipt",
      "outputs": [
        {
          "internalType": "address",
          "name": "",
          "type": "address"
        }
      ],
      "stateMutability": "view",
      "type": "function"
    },
    {
      "inputs": [],
      "name": "renounceOwnership",
      "outputs": [],
      "stateMutability": "nonpayable",
      "type": "function"
    },
    {
      "inputs": [
        {
          "internalType": "address",
          "name": "from",
          "type": "address"
        },
        {
          "internalType": "address",
          "name": "to",
          "type": "address"
        },
        {
          "internalType": "uint256",
          "name": "tokenId",
          "type": "uint256"
        }
      ],
      "name": "safeTransferFrom",
      "outputs": [],
      "stateMutability": "nonpayable",
      "type": "function"
    },
    {
      "inputs": [
        {
          "internalType": "address",
          "name": "from",
          "type": "address"
        },
        {
          "internalType": "address",
          "name": "to",
          "type": "address"
        },
        {
          "internalType": "uint256",
          "name": "tokenId",
          "type": "uint256"
        },
        {
          "internalType": "bytes",
          "name": "data",
          "type": "bytes"
        }
      ],
      "name": "safeTransferFrom",
      "outputs": [],
      "stateMutability": "nonpayable",
      "type": "function"
    },
    {
      "inputs": [
        {
          "internalType": "address",
          "name": "operator",
          "type": "address"
        },
        {
          "internalType": "bool",
          "name": "approved",
          "type": "bool"
        }
      ],
      "name": "setApprovalForAll",
      "outputs": [],
      "stateMutability": "nonpayable",
      "type": "function"
    },
    {
      "inputs": [
        {
          "internalType": "uint256",
          "name": "id",
          "type": "uint256"
        },
        {
          "internalType": "uint256",
          "name": "status_",
          "type": "uint256"
        }
      ],
      "name": "setDealerToStatus",
      "outputs": [],
      "stateMutability": "nonpayable",
      "type": "function"
    },
    {
      "inputs": [
        {
          "internalType": "bytes32",
          "name": "merkleRoot_",
          "type": "bytes32"
        }
      ],
      "name": "setMerkleRoot",
      "outputs": [],
      "stateMutability": "nonpayable",
      "type": "function"
    },
    {
      "inputs": [
        {
          "internalType": "address",
          "name": "player_",
          "type": "address"
        }
      ],
      "name": "setPlayer",
      "outputs": [],
      "stateMutability": "nonpayable",
      "type": "function"
    },
    {
      "inputs": [
        {
          "internalType": "string",
          "name": "tokenURI_",
          "type": "string"
        }
      ],
      "name": "setTokenURI",
      "outputs": [],
      "stateMutability": "nonpayable",
      "type": "function"
    },
    {
      "inputs": [
        {
          "internalType": "bytes4",
          "name": "interfaceId",
          "type": "bytes4"
        }
      ],
      "name": "supportsInterface",
      "outputs": [
        {
          "internalType": "bool",
          "name": "",
          "type": "bool"
        }
      ],
      "stateMutability": "view",
      "type": "function"
    },
    {
      "inputs": [],
      "name": "symbol",
      "outputs": [
        {
          "internalType": "string",
          "name": "",
          "type": "string"
        }
      ],
      "stateMutability": "view",
      "type": "function"
    },
    {
      "inputs": [
        {
          "internalType": "uint256",
          "name": "tokenId",
          "type": "uint256"
        }
      ],
      "name": "tokenURI",
      "outputs": [
        {
          "internalType": "string",
          "name": "",
          "type": "string"
        }
      ],
      "stateMutability": "view",
      "type": "function"
    },
    {
      "inputs": [],
      "name": "total_supply",
      "outputs": [
        {
          "internalType": "uint256",
          "name": "",
          "type": "uint256"
        }
      ],
      "stateMutability": "view",
      "type": "function"
    },
    {
      "inputs": [
        {
          "internalType": "address",
          "name": "from",
          "type": "address"
        },
        {
          "internalType": "address",
          "name": "to",
          "type": "address"
        },
        {
          "internalType": "uint256",
          "name": "tokenId",
          "type": "uint256"
        }
      ],
      "name": "transferFrom",
      "outputs": [],
      "stateMutability": "nonpayable",
      "type": "function"
    },
    {
      "inputs": [
        {
          "internalType": "address",
          "name": "newOwner",
          "type": "address"
        }
      ],
      "name": "transferOwnership",
      "outputs": [],
      "stateMutability": "nonpayable",
      "type": "function"
    },
    {
      "inputs": [
        {
          "internalType": "address",
          "name": "",
          "type": "address"
        }
      ],
      "name": "userToDealer",
      "outputs": [
        {
          "internalType": "uint256",
          "name": "",
          "type": "uint256"
        }
      ],
      "stateMutability": "view",
      "type": "function"
    },
    {
      "inputs": [
        {
          "internalType": "address",
          "name": "",
          "type": "address"
        }
      ],
      "name": "userToMint",
      "outputs": [
        {
          "internalType": "uint256",
          "name": "",
          "type": "uint256"
        }
      ],
      "stateMutability": "view",
      "type": "function"
    }
  ],
  "bytecode": "0x60806040523480156200001157600080fd5b50604051620060bf380380620060bf8339810160408190526200003491620003c3565b87876200004a62000044620001f9565b620001fd565b81516200005f9060019060208501906200024d565b508051620000759060029060208401906200024d565b505086516200008d915060109060208901906200024d565b50600785905560088490556009839055600a80546001600160a01b038085166001600160a01b031992831617909255600b8054928416929091169190911790556040517f60e314eb1dcc14680ab3be0aaa5b70ea0d3828f11e6bcb38305fea8bbf2d49cc90620000ff908790620004a7565b60405180910390a17fdc0410a296e1e33943a772020d333d5f99319d7fcad932a484c53889f7aaa2b184604051620001389190620004a7565b60405180910390a17ffec3e2cce26c0fccf827d7f8d326ecb9f37ad07b47912dc290d75e165e8e61ae83604051620001719190620004a7565b60405180910390a17fbe0f8c41260e53f3d847406e8870c8588bfe623a76be606cd46ae47e58d466a982604051620001aa919062000493565b60405180910390a17fbc1e06e494fbfeb91b3fd39ead6160a6246fef341f5352a61918c05bf42cf98e81604051620001e3919062000493565b60405180910390a1505050505050505062000503565b3390565b600080546001600160a01b038381166001600160a01b0319831681178455604051919092169283917f8be0079c531659141344cd1fd0a4f28419497f9722a3daafe3b4186f6b6457e09190a35050565b8280546200025b90620004b0565b90600052602060002090601f0160209004810192826200027f5760008555620002ca565b82601f106200029a57805160ff1916838001178555620002ca565b82800160010185558215620002ca579182015b82811115620002ca578251825591602001919060010190620002ad565b50620002d8929150620002dc565b5090565b5b80821115620002d85760008155600101620002dd565b80516001600160a01b03811681146200030b57600080fd5b919050565b600082601f83011262000321578081fd5b81516001600160401b03808211156200033e576200033e620004ed565b604051601f8301601f19908116603f01168101908282118183101715620003695762000369620004ed565b8160405283815260209250868385880101111562000385578485fd5b8491505b83821015620003a8578582018301518183018401529082019062000389565b83821115620003b957848385830101525b9695505050505050565b600080600080600080600080610100898b031215620003e0578384fd5b88516001600160401b0380821115620003f7578586fd5b620004058c838d0162000310565b995060208b01519150808211156200041b578586fd5b620004298c838d0162000310565b985060408b01519150808211156200043f578586fd5b506200044e8b828c0162000310565b965050606089015194506080890151935060a089015192506200047460c08a01620002f3565b91506200048460e08a01620002f3565b90509295985092959890939650565b6001600160a01b0391909116815260200190565b90815260200190565b600281046001821680620004c557607f821691505b60208210811415620004e757634e487b7160e01b600052602260045260246000fd5b50919050565b634e487b7160e01b600052604160045260246000fd5b615bac80620005136000396000f3fe60806040523480156200001157600080fd5b5060043610620002625760003560e01c806395d89b411162000159578063c5bf51e211620000c9578063e0df5b6f1162000087578063e0df5b6f1462000513578063e495f326146200052a578063e985e9c51462000541578063eb80c7831462000558578063f2fde38b14620005625762000262565b8063c5bf51e214620004ad578063c87b56dd14620004c4578063d12e053a14620004db578063db2dd32014620004f2578063dee816e614620005095762000262565b8063b28a0a7f1162000117578063b28a0a7f146200043a578063b6ae63951462000451578063b88d4fde1462000468578063ba41b0c6146200047f578063bc8d3ac414620004965762000262565b806395d89b4114620003ee578063a22cb46514620003f8578063a4063dbc146200040f578063ac02c0bd1462000426578063b0e21e8a14620004305762000262565b80633a267ea311620001f557806370a0823111620001b357806370a0823114620003a2578063715018a614620003b95780637cb6475914620003c35780638da5cb5b14620003da57806390666ff914620003e45762000262565b80633a267ea3146200034957806342842e0e146200035357806348db5f89146200036a57806362538f0f14620003745780636352211e146200038b5762000262565b806301ffc9a7146200026757806306fdde031462000296578063081812fc14620002af578063095ea7b314620002d557806323b872dd14620002ee5780632d31c16e14620003055780632fc37ab2146200031e57806331df567014620003285780633940e9ee146200033f575b600080fd5b6200027e6200027836600462001b9f565b62000579565b6040516200028d919062001f88565b60405180910390f35b620002a0620005c5565b6040516200028d919062001f9c565b620002c6620002c036600462001b86565b6200065f565b6040516200028d919062001ea6565b620002ec620002e636600462001b5a565b62000688565b005b620002ec620002ff36600462001a6b565b62000739565b6200030f6200077a565b6040516200028d919062001f93565b6200030f62000780565b620002ec6200033936600462001d4d565b62000786565b6200030f6200085a565b620002c662000860565b620002ec6200036436600462001a6b565b6200086f565b620002c66200088c565b620002ec6200038536600462001e12565b6200089b565b620002c66200039c36600462001b86565b62000943565b6200030f620003b336600462001a17565b6200097c565b620002ec620009c3565b620002ec620003d436600462001b86565b620009db565b620002c6620009ea565b620002c6620009f9565b620002a062000a08565b620002ec6200040936600462001b2c565b62000a19565b6200027e6200042036600462001a17565b62000a33565b6200030f62000a48565b6200030f62000a4e565b6200030f6200044b36600462001b86565b62000a54565b6200030f6200046236600462001a17565b62000a66565b620002ec6200047936600462001aab565b62000a78565b620002ec6200049036600462001d95565b62000ac0565b620002ec620004a736600462001a17565b62000c12565b6200030f620004be36600462001b86565b62000c3e565b620002a0620004d536600462001b86565b62000c50565b6200030f620004ec36600462001a17565b62000cd6565b620002ec6200050336600462001cf5565b62000ce8565b6200030f62000dea565b620002ec6200052436600462001bdd565b62000df0565b620002ec6200053b36600462001c40565b62000e05565b6200027e6200055236600462001a34565b62000f30565b6200030f62000f5e565b620002ec6200057336600462001a17565b62000f63565b60006001600160e01b031982166380ac58cd60e01b1480620005ab57506001600160e01b03198216635b5e139f60e01b145b80620005bd5750620005bd8262000fa4565b90505b919050565b606060018054620005d69062002572565b80601f0160208091040260200160405190810160405280929190818152602001828054620006049062002572565b8015620006555780601f10620006295761010080835404028352916020019162000655565b820191906000526020600020905b8154815290600101906020018083116200063757829003601f168201915b5050505050905090565b60006200066c8262000fbd565b506000908152600560205260409020546001600160a01b031690565b6000620006958262000943565b9050806001600160a01b0316836001600160a01b03161415620006d55760405162461bcd60e51b8152600401620006cc9062002351565b60405180910390fd5b806001600160a01b0316620006e962000fe7565b6001600160a01b0316148062000709575062000709816200055262000fe7565b620007285760405162461bcd60e51b8152600401620006cc90620023c3565b62000734838362000feb565b505050565b6200074e6200074762000fe7565b826200105b565b6200076d5760405162461bcd60e51b8152600401620006cc9062001ffd565b62000734838383620010c2565b60075481565b600f5481565b8133620007938262000943565b6001600160a01b031614620007bc5760405162461bcd60e51b8152600401620006cc9062002420565b600083815260116020526040902054600114620007ed5760405162461bcd60e51b8152600401620006cc90620021d5565b600d5460405163601c676960e01b81526001600160a01b039091169063601c67699062000821908590879060040162001f35565b600060405180830381600087803b1580156200083c57600080fd5b505af115801562000851573d6000803e3d6000fd5b50505050505050565b600e5481565b600b546001600160a01b031681565b620007348383836040518060200160405280600081525062000a78565b600d546001600160a01b031681565b81336001600160a01b0316631372088a6040518163ffffffff1660e01b815260040160206040518083038186803b158015620008d657600080fd5b505afa158015620008eb573d6000803e3d6000fd5b505050506040513d601f19601f8201168201806040525081019062000911919062001c27565b14620009315760405162461bcd60e51b8152600401620006cc9062001fb1565b60009182526011602052604090912055565b600080620009518362001210565b90506001600160a01b038116620005bd5760405162461bcd60e51b8152600401620006cc906200231f565b60006001600160a01b038216620009a75760405162461bcd60e51b8152600401620006cc9062002200565b506001600160a01b031660009081526004602052604090205490565b620009cd6200122b565b620009d9600062001271565b565b620009e56200122b565b600f55565b6000546001600160a01b031690565b600a546001600160a01b031681565b606060028054620005d69062002572565b62000a2f62000a2762000fe7565b8383620012c1565b5050565b600c6020526000908152604090205460ff1681565b60095481565b60085481565b60136020526000908152604090205481565b60146020526000908152604090205481565b62000a8d62000a8662000fe7565b836200105b565b62000aac5760405162461bcd60e51b8152600401620006cc9062001ffd565b62000aba8484848462001369565b50505050565b6000833360405160200162000ad792919062001e86565b60405160208183030381529060405280519060200120905062000b3283838080602002602001604051908101604052809392919081815260200183836020028082843760009201919091525050600f549150849050620013a3565b62000b6a5762000b4660646103e862002529565b600e54111562000b6a5760405162461bcd60e51b8152600401620006cc9062002302565b336000908152601460205260409020541562000b9a5760405162461bcd60e51b8152600401620006cc9062001fdd565b600e5462000baa9060016200250e565b600e81905562000bbc903390620013bb565b336000818152601460205260409081902060019055600e5490517ff3cea5493d790af0133817606f7350a91d7f154ea52eaa79d179d4d231e501029262000c04929162002448565b60405180910390a150505050565b62000c1c6200122b565b600d80546001600160a01b0319166001600160a01b0392909216919091179055565b60116020526000908152604090205481565b606062000c5d82620013d7565b62000c7c5760405162461bcd60e51b8152600401620006cc90620022b3565b600062000c88620013f6565b9050600081511162000caa576040518060200160405280600081525062000ccf565b808360405160200162000cbf92919062001e62565b6040516020818303038152906040525b9392505050565b60126020526000908152604090205481565b833362000cf58262000943565b6001600160a01b03161462000d1e5760405162461bcd60e51b8152600401620006cc9062002420565b600062000d2e8686868662001407565b604051631e8e3b7b60e11b81529091506001600160a01b03861690633d1c76f69062000d5f90849060040162001f93565b600060405180830381600087803b15801562000d7a57600080fd5b505af115801562000d8f573d6000803e3d6000fd5b50505060008781526013602052604090819020839055517f06934bca8636bce75e41721a4aa1c5caa6b6a2ba8185fb2a3d0046795e5eaf42915062000dda90889084908990620024bc565b60405180910390a1505050505050565b6103e881565b805162000a2f9060109060208401906200184a565b873362000e128262000943565b6001600160a01b03161462000e3b5760405162461bcd60e51b8152600401620006cc9062002420565b6000898152601160205260409020541562000e6a5760405162461bcd60e51b8152600401620006cc9062002392565b6000898988888830600d60009054906101000a90046001600160a01b031660405162000e9690620018d9565b62000ea897969594939291906200245f565b604051809103906000f08015801562000ec5573d6000803e3d6000fd5b5090506001601160008c8152602001908152602001600020819055507fcc03c1e391c127c683ea5f26bd9b2260ecaa7527f04e3cabf99b9456e0cc235a818a8a8a8e8a60405162000f1c9695949392919062001eba565b60405180910390a150505050505050505050565b6001600160a01b03918216600090815260066020908152604080832093909416825291909152205460ff1690565b606481565b62000f6d6200122b565b6001600160a01b03811662000f965760405162461bcd60e51b8152600401620006cc906200209c565b62000fa18162001271565b50565b6001600160e01b031981166301ffc9a760e01b14919050565b62000fc881620013d7565b62000fa15760405162461bcd60e51b8152600401620006cc906200231f565b3390565b600081815260056020526040902080546001600160a01b0319166001600160a01b0384169081179091558190620010228262000943565b6001600160a01b03167f8c5be1e5ebec7d5bd14f71427d1e84f3dd0314c0f7b2291e5b200ac8c7c3b92560405160405180910390a45050565b600080620010698362000943565b9050806001600160a01b0316846001600160a01b0316148062001093575062001093818562000f30565b80620010ba5750836001600160a01b0316620010af846200065f565b6001600160a01b0316145b949350505050565b826001600160a01b0316620010d78262000943565b6001600160a01b031614620011005760405162461bcd60e51b8152600401620006cc90620020e2565b6001600160a01b038216620011295760405162461bcd60e51b8152600401620006cc906200215e565b62001138838383600162000aba565b826001600160a01b03166200114d8262000943565b6001600160a01b031614620011765760405162461bcd60e51b8152600401620006cc90620020e2565b600081815260056020908152604080832080546001600160a01b03199081169091556001600160a01b0387811680865260048552838620805460001901905590871680865283862080546001019055868652600390945282852080549092168417909155905184937fddf252ad1be2c89b69c2b068fc378daa952ba7f163c4a11628f55a4df523b3ef91a462000734838383600162000aba565b6000908152600360205260409020546001600160a01b031690565b6200123562000fe7565b6001600160a01b031662001248620009ea565b6001600160a01b031614620009d95760405162461bcd60e51b8152600401620006cc906200227e565b600080546001600160a01b038381166001600160a01b0319831681178455604051919092169283917f8be0079c531659141344cd1fd0a4f28419497f9722a3daafe3b4186f6b6457e09190a35050565b816001600160a01b0316836001600160a01b03161415620012f65760405162461bcd60e51b8152600401620006cc90620021a2565b6001600160a01b0383811660008181526006602090815260408083209487168084529490915290819020805460ff1916851515179055517f17307eab39ab6107e8899845ad3d59bd9653f200f220920489ca2b5937696c31906200135c90859062001f88565b60405180910390a3505050565b62001376848484620010c2565b620013848484848462001535565b62000aba5760405162461bcd60e51b8152600401620006cc906200204a565b600082620013b2858462001662565b14949350505050565b62000a2f828260405180602001604052806000815250620016c4565b600080620013e58362001210565b6001600160a01b0316141592915050565b606060108054620005d69062002572565b600084815260116020526040812054600114620014385760405162461bcd60e51b8152600401620006cc90620021d5565b600d54604051635534075360e11b81526001600160a01b039091169063aa680ea6906200146e908890889088906004016200249d565b602060405180830381600087803b1580156200148957600080fd5b505af11580156200149e573d6000803e3d6000fd5b505050506040513d601f19601f82011682018060405250810190620014c4919062001c27565b600d5460405163601c676960e01b81529192506001600160a01b03169063601c676990620014f9908590859060040162001f35565b600060405180830381600087803b1580156200151457600080fd5b505af115801562001529573d6000803e3d6000fd5b50505050949350505050565b60006200154b846001600160a01b0316620016fe565b156200165757836001600160a01b031663150b7a026200156a62000fe7565b8786866040518563ffffffff1660e01b81526004016200158e949392919062001ef6565b602060405180830381600087803b158015620015a957600080fd5b505af1925050508015620015dc575060408051601f3d908101601f19168201909252620015d99181019062001bbe565b60015b6200163c573d8080156200160d576040519150601f19603f3d011682016040523d82523d6000602084013e62001612565b606091505b508051620016345760405162461bcd60e51b8152600401620006cc906200204a565b805181602001fd5b6001600160e01b031916630a85bd0160e11b149050620010ba565b506001949350505050565b600081815b8451811015620016bc57620016a5828683815181106200169757634e487b7160e01b600052603260045260246000fd5b60200260200101516200170d565b915080620016b381620025af565b91505062001667565b509392505050565b620016d0838362001735565b620016df600084848462001535565b620007345760405162461bcd60e51b8152600401620006cc906200204a565b6001600160a01b03163b151590565b600081831062001729576200172382846200183b565b62000ccf565b62000ccf83836200183b565b6001600160a01b0382166200175e5760405162461bcd60e51b8152600401620006cc9062002249565b6200176981620013d7565b15620017895760405162461bcd60e51b8152600401620006cc9062002127565b6200179960008383600162000aba565b620017a481620013d7565b15620017c45760405162461bcd60e51b8152600401620006cc9062002127565b6001600160a01b038216600081815260046020908152604080832080546001019055848352600390915280822080546001600160a01b0319168417905551839291907fddf252ad1be2c89b69c2b068fc378daa952ba7f163c4a11628f55a4df523b3ef908290a462000a2f60008383600162000aba565b60009182526020526040902090565b828054620018589062002572565b90600052602060002090601f0160209004810192826200187c5760008555620018c7565b82601f106200189757805160ff1916838001178555620018c7565b82800160010185558215620018c7579182015b82811115620018c7578251825591602001919060010190620018aa565b50620018d5929150620018e7565b5090565b613566806200261183390190565b5b80821115620018d55760008155600101620018e8565b60006001600160401b038311156200191a576200191a620025e3565b6200192f601f8401601f1916602001620024db565b90508281528383830111156200194457600080fd5b828260208301376000602084830101529392505050565b80356001600160a01b0381168114620005c057600080fd5b600082601f83011262001984578081fd5b813560206001600160401b03821115620019a257620019a2620025e3565b808202620019b2828201620024db565b838152828101908684018388018501891015620019cd578687fd5b8693505b85841015620019fa57620019e5816200195b565b835260019390930192918401918401620019d1565b50979650505050505050565b80358015158114620005c057600080fd5b60006020828403121562001a29578081fd5b62000ccf826200195b565b6000806040838503121562001a47578081fd5b62001a52836200195b565b915062001a62602084016200195b565b90509250929050565b60008060006060848603121562001a80578081fd5b62001a8b846200195b565b925062001a9b602085016200195b565b9150604084013590509250925092565b6000806000806080858703121562001ac1578081fd5b62001acc856200195b565b935062001adc602086016200195b565b92506040850135915060608501356001600160401b0381111562001afe578182fd5b8501601f8101871362001b0f578182fd5b62001b2087823560208401620018fe565b91505092959194509250565b6000806040838503121562001b3f578182fd5b62001b4a836200195b565b915062001a626020840162001a06565b6000806040838503121562001b6d578182fd5b62001b78836200195b565b946020939093013593505050565b60006020828403121562001b98578081fd5b5035919050565b60006020828403121562001bb1578081fd5b813562000ccf81620025f9565b60006020828403121562001bd0578081fd5b815162000ccf81620025f9565b60006020828403121562001bef578081fd5b81356001600160401b0381111562001c05578182fd5b8201601f8101841362001c16578182fd5b620010ba84823560208401620018fe565b60006020828403121562001c39578081fd5b5051919050565b600080600080600080600080610100898b03121562001c5d578586fd5b8835975062001c6f60208a016200195b565b965062001c7f60408a016200195b565b955062001c8f60608a016200195b565b945062001c9f60808a0162001a06565b935060a089013560ff8116811462001cb5578384fd5b925060c0890135915060e08901356001600160401b0381111562001cd7578182fd5b62001ce58b828c0162001973565b9150509295985092959890939650565b6000806000806080858703121562001d0b578182fd5b8435935062001d1d602086016200195b565b92506040850135915060608501356001600160401b0381111562001d3f578182fd5b62001b208782880162001973565b6000806040838503121562001d60578182fd5b8235915060208301356001600160401b0381111562001d7d578182fd5b62001d8b8582860162001973565b9150509250929050565b60008060006040848603121562001daa578081fd5b8335925060208401356001600160401b038082111562001dc8578283fd5b818601915086601f83011262001ddc578283fd5b81358181111562001deb578384fd5b876020808302850101111562001dff578384fd5b6020830194508093505050509250925092565b6000806040838503121562001e25578182fd5b50508035926020909101359150565b6000815180845262001e4e81602086016020860162002543565b601f01601f19169290920160200192915050565b6000835162001e7681846020880162002543565b9190910191825250602001919050565b91825260601b6bffffffffffffffffffffffff1916602082015260340190565b6001600160a01b0391909116815260200190565b6001600160a01b0396871681529486166020860152928516604085015293166060830152608082019290925260ff90911660a082015260c00190565b6001600160a01b038581168252841660208201526040810183905260806060820181905260009062001f2b9083018462001e34565b9695505050505050565b604080825283519082018190526000906020906060840190828701845b8281101562001f795781516001600160a01b03168452928401929084019060010162001f52565b50505092019290925292915050565b901515815260200190565b90815260200190565b60006020825262000ccf602083018462001e34565b6020808252601290820152711413d3d30e881393d508151211481413d3d360721b604082015260600190565b60208082526006908201526514915411505560d21b604082015260600190565b6020808252602d908201527f4552433732313a2063616c6c6572206973206e6f7420746f6b656e206f776e6560408201526c1c881bdc88185c1c1c9bdd9959609a1b606082015260800190565b60208082526032908201527f4552433732313a207472616e7366657220746f206e6f6e20455243373231526560408201527131b2b4bb32b91034b6b83632b6b2b73a32b960711b606082015260800190565b60208082526026908201527f4f776e61626c653a206e6577206f776e657220697320746865207a65726f206160408201526564647265737360d01b606082015260800190565b60208082526025908201527f4552433732313a207472616e736665722066726f6d20696e636f72726563742060408201526437bbb732b960d91b606082015260800190565b6020808252601c908201527f4552433732313a20746f6b656e20616c7265616479206d696e74656400000000604082015260600190565b60208082526024908201527f4552433732313a207472616e7366657220746f20746865207a65726f206164646040820152637265737360e01b606082015260800190565b60208082526019908201527822a9219b99189d1030b8383937bb32903a379031b0b63632b960391b604082015260600190565b6020808252601190820152707374617475733a206e6f7420776169742160781b604082015260600190565b60208082526029908201527f4552433732313a2061646472657373207a65726f206973206e6f7420612076616040820152683634b21037bbb732b960b91b606082015260800190565b6020808252818101527f4552433732313a206d696e7420746f20746865207a65726f2061646472657373604082015260600190565b6020808252818101527f4f776e61626c653a2063616c6c6572206973206e6f7420746865206f776e6572604082015260600190565b6020808252602f908201527f4552433732314d657461646174613a2055524920717565727920666f72206e6f60408201526e3732bc34b9ba32b73a103a37b5b2b760891b606082015260800190565b60208082526003908201526209a82b60eb1b604082015260600190565b602080825260189082015277115490cdcc8c4e881a5b9d985b1a59081d1bdad95b88125160421b604082015260600190565b60208082526021908201527f4552433732313a20617070726f76616c20746f2063757272656e74206f776e656040820152603960f91b606082015260800190565b6020808252601790820152761119585b195c88185b1c9958591e481a185cc81c1bdbdb604a1b604082015260600190565b6020808252603d908201527f4552433732313a20617070726f76652063616c6c6572206973206e6f7420746f60408201527f6b656e206f776e6572206f7220617070726f76656420666f7220616c6c000000606082015260800190565b6020808252600e908201526d6f776e65723a206e6f7420796f7560901b604082015260600190565b9182526001600160a01b0316602082015260400190565b9687526001600160a01b0395861660208801529385166040870152911515606086015260ff166080850152821660a08401521660c082015260e00190565b9283526001600160a01b03919091166020830152604082015260600190565b92835260208301919091526001600160a01b0316604082015260600190565b604051601f8201601f191681016001600160401b0381118282101715620025065762002506620025e3565b604052919050565b60008219821115620025245762002524620025cd565b500190565b6000828210156200253e576200253e620025cd565b500390565b60005b838110156200256057818101518382015260200162002546565b8381111562000aba5750506000910152565b6002810460018216806200258757607f821691505b60208210811415620025a957634e487b7160e01b600052602260045260246000fd5b50919050565b6000600019821415620025c657620025c6620025cd565b5060010190565b634e487b7160e01b600052601160045260246000fd5b634e487b7160e01b600052604160045260246000fd5b6001600160e01b03198116811462000fa157600080fdfe6080604052600e8054600160a01b600160e01b03191690556000600f553480156200002957600080fd5b5060405162003566380380620035668339810160408190526200004c91620006d1565b620000606200005a6200058f565b62000593565b600280546001600160a01b038085166001600160a01b031992831617928390556001805485831690841617905560038a9055600880548a8316931692909217909155604080516390666ff960e01b81529051929091169182916390666ff9916004808301926020929190829003018186803b158015620000df57600080fd5b505afa158015620000f4573d6000803e3d6000fd5b505050506040513d601f19601f820116820180604052508101906200011a919062000694565b600e80546001600160a01b0319166001600160a01b0392831617908190556040516310cd532560e01b81529116906310cd5325906200016290899088908a906004016200077c565b600060405180830381600087803b1580156200017d57600080fd5b505af115801562000192573d6000803e3d6000fd5b5050600e5460405163a35668bf60e01b8152600093506001600160a01b03909116915063a35668bf90620001cb90309060040162000768565b60206040518083038186803b158015620001e457600080fd5b505afa158015620001f9573d6000803e3d6000fd5b505050506040513d601f19601f820116820180604052508101906200021f9190620006b8565b60408051608080820183526000808352602080840182905283850186905260609384018290526011829055601282905560138690556014829055845160a0810186528281528082018390528086018390529384018690529290910181905260158190556016819055601781905560188490556019558151631698e0b760e11b815291519293506001600160a01b03851692632d31c16e926004818101939291829003018186803b158015620002d357600080fd5b505afa158015620002e8573d6000803e3d6000fd5b505050506040513d601f19601f820116820180604052508101906200030e9190620006b8565b600a81905550816001600160a01b031663b0e21e8a6040518163ffffffff1660e01b815260040160206040518083038186803b1580156200034e57600080fd5b505afa15801562000363573d6000803e3d6000fd5b505050506040513d601f19601f82011682018060405250810190620003899190620006b8565b600b81905550816001600160a01b031663ac02c0bd6040518163ffffffff1660e01b815260040160206040518083038186803b158015620003c957600080fd5b505afa158015620003de573d6000803e3d6000fd5b505050506040513d601f19601f82011682018060405250810190620004049190620006b8565b600c81905550816001600160a01b0316633a267ea36040518163ffffffff1660e01b815260040160206040518083038186803b1580156200044457600080fd5b505afa15801562000459573d6000803e3d6000fd5b505050506040513d601f19601f820116820180604052508101906200047f919062000694565b600d80546001600160a01b0319166001600160a01b0392909216919091179055620004ab6002620005e3565b620004b76005620005e3565b620004c3600a620005e3565b620004cf6014620005e3565b7f60e314eb1dcc14680ab3be0aaa5b70ea0d3828f11e6bcb38305fea8bbf2d49cc600a54604051620005029190620007b1565b60405180910390a17fdc0410a296e1e33943a772020d333d5f99319d7fcad932a484c53889f7aaa2b1600b546040516200053d9190620007b1565b60405180910390a17ffec3e2cce26c0fccf827d7f8d326ecb9f37ad07b47912dc290d75e165e8e61ae600c54604051620005789190620007b1565b60405180910390a1505050505050505050620007e7565b3390565b600080546001600160a01b038381166001600160a01b0319831681178455604051919092169283917f8be0079c531659141344cd1fd0a4f28419497f9722a3daafe3b4186f6b6457e09190a35050565b600181810b810b60009081526009602081905260408220805460ff191684179055906200061084620007ba565b60010b60010b815260200190815260200160002060006101000a81548160ff0219169083151502179055507ff67b5be99da014dc5bbb05f7a10b5c1e1eaf761dcff49aef0a830ffd33b5c9dc816040516200066c9190620007a2565b60405180910390a150565b80516001600160a01b03811681146200068f57600080fd5b919050565b600060208284031215620006a6578081fd5b620006b18262000677565b9392505050565b600060208284031215620006ca578081fd5b5051919050565b600080600080600080600060e0888a031215620006ec578283fd5b87519650620006fe6020890162000677565b95506200070e6040890162000677565b94506060880151801515811462000723578384fd5b608089015190945060ff811681146200073a578384fd5b92506200074a60a0890162000677565b91506200075a60c0890162000677565b905092959891949750929550565b6001600160a01b0391909116815260200190565b6001600160a01b0393909316835260ff9190911660208301521515604082015260600190565b61ffff91909116815260200190565b90815260200190565b60008160010b617fff19811415620007e057634e487b7160e01b82526011600452602482fd5b9003919050565b612d6f80620007f76000396000f3fe608060405234801561001057600080fd5b50600436106101f75760003560e01c8063715018a611610120578063b6d7a1c9116100b8578063da8e1d751161007c578063da8e1d75146103da578063deebe410146103e2578063e38fd53114610407578063ebe79a341461041a578063f2fde38b14610422576101f7565b8063b6d7a1c91461039c578063b868723e146103af578063bef3a083146103b7578063cf9afab5146103bf578063d3ce1c82146103c7576101f7565b8063715018a6146103295780638da5cb5b146103315780638fd418d31461033957806396336b301461035157806398d5fdca146103595780639de2ee2114610361578063ac02c0bd14610369578063b0e21e8a14610371578063b22e2b9314610379576101f7565b80633572623411610193578063357262341461028a5780633608cdf8146102a35780633a267ea3146102b65780633ac3f524146102cb5780633d1c76f6146102d357806348db5f89146102e65780635d9e05db146102ee578063669c636d1461030e57806369145d6e14610316576101f7565b8063053f14da146101fc5780630a0e5c9d1461021a5780630c2804441461022f5780631372088a1461023757806317fbe3541461023f5780632843d22d146102475780632986c0e51461025a5780632d1aeb281461026f5780632d31c16e14610282575b600080fd5b610204610435565b6040516102119190612a07565b60405180910390f35b61022d6102283660046123d2565b61043b565b005b61020461064e565b61020461065e565b610204610664565b61022d610255366004612528565b61066a565b610262610ba3565b6040516102119190612a91565b61022d61027d3660046123fd565b610bb6565b610204610e3e565b610292610e44565b604051610211959493929190612a6e565b6102046102b136600461250e565b610e56565b6102be610efd565b6040516102119190612571565b610204610f0c565b61022d6102e13660046124de565b610f12565b6102be610f41565b6103016102fc3660046124a2565b610f50565b6040516102119190612603565b61022d610f65565b61022d61032436600461239a565b6110b1565b61022d6110db565b6102be6110ef565b6103416110fe565b6040516102119493929190612a53565b6102be61110d565b61020461111c565b6102be61119d565b6102046111ac565b6102046111b2565b61038c61038736600461250e565b6111b8565b6040516102119493929190612585565b61022d6103aa3660046124de565b6111f2565b61020461123a565b610204611240565b610301611246565b61022d6103d536600461243a565b61124f565b61026261170f565b6103f56103f036600461250e565b611722565b604051610211969594939291906125b1565b61022d6104153660046124bc565b61176a565b6102be6117f5565b61022d61043036600461239a565b611804565b600f5481565b6002546003546040516331a9108f60e11b815284926001600160a01b0380851693911691636352211e9161047191600401612a07565b60206040518083038186803b15801561048957600080fd5b505afa15801561049d573d6000803e3d6000fd5b505050506040513d601f19601f820116820180604052508101906104c191906123b6565b6001600160a01b0316146104f05760405162461bcd60e51b81526004016104e7906127bd565b60405180910390fd5b600554156105105760405162461bcd60e51b81526004016104e790612669565b428210156105305760405162461bcd60e51b81526004016104e790612726565b6005829055600280546003546040516362538f0f60e01b81526001600160a01b03909216926362538f0f92610569929190600401612a2f565b600060405180830381600087803b15801561058357600080fd5b505af1158015610597573d6000803e3d6000fd5b506001925050505b600e5463ffffffff600160a01b9091048116908216116106115763ffffffff81166000908152601a6020526040902080546001808301546002909301546105fe936001600160a01b0393841693811692600160a01b909104900b61183e565b508061060981612cb4565b91505061059f565b507f02cd0f962e62be582c42a69232ce8a51199f039c40654f85b95cd182797ab8d6826040516106419190612a07565b60405180910390a1505050565b6000610658611b5d565b90505b90565b60035481565b60105481565b60015460048054604051627eeac760e11b815285936000936001600160a01b039091169262fdd58e926106a092879291016125ea565b60206040518083038186803b1580156106b857600080fd5b505afa1580156106cc573d6000803e3d6000fd5b505050506040513d601f19601f820116820180604052508101906106f091906124f6565b1161070d5760405162461bcd60e51b81526004016104e7906126b1565b610715611246565b156107325760405162461bcd60e51b81526004016104e790612817565b63ffffffff84166000908152601b6020908152604091829020825160c08101845281546001600160a01b0390811680835260018085015492831695840195909552600160a01b909104840b840b90930b9381019390935260028101546060840152600381015460808401526004015460a083015233146107c45760405162461bcd60e51b81526004016104e790612863565b836001600160a01b031681602001516001600160a01b0316146107f95760405162461bcd60e51b81526004016104e790612773565b60065461080581611bbd565b600061082c83608001516108268560a0015185611c6290919063ffffffff16565b90611c86565b9050600061086c6000856040015160010b1361085857846040015161085090612cd8565b60010b610861565b846040015160010b5b606086015190611c9f565b9050600080856040015160010b13156108985761089161088a611b5d565b8490611c86565b90506108c8565b6108c56108a3611b5d565b610826856108bf60028a60800151611cab90919063ffffffff16565b90611cb7565b90505b60006108df600b5483611c8690919063ffffffff16565b905061090e816109086108fd600a5487611c8690919063ffffffff16565b60608a015190611cc3565b90611cc3565b6109188385611cc3565b116109355760405162461bcd60e51b81526004016104e790612641565b6000866040015160010b1315610989576012548411156109555760125493505b6012546109629085611cb7565b6012556013859055606086015160115461097b91611cb7565b6011556012546014556109dd565b6016548411156109995760165493505b601885905560608601516015546109af91611cb7565b6015556016546109bf9085611cb7565b60165560808601516017546109d391611cb7565b6017556016546019555b8160105410156109ed5760105491505b6010546109fa9083611cb7565b6010556060860151600090610a13906108bf8587611cc3565b6008546040516370a0823160e01b81529192506000916001600160a01b03909116906370a0823190610a49903090600401612571565b60206040518083038186803b158015610a6157600080fd5b505afa158015610a75573d6000803e3d6000fd5b505050506040513d601f19601f82011682018060405250810190610a9991906124f6565b905081811015610aa7578091505b600b5415610af257610ad08a610abd8486611cb7565b6008546001600160a01b03169190611ccf565b600d54600854610aed916001600160a01b03918216911685611ccf565b610b09565b600854610b09906001600160a01b03168b84611ccf565b7fd0f219269b2989457aec2ba9ff3e215e5834b740f1bbea057f5ab4c7f250cf1d8c896020015188878b88604051610b4696959493929190612ade565b60405180910390a150505063ffffffff9098166000908152601b6020526040812080546001600160a01b03191681556001810180546001600160b01b03191690556002810182905560038101829055600401555050505050505050565b600e54600160c01b900463ffffffff1681565b60015460048054604051627eeac760e11b815286936000936001600160a01b039091169262fdd58e92610bec92879291016125ea565b60206040518083038186803b158015610c0457600080fd5b505afa158015610c18573d6000803e3d6000fd5b505050506040513d601f19601f82011682018060405250810190610c3c91906124f6565b11610c595760405162461bcd60e51b81526004016104e7906126b1565b60055415610c795760405162461bcd60e51b81526004016104e790612669565b60015460048054604051627eeac760e11b81526001600160a01b039093169262fdd58e92610cab9289929091016125ea565b60206040518083038186803b158015610cc357600080fd5b505afa158015610cd7573d6000803e3d6000fd5b505050506040513d601f19601f82011682018060405250810190610cfb91906124f6565b6001600160a01b03851660009081526007602052604090205410610d315760405162461bcd60e51b81526004016104e790612795565b600e8054600160a01b900463ffffffff16906014610d4e83612cb4565b82546101009290920a63ffffffff818102199093169183160217909155604080516080810182523381526001600160a01b038881166020808401918252600189810b858701908152606086018c8152600e54600160a01b908190049099166000908152601a90945296909220945185546001600160a01b03199081169186169190911786559251858201805493519390941694169390931761ffff60a01b191661ffff9190930b16909402179092555160029091015550610e0f8484611d2a565b6001600160a01b0384166000908152600760205260408120805491610e3383612c99565b919050555050505050565b600a5481565b60155460165460175460185460195485565b63ffffffff81166000908152601b60209081526040808320815160c08101835281546001600160a01b03908116825260018084015491821695830195909552600160a01b9004840b840b90930b918301919091526002810154606083018190526003820154608084015260049091015460a0830152610ee75760405162461bcd60e51b81526004016104e79061298b565b6000610ef282611f02565b50925050505b919050565b600d546001600160a01b031681565b60045481565b6002546001600160a01b03163314610f3c5760405162461bcd60e51b81526004016104e790612961565b600455565b6001546001600160a01b031681565b60096020526000908152604090205460ff1681565b610f6d61214d565b60065415610f8d5760405162461bcd60e51b81526004016104e7906129b7565b600e5460405163a35668bf60e01b81526001600160a01b039091169063a35668bf90610fbd903090600401612571565b60206040518083038186803b158015610fd557600080fd5b505afa158015610fe9573d6000803e3d6000fd5b505050506040513d601f19601f8201168201806040525081019061100d91906124f6565b6006556002546003546040516362538f0f60e01b81526001600160a01b03909216916362538f0f9161104491600090600401612a2f565b600060405180830381600087803b15801561105e57600080fd5b505af1158015611072573d6000803e3d6000fd5b505050507fe2dee4afc68516aab54e66400fa6cbe718ff6041441d05f358f158474dd94bd06006546040516110a79190612a07565b60405180910390a1565b6110b961214d565b600d80546001600160a01b0319166001600160a01b0392909216919091179055565b6110e361214d565b6110ed600061218c565b565b6000546001600160a01b031690565b60115460125460135460145484565b6008546001600160a01b031681565b600e5460405163a35668bf60e01b81526000916001600160a01b03169063a35668bf9061114d903090600401612571565b60206040518083038186803b15801561116557600080fd5b505afa158015611179573d6000803e3d6000fd5b505050506040513d601f19601f8201168201806040525081019061065891906124f6565b6002546001600160a01b031681565b600c5481565b600b5481565b601a60205260009081526040902080546001808301546002909301546001600160a01b039283169392831692600160a01b900490910b9084565b6111fa61214d565b600a8190556040517f60e314eb1dcc14680ab3be0aaa5b70ea0d3828f11e6bcb38305fea8bbf2d49cc9061122f908390612a07565b60405180910390a150565b60065481565b60055481565b60055442111590565b60015460048054604051627eeac760e11b815286936000936001600160a01b039091169262fdd58e9261128592879291016125ea565b60206040518083038186803b15801561129d57600080fd5b505afa1580156112b1573d6000803e3d6000fd5b505050506040513d601f19601f820116820180604052508101906112d591906124f6565b116112f25760405162461bcd60e51b81526004016104e7906126b1565b6112fa611246565b156113175760405162461bcd60e51b81526004016104e790612817565b63ffffffff83166000908152601b6020908152604091829020825160c08101845281546001600160a01b03908116825260018084015491821694830194909452600160a01b9004830b830b90920b928201929092526002820154606082018190526003830154608083015260049092015460a0820152906113aa5760405162461bcd60e51b81526004016104e790612842565b6006546000806113b984611f02565b915091506000198214156113df5760405162461bcd60e51b81526004016104e7906127ed565b816113ec5782915061141b565b6000846040015160010b13151583831115151461141b5760405162461bcd60e51b81526004016104e7906127ed565b61142482611bbd565b600061144585608001516108268760a0015186611c6290919063ffffffff16565b9050600080866040015160010b13156114715761146a611463611b5d565b8390611c86565b905061149b565b61149861147c611b5d565b610826846108bf60028b60800151611cab90919063ffffffff16565b90505b6000866040015160010b13156114ee576012548211156114bb5760125491505b601384905560608601516011546114d191611cb7565b6011556012546114e19083611cb7565b6012819055601455611542565b6016548211156114fe5760165491505b6018849055606086015160155461151491611cb7565b6015556016546115249083611cb7565b601655608086015160175461153891611cb7565b6017556016546019555b80601054101561155157506010545b60105461155e9082611cb7565b6010556008546040516370a0823160e01b81526000916001600160a01b0316906370a0823190611592903090600401612571565b60206040518083038186803b1580156115aa57600080fd5b505afa1580156115be573d6000803e3d6000fd5b505050506040513d601f19601f820116820180604052508101906115e291906124f6565b905060006115fb600a5486611c8690919063ffffffff16565b9050600080600c5411156116555781831015611615578291505b600c54611623908390611c86565b90506116338b610abd8484611cb7565b600d54600854611650916001600160a01b03918216911683611ccf565b611678565b81831015611661578291505b600854611678906001600160a01b03168c84611ccf565b7f6f38507ff54d95a72680dddf08a58aa66bd84d38c252b5bbf63465b56e11aed28c8c87878b866040516116b196959493929190612ade565b60405180910390a150505063ffffffff9098166000908152601b6020526040812080546001600160a01b03191681556001810180546001600160b01b0319169055600281018290556003810182905560040155505050505050505050565b600e54600160a01b900463ffffffff1681565b601b6020526000908152604090208054600180830154600284015460038501546004909501546001600160a01b039485169594831694600160a01b90930490930b9290919086565b61177261214d565b600181810b900b60009081526009602081905260408220805460ff191690558161179b84612cd8565b60010b60010b815260200190815260200160002060006101000a81548160ff0219169083151502179055507f0ad48029b5a777c16c44eb514377797a70850e93d05fabaffea42f25954401268160405161122f91906129f8565b600e546001600160a01b031690565b61180c61214d565b6001600160a01b0381166118325760405162461bcd60e51b81526004016104e7906126e0565b61183b8161218c565b50565b600181810b900b60009081526009602052604081205460ff166118735760405162461bcd60e51b81526004016104e79061268e565b600083116118935760405162461bcd60e51b81526004016104e790612887565b600e5460405163a35668bf60e01b81526000916001600160a01b03169063a35668bf906118c4903090600401612571565b60206040518083038186803b1580156118dc57600080fd5b505afa1580156118f0573d6000803e3d6000fd5b505050506040513d601f19601f8201168201806040525081019061191491906124f6565b905061191f81611bbd565b600e8054600160c01b900463ffffffff1690601861193c83612cb4565b91906101000a81548163ffffffff021916908363ffffffff160217905550506000808460010b136119825761197d61197385612cd8565b869060010b611cab565b611990565b61199085600186900b611cab565b905060006119a661199f611b5d565b8390611c62565b6040805160c0810182526001600160a01b03808c1682528a8116602080840191825260018b810b858701818152606087018b8152608088018a815260a089018e8152600e5463ffffffff600160c01b909104166000908152601b909752998620985189549089166001600160a01b0319918216178a5596518986018054945190960b61ffff16600160a01b0261ffff60a01b199190991693909716929092179590951695909517909155915160028501559151600384015592516004909201919091559192501315611aa1576013839055601154611a849083611cc3565b601155601254611a949082611cc3565b6012819055601455611add565b6018839055601554611ab39083611cc3565b601555601654611ac39082611cc3565b601655601754611ad39082611cc3565b6017556016546019555b601054611aea9083611cc3565b601055600e546040517f561cdb01c3e4e301a13e882a3914d5d30dbb217e14dab8bfec1730111b32426091611b3791600160c01b90910463ffffffff16908a908a90869089908c90612aa2565b60405180910390a15050600e54600160c01b900463ffffffff169150505b949350505050565b601654601754600091611b8391611b7a91906108bf906002611cab565b60125490611cc3565b611b965750670de0b6b3a764000061065b565b60165460175461065891611bb491611b7a91906108bf906002611cab565b60105490611c62565b80600f541415611bcc5761183b565b600f819055601154611be2576000601255611bfc565b601454601354611bf89190610826908490611c62565b6012555b601554611c125760006016819055601755611c2c565b601954601854611c289190610826908490611c62565b6016555b6012546016546040517fc6642d24d84e7f3d36ca39f5cce10e75639d9b158d5193aa350e2f900653e4c09261122f928592612a3d565b6000611c7f611c7984670de0b6b3a7640000611cab565b83611c9f565b9392505050565b6000611c7f611c958484611cab565b670de0b6b3a76400005b6000611c7f8284612b5d565b6000611c7f8284612bf4565b6000611c7f8284612c52565b6000611c7f8284612b17565b611d258363a9059cbb60e01b8484604051602401611cee9291906125ea565b60408051601f198184030181529190526020810180516001600160e01b03166001600160e01b0319909316929092179091526121dc565b505050565b601c5460ff1615611d4d5760405162461bcd60e51b81526004016104e7906129da565b601c805460ff191660011790556008546040516370a0823160e01b81526000916001600160a01b0316906370a0823190611d8b903090600401612571565b60206040518083038186803b158015611da357600080fd5b505afa158015611db7573d6000803e3d6000fd5b505050506040513d601f19601f82011682018060405250810190611ddb91906124f6565b6008546040516327adaa4560e01b815291925033916327adaa4591611e109186916001600160a01b0316908890600401612a10565b600060405180830381600087803b158015611e2a57600080fd5b505af1158015611e3e573d6000803e3d6000fd5b50505050611e558282611cc390919063ffffffff16565b6008546040516370a0823160e01b81526001600160a01b03909116906370a0823190611e85903090600401612571565b60206040518083038186803b158015611e9d57600080fd5b505afa158015611eb1573d6000803e3d6000fd5b505050506040513d601f19601f82011682018060405250810190611ed591906124f6565b1015611ef35760405162461bcd60e51b81526004016104e790612753565b5050601c805460ff1916905550565b600080611f416000846040015160010b13611f2d578360400151611f2590612cd8565b60010b611f36565b836040015160010b5b606085015190611c9f565b90506000611f6c611f61600a54670de0b6b3a764000061088a9190612c52565b606086015190611cb7565b90506000846040015160010b131561201e57601854601954600091611fbf91611f9491611c62565b61090860105461082686611fb98b60a001518c60800151611c6290919063ffffffff16565b90611c62565b601354601454919250600091611fd491611c62565b90508082111561201257601754611fef57600019945061200d565b61200a611ffc8383611cb7565b601754611fb9906002611cab565b94505b612017565b600094505b5050612147565b6013546014546000916120319190611c62565b60185460195491925060009161204691611c62565b905060008183111561208a576120836120706120628486612c52565b601054610826908890611c62565b60a089015160808a015161090891611c62565b90506120c5565b6120a56120978484612c52565b601054610826908790611c62565b60a088015160808901516120b891611c62565b6120c29190612c13565b90505b60006120f060026120ea6015600201546108266010548a611c6290919063ffffffff16565b90611cab565b6080890151612100906002611cab565b61210a9190612c13565b90506000808313908213146121225760009650612142565b81612135670de0b6b3a764000083612b71565b61213f9190612b2f565b96505b505050505b50915091565b61215561226e565b6001600160a01b03166121666110ef565b6001600160a01b0316146110ed5760405162461bcd60e51b81526004016104e7906128ab565b600080546001600160a01b038381166001600160a01b0319831681178455604051919092169283917f8be0079c531659141344cd1fd0a4f28419497f9722a3daafe3b4186f6b6457e09190a35050565b6000612231826040518060400160405280602081526020017f5361666545524332303a206c6f772d6c6576656c2063616c6c206661696c6564815250856001600160a01b03166122729092919063ffffffff16565b90508051600014806122525750808060200190518101906122529190612482565b611d255760405162461bcd60e51b81526004016104e790612917565b3390565b6060611b55848460008585600080866001600160a01b031685876040516122999190612555565b60006040518083038185875af1925050503d80600081146122d6576040519150601f19603f3d011682016040523d82523d6000602084013e6122db565b606091505b50915091506122ec878383876122f7565b979650505050505050565b6060831561233157825161232a5761230e8561233b565b61232a5760405162461bcd60e51b81526004016104e7906128e0565b5081611b55565b611b55838361234a565b6001600160a01b03163b151590565b81511561235a5781518083602001fd5b8060405162461bcd60e51b81526004016104e7919061260e565b8035600181900b8114610ef857600080fd5b803563ffffffff81168114610ef857600080fd5b6000602082840312156123ab578081fd5b8135611c7f81612d24565b6000602082840312156123c7578081fd5b8151611c7f81612d24565b600080604083850312156123e4578081fd5b82356123ef81612d24565b946020939093013593505050565b600080600060608486031215612411578081fd5b833561241c81612d24565b92506020840135915061243160408501612374565b90509250925092565b60008060006060848603121561244e578283fd5b833561245981612d24565b925061246760208501612386565b9150604084013561247781612d24565b809150509250925092565b600060208284031215612493578081fd5b81518015158114611c7f578182fd5b6000602082840312156124b3578081fd5b611c7f82612374565b6000602082840312156124cd578081fd5b813561ffff81168114611c7f578182fd5b6000602082840312156124ef578081fd5b5035919050565b600060208284031215612507578081fd5b5051919050565b60006020828403121561251f578081fd5b611c7f82612386565b60008060006060848603121561253c578283fd5b61254584612386565b9250602084013561246781612d24565b60008251612567818460208701612c69565b9190910192915050565b6001600160a01b0391909116815260200190565b6001600160a01b03948516815292909316602083015260010b6040820152606081019190915260800190565b6001600160a01b03968716815294909516602085015260019290920b60408401526060830152608082015260a081019190915260c00190565b6001600160a01b03929092168252602082015260400190565b901515815260200190565b600060208252825180602084015261262d816040850160208701612c69565b601f01601f19169190910160400192915050565b6020808252600e908201526d34b7103634b8bab4b230ba34b7b760911b604082015260600190565b6020808252600b908201526a2827a7a61d102122a3aaa760a91b604082015260600190565b6020808252600990820152683632bb32b61022b93960b91b604082015260600190565b6020808252601590820152742827a7a61d102727aa102827a7a610282620aca2a960591b604082015260600190565b60208082526026908201527f4f776e61626c653a206e6577206f776e657220697320746865207a65726f206160408201526564647265737360d01b606082015260800190565b602080825260139082015272444541444c494e453a20544f4f204541524c5960681b604082015260600190565b602080825260069082015265282a1022b93960d11b604082015260600190565b6020808252600890820152673ab9b2b91022b93960c11b604082015260600190565b6020808252600e908201526d1413105651548e8813d41153915160921b604082015260600190565b6020808252601690820152752827a7a61d102727aa102222a0a622a91027aba722a960511b604082015260600190565b60208082526010908201526f1b1a5c5d5a59185d1a5bdb8819985a5b60821b604082015260600190565b60208082526011908201527011115051131253914e881393d508115391607a1b604082015260600190565b6020808252600790820152663634b89022b93960c91b604082015260600190565b6020808252600a90820152693937baba32b91022b93960b11b604082015260600190565b6020808252600a908201526936b0b933b4b71022b93960b11b604082015260600190565b6020808252818101527f4f776e61626c653a2063616c6c6572206973206e6f7420746865206f776e6572604082015260600190565b6020808252601d908201527f416464726573733a2063616c6c20746f206e6f6e2d636f6e7472616374000000604082015260600190565b6020808252602a908201527f5361666545524332303a204552433230206f7065726174696f6e20646964206e6040820152691bdd081cdd58d8d9595960b21b606082015260800190565b60208082526010908201526f2827a7a61d102727aa102222a0a622a960811b604082015260600190565b6020808252601290820152713737b716b2bc34b9ba103837b9b4ba34b7b760711b604082015260600190565b6020808252600990820152681413d3d30e8811539160ba1b604082015260600190565b6020808252600490820152634c4f434b60e01b604082015260600190565b61ffff91909116815260200190565b90815260200190565b9283526001600160a01b03918216602084015216604082015260600190565b918252602082015260400190565b9283526020830191909152604082015260600190565b93845260208401929092526040830152606082015260800190565b948552602085019390935260408401919091526060830152608082015260a00190565b63ffffffff91909116815260200190565b63ffffffff9690961686526001600160a01b0394909416602086015260408501929092526060840152608083015260010b60a082015260c00190565b63ffffffff9690961686526001600160a01b0394909416602086015260408501929092526060840152608083015260a082015260c00190565b60008219821115612b2a57612b2a612cf8565b500190565b600082612b3e57612b3e612d0e565b600160ff1b821460001984141615612b5857612b58612cf8565b500590565b600082612b6c57612b6c612d0e565b500490565b60006001600160ff1b0381841382841380821686840486111615612b9757612b97612cf8565b600160ff1b84871282811687830589121615612bb557612bb5612cf8565b858712925087820587128484161615612bd057612bd0612cf8565b87850587128184161615612be657612be6612cf8565b505050929093029392505050565b6000816000190483118215151615612c0e57612c0e612cf8565b500290565b60008083128015600160ff1b850184121615612c3157612c31612cf8565b6001600160ff1b0384018313811615612c4c57612c4c612cf8565b50500390565b600082821015612c6457612c64612cf8565b500390565b60005b83811015612c84578181015183820152602001612c6c565b83811115612c93576000848401525b50505050565b6000600019821415612cad57612cad612cf8565b5060010190565b600063ffffffff80831681811415612cce57612cce612cf8565b6001019392505050565b60008160010b617fff19811415612cf157612cf1612cf8565b9003919050565b634e487b7160e01b600052601160045260246000fd5b634e487b7160e01b600052601260045260246000fd5b6001600160a01b038116811461183b57600080fdfea26469706673582212209dfec2937091f473053dfaacd5beb05d3c31228a8a84a55bb23daf184606295f64736f6c63430008010033a264697066735822122055a15130fe913b89718fa49f2ebfaf0c7343bf9e5bf4815bfca122a477a20b6464736f6c63430008010033",
  "linkReferences": {},
  "deployedLinkReferences": {}
}