{
  "_format": "hh-sol-artifact-1",
  "contractName": "Dealer",
  "sourceName": "contracts/proof/Dealer.sol",
  "abi": [
    {
      "inputs": [
        {
          "internalType": "string",
          "name": "name",
          "type": "string"
        },
        {
          "internalType": "string",
          "name": "symbol",
          "type": "string"
        },
        {
          "internalType": "string",
          "name": "tokenURI_",
          "type": "string"
        }
      ],
      "stateMutability": "nonpayable",
      "type": "constructor"
    },
    {
      "anonymous": false,
      "inputs": [
        {
          "indexed": true,
          "internalType": "address",
          "name": "owner",
          "type": "address"
        },
        {
          "indexed": true,
          "internalType": "address",
          "name": "approved",
          "type": "address"
        },
        {
          "indexed": true,
          "internalType": "uint256",
          "name": "tokenId",
          "type": "uint256"
        }
      ],
      "name": "Approval",
      "type": "event"
    },
    {
      "anonymous": false,
      "inputs": [
        {
          "indexed": true,
          "internalType": "address",
          "name": "owner",
          "type": "address"
        },
        {
          "indexed": true,
          "internalType": "address",
          "name": "operator",
          "type": "address"
        },
        {
          "indexed": false,
          "internalType": "bool",
          "name": "approved",
          "type": "bool"
        }
      ],
      "name": "ApprovalForAll",
      "type": "event"
    },
    {
      "anonymous": false,
      "inputs": [
        {
          "indexed": true,
          "internalType": "address",
          "name": "previousOwner",
          "type": "address"
        },
        {
          "indexed": true,
          "internalType": "address",
          "name": "newOwner",
          "type": "address"
        }
      ],
      "name": "OwnershipTransferred",
      "type": "event"
    },
    {
      "anonymous": false,
      "inputs": [
        {
          "indexed": true,
          "internalType": "address",
          "name": "from",
          "type": "address"
        },
        {
          "indexed": true,
          "internalType": "address",
          "name": "to",
          "type": "address"
        },
        {
          "indexed": true,
          "internalType": "uint256",
          "name": "tokenId",
          "type": "uint256"
        }
      ],
      "name": "Transfer",
      "type": "event"
    },
    {
      "inputs": [],
      "name": "TOTAL_MAX_QTY",
      "outputs": [
        {
          "internalType": "uint256",
          "name": "",
          "type": "uint256"
        }
      ],
      "stateMutability": "view",
      "type": "function"
    },
    {
      "inputs": [],
      "name": "_merkleRoot",
      "outputs": [
        {
          "internalType": "bytes32",
          "name": "",
          "type": "bytes32"
        }
      ],
      "stateMutability": "view",
      "type": "function"
    },
    {
      "inputs": [
        {
          "internalType": "uint256",
          "name": "id",
          "type": "uint256"
        },
        {
          "internalType": "address[]",
          "name": "users",
          "type": "address[]"
        }
      ],
      "name": "addPlayers",
      "outputs": [],
      "stateMutability": "nonpayable",
      "type": "function"
    },
    {
      "inputs": [
        {
          "internalType": "address",
          "name": "to",
          "type": "address"
        },
        {
          "internalType": "uint256",
          "name": "tokenId",
          "type": "uint256"
        }
      ],
      "name": "approve",
      "outputs": [],
      "stateMutability": "nonpayable",
      "type": "function"
    },
    {
      "inputs": [
        {
          "internalType": "address",
          "name": "owner",
          "type": "address"
        }
      ],
      "name": "balanceOf",
      "outputs": [
        {
          "internalType": "uint256",
          "name": "",
          "type": "uint256"
        }
      ],
      "stateMutability": "view",
      "type": "function"
    },
    {
      "inputs": [
        {
          "internalType": "uint256",
          "name": "",
          "type": "uint256"
        }
      ],
      "name": "dealerToDeadline",
      "outputs": [
        {
          "internalType": "uint256",
          "name": "",
          "type": "uint256"
        }
      ],
      "stateMutability": "view",
      "type": "function"
    },
    {
      "inputs": [
        {
          "internalType": "address",
          "name": "",
          "type": "address"
        }
      ],
      "name": "dealerToId",
      "outputs": [
        {
          "internalType": "uint256",
          "name": "",
          "type": "uint256"
        }
      ],
      "stateMutability": "view",
      "type": "function"
    },
    {
      "inputs": [
        {
          "internalType": "uint256",
          "name": "",
          "type": "uint256"
        }
      ],
      "name": "dealerToPool",
      "outputs": [
        {
          "internalType": "address",
          "name": "",
          "type": "address"
        }
      ],
      "stateMutability": "view",
      "type": "function"
    },
    {
      "inputs": [
        {
          "internalType": "uint256",
          "name": "",
          "type": "uint256"
        }
      ],
      "name": "dealerType",
      "outputs": [
        {
          "internalType": "uint256",
          "name": "",
          "type": "uint256"
        }
      ],
      "stateMutability": "view",
      "type": "function"
    },
    {
      "inputs": [],
      "name": "factory",
      "outputs": [
        {
          "internalType": "address",
          "name": "",
          "type": "address"
        }
      ],
      "stateMutability": "view",
      "type": "function"
    },
    {
      "inputs": [
        {
          "internalType": "uint256",
          "name": "tokenId",
          "type": "uint256"
        }
      ],
      "name": "getApproved",
      "outputs": [
        {
          "internalType": "address",
          "name": "",
          "type": "address"
        }
      ],
      "stateMutability": "view",
      "type": "function"
    },
    {
      "inputs": [
        {
          "internalType": "uint256",
          "name": "id",
          "type": "uint256"
        }
      ],
      "name": "getDealerStatus",
      "outputs": [
        {
          "internalType": "bool",
          "name": "",
          "type": "bool"
        }
      ],
      "stateMutability": "view",
      "type": "function"
    },
    {
      "inputs": [
        {
          "internalType": "address",
          "name": "owner",
          "type": "address"
        },
        {
          "internalType": "address",
          "name": "operator",
          "type": "address"
        }
      ],
      "name": "isApprovedForAll",
      "outputs": [
        {
          "internalType": "bool",
          "name": "",
          "type": "bool"
        }
      ],
      "stateMutability": "view",
      "type": "function"
    },
    {
      "inputs": [
        {
          "internalType": "uint256",
          "name": "index",
          "type": "uint256"
        },
        {
          "internalType": "bytes32[]",
          "name": "merkleProof",
          "type": "bytes32[]"
        }
      ],
      "name": "mint",
      "outputs": [],
      "stateMutability": "nonpayable",
      "type": "function"
    },
    {
      "inputs": [],
      "name": "name",
      "outputs": [
        {
          "internalType": "string",
          "name": "",
          "type": "string"
        }
      ],
      "stateMutability": "view",
      "type": "function"
    },
    {
      "inputs": [],
      "name": "owner",
      "outputs": [
        {
          "internalType": "address",
          "name": "",
          "type": "address"
        }
      ],
      "stateMutability": "view",
      "type": "function"
    },
    {
      "inputs": [
        {
          "internalType": "uint256",
          "name": "tokenId",
          "type": "uint256"
        }
      ],
      "name": "ownerOf",
      "outputs": [
        {
          "internalType": "address",
          "name": "",
          "type": "address"
        }
      ],
      "stateMutability": "view",
      "type": "function"
    },
    {
      "inputs": [],
      "name": "player",
      "outputs": [
        {
          "internalType": "address",
          "name": "",
          "type": "address"
        }
      ],
      "stateMutability": "view",
      "type": "function"
    },
    {
      "inputs": [],
      "name": "renounceOwnership",
      "outputs": [],
      "stateMutability": "nonpayable",
      "type": "function"
    },
    {
      "inputs": [
        {
          "internalType": "address",
          "name": "from",
          "type": "address"
        },
        {
          "internalType": "address",
          "name": "to",
          "type": "address"
        },
        {
          "internalType": "uint256",
          "name": "tokenId",
          "type": "uint256"
        }
      ],
      "name": "safeTransferFrom",
      "outputs": [],
      "stateMutability": "nonpayable",
      "type": "function"
    },
    {
      "inputs": [
        {
          "internalType": "address",
          "name": "from",
          "type": "address"
        },
        {
          "internalType": "address",
          "name": "to",
          "type": "address"
        },
        {
          "internalType": "uint256",
          "name": "tokenId",
          "type": "uint256"
        },
        {
          "internalType": "bytes",
          "name": "data",
          "type": "bytes"
        }
      ],
      "name": "safeTransferFrom",
      "outputs": [],
      "stateMutability": "nonpayable",
      "type": "function"
    },
    {
      "inputs": [
        {
          "internalType": "address",
          "name": "operator",
          "type": "address"
        },
        {
          "internalType": "bool",
          "name": "approved",
          "type": "bool"
        }
      ],
      "name": "setApprovalForAll",
      "outputs": [],
      "stateMutability": "nonpayable",
      "type": "function"
    },
    {
      "inputs": [
        {
          "internalType": "uint256",
          "name": "id",
          "type": "uint256"
        },
        {
          "internalType": "uint256",
          "name": "deadline",
          "type": "uint256"
        }
      ],
      "name": "setDealerToDeadline",
      "outputs": [],
      "stateMutability": "nonpayable",
      "type": "function"
    },
    {
      "inputs": [
        {
          "internalType": "uint256",
          "name": "id",
          "type": "uint256"
        },
        {
          "internalType": "address",
          "name": "pool_",
          "type": "address"
        }
      ],
      "name": "setDealerToPool",
      "outputs": [],
      "stateMutability": "nonpayable",
      "type": "function"
    },
    {
      "inputs": [
        {
          "internalType": "uint256",
          "name": "id",
          "type": "uint256"
        },
        {
          "internalType": "uint256",
          "name": "type_",
          "type": "uint256"
        }
      ],
      "name": "setDealerType",
      "outputs": [],
      "stateMutability": "nonpayable",
      "type": "function"
    },
    {
      "inputs": [
        {
          "internalType": "address",
          "name": "factory_",
          "type": "address"
        }
      ],
      "name": "setFactory",
      "outputs": [],
      "stateMutability": "nonpayable",
      "type": "function"
    },
    {
      "inputs": [
        {
          "internalType": "bytes32",
          "name": "merkleRoot_",
          "type": "bytes32"
        }
      ],
      "name": "setMerkleRoot",
      "outputs": [],
      "stateMutability": "nonpayable",
      "type": "function"
    },
    {
      "inputs": [
        {
          "internalType": "address",
          "name": "player_",
          "type": "address"
        }
      ],
      "name": "setPlayer",
      "outputs": [],
      "stateMutability": "nonpayable",
      "type": "function"
    },
    {
      "inputs": [
        {
          "internalType": "uint256",
          "name": "id",
          "type": "uint256"
        },
        {
          "internalType": "uint256",
          "name": "supply",
          "type": "uint256"
        },
        {
          "internalType": "address[]",
          "name": "users",
          "type": "address[]"
        }
      ],
      "name": "setPlayers",
      "outputs": [],
      "stateMutability": "nonpayable",
      "type": "function"
    },
    {
      "inputs": [
        {
          "internalType": "string",
          "name": "tokenURI_",
          "type": "string"
        }
      ],
      "name": "setTokenURI",
      "outputs": [],
      "stateMutability": "nonpayable",
      "type": "function"
    },
    {
      "inputs": [
        {
          "internalType": "bytes4",
          "name": "interfaceId",
          "type": "bytes4"
        }
      ],
      "name": "supportsInterface",
      "outputs": [
        {
          "internalType": "bool",
          "name": "",
          "type": "bool"
        }
      ],
      "stateMutability": "view",
      "type": "function"
    },
    {
      "inputs": [],
      "name": "symbol",
      "outputs": [
        {
          "internalType": "string",
          "name": "",
          "type": "string"
        }
      ],
      "stateMutability": "view",
      "type": "function"
    },
    {
      "inputs": [
        {
          "internalType": "uint256",
          "name": "tokenId",
          "type": "uint256"
        }
      ],
      "name": "tokenURI",
      "outputs": [
        {
          "internalType": "string",
          "name": "",
          "type": "string"
        }
      ],
      "stateMutability": "view",
      "type": "function"
    },
    {
      "inputs": [
        {
          "internalType": "uint256",
          "name": "",
          "type": "uint256"
        }
      ],
      "name": "tokenURIs",
      "outputs": [
        {
          "internalType": "string",
          "name": "",
          "type": "string"
        }
      ],
      "stateMutability": "view",
      "type": "function"
    },
    {
      "inputs": [],
      "name": "total_supply",
      "outputs": [
        {
          "internalType": "uint256",
          "name": "",
          "type": "uint256"
        }
      ],
      "stateMutability": "view",
      "type": "function"
    },
    {
      "inputs": [
        {
          "internalType": "address",
          "name": "from",
          "type": "address"
        },
        {
          "internalType": "address",
          "name": "to",
          "type": "address"
        },
        {
          "internalType": "uint256",
          "name": "tokenId",
          "type": "uint256"
        }
      ],
      "name": "transferFrom",
      "outputs": [],
      "stateMutability": "nonpayable",
      "type": "function"
    },
    {
      "inputs": [
        {
          "internalType": "address",
          "name": "newOwner",
          "type": "address"
        }
      ],
      "name": "transferOwnership",
      "outputs": [],
      "stateMutability": "nonpayable",
      "type": "function"
    },
    {
      "inputs": [
        {
          "internalType": "address",
          "name": "",
          "type": "address"
        }
      ],
      "name": "userToMint",
      "outputs": [
        {
          "internalType": "uint256",
          "name": "",
          "type": "uint256"
        }
      ],
      "stateMutability": "view",
      "type": "function"
    }
  ],
  "bytecode": "0x60806040523480156200001157600080fd5b506040516200232738038062002327833981016040819052620000349162000244565b82826200004a6200004462000097565b6200009b565b81516200005f906001906020850190620000eb565b50805162000075906002906020840190620000eb565b505081516200008d9150600b906020840190620000eb565b5050505062000324565b3390565b600080546001600160a01b038381166001600160a01b0319831681178455604051919092169283917f8be0079c531659141344cd1fd0a4f28419497f9722a3daafe3b4186f6b6457e09190a35050565b828054620000f990620002d1565b90600052602060002090601f0160209004810192826200011d576000855562000168565b82601f106200013857805160ff191683800117855562000168565b8280016001018555821562000168579182015b82811115620001685782518255916020019190600101906200014b565b50620001769291506200017a565b5090565b5b808211156200017657600081556001016200017b565b600082601f830112620001a2578081fd5b81516001600160401b0380821115620001bf57620001bf6200030e565b604051601f8301601f19908116603f01168101908282118183101715620001ea57620001ea6200030e565b8160405283815260209250868385880101111562000206578485fd5b8491505b838210156200022957858201830151818301840152908201906200020a565b838211156200023a57848385830101525b9695505050505050565b60008060006060848603121562000259578283fd5b83516001600160401b038082111562000270578485fd5b6200027e8783880162000191565b9450602086015191508082111562000294578384fd5b620002a28783880162000191565b93506040860151915080821115620002b8578283fd5b50620002c78682870162000191565b9150509250925092565b600281046001821680620002e657607f821691505b602082108114156200030857634e487b7160e01b600052602260045260246000fd5b50919050565b634e487b7160e01b600052604160045260246000fd5b611ff380620003346000396000f3fe608060405234801561001057600080fd5b50600436106102325760003560e01c80637cb6475911610130578063ba41b0c6116100b8578063e0df5b6f1161007c578063e0df5b6f14610486578063e985e9c514610499578063e9d4aae3146104ac578063f2fde38b146104bf578063fa2085cf146104d257610232565b8063ba41b0c61461043d578063bc8d3ac414610450578063c45a015514610463578063c87b56dd1461046b578063dee816e61461047e57610232565b8063a22cb465116100ff578063a22cb465146103de578063b49d53a2146103f1578063b6ae639514610404578063b88d4fde14610417578063b8dd2d481461042a57610232565b80637cb64759146103a85780638da5cb5b146103bb57806395d89b41146103c35780639a31e58d146103cb57610232565b806338d9f74f116101be5780635bb47808116101825780635bb47808146103545780636352211e146103675780636c8b703f1461037a57806370a082311461038d578063715018a6146103a057610232565b806338d9f74f1461030b5780633940e9ee1461031e57806342842e0e1461032657806348db5f89146103395780634ad39fae1461034157610232565b8063142b892211610205578063142b8922146102aa57806323b872dd146102bd5780632fc37ab2146102d057806331df5670146102e557806336aa433d146102f857610232565b806301ffc9a71461023757806306fdde0314610260578063081812fc14610275578063095ea7b314610295575b600080fd5b61024a61024536600461175b565b6104e5565b6040516102579190611a18565b60405180910390f35b61026861052d565b6040516102579190611a2c565b610288610283366004611743565b6105bf565b6040516102579190611976565b6102a86102a336600461171a565b6105e6565b005b6102a86102b83660046118b9565b610687565b6102a86102cb36600461162c565b6106d2565b6102d861070a565b6040516102579190611a23565b6102a86102f33660046117fb565b610710565b610288610306366004611743565b6107d6565b6102a86103193660046118b9565b6107f1565b6102d861084e565b6102a861033436600461162c565b610854565b61028861086f565b6102d861034f3660046115e0565b61087e565b6102a86103623660046115e0565b610890565b610288610375366004611743565b6108ba565b610268610388366004611743565b6108ee565b6102d861039b3660046115e0565b610988565b6102a86109cc565b6102a86103b6366004611743565b6109e0565b6102886109ed565b6102686109fc565b6102d86103d9366004611743565b610a0b565b6102a86103ec3660046116e0565b610a1d565b6102a86103ff3660046118da565b610a33565b6102d86104123660046115e0565b610b5e565b6102a8610425366004611667565b610b70565b6102a86104383660046117d9565b610baf565b6102a861044b366004611840565b610c07565b6102a861045e3660046115e0565b610c79565b610288610ca3565b610268610479366004611743565b610cb2565b6102d8610d2d565b6102a8610494366004611793565b610d32565b61024a6104a73660046115fa565b610d45565b6102d86104ba366004611743565b610d73565b6102a86104cd3660046115e0565b610d85565b61024a6104e0366004611743565b610dbf565b60006001600160e01b031982166380ac58cd60e01b148061051657506001600160e01b03198216635b5e139f60e01b145b80610525575061052582610deb565b90505b919050565b60606001805461053c90611f56565b80601f016020809104026020016040519081016040528092919081815260200182805461056890611f56565b80156105b55780601f1061058a576101008083540402835291602001916105b5565b820191906000526020600020905b81548152906001019060200180831161059857829003601f168201915b5050505050905090565b60006105ca82610e04565b506000908152600560205260409020546001600160a01b031690565b60006105f1826108ba565b9050806001600160a01b0316836001600160a01b0316141561062e5760405162461bcd60e51b815260040161062590611e04565b60405180910390fd5b806001600160a01b0316610640610e29565b6001600160a01b0316148061065c575061065c816104a7610e29565b6106785760405162461bcd60e51b815260040161062590611e6a565b6106828383610e2d565b505050565b6000828152600f602052604090205482906001600160a01b031633146106bf5760405162461bcd60e51b815260040161062590611afb565b5060009182526010602052604090912055565b6106e36106dd610e29565b82610e9b565b6106ff5760405162461bcd60e51b815260040161062590611a5c565b610682838383610efa565b60095481565b3361071a836108ba565b6001600160a01b0316146107405760405162461bcd60e51b815260040161062590611d1e565b60008281526010602052604090205442101561076e5760405162461bcd60e51b815260040161062590611c7a565b600754604051633a999a5b60e21b81526001600160a01b039091169063ea66696c906107a090849086906004016119c7565b600060405180830381600087803b1580156107ba57600080fd5b505af11580156107ce573d6000803e3d6000fd5b505050505050565b600f602052600090815260409020546001600160a01b031681565b6008546001600160a01b031633148061082057506000828152600f60205260409020546001600160a01b031633145b61083c5760405162461bcd60e51b815260040161062590611a3f565b6000918252600e602052604090912055565b600a5481565b61068283838360405180602001604052806000815250610b70565b6007546001600160a01b031681565b600c6020526000908152604090205481565b610898611037565b600880546001600160a01b0319166001600160a01b0392909216919091179055565b6000806108c683611076565b90506001600160a01b0381166105255760405162461bcd60e51b815260040161062590611dcd565b600d602052600090815260409020805461090790611f56565b80601f016020809104026020016040519081016040528092919081815260200182805461093390611f56565b80156109805780601f1061095557610100808354040283529160200191610980565b820191906000526020600020905b81548152906001019060200180831161096357829003601f168201915b505050505081565b60006001600160a01b0382166109b05760405162461bcd60e51b815260040161062590611ca0565b506001600160a01b031660009081526004602052604090205490565b6109d4611037565b6109de6000611091565b565b6109e8611037565b600955565b6000546001600160a01b031690565b60606002805461053c90611f56565b600e6020526000908152604090205481565b610a2f610a28610e29565b83836110e1565b5050565b33610a3d846108ba565b6001600160a01b031614610a635760405162461bcd60e51b815260040161062590611d1e565b600083815260106020526040902054421015610a915760405162461bcd60e51b815260040161062590611c7a565b6007546040516337b5c26760e11b81526001600160a01b0390911690636f6b84ce90610ac39086908690600401611ec7565b600060405180830381600087803b158015610add57600080fd5b505af1158015610af1573d6000803e3d6000fd5b5050600754604051633a999a5b60e21b81526001600160a01b03909116925063ea66696c9150610b2790849087906004016119c7565b600060405180830381600087803b158015610b4157600080fd5b505af1158015610b55573d6000803e3d6000fd5b50505050505050565b60116020526000908152604090205481565b610b81610b7b610e29565b83610e9b565b610b9d5760405162461bcd60e51b815260040161062590611a5c565b610ba984848484611184565b50505050565b6008546001600160a01b03163314610bd95760405162461bcd60e51b815260040161062590611e45565b6000918252600f602052604090912080546001600160a01b0319166001600160a01b03909216919091179055565b3360009081526011602052604090205415610c345760405162461bcd60e51b815260040161062590611bdf565b600a54610c42906001611f06565b600a819055610c529033906111b7565b5050600a54336000908152600c602090815260408083209390935560119052206001905550565b610c81611037565b600780546001600160a01b0319166001600160a01b0392909216919091179055565b6008546001600160a01b031681565b6060610cbd826111d1565b610cd95760405162461bcd60e51b815260040161062590611d7e565b6000610ce36111ee565b90506000815111610d035760405180602001604052806000815250610d26565b8083604051602001610d16929190611954565b6040516020818303038152906040525b9392505050565b606481565b8051610a2f90600b90602084019061144f565b6001600160a01b03918216600090815260066020908152604080832093909416825291909152205460ff1690565b60106020526000908152604090205481565b610d8d611037565b6001600160a01b038116610db35760405162461bcd60e51b815260040161062590611b1d565b610dbc81611091565b50565b600081815260106020526040812054421180156105255750506000908152600e60205260409020541590565b6001600160e01b031981166301ffc9a760e01b14919050565b610e0d816111d1565b610dbc5760405162461bcd60e51b815260040161062590611dcd565b3390565b600081815260056020526040902080546001600160a01b0319166001600160a01b0384169081179091558190610e62826108ba565b6001600160a01b03167f8c5be1e5ebec7d5bd14f71427d1e84f3dd0314c0f7b2291e5b200ac8c7c3b92560405160405180910390a45050565b600080610ea7836108ba565b9050806001600160a01b0316846001600160a01b03161480610ece5750610ece8185610d45565b80610ef25750836001600160a01b0316610ee7846105bf565b6001600160a01b0316145b949350505050565b826001600160a01b0316610f0d826108ba565b6001600160a01b031614610f335760405162461bcd60e51b815260040161062590611b63565b6001600160a01b038216610f595760405162461bcd60e51b815260040161062590611bff565b610f668383836001610ba9565b826001600160a01b0316610f79826108ba565b6001600160a01b031614610f9f5760405162461bcd60e51b815260040161062590611b63565b600081815260056020908152604080832080546001600160a01b03199081169091556001600160a01b0387811680865260048552838620805460001901905590871680865283862080546001019055868652600390945282852080549092168417909155905184937fddf252ad1be2c89b69c2b068fc378daa952ba7f163c4a11628f55a4df523b3ef91a46106828383836001610ba9565b61103f610e29565b6001600160a01b03166110506109ed565b6001600160a01b0316146109de5760405162461bcd60e51b815260040161062590611d49565b6000908152600360205260409020546001600160a01b031690565b600080546001600160a01b038381166001600160a01b0319831681178455604051919092169283917f8be0079c531659141344cd1fd0a4f28419497f9722a3daafe3b4186f6b6457e09190a35050565b816001600160a01b0316836001600160a01b031614156111135760405162461bcd60e51b815260040161062590611c43565b6001600160a01b0383811660008181526006602090815260408083209487168084529490915290819020805460ff1916851515179055517f17307eab39ab6107e8899845ad3d59bd9653f200f220920489ca2b5937696c3190611177908590611a18565b60405180910390a3505050565b61118f848484610efa565b61119b848484846111fd565b610ba95760405162461bcd60e51b815260040161062590611aa9565b610a2f828260405180602001604052806000815250611318565b6000806111dd83611076565b6001600160a01b0316141592915050565b6060600b805461053c90611f56565b6000611211846001600160a01b031661134b565b1561130d57836001600160a01b031663150b7a0261122d610e29565b8786866040518563ffffffff1660e01b815260040161124f949392919061198a565b602060405180830381600087803b15801561126957600080fd5b505af1925050508015611299575060408051601f3d908101601f1916820190925261129691810190611777565b60015b6112f3573d8080156112c7576040519150601f19603f3d011682016040523d82523d6000602084013e6112cc565b606091505b5080516112eb5760405162461bcd60e51b815260040161062590611aa9565b805181602001fd5b6001600160e01b031916630a85bd0160e11b149050610ef2565b506001949350505050565b611322838361135a565b61132f60008484846111fd565b6106825760405162461bcd60e51b815260040161062590611aa9565b6001600160a01b03163b151590565b6001600160a01b0382166113805760405162461bcd60e51b815260040161062590611ce9565b611389816111d1565b156113a65760405162461bcd60e51b815260040161062590611ba8565b6113b4600083836001610ba9565b6113bd816111d1565b156113da5760405162461bcd60e51b815260040161062590611ba8565b6001600160a01b038216600081815260046020908152604080832080546001019055848352600390915280822080546001600160a01b0319168417905551839291907fddf252ad1be2c89b69c2b068fc378daa952ba7f163c4a11628f55a4df523b3ef908290a4610a2f600083836001610ba9565b82805461145b90611f56565b90600052602060002090601f01602090048101928261147d57600085556114c3565b82601f1061149657805160ff19168380011785556114c3565b828001600101855582156114c3579182015b828111156114c35782518255916020019190600101906114a8565b506114cf9291506114d3565b5090565b5b808211156114cf57600081556001016114d4565b600067ffffffffffffffff83111561150257611502611f91565b611515601f8401601f1916602001611ed5565b905082815283838301111561152957600080fd5b828260208301376000602084830101529392505050565b80356001600160a01b038116811461052857600080fd5b600082601f830112611567578081fd5b8135602067ffffffffffffffff82111561158357611583611f91565b808202611591828201611ed5565b8381528281019086840183880185018910156115ab578687fd5b8693505b858410156115d4576115c081611540565b8352600193909301929184019184016115af565b50979650505050505050565b6000602082840312156115f1578081fd5b610d2682611540565b6000806040838503121561160c578081fd5b61161583611540565b915061162360208401611540565b90509250929050565b600080600060608486031215611640578081fd5b61164984611540565b925061165760208501611540565b9150604084013590509250925092565b6000806000806080858703121561167c578081fd5b61168585611540565b935061169360208601611540565b925060408501359150606085013567ffffffffffffffff8111156116b5578182fd5b8501601f810187136116c5578182fd5b6116d4878235602084016114e8565b91505092959194509250565b600080604083850312156116f2578182fd5b6116fb83611540565b91506020830135801515811461170f578182fd5b809150509250929050565b6000806040838503121561172c578182fd5b61173583611540565b946020939093013593505050565b600060208284031215611754578081fd5b5035919050565b60006020828403121561176c578081fd5b8135610d2681611fa7565b600060208284031215611788578081fd5b8151610d2681611fa7565b6000602082840312156117a4578081fd5b813567ffffffffffffffff8111156117ba578182fd5b8201601f810184136117ca578182fd5b610ef2848235602084016114e8565b600080604083850312156117eb578081fd5b8235915061162360208401611540565b6000806040838503121561180d578182fd5b82359150602083013567ffffffffffffffff81111561182a578182fd5b61183685828601611557565b9150509250929050565b600080600060408486031215611854578081fd5b83359250602084013567ffffffffffffffff80821115611872578283fd5b818601915086601f830112611885578283fd5b813581811115611893578384fd5b87602080830285010111156118a6578384fd5b6020830194508093505050509250925092565b600080604083850312156118cb578182fd5b50508035926020909101359150565b6000806000606084860312156118ee578081fd5b8335925060208401359150604084013567ffffffffffffffff811115611912578182fd5b61191e86828701611557565b9150509250925092565b60008151808452611940816020860160208601611f2a565b601f01601f19169290920160200192915050565b60008351611966818460208801611f2a565b9190910191825250602001919050565b6001600160a01b0391909116815260200190565b6001600160a01b03858116825284166020820152604081018390526080606082018190526000906119bd90830184611928565b9695505050505050565b604080825283519082018190526000906020906060840190828701845b82811015611a095781516001600160a01b0316845292840192908401906001016119e4565b50505092019290925292915050565b901515815260200190565b90815260200190565b600060208252610d266020830184611928565b6020808252600390820152624e4f2160e81b604082015260600190565b6020808252602d908201527f4552433732313a2063616c6c6572206973206e6f7420746f6b656e206f776e6560408201526c1c881bdc88185c1c1c9bdd9959609a1b606082015260800190565b60208082526032908201527f4552433732313a207472616e7366657220746f206e6f6e20455243373231526560408201527131b2b4bb32b91034b6b83632b6b2b73a32b960711b606082015260800190565b6020808252600890820152671b9bdd081c1bdbdb60c21b604082015260600190565b60208082526026908201527f4f776e61626c653a206e6577206f776e657220697320746865207a65726f206160408201526564647265737360d01b606082015260800190565b60208082526025908201527f4552433732313a207472616e736665722066726f6d20696e636f72726563742060408201526437bbb732b960d91b606082015260800190565b6020808252601c908201527f4552433732313a20746f6b656e20616c7265616479206d696e74656400000000604082015260600190565b60208082526006908201526514995c19585d60d21b604082015260600190565b60208082526024908201527f4552433732313a207472616e7366657220746f20746865207a65726f206164646040820152637265737360e01b606082015260800190565b60208082526019908201527f4552433732313a20617070726f766520746f2063616c6c657200000000000000604082015260600190565b6020808252600c908201526b6e6674206973207573696e6760a01b604082015260600190565b60208082526029908201527f4552433732313a2061646472657373207a65726f206973206e6f7420612076616040820152683634b21037bbb732b960b91b606082015260800190565b6020808252818101527f4552433732313a206d696e7420746f20746865207a65726f2061646472657373604082015260600190565b6020808252601190820152706e6674206f776e6572206e6f7420796f7560781b604082015260600190565b6020808252818101527f4f776e61626c653a2063616c6c6572206973206e6f7420746865206f776e6572604082015260600190565b6020808252602f908201527f4552433732314d657461646174613a2055524920717565727920666f72206e6f60408201526e3732bc34b9ba32b73a103a37b5b2b760891b606082015260800190565b60208082526018908201527f4552433732313a20696e76616c696420746f6b656e2049440000000000000000604082015260600190565b60208082526021908201527f4552433732313a20617070726f76616c20746f2063757272656e74206f776e656040820152603960f91b606082015260800190565b6020808252600b908201526a6e6f7420666163746f727960a81b604082015260600190565b6020808252603d908201527f4552433732313a20617070726f76652063616c6c6572206973206e6f7420746f60408201527f6b656e206f776e6572206f7220617070726f76656420666f7220616c6c000000606082015260800190565b918252602082015260400190565b604051601f8201601f1916810167ffffffffffffffff81118282101715611efe57611efe611f91565b604052919050565b60008219821115611f2557634e487b7160e01b81526011600452602481fd5b500190565b60005b83811015611f45578181015183820152602001611f2d565b83811115610ba95750506000910152565b600281046001821680611f6a57607f821691505b60208210811415611f8b57634e487b7160e01b600052602260045260246000fd5b50919050565b634e487b7160e01b600052604160045260246000fd5b6001600160e01b031981168114610dbc57600080fdfea2646970667358221220b1b6f3d1bf4c55c4cd752e1f728aa61fc48cbaaf710619ec895d5f2e05369ef864736f6c63430008010033",
  "linkReferences": {},
  "deployedLinkReferences": {}
}