{
  "contractName": "Factory",
  "abi": [
    {
      "inputs": [
        {
          "internalType": "uint256",
          "name": "marginRatio_",
          "type": "uint256"
        },
        {
          "internalType": "uint256",
          "name": "protocolFee_",
          "type": "uint256"
        },
        {
          "internalType": "uint256",
          "name": "liqProtocolFee_",
          "type": "uint256"
        },
        {
          "internalType": "address",
          "name": "priceAddress_",
          "type": "address"
        },
        {
          "internalType": "address",
          "name": "protocolReceipt_",
          "type": "address"
        }
      ],
      "stateMutability": "nonpayable",
      "type": "constructor"
    },
    {
      "anonymous": false,
      "inputs": [
        {
          "indexed": false,
          "internalType": "address",
          "name": "pool",
          "type": "address"
        },
        {
          "indexed": false,
          "internalType": "address",
          "name": "payToken",
          "type": "address"
        },
        {
          "indexed": false,
          "internalType": "address",
          "name": "oracle",
          "type": "address"
        },
        {
          "indexed": false,
          "internalType": "bool",
          "name": "reverse",
          "type": "bool"
        },
        {
          "indexed": false,
          "internalType": "uint8",
          "name": "typ",
          "type": "uint8"
        },
        {
          "indexed": false,
          "internalType": "uint256",
          "name": "id",
          "type": "uint256"
        }
      ],
      "name": "CreatePool",
      "type": "event"
    },
    {
      "anonymous": false,
      "inputs": [
        {
          "indexed": true,
          "internalType": "address",
          "name": "previousOwner",
          "type": "address"
        },
        {
          "indexed": true,
          "internalType": "address",
          "name": "newOwner",
          "type": "address"
        }
      ],
      "name": "OwnershipTransferred",
      "type": "event"
    },
    {
      "anonymous": false,
      "inputs": [
        {
          "indexed": false,
          "internalType": "uint256",
          "name": "liqProtocolFee",
          "type": "uint256"
        }
      ],
      "name": "SetLiqProtocolFee",
      "type": "event"
    },
    {
      "anonymous": false,
      "inputs": [
        {
          "indexed": false,
          "internalType": "uint256",
          "name": "marginRatio",
          "type": "uint256"
        }
      ],
      "name": "SetMarginRatio",
      "type": "event"
    },
    {
      "anonymous": false,
      "inputs": [
        {
          "indexed": false,
          "internalType": "address",
          "name": "priceAddress",
          "type": "address"
        }
      ],
      "name": "SetPriceAddress",
      "type": "event"
    },
    {
      "anonymous": false,
      "inputs": [
        {
          "indexed": false,
          "internalType": "uint256",
          "name": "protocolFee",
          "type": "uint256"
        }
      ],
      "name": "SetProtocolFee",
      "type": "event"
    },
    {
      "anonymous": false,
      "inputs": [
        {
          "indexed": false,
          "internalType": "address",
          "name": "protocolReceipt",
          "type": "address"
        }
      ],
      "name": "SetProtocolReceipt",
      "type": "event"
    },
    {
      "inputs": [],
      "name": "dealer",
      "outputs": [
        {
          "internalType": "address",
          "name": "",
          "type": "address"
        }
      ],
      "stateMutability": "view",
      "type": "function",
      "constant": true
    },
    {
      "inputs": [],
      "name": "liqProtocolFee",
      "outputs": [
        {
          "internalType": "uint256",
          "name": "",
          "type": "uint256"
        }
      ],
      "stateMutability": "view",
      "type": "function",
      "constant": true
    },
    {
      "inputs": [],
      "name": "marginRatio",
      "outputs": [
        {
          "internalType": "uint256",
          "name": "",
          "type": "uint256"
        }
      ],
      "stateMutability": "view",
      "type": "function",
      "constant": true
    },
    {
      "inputs": [],
      "name": "owner",
      "outputs": [
        {
          "internalType": "address",
          "name": "",
          "type": "address"
        }
      ],
      "stateMutability": "view",
      "type": "function",
      "constant": true
    },
    {
      "inputs": [],
      "name": "player",
      "outputs": [
        {
          "internalType": "address",
          "name": "",
          "type": "address"
        }
      ],
      "stateMutability": "view",
      "type": "function",
      "constant": true
    },
    {
      "inputs": [
        {
          "internalType": "address",
          "name": "",
          "type": "address"
        }
      ],
      "name": "pools",
      "outputs": [
        {
          "internalType": "bool",
          "name": "",
          "type": "bool"
        }
      ],
      "stateMutability": "view",
      "type": "function",
      "constant": true
    },
    {
      "inputs": [],
      "name": "priceAddress",
      "outputs": [
        {
          "internalType": "address",
          "name": "",
          "type": "address"
        }
      ],
      "stateMutability": "view",
      "type": "function",
      "constant": true
    },
    {
      "inputs": [],
      "name": "protocolFee",
      "outputs": [
        {
          "internalType": "uint256",
          "name": "",
          "type": "uint256"
        }
      ],
      "stateMutability": "view",
      "type": "function",
      "constant": true
    },
    {
      "inputs": [],
      "name": "protocolReceipt",
      "outputs": [
        {
          "internalType": "address",
          "name": "",
          "type": "address"
        }
      ],
      "stateMutability": "view",
      "type": "function",
      "constant": true
    },
    {
      "inputs": [],
      "name": "renounceOwnership",
      "outputs": [],
      "stateMutability": "nonpayable",
      "type": "function"
    },
    {
      "inputs": [
        {
          "internalType": "address",
          "name": "newOwner",
          "type": "address"
        }
      ],
      "name": "transferOwnership",
      "outputs": [],
      "stateMutability": "nonpayable",
      "type": "function"
    },
    {
      "inputs": [
        {
          "internalType": "uint256",
          "name": "id",
          "type": "uint256"
        },
        {
          "internalType": "address",
          "name": "payToken",
          "type": "address"
        },
        {
          "internalType": "address",
          "name": "oracle",
          "type": "address"
        },
        {
          "internalType": "bool",
          "name": "reverse",
          "type": "bool"
        },
        {
          "internalType": "uint8",
          "name": "typ",
          "type": "uint8"
        }
      ],
      "name": "createPool",
      "outputs": [],
      "stateMutability": "nonpayable",
      "type": "function"
    },
    {
      "inputs": [
        {
          "internalType": "address",
          "name": "dealer_",
          "type": "address"
        }
      ],
      "name": "setDealer",
      "outputs": [],
      "stateMutability": "nonpayable",
      "type": "function"
    },
    {
      "inputs": [
        {
          "internalType": "address",
          "name": "player_",
          "type": "address"
        }
      ],
      "name": "setPlayer",
      "outputs": [],
      "stateMutability": "nonpayable",
      "type": "function"
    },
    {
      "inputs": [
        {
          "internalType": "uint256",
          "name": "marginRatio_",
          "type": "uint256"
        }
      ],
      "name": "setMarginRatio",
      "outputs": [],
      "stateMutability": "nonpayable",
      "type": "function"
    },
    {
      "inputs": [
        {
          "internalType": "uint256",
          "name": "protocolFee_",
          "type": "uint256"
        }
      ],
      "name": "setProtocolFee",
      "outputs": [],
      "stateMutability": "nonpayable",
      "type": "function"
    },
    {
      "inputs": [
        {
          "internalType": "uint256",
          "name": "liqProtocolFee_",
          "type": "uint256"
        }
      ],
      "name": "setLiqProtocolFee",
      "outputs": [],
      "stateMutability": "nonpayable",
      "type": "function"
    },
    {
      "inputs": [
        {
          "internalType": "address",
          "name": "priceAddress_",
          "type": "address"
        }
      ],
      "name": "setPriceAddress",
      "outputs": [],
      "stateMutability": "nonpayable",
      "type": "function"
    },
    {
      "inputs": [
        {
          "internalType": "address",
          "name": "protocolReceipt_",
          "type": "address"
        }
      ],
      "name": "setProtocolReceipt",
      "outputs": [],
      "stateMutability": "nonpayable",
      "type": "function"
    }
  ],
  "bytecode": "0x60806040523480156200001157600080fd5b506040516200451d3803806200451d833981016040819052620000349162000221565b6200004862000042620001b0565b620001b4565b600385905560048490556005839055600680546001600160a01b038085166001600160a01b03199283161790925560078054928416929091169190911790556040517f60e314eb1dcc14680ab3be0aaa5b70ea0d3828f11e6bcb38305fea8bbf2d49cc90620000b990879062000289565b60405180910390a17fdc0410a296e1e33943a772020d333d5f99319d7fcad932a484c53889f7aaa2b184604051620000f2919062000289565b60405180910390a17ffec3e2cce26c0fccf827d7f8d326ecb9f37ad07b47912dc290d75e165e8e61ae836040516200012b919062000289565b60405180910390a17fbe0f8c41260e53f3d847406e8870c8588bfe623a76be606cd46ae47e58d466a98260405162000164919062000275565b60405180910390a17fbc1e06e494fbfeb91b3fd39ead6160a6246fef341f5352a61918c05bf42cf98e816040516200019d919062000275565b60405180910390a1505050505062000292565b3390565b600080546001600160a01b038381166001600160a01b0319831681178455604051919092169283917f8be0079c531659141344cd1fd0a4f28419497f9722a3daafe3b4186f6b6457e09190a35050565b80516001600160a01b03811681146200021c57600080fd5b919050565b600080600080600060a0868803121562000239578081fd5b855194506020860151935060408601519250620002596060870162000204565b9150620002696080870162000204565b90509295509295909350565b6001600160a01b0391909116815260200190565b90815260200190565b61427b80620002a26000396000f3fe60806040523480156200001157600080fd5b5060043610620001185760003560e01c806390666ff911620000ab57806390666ff914620001d4578063959901a414620001de5780639de2ee2114620001f5578063a4063dbc14620001ff578063ac02c0bd1462000225578063b0e21e8a146200022f578063b5013b4f1462000239578063b6d7a1c91462000250578063bc8d3ac41462000267578063f2fde38b146200027e5762000118565b80631e665f32146200011d5780632d31c16e14620001365780633a267ea3146200015857806348db5f89146200017157806369145d6e146200017b578063715018a61462000192578063787dce3d146200019c578063872d136a14620001b35780638da5cb5b14620001ca575b600080fd5b620001346200012e36600462000929565b62000295565b005b62000140620002c1565b6040516200014f919062000b57565b60405180910390f35b62000162620002c7565b6040516200014f919062000a1a565b62000162620002d6565b620001346200018c36600462000929565b620002e5565b6200013462000347565b62000134620001ad3660046200098d565b6200035f565b62000134620001c436600462000929565b620003a0565b62000162620003f7565b6200016262000406565b62000134620001ef3660046200098d565b62000415565b6200016262000456565b620002166200021036600462000929565b62000465565b6040516200014f919062000aad565b620001406200047a565b6200014062000480565b620001346200024a366004620009a6565b62000486565b62000134620002613660046200098d565b620007d3565b620001346200027836600462000929565b62000814565b620001346200028f36600462000929565b62000840565b6200029f62000881565b600180546001600160a01b0319166001600160a01b0392909216919091179055565b60035481565b6007546001600160a01b031681565b6002546001600160a01b031681565b620002ef62000881565b600780546001600160a01b0319166001600160a01b0383161790556040517fbc1e06e494fbfeb91b3fd39ead6160a6246fef341f5352a61918c05bf42cf98e906200033c90839062000a1a565b60405180910390a150565b6200035162000881565b6200035d6000620008c7565b565b6200036962000881565b60048190556040517fdc0410a296e1e33943a772020d333d5f99319d7fcad932a484c53889f7aaa2b1906200033c90839062000b57565b620003aa62000881565b600680546001600160a01b0319166001600160a01b0383161790556040517fbe0f8c41260e53f3d847406e8870c8588bfe623a76be606cd46ae47e58d466a9906200033c90839062000a1a565b6000546001600160a01b031690565b6006546001600160a01b031681565b6200041f62000881565b60058190556040517ffec3e2cce26c0fccf827d7f8d326ecb9f37ad07b47912dc290d75e165e8e61ae906200033c90839062000b57565b6001546001600160a01b031681565b60086020526000908152604090205460ff1681565b60055481565b60045481565b60015460405163fa2085cf60e01b815286916001600160a01b03169063fa2085cf90620004b890849060040162000b57565b60206040518083038186803b158015620004d157600080fd5b505afa158015620004e6573d6000803e3d6000fd5b505050506040513d601f19601f820116820180604052508101906200050c91906200096e565b8015620005a557506001546040516331a9108f60e11b815233916001600160a01b031690636352211e906200054690859060040162000b57565b60206040518083038186803b1580156200055f57600080fd5b505afa15801562000574573d6000803e3d6000fd5b505050506040513d601f19601f820116820180604052508101906200059a91906200094f565b6001600160a01b0316145b620005cd5760405162461bcd60e51b8152600401620005c49062000afe565b60405180910390fd5b60015460025460405160009288928892889288928d926001600160a01b039283169290911690620005fe906200091b565b62000610979695949392919062000a6b565b604051809103906000f0801580156200062d573d6000803e3d6000fd5b509050806001600160a01b031663f2fde38b62000649620003f7565b6040518263ffffffff1660e01b815260040162000667919062000a1a565b600060405180830381600087803b1580156200068257600080fd5b505af115801562000697573d6000803e3d6000fd5b5050506001600160a01b0380831660009081526008602052604090819020805460ff1916600190811790915554905163171ba5a960e31b81529116915063b8dd2d4890620006ec908a90859060040162000b60565b600060405180830381600087803b1580156200070757600080fd5b505af11580156200071c573d6000803e3d6000fd5b5050600180546040516338d9f74f60e01b81526001600160a01b0390911693506338d9f74f925062000753918b9160040162000b77565b600060405180830381600087803b1580156200076e57600080fd5b505af115801562000783573d6000803e3d6000fd5b505050507fe72bfaacd17ad20bb1c314226e04028654a384df25fbbcedd65f92589b286e7f81878787878c604051620007c29695949392919062000a2e565b60405180910390a150505050505050565b620007dd62000881565b60038190556040517f60e314eb1dcc14680ab3be0aaa5b70ea0d3828f11e6bcb38305fea8bbf2d49cc906200033c90839062000b57565b6200081e62000881565b600280546001600160a01b0319166001600160a01b0392909216919091179055565b6200084a62000881565b6001600160a01b038116620008735760405162461bcd60e51b8152600401620005c49062000ab8565b6200087e81620008c7565b50565b6200088b62000917565b6001600160a01b03166200089e620003f7565b6001600160a01b0316146200035d5760405162461bcd60e51b8152600401620005c49062000b22565b600080546001600160a01b038381166001600160a01b0319831681178455604051919092169283917f8be0079c531659141344cd1fd0a4f28419497f9722a3daafe3b4186f6b6457e09190a35050565b3390565b61369b8062000bab83390190565b6000602082840312156200093b578081fd5b8135620009488162000b85565b9392505050565b60006020828403121562000961578081fd5b8151620009488162000b85565b60006020828403121562000980578081fd5b8151620009488162000b9b565b6000602082840312156200099f578081fd5b5035919050565b600080600080600060a08688031215620009be578081fd5b853594506020860135620009d28162000b85565b93506040860135620009e48162000b85565b92506060860135620009f68162000b9b565b9150608086013560ff8116811462000a0c578182fd5b809150509295509295909350565b6001600160a01b0391909116815260200190565b6001600160a01b03968716815294861660208601529290941660408401521515606083015260ff909216608082015260a081019190915260c00190565b6001600160a01b0397881681529587166020870152931515604086015260ff9290921660608501526080840152831660a083015290911660c082015260e00190565b901515815260200190565b60208082526026908201527f4f776e61626c653a206e6577206f776e657220697320746865207a65726f206160408201526564647265737360d01b606082015260800190565b6020808252600a90820152693737ba102232b0b632b960b11b604082015260600190565b6020808252818101527f4f776e61626c653a2063616c6c6572206973206e6f7420746865206f776e6572604082015260600190565b90815260200190565b9182526001600160a01b0316602082015260400190565b918252602082015260400190565b6001600160a01b03811681146200087e57600080fd5b80151581146200087e57600080fdfe6080604052600e8054600160a01b600160e01b03191690556000600f553480156200002957600080fd5b506040516200369b3803806200369b8339810160408190526200004c9162000685565b620000606200005a620005f0565b620005f4565b600280546001600160a01b038085166001600160a01b03199283161790925560018054848416908316179055600385905560088054928a1692909116919091179055604080516390666ff960e01b81529051339182916390666ff991600480820192602092909190829003018186803b158015620000dd57600080fd5b505afa158015620000f2573d6000803e3d6000fd5b505050506040513d601f19601f8201168201806040525081019062000118919062000661565b600e80546001600160a01b0319166001600160a01b0392831617908190556040516310cd532560e01b81529116906310cd53259062000160908a9089908b9060040162000736565b600060405180830381600087803b1580156200017b57600080fd5b505af115801562000190573d6000803e3d6000fd5b5050505060405180608001604052806000815260200160008152602001600e60009054906101000a90046001600160a01b03166001600160a01b03166398d5fdca6040518163ffffffff1660e01b815260040160206040518083038186803b158015620001fc57600080fd5b505afa15801562000211573d6000803e3d6000fd5b505050506040513d601f19601f820116820180604052508101906200023791906200071d565b815260006020918201819052825160115582820151601255604080840151601355606093840151601455805160a08101825282815280840183905280820192909252600e548151634c6afee560e11b8152915192948501936001600160a01b03909116926398d5fdca926004808201939291829003018186803b158015620002be57600080fd5b505afa158015620002d3573d6000803e3d6000fd5b505050506040513d601f19601f82011682018060405250810190620002f991906200071d565b8152600060209182015281516015558181015160165560408083015160175560608301516018556080909201516019558151631698e0b760e11b815291516001600160a01b03841692632d31c16e926004828101939192829003018186803b1580156200036557600080fd5b505afa1580156200037a573d6000803e3d6000fd5b505050506040513d601f19601f82011682018060405250810190620003a091906200071d565b600a81905550806001600160a01b031663b0e21e8a6040518163ffffffff1660e01b815260040160206040518083038186803b158015620003e057600080fd5b505afa158015620003f5573d6000803e3d6000fd5b505050506040513d601f19601f820116820180604052508101906200041b91906200071d565b600b81905550806001600160a01b031663ac02c0bd6040518163ffffffff1660e01b815260040160206040518083038186803b1580156200045b57600080fd5b505afa15801562000470573d6000803e3d6000fd5b505050506040513d601f19601f820116820180604052508101906200049691906200071d565b600c81905550806001600160a01b0316633a267ea36040518163ffffffff1660e01b815260040160206040518083038186803b158015620004d657600080fd5b505afa158015620004eb573d6000803e3d6000fd5b505050506040513d601f19601f8201168201806040525081019062000511919062000661565b600d80546001600160a01b0319166001600160a01b0392909216919091179055600a546040517f60e314eb1dcc14680ab3be0aaa5b70ea0d3828f11e6bcb38305fea8bbf2d49cc9162000564916200075c565b60405180910390a17fdc0410a296e1e33943a772020d333d5f99319d7fcad932a484c53889f7aaa2b1600b546040516200059f91906200075c565b60405180910390a17ffec3e2cce26c0fccf827d7f8d326ecb9f37ad07b47912dc290d75e165e8e61ae600c54604051620005da91906200075c565b60405180910390a1505050505050505062000765565b3390565b600080546001600160a01b038381166001600160a01b0319831681178455604051919092169283917f8be0079c531659141344cd1fd0a4f28419497f9722a3daafe3b4186f6b6457e09190a35050565b80516001600160a01b03811681146200065c57600080fd5b919050565b60006020828403121562000673578081fd5b6200067e8262000644565b9392505050565b600080600080600080600060e0888a031215620006a0578283fd5b620006ab8862000644565b9650620006bb6020890162000644565b955060408801518015158114620006d0578384fd5b606089015190955060ff81168114620006e7578384fd5b60808901519094509250620006ff60a0890162000644565b91506200070f60c0890162000644565b905092959891949750929550565b6000602082840312156200072f578081fd5b5051919050565b6001600160a01b0393909316835260ff9190911660208301521515604082015260600190565b90815260200190565b612f2680620007756000396000f3fe608060405234801561001057600080fd5b50600436106101dc5760003560e01c80638fd418d311610105578063b868723e1161009d578063b868723e1461038c578063b9dcde1014610394578063bef3a0831461039c578063cf9afab5146103a4578063d3ce1c82146103ac578063da8e1d75146103bf578063deebe410146103c7578063e38fd531146103ec578063f2fde38b146103ff576101dc565b80638fd418d31461030e57806396336b301461032657806398d5fdca1461032e5780639de2ee2114610336578063ac02c0bd1461033e578063af640d0f14610346578063b0e21e8a1461034e578063b22e2b9314610356578063b6d7a1c914610379576101dc565b80633608cdf8116101785780633608cdf8146102805780633627d0e0146102935780633a267ea3146102a657806348db5f89146102bb5780635d9e05db146102c3578063669c636d146102e357806369145d6e146102eb578063715018a6146102fe5780638da5cb5b14610306576101dc565b8063053f14da146101e15780630a0e5c9d146101ff5780630c2804441461021457806317fbe3541461021c5780632843d22d146102245780632986c0e5146102375780632d1aeb281461024c5780632d31c16e1461025f5780633572623414610267575b600080fd5b6101e9610412565b6040516101f69190612bbe565b60405180910390f35b61021261020d366004612590565b610418565b005b6101e961068c565b6101e961069c565b6102126102323660046126e6565b6106a2565b61023f610c52565b6040516101f69190612c48565b61021261025a3660046125bb565b610c65565b6101e9610fc7565b61026f610fcd565b6040516101f6959493929190612c25565b6101e961028e3660046126cc565b610fdf565b6102126102a136600461267a565b611086565b6102ae61111e565b6040516101f6919061272f565b6102ae61112d565b6102d66102d1366004612660565b61113c565b6040516101f691906127c1565b610212611151565b6102126102f9366004612558565b6111e6565b610212611210565b6102ae611224565b610316611233565b6040516101f69493929190612c0a565b6102ae611242565b6101e9611251565b6102ae6112ce565b6101e96112dd565b6101e96112e3565b6101e96112e9565b6103696103643660046126cc565b6112ef565b6040516101f69493929190612743565b61021261038736600461269c565b611329565b6101e9611366565b6101e961136c565b6101e9611372565b6102d6611378565b6102126103ba3660046125f8565b611381565b61023f6118b8565b6103da6103d53660046126cc565b6118cb565b6040516101f69695949392919061276f565b6102126103fa36600461267a565b611913565b61021261040d366004612558565b61199e565b600f5481565b6002546003546040516331a9108f60e11b815284926001600160a01b0380851693911691636352211e9161044e91600401612bbe565b60206040518083038186803b15801561046657600080fd5b505afa15801561047a573d6000803e3d6000fd5b505050506040513d601f19601f8201168201806040525081019061049e9190612574565b6001600160a01b0316146104cd5760405162461bcd60e51b81526004016104c4906129cd565b60405180910390fd5b600454156104ed5760405162461bcd60e51b81526004016104c490612881565b42821161050c5760405162461bcd60e51b81526004016104c490612a8f565b600254600354604051630a15c49160e11b81526001600160a01b039092169163142b89229161053f918690600401612be6565b600060405180830381600087803b15801561055957600080fd5b505af115801561056d573d6000803e3d6000fd5b506001925050505b600e5463ffffffff600160c01b9091048116908216116105e75763ffffffff81166000908152601a6020526040902080546001808301546002909301546105d4936001600160a01b0393841693811692600160a01b909104900b6119d8565b50806105df81612e6b565b915050610575565b506002546003546040516338d9f74f60e01b81526001600160a01b03909216916338d9f74f9161061c91600090600401612be6565b600060405180830381600087803b15801561063657600080fd5b505af115801561064a573d6000803e3d6000fd5b505050507f02cd0f962e62be582c42a69232ce8a51199f039c40654f85b95cd182797ab8d660045460405161067f9190612bbe565b60405180910390a1505050565b6000610696611d01565b90505b90565b60105481565b60015460035460405163b28a0a7f60e01b815284926000926001600160a01b039091169162fdd58e918591849163b28a0a7f916106e29190600401612bbe565b60206040518083038186803b1580156106fa57600080fd5b505afa15801561070e573d6000803e3d6000fd5b505050506040513d601f19601f8201168201806040525081019061073291906126b4565b6040518363ffffffff1660e01b815260040161074f9291906127a8565b60206040518083038186803b15801561076757600080fd5b505afa15801561077b573d6000803e3d6000fd5b505050506040513d601f19601f8201168201806040525081019061079f91906126b4565b116107bc5760405162461bcd60e51b81526004016104c49061284a565b6107c4611378565b156107e15760405162461bcd60e51b81526004016104c4906128ae565b63ffffffff84166000908152601b6020908152604091829020825160c08101845281546001600160a01b0390811680835260018085015492831695840195909552600160a01b909104840b840b90930b9381019390935260028101546060840152600381015460808401526004015460a083015233146108735760405162461bcd60e51b81526004016104c490612a12565b836001600160a01b031681602001516001600160a01b0316146108a85760405162461bcd60e51b81526004016104c49061293b565b6006546108b481611d61565b60006108db83608001516108d58560a0015185611e0690919063ffffffff16565b90611e2a565b9050600061091b6000856040015160010b136109075784604001516108ff90612e8f565b60010b610910565b846040015160010b5b606086015190611e43565b9050600080856040015160010b131561094757610940610939611d01565b8490611e2a565b9050610977565b610974610952611d01565b6108d58561096e60028a60800151611e4f90919063ffffffff16565b90611e5b565b90505b600061098e600b5483611e2a90919063ffffffff16565b90506109bd816109b76109ac600a5487611e2a90919063ffffffff16565b60608a015190611e67565b90611e67565b6109c78385611e67565b116109e45760405162461bcd60e51b81526004016104c4906127ff565b6000866040015160010b1315610a3857601254841115610a045760125493505b601254610a119085611e5b565b60125560138590556060860151601154610a2a91611e5b565b601155601254601455610a8c565b601654841115610a485760165493505b60188590556060860151601554610a5e91611e5b565b601555601654610a6e9085611e5b565b6016556080860151601754610a8291611e5b565b6017556016546019555b816010541015610a9c5760105491505b601054610aa99083611e5b565b6010556060860151600090610ac29061096e8587611e67565b6008546040516370a0823160e01b81529192506000916001600160a01b03909116906370a0823190610af890309060040161272f565b60206040518083038186803b158015610b1057600080fd5b505afa158015610b24573d6000803e3d6000fd5b505050506040513d601f19601f82011682018060405250810190610b4891906126b4565b905081811015610b56578091505b600b5415610ba157610b7f8a610b6c8486611e5b565b6008546001600160a01b03169190611e73565b600d54600854610b9c916001600160a01b03918216911685611e73565b610bb8565b600854610bb8906001600160a01b03168b84611e73565b7fd0f219269b2989457aec2ba9ff3e215e5834b740f1bbea057f5ab4c7f250cf1d8c896020015188878b88604051610bf596959493929190612c95565b60405180910390a150505063ffffffff9098166000908152601b6020526040812080546001600160a01b03191681556001810180546001600160b01b03191690556002810182905560038101829055600401555050505050505050565b600e54600160c01b900463ffffffff1681565b60015460035460405163b28a0a7f60e01b815285926000926001600160a01b039091169162fdd58e918591849163b28a0a7f91610ca59190600401612bbe565b60206040518083038186803b158015610cbd57600080fd5b505afa158015610cd1573d6000803e3d6000fd5b505050506040513d601f19601f82011682018060405250810190610cf591906126b4565b6040518363ffffffff1660e01b8152600401610d129291906127a8565b60206040518083038186803b158015610d2a57600080fd5b505afa158015610d3e573d6000803e3d6000fd5b505050506040513d601f19601f82011682018060405250810190610d6291906126b4565b11610d7f5760405162461bcd60e51b81526004016104c49061284a565b60045415610d9f5760405162461bcd60e51b81526004016104c490612881565b60015460035460405163b28a0a7f60e01b81526001600160a01b039092169162fdd58e918791849163b28a0a7f91610dda9190600401612bbe565b60206040518083038186803b158015610df257600080fd5b505afa158015610e06573d6000803e3d6000fd5b505050506040513d601f19601f82011682018060405250810190610e2a91906126b4565b6040518363ffffffff1660e01b8152600401610e479291906127a8565b60206040518083038186803b158015610e5f57600080fd5b505afa158015610e73573d6000803e3d6000fd5b505050506040513d601f19601f82011682018060405250810190610e9791906126b4565b6001600160a01b03851660009081526007602052604090205410610ecd5760405162461bcd60e51b81526004016104c490612b3c565b600e8054600160a01b900463ffffffff16906014610eea83612e6b565b82546101009290920a63ffffffff818102199093169183160217909155604080516080810182523381526001600160a01b03888116602080840182815260018a810b868801908152606087018d8152600e54600160a01b90819004909a166000908152601a8652898120985189546001600160a01b0319908116918a16919091178a559451898501805494519490961698169790971761ffff60a01b191661ffff9290930b919091169098021790559451600290930192909255908152600790925281208054925090610fbc83612e50565b919050555050505050565b600a5481565b60155460165460175460185460195485565b63ffffffff81166000908152601b60209081526040808320815160c08101835281546001600160a01b03908116825260018084015491821695830195909552600160a01b9004840b840b90930b918301919091526002810154606083018190526003820154608084015260049091015460a08301526110705760405162461bcd60e51b81526004016104c490612b65565b600061107b82611ece565b50925050505b919050565b61108e612119565b600181810b810b60009081526009602081905260408220805460ff191684179055906110b984612e8f565b60010b60010b815260200190815260200160002060006101000a81548160ff0219169083151502179055507ff67b5be99da014dc5bbb05f7a10b5c1e1eaf761dcff49aef0a830ffd33b5c9dc816040516111139190612baf565b60405180910390a150565b600d546001600160a01b031681565b6001546001600160a01b031681565b60096020526000908152604090205460ff1681565b611159612119565b600e60009054906101000a90046001600160a01b03166001600160a01b0316631bde34566040518163ffffffff1660e01b8152600401602060405180830381600087803b1580156111a957600080fd5b505af11580156111bd573d6000803e3d6000fd5b505050506040513d601f19601f820116820180604052508101906111e191906126b4565b600655565b6111ee612119565b600d80546001600160a01b0319166001600160a01b0392909216919091179055565b611218612119565b6112226000612158565b565b6000546001600160a01b031690565b60115460125460135460145484565b6008546001600160a01b031681565b600e5460408051634c6afee560e11b815290516000926001600160a01b0316916398d5fdca916004808301926020929190829003018186803b15801561129657600080fd5b505afa1580156112aa573d6000803e3d6000fd5b505050506040513d601f19601f8201168201806040525081019061069691906126b4565b6002546001600160a01b031681565b600c5481565b60035481565b600b5481565b601a60205260009081526040902080546001808301546002909301546001600160a01b039283169392831692600160a01b900490910b9084565b611331612119565b600a8190556040517f60e314eb1dcc14680ab3be0aaa5b70ea0d3828f11e6bcb38305fea8bbf2d49cc90611113908390612bbe565b60065481565b60055481565b60045481565b60045442111590565b60015460035460405163b28a0a7f60e01b815285926000926001600160a01b039091169162fdd58e918591849163b28a0a7f916113c19190600401612bbe565b60206040518083038186803b1580156113d957600080fd5b505afa1580156113ed573d6000803e3d6000fd5b505050506040513d601f19601f8201168201806040525081019061141191906126b4565b6040518363ffffffff1660e01b815260040161142e9291906127a8565b60206040518083038186803b15801561144657600080fd5b505afa15801561145a573d6000803e3d6000fd5b505050506040513d601f19601f8201168201806040525081019061147e91906126b4565b1161149b5760405162461bcd60e51b81526004016104c49061284a565b6114a3611378565b156114c05760405162461bcd60e51b81526004016104c4906128ae565b63ffffffff83166000908152601b6020908152604091829020825160c08101845281546001600160a01b03908116825260018084015491821694830194909452600160a01b9004830b830b90920b928201929092526002820154606082018190526003830154608083015260049092015460a0820152906115535760405162461bcd60e51b81526004016104c4906129f1565b60065460008061156284611ece565b915091506000198214156115885760405162461bcd60e51b81526004016104c4906129a3565b81611595578291506115c4565b6000846040015160010b1315158383111515146115c45760405162461bcd60e51b81526004016104c4906129a3565b6115cd82611d61565b60006115ee85608001516108d58760a0015186611e0690919063ffffffff16565b9050600080866040015160010b131561161a5761161361160c611d01565b8390611e2a565b9050611644565b611641611625611d01565b6108d58461096e60028b60800151611e4f90919063ffffffff16565b90505b6000866040015160010b1315611697576012548211156116645760125491505b6013849055606086015160115461167a91611e5b565b60115560125461168a9083611e5b565b60128190556014556116eb565b6016548211156116a75760165491505b601884905560608601516015546116bd91611e5b565b6015556016546116cd9083611e5b565b60165560808601516017546116e191611e5b565b6017556016546019555b8060105410156116fa57506010545b6010546117079082611e5b565b6010556008546040516370a0823160e01b81526000916001600160a01b0316906370a082319061173b90309060040161272f565b60206040518083038186803b15801561175357600080fd5b505afa158015611767573d6000803e3d6000fd5b505050506040513d601f19601f8201168201806040525081019061178b91906126b4565b905060006117a4600a5486611e2a90919063ffffffff16565b9050600080600c5411156117fe57818310156117be578291505b600c546117cc908390611e2a565b90506117dc8b610b6c8484611e5b565b600d546008546117f9916001600160a01b03918216911683611e73565b611821565b8183101561180a578291505b600854611821906001600160a01b03168c84611e73565b7f6f38507ff54d95a72680dddf08a58aa66bd84d38c252b5bbf63465b56e11aed28c8c87878b8660405161185a96959493929190612c95565b60405180910390a150505063ffffffff9098166000908152601b6020526040812080546001600160a01b03191681556001810180546001600160b01b0319169055600281018290556003810182905560040155505050505050505050565b600e54600160a01b900463ffffffff1681565b601b6020526000908152604090208054600180830154600284015460038501546004909501546001600160a01b039485169594831694600160a01b90930490930b9290919086565b61191b612119565b600181810b900b60009081526009602081905260408220805460ff191690558161194484612e8f565b60010b60010b815260200190815260200160002060006101000a81548160ff0219169083151502179055507f0ad48029b5a777c16c44eb514377797a70850e93d05fabaffea42f2595440126816040516111139190612baf565b6119a6612119565b6001600160a01b0381166119cc5760405162461bcd60e51b81526004016104c4906128d5565b6119d581612158565b50565b600181810b900b60009081526009602052604081205460ff16611a0d5760405162461bcd60e51b81526004016104c490612827565b60008311611a2d5760405162461bcd60e51b81526004016104c490612a36565b611a3784846121a8565b600e5460408051630def1a2b60e11b815290516000926001600160a01b031691631bde345691600480830192602092919082900301818787803b158015611a7d57600080fd5b505af1158015611a91573d6000803e3d6000fd5b505050506040513d601f19601f82011682018060405250810190611ab591906126b4565b60058190559050611ac581611d61565b600e8054600160c01b900463ffffffff16906018611ae283612e6b565b91906101000a81548163ffffffff021916908363ffffffff160217905550506000808460010b13611b2857611b23611b1985612e8f565b869060010b611e4f565b611b36565b611b3685600186900b611e4f565b90506000611b4c611b45611d01565b8390611e06565b6040805160c0810182526001600160a01b03808c1682528a8116602080840191825260018b810b858701818152606087018b8152608088018a815260a089018e8152600e5463ffffffff600160c01b909104166000908152601b909752998620985189549089166001600160a01b0319918216178a5596518986018054945190960b61ffff16600160a01b0261ffff60a01b199190991693909716929092179590951695909517909155915160028501559151600384015592516004909201919091559192501315611c47576013839055601154611c2a9083611e67565b601155601254611c3a9082611e67565b6012819055601455611c83565b6018839055601554611c599083611e67565b601555601654611c699082611e67565b601655601754611c799082611e67565b6017556016546019555b601054611c909083611e67565b601055600e546040517f561cdb01c3e4e301a13e882a3914d5d30dbb217e14dab8bfec1730111b32426091611cdd91600160c01b90910463ffffffff16908a908a90869089908c90612c59565b60405180910390a15050600e54600160c01b900463ffffffff169695505050505050565b601654601754600091611d2791611d1e919061096e906002611e4f565b60125490611e67565b611d3a5750670de0b6b3a7640000610699565b60165460175461069691611d5891611d1e919061096e906002611e4f565b60105490611e06565b80600f541415611d70576119d5565b600f819055601154611d86576000601255611da0565b601454601354611d9c91906108d5908490611e06565b6012555b601554611db65760006016819055601755611dd0565b601954601854611dcc91906108d5908490611e06565b6016555b6012546016546040517fc6642d24d84e7f3d36ca39f5cce10e75639d9b158d5193aa350e2f900653e4c092611113928592612bf4565b6000611e23611e1d84670de0b6b3a7640000611e4f565b83611e43565b9392505050565b6000611e23611e398484611e4f565b670de0b6b3a76400005b6000611e238284612d14565b6000611e238284612dab565b6000611e238284612e09565b6000611e238284612cce565b611ec98363a9059cbb60e01b8484604051602401611e929291906127a8565b60408051601f198184030181529190526020810180516001600160e01b03166001600160e01b031990931692909217909152612380565b505050565b600080611f0d6000846040015160010b13611ef9578360400151611ef190612e8f565b60010b611f02565b836040015160010b5b606085015190611e43565b90506000611f38611f2d600a54670de0b6b3a76400006109399190612e09565b606086015190611e5b565b90506000846040015160010b1315611fea57601854601954600091611f8b91611f6091611e06565b6109b76010546108d586611f858b60a001518c60800151611e0690919063ffffffff16565b90611e06565b601354601454919250600091611fa091611e06565b905080821115611fde57601754611fbb576000199450611fd9565b611fd6611fc88383611e5b565b601754611f85906002611e4f565b94505b611fe3565b600094505b5050612113565b601354601454600091611ffd9190611e06565b60185460195491925060009161201291611e06565b90506000818311156120565761204f61203c61202e8486612e09565b6010546108d5908890611e06565b60a089015160808a01516109b791611e06565b9050612091565b6120716120638484612e09565b6010546108d5908790611e06565b60a0880151608089015161208491611e06565b61208e9190612dca565b90505b60006120bc60026120b66015600201546108d56010548a611e0690919063ffffffff16565b90611e4f565b60808901516120cc906002611e4f565b6120d69190612dca565b90506000808313908213146120ee576000965061210e565b81612101670de0b6b3a764000083612d28565b61210b9190612ce6565b96505b505050505b50915091565b61212161240f565b6001600160a01b0316612132611224565b6001600160a01b0316146112225760405162461bcd60e51b81526004016104c490612a5a565b600080546001600160a01b038381166001600160a01b0319831681178455604051919092169283917f8be0079c531659141344cd1fd0a4f28419497f9722a3daafe3b4186f6b6457e09190a35050565b601c5460ff16156121cb5760405162461bcd60e51b81526004016104c490612b91565b601c805460ff191660011790556008546040516370a0823160e01b81526000916001600160a01b0316906370a082319061220990309060040161272f565b60206040518083038186803b15801561222157600080fd5b505afa158015612235573d6000803e3d6000fd5b505050506040513d601f19601f8201168201806040525081019061225991906126b4565b6008546040516327adaa4560e01b815291925033916327adaa459161228e9186916001600160a01b0316908890600401612bc7565b600060405180830381600087803b1580156122a857600080fd5b505af11580156122bc573d6000803e3d6000fd5b505050506122d38282611e6790919063ffffffff16565b6008546040516370a0823160e01b81526001600160a01b03909116906370a082319061230390309060040161272f565b60206040518083038186803b15801561231b57600080fd5b505afa15801561232f573d6000803e3d6000fd5b505050506040513d601f19601f8201168201806040525081019061235391906126b4565b10156123715760405162461bcd60e51b81526004016104c49061291b565b5050601c805460ff1916905550565b60006123d5826040518060400160405280602081526020017f5361666545524332303a206c6f772d6c6576656c2063616c6c206661696c6564815250856001600160a01b03166124139092919063ffffffff16565b805190915015611ec957808060200190518101906123f39190612640565b611ec95760405162461bcd60e51b81526004016104c490612af2565b3390565b6060612422848460008561242a565b949350505050565b60608247101561244c5760405162461bcd60e51b81526004016104c49061295d565b612455856124ea565b6124715760405162461bcd60e51b81526004016104c490612abb565b600080866001600160a01b0316858760405161248d9190612713565b60006040518083038185875af1925050503d80600081146124ca576040519150601f19603f3d011682016040523d82523d6000602084013e6124cf565b606091505b50915091506124df8282866124f9565b979650505050505050565b6001600160a01b03163b151590565b60608315612508575081611e23565b8251156125185782518084602001fd5b8160405162461bcd60e51b81526004016104c491906127cc565b8035600181900b811461108157600080fd5b803563ffffffff8116811461108157600080fd5b600060208284031215612569578081fd5b8135611e2381612edb565b600060208284031215612585578081fd5b8151611e2381612edb565b600080604083850312156125a2578081fd5b82356125ad81612edb565b946020939093013593505050565b6000806000606084860312156125cf578081fd5b83356125da81612edb565b9250602084013591506125ef60408501612532565b90509250925092565b60008060006060848603121561260c578283fd5b833561261781612edb565b925061262560208501612544565b9150604084013561263581612edb565b809150509250925092565b600060208284031215612651578081fd5b81518015158114611e23578182fd5b600060208284031215612671578081fd5b611e2382612532565b60006020828403121561268b578081fd5b813561ffff81168114611e23578182fd5b6000602082840312156126ad578081fd5b5035919050565b6000602082840312156126c5578081fd5b5051919050565b6000602082840312156126dd578081fd5b611e2382612544565b6000806000606084860312156126fa578283fd5b61270384612544565b9250602084013561262581612edb565b60008251612725818460208701612e20565b9190910192915050565b6001600160a01b0391909116815260200190565b6001600160a01b03948516815292909316602083015260010b6040820152606081019190915260800190565b6001600160a01b03968716815294909516602085015260019290920b60408401526060830152608082015260a081019190915260c00190565b6001600160a01b03929092168252602082015260400190565b901515815260200190565b60006020825282518060208401526127eb816040850160208701612e20565b601f01601f19169190910160400192915050565b6020808252600e908201526d34b7103634b8bab4b230ba34b7b760911b604082015260600190565b6020808252600990820152683632bb32b61022b93960b91b604082015260600190565b6020808252601c908201527f796f7520617265206e6f74207468697320706f6f6c20706c6179657200000000604082015260600190565b6020808252601390820152722837b7b6103430b9903132b2b7103132b3bab760691b604082015260600190565b6020808252600d908201526c506f6f6c20697320676f696e6760981b604082015260600190565b60208082526026908201527f4f776e61626c653a206e6577206f776e657220697320746865207a65726f206160408201526564647265737360d01b606082015260800190565b602080825260069082015265282a1022b93960d11b604082015260600190565b6020808252600890820152673ab9b2b91022b93960c11b604082015260600190565b60208082526026908201527f416464726573733a20696e73756666696369656e742062616c616e636520666f6040820152651c8818d85b1b60d21b606082015260800190565b60208082526010908201526f1b1a5c5d5a59185d1a5bdb8819985a5b60821b604082015260600190565b6020808252600a90820152693737ba102232b0b632b960b11b604082015260600190565b6020808252600790820152663634b89022b93960c91b604082015260600190565b6020808252600a90820152693937baba32b91022b93960b11b604082015260600190565b6020808252600a908201526936b0b933b4b71022b93960b11b604082015260600190565b6020808252818101527f4f776e61626c653a2063616c6c6572206973206e6f7420746865206f776e6572604082015260600190565b602080825260129082015271646561646c696e6520746f6f206561726c7960701b604082015260600190565b6020808252601d908201527f416464726573733a2063616c6c20746f206e6f6e2d636f6e7472616374000000604082015260600190565b6020808252602a908201527f5361666545524332303a204552433230206f7065726174696f6e20646964206e6040820152691bdd081cdd58d8d9595960b21b606082015260800190565b6020808252600f908201526e1e5bdd481a185d99481bdc195b9959608a1b604082015260600190565b6020808252601290820152713737b716b2bc34b9ba103837b9b4ba34b7b760711b604082015260600190565b6020808252600490820152634c4f434b60e01b604082015260600190565b61ffff91909116815260200190565b90815260200190565b9283526001600160a01b03918216602084015216604082015260600190565b918252602082015260400190565b9283526020830191909152604082015260600190565b93845260208401929092526040830152606082015260800190565b948552602085019390935260408401919091526060830152608082015260a00190565b63ffffffff91909116815260200190565b63ffffffff9690961686526001600160a01b0394909416602086015260408501929092526060840152608083015260010b60a082015260c00190565b63ffffffff9690961686526001600160a01b0394909416602086015260408501929092526060840152608083015260a082015260c00190565b60008219821115612ce157612ce1612eaf565b500190565b600082612cf557612cf5612ec5565b600160ff1b821460001984141615612d0f57612d0f612eaf565b500590565b600082612d2357612d23612ec5565b500490565b60006001600160ff1b0381841382841380821686840486111615612d4e57612d4e612eaf565b600160ff1b84871282811687830589121615612d6c57612d6c612eaf565b858712925087820587128484161615612d8757612d87612eaf565b87850587128184161615612d9d57612d9d612eaf565b505050929093029392505050565b6000816000190483118215151615612dc557612dc5612eaf565b500290565b60008083128015600160ff1b850184121615612de857612de8612eaf565b6001600160ff1b0384018313811615612e0357612e03612eaf565b50500390565b600082821015612e1b57612e1b612eaf565b500390565b60005b83811015612e3b578181015183820152602001612e23565b83811115612e4a576000848401525b50505050565b6000600019821415612e6457612e64612eaf565b5060010190565b600063ffffffff80831681811415612e8557612e85612eaf565b6001019392505050565b60008160010b617fff19811415612ea857612ea8612eaf565b9003919050565b634e487b7160e01b600052601160045260246000fd5b634e487b7160e01b600052601260045260246000fd5b6001600160a01b03811681146119d557600080fdfea26469706673582212204f478ef570466ed05df728aec951314d85deacbb76628ba8f4aff4842f0a995564736f6c63430008010033a2646970667358221220fe0b3aebdb0457ab49ae05eae9729dfc2d51c4333e43bd257b8fabf5db037e0664736f6c63430008010033",
  "immutableReferences": {},
  "source": "pragma solidity ^0.8.0;\n\nimport \"@openzeppelin/contracts/access/Ownable.sol\";\nimport \"./proof/Dealer.sol\";\nimport \"./Pool.sol\";\nimport \"./interfaces/ISettings.sol\";\nimport \"./interfaces/IFactory.sol\";\n\n/**\n    \n        dealer\n\n    \n        ----nftgetDealerStatustrue\n        idnft\n */\ncontract Factory is Ownable, ISettings, IFactory {\n\n    address public dealer;\n    address public player;\n\n    uint256 public override marginRatio;\n    uint256 public override protocolFee;\n    uint256 public override liqProtocolFee;\n    address public override priceAddress;\n    address public override protocolReceipt;\n    mapping(address => bool) public override pools;\n\n    constructor(\n        uint256 marginRatio_, \n        uint256 protocolFee_, \n        uint256 liqProtocolFee_, \n        address priceAddress_, \n        address protocolReceipt_\n    ) {\n        marginRatio = marginRatio_;\n        protocolFee = protocolFee_;\n        liqProtocolFee = liqProtocolFee_;\n        priceAddress = priceAddress_;\n        protocolReceipt = protocolReceipt_;\n\n        emit SetMarginRatio(marginRatio_);\n        emit SetProtocolFee(protocolFee_);\n        emit SetLiqProtocolFee(liqProtocolFee_);\n        emit SetPriceAddress(priceAddress_);\n        emit SetProtocolReceipt(protocolReceipt_);\n    }\n\n    // typ: oracle \n    // 1 chain link\n    // 2 uni swap v2\n    // 3 uni swap v3\n    // 4 sushi swap v2\n    // 5 camelot\n    function createPool(uint256 id, address payToken, address oracle, bool reverse, uint8 typ) external onlyDealerAndType(id) {\n        Pool pool = new Pool(payToken, oracle, reverse, typ, id, dealer, player);\n        pool.transferOwnership(owner());\n\n        pools[address(pool)] = true;\n\n        Dealer(dealer).setDealerToPool(id, address(pool));\n        Dealer(dealer).setDealerType(id, 1);\n        emit CreatePool(address(pool), payToken, oracle, reverse, typ, id);\n    }\n\n    function setDealer(address dealer_) external onlyOwner {\n        dealer = dealer_;\n    }\n\n    function setPlayer(address player_) external onlyOwner {\n        player = player_;\n    }\n\n    function setMarginRatio(uint256 marginRatio_) external onlyOwner {\n        marginRatio = marginRatio_;\n        emit SetMarginRatio(marginRatio_);\n    }\n\n    function setProtocolFee(uint256 protocolFee_) external onlyOwner {\n        protocolFee = protocolFee_;\n        emit SetProtocolFee(protocolFee_);\n    }\n\n    function setLiqProtocolFee(uint256 liqProtocolFee_) external onlyOwner {\n        liqProtocolFee = liqProtocolFee_;\n        emit SetLiqProtocolFee(liqProtocolFee_);\n    }\n\n    function setPriceAddress(address priceAddress_) external onlyOwner {\n        priceAddress = priceAddress_;\n        emit SetPriceAddress(priceAddress_);\n    }\n\n    function setProtocolReceipt(address protocolReceipt_) external onlyOwner {\n        protocolReceipt = protocolReceipt_;\n        emit SetProtocolReceipt(protocolReceipt_);\n    }\n\n    modifier onlyDealerAndType(uint256 id) {\n        require(Dealer(dealer).getDealerStatus(id) && Dealer(dealer).ownerOf(id) == msg.sender, \"not Dealer\");\n        _;\n    }\n}\n",
  "sourcePath": "/Users/pengyun/Desktop/code/qilin-pvp-v2/contracts/Factory.sol",
  "compiler": {
    "name": "solc",
    "version": "0.8.1+commit.df193b15.Emscripten.clang"
  },
  "schemaVersion": "3.3.3",
  "updatedAt": "2023-05-18T05:56:30.206Z",
  "networkType": "ethereum",
  "devdoc": {
    "kind": "dev",
    "methods": {
      "owner()": {
        "details": "Returns the address of the current owner."
      },
      "renounceOwnership()": {
        "details": "Leaves the contract without owner. It will not be possible to call `onlyOwner` functions anymore. Can only be called by the current owner. NOTE: Renouncing ownership will leave the contract without an owner, thereby removing any functionality that is only available to the owner."
      },
      "transferOwnership(address)": {
        "details": "Transfers ownership of the contract to a new account (`newOwner`). Can only be called by the current owner."
      }
    },
    "version": 1
  },
  "userdoc": {
    "kind": "user",
    "methods": {},
    "notice": " dealer  ----nftgetDealerStatustrue idnft",
    "version": 1
  }
}