{
  "_format": "hh-sol-artifact-1",
  "contractName": "Factory",
  "sourceName": "contracts/Factory.sol",
  "abi": [
    {
      "inputs": [
        {
          "internalType": "uint256",
          "name": "marginRatio_",
          "type": "uint256"
        },
        {
          "internalType": "uint256",
          "name": "protocolFee_",
          "type": "uint256"
        },
        {
          "internalType": "uint256",
          "name": "liqProtocolFee_",
          "type": "uint256"
        },
        {
          "internalType": "address",
          "name": "priceAddress_",
          "type": "address"
        },
        {
          "internalType": "address",
          "name": "protocolReceipt_",
          "type": "address"
        }
      ],
      "stateMutability": "nonpayable",
      "type": "constructor"
    },
    {
      "anonymous": false,
      "inputs": [
        {
          "indexed": false,
          "internalType": "address",
          "name": "pool",
          "type": "address"
        },
        {
          "indexed": false,
          "internalType": "address",
          "name": "payToken",
          "type": "address"
        },
        {
          "indexed": false,
          "internalType": "address",
          "name": "targetToken",
          "type": "address"
        },
        {
          "indexed": false,
          "internalType": "address",
          "name": "oracle",
          "type": "address"
        },
        {
          "indexed": false,
          "internalType": "bool",
          "name": "reverse",
          "type": "bool"
        },
        {
          "indexed": false,
          "internalType": "uint8",
          "name": "typ",
          "type": "uint8"
        },
        {
          "indexed": false,
          "internalType": "uint256",
          "name": "id",
          "type": "uint256"
        },
        {
          "indexed": false,
          "internalType": "uint256",
          "name": "index",
          "type": "uint256"
        }
      ],
      "name": "CreatePool",
      "type": "event"
    },
    {
      "anonymous": false,
      "inputs": [
        {
          "indexed": true,
          "internalType": "address",
          "name": "previousOwner",
          "type": "address"
        },
        {
          "indexed": true,
          "internalType": "address",
          "name": "newOwner",
          "type": "address"
        }
      ],
      "name": "OwnershipTransferred",
      "type": "event"
    },
    {
      "anonymous": false,
      "inputs": [
        {
          "indexed": false,
          "internalType": "uint256",
          "name": "liqProtocolFee",
          "type": "uint256"
        }
      ],
      "name": "SetLiqProtocolFee",
      "type": "event"
    },
    {
      "anonymous": false,
      "inputs": [
        {
          "indexed": false,
          "internalType": "uint256",
          "name": "marginRatio",
          "type": "uint256"
        }
      ],
      "name": "SetMarginRatio",
      "type": "event"
    },
    {
      "anonymous": false,
      "inputs": [
        {
          "indexed": false,
          "internalType": "address",
          "name": "priceAddress",
          "type": "address"
        }
      ],
      "name": "SetPriceAddress",
      "type": "event"
    },
    {
      "anonymous": false,
      "inputs": [
        {
          "indexed": false,
          "internalType": "uint256",
          "name": "protocolFee",
          "type": "uint256"
        }
      ],
      "name": "SetProtocolFee",
      "type": "event"
    },
    {
      "anonymous": false,
      "inputs": [
        {
          "indexed": false,
          "internalType": "address",
          "name": "protocolReceipt",
          "type": "address"
        }
      ],
      "name": "SetProtocolReceipt",
      "type": "event"
    },
    {
      "inputs": [
        {
          "internalType": "uint256",
          "name": "id",
          "type": "uint256"
        },
        {
          "internalType": "address",
          "name": "payToken",
          "type": "address"
        },
        {
          "internalType": "address",
          "name": "targetToken",
          "type": "address"
        },
        {
          "internalType": "address",
          "name": "oracle",
          "type": "address"
        },
        {
          "internalType": "bool",
          "name": "reverse",
          "type": "bool"
        },
        {
          "internalType": "uint8",
          "name": "typ",
          "type": "uint8"
        }
      ],
      "name": "createPool",
      "outputs": [],
      "stateMutability": "nonpayable",
      "type": "function"
    },
    {
      "inputs": [],
      "name": "dealer",
      "outputs": [
        {
          "internalType": "address",
          "name": "",
          "type": "address"
        }
      ],
      "stateMutability": "view",
      "type": "function"
    },
    {
      "inputs": [],
      "name": "liqProtocolFee",
      "outputs": [
        {
          "internalType": "uint256",
          "name": "",
          "type": "uint256"
        }
      ],
      "stateMutability": "view",
      "type": "function"
    },
    {
      "inputs": [],
      "name": "marginRatio",
      "outputs": [
        {
          "internalType": "uint256",
          "name": "",
          "type": "uint256"
        }
      ],
      "stateMutability": "view",
      "type": "function"
    },
    {
      "inputs": [],
      "name": "owner",
      "outputs": [
        {
          "internalType": "address",
          "name": "",
          "type": "address"
        }
      ],
      "stateMutability": "view",
      "type": "function"
    },
    {
      "inputs": [],
      "name": "player",
      "outputs": [
        {
          "internalType": "address",
          "name": "",
          "type": "address"
        }
      ],
      "stateMutability": "view",
      "type": "function"
    },
    {
      "inputs": [
        {
          "internalType": "address",
          "name": "",
          "type": "address"
        }
      ],
      "name": "pools",
      "outputs": [
        {
          "internalType": "bool",
          "name": "",
          "type": "bool"
        }
      ],
      "stateMutability": "view",
      "type": "function"
    },
    {
      "inputs": [],
      "name": "priceAddress",
      "outputs": [
        {
          "internalType": "address",
          "name": "",
          "type": "address"
        }
      ],
      "stateMutability": "view",
      "type": "function"
    },
    {
      "inputs": [],
      "name": "protocolFee",
      "outputs": [
        {
          "internalType": "uint256",
          "name": "",
          "type": "uint256"
        }
      ],
      "stateMutability": "view",
      "type": "function"
    },
    {
      "inputs": [],
      "name": "protocolReceipt",
      "outputs": [
        {
          "internalType": "address",
          "name": "",
          "type": "address"
        }
      ],
      "stateMutability": "view",
      "type": "function"
    },
    {
      "inputs": [],
      "name": "renounceOwnership",
      "outputs": [],
      "stateMutability": "nonpayable",
      "type": "function"
    },
    {
      "inputs": [
        {
          "internalType": "address",
          "name": "dealer_",
          "type": "address"
        }
      ],
      "name": "setDealer",
      "outputs": [],
      "stateMutability": "nonpayable",
      "type": "function"
    },
    {
      "inputs": [
        {
          "internalType": "uint256",
          "name": "liqProtocolFee_",
          "type": "uint256"
        }
      ],
      "name": "setLiqProtocolFee",
      "outputs": [],
      "stateMutability": "nonpayable",
      "type": "function"
    },
    {
      "inputs": [
        {
          "internalType": "uint256",
          "name": "marginRatio_",
          "type": "uint256"
        }
      ],
      "name": "setMarginRatio",
      "outputs": [],
      "stateMutability": "nonpayable",
      "type": "function"
    },
    {
      "inputs": [
        {
          "internalType": "address",
          "name": "player_",
          "type": "address"
        }
      ],
      "name": "setPlayer",
      "outputs": [],
      "stateMutability": "nonpayable",
      "type": "function"
    },
    {
      "inputs": [
        {
          "internalType": "address",
          "name": "priceAddress_",
          "type": "address"
        }
      ],
      "name": "setPriceAddress",
      "outputs": [],
      "stateMutability": "nonpayable",
      "type": "function"
    },
    {
      "inputs": [
        {
          "internalType": "uint256",
          "name": "protocolFee_",
          "type": "uint256"
        }
      ],
      "name": "setProtocolFee",
      "outputs": [],
      "stateMutability": "nonpayable",
      "type": "function"
    },
    {
      "inputs": [
        {
          "internalType": "address",
          "name": "protocolReceipt_",
          "type": "address"
        }
      ],
      "name": "setProtocolReceipt",
      "outputs": [],
      "stateMutability": "nonpayable",
      "type": "function"
    },
    {
      "inputs": [
        {
          "internalType": "address",
          "name": "newOwner",
          "type": "address"
        }
      ],
      "name": "transferOwnership",
      "outputs": [],
      "stateMutability": "nonpayable",
      "type": "function"
    }
  ],
  "bytecode": "0x60806040523480156200001157600080fd5b506040516200472838038062004728833981016040819052620000349162000221565b6200004862000042620001b0565b620001b4565b600385905560048490556005839055600680546001600160a01b038085166001600160a01b03199283161790925560078054928416929091169190911790556040517f60e314eb1dcc14680ab3be0aaa5b70ea0d3828f11e6bcb38305fea8bbf2d49cc90620000b990879062000289565b60405180910390a17fdc0410a296e1e33943a772020d333d5f99319d7fcad932a484c53889f7aaa2b184604051620000f2919062000289565b60405180910390a17ffec3e2cce26c0fccf827d7f8d326ecb9f37ad07b47912dc290d75e165e8e61ae836040516200012b919062000289565b60405180910390a17fbe0f8c41260e53f3d847406e8870c8588bfe623a76be606cd46ae47e58d466a98260405162000164919062000275565b60405180910390a17fbc1e06e494fbfeb91b3fd39ead6160a6246fef341f5352a61918c05bf42cf98e816040516200019d919062000275565b60405180910390a1505050505062000292565b3390565b600080546001600160a01b038381166001600160a01b0319831681178455604051919092169283917f8be0079c531659141344cd1fd0a4f28419497f9722a3daafe3b4186f6b6457e09190a35050565b80516001600160a01b03811681146200021c57600080fd5b919050565b600080600080600060a0868803121562000239578081fd5b855194506020860151935060408601519250620002596060870162000204565b9150620002696080870162000204565b90509295509295909350565b6001600160a01b0391909116815260200190565b90815260200190565b61448680620002a26000396000f3fe60806040523480156200001157600080fd5b50600436106200013c5760003560e01c80638da5cb5b11620000bd578063ac02c0bd116200007b578063ac02c0bd1462000260578063b0e21e8a146200026a578063b6d7a1c91462000274578063bc8d3ac4146200028b578063f2fde38b14620002a2576200013c565b80638da5cb5b146200020557806390666ff9146200020f578063959901a414620002195780639de2ee211462000230578063a4063dbc146200023a576200013c565b806348db5f89116200010b57806348db5f8914620001ac57806369145d6e14620001b6578063715018a614620001cd578063787dce3d14620001d7578063872d136a14620001ee576200013c565b8063091547f014620001415780631e665f32146200015a5780632d31c16e14620001715780633a267ea31462000193575b600080fd5b620001586200015236600462000a74565b620002b9565b005b620001586200016b366004620009de565b62000697565b6200017b620006c3565b6040516200018a919062000c49565b60405180910390f35b6200019d620006c9565b6040516200018a919062000afb565b6200019d620006d8565b62000158620001c7366004620009de565b620006e7565b6200015862000749565b62000158620001e836600462000a42565b62000761565b62000158620001ff366004620009de565b620007a2565b6200019d620007f9565b6200019d62000808565b620001586200022a36600462000a42565b62000817565b6200019d62000858565b620002516200024b366004620009de565b62000867565b6040516200018a919062000b9f565b6200017b6200087c565b6200017b62000882565b620001586200028536600462000a42565b62000888565b620001586200029c366004620009de565b620008c9565b62000158620002b3366004620009de565b620008f5565b60015460405163fa2085cf60e01b815287916001600160a01b03169063fa2085cf90620002eb90849060040162000c49565b60206040518083038186803b1580156200030457600080fd5b505afa15801562000319573d6000803e3d6000fd5b505050506040513d601f19601f820116820180604052508101906200033f919062000a23565b8015620003d857506001546040516331a9108f60e11b815233916001600160a01b031690636352211e906200037990859060040162000c49565b60206040518083038186803b1580156200039257600080fd5b505afa158015620003a7573d6000803e3d6000fd5b505050506040513d601f19601f82011682018060405250810190620003cd919062000a04565b6001600160a01b0316145b620004005760405162461bcd60e51b8152600401620003f79062000bf0565b60405180910390fd5b60015460025460405160009289928892889288928e926001600160a01b0392831692909116906200043190620009d0565b62000443979695949392919062000b5d565b604051809103906000f08015801562000460573d6000803e3d6000fd5b509050806001600160a01b031663f2fde38b6200047c620007f9565b6040518263ffffffff1660e01b81526004016200049a919062000afb565b600060405180830381600087803b158015620004b557600080fd5b505af1158015620004ca573d6000803e3d6000fd5b5050506001600160a01b0380831660009081526008602052604090819020805460ff1916600190811790915554905163171ba5a960e31b81529116915063b8dd2d48906200051f908b90859060040162000c52565b600060405180830381600087803b1580156200053a57600080fd5b505af11580156200054f573d6000803e3d6000fd5b5050600180546040516338d9f74f60e01b81526001600160a01b0390911693506338d9f74f925062000586918c9160040162000c69565b600060405180830381600087803b158015620005a157600080fd5b505af1158015620005b6573d6000803e3d6000fd5b505060025460405163b28a0a7f60e01b8152600093506001600160a01b03909116915063b28a0a7f90620005ef908c9060040162000c49565b60206040518083038186803b1580156200060857600080fd5b505afa1580156200061d573d6000803e3d6000fd5b505050506040513d601f19601f8201168201806040525081019062000643919062000a5b565b90507f901cd9dcbc550b64d78eecbdc6bba49c96587024bbd73258e498bcef60c74c2a8289898989898f886040516200068498979695949392919062000b0f565b60405180910390a1505050505050505050565b620006a162000936565b600180546001600160a01b0319166001600160a01b0392909216919091179055565b60035481565b6007546001600160a01b031681565b6002546001600160a01b031681565b620006f162000936565b600780546001600160a01b0319166001600160a01b0383161790556040517fbc1e06e494fbfeb91b3fd39ead6160a6246fef341f5352a61918c05bf42cf98e906200073e90839062000afb565b60405180910390a150565b6200075362000936565b6200075f60006200097c565b565b6200076b62000936565b60048190556040517fdc0410a296e1e33943a772020d333d5f99319d7fcad932a484c53889f7aaa2b1906200073e90839062000c49565b620007ac62000936565b600680546001600160a01b0319166001600160a01b0383161790556040517fbe0f8c41260e53f3d847406e8870c8588bfe623a76be606cd46ae47e58d466a9906200073e90839062000afb565b6000546001600160a01b031690565b6006546001600160a01b031681565b6200082162000936565b60058190556040517ffec3e2cce26c0fccf827d7f8d326ecb9f37ad07b47912dc290d75e165e8e61ae906200073e90839062000c49565b6001546001600160a01b031681565b60086020526000908152604090205460ff1681565b60055481565b60045481565b6200089262000936565b60038190556040517f60e314eb1dcc14680ab3be0aaa5b70ea0d3828f11e6bcb38305fea8bbf2d49cc906200073e90839062000c49565b620008d362000936565b600280546001600160a01b0319166001600160a01b0392909216919091179055565b620008ff62000936565b6001600160a01b038116620009285760405162461bcd60e51b8152600401620003f79062000baa565b62000933816200097c565b50565b62000940620009cc565b6001600160a01b031662000953620007f9565b6001600160a01b0316146200075f5760405162461bcd60e51b8152600401620003f79062000c14565b600080546001600160a01b038381166001600160a01b0319831681178455604051919092169283917f8be0079c531659141344cd1fd0a4f28419497f9722a3daafe3b4186f6b6457e09190a35050565b3390565b6137b48062000c9d83390190565b600060208284031215620009f0578081fd5b8135620009fd8162000c77565b9392505050565b60006020828403121562000a16578081fd5b8151620009fd8162000c77565b60006020828403121562000a35578081fd5b8151620009fd8162000c8d565b60006020828403121562000a54578081fd5b5035919050565b60006020828403121562000a6d578081fd5b5051919050565b60008060008060008060c0878903121562000a8d578182fd5b86359550602087013562000aa18162000c77565b9450604087013562000ab38162000c77565b9350606087013562000ac58162000c77565b9250608087013562000ad78162000c8d565b915060a087013560ff8116811462000aed578182fd5b809150509295509295509295565b6001600160a01b0391909116815260200190565b6001600160a01b039889168152968816602088015294871660408701529290951660608501521515608084015260ff90931660a083015260c082019290925260e08101919091526101000190565b6001600160a01b0397881681529587166020870152931515604086015260ff9290921660608501526080840152831660a083015290911660c082015260e00190565b901515815260200190565b60208082526026908201527f4f776e61626c653a206e6577206f776e657220697320746865207a65726f206160408201526564647265737360d01b606082015260800190565b6020808252600a90820152693737ba102232b0b632b960b11b604082015260600190565b6020808252818101527f4f776e61626c653a2063616c6c6572206973206e6f7420746865206f776e6572604082015260600190565b90815260200190565b9182526001600160a01b0316602082015260400190565b918252602082015260400190565b6001600160a01b03811681146200093357600080fd5b80151581146200093357600080fdfe6080604052600e8054600160a01b600160e01b03191690556000600f553480156200002957600080fd5b50604051620037b4380380620037b48339810160408190526200004c91620007b9565b620000606200005a62000626565b6200062a565b600280546001600160a01b038085166001600160a01b03199283161790925560018054848416908316179055600385905560088054928a1692909116919091179055604080516390666ff960e01b81529051339182916390666ff991600480820192602092909190829003018186803b158015620000dd57600080fd5b505afa158015620000f2573d6000803e3d6000fd5b505050506040513d601f19601f8201168201806040525081019062000118919062000795565b600e80546001600160a01b0319166001600160a01b0392831617908190556040516310cd532560e01b81529116906310cd53259062000160908a9089908b906004016200087e565b600060405180830381600087803b1580156200017b57600080fd5b505af115801562000190573d6000803e3d6000fd5b50506040805160808101825260008082526020820152600e54825163a35668bf60e01b815291945091840192506001600160a01b039091169063a35668bf90620001df9030906004016200086a565b60206040518083038186803b158015620001f857600080fd5b505afa1580156200020d573d6000803e3d6000fd5b505050506040513d601f19601f8201168201806040525081019062000233919062000851565b815260006020918201819052825160115582820151601255604080840151601355606093840151601455805160a08101825282815292830182905282810191909152600e54905163a35668bf60e01b815291928301916001600160a01b039091169063a35668bf90620002ab9030906004016200086a565b60206040518083038186803b158015620002c457600080fd5b505afa158015620002d9573d6000803e3d6000fd5b505050506040513d601f19601f82011682018060405250810190620002ff919062000851565b8152600060209182015281516015558181015160165560408083015160175560608301516018556080909201516019558151631698e0b760e11b815291516001600160a01b03841692632d31c16e926004828101939192829003018186803b1580156200036b57600080fd5b505afa15801562000380573d6000803e3d6000fd5b505050506040513d601f19601f82011682018060405250810190620003a6919062000851565b600a81905550806001600160a01b031663b0e21e8a6040518163ffffffff1660e01b815260040160206040518083038186803b158015620003e657600080fd5b505afa158015620003fb573d6000803e3d6000fd5b505050506040513d601f19601f8201168201806040525081019062000421919062000851565b600b81905550806001600160a01b031663ac02c0bd6040518163ffffffff1660e01b815260040160206040518083038186803b1580156200046157600080fd5b505afa15801562000476573d6000803e3d6000fd5b505050506040513d601f19601f820116820180604052508101906200049c919062000851565b600c81905550806001600160a01b0316633a267ea36040518163ffffffff1660e01b815260040160206040518083038186803b158015620004dc57600080fd5b505afa158015620004f1573d6000803e3d6000fd5b505050506040513d601f19601f8201168201806040525081019062000517919062000795565b600d80546001600160a01b0319166001600160a01b03929092169190911790556200054360026200067a565b6200054f60056200067a565b6200055b600a6200067a565b6200056760146200067a565b7f60e314eb1dcc14680ab3be0aaa5b70ea0d3828f11e6bcb38305fea8bbf2d49cc600a546040516200059a9190620008e8565b60405180910390a17fdc0410a296e1e33943a772020d333d5f99319d7fcad932a484c53889f7aaa2b1600b54604051620005d59190620008e8565b60405180910390a17ffec3e2cce26c0fccf827d7f8d326ecb9f37ad07b47912dc290d75e165e8e61ae600c54604051620006109190620008e8565b60405180910390a150505050505050506200091e565b3390565b600080546001600160a01b038381166001600160a01b0319831681178455604051919092169283917f8be0079c531659141344cd1fd0a4f28419497f9722a3daafe3b4186f6b6457e09190a35050565b6200068462000718565b600181810b810b60009081526009602081905260408220805460ff19168417905590620006b184620008f1565b60010b60010b815260200190815260200160002060006101000a81548160ff0219169083151502179055507ff67b5be99da014dc5bbb05f7a10b5c1e1eaf761dcff49aef0a830ffd33b5c9dc816040516200070d9190620008d9565b60405180910390a150565b6200072262000626565b6001600160a01b03166200073562000769565b6001600160a01b031614620007675760405162461bcd60e51b81526004016200075e90620008a4565b60405180910390fd5b565b6000546001600160a01b031690565b80516001600160a01b03811681146200079057600080fd5b919050565b600060208284031215620007a7578081fd5b620007b28262000778565b9392505050565b600080600080600080600060e0888a031215620007d4578283fd5b620007df8862000778565b9650620007ef6020890162000778565b95506040880151801515811462000804578384fd5b606089015190955060ff811681146200081b578384fd5b608089015190945092506200083360a0890162000778565b91506200084360c0890162000778565b905092959891949750929550565b60006020828403121562000863578081fd5b5051919050565b6001600160a01b0391909116815260200190565b6001600160a01b0393909316835260ff9190911660208301521515604082015260600190565b6020808252818101527f4f776e61626c653a2063616c6c6572206973206e6f7420746865206f776e6572604082015260600190565b61ffff91909116815260200190565b90815260200190565b60008160010b617fff198114156200091757634e487b7160e01b82526011600452602482fd5b9003919050565b612e86806200092e6000396000f3fe608060405234801561001057600080fd5b506004361061021c5760003560e01c806396336b3011610125578063b9dcde10116100ad578063da8e1d751161007c578063da8e1d75146103ec578063deebe410146103f4578063e38fd53114610419578063ebe79a341461042c578063f2fde38b146104345761021c565b8063b9dcde10146103c1578063bef3a083146103c9578063cf9afab5146103d1578063d3ce1c82146103d95761021c565b8063af640d0f116100f4578063af640d0f14610373578063b0e21e8a1461037b578063b22e2b9314610383578063b6d7a1c9146103a6578063b868723e146103b95761021c565b806396336b301461035357806398d5fdca1461035b5780639de2ee2114610363578063ac02c0bd1461036b5761021c565b80633608cdf8116101a8578063669c636d11610177578063669c636d1461031057806369145d6e14610318578063715018a61461032b5780638da5cb5b146103335780638fd418d31461033b5761021c565b80633608cdf8146102c05780633a267ea3146102d357806348db5f89146102e85780635d9e05db146102f05761021c565b80632843d22d116101ef5780632843d22d146102645780632986c0e5146102775780632d1aeb281461028c5780632d31c16e1461029f57806335726234146102a75761021c565b8063053f14da146102215780630a0e5c9d1461023f5780630c2804441461025457806317fbe3541461025c575b600080fd5b610229610447565b6040516102369190612b1e565b60405180910390f35b61025261024d366004612536565b61044d565b005b6102296106c3565b6102296106d3565b61025261027236600461268c565b6106d9565b61027f610c89565b6040516102369190612ba8565b61025261029a366004612561565b610c9c565b610229611011565b6102af611017565b604051610236959493929190612b85565b6102296102ce366004612672565b611029565b6102db6110d0565b60405161023691906126d5565b6102db6110df565b6103036102fe366004612606565b6110ee565b6040516102369190612767565b610252611103565b6102526103263660046124fe565b611190565b6102526111ba565b6102db6111ce565b6103436111dd565b6040516102369493929190612b6a565b6102db6111ec565b6102296111fb565b6102db61127c565b61022961128b565b610229611291565b610229611297565b610396610391366004612672565b61129d565b60405161023694939291906126e9565b6102526103b4366004612642565b6112d7565b61022961131f565b610229611325565b61022961132b565b610303611331565b6102526103e736600461259e565b61133a565b61027f611871565b610407610402366004612672565b611884565b60405161023696959493929190612715565b610252610427366004612620565b6118cc565b6102db611957565b6102526104423660046124fe565b611966565b600f5481565b6002546003546040516331a9108f60e11b815284926001600160a01b0380851693911691636352211e9161048391600401612b1e565b60206040518083038186803b15801561049b57600080fd5b505afa1580156104af573d6000803e3d6000fd5b505050506040513d601f19601f820116820180604052508101906104d3919061251a565b6001600160a01b0316146105025760405162461bcd60e51b81526004016104f99061292d565b60405180910390fd5b600454156105225760405162461bcd60e51b81526004016104f990612827565b4282116105415760405162461bcd60e51b81526004016104f9906129ef565b6004828155600254600354604051630a15c49160e11b81526001600160a01b039092169263142b8922926105789291879101612b46565b600060405180830381600087803b15801561059257600080fd5b505af11580156105a6573d6000803e3d6000fd5b506001925050505b600e5463ffffffff600160a01b9091048116908216116106205763ffffffff81166000908152601a60205260409020805460018083015460029093015461060d936001600160a01b0393841693811692600160a01b909104900b6119a0565b508061061881612dcb565b9150506105ae565b506002546003546040516338d9f74f60e01b81526001600160a01b03909216916338d9f74f9161065591600090600401612b46565b600060405180830381600087803b15801561066f57600080fd5b505af1158015610683573d6000803e3d6000fd5b505050507f02cd0f962e62be582c42a69232ce8a51199f039c40654f85b95cd182797ab8d6826040516106b69190612b1e565b60405180910390a1505050565b60006106cd611cc4565b90505b90565b60105481565b60015460035460405163b28a0a7f60e01b815284926000926001600160a01b039091169162fdd58e918591849163b28a0a7f916107199190600401612b1e565b60206040518083038186803b15801561073157600080fd5b505afa158015610745573d6000803e3d6000fd5b505050506040513d601f19601f82011682018060405250810190610769919061265a565b6040518363ffffffff1660e01b815260040161078692919061274e565b60206040518083038186803b15801561079e57600080fd5b505afa1580156107b2573d6000803e3d6000fd5b505050506040513d601f19601f820116820180604052508101906107d6919061265a565b116107f35760405162461bcd60e51b81526004016104f9906127f0565b6107fb611331565b156108185760405162461bcd60e51b81526004016104f990612854565b63ffffffff84166000908152601b6020908152604091829020825160c08101845281546001600160a01b0390811680835260018085015492831695840195909552600160a01b909104840b840b90930b9381019390935260028101546060840152600381015460808401526004015460a083015233146108aa5760405162461bcd60e51b81526004016104f990612972565b836001600160a01b031681602001516001600160a01b0316146108df5760405162461bcd60e51b81526004016104f9906128e1565b6006546108eb81611d24565b6000610912836080015161090c8560a0015185611dc990919063ffffffff16565b90611ded565b905060006109526000856040015160010b1361093e57846040015161093690612def565b60010b610947565b846040015160010b5b606086015190611e06565b9050600080856040015160010b131561097e57610977610970611cc4565b8490611ded565b90506109ae565b6109ab610989611cc4565b61090c856109a560028a60800151611e1290919063ffffffff16565b90611e1e565b90505b60006109c5600b5483611ded90919063ffffffff16565b90506109f4816109ee6109e3600a5487611ded90919063ffffffff16565b60608a015190611e2a565b90611e2a565b6109fe8385611e2a565b11610a1b5760405162461bcd60e51b81526004016104f9906127a5565b6000866040015160010b1315610a6f57601254841115610a3b5760125493505b601254610a489085611e1e565b60125560138590556060860151601154610a6191611e1e565b601155601254601455610ac3565b601654841115610a7f5760165493505b60188590556060860151601554610a9591611e1e565b601555601654610aa59085611e1e565b6016556080860151601754610ab991611e1e565b6017556016546019555b816010541015610ad35760105491505b601054610ae09083611e1e565b6010556060860151600090610af9906109a58587611e2a565b6008546040516370a0823160e01b81529192506000916001600160a01b03909116906370a0823190610b2f9030906004016126d5565b60206040518083038186803b158015610b4757600080fd5b505afa158015610b5b573d6000803e3d6000fd5b505050506040513d601f19601f82011682018060405250810190610b7f919061265a565b905081811015610b8d578091505b600b5415610bd857610bb68a610ba38486611e1e565b6008546001600160a01b03169190611e36565b600d54600854610bd3916001600160a01b03918216911685611e36565b610bef565b600854610bef906001600160a01b03168b84611e36565b7fd0f219269b2989457aec2ba9ff3e215e5834b740f1bbea057f5ab4c7f250cf1d8c896020015188878b88604051610c2c96959493929190612bf5565b60405180910390a150505063ffffffff9098166000908152601b6020526040812080546001600160a01b03191681556001810180546001600160b01b03191690556002810182905560038101829055600401555050505050505050565b600e54600160c01b900463ffffffff1681565b60015460035460405163b28a0a7f60e01b815285926000926001600160a01b039091169162fdd58e918591849163b28a0a7f91610cdc9190600401612b1e565b60206040518083038186803b158015610cf457600080fd5b505afa158015610d08573d6000803e3d6000fd5b505050506040513d601f19601f82011682018060405250810190610d2c919061265a565b6040518363ffffffff1660e01b8152600401610d4992919061274e565b60206040518083038186803b158015610d6157600080fd5b505afa158015610d75573d6000803e3d6000fd5b505050506040513d601f19601f82011682018060405250810190610d99919061265a565b11610db65760405162461bcd60e51b81526004016104f9906127f0565b60045415610dd65760405162461bcd60e51b81526004016104f990612827565b60015460035460405163b28a0a7f60e01b81526001600160a01b039092169162fdd58e918791849163b28a0a7f91610e119190600401612b1e565b60206040518083038186803b158015610e2957600080fd5b505afa158015610e3d573d6000803e3d6000fd5b505050506040513d601f19601f82011682018060405250810190610e61919061265a565b6040518363ffffffff1660e01b8152600401610e7e92919061274e565b60206040518083038186803b158015610e9657600080fd5b505afa158015610eaa573d6000803e3d6000fd5b505050506040513d601f19601f82011682018060405250810190610ece919061265a565b6001600160a01b03851660009081526007602052604090205410610f045760405162461bcd60e51b81526004016104f990612a9c565b600e8054600160a01b900463ffffffff16906014610f2183612dcb565b82546101009290920a63ffffffff818102199093169183160217909155604080516080810182523381526001600160a01b038881166020808401918252600189810b858701908152606086018c8152600e54600160a01b908190049099166000908152601a90945296909220945185546001600160a01b03199081169186169190911786559251858201805493519390941694169390931761ffff60a01b191661ffff9190930b16909402179092555160029091015550610fe28484611e91565b6001600160a01b038416600090815260076020526040812080549161100683612db0565b919050555050505050565b600a5481565b60155460165460175460185460195485565b63ffffffff81166000908152601b60209081526040808320815160c08101835281546001600160a01b03908116825260018084015491821695830195909552600160a01b9004840b840b90930b918301919091526002810154606083018190526003820154608084015260049091015460a08301526110ba5760405162461bcd60e51b81526004016104f990612ac5565b60006110c582612069565b50925050505b919050565b600d546001600160a01b031681565b6001546001600160a01b031681565b60096020526000908152604090205460ff1681565b61110b6122b4565b600e5460405163a35668bf60e01b81526001600160a01b039091169063a35668bf9061113b9030906004016126d5565b60206040518083038186803b15801561115357600080fd5b505afa158015611167573d6000803e3d6000fd5b505050506040513d601f19601f8201168201806040525081019061118b919061265a565b600655565b6111986122b4565b600d80546001600160a01b0319166001600160a01b0392909216919091179055565b6111c26122b4565b6111cc60006122f3565b565b6000546001600160a01b031690565b60115460125460135460145484565b6008546001600160a01b031681565b600e5460405163a35668bf60e01b81526000916001600160a01b03169063a35668bf9061122c9030906004016126d5565b60206040518083038186803b15801561124457600080fd5b505afa158015611258573d6000803e3d6000fd5b505050506040513d601f19601f820116820180604052508101906106cd919061265a565b6002546001600160a01b031681565b600c5481565b60035481565b600b5481565b601a60205260009081526040902080546001808301546002909301546001600160a01b039283169392831692600160a01b900490910b9084565b6112df6122b4565b600a8190556040517f60e314eb1dcc14680ab3be0aaa5b70ea0d3828f11e6bcb38305fea8bbf2d49cc90611314908390612b1e565b60405180910390a150565b60065481565b60055481565b60045481565b60045442111590565b60015460035460405163b28a0a7f60e01b815285926000926001600160a01b039091169162fdd58e918591849163b28a0a7f9161137a9190600401612b1e565b60206040518083038186803b15801561139257600080fd5b505afa1580156113a6573d6000803e3d6000fd5b505050506040513d601f19601f820116820180604052508101906113ca919061265a565b6040518363ffffffff1660e01b81526004016113e792919061274e565b60206040518083038186803b1580156113ff57600080fd5b505afa158015611413573d6000803e3d6000fd5b505050506040513d601f19601f82011682018060405250810190611437919061265a565b116114545760405162461bcd60e51b81526004016104f9906127f0565b61145c611331565b156114795760405162461bcd60e51b81526004016104f990612854565b63ffffffff83166000908152601b6020908152604091829020825160c08101845281546001600160a01b03908116825260018084015491821694830194909452600160a01b9004830b830b90920b928201929092526002820154606082018190526003830154608083015260049092015460a08201529061150c5760405162461bcd60e51b81526004016104f990612951565b60065460008061151b84612069565b915091506000198214156115415760405162461bcd60e51b81526004016104f990612903565b8161154e5782915061157d565b6000846040015160010b13151583831115151461157d5760405162461bcd60e51b81526004016104f990612903565b61158682611d24565b60006115a7856080015161090c8760a0015186611dc990919063ffffffff16565b9050600080866040015160010b13156115d3576115cc6115c5611cc4565b8390611ded565b90506115fd565b6115fa6115de611cc4565b61090c846109a560028b60800151611e1290919063ffffffff16565b90505b6000866040015160010b13156116505760125482111561161d5760125491505b6013849055606086015160115461163391611e1e565b6011556012546116439083611e1e565b60128190556014556116a4565b6016548211156116605760165491505b6018849055606086015160155461167691611e1e565b6015556016546116869083611e1e565b601655608086015160175461169a91611e1e565b6017556016546019555b8060105410156116b357506010545b6010546116c09082611e1e565b6010556008546040516370a0823160e01b81526000916001600160a01b0316906370a08231906116f49030906004016126d5565b60206040518083038186803b15801561170c57600080fd5b505afa158015611720573d6000803e3d6000fd5b505050506040513d601f19601f82011682018060405250810190611744919061265a565b9050600061175d600a5486611ded90919063ffffffff16565b9050600080600c5411156117b75781831015611777578291505b600c54611785908390611ded565b90506117958b610ba38484611e1e565b600d546008546117b2916001600160a01b03918216911683611e36565b6117da565b818310156117c3578291505b6008546117da906001600160a01b03168c84611e36565b7f6f38507ff54d95a72680dddf08a58aa66bd84d38c252b5bbf63465b56e11aed28c8c87878b8660405161181396959493929190612bf5565b60405180910390a150505063ffffffff9098166000908152601b6020526040812080546001600160a01b03191681556001810180546001600160b01b0319169055600281018290556003810182905560040155505050505050505050565b600e54600160a01b900463ffffffff1681565b601b6020526000908152604090208054600180830154600284015460038501546004909501546001600160a01b039485169594831694600160a01b90930490930b9290919086565b6118d46122b4565b600181810b900b60009081526009602081905260408220805460ff19169055816118fd84612def565b60010b60010b815260200190815260200160002060006101000a81548160ff0219169083151502179055507f0ad48029b5a777c16c44eb514377797a70850e93d05fabaffea42f2595440126816040516113149190612b0f565b600e546001600160a01b031690565b61196e6122b4565b6001600160a01b0381166119945760405162461bcd60e51b81526004016104f99061287b565b61199d816122f3565b50565b600181810b900b60009081526009602052604081205460ff166119d55760405162461bcd60e51b81526004016104f9906127cd565b600083116119f55760405162461bcd60e51b81526004016104f990612996565b600e5460405163a35668bf60e01b81526000916001600160a01b03169063a35668bf90611a269030906004016126d5565b60206040518083038186803b158015611a3e57600080fd5b505afa158015611a52573d6000803e3d6000fd5b505050506040513d601f19601f82011682018060405250810190611a76919061265a565b60058190559050611a8681611d24565b600e8054600160c01b900463ffffffff16906018611aa383612dcb565b91906101000a81548163ffffffff021916908363ffffffff160217905550506000808460010b13611ae957611ae4611ada85612def565b869060010b611e12565b611af7565b611af785600186900b611e12565b90506000611b0d611b06611cc4565b8390611dc9565b6040805160c0810182526001600160a01b03808c1682528a8116602080840191825260018b810b858701818152606087018b8152608088018a815260a089018e8152600e5463ffffffff600160c01b909104166000908152601b909752998620985189549089166001600160a01b0319918216178a5596518986018054945190960b61ffff16600160a01b0261ffff60a01b199190991693909716929092179590951695909517909155915160028501559151600384015592516004909201919091559192501315611c08576013839055601154611beb9083611e2a565b601155601254611bfb9082611e2a565b6012819055601455611c44565b6018839055601554611c1a9083611e2a565b601555601654611c2a9082611e2a565b601655601754611c3a9082611e2a565b6017556016546019555b601054611c519083611e2a565b601055600e546040517f561cdb01c3e4e301a13e882a3914d5d30dbb217e14dab8bfec1730111b32426091611c9e91600160c01b90910463ffffffff16908a908a90869089908c90612bb9565b60405180910390a15050600e54600160c01b900463ffffffff169150505b949350505050565b601654601754600091611cea91611ce191906109a5906002611e12565b60125490611e2a565b611cfd5750670de0b6b3a76400006106d0565b6016546017546106cd91611d1b91611ce191906109a5906002611e12565b60105490611dc9565b80600f541415611d335761199d565b600f819055601154611d49576000601255611d63565b601454601354611d5f919061090c908490611dc9565b6012555b601554611d795760006016819055601755611d93565b601954601854611d8f919061090c908490611dc9565b6016555b6012546016546040517fc6642d24d84e7f3d36ca39f5cce10e75639d9b158d5193aa350e2f900653e4c092611314928592612b54565b6000611de6611de084670de0b6b3a7640000611e12565b83611e06565b9392505050565b6000611de6611dfc8484611e12565b670de0b6b3a76400005b6000611de68284612c74565b6000611de68284612d0b565b6000611de68284612d69565b6000611de68284612c2e565b611e8c8363a9059cbb60e01b8484604051602401611e5592919061274e565b60408051601f198184030181529190526020810180516001600160e01b03166001600160e01b031990931692909217909152612343565b505050565b601c5460ff1615611eb45760405162461bcd60e51b81526004016104f990612af1565b601c805460ff191660011790556008546040516370a0823160e01b81526000916001600160a01b0316906370a0823190611ef29030906004016126d5565b60206040518083038186803b158015611f0a57600080fd5b505afa158015611f1e573d6000803e3d6000fd5b505050506040513d601f19601f82011682018060405250810190611f42919061265a565b6008546040516327adaa4560e01b815291925033916327adaa4591611f779186916001600160a01b0316908890600401612b27565b600060405180830381600087803b158015611f9157600080fd5b505af1158015611fa5573d6000803e3d6000fd5b50505050611fbc8282611e2a90919063ffffffff16565b6008546040516370a0823160e01b81526001600160a01b03909116906370a0823190611fec9030906004016126d5565b60206040518083038186803b15801561200457600080fd5b505afa158015612018573d6000803e3d6000fd5b505050506040513d601f19601f8201168201806040525081019061203c919061265a565b101561205a5760405162461bcd60e51b81526004016104f9906128c1565b5050601c805460ff1916905550565b6000806120a86000846040015160010b1361209457836040015161208c90612def565b60010b61209d565b836040015160010b5b606085015190611e06565b905060006120d36120c8600a54670de0b6b3a76400006109709190612d69565b606086015190611e1e565b90506000846040015160010b131561218557601854601954600091612126916120fb91611dc9565b6109ee60105461090c866121208b60a001518c60800151611dc990919063ffffffff16565b90611dc9565b60135460145491925060009161213b91611dc9565b90508082111561217957601754612156576000199450612174565b6121716121638383611e1e565b601754612120906002611e12565b94505b61217e565b600094505b50506122ae565b6013546014546000916121989190611dc9565b6018546019549192506000916121ad91611dc9565b90506000818311156121f1576121ea6121d76121c98486612d69565b60105461090c908890611dc9565b60a089015160808a01516109ee91611dc9565b905061222c565b61220c6121fe8484612d69565b60105461090c908790611dc9565b60a0880151608089015161221f91611dc9565b6122299190612d2a565b90505b6000612257600261225160156002015461090c6010548a611dc990919063ffffffff16565b90611e12565b6080890151612267906002611e12565b6122719190612d2a565b905060008083139082131461228957600096506122a9565b8161229c670de0b6b3a764000083612c88565b6122a69190612c46565b96505b505050505b50915091565b6122bc6123d2565b6001600160a01b03166122cd6111ce565b6001600160a01b0316146111cc5760405162461bcd60e51b81526004016104f9906129ba565b600080546001600160a01b038381166001600160a01b0319831681178455604051919092169283917f8be0079c531659141344cd1fd0a4f28419497f9722a3daafe3b4186f6b6457e09190a35050565b6000612398826040518060400160405280602081526020017f5361666545524332303a206c6f772d6c6576656c2063616c6c206661696c6564815250856001600160a01b03166123d69092919063ffffffff16565b805190915015611e8c57808060200190518101906123b691906125e6565b611e8c5760405162461bcd60e51b81526004016104f990612a52565b3390565b6060611cbc848460008585600080866001600160a01b031685876040516123fd91906126b9565b60006040518083038185875af1925050503d806000811461243a576040519150601f19603f3d011682016040523d82523d6000602084013e61243f565b606091505b50915091506124508783838761245b565b979650505050505050565b6060831561249557825161248e576124728561249f565b61248e5760405162461bcd60e51b81526004016104f990612a1b565b5081611cbc565b611cbc83836124ae565b6001600160a01b03163b151590565b8151156124be5781518083602001fd5b8060405162461bcd60e51b81526004016104f99190612772565b8035600181900b81146110cb57600080fd5b803563ffffffff811681146110cb57600080fd5b60006020828403121561250f578081fd5b8135611de681612e3b565b60006020828403121561252b578081fd5b8151611de681612e3b565b60008060408385031215612548578081fd5b823561255381612e3b565b946020939093013593505050565b600080600060608486031215612575578081fd5b833561258081612e3b565b925060208401359150612595604085016124d8565b90509250925092565b6000806000606084860312156125b2578283fd5b83356125bd81612e3b565b92506125cb602085016124ea565b915060408401356125db81612e3b565b809150509250925092565b6000602082840312156125f7578081fd5b81518015158114611de6578182fd5b600060208284031215612617578081fd5b611de6826124d8565b600060208284031215612631578081fd5b813561ffff81168114611de6578182fd5b600060208284031215612653578081fd5b5035919050565b60006020828403121561266b578081fd5b5051919050565b600060208284031215612683578081fd5b611de6826124ea565b6000806000606084860312156126a0578283fd5b6126a9846124ea565b925060208401356125cb81612e3b565b600082516126cb818460208701612d80565b9190910192915050565b6001600160a01b0391909116815260200190565b6001600160a01b03948516815292909316602083015260010b6040820152606081019190915260800190565b6001600160a01b03968716815294909516602085015260019290920b60408401526060830152608082015260a081019190915260c00190565b6001600160a01b03929092168252602082015260400190565b901515815260200190565b6000602082528251806020840152612791816040850160208701612d80565b601f01601f19169190910160400192915050565b6020808252600e908201526d34b7103634b8bab4b230ba34b7b760911b604082015260600190565b6020808252600990820152683632bb32b61022b93960b91b604082015260600190565b6020808252601c908201527f796f7520617265206e6f74207468697320706f6f6c20706c6179657200000000604082015260600190565b6020808252601390820152722837b7b6103430b9903132b2b7103132b3bab760691b604082015260600190565b6020808252600d908201526c506f6f6c20697320676f696e6760981b604082015260600190565b60208082526026908201527f4f776e61626c653a206e6577206f776e657220697320746865207a65726f206160408201526564647265737360d01b606082015260800190565b602080825260069082015265282a1022b93960d11b604082015260600190565b6020808252600890820152673ab9b2b91022b93960c11b604082015260600190565b60208082526010908201526f1b1a5c5d5a59185d1a5bdb8819985a5b60821b604082015260600190565b6020808252600a90820152693737ba102232b0b632b960b11b604082015260600190565b6020808252600790820152663634b89022b93960c91b604082015260600190565b6020808252600a90820152693937baba32b91022b93960b11b604082015260600190565b6020808252600a908201526936b0b933b4b71022b93960b11b604082015260600190565b6020808252818101527f4f776e61626c653a2063616c6c6572206973206e6f7420746865206f776e6572604082015260600190565b602080825260129082015271646561646c696e6520746f6f206561726c7960701b604082015260600190565b6020808252601d908201527f416464726573733a2063616c6c20746f206e6f6e2d636f6e7472616374000000604082015260600190565b6020808252602a908201527f5361666545524332303a204552433230206f7065726174696f6e20646964206e6040820152691bdd081cdd58d8d9595960b21b606082015260800190565b6020808252600f908201526e1e5bdd481a185d99481bdc195b9959608a1b604082015260600190565b6020808252601290820152713737b716b2bc34b9ba103837b9b4ba34b7b760711b604082015260600190565b6020808252600490820152634c4f434b60e01b604082015260600190565b61ffff91909116815260200190565b90815260200190565b9283526001600160a01b03918216602084015216604082015260600190565b918252602082015260400190565b9283526020830191909152604082015260600190565b93845260208401929092526040830152606082015260800190565b948552602085019390935260408401919091526060830152608082015260a00190565b63ffffffff91909116815260200190565b63ffffffff9690961686526001600160a01b0394909416602086015260408501929092526060840152608083015260010b60a082015260c00190565b63ffffffff9690961686526001600160a01b0394909416602086015260408501929092526060840152608083015260a082015260c00190565b60008219821115612c4157612c41612e0f565b500190565b600082612c5557612c55612e25565b600160ff1b821460001984141615612c6f57612c6f612e0f565b500590565b600082612c8357612c83612e25565b500490565b60006001600160ff1b0381841382841380821686840486111615612cae57612cae612e0f565b600160ff1b84871282811687830589121615612ccc57612ccc612e0f565b858712925087820587128484161615612ce757612ce7612e0f565b87850587128184161615612cfd57612cfd612e0f565b505050929093029392505050565b6000816000190483118215151615612d2557612d25612e0f565b500290565b60008083128015600160ff1b850184121615612d4857612d48612e0f565b6001600160ff1b0384018313811615612d6357612d63612e0f565b50500390565b600082821015612d7b57612d7b612e0f565b500390565b60005b83811015612d9b578181015183820152602001612d83565b83811115612daa576000848401525b50505050565b6000600019821415612dc457612dc4612e0f565b5060010190565b600063ffffffff80831681811415612de557612de5612e0f565b6001019392505050565b60008160010b617fff19811415612e0857612e08612e0f565b9003919050565b634e487b7160e01b600052601160045260246000fd5b634e487b7160e01b600052601260045260246000fd5b6001600160a01b038116811461199d57600080fdfea2646970667358221220c5442d87437be23cde8a835203df92e05748e6cbe0c236b54a2c9ef169e33c8464736f6c63430008010033a2646970667358221220f9c2ef897762c840b1c98868bec291a80991fb8f164f7eabeb8bc7b93205eefa64736f6c63430008010033",
  "linkReferences": {},
  "deployedLinkReferences": {}
}