{
  "_format": "hh-sol-artifact-1",
  "contractName": "Factory",
  "sourceName": "contracts/Factory.sol",
  "abi": [
    {
      "inputs": [
        {
          "internalType": "uint256",
          "name": "marginRatio_",
          "type": "uint256"
        },
        {
          "internalType": "uint256",
          "name": "protocolFee_",
          "type": "uint256"
        },
        {
          "internalType": "uint256",
          "name": "liqProtocolFee_",
          "type": "uint256"
        },
        {
          "internalType": "address",
          "name": "priceAddress_",
          "type": "address"
        },
        {
          "internalType": "address",
          "name": "protocolReceipt_",
          "type": "address"
        }
      ],
      "stateMutability": "nonpayable",
      "type": "constructor"
    },
    {
      "anonymous": false,
      "inputs": [
        {
          "indexed": false,
          "internalType": "address",
          "name": "pool",
          "type": "address"
        },
        {
          "indexed": false,
          "internalType": "address",
          "name": "payToken",
          "type": "address"
        },
        {
          "indexed": false,
          "internalType": "address",
          "name": "targetToken",
          "type": "address"
        },
        {
          "indexed": false,
          "internalType": "address",
          "name": "oracle",
          "type": "address"
        },
        {
          "indexed": false,
          "internalType": "bool",
          "name": "reverse",
          "type": "bool"
        },
        {
          "indexed": false,
          "internalType": "uint8",
          "name": "typ",
          "type": "uint8"
        },
        {
          "indexed": false,
          "internalType": "uint256",
          "name": "id",
          "type": "uint256"
        }
      ],
      "name": "CreatePool",
      "type": "event"
    },
    {
      "anonymous": false,
      "inputs": [
        {
          "indexed": true,
          "internalType": "address",
          "name": "previousOwner",
          "type": "address"
        },
        {
          "indexed": true,
          "internalType": "address",
          "name": "newOwner",
          "type": "address"
        }
      ],
      "name": "OwnershipTransferred",
      "type": "event"
    },
    {
      "anonymous": false,
      "inputs": [
        {
          "indexed": false,
          "internalType": "uint256",
          "name": "liqProtocolFee",
          "type": "uint256"
        }
      ],
      "name": "SetLiqProtocolFee",
      "type": "event"
    },
    {
      "anonymous": false,
      "inputs": [
        {
          "indexed": false,
          "internalType": "uint256",
          "name": "marginRatio",
          "type": "uint256"
        }
      ],
      "name": "SetMarginRatio",
      "type": "event"
    },
    {
      "anonymous": false,
      "inputs": [
        {
          "indexed": false,
          "internalType": "address",
          "name": "priceAddress",
          "type": "address"
        }
      ],
      "name": "SetPriceAddress",
      "type": "event"
    },
    {
      "anonymous": false,
      "inputs": [
        {
          "indexed": false,
          "internalType": "uint256",
          "name": "protocolFee",
          "type": "uint256"
        }
      ],
      "name": "SetProtocolFee",
      "type": "event"
    },
    {
      "anonymous": false,
      "inputs": [
        {
          "indexed": false,
          "internalType": "address",
          "name": "protocolReceipt",
          "type": "address"
        }
      ],
      "name": "SetProtocolReceipt",
      "type": "event"
    },
    {
      "inputs": [
        {
          "internalType": "uint256",
          "name": "id",
          "type": "uint256"
        },
        {
          "internalType": "address",
          "name": "payToken",
          "type": "address"
        },
        {
          "internalType": "address",
          "name": "targetToken",
          "type": "address"
        },
        {
          "internalType": "address",
          "name": "oracle",
          "type": "address"
        },
        {
          "internalType": "bool",
          "name": "reverse",
          "type": "bool"
        },
        {
          "internalType": "uint8",
          "name": "typ",
          "type": "uint8"
        }
      ],
      "name": "createPool",
      "outputs": [],
      "stateMutability": "nonpayable",
      "type": "function"
    },
    {
      "inputs": [],
      "name": "dealer",
      "outputs": [
        {
          "internalType": "address",
          "name": "",
          "type": "address"
        }
      ],
      "stateMutability": "view",
      "type": "function"
    },
    {
      "inputs": [],
      "name": "liqProtocolFee",
      "outputs": [
        {
          "internalType": "uint256",
          "name": "",
          "type": "uint256"
        }
      ],
      "stateMutability": "view",
      "type": "function"
    },
    {
      "inputs": [],
      "name": "marginRatio",
      "outputs": [
        {
          "internalType": "uint256",
          "name": "",
          "type": "uint256"
        }
      ],
      "stateMutability": "view",
      "type": "function"
    },
    {
      "inputs": [],
      "name": "owner",
      "outputs": [
        {
          "internalType": "address",
          "name": "",
          "type": "address"
        }
      ],
      "stateMutability": "view",
      "type": "function"
    },
    {
      "inputs": [],
      "name": "player",
      "outputs": [
        {
          "internalType": "address",
          "name": "",
          "type": "address"
        }
      ],
      "stateMutability": "view",
      "type": "function"
    },
    {
      "inputs": [
        {
          "internalType": "address",
          "name": "",
          "type": "address"
        }
      ],
      "name": "pools",
      "outputs": [
        {
          "internalType": "bool",
          "name": "",
          "type": "bool"
        }
      ],
      "stateMutability": "view",
      "type": "function"
    },
    {
      "inputs": [],
      "name": "priceAddress",
      "outputs": [
        {
          "internalType": "address",
          "name": "",
          "type": "address"
        }
      ],
      "stateMutability": "view",
      "type": "function"
    },
    {
      "inputs": [],
      "name": "protocolFee",
      "outputs": [
        {
          "internalType": "uint256",
          "name": "",
          "type": "uint256"
        }
      ],
      "stateMutability": "view",
      "type": "function"
    },
    {
      "inputs": [],
      "name": "protocolReceipt",
      "outputs": [
        {
          "internalType": "address",
          "name": "",
          "type": "address"
        }
      ],
      "stateMutability": "view",
      "type": "function"
    },
    {
      "inputs": [],
      "name": "renounceOwnership",
      "outputs": [],
      "stateMutability": "nonpayable",
      "type": "function"
    },
    {
      "inputs": [
        {
          "internalType": "address",
          "name": "dealer_",
          "type": "address"
        }
      ],
      "name": "setDealer",
      "outputs": [],
      "stateMutability": "nonpayable",
      "type": "function"
    },
    {
      "inputs": [
        {
          "internalType": "uint256",
          "name": "liqProtocolFee_",
          "type": "uint256"
        }
      ],
      "name": "setLiqProtocolFee",
      "outputs": [],
      "stateMutability": "nonpayable",
      "type": "function"
    },
    {
      "inputs": [
        {
          "internalType": "uint256",
          "name": "marginRatio_",
          "type": "uint256"
        }
      ],
      "name": "setMarginRatio",
      "outputs": [],
      "stateMutability": "nonpayable",
      "type": "function"
    },
    {
      "inputs": [
        {
          "internalType": "address",
          "name": "player_",
          "type": "address"
        }
      ],
      "name": "setPlayer",
      "outputs": [],
      "stateMutability": "nonpayable",
      "type": "function"
    },
    {
      "inputs": [
        {
          "internalType": "address",
          "name": "priceAddress_",
          "type": "address"
        }
      ],
      "name": "setPriceAddress",
      "outputs": [],
      "stateMutability": "nonpayable",
      "type": "function"
    },
    {
      "inputs": [
        {
          "internalType": "uint256",
          "name": "protocolFee_",
          "type": "uint256"
        }
      ],
      "name": "setProtocolFee",
      "outputs": [],
      "stateMutability": "nonpayable",
      "type": "function"
    },
    {
      "inputs": [
        {
          "internalType": "address",
          "name": "protocolReceipt_",
          "type": "address"
        }
      ],
      "name": "setProtocolReceipt",
      "outputs": [],
      "stateMutability": "nonpayable",
      "type": "function"
    },
    {
      "inputs": [
        {
          "internalType": "address",
          "name": "newOwner",
          "type": "address"
        }
      ],
      "name": "transferOwnership",
      "outputs": [],
      "stateMutability": "nonpayable",
      "type": "function"
    }
  ],
  "bytecode": "0x60806040523480156200001157600080fd5b506040516200456f3803806200456f833981016040819052620000349162000221565b6200004862000042620001b0565b620001b4565b600385905560048490556005839055600680546001600160a01b038085166001600160a01b03199283161790925560078054928416929091169190911790556040517f60e314eb1dcc14680ab3be0aaa5b70ea0d3828f11e6bcb38305fea8bbf2d49cc90620000b990879062000289565b60405180910390a17fdc0410a296e1e33943a772020d333d5f99319d7fcad932a484c53889f7aaa2b184604051620000f2919062000289565b60405180910390a17ffec3e2cce26c0fccf827d7f8d326ecb9f37ad07b47912dc290d75e165e8e61ae836040516200012b919062000289565b60405180910390a17fbe0f8c41260e53f3d847406e8870c8588bfe623a76be606cd46ae47e58d466a98260405162000164919062000275565b60405180910390a17fbc1e06e494fbfeb91b3fd39ead6160a6246fef341f5352a61918c05bf42cf98e816040516200019d919062000275565b60405180910390a1505050505062000292565b3390565b600080546001600160a01b038381166001600160a01b0319831681178455604051919092169283917f8be0079c531659141344cd1fd0a4f28419497f9722a3daafe3b4186f6b6457e09190a35050565b80516001600160a01b03811681146200021c57600080fd5b919050565b600080600080600060a0868803121562000239578081fd5b855194506020860151935060408601519250620002596060870162000204565b9150620002696080870162000204565b90509295509295909350565b6001600160a01b0391909116815260200190565b90815260200190565b6142cd80620002a26000396000f3fe60806040523480156200001157600080fd5b50600436106200013c5760003560e01c80638da5cb5b11620000bd578063ac02c0bd116200007b578063ac02c0bd1462000260578063b0e21e8a146200026a578063b6d7a1c91462000274578063bc8d3ac4146200028b578063f2fde38b14620002a2576200013c565b80638da5cb5b146200020557806390666ff9146200020f578063959901a414620002195780639de2ee211462000230578063a4063dbc146200023a576200013c565b806348db5f89116200010b57806348db5f8914620001ac57806369145d6e14620001b6578063715018a614620001cd578063787dce3d14620001d7578063872d136a14620001ee576200013c565b8063091547f014620001415780631e665f32146200015a5780632d31c16e14620001715780633a267ea31462000193575b600080fd5b6200015862000152366004620009cd565b620002b9565b005b620001586200016b36600462000950565b62000609565b6200017b62000635565b6040516200018a919062000b9a565b60405180910390f35b6200019d6200063b565b6040516200018a919062000a54565b6200019d6200064a565b62000158620001c736600462000950565b62000659565b62000158620006bb565b62000158620001e8366004620009b4565b620006d3565b62000158620001ff36600462000950565b62000714565b6200019d6200076b565b6200019d6200077a565b620001586200022a366004620009b4565b62000789565b6200019d620007ca565b620002516200024b36600462000950565b620007d9565b6040516200018a919062000af0565b6200017b620007ee565b6200017b620007f4565b6200015862000285366004620009b4565b620007fa565b620001586200029c36600462000950565b6200083b565b62000158620002b336600462000950565b62000867565b60015460405163fa2085cf60e01b815287916001600160a01b03169063fa2085cf90620002eb90849060040162000b9a565b60206040518083038186803b1580156200030457600080fd5b505afa15801562000319573d6000803e3d6000fd5b505050506040513d601f19601f820116820180604052508101906200033f919062000995565b8015620003d857506001546040516331a9108f60e11b815233916001600160a01b031690636352211e906200037990859060040162000b9a565b60206040518083038186803b1580156200039257600080fd5b505afa158015620003a7573d6000803e3d6000fd5b505050506040513d601f19601f82011682018060405250810190620003cd919062000976565b6001600160a01b0316145b620004005760405162461bcd60e51b8152600401620003f79062000b41565b60405180910390fd5b60015460025460405160009289928892889288928e926001600160a01b039283169290911690620004319062000942565b62000443979695949392919062000aae565b604051809103906000f08015801562000460573d6000803e3d6000fd5b509050806001600160a01b031663f2fde38b6200047c6200076b565b6040518263ffffffff1660e01b81526004016200049a919062000a54565b600060405180830381600087803b158015620004b557600080fd5b505af1158015620004ca573d6000803e3d6000fd5b5050506001600160a01b0380831660009081526008602052604090819020805460ff1916600190811790915554905163171ba5a960e31b81529116915063b8dd2d48906200051f908b90859060040162000ba3565b600060405180830381600087803b1580156200053a57600080fd5b505af11580156200054f573d6000803e3d6000fd5b5050600180546040516338d9f74f60e01b81526001600160a01b0390911693506338d9f74f925062000586918c9160040162000bba565b600060405180830381600087803b158015620005a157600080fd5b505af1158015620005b6573d6000803e3d6000fd5b505050507fdb754e3e975fc7a211c7973d31e0daffe8f2d8188e51f2d79357e3178061d01a8188888888888e604051620005f7979695949392919062000a68565b60405180910390a15050505050505050565b62000613620008a8565b600180546001600160a01b0319166001600160a01b0392909216919091179055565b60035481565b6007546001600160a01b031681565b6002546001600160a01b031681565b62000663620008a8565b600780546001600160a01b0319166001600160a01b0383161790556040517fbc1e06e494fbfeb91b3fd39ead6160a6246fef341f5352a61918c05bf42cf98e90620006b090839062000a54565b60405180910390a150565b620006c5620008a8565b620006d16000620008ee565b565b620006dd620008a8565b60048190556040517fdc0410a296e1e33943a772020d333d5f99319d7fcad932a484c53889f7aaa2b190620006b090839062000b9a565b6200071e620008a8565b600680546001600160a01b0319166001600160a01b0383161790556040517fbe0f8c41260e53f3d847406e8870c8588bfe623a76be606cd46ae47e58d466a990620006b090839062000a54565b6000546001600160a01b031690565b6006546001600160a01b031681565b62000793620008a8565b60058190556040517ffec3e2cce26c0fccf827d7f8d326ecb9f37ad07b47912dc290d75e165e8e61ae90620006b090839062000b9a565b6001546001600160a01b031681565b60086020526000908152604090205460ff1681565b60055481565b60045481565b62000804620008a8565b60038190556040517f60e314eb1dcc14680ab3be0aaa5b70ea0d3828f11e6bcb38305fea8bbf2d49cc90620006b090839062000b9a565b62000845620008a8565b600280546001600160a01b0319166001600160a01b0392909216919091179055565b62000871620008a8565b6001600160a01b0381166200089a5760405162461bcd60e51b8152600401620003f79062000afb565b620008a581620008ee565b50565b620008b26200093e565b6001600160a01b0316620008c56200076b565b6001600160a01b031614620006d15760405162461bcd60e51b8152600401620003f79062000b65565b600080546001600160a01b038381166001600160a01b0319831681178455604051919092169283917f8be0079c531659141344cd1fd0a4f28419497f9722a3daafe3b4186f6b6457e09190a35050565b3390565b6136aa8062000bee83390190565b60006020828403121562000962578081fd5b81356200096f8162000bc8565b9392505050565b60006020828403121562000988578081fd5b81516200096f8162000bc8565b600060208284031215620009a7578081fd5b81516200096f8162000bde565b600060208284031215620009c6578081fd5b5035919050565b60008060008060008060c08789031215620009e6578182fd5b863595506020870135620009fa8162000bc8565b9450604087013562000a0c8162000bc8565b9350606087013562000a1e8162000bc8565b9250608087013562000a308162000bde565b915060a087013560ff8116811462000a46578182fd5b809150509295509295509295565b6001600160a01b0391909116815260200190565b6001600160a01b03978816815295871660208701529386166040860152919094166060840152921515608083015260ff90921660a082015260c081019190915260e00190565b6001600160a01b0397881681529587166020870152931515604086015260ff9290921660608501526080840152831660a083015290911660c082015260e00190565b901515815260200190565b60208082526026908201527f4f776e61626c653a206e6577206f776e657220697320746865207a65726f206160408201526564647265737360d01b606082015260800190565b6020808252600a90820152693737ba102232b0b632b960b11b604082015260600190565b6020808252818101527f4f776e61626c653a2063616c6c6572206973206e6f7420746865206f776e6572604082015260600190565b90815260200190565b9182526001600160a01b0316602082015260400190565b918252602082015260400190565b6001600160a01b0381168114620008a557600080fd5b8015158114620008a557600080fdfe6080604052600e8054600160a01b600160e01b03191690556000600f553480156200002957600080fd5b50604051620036aa380380620036aa8339810160408190526200004c9162000685565b620000606200005a620005f0565b620005f4565b600280546001600160a01b038085166001600160a01b03199283161790925560018054848416908316179055600385905560088054928a1692909116919091179055604080516390666ff960e01b81529051339182916390666ff991600480820192602092909190829003018186803b158015620000dd57600080fd5b505afa158015620000f2573d6000803e3d6000fd5b505050506040513d601f19601f8201168201806040525081019062000118919062000661565b600e80546001600160a01b0319166001600160a01b0392831617908190556040516310cd532560e01b81529116906310cd53259062000160908a9089908b9060040162000736565b600060405180830381600087803b1580156200017b57600080fd5b505af115801562000190573d6000803e3d6000fd5b5050505060405180608001604052806000815260200160008152602001600e60009054906101000a90046001600160a01b03166001600160a01b03166398d5fdca6040518163ffffffff1660e01b815260040160206040518083038186803b158015620001fc57600080fd5b505afa15801562000211573d6000803e3d6000fd5b505050506040513d601f19601f820116820180604052508101906200023791906200071d565b815260006020918201819052825160115582820151601255604080840151601355606093840151601455805160a08101825282815280840183905280820192909252600e548151634c6afee560e11b8152915192948501936001600160a01b03909116926398d5fdca926004808201939291829003018186803b158015620002be57600080fd5b505afa158015620002d3573d6000803e3d6000fd5b505050506040513d601f19601f82011682018060405250810190620002f991906200071d565b8152600060209182015281516015558181015160165560408083015160175560608301516018556080909201516019558151631698e0b760e11b815291516001600160a01b03841692632d31c16e926004828101939192829003018186803b1580156200036557600080fd5b505afa1580156200037a573d6000803e3d6000fd5b505050506040513d601f19601f82011682018060405250810190620003a091906200071d565b600a81905550806001600160a01b031663b0e21e8a6040518163ffffffff1660e01b815260040160206040518083038186803b158015620003e057600080fd5b505afa158015620003f5573d6000803e3d6000fd5b505050506040513d601f19601f820116820180604052508101906200041b91906200071d565b600b81905550806001600160a01b031663ac02c0bd6040518163ffffffff1660e01b815260040160206040518083038186803b1580156200045b57600080fd5b505afa15801562000470573d6000803e3d6000fd5b505050506040513d601f19601f820116820180604052508101906200049691906200071d565b600c81905550806001600160a01b0316633a267ea36040518163ffffffff1660e01b815260040160206040518083038186803b158015620004d657600080fd5b505afa158015620004eb573d6000803e3d6000fd5b505050506040513d601f19601f8201168201806040525081019062000511919062000661565b600d80546001600160a01b0319166001600160a01b0392909216919091179055600a546040517f60e314eb1dcc14680ab3be0aaa5b70ea0d3828f11e6bcb38305fea8bbf2d49cc9162000564916200075c565b60405180910390a17fdc0410a296e1e33943a772020d333d5f99319d7fcad932a484c53889f7aaa2b1600b546040516200059f91906200075c565b60405180910390a17ffec3e2cce26c0fccf827d7f8d326ecb9f37ad07b47912dc290d75e165e8e61ae600c54604051620005da91906200075c565b60405180910390a1505050505050505062000765565b3390565b600080546001600160a01b038381166001600160a01b0319831681178455604051919092169283917f8be0079c531659141344cd1fd0a4f28419497f9722a3daafe3b4186f6b6457e09190a35050565b80516001600160a01b03811681146200065c57600080fd5b919050565b60006020828403121562000673578081fd5b6200067e8262000644565b9392505050565b600080600080600080600060e0888a031215620006a0578283fd5b620006ab8862000644565b9650620006bb6020890162000644565b955060408801518015158114620006d0578384fd5b606089015190955060ff81168114620006e7578384fd5b60808901519094509250620006ff60a0890162000644565b91506200070f60c0890162000644565b905092959891949750929550565b6000602082840312156200072f578081fd5b5051919050565b6001600160a01b0393909316835260ff9190911660208301521515604082015260600190565b90815260200190565b612f3580620007756000396000f3fe608060405234801561001057600080fd5b50600436106102275760003560e01c80638fd418d311610130578063b868723e116100b8578063da8e1d751161007c578063da8e1d751461040a578063deebe41014610412578063e38fd53114610437578063ebe79a341461044a578063f2fde38b1461045257610227565b8063b868723e146103d7578063b9dcde10146103df578063bef3a083146103e7578063cf9afab5146103ef578063d3ce1c82146103f757610227565b8063ac02c0bd116100ff578063ac02c0bd14610389578063af640d0f14610391578063b0e21e8a14610399578063b22e2b93146103a1578063b6d7a1c9146103c457610227565b80638fd418d31461035957806396336b301461037157806398d5fdca146103795780639de2ee211461038157610227565b80633608cdf8116101b35780635d9e05db116101825780635d9e05db1461030e578063669c636d1461032e57806369145d6e14610336578063715018a6146103495780638da5cb5b1461035157610227565b80633608cdf8146102cb5780633627d0e0146102de5780633a267ea3146102f157806348db5f891461030657610227565b80632843d22d116101fa5780632843d22d1461026f5780632986c0e5146102825780632d1aeb28146102975780632d31c16e146102aa57806335726234146102b257610227565b8063053f14da1461022c5780630a0e5c9d1461024a5780630c2804441461025f57806317fbe35414610267575b600080fd5b610234610465565b6040516102419190612bcd565b60405180910390f35b61025d6102583660046125e5565b61046b565b005b6102346106e1565b6102346106f1565b61025d61027d36600461273b565b6106f7565b61028a610ca7565b6040516102419190612c57565b61025d6102a5366004612610565b610cba565b61023461102f565b6102ba611035565b604051610241959493929190612c34565b6102346102d9366004612721565b611047565b61025d6102ec3660046126cf565b6110ee565b6102f9611186565b6040516102419190612784565b6102f9611195565b61032161031c3660046126b5565b6111a4565b6040516102419190612816565b61025d6111b9565b61025d6103443660046125ad565b611248565b61025d611272565b6102f9611286565b610361611295565b6040516102419493929190612c19565b6102f96112a4565b6102346112b3565b6102f9611334565b610234611343565b610234611349565b61023461134f565b6103b46103af366004612721565b611355565b6040516102419493929190612798565b61025d6103d23660046126f1565b61138f565b6102346113cc565b6102346113d2565b6102346113d8565b6103216113de565b61025d61040536600461264d565b6113e7565b61028a61191e565b610425610420366004612721565b611931565b604051610241969594939291906127c4565b61025d6104453660046126cf565b611979565b6102f9611a04565b61025d6104603660046125ad565b611a13565b600f5481565b6002546003546040516331a9108f60e11b815284926001600160a01b0380851693911691636352211e916104a191600401612bcd565b60206040518083038186803b1580156104b957600080fd5b505afa1580156104cd573d6000803e3d6000fd5b505050506040513d601f19601f820116820180604052508101906104f191906125c9565b6001600160a01b0316146105205760405162461bcd60e51b8152600401610517906129dc565b60405180910390fd5b600454156105405760405162461bcd60e51b8152600401610517906128d6565b42821161055f5760405162461bcd60e51b815260040161051790612a9e565b6004828155600254600354604051630a15c49160e11b81526001600160a01b039092169263142b8922926105969291879101612bf5565b600060405180830381600087803b1580156105b057600080fd5b505af11580156105c4573d6000803e3d6000fd5b506001925050505b600e5463ffffffff600160a01b90910481169082161161063e5763ffffffff81166000908152601a60205260409020805460018083015460029093015461062b936001600160a01b0393841693811692600160a01b909104900b611a4d565b508061063681612e7a565b9150506105cc565b506002546003546040516338d9f74f60e01b81526001600160a01b03909216916338d9f74f9161067391600090600401612bf5565b600060405180830381600087803b15801561068d57600080fd5b505af11580156106a1573d6000803e3d6000fd5b505050507f02cd0f962e62be582c42a69232ce8a51199f039c40654f85b95cd182797ab8d6826040516106d49190612bcd565b60405180910390a1505050565b60006106eb611d73565b90505b90565b60105481565b60015460035460405163b28a0a7f60e01b815284926000926001600160a01b039091169162fdd58e918591849163b28a0a7f916107379190600401612bcd565b60206040518083038186803b15801561074f57600080fd5b505afa158015610763573d6000803e3d6000fd5b505050506040513d601f19601f820116820180604052508101906107879190612709565b6040518363ffffffff1660e01b81526004016107a49291906127fd565b60206040518083038186803b1580156107bc57600080fd5b505afa1580156107d0573d6000803e3d6000fd5b505050506040513d601f19601f820116820180604052508101906107f49190612709565b116108115760405162461bcd60e51b81526004016105179061289f565b6108196113de565b156108365760405162461bcd60e51b815260040161051790612903565b63ffffffff84166000908152601b6020908152604091829020825160c08101845281546001600160a01b0390811680835260018085015492831695840195909552600160a01b909104840b840b90930b9381019390935260028101546060840152600381015460808401526004015460a083015233146108c85760405162461bcd60e51b815260040161051790612a21565b836001600160a01b031681602001516001600160a01b0316146108fd5760405162461bcd60e51b815260040161051790612990565b60065461090981611dd3565b6000610930836080015161092a8560a0015185611e7890919063ffffffff16565b90611e9c565b905060006109706000856040015160010b1361095c57846040015161095490612e9e565b60010b610965565b846040015160010b5b606086015190611eb5565b9050600080856040015160010b131561099c5761099561098e611d73565b8490611e9c565b90506109cc565b6109c96109a7611d73565b61092a856109c360028a60800151611ec190919063ffffffff16565b90611ecd565b90505b60006109e3600b5483611e9c90919063ffffffff16565b9050610a1281610a0c610a01600a5487611e9c90919063ffffffff16565b60608a015190611ed9565b90611ed9565b610a1c8385611ed9565b11610a395760405162461bcd60e51b815260040161051790612854565b6000866040015160010b1315610a8d57601254841115610a595760125493505b601254610a669085611ecd565b60125560138590556060860151601154610a7f91611ecd565b601155601254601455610ae1565b601654841115610a9d5760165493505b60188590556060860151601554610ab391611ecd565b601555601654610ac39085611ecd565b6016556080860151601754610ad791611ecd565b6017556016546019555b816010541015610af15760105491505b601054610afe9083611ecd565b6010556060860151600090610b17906109c38587611ed9565b6008546040516370a0823160e01b81529192506000916001600160a01b03909116906370a0823190610b4d903090600401612784565b60206040518083038186803b158015610b6557600080fd5b505afa158015610b79573d6000803e3d6000fd5b505050506040513d601f19601f82011682018060405250810190610b9d9190612709565b905081811015610bab578091505b600b5415610bf657610bd48a610bc18486611ecd565b6008546001600160a01b03169190611ee5565b600d54600854610bf1916001600160a01b03918216911685611ee5565b610c0d565b600854610c0d906001600160a01b03168b84611ee5565b7fd0f219269b2989457aec2ba9ff3e215e5834b740f1bbea057f5ab4c7f250cf1d8c896020015188878b88604051610c4a96959493929190612ca4565b60405180910390a150505063ffffffff9098166000908152601b6020526040812080546001600160a01b03191681556001810180546001600160b01b03191690556002810182905560038101829055600401555050505050505050565b600e54600160c01b900463ffffffff1681565b60015460035460405163b28a0a7f60e01b815285926000926001600160a01b039091169162fdd58e918591849163b28a0a7f91610cfa9190600401612bcd565b60206040518083038186803b158015610d1257600080fd5b505afa158015610d26573d6000803e3d6000fd5b505050506040513d601f19601f82011682018060405250810190610d4a9190612709565b6040518363ffffffff1660e01b8152600401610d679291906127fd565b60206040518083038186803b158015610d7f57600080fd5b505afa158015610d93573d6000803e3d6000fd5b505050506040513d601f19601f82011682018060405250810190610db79190612709565b11610dd45760405162461bcd60e51b81526004016105179061289f565b60045415610df45760405162461bcd60e51b8152600401610517906128d6565b60015460035460405163b28a0a7f60e01b81526001600160a01b039092169162fdd58e918791849163b28a0a7f91610e2f9190600401612bcd565b60206040518083038186803b158015610e4757600080fd5b505afa158015610e5b573d6000803e3d6000fd5b505050506040513d601f19601f82011682018060405250810190610e7f9190612709565b6040518363ffffffff1660e01b8152600401610e9c9291906127fd565b60206040518083038186803b158015610eb457600080fd5b505afa158015610ec8573d6000803e3d6000fd5b505050506040513d601f19601f82011682018060405250810190610eec9190612709565b6001600160a01b03851660009081526007602052604090205410610f225760405162461bcd60e51b815260040161051790612b4b565b600e8054600160a01b900463ffffffff16906014610f3f83612e7a565b82546101009290920a63ffffffff818102199093169183160217909155604080516080810182523381526001600160a01b038881166020808401918252600189810b858701908152606086018c8152600e54600160a01b908190049099166000908152601a90945296909220945185546001600160a01b03199081169186169190911786559251858201805493519390941694169390931761ffff60a01b191661ffff9190930b169094021790925551600290910155506110008484611f40565b6001600160a01b038416600090815260076020526040812080549161102483612e5f565b919050555050505050565b600a5481565b60155460165460175460185460195485565b63ffffffff81166000908152601b60209081526040808320815160c08101835281546001600160a01b03908116825260018084015491821695830195909552600160a01b9004840b840b90930b918301919091526002810154606083018190526003820154608084015260049091015460a08301526110d85760405162461bcd60e51b815260040161051790612b74565b60006110e382612118565b50925050505b919050565b6110f6612363565b600181810b810b60009081526009602081905260408220805460ff1916841790559061112184612e9e565b60010b60010b815260200190815260200160002060006101000a81548160ff0219169083151502179055507ff67b5be99da014dc5bbb05f7a10b5c1e1eaf761dcff49aef0a830ffd33b5c9dc8160405161117b9190612bbe565b60405180910390a150565b600d546001600160a01b031681565b6001546001600160a01b031681565b60096020526000908152604090205460ff1681565b6111c1612363565b600e5460405163020cae0d60e21b81526001600160a01b0390911690630832b834906111f1903090600401612784565b602060405180830381600087803b15801561120b57600080fd5b505af115801561121f573d6000803e3d6000fd5b505050506040513d601f19601f820116820180604052508101906112439190612709565b600655565b611250612363565b600d80546001600160a01b0319166001600160a01b0392909216919091179055565b61127a612363565b61128460006123a2565b565b6000546001600160a01b031690565b60115460125460135460145484565b6008546001600160a01b031681565b600e5460405163a35668bf60e01b81526000916001600160a01b03169063a35668bf906112e4903090600401612784565b60206040518083038186803b1580156112fc57600080fd5b505afa158015611310573d6000803e3d6000fd5b505050506040513d601f19601f820116820180604052508101906106eb9190612709565b6002546001600160a01b031681565b600c5481565b60035481565b600b5481565b601a60205260009081526040902080546001808301546002909301546001600160a01b039283169392831692600160a01b900490910b9084565b611397612363565b600a8190556040517f60e314eb1dcc14680ab3be0aaa5b70ea0d3828f11e6bcb38305fea8bbf2d49cc9061117b908390612bcd565b60065481565b60055481565b60045481565b60045442111590565b60015460035460405163b28a0a7f60e01b815285926000926001600160a01b039091169162fdd58e918591849163b28a0a7f916114279190600401612bcd565b60206040518083038186803b15801561143f57600080fd5b505afa158015611453573d6000803e3d6000fd5b505050506040513d601f19601f820116820180604052508101906114779190612709565b6040518363ffffffff1660e01b81526004016114949291906127fd565b60206040518083038186803b1580156114ac57600080fd5b505afa1580156114c0573d6000803e3d6000fd5b505050506040513d601f19601f820116820180604052508101906114e49190612709565b116115015760405162461bcd60e51b81526004016105179061289f565b6115096113de565b156115265760405162461bcd60e51b815260040161051790612903565b63ffffffff83166000908152601b6020908152604091829020825160c08101845281546001600160a01b03908116825260018084015491821694830194909452600160a01b9004830b830b90920b928201929092526002820154606082018190526003830154608083015260049092015460a0820152906115b95760405162461bcd60e51b815260040161051790612a00565b6006546000806115c884612118565b915091506000198214156115ee5760405162461bcd60e51b8152600401610517906129b2565b816115fb5782915061162a565b6000846040015160010b13151583831115151461162a5760405162461bcd60e51b8152600401610517906129b2565b61163382611dd3565b6000611654856080015161092a8760a0015186611e7890919063ffffffff16565b9050600080866040015160010b131561168057611679611672611d73565b8390611e9c565b90506116aa565b6116a761168b611d73565b61092a846109c360028b60800151611ec190919063ffffffff16565b90505b6000866040015160010b13156116fd576012548211156116ca5760125491505b601384905560608601516011546116e091611ecd565b6011556012546116f09083611ecd565b6012819055601455611751565b60165482111561170d5760165491505b6018849055606086015160155461172391611ecd565b6015556016546117339083611ecd565b601655608086015160175461174791611ecd565b6017556016546019555b80601054101561176057506010545b60105461176d9082611ecd565b6010556008546040516370a0823160e01b81526000916001600160a01b0316906370a08231906117a1903090600401612784565b60206040518083038186803b1580156117b957600080fd5b505afa1580156117cd573d6000803e3d6000fd5b505050506040513d601f19601f820116820180604052508101906117f19190612709565b9050600061180a600a5486611e9c90919063ffffffff16565b9050600080600c5411156118645781831015611824578291505b600c54611832908390611e9c565b90506118428b610bc18484611ecd565b600d5460085461185f916001600160a01b03918216911683611ee5565b611887565b81831015611870578291505b600854611887906001600160a01b03168c84611ee5565b7f6f38507ff54d95a72680dddf08a58aa66bd84d38c252b5bbf63465b56e11aed28c8c87878b866040516118c096959493929190612ca4565b60405180910390a150505063ffffffff9098166000908152601b6020526040812080546001600160a01b03191681556001810180546001600160b01b0319169055600281018290556003810182905560040155505050505050505050565b600e54600160a01b900463ffffffff1681565b601b6020526000908152604090208054600180830154600284015460038501546004909501546001600160a01b039485169594831694600160a01b90930490930b9290919086565b611981612363565b600181810b900b60009081526009602081905260408220805460ff19169055816119aa84612e9e565b60010b60010b815260200190815260200160002060006101000a81548160ff0219169083151502179055507f0ad48029b5a777c16c44eb514377797a70850e93d05fabaffea42f25954401268160405161117b9190612bbe565b600e546001600160a01b031690565b611a1b612363565b6001600160a01b038116611a415760405162461bcd60e51b81526004016105179061292a565b611a4a816123a2565b50565b600181810b900b60009081526009602052604081205460ff16611a825760405162461bcd60e51b81526004016105179061287c565b60008311611aa25760405162461bcd60e51b815260040161051790612a45565b600e5460405163020cae0d60e21b81526000916001600160a01b031690630832b83490611ad3903090600401612784565b602060405180830381600087803b158015611aed57600080fd5b505af1158015611b01573d6000803e3d6000fd5b505050506040513d601f19601f82011682018060405250810190611b259190612709565b60058190559050611b3581611dd3565b600e8054600160c01b900463ffffffff16906018611b5283612e7a565b91906101000a81548163ffffffff021916908363ffffffff160217905550506000808460010b13611b9857611b93611b8985612e9e565b869060010b611ec1565b611ba6565b611ba685600186900b611ec1565b90506000611bbc611bb5611d73565b8390611e78565b6040805160c0810182526001600160a01b03808c1682528a8116602080840191825260018b810b858701818152606087018b8152608088018a815260a089018e8152600e5463ffffffff600160c01b909104166000908152601b909752998620985189549089166001600160a01b0319918216178a5596518986018054945190960b61ffff16600160a01b0261ffff60a01b199190991693909716929092179590951695909517909155915160028501559151600384015592516004909201919091559192501315611cb7576013839055601154611c9a9083611ed9565b601155601254611caa9082611ed9565b6012819055601455611cf3565b6018839055601554611cc99083611ed9565b601555601654611cd99082611ed9565b601655601754611ce99082611ed9565b6017556016546019555b601054611d009083611ed9565b601055600e546040517f561cdb01c3e4e301a13e882a3914d5d30dbb217e14dab8bfec1730111b32426091611d4d91600160c01b90910463ffffffff16908a908a90869089908c90612c68565b60405180910390a15050600e54600160c01b900463ffffffff169150505b949350505050565b601654601754600091611d9991611d9091906109c3906002611ec1565b60125490611ed9565b611dac5750670de0b6b3a76400006106ee565b6016546017546106eb91611dca91611d9091906109c3906002611ec1565b60105490611e78565b80600f541415611de257611a4a565b600f819055601154611df8576000601255611e12565b601454601354611e0e919061092a908490611e78565b6012555b601554611e285760006016819055601755611e42565b601954601854611e3e919061092a908490611e78565b6016555b6012546016546040517fc6642d24d84e7f3d36ca39f5cce10e75639d9b158d5193aa350e2f900653e4c09261117b928592612c03565b6000611e95611e8f84670de0b6b3a7640000611ec1565b83611eb5565b9392505050565b6000611e95611eab8484611ec1565b670de0b6b3a76400005b6000611e958284612d23565b6000611e958284612dba565b6000611e958284612e18565b6000611e958284612cdd565b611f3b8363a9059cbb60e01b8484604051602401611f049291906127fd565b60408051601f198184030181529190526020810180516001600160e01b03166001600160e01b0319909316929092179091526123f2565b505050565b601c5460ff1615611f635760405162461bcd60e51b815260040161051790612ba0565b601c805460ff191660011790556008546040516370a0823160e01b81526000916001600160a01b0316906370a0823190611fa1903090600401612784565b60206040518083038186803b158015611fb957600080fd5b505afa158015611fcd573d6000803e3d6000fd5b505050506040513d601f19601f82011682018060405250810190611ff19190612709565b6008546040516327adaa4560e01b815291925033916327adaa45916120269186916001600160a01b0316908890600401612bd6565b600060405180830381600087803b15801561204057600080fd5b505af1158015612054573d6000803e3d6000fd5b5050505061206b8282611ed990919063ffffffff16565b6008546040516370a0823160e01b81526001600160a01b03909116906370a082319061209b903090600401612784565b60206040518083038186803b1580156120b357600080fd5b505afa1580156120c7573d6000803e3d6000fd5b505050506040513d601f19601f820116820180604052508101906120eb9190612709565b10156121095760405162461bcd60e51b815260040161051790612970565b5050601c805460ff1916905550565b6000806121576000846040015160010b1361214357836040015161213b90612e9e565b60010b61214c565b836040015160010b5b606085015190611eb5565b90506000612182612177600a54670de0b6b3a764000061098e9190612e18565b606086015190611ecd565b90506000846040015160010b1315612234576018546019546000916121d5916121aa91611e78565b610a0c60105461092a866121cf8b60a001518c60800151611e7890919063ffffffff16565b90611e78565b6013546014549192506000916121ea91611e78565b90508082111561222857601754612205576000199450612223565b6122206122128383611ecd565b6017546121cf906002611ec1565b94505b61222d565b600094505b505061235d565b6013546014546000916122479190611e78565b60185460195491925060009161225c91611e78565b90506000818311156122a0576122996122866122788486612e18565b60105461092a908890611e78565b60a089015160808a0151610a0c91611e78565b90506122db565b6122bb6122ad8484612e18565b60105461092a908790611e78565b60a088015160808901516122ce91611e78565b6122d89190612dd9565b90505b6000612306600261230060156002015461092a6010548a611e7890919063ffffffff16565b90611ec1565b6080890151612316906002611ec1565b6123209190612dd9565b90506000808313908213146123385760009650612358565b8161234b670de0b6b3a764000083612d37565b6123559190612cf5565b96505b505050505b50915091565b61236b612481565b6001600160a01b031661237c611286565b6001600160a01b0316146112845760405162461bcd60e51b815260040161051790612a69565b600080546001600160a01b038381166001600160a01b0319831681178455604051919092169283917f8be0079c531659141344cd1fd0a4f28419497f9722a3daafe3b4186f6b6457e09190a35050565b6000612447826040518060400160405280602081526020017f5361666545524332303a206c6f772d6c6576656c2063616c6c206661696c6564815250856001600160a01b03166124859092919063ffffffff16565b805190915015611f3b57808060200190518101906124659190612695565b611f3b5760405162461bcd60e51b815260040161051790612b01565b3390565b6060611d6b848460008585600080866001600160a01b031685876040516124ac9190612768565b60006040518083038185875af1925050503d80600081146124e9576040519150601f19603f3d011682016040523d82523d6000602084013e6124ee565b606091505b50915091506124ff8783838761250a565b979650505050505050565b6060831561254457825161253d576125218561254e565b61253d5760405162461bcd60e51b815260040161051790612aca565b5081611d6b565b611d6b838361255d565b6001600160a01b03163b151590565b81511561256d5781518083602001fd5b8060405162461bcd60e51b81526004016105179190612821565b8035600181900b81146110e957600080fd5b803563ffffffff811681146110e957600080fd5b6000602082840312156125be578081fd5b8135611e9581612eea565b6000602082840312156125da578081fd5b8151611e9581612eea565b600080604083850312156125f7578081fd5b823561260281612eea565b946020939093013593505050565b600080600060608486031215612624578081fd5b833561262f81612eea565b92506020840135915061264460408501612587565b90509250925092565b600080600060608486031215612661578283fd5b833561266c81612eea565b925061267a60208501612599565b9150604084013561268a81612eea565b809150509250925092565b6000602082840312156126a6578081fd5b81518015158114611e95578182fd5b6000602082840312156126c6578081fd5b611e9582612587565b6000602082840312156126e0578081fd5b813561ffff81168114611e95578182fd5b600060208284031215612702578081fd5b5035919050565b60006020828403121561271a578081fd5b5051919050565b600060208284031215612732578081fd5b611e9582612599565b60008060006060848603121561274f578283fd5b61275884612599565b9250602084013561267a81612eea565b6000825161277a818460208701612e2f565b9190910192915050565b6001600160a01b0391909116815260200190565b6001600160a01b03948516815292909316602083015260010b6040820152606081019190915260800190565b6001600160a01b03968716815294909516602085015260019290920b60408401526060830152608082015260a081019190915260c00190565b6001600160a01b03929092168252602082015260400190565b901515815260200190565b6000602082528251806020840152612840816040850160208701612e2f565b601f01601f19169190910160400192915050565b6020808252600e908201526d34b7103634b8bab4b230ba34b7b760911b604082015260600190565b6020808252600990820152683632bb32b61022b93960b91b604082015260600190565b6020808252601c908201527f796f7520617265206e6f74207468697320706f6f6c20706c6179657200000000604082015260600190565b6020808252601390820152722837b7b6103430b9903132b2b7103132b3bab760691b604082015260600190565b6020808252600d908201526c506f6f6c20697320676f696e6760981b604082015260600190565b60208082526026908201527f4f776e61626c653a206e6577206f776e657220697320746865207a65726f206160408201526564647265737360d01b606082015260800190565b602080825260069082015265282a1022b93960d11b604082015260600190565b6020808252600890820152673ab9b2b91022b93960c11b604082015260600190565b60208082526010908201526f1b1a5c5d5a59185d1a5bdb8819985a5b60821b604082015260600190565b6020808252600a90820152693737ba102232b0b632b960b11b604082015260600190565b6020808252600790820152663634b89022b93960c91b604082015260600190565b6020808252600a90820152693937baba32b91022b93960b11b604082015260600190565b6020808252600a908201526936b0b933b4b71022b93960b11b604082015260600190565b6020808252818101527f4f776e61626c653a2063616c6c6572206973206e6f7420746865206f776e6572604082015260600190565b602080825260129082015271646561646c696e6520746f6f206561726c7960701b604082015260600190565b6020808252601d908201527f416464726573733a2063616c6c20746f206e6f6e2d636f6e7472616374000000604082015260600190565b6020808252602a908201527f5361666545524332303a204552433230206f7065726174696f6e20646964206e6040820152691bdd081cdd58d8d9595960b21b606082015260800190565b6020808252600f908201526e1e5bdd481a185d99481bdc195b9959608a1b604082015260600190565b6020808252601290820152713737b716b2bc34b9ba103837b9b4ba34b7b760711b604082015260600190565b6020808252600490820152634c4f434b60e01b604082015260600190565b61ffff91909116815260200190565b90815260200190565b9283526001600160a01b03918216602084015216604082015260600190565b918252602082015260400190565b9283526020830191909152604082015260600190565b93845260208401929092526040830152606082015260800190565b948552602085019390935260408401919091526060830152608082015260a00190565b63ffffffff91909116815260200190565b63ffffffff9690961686526001600160a01b0394909416602086015260408501929092526060840152608083015260010b60a082015260c00190565b63ffffffff9690961686526001600160a01b0394909416602086015260408501929092526060840152608083015260a082015260c00190565b60008219821115612cf057612cf0612ebe565b500190565b600082612d0457612d04612ed4565b600160ff1b821460001984141615612d1e57612d1e612ebe565b500590565b600082612d3257612d32612ed4565b500490565b60006001600160ff1b0381841382841380821686840486111615612d5d57612d5d612ebe565b600160ff1b84871282811687830589121615612d7b57612d7b612ebe565b858712925087820587128484161615612d9657612d96612ebe565b87850587128184161615612dac57612dac612ebe565b505050929093029392505050565b6000816000190483118215151615612dd457612dd4612ebe565b500290565b60008083128015600160ff1b850184121615612df757612df7612ebe565b6001600160ff1b0384018313811615612e1257612e12612ebe565b50500390565b600082821015612e2a57612e2a612ebe565b500390565b60005b83811015612e4a578181015183820152602001612e32565b83811115612e59576000848401525b50505050565b6000600019821415612e7357612e73612ebe565b5060010190565b600063ffffffff80831681811415612e9457612e94612ebe565b6001019392505050565b60008160010b617fff19811415612eb757612eb7612ebe565b9003919050565b634e487b7160e01b600052601160045260246000fd5b634e487b7160e01b600052601260045260246000fd5b6001600160a01b0381168114611a4a57600080fdfea26469706673582212203906755cd2de42cee92bc7e868f8fbaa9215b7a2db365949d9e86c6157cb2bdd64736f6c63430008010033a2646970667358221220b3d13da4099f74a16577cb0b3336a5da31a1b539627be76b4b0baab37f55e67d64736f6c63430008010033",
  "linkReferences": {},
  "deployedLinkReferences": {}
}