{
  "_format": "hh-sol-artifact-1",
  "contractName": "Player",
  "sourceName": "contracts/proof/Player.sol",
  "abi": [
    {
      "inputs": [
        {
          "internalType": "string",
          "name": "name_",
          "type": "string"
        },
        {
          "internalType": "string",
          "name": "symbol_",
          "type": "string"
        },
        {
          "internalType": "string",
          "name": "tokenURI_",
          "type": "string"
        }
      ],
      "stateMutability": "nonpayable",
      "type": "constructor"
    },
    {
      "anonymous": false,
      "inputs": [
        {
          "indexed": true,
          "internalType": "address",
          "name": "account",
          "type": "address"
        },
        {
          "indexed": true,
          "internalType": "address",
          "name": "operator",
          "type": "address"
        },
        {
          "indexed": false,
          "internalType": "bool",
          "name": "approved",
          "type": "bool"
        }
      ],
      "name": "ApprovalForAll",
      "type": "event"
    },
    {
      "anonymous": false,
      "inputs": [
        {
          "indexed": false,
          "internalType": "uint256",
          "name": "index",
          "type": "uint256"
        },
        {
          "indexed": false,
          "internalType": "address",
          "name": "pool",
          "type": "address"
        }
      ],
      "name": "CreateID",
      "type": "event"
    },
    {
      "anonymous": false,
      "inputs": [
        {
          "indexed": false,
          "internalType": "uint256",
          "name": "index",
          "type": "uint256"
        },
        {
          "indexed": false,
          "internalType": "address[]",
          "name": "users",
          "type": "address[]"
        }
      ],
      "name": "Mint",
      "type": "event"
    },
    {
      "anonymous": false,
      "inputs": [
        {
          "indexed": true,
          "internalType": "address",
          "name": "previousOwner",
          "type": "address"
        },
        {
          "indexed": true,
          "internalType": "address",
          "name": "newOwner",
          "type": "address"
        }
      ],
      "name": "OwnershipTransferred",
      "type": "event"
    },
    {
      "anonymous": false,
      "inputs": [
        {
          "indexed": true,
          "internalType": "address",
          "name": "operator",
          "type": "address"
        },
        {
          "indexed": true,
          "internalType": "address",
          "name": "from",
          "type": "address"
        },
        {
          "indexed": true,
          "internalType": "address",
          "name": "to",
          "type": "address"
        },
        {
          "indexed": false,
          "internalType": "uint256[]",
          "name": "ids",
          "type": "uint256[]"
        },
        {
          "indexed": false,
          "internalType": "uint256[]",
          "name": "values",
          "type": "uint256[]"
        }
      ],
      "name": "TransferBatch",
      "type": "event"
    },
    {
      "anonymous": false,
      "inputs": [
        {
          "indexed": true,
          "internalType": "address",
          "name": "operator",
          "type": "address"
        },
        {
          "indexed": true,
          "internalType": "address",
          "name": "from",
          "type": "address"
        },
        {
          "indexed": true,
          "internalType": "address",
          "name": "to",
          "type": "address"
        },
        {
          "indexed": false,
          "internalType": "uint256",
          "name": "id",
          "type": "uint256"
        },
        {
          "indexed": false,
          "internalType": "uint256",
          "name": "value",
          "type": "uint256"
        }
      ],
      "name": "TransferSingle",
      "type": "event"
    },
    {
      "anonymous": false,
      "inputs": [
        {
          "indexed": false,
          "internalType": "string",
          "name": "value",
          "type": "string"
        },
        {
          "indexed": true,
          "internalType": "uint256",
          "name": "id",
          "type": "uint256"
        }
      ],
      "name": "URI",
      "type": "event"
    },
    {
      "inputs": [
        {
          "internalType": "address",
          "name": "account",
          "type": "address"
        },
        {
          "internalType": "uint256",
          "name": "id",
          "type": "uint256"
        }
      ],
      "name": "balanceOf",
      "outputs": [
        {
          "internalType": "uint256",
          "name": "",
          "type": "uint256"
        }
      ],
      "stateMutability": "view",
      "type": "function"
    },
    {
      "inputs": [
        {
          "internalType": "address[]",
          "name": "accounts",
          "type": "address[]"
        },
        {
          "internalType": "uint256[]",
          "name": "ids",
          "type": "uint256[]"
        }
      ],
      "name": "balanceOfBatch",
      "outputs": [
        {
          "internalType": "uint256[]",
          "name": "",
          "type": "uint256[]"
        }
      ],
      "stateMutability": "view",
      "type": "function"
    },
    {
      "inputs": [
        {
          "internalType": "uint256",
          "name": "id",
          "type": "uint256"
        },
        {
          "internalType": "uint256",
          "name": "supply",
          "type": "uint256"
        }
      ],
      "name": "createID",
      "outputs": [],
      "stateMutability": "nonpayable",
      "type": "function"
    },
    {
      "inputs": [],
      "name": "dealer",
      "outputs": [
        {
          "internalType": "address",
          "name": "",
          "type": "address"
        }
      ],
      "stateMutability": "view",
      "type": "function"
    },
    {
      "inputs": [
        {
          "internalType": "uint256",
          "name": "",
          "type": "uint256"
        }
      ],
      "name": "dealerToPlayer",
      "outputs": [
        {
          "internalType": "uint256",
          "name": "",
          "type": "uint256"
        }
      ],
      "stateMutability": "view",
      "type": "function"
    },
    {
      "inputs": [
        {
          "internalType": "uint256",
          "name": "",
          "type": "uint256"
        }
      ],
      "name": "idToAmount",
      "outputs": [
        {
          "internalType": "uint256",
          "name": "",
          "type": "uint256"
        }
      ],
      "stateMutability": "view",
      "type": "function"
    },
    {
      "inputs": [],
      "name": "index",
      "outputs": [
        {
          "internalType": "uint256",
          "name": "",
          "type": "uint256"
        }
      ],
      "stateMutability": "view",
      "type": "function"
    },
    {
      "inputs": [
        {
          "internalType": "address",
          "name": "account",
          "type": "address"
        },
        {
          "internalType": "address",
          "name": "operator",
          "type": "address"
        }
      ],
      "name": "isApprovedForAll",
      "outputs": [
        {
          "internalType": "bool",
          "name": "",
          "type": "bool"
        }
      ],
      "stateMutability": "view",
      "type": "function"
    },
    {
      "inputs": [
        {
          "internalType": "address[]",
          "name": "users",
          "type": "address[]"
        },
        {
          "internalType": "uint256",
          "name": "id",
          "type": "uint256"
        }
      ],
      "name": "mint",
      "outputs": [],
      "stateMutability": "nonpayable",
      "type": "function"
    },
    {
      "inputs": [],
      "name": "name",
      "outputs": [
        {
          "internalType": "string",
          "name": "",
          "type": "string"
        }
      ],
      "stateMutability": "view",
      "type": "function"
    },
    {
      "inputs": [],
      "name": "owner",
      "outputs": [
        {
          "internalType": "address",
          "name": "",
          "type": "address"
        }
      ],
      "stateMutability": "view",
      "type": "function"
    },
    {
      "inputs": [
        {
          "internalType": "uint256",
          "name": "",
          "type": "uint256"
        }
      ],
      "name": "playerToAmount",
      "outputs": [
        {
          "internalType": "uint256",
          "name": "",
          "type": "uint256"
        }
      ],
      "stateMutability": "view",
      "type": "function"
    },
    {
      "inputs": [
        {
          "internalType": "uint256",
          "name": "",
          "type": "uint256"
        }
      ],
      "name": "playerToDealer",
      "outputs": [
        {
          "internalType": "uint256",
          "name": "",
          "type": "uint256"
        }
      ],
      "stateMutability": "view",
      "type": "function"
    },
    {
      "inputs": [
        {
          "internalType": "uint256",
          "name": "",
          "type": "uint256"
        }
      ],
      "name": "playerToPool",
      "outputs": [
        {
          "internalType": "address",
          "name": "",
          "type": "address"
        }
      ],
      "stateMutability": "view",
      "type": "function"
    },
    {
      "inputs": [
        {
          "internalType": "uint256",
          "name": "",
          "type": "uint256"
        }
      ],
      "name": "playerType",
      "outputs": [
        {
          "internalType": "uint256",
          "name": "",
          "type": "uint256"
        }
      ],
      "stateMutability": "view",
      "type": "function"
    },
    {
      "inputs": [],
      "name": "renounceOwnership",
      "outputs": [],
      "stateMutability": "nonpayable",
      "type": "function"
    },
    {
      "inputs": [
        {
          "internalType": "address",
          "name": "from",
          "type": "address"
        },
        {
          "internalType": "address",
          "name": "to",
          "type": "address"
        },
        {
          "internalType": "uint256[]",
          "name": "ids",
          "type": "uint256[]"
        },
        {
          "internalType": "uint256[]",
          "name": "amounts",
          "type": "uint256[]"
        },
        {
          "internalType": "bytes",
          "name": "data",
          "type": "bytes"
        }
      ],
      "name": "safeBatchTransferFrom",
      "outputs": [],
      "stateMutability": "nonpayable",
      "type": "function"
    },
    {
      "inputs": [
        {
          "internalType": "address",
          "name": "from",
          "type": "address"
        },
        {
          "internalType": "address",
          "name": "to",
          "type": "address"
        },
        {
          "internalType": "uint256",
          "name": "id",
          "type": "uint256"
        },
        {
          "internalType": "uint256",
          "name": "amount",
          "type": "uint256"
        },
        {
          "internalType": "bytes",
          "name": "data",
          "type": "bytes"
        }
      ],
      "name": "safeTransferFrom",
      "outputs": [],
      "stateMutability": "nonpayable",
      "type": "function"
    },
    {
      "inputs": [
        {
          "internalType": "address",
          "name": "operator",
          "type": "address"
        },
        {
          "internalType": "bool",
          "name": "approved",
          "type": "bool"
        }
      ],
      "name": "setApprovalForAll",
      "outputs": [],
      "stateMutability": "nonpayable",
      "type": "function"
    },
    {
      "inputs": [
        {
          "internalType": "string",
          "name": "baseUri",
          "type": "string"
        }
      ],
      "name": "setBaseURI",
      "outputs": [],
      "stateMutability": "nonpayable",
      "type": "function"
    },
    {
      "inputs": [
        {
          "internalType": "address",
          "name": "dealer_",
          "type": "address"
        }
      ],
      "name": "setDealer",
      "outputs": [],
      "stateMutability": "nonpayable",
      "type": "function"
    },
    {
      "inputs": [
        {
          "internalType": "bytes4",
          "name": "interfaceId",
          "type": "bytes4"
        }
      ],
      "name": "supportsInterface",
      "outputs": [
        {
          "internalType": "bool",
          "name": "",
          "type": "bool"
        }
      ],
      "stateMutability": "view",
      "type": "function"
    },
    {
      "inputs": [],
      "name": "symbol",
      "outputs": [
        {
          "internalType": "string",
          "name": "",
          "type": "string"
        }
      ],
      "stateMutability": "view",
      "type": "function"
    },
    {
      "inputs": [
        {
          "internalType": "uint256",
          "name": "id",
          "type": "uint256"
        }
      ],
      "name": "totalSupply",
      "outputs": [
        {
          "internalType": "uint256",
          "name": "",
          "type": "uint256"
        }
      ],
      "stateMutability": "view",
      "type": "function"
    },
    {
      "inputs": [
        {
          "internalType": "uint256[]",
          "name": "ids",
          "type": "uint256[]"
        }
      ],
      "name": "totalSupplyBatch",
      "outputs": [
        {
          "internalType": "uint256[]",
          "name": "",
          "type": "uint256[]"
        }
      ],
      "stateMutability": "view",
      "type": "function"
    },
    {
      "inputs": [
        {
          "internalType": "address",
          "name": "newOwner",
          "type": "address"
        }
      ],
      "name": "transferOwnership",
      "outputs": [],
      "stateMutability": "nonpayable",
      "type": "function"
    },
    {
      "inputs": [
        {
          "internalType": "uint256",
          "name": "id",
          "type": "uint256"
        }
      ],
      "name": "uri",
      "outputs": [
        {
          "internalType": "string",
          "name": "",
          "type": "string"
        }
      ],
      "stateMutability": "view",
      "type": "function"
    }
  ],
  "bytecode": "0x608060405260006007553480156200001657600080fd5b506040516200253738038062002537833981016040819052620000399162000257565b8062000045816200008f565b506200005a62000054620000a8565b620000ac565b82516200006f906005906020860190620000fe565b50815162000085906006906020850190620000fe565b5050505062000337565b8051620000a4906002906020840190620000fe565b5050565b3390565b600380546001600160a01b038381166001600160a01b0319831681179093556040519116919082907f8be0079c531659141344cd1fd0a4f28419497f9722a3daafe3b4186f6b6457e090600090a35050565b8280546200010c90620002e4565b90600052602060002090601f0160209004810192826200013057600085556200017b565b82601f106200014b57805160ff19168380011785556200017b565b828001600101855582156200017b579182015b828111156200017b5782518255916020019190600101906200015e565b50620001899291506200018d565b5090565b5b808211156200018957600081556001016200018e565b600082601f830112620001b5578081fd5b81516001600160401b0380821115620001d257620001d262000321565b604051601f8301601f19908116603f01168101908282118183101715620001fd57620001fd62000321565b8160405283815260209250868385880101111562000219578485fd5b8491505b838210156200023c57858201830151818301840152908201906200021d565b838211156200024d57848385830101525b9695505050505050565b6000806000606084860312156200026c578283fd5b83516001600160401b038082111562000283578485fd5b6200029187838801620001a4565b94506020860151915080821115620002a7578384fd5b620002b587838801620001a4565b93506040860151915080821115620002cb578283fd5b50620002da86828701620001a4565b9150509250925092565b600281046001821680620002f957607f821691505b602082108114156200031b57634e487b7160e01b600052602260045260246000fd5b50919050565b634e487b7160e01b600052604160045260246000fd5b6121f080620003476000396000f3fe608060405234801561001057600080fd5b50600436106101a85760003560e01c80638da5cb5b116100f9578063bd85b03911610097578063e985e9c511610071578063e985e9c51461036c578063ea66696c1461037f578063f242432a14610392578063f2fde38b146103a0576101a8565b8063bd85b03914610333578063be8544c514610346578063c9d9c3bd14610359576101a8565b8063a22cb465116100d3578063a22cb465146102e7578063a9a2b82f146102fa578063acf11e311461030d578063b28a0a7f14610320576101a8565b80638da5cb5b146102c257806395d89b41146102d75780639de2ee21146102df576101a8565b80632986c0e51161016657806355f804b31161014057806355f804b3146102815780636f6b84ce14610294578063715018a6146102a757806377954ac2146102af576101a8565b80632986c0e5146102465780632eb2c2d61461024e5780634e1273f414610261576101a8565b8062fdd58e146101ad57806301ffc9a7146101d657806306fdde03146101f65780630e89341c1461020b5780631601ecdd1461021e5780631e665f3214610231575b600080fd5b6101c06101bb36600461188b565b6103b3565b6040516101cd9190611f57565b60405180910390f35b6101e96101e43660046119c6565b61040a565b6040516101cd9190611c11565b6101fe610450565b6040516101cd9190611c1c565b6101fe610219366004611a4b565b6104de565b6101c061022c366004611a4b565b61053d565b61024461023f3660046116db565b61054f565b005b6101c0610579565b61024461025c36600461174b565b61057f565b61027461026f3660046118b6565b610597565b6040516101cd9190611bd0565b61024461028f3660046119fe565b6106b6565b6102446102a2366004611a63565b6106ca565b61024461087b565b6102746102bd366004611958565b61088f565b6102ca610967565b6040516101cd9190611b19565b6101fe610977565b6102ca610984565b6102446102f536600461185a565b610993565b6101c0610308366004611a4b565b6109a9565b6101c061031b366004611a4b565b6109bb565b6101c061032e366004611a4b565b6109cd565b6101c0610341366004611a4b565b6109df565b6102ca610354366004611a4b565b6109f1565b6101c0610367366004611a4b565b610a0c565b6101e961037a366004611713565b610a1e565b61024461038d366004611916565b610a4c565b61024461025c3660046117f4565b6102446103ae3660046116db565b610c25565b60006001600160a01b0383166103e45760405162461bcd60e51b81526004016103db90611cde565b60405180910390fd5b506000908152602081815260408083206001600160a01b03949094168352929052205490565b60006001600160e01b03198216636cdb3d1360e11b148061043b57506001600160e01b031982166303a24d0760e21b145b8061044a575061044a82610c5c565b92915050565b6005805461045d90612039565b80601f016020809104026020016040519081016040528092919081815260200182805461048990612039565b80156104d65780601f106104ab576101008083540402835291602001916104d6565b820191906000526020600020905b8154815290600101906020018083116104b957829003601f168201915b505050505081565b606060006104eb83610c75565b9050600081511161050b5760405180602001604052806000815250610536565b8061051584610d09565b604051602001610526929190611aea565b6040516020818303038152906040525b9392505050565b600d6020526000908152604090205481565b610557610dab565b600480546001600160a01b0319166001600160a01b0392909216919091179055565b60075481565b60405162461bcd60e51b81526004016103db90611dcb565b606081518351146105ba5760405162461bcd60e51b81526004016103db90611e4b565b600083516001600160401b038111156105e357634e487b7160e01b600052604160045260246000fd5b60405190808252806020026020018201604052801561060c578160200160208202803683370190505b50905060005b84518110156106ae5761067385828151811061063e57634e487b7160e01b600052603260045260246000fd5b602002602001015185838151811061066657634e487b7160e01b600052603260045260246000fd5b60200260200101516103b3565b82828151811061069357634e487b7160e01b600052603260045260246000fd5b60209081029190910101526106a7816120a0565b9050610612565b509392505050565b6106be610dab565b6106c781610f65565b50565b6004546001600160a01b031633146106f45760405162461bcd60e51b81526004016103db90611d28565b600754610702906001611ff1565b600781815560008481526008602090815260408083208590559382526009815283822086905582548252600b9052829020839055546004805492516336aa433d60e01b81526107bc936001600160a01b0316916336aa433d9161076791889101611f57565b60206040518083038186803b15801561077f57600080fd5b505afa158015610793573d6000803e3d6000fd5b505050506040513d601f19601f820116820180604052508101906107b791906116f7565b610f78565b600754600480546040516336aa433d60e01b81527f6c9a86a52fcf0188bd47ea4c84c286e4356fae2da6a8632093807ec5b5ed987193926001600160a01b03909216916336aa433d9161081191889101611f57565b60206040518083038186803b15801561082957600080fd5b505afa15801561083d573d6000803e3d6000fd5b505050506040513d601f19601f8201168201806040525081019061086191906116f7565b60405161086f929190611f60565b60405180910390a15050565b610883610dab565b61088d6000610fa6565b565b60606000826001600160401b038111156108b957634e487b7160e01b600052604160045260246000fd5b6040519080825280602002602001820160405280156108e2578160200160208202803683370190505b50905060005b838110156106ae57600b600086868481811061091457634e487b7160e01b600052603260045260246000fd5b9050602002013581526020019081526020016000205482828151811061094a57634e487b7160e01b600052603260045260246000fd5b60209081029190910101528061095f816120a0565b9150506108e8565b6003546001600160a01b03165b90565b6006805461045d90612039565b6004546001600160a01b031681565b6109a561099e610ff8565b8383610ffc565b5050565b60096020526000908152604090205481565b600c6020526000908152604090205481565b60086020526000908152604090205481565b6000908152600b602052604090205490565b600a602052600090815260409020546001600160a01b031681565b600b6020526000908152604090205481565b6001600160a01b03918216600090815260016020908152604080832093909416825291909152205460ff1690565b6004546001600160a01b03163314610a765760405162461bcd60e51b81526004016103db90611d28565b6007546000908152600b6020908152604080832054855185855260088452828520548552600d909352922054610aac9190611ff1565b1115610aca5760405162461bcd60e51b81526004016103db90611c77565b81516000828152600860209081526040808320548352600d909152902054610af29190611ff1565b6000828152600860209081526040808320548352600d9091528120919091555b8251811015610be457610b5f838281518110610b3e57634e487b7160e01b600052603260045260246000fd5b602002602001015160086000858152602001908152602001600020546103b3565b15610b7c5760405162461bcd60e51b81526004016103db90611f29565b610bd2838281518110610b9f57634e487b7160e01b600052603260045260246000fd5b6020026020010151600860008581526020019081526020016000205460016040518060200160405280600081525061109f565b80610bdc816120a0565b915050610b12565b50600081815260086020526040908190205490517f22d71287e8162390aa55fb951be1d54701154fb4f9536659eb96157ad34fe8249161086f918590611f77565b610c2d610dab565b6001600160a01b038116610c535760405162461bcd60e51b81526004016103db90611c98565b6106c781610fa6565b6001600160e01b031981166301ffc9a760e01b14919050565b606060028054610c8490612039565b80601f0160208091040260200160405190810160405280929190818152602001828054610cb090612039565b8015610cfd5780601f10610cd257610100808354040283529160200191610cfd565b820191906000526020600020905b815481529060010190602001808311610ce057829003601f168201915b50505050509050919050565b60606000610d16836111b0565b60010190506000816001600160401b03811115610d4357634e487b7160e01b600052604160045260246000fd5b6040519080825280601f01601f191660200182016040528015610d6d576020820181803683370190505b5090508181016020015b600019016f181899199a1a9b1b9c1cb0b131b232b360811b600a86061a8153600a8504945084610da6576106ae565b610d77565b610db3610ff8565b6001600160a01b0316610dc4610967565b6001600160a01b03161461088d5760405162461bcd60e51b81526004016103db90611d96565b8451811015610ee9576000858281518110610e1557634e487b7160e01b600052603260045260246000fd5b602002602001015190506000858381518110610e4157634e487b7160e01b600052603260045260246000fd5b602090810291909101810151600084815280835260408082206001600160a01b038e168352909352919091205490915081811015610e915760405162461bcd60e51b81526004016103db90611d4c565b6000838152602081815260408083206001600160a01b038e8116855292528083208585039055908b16825281208054849290610ece908490611ff1565b9250508190555050505080610ee2906120a0565b9050610dea565b50846001600160a01b0316866001600160a01b0316826001600160a01b03167f4a39dc06d4c0dbc64b70af90fd698a233a518aa5d07e595d983b8c0526c8f7fb8787604051610f39929190611be3565b60405180910390a4610f4f818787878787610f5d565b610f5d818787878787611288565b505050505050565b80516109a59060029060208401906114e6565b6000918252600a602052604090912080546001600160a01b0319166001600160a01b03909216919091179055565b600380546001600160a01b038381166001600160a01b0319831681179093556040519116919082907f8be0079c531659141344cd1fd0a4f28419497f9722a3daafe3b4186f6b6457e090600090a35050565b3390565b816001600160a01b0316836001600160a01b0316141561102e5760405162461bcd60e51b81526004016103db90611e02565b6001600160a01b0383811660008181526001602090815260408083209487168084529490915290819020805460ff1916851515179055517f17307eab39ab6107e8899845ad3d59bd9653f200f220920489ca2b5937696c3190611092908590611c11565b60405180910390a3505050565b6001600160a01b0384166110c55760405162461bcd60e51b81526004016103db90611e94565b60006110cf610ff8565b905060006110dc856113ad565b905060006110e9856113ad565b90506110fa83600089858589610f5d565b6000868152602081815260408083206001600160a01b038b1684529091528120805487929061112a908490611ff1565b92505081905550866001600160a01b031660006001600160a01b0316846001600160a01b03167fc3d58168c5ae7397731d063d5bbf3d657854427343f4c083240f7aacaa2d0f628989604051611181929190611fc0565b60405180910390a461119883600089858589610f5d565b6111a783600089898989611406565b50505050505050565b60008072184f03e93ff9f4daa797ed6e38ed64bf6a1f0160401b83106111ef5772184f03e93ff9f4daa797ed6e38ed64bf6a1f0160401b830492506040015b6d04ee2d6d415b85acef8100000000831061121b576d04ee2d6d415b85acef8100000000830492506020015b662386f26fc10000831061123957662386f26fc10000830492506010015b6305f5e1008310611251576305f5e100830492506008015b612710831061126557612710830492506004015b60648310611277576064830492506002015b600a831061044a5760010192915050565b61129a846001600160a01b03166114d7565b15610f5d5760405163bc197c8160e01b81526001600160a01b0385169063bc197c81906112d39089908990889088908890600401611b2d565b602060405180830381600087803b1580156112ed57600080fd5b505af192505050801561131d575060408051601f3d908101601f1916820190925261131a918101906119e2565b60015b61137d576113296120e7565b806308c379a01415611363575061133e6120fe565b806113495750611365565b8060405162461bcd60e51b81526004016103db9190611c1c565b505b60405162461bcd60e51b81526004016103db90611ed5565b6001600160e01b0319811663bc197c8160e01b146111a75760405162461bcd60e51b81526004016103db90611c2f565b604080516001808252818301909252606091600091906020808301908036833701905050905082816000815181106113f557634e487b7160e01b600052603260045260246000fd5b602090810291909101015292915050565b611418846001600160a01b03166114d7565b15610f5d5760405163f23a6e6160e01b81526001600160a01b0385169063f23a6e61906114519089908990889088908890600401611b8b565b602060405180830381600087803b15801561146b57600080fd5b505af192505050801561149b575060408051601f3d908101601f19168201909252611498918101906119e2565b60015b6114a7576113296120e7565b6001600160e01b0319811663f23a6e6160e01b146111a75760405162461bcd60e51b81526004016103db90611c2f565b6001600160a01b03163b151590565b8280546114f290612039565b90600052602060002090601f016020900481019282611514576000855561155a565b82601f1061152d57805160ff191683800117855561155a565b8280016001018555821561155a579182015b8281111561155a57825182559160200191906001019061153f565b5061156692915061156a565b5090565b5b80821115611566576000815560010161156b565b60006001600160401b03831115611598576115986120d1565b6040516115af601f8501601f191660200182612074565b8091508381528484840111156115c457600080fd5b83836020830137600060208583010152509392505050565b600082601f8301126115ec578081fd5b813560206115f982611fce565b6040516116068282612074565b838152828101915085830183850287018401881015611623578586fd5b855b8581101561164a5781356116388161218f565b84529284019290840190600101611625565b5090979650505050505050565b600082601f830112611667578081fd5b8135602061167482611fce565b6040516116818282612074565b83815282810191508583018385028701840188101561169e578586fd5b855b8581101561164a578135845292840192908401906001016116a0565b600082601f8301126116cc578081fd5b6105368383356020850161157f565b6000602082840312156116ec578081fd5b81356105368161218f565b600060208284031215611708578081fd5b81516105368161218f565b60008060408385031215611725578081fd5b82356117308161218f565b915060208301356117408161218f565b809150509250929050565b600080600080600060a08688031215611762578081fd5b853561176d8161218f565b9450602086013561177d8161218f565b935060408601356001600160401b0380821115611798578283fd5b6117a489838a01611657565b945060608801359150808211156117b9578283fd5b6117c589838a01611657565b935060808801359150808211156117da578283fd5b506117e7888289016116bc565b9150509295509295909350565b600080600080600060a0868803121561180b578081fd5b85356118168161218f565b945060208601356118268161218f565b9350604086013592506060860135915060808601356001600160401b0381111561184e578182fd5b6117e7888289016116bc565b6000806040838503121561186c578182fd5b82356118778161218f565b915060208301358015158114611740578182fd5b6000806040838503121561189d578182fd5b82356118a88161218f565b946020939093013593505050565b600080604083850312156118c8578182fd5b82356001600160401b03808211156118de578384fd5b6118ea868387016115dc565b935060208501359150808211156118ff578283fd5b5061190c85828601611657565b9150509250929050565b60008060408385031215611928578182fd5b82356001600160401b0381111561193d578283fd5b611949858286016115dc565b95602094909401359450505050565b6000806020838503121561196a578182fd5b82356001600160401b0380821115611980578384fd5b818501915085601f830112611993578384fd5b8135818111156119a1578485fd5b86602080830285010111156119b4578485fd5b60209290920196919550909350505050565b6000602082840312156119d7578081fd5b8135610536816121a4565b6000602082840312156119f3578081fd5b8151610536816121a4565b600060208284031215611a0f578081fd5b81356001600160401b03811115611a24578182fd5b8201601f81018413611a34578182fd5b611a438482356020840161157f565b949350505050565b600060208284031215611a5c578081fd5b5035919050565b60008060408385031215611a75578182fd5b50508035926020909101359150565b6000815180845260208085019450808401835b83811015611ab357815187529582019590820190600101611a97565b509495945050505050565b60008151808452611ad6816020860160208601612009565b601f01601f19169290920160200192915050565b60008351611afc818460208801612009565b835190830190611b10818360208801612009565b01949350505050565b6001600160a01b0391909116815260200190565b6001600160a01b0386811682528516602082015260a060408201819052600090611b5990830186611a84565b8281036060840152611b6b8186611a84565b90508281036080840152611b7f8185611abe565b98975050505050505050565b6001600160a01b03868116825285166020820152604081018490526060810183905260a060808201819052600090611bc590830184611abe565b979650505050505050565b6000602082526105366020830184611a84565b600060408252611bf66040830185611a84565b8281036020840152611c088185611a84565b95945050505050565b901515815260200190565b6000602082526105366020830184611abe565b60208082526028908201527f455243313135353a204552433131353552656365697665722072656a656374656040820152676420746f6b656e7360c01b606082015260800190565b602080825260079082015266537570706c792160c81b604082015260600190565b60208082526026908201527f4f776e61626c653a206e6577206f776e657220697320746865207a65726f206160408201526564647265737360d01b606082015260800190565b6020808252602a908201527f455243313135353a2061646472657373207a65726f206973206e6f742061207660408201526930b634b21037bbb732b960b11b606082015260800190565b6020808252600a90820152693737ba102232b0b632b960b11b604082015260600190565b6020808252602a908201527f455243313135353a20696e73756666696369656e742062616c616e636520666f60408201526939103a3930b739b332b960b11b606082015260800190565b6020808252818101527f4f776e61626c653a2063616c6c6572206973206e6f7420746865206f776e6572604082015260600190565b60208082526019908201527f455243313135353a2063616e206e6f74207472616e7366657200000000000000604082015260600190565b60208082526029908201527f455243313135353a2073657474696e6720617070726f76616c20737461747573604082015268103337b91039b2b63360b91b606082015260800190565b60208082526029908201527f455243313135353a206163636f756e747320616e6420696473206c656e677468604082015268040dad2e6dac2e8c6d60bb1b606082015260800190565b60208082526021908201527f455243313135353a206d696e7420746f20746865207a65726f206164647265736040820152607360f81b606082015260800190565b60208082526034908201527f455243313135353a207472616e7366657220746f206e6f6e2d455243313135356040820152732932b1b2b4bb32b91034b6b83632b6b2b73a32b960611b606082015260800190565b6020808252601490820152733cb7ba903430bb32903132b2b710383630bcb2b960611b604082015260600190565b90815260200190565b9182526001600160a01b0316602082015260400190565b60006040820184835260206040818501528185518084526060860191508287019350845b8181101561164a5784516001600160a01b031683529383019391830191600101611f9b565b918252602082015260400190565b60006001600160401b03821115611fe757611fe76120d1565b5060209081020190565b60008219821115612004576120046120bb565b500190565b60005b8381101561202457818101518382015260200161200c565b83811115612033576000848401525b50505050565b60028104600182168061204d57607f821691505b6020821081141561206e57634e487b7160e01b600052602260045260246000fd5b50919050565b601f8201601f191681016001600160401b0381118282101715612099576120996120d1565b6040525050565b60006000198214156120b4576120b46120bb565b5060010190565b634e487b7160e01b600052601160045260246000fd5b634e487b7160e01b600052604160045260246000fd5b600060033d111561097457600481823e5160e01c90565b600060443d101561210e57610974565b6040516003193d81016004833e81513d6001600160401b03816024840111818411171561213f575050505050610974565b828501915081518181111561215957505050505050610974565b843d870101602082850101111561217557505050505050610974565b61218460208286010187612074565b509094505050505090565b6001600160a01b03811681146106c757600080fd5b6001600160e01b0319811681146106c757600080fdfea264697066735822122043f3eb46872592128b1baf7c5882ef6f213cc2493b3b7c2e0e760c8093b9a13a64736f6c63430008010033",
  "linkReferences": {},
  "deployedLinkReferences": {}
}