{
  "contractName": "Player",
  "abi": [
    {
      "inputs": [
        {
          "internalType": "string",
          "name": "name_",
          "type": "string"
        },
        {
          "internalType": "string",
          "name": "symbol_",
          "type": "string"
        },
        {
          "internalType": "string",
          "name": "tokenURI_",
          "type": "string"
        }
      ],
      "stateMutability": "nonpayable",
      "type": "constructor"
    },
    {
      "anonymous": false,
      "inputs": [
        {
          "indexed": true,
          "internalType": "address",
          "name": "account",
          "type": "address"
        },
        {
          "indexed": true,
          "internalType": "address",
          "name": "operator",
          "type": "address"
        },
        {
          "indexed": false,
          "internalType": "bool",
          "name": "approved",
          "type": "bool"
        }
      ],
      "name": "ApprovalForAll",
      "type": "event"
    },
    {
      "anonymous": false,
      "inputs": [
        {
          "indexed": false,
          "internalType": "string",
          "name": "attribute",
          "type": "string"
        }
      ],
      "name": "CreateAttribute",
      "type": "event"
    },
    {
      "anonymous": false,
      "inputs": [
        {
          "indexed": false,
          "internalType": "string",
          "name": "attribute",
          "type": "string"
        },
        {
          "indexed": false,
          "internalType": "uint256[]",
          "name": "ids",
          "type": "uint256[]"
        },
        {
          "indexed": false,
          "internalType": "uint256[]",
          "name": "supply",
          "type": "uint256[]"
        }
      ],
      "name": "CreateID",
      "type": "event"
    },
    {
      "anonymous": false,
      "inputs": [
        {
          "components": [
            {
              "internalType": "string",
              "name": "name",
              "type": "string"
            },
            {
              "internalType": "string",
              "name": "symbol",
              "type": "string"
            },
            {
              "internalType": "string",
              "name": "baseURI",
              "type": "string"
            }
          ],
          "indexed": false,
          "internalType": "struct Player.PropertyParams",
          "name": "params",
          "type": "tuple"
        }
      ],
      "name": "Init",
      "type": "event"
    },
    {
      "anonymous": false,
      "inputs": [
        {
          "indexed": true,
          "internalType": "address",
          "name": "previousOwner",
          "type": "address"
        },
        {
          "indexed": true,
          "internalType": "address",
          "name": "newOwner",
          "type": "address"
        }
      ],
      "name": "OwnershipTransferred",
      "type": "event"
    },
    {
      "anonymous": false,
      "inputs": [
        {
          "indexed": false,
          "internalType": "string",
          "name": "baseUri",
          "type": "string"
        }
      ],
      "name": "SetBaseUri",
      "type": "event"
    },
    {
      "anonymous": false,
      "inputs": [
        {
          "indexed": false,
          "internalType": "address[]",
          "name": "whitelist",
          "type": "address[]"
        }
      ],
      "name": "SetWhitelist",
      "type": "event"
    },
    {
      "anonymous": false,
      "inputs": [
        {
          "indexed": true,
          "internalType": "address",
          "name": "operator",
          "type": "address"
        },
        {
          "indexed": true,
          "internalType": "address",
          "name": "from",
          "type": "address"
        },
        {
          "indexed": true,
          "internalType": "address",
          "name": "to",
          "type": "address"
        },
        {
          "indexed": false,
          "internalType": "uint256[]",
          "name": "ids",
          "type": "uint256[]"
        },
        {
          "indexed": false,
          "internalType": "uint256[]",
          "name": "values",
          "type": "uint256[]"
        }
      ],
      "name": "TransferBatch",
      "type": "event"
    },
    {
      "anonymous": false,
      "inputs": [
        {
          "indexed": true,
          "internalType": "address",
          "name": "operator",
          "type": "address"
        },
        {
          "indexed": true,
          "internalType": "address",
          "name": "from",
          "type": "address"
        },
        {
          "indexed": true,
          "internalType": "address",
          "name": "to",
          "type": "address"
        },
        {
          "indexed": false,
          "internalType": "uint256",
          "name": "id",
          "type": "uint256"
        },
        {
          "indexed": false,
          "internalType": "uint256",
          "name": "value",
          "type": "uint256"
        }
      ],
      "name": "TransferSingle",
      "type": "event"
    },
    {
      "anonymous": false,
      "inputs": [
        {
          "indexed": false,
          "internalType": "string",
          "name": "value",
          "type": "string"
        },
        {
          "indexed": true,
          "internalType": "uint256",
          "name": "id",
          "type": "uint256"
        }
      ],
      "name": "URI",
      "type": "event"
    },
    {
      "inputs": [
        {
          "internalType": "address",
          "name": "account",
          "type": "address"
        },
        {
          "internalType": "uint256",
          "name": "id",
          "type": "uint256"
        }
      ],
      "name": "balanceOf",
      "outputs": [
        {
          "internalType": "uint256",
          "name": "",
          "type": "uint256"
        }
      ],
      "stateMutability": "view",
      "type": "function",
      "constant": true
    },
    {
      "inputs": [
        {
          "internalType": "address[]",
          "name": "accounts",
          "type": "address[]"
        },
        {
          "internalType": "uint256[]",
          "name": "ids",
          "type": "uint256[]"
        }
      ],
      "name": "balanceOfBatch",
      "outputs": [
        {
          "internalType": "uint256[]",
          "name": "",
          "type": "uint256[]"
        }
      ],
      "stateMutability": "view",
      "type": "function",
      "constant": true
    },
    {
      "inputs": [],
      "name": "dealer",
      "outputs": [
        {
          "internalType": "address",
          "name": "",
          "type": "address"
        }
      ],
      "stateMutability": "view",
      "type": "function",
      "constant": true
    },
    {
      "inputs": [
        {
          "internalType": "uint256",
          "name": "",
          "type": "uint256"
        }
      ],
      "name": "dealerToPlayer",
      "outputs": [
        {
          "internalType": "uint256",
          "name": "",
          "type": "uint256"
        }
      ],
      "stateMutability": "view",
      "type": "function",
      "constant": true
    },
    {
      "inputs": [
        {
          "internalType": "uint256",
          "name": "",
          "type": "uint256"
        }
      ],
      "name": "idToAmount",
      "outputs": [
        {
          "internalType": "uint256",
          "name": "",
          "type": "uint256"
        }
      ],
      "stateMutability": "view",
      "type": "function",
      "constant": true
    },
    {
      "inputs": [],
      "name": "index",
      "outputs": [
        {
          "internalType": "uint256",
          "name": "",
          "type": "uint256"
        }
      ],
      "stateMutability": "view",
      "type": "function",
      "constant": true
    },
    {
      "inputs": [
        {
          "internalType": "address",
          "name": "account",
          "type": "address"
        },
        {
          "internalType": "address",
          "name": "operator",
          "type": "address"
        }
      ],
      "name": "isApprovedForAll",
      "outputs": [
        {
          "internalType": "bool",
          "name": "",
          "type": "bool"
        }
      ],
      "stateMutability": "view",
      "type": "function",
      "constant": true
    },
    {
      "inputs": [],
      "name": "name",
      "outputs": [
        {
          "internalType": "string",
          "name": "",
          "type": "string"
        }
      ],
      "stateMutability": "view",
      "type": "function",
      "constant": true
    },
    {
      "inputs": [],
      "name": "owner",
      "outputs": [
        {
          "internalType": "address",
          "name": "",
          "type": "address"
        }
      ],
      "stateMutability": "view",
      "type": "function",
      "constant": true
    },
    {
      "inputs": [
        {
          "internalType": "uint256",
          "name": "",
          "type": "uint256"
        }
      ],
      "name": "playerToAmount",
      "outputs": [
        {
          "internalType": "uint256",
          "name": "",
          "type": "uint256"
        }
      ],
      "stateMutability": "view",
      "type": "function",
      "constant": true
    },
    {
      "inputs": [
        {
          "internalType": "uint256",
          "name": "",
          "type": "uint256"
        }
      ],
      "name": "playerToDealer",
      "outputs": [
        {
          "internalType": "uint256",
          "name": "",
          "type": "uint256"
        }
      ],
      "stateMutability": "view",
      "type": "function",
      "constant": true
    },
    {
      "inputs": [
        {
          "internalType": "uint256",
          "name": "",
          "type": "uint256"
        }
      ],
      "name": "playerType",
      "outputs": [
        {
          "internalType": "uint256",
          "name": "",
          "type": "uint256"
        }
      ],
      "stateMutability": "view",
      "type": "function",
      "constant": true
    },
    {
      "inputs": [],
      "name": "renounceOwnership",
      "outputs": [],
      "stateMutability": "nonpayable",
      "type": "function"
    },
    {
      "inputs": [
        {
          "internalType": "address",
          "name": "operator",
          "type": "address"
        },
        {
          "internalType": "bool",
          "name": "approved",
          "type": "bool"
        }
      ],
      "name": "setApprovalForAll",
      "outputs": [],
      "stateMutability": "nonpayable",
      "type": "function"
    },
    {
      "inputs": [
        {
          "internalType": "bytes4",
          "name": "interfaceId",
          "type": "bytes4"
        }
      ],
      "name": "supportsInterface",
      "outputs": [
        {
          "internalType": "bool",
          "name": "",
          "type": "bool"
        }
      ],
      "stateMutability": "view",
      "type": "function",
      "constant": true
    },
    {
      "inputs": [],
      "name": "symbol",
      "outputs": [
        {
          "internalType": "string",
          "name": "",
          "type": "string"
        }
      ],
      "stateMutability": "view",
      "type": "function",
      "constant": true
    },
    {
      "inputs": [
        {
          "internalType": "address",
          "name": "newOwner",
          "type": "address"
        }
      ],
      "name": "transferOwnership",
      "outputs": [],
      "stateMutability": "nonpayable",
      "type": "function"
    },
    {
      "inputs": [
        {
          "internalType": "uint256",
          "name": "id",
          "type": "uint256"
        },
        {
          "internalType": "uint256",
          "name": "supply",
          "type": "uint256"
        }
      ],
      "name": "createID",
      "outputs": [],
      "stateMutability": "nonpayable",
      "type": "function"
    },
    {
      "inputs": [
        {
          "internalType": "address[]",
          "name": "users",
          "type": "address[]"
        },
        {
          "internalType": "uint256",
          "name": "id",
          "type": "uint256"
        }
      ],
      "name": "mint",
      "outputs": [],
      "stateMutability": "nonpayable",
      "type": "function"
    },
    {
      "inputs": [
        {
          "internalType": "address",
          "name": "from",
          "type": "address"
        },
        {
          "internalType": "address",
          "name": "to",
          "type": "address"
        },
        {
          "internalType": "uint256",
          "name": "id",
          "type": "uint256"
        },
        {
          "internalType": "uint256",
          "name": "amount",
          "type": "uint256"
        },
        {
          "internalType": "bytes",
          "name": "data",
          "type": "bytes"
        }
      ],
      "name": "safeTransferFrom",
      "outputs": [],
      "stateMutability": "nonpayable",
      "type": "function"
    },
    {
      "inputs": [
        {
          "internalType": "address",
          "name": "from",
          "type": "address"
        },
        {
          "internalType": "address",
          "name": "to",
          "type": "address"
        },
        {
          "internalType": "uint256[]",
          "name": "ids",
          "type": "uint256[]"
        },
        {
          "internalType": "uint256[]",
          "name": "amounts",
          "type": "uint256[]"
        },
        {
          "internalType": "bytes",
          "name": "data",
          "type": "bytes"
        }
      ],
      "name": "safeBatchTransferFrom",
      "outputs": [],
      "stateMutability": "nonpayable",
      "type": "function"
    },
    {
      "inputs": [
        {
          "internalType": "address",
          "name": "dealer_",
          "type": "address"
        }
      ],
      "name": "setDealer",
      "outputs": [],
      "stateMutability": "nonpayable",
      "type": "function"
    },
    {
      "inputs": [
        {
          "internalType": "uint256",
          "name": "id",
          "type": "uint256"
        }
      ],
      "name": "totalSupply",
      "outputs": [
        {
          "internalType": "uint256",
          "name": "",
          "type": "uint256"
        }
      ],
      "stateMutability": "view",
      "type": "function",
      "constant": true
    },
    {
      "inputs": [
        {
          "internalType": "uint256[]",
          "name": "ids",
          "type": "uint256[]"
        }
      ],
      "name": "totalSupplyBatch",
      "outputs": [
        {
          "internalType": "uint256[]",
          "name": "",
          "type": "uint256[]"
        }
      ],
      "stateMutability": "view",
      "type": "function",
      "constant": true
    },
    {
      "inputs": [
        {
          "internalType": "uint256",
          "name": "id",
          "type": "uint256"
        }
      ],
      "name": "uri",
      "outputs": [
        {
          "internalType": "string",
          "name": "",
          "type": "string"
        }
      ],
      "stateMutability": "view",
      "type": "function",
      "constant": true
    },
    {
      "inputs": [
        {
          "internalType": "string",
          "name": "baseUri",
          "type": "string"
        }
      ],
      "name": "setBaseURI",
      "outputs": [],
      "stateMutability": "nonpayable",
      "type": "function"
    }
  ],
  "bytecode": "0x608060405260006007553480156200001657600080fd5b506040516200225c3803806200225c833981016040819052620000399162000257565b8062000045816200008f565b506200005a62000054620000a8565b620000ac565b82516200006f906005906020860190620000fe565b50815162000085906006906020850190620000fe565b5050505062000337565b8051620000a4906002906020840190620000fe565b5050565b3390565b600380546001600160a01b038381166001600160a01b0319831681179093556040519116919082907f8be0079c531659141344cd1fd0a4f28419497f9722a3daafe3b4186f6b6457e090600090a35050565b8280546200010c90620002e4565b90600052602060002090601f0160209004810192826200013057600085556200017b565b82601f106200014b57805160ff19168380011785556200017b565b828001600101855582156200017b579182015b828111156200017b5782518255916020019190600101906200015e565b50620001899291506200018d565b5090565b5b808211156200018957600081556001016200018e565b600082601f830112620001b5578081fd5b81516001600160401b0380821115620001d257620001d262000321565b604051601f8301601f19908116603f01168101908282118183101715620001fd57620001fd62000321565b8160405283815260209250868385880101111562000219578485fd5b8491505b838210156200023c57858201830151818301840152908201906200021d565b838211156200024d57848385830101525b9695505050505050565b6000806000606084860312156200026c578283fd5b83516001600160401b038082111562000283578485fd5b6200029187838801620001a4565b94506020860151915080821115620002a7578384fd5b620002b587838801620001a4565b93506040860151915080821115620002cb578283fd5b50620002da86828701620001a4565b9150509250925092565b600281046001821680620002f957607f821691505b602082108114156200031b57634e487b7160e01b600052602260045260246000fd5b50919050565b634e487b7160e01b600052604160045260246000fd5b611f1580620003476000396000f3fe608060405234801561001057600080fd5b506004361061014d5760003560e01c80638da5cb5b116100be5780638da5cb5b1461026757806395d89b411461027c5780639de2ee2114610284578063a22cb4651461028c578063a9a2b82f1461029f578063acf11e31146102b2578063b28a0a7f146102c5578063bd85b039146102d8578063c9d9c3bd146102eb578063e985e9c5146102fe578063ea66696c14610311578063f242432a14610324578063f2fde38b146103325761014d565b8062fdd58e1461015257806301ffc9a71461017b57806306fdde031461019b5780630e89341c146101b05780631601ecdd146101c35780631e665f32146101d65780632986c0e5146101eb5780632eb2c2d6146101f35780634e1273f41461020657806355f804b3146102265780636f6b84ce14610239578063715018a61461024c57806377954ac214610254575b600080fd5b6101656101603660046115de565b610345565b6040516101729190611c9c565b60405180910390f35b61018e610189366004611717565b61039c565b604051610172919061195a565b6101a36103e4565b6040516101729190611965565b6101a36101be366004611794565b610472565b6101656101d1366004611794565b6104d1565b6101e96101e4366004611451565b6104e3565b005b61016561050d565b6101e961020136600461149d565b610513565b610219610214366004611607565b61052b565b6040516101729190611919565b6101e961023436600461174f565b61064a565b6101e96102473660046117ac565b610695565b6101e9610703565b6102196102623660046116a9565b610717565b61026f6107ef565b6040516101729190611862565b6101a36107ff565b61026f61080c565b6101e961029a3660046115a4565b61081b565b6101656102ad366004611794565b610831565b6101656102c0366004611794565b610843565b6101656102d3366004611794565b610855565b6101656102e6366004611794565b610867565b6101656102f9366004611794565b610879565b61018e61030c36600461146b565b61088b565b6101e961031f366004611667565b6108b9565b6101e9610201366004611542565b6101e9610340366004611451565b610a09565b60006001600160a01b0383166103765760405162461bcd60e51b815260040161036d90611a7b565b60405180910390fd5b506000908152602081815260408083206001600160a01b03949094168352929052205490565b60006001600160e01b03198216636cdb3d1360e11b14806103cd57506001600160e01b031982166303a24d0760e21b145b806103dc57506103dc82610a43565b90505b919050565b600580546103f190611d49565b80601f016020809104026020016040519081016040528092919081815260200182805461041d90611d49565b801561046a5780601f1061043f5761010080835404028352916020019161046a565b820191906000526020600020905b81548152906001019060200180831161044d57829003601f168201915b505050505081565b6060600061047f83610a5c565b9050600081511161049f57604051806020016040528060008152506104ca565b806104a984610af0565b6040516020016104ba929190611833565b6040516020818303038152906040525b9392505050565b600c6020526000908152604090205481565b6104eb610c12565b600480546001600160a01b0319166001600160a01b0392909216919091179055565b60075481565b60405162461bcd60e51b815260040161036d90611b68565b6060815183511461054e5760405162461bcd60e51b815260040161036d90611be4565b600083516001600160401b0381111561057757634e487b7160e01b600052604160045260246000fd5b6040519080825280602002602001820160405280156105a0578160200160208202803683370190505b50905060005b8451811015610642576106078582815181106105d257634e487b7160e01b600052603260045260246000fd5b60200260200101518583815181106105fa57634e487b7160e01b600052603260045260246000fd5b6020026020010151610345565b82828151811061062757634e487b7160e01b600052603260045260246000fd5b602090810291909101015261063b81611db0565b90506105a6565b509392505050565b610652610c12565b61065b81610dcc565b7fafa35f42f46f5052816d7c6a2e9406eca98294b20726677862d83b4a7418d8d58160405161068a9190611965565b60405180910390a150565b6004546001600160a01b031633146106bf5760405162461bcd60e51b815260040161036d90611ac5565b6007546106cd906001611cd6565b60078181556000848152600860209081526040808320859055938252600981528382209590955590548152600a90935290912055565b61070b610c12565b6107156000610ddf565b565b60606000826001600160401b0381111561074157634e487b7160e01b600052604160045260246000fd5b60405190808252806020026020018201604052801561076a578160200160208202803683370190505b50905060005b8381101561064257600a600086868481811061079c57634e487b7160e01b600052603260045260246000fd5b905060200201358152602001908152602001600020548282815181106107d257634e487b7160e01b600052603260045260246000fd5b6020908102919091010152806107e781611db0565b915050610770565b6003546001600160a01b03165b90565b600680546103f190611d49565b6004546001600160a01b031681565b61082d610826610e31565b8383610e35565b5050565b60096020526000908152604090205481565b600b6020526000908152604090205481565b60086020526000908152604090205481565b6000908152600a602052604090205490565b600a6020526000908152604090205481565b6001600160a01b03918216600090815260016020908152604080832093909416825291909152205460ff1690565b6004546001600160a01b031633146108e35760405162461bcd60e51b815260040161036d90611ac5565b6007546000908152600a60209081526040808320548551600c90935292205461090c9190611cd6565b111561092a5760405162461bcd60e51b815260040161036d90611a14565b81516000828152600c60205260409020546109459190611cd6565b6000828152600c60205260408120919091555b8251811015610a045761099283828151811061098457634e487b7160e01b600052603260045260246000fd5b602002602001015183610345565b156109af5760405162461bcd60e51b815260040161036d90611c6e565b6109f28382815181106109d257634e487b7160e01b600052603260045260246000fd5b602002602001015183600160405180602001604052806000815250610ed8565b806109fc81611db0565b915050610958565b505050565b610a11610c12565b6001600160a01b038116610a375760405162461bcd60e51b815260040161036d90611a35565b610a4081610ddf565b50565b6001600160e01b031981166301ffc9a760e01b14919050565b606060028054610a6b90611d49565b80601f0160208091040260200160405190810160405280929190818152602001828054610a9790611d49565b8015610ae45780601f10610ab957610100808354040283529160200191610ae4565b820191906000526020600020905b815481529060010190602001808311610ac757829003601f168201915b50505050509050919050565b606081610b1557506040805180820190915260018152600360fc1b60208201526103df565b8160005b8115610b3f5780610b2981611db0565b9150610b389050600a83611cee565b9150610b19565b6000816001600160401b03811115610b6757634e487b7160e01b600052604160045260246000fd5b6040519080825280601f01601f191660200182016040528015610b91576020820181803683370190505b5090505b8415610c0a57610ba6600183611d02565b9150610bb3600a86611dcb565b610bbe906030611cd6565b60f81b818381518110610be157634e487b7160e01b600052603260045260246000fd5b60200101906001600160f81b031916908160001a905350610c03600a86611cee565b9450610b95565b949350505050565b610c1a610e31565b6001600160a01b0316610c2b6107ef565b6001600160a01b0316146107155760405162461bcd60e51b815260040161036d90611b33565b8451811015610d50576000858281518110610c7c57634e487b7160e01b600052603260045260246000fd5b602002602001015190506000858381518110610ca857634e487b7160e01b600052603260045260246000fd5b602090810291909101810151600084815280835260408082206001600160a01b038e168352909352919091205490915081811015610cf85760405162461bcd60e51b815260040161036d90611ae9565b6000838152602081815260408083206001600160a01b038e8116855292528083208585039055908b16825281208054849290610d35908490611cd6565b9250508190555050505080610d4990611db0565b9050610c51565b50846001600160a01b0316866001600160a01b0316826001600160a01b03167f4a39dc06d4c0dbc64b70af90fd698a233a518aa5d07e595d983b8c0526c8f7fb8787604051610da092919061192c565b60405180910390a4610db6818787878787610dc4565b610dc4818787878787610fe9565b505050505050565b805161082d906002906020840190611247565b600380546001600160a01b038381166001600160a01b0319831681179093556040519116919082907f8be0079c531659141344cd1fd0a4f28419497f9722a3daafe3b4186f6b6457e090600090a35050565b3390565b816001600160a01b0316836001600160a01b03161415610e675760405162461bcd60e51b815260040161036d90611b9b565b6001600160a01b0383811660008181526001602090815260408083209487168084529490915290819020805460ff1916851515179055517f17307eab39ab6107e8899845ad3d59bd9653f200f220920489ca2b5937696c3190610ecb90859061195a565b60405180910390a3505050565b6001600160a01b038416610efe5760405162461bcd60e51b815260040161036d90611c2d565b6000610f08610e31565b90506000610f158561110e565b90506000610f228561110e565b9050610f3383600089858589610dc4565b6000868152602081815260408083206001600160a01b038b16845290915281208054879290610f63908490611cd6565b92505081905550866001600160a01b031660006001600160a01b0316846001600160a01b03167fc3d58168c5ae7397731d063d5bbf3d657854427343f4c083240f7aacaa2d0f628989604051610fba929190611ca5565b60405180910390a4610fd183600089858589610dc4565b610fe083600089898989611167565b50505050505050565b610ffb846001600160a01b0316611238565b15610dc45760405163bc197c8160e01b81526001600160a01b0385169063bc197c81906110349089908990889088908890600401611876565b602060405180830381600087803b15801561104e57600080fd5b505af192505050801561107e575060408051601f3d908101601f1916820190925261107b91810190611733565b60015b6110de5761108a611e21565b806308c379a014156110c4575061109f611e38565b806110aa57506110c6565b8060405162461bcd60e51b815260040161036d9190611965565b505b60405162461bcd60e51b815260040161036d90611978565b6001600160e01b0319811663bc197c8160e01b14610fe05760405162461bcd60e51b815260040161036d906119cc565b6040805160018082528183019092526060916000919060208083019080368337019050509050828160008151811061115657634e487b7160e01b600052603260045260246000fd5b602090810291909101015292915050565b611179846001600160a01b0316611238565b15610dc45760405163f23a6e6160e01b81526001600160a01b0385169063f23a6e61906111b290899089908890889088906004016118d4565b602060405180830381600087803b1580156111cc57600080fd5b505af19250505080156111fc575060408051601f3d908101601f191682019092526111f991810190611733565b60015b6112085761108a611e21565b6001600160e01b0319811663f23a6e6160e01b14610fe05760405162461bcd60e51b815260040161036d906119cc565b6001600160a01b03163b151590565b82805461125390611d49565b90600052602060002090601f01602090048101928261127557600085556112bb565b82601f1061128e57805160ff19168380011785556112bb565b828001600101855582156112bb579182015b828111156112bb5782518255916020019190600101906112a0565b506112c79291506112cb565b5090565b5b808211156112c757600081556001016112cc565b60006001600160401b038311156112f9576112f9611e0b565b604051611310601f8501601f191660200182611d84565b80915083815284848401111561132557600080fd5b83836020830137600060208583010152509392505050565b80356001600160a01b03811681146103df57600080fd5b600082601f830112611364578081fd5b8135602061137182611cb3565b60405161137e8282611d84565b83815282810191508583018385028701840188101561139b578586fd5b855b858110156113c0576113ae8261133d565b8452928401929084019060010161139d565b5090979650505050505050565b600082601f8301126113dd578081fd5b813560206113ea82611cb3565b6040516113f78282611d84565b838152828101915085830183850287018401881015611414578586fd5b855b858110156113c057813584529284019290840190600101611416565b600082601f830112611442578081fd5b6104ca838335602085016112e0565b600060208284031215611462578081fd5b6104ca8261133d565b6000806040838503121561147d578081fd5b6114868361133d565b91506114946020840161133d565b90509250929050565b600080600080600060a086880312156114b4578081fd5b6114bd8661133d565b94506114cb6020870161133d565b935060408601356001600160401b03808211156114e6578283fd5b6114f289838a016113cd565b94506060880135915080821115611507578283fd5b61151389838a016113cd565b93506080880135915080821115611528578283fd5b5061153588828901611432565b9150509295509295909350565b600080600080600060a08688031215611559578081fd5b6115628661133d565b94506115706020870161133d565b9350604086013592506060860135915060808601356001600160401b03811115611598578182fd5b61153588828901611432565b600080604083850312156115b6578182fd5b6115bf8361133d565b9150602083013580151581146115d3578182fd5b809150509250929050565b600080604083850312156115f0578182fd5b6115f98361133d565b946020939093013593505050565b60008060408385031215611619578182fd5b82356001600160401b038082111561162f578384fd5b61163b86838701611354565b93506020850135915080821115611650578283fd5b5061165d858286016113cd565b9150509250929050565b60008060408385031215611679578081fd5b82356001600160401b0381111561168e578182fd5b61169a85828601611354565b95602094909401359450505050565b600080602083850312156116bb578182fd5b82356001600160401b03808211156116d1578384fd5b818501915085601f8301126116e4578384fd5b8135818111156116f2578485fd5b8660208083028501011115611705578485fd5b60209290920196919550909350505050565b600060208284031215611728578081fd5b81356104ca81611ec9565b600060208284031215611744578081fd5b81516104ca81611ec9565b600060208284031215611760578081fd5b81356001600160401b03811115611775578182fd5b8201601f81018413611785578182fd5b610c0a848235602084016112e0565b6000602082840312156117a5578081fd5b5035919050565b600080604083850312156117be578182fd5b50508035926020909101359150565b6000815180845260208085019450808401835b838110156117fc578151875295820195908201906001016117e0565b509495945050505050565b6000815180845261181f816020860160208601611d19565b601f01601f19169290920160200192915050565b60008351611845818460208801611d19565b835190830190611859818360208801611d19565b01949350505050565b6001600160a01b0391909116815260200190565b6001600160a01b0386811682528516602082015260a0604082018190526000906118a2908301866117cd565b82810360608401526118b481866117cd565b905082810360808401526118c88185611807565b98975050505050505050565b6001600160a01b03868116825285166020820152604081018490526060810183905260a06080820181905260009061190e90830184611807565b979650505050505050565b6000602082526104ca60208301846117cd565b60006040825261193f60408301856117cd565b828103602084015261195181856117cd565b95945050505050565b901515815260200190565b6000602082526104ca6020830184611807565b60208082526034908201527f455243313135353a207472616e7366657220746f206e6f6e20455243313135356040820152732932b1b2b4bb32b91034b6b83632b6b2b73a32b960611b606082015260800190565b60208082526028908201527f455243313135353a204552433131353552656365697665722072656a656374656040820152676420746f6b656e7360c01b606082015260800190565b602080825260079082015266537570706c792160c81b604082015260600190565b60208082526026908201527f4f776e61626c653a206e6577206f776e657220697320746865207a65726f206160408201526564647265737360d01b606082015260800190565b6020808252602a908201527f455243313135353a2061646472657373207a65726f206973206e6f742061207660408201526930b634b21037bbb732b960b11b606082015260800190565b6020808252600a90820152693737ba102232b0b632b960b11b604082015260600190565b6020808252602a908201527f455243313135353a20696e73756666696369656e742062616c616e636520666f60408201526939103a3930b739b332b960b11b606082015260800190565b6020808252818101527f4f776e61626c653a2063616c6c6572206973206e6f7420746865206f776e6572604082015260600190565b60208082526019908201527822a92198989a9a9d1031b0b7103737ba103a3930b739b332b960391b604082015260600190565b60208082526029908201527f455243313135353a2073657474696e6720617070726f76616c20737461747573604082015268103337b91039b2b63360b91b606082015260800190565b60208082526029908201527f455243313135353a206163636f756e747320616e6420696473206c656e677468604082015268040dad2e6dac2e8c6d60bb1b606082015260800190565b60208082526021908201527f455243313135353a206d696e7420746f20746865207a65726f206164647265736040820152607360f81b606082015260800190565b6020808252601490820152733cb7ba903430bb32903132b2b710383630bcb2b960611b604082015260600190565b90815260200190565b918252602082015260400190565b60006001600160401b03821115611ccc57611ccc611e0b565b5060209081020190565b60008219821115611ce957611ce9611ddf565b500190565b600082611cfd57611cfd611df5565b500490565b600082821015611d1457611d14611ddf565b500390565b60005b83811015611d34578181015183820152602001611d1c565b83811115611d43576000848401525b50505050565b600281046001821680611d5d57607f821691505b60208210811415611d7e57634e487b7160e01b600052602260045260246000fd5b50919050565b601f8201601f191681016001600160401b0381118282101715611da957611da9611e0b565b6040525050565b6000600019821415611dc457611dc4611ddf565b5060010190565b600082611dda57611dda611df5565b500690565b634e487b7160e01b600052601160045260246000fd5b634e487b7160e01b600052601260045260246000fd5b634e487b7160e01b600052604160045260246000fd5b600060033d11156107fc57600481823e5160e01c90565b600060443d1015611e48576107fc565b6040516003193d81016004833e81513d6001600160401b038160248401118184111715611e795750505050506107fc565b8285019150815181811115611e93575050505050506107fc565b843d8701016020828501011115611eaf575050505050506107fc565b611ebe60208286010187611d84565b509094505050505090565b6001600160e01b031981168114610a4057600080fdfea26469706673582212207cd921c2e5b3cbd2794a35c08d10b0ec7accf8cbbdb87fcbee81cfeb150a794264736f6c63430008010033",
  "immutableReferences": {},
  "source": "// SPDX-License-Identifier: GPL-3.0\npragma solidity >=0.4.22 <0.9.0;\n\nimport \"@openzeppelin/contracts/token/ERC1155/ERC1155.sol\";\nimport \"@openzeppelin/contracts/utils/Strings.sol\";\nimport \"@openzeppelin/contracts/access/Ownable.sol\";\n\n/**\n    dealer\n        idcreateID\n        TODO:\n        dealer idplayer index----dealerToPlayer\n        index----playerToAmount\n        mint 1155 \n\n */\ncontract Player is ERC1155, Ownable {\n    using Strings for uint256;\n\n    address public dealer;\n    string public name;\n    string public symbol;\n\n    uint256 public index = 0;\n\n    mapping(uint256 => uint256) public dealerToPlayer;\n    mapping(uint256 => uint256) public playerToDealer;\n    mapping(uint256 => uint256) public playerToAmount;\n    mapping(uint256 => uint256) public playerType;\n    mapping(uint256 => uint256) public idToAmount;\n\n    struct PropertyParams {\n        string name;\n        string symbol;\n        string baseURI;\n    }\n\n    constructor(\n        string memory name_,\n        string memory symbol_,\n        string memory tokenURI_\n    ) ERC1155(tokenURI_) {\n        name = name_;\n        symbol = symbol_;\n    }\n\n    function createID(uint256 id, uint256 supply) external onlyDealer {\n        index = index + 1;\n        dealerToPlayer[id] = index;\n        playerToDealer[index] = id;\n        playerToAmount[index] = supply;\n    }\n\n    function mint(address[] memory users, uint256 id) external onlyDealer {\n        require(idToAmount[index] + users.length <= playerToAmount[index], \"Supply!\");\n        idToAmount[id] = idToAmount[id] + users.length;\n        for (uint256 i = 0; i < users.length; i++) {\n            require(balanceOf(users[i], id) == 0, \"you have been player\");\n            _mint(users[i], id, 1, bytes(''));\n        }\n    }\n    \n    function safeTransferFrom(\n        address from,\n        address to,\n        uint256 id,\n        uint256 amount,\n        bytes memory data\n    ) public virtual override {\n        require(\n            false,\n            \"ERC1155: can not transfer\"\n        );\n        _safeTransferFrom(from, to, id, amount, data);\n    }\n\n    /**\n     * @dev See {IERC1155-safeBatchTransferFrom}.\n     */\n    function safeBatchTransferFrom(\n        address from,\n        address to,\n        uint256[] memory ids,\n        uint256[] memory amounts,\n        bytes memory data\n    ) public virtual override {\n        require(\n            false,\n            \"ERC1155: can not transfer\"\n        );\n        _safeBatchTransferFrom(from, to, ids, amounts, data);\n    }\n\n    function setDealer(address dealer_) external onlyOwner {\n        dealer = dealer_;\n    }\n\n    function totalSupply(uint256 id) public view returns (uint256) {\n        return playerToAmount[id];\n    }\n\n    function totalSupplyBatch(uint256[] calldata ids) public view returns (uint256[] memory) {\n        uint256[] memory supply = new uint256[](ids.length);\n\n        for (uint i = 0; i < ids.length; i++) {\n            supply[i] = playerToAmount[ids[i]];\n        }\n\n        return supply;\n    }\n\n    function uri(uint256 id) public view override returns (string memory) {\n        string memory baseURI = super.uri(id);\n        return bytes(baseURI).length > 0 ? string(abi.encodePacked(baseURI, id.toString())) : \"\";\n    }\n\n    function setBaseURI(string memory baseUri) external onlyOwner {\n        _setURI(baseUri);\n        emit SetBaseUri(baseUri);\n    }\n\n    modifier onlyDealer() {\n        require(dealer == msg.sender, \"not Dealer\");\n        _;\n    }\n\n    event Init(PropertyParams params);\n\n    event CreateAttribute(string attribute);\n\n    event CreateID(string attribute, uint256[] ids, uint256[] supply);\n\n    event SetBaseUri(string baseUri);\n\n    event SetWhitelist(address[] whitelist);\n}\n",
  "sourcePath": "/Users/pengyun/Desktop/code/qilin-pvp-v2/contracts/proof/Player.sol",
  "compiler": {
    "name": "solc",
    "version": "0.8.1+commit.df193b15.Emscripten.clang"
  },
  "schemaVersion": "3.3.3",
  "updatedAt": "2023-05-19T07:07:28.970Z",
  "networkType": "ethereum",
  "devdoc": {
    "kind": "dev",
    "methods": {
      "balanceOf(address,uint256)": {
        "details": "See {IERC1155-balanceOf}. Requirements: - `account` cannot be the zero address."
      },
      "balanceOfBatch(address[],uint256[])": {
        "details": "See {IERC1155-balanceOfBatch}. Requirements: - `accounts` and `ids` must have the same length."
      },
      "isApprovedForAll(address,address)": {
        "details": "See {IERC1155-isApprovedForAll}."
      },
      "owner()": {
        "details": "Returns the address of the current owner."
      },
      "renounceOwnership()": {
        "details": "Leaves the contract without owner. It will not be possible to call `onlyOwner` functions anymore. Can only be called by the current owner. NOTE: Renouncing ownership will leave the contract without an owner, thereby removing any functionality that is only available to the owner."
      },
      "safeBatchTransferFrom(address,address,uint256[],uint256[],bytes)": {
        "details": "See {IERC1155-safeBatchTransferFrom}."
      },
      "safeTransferFrom(address,address,uint256,uint256,bytes)": {
        "details": "See {IERC1155-safeTransferFrom}."
      },
      "setApprovalForAll(address,bool)": {
        "details": "See {IERC1155-setApprovalForAll}."
      },
      "supportsInterface(bytes4)": {
        "details": "See {IERC165-supportsInterface}."
      },
      "transferOwnership(address)": {
        "details": "Transfers ownership of the contract to a new account (`newOwner`). Can only be called by the current owner."
      }
    },
    "version": 1
  },
  "userdoc": {
    "kind": "user",
    "methods": {},
    "notice": "dealer idcreateID TODO: dealer idplayer index----dealerToPlayer index----playerToAmount mint 1155 ",
    "version": 1
  }
}