{
  "_format": "hh-sol-artifact-1",
  "contractName": "Player",
  "sourceName": "contracts/proof/Player.sol",
  "abi": [
    {
      "inputs": [
        {
          "internalType": "string",
          "name": "name_",
          "type": "string"
        },
        {
          "internalType": "string",
          "name": "symbol_",
          "type": "string"
        },
        {
          "internalType": "string",
          "name": "tokenURI_",
          "type": "string"
        }
      ],
      "stateMutability": "nonpayable",
      "type": "constructor"
    },
    {
      "anonymous": false,
      "inputs": [
        {
          "indexed": true,
          "internalType": "address",
          "name": "account",
          "type": "address"
        },
        {
          "indexed": true,
          "internalType": "address",
          "name": "operator",
          "type": "address"
        },
        {
          "indexed": false,
          "internalType": "bool",
          "name": "approved",
          "type": "bool"
        }
      ],
      "name": "ApprovalForAll",
      "type": "event"
    },
    {
      "anonymous": false,
      "inputs": [
        {
          "indexed": false,
          "internalType": "string",
          "name": "attribute",
          "type": "string"
        }
      ],
      "name": "CreateAttribute",
      "type": "event"
    },
    {
      "anonymous": false,
      "inputs": [
        {
          "indexed": false,
          "internalType": "string",
          "name": "attribute",
          "type": "string"
        },
        {
          "indexed": false,
          "internalType": "uint256[]",
          "name": "ids",
          "type": "uint256[]"
        },
        {
          "indexed": false,
          "internalType": "uint256[]",
          "name": "supply",
          "type": "uint256[]"
        }
      ],
      "name": "CreateID",
      "type": "event"
    },
    {
      "anonymous": false,
      "inputs": [
        {
          "components": [
            {
              "internalType": "string",
              "name": "name",
              "type": "string"
            },
            {
              "internalType": "string",
              "name": "symbol",
              "type": "string"
            },
            {
              "internalType": "string",
              "name": "baseURI",
              "type": "string"
            }
          ],
          "indexed": false,
          "internalType": "struct Player.PropertyParams",
          "name": "params",
          "type": "tuple"
        }
      ],
      "name": "Init",
      "type": "event"
    },
    {
      "anonymous": false,
      "inputs": [
        {
          "indexed": true,
          "internalType": "address",
          "name": "previousOwner",
          "type": "address"
        },
        {
          "indexed": true,
          "internalType": "address",
          "name": "newOwner",
          "type": "address"
        }
      ],
      "name": "OwnershipTransferred",
      "type": "event"
    },
    {
      "anonymous": false,
      "inputs": [
        {
          "indexed": false,
          "internalType": "string",
          "name": "baseUri",
          "type": "string"
        }
      ],
      "name": "SetBaseUri",
      "type": "event"
    },
    {
      "anonymous": false,
      "inputs": [
        {
          "indexed": false,
          "internalType": "address[]",
          "name": "whitelist",
          "type": "address[]"
        }
      ],
      "name": "SetWhitelist",
      "type": "event"
    },
    {
      "anonymous": false,
      "inputs": [
        {
          "indexed": true,
          "internalType": "address",
          "name": "operator",
          "type": "address"
        },
        {
          "indexed": true,
          "internalType": "address",
          "name": "from",
          "type": "address"
        },
        {
          "indexed": true,
          "internalType": "address",
          "name": "to",
          "type": "address"
        },
        {
          "indexed": false,
          "internalType": "uint256[]",
          "name": "ids",
          "type": "uint256[]"
        },
        {
          "indexed": false,
          "internalType": "uint256[]",
          "name": "values",
          "type": "uint256[]"
        }
      ],
      "name": "TransferBatch",
      "type": "event"
    },
    {
      "anonymous": false,
      "inputs": [
        {
          "indexed": true,
          "internalType": "address",
          "name": "operator",
          "type": "address"
        },
        {
          "indexed": true,
          "internalType": "address",
          "name": "from",
          "type": "address"
        },
        {
          "indexed": true,
          "internalType": "address",
          "name": "to",
          "type": "address"
        },
        {
          "indexed": false,
          "internalType": "uint256",
          "name": "id",
          "type": "uint256"
        },
        {
          "indexed": false,
          "internalType": "uint256",
          "name": "value",
          "type": "uint256"
        }
      ],
      "name": "TransferSingle",
      "type": "event"
    },
    {
      "anonymous": false,
      "inputs": [
        {
          "indexed": false,
          "internalType": "string",
          "name": "value",
          "type": "string"
        },
        {
          "indexed": true,
          "internalType": "uint256",
          "name": "id",
          "type": "uint256"
        }
      ],
      "name": "URI",
      "type": "event"
    },
    {
      "inputs": [
        {
          "internalType": "address",
          "name": "account",
          "type": "address"
        },
        {
          "internalType": "uint256",
          "name": "id",
          "type": "uint256"
        }
      ],
      "name": "balanceOf",
      "outputs": [
        {
          "internalType": "uint256",
          "name": "",
          "type": "uint256"
        }
      ],
      "stateMutability": "view",
      "type": "function"
    },
    {
      "inputs": [
        {
          "internalType": "address[]",
          "name": "accounts",
          "type": "address[]"
        },
        {
          "internalType": "uint256[]",
          "name": "ids",
          "type": "uint256[]"
        }
      ],
      "name": "balanceOfBatch",
      "outputs": [
        {
          "internalType": "uint256[]",
          "name": "",
          "type": "uint256[]"
        }
      ],
      "stateMutability": "view",
      "type": "function"
    },
    {
      "inputs": [
        {
          "internalType": "uint256",
          "name": "id",
          "type": "uint256"
        },
        {
          "internalType": "uint256",
          "name": "supply",
          "type": "uint256"
        }
      ],
      "name": "createID",
      "outputs": [],
      "stateMutability": "nonpayable",
      "type": "function"
    },
    {
      "inputs": [],
      "name": "dealer",
      "outputs": [
        {
          "internalType": "address",
          "name": "",
          "type": "address"
        }
      ],
      "stateMutability": "view",
      "type": "function"
    },
    {
      "inputs": [
        {
          "internalType": "uint256",
          "name": "",
          "type": "uint256"
        }
      ],
      "name": "dealerToPlayer",
      "outputs": [
        {
          "internalType": "uint256",
          "name": "",
          "type": "uint256"
        }
      ],
      "stateMutability": "view",
      "type": "function"
    },
    {
      "inputs": [
        {
          "internalType": "uint256",
          "name": "",
          "type": "uint256"
        }
      ],
      "name": "idToAmount",
      "outputs": [
        {
          "internalType": "uint256",
          "name": "",
          "type": "uint256"
        }
      ],
      "stateMutability": "view",
      "type": "function"
    },
    {
      "inputs": [],
      "name": "index",
      "outputs": [
        {
          "internalType": "uint256",
          "name": "",
          "type": "uint256"
        }
      ],
      "stateMutability": "view",
      "type": "function"
    },
    {
      "inputs": [
        {
          "internalType": "address",
          "name": "account",
          "type": "address"
        },
        {
          "internalType": "address",
          "name": "operator",
          "type": "address"
        }
      ],
      "name": "isApprovedForAll",
      "outputs": [
        {
          "internalType": "bool",
          "name": "",
          "type": "bool"
        }
      ],
      "stateMutability": "view",
      "type": "function"
    },
    {
      "inputs": [
        {
          "internalType": "address[]",
          "name": "users",
          "type": "address[]"
        },
        {
          "internalType": "uint256",
          "name": "id",
          "type": "uint256"
        }
      ],
      "name": "mint",
      "outputs": [],
      "stateMutability": "nonpayable",
      "type": "function"
    },
    {
      "inputs": [],
      "name": "name",
      "outputs": [
        {
          "internalType": "string",
          "name": "",
          "type": "string"
        }
      ],
      "stateMutability": "view",
      "type": "function"
    },
    {
      "inputs": [],
      "name": "owner",
      "outputs": [
        {
          "internalType": "address",
          "name": "",
          "type": "address"
        }
      ],
      "stateMutability": "view",
      "type": "function"
    },
    {
      "inputs": [
        {
          "internalType": "uint256",
          "name": "",
          "type": "uint256"
        }
      ],
      "name": "playerToAmount",
      "outputs": [
        {
          "internalType": "uint256",
          "name": "",
          "type": "uint256"
        }
      ],
      "stateMutability": "view",
      "type": "function"
    },
    {
      "inputs": [
        {
          "internalType": "uint256",
          "name": "",
          "type": "uint256"
        }
      ],
      "name": "playerToDealer",
      "outputs": [
        {
          "internalType": "uint256",
          "name": "",
          "type": "uint256"
        }
      ],
      "stateMutability": "view",
      "type": "function"
    },
    {
      "inputs": [
        {
          "internalType": "uint256",
          "name": "",
          "type": "uint256"
        }
      ],
      "name": "playerType",
      "outputs": [
        {
          "internalType": "uint256",
          "name": "",
          "type": "uint256"
        }
      ],
      "stateMutability": "view",
      "type": "function"
    },
    {
      "inputs": [],
      "name": "renounceOwnership",
      "outputs": [],
      "stateMutability": "nonpayable",
      "type": "function"
    },
    {
      "inputs": [
        {
          "internalType": "address",
          "name": "from",
          "type": "address"
        },
        {
          "internalType": "address",
          "name": "to",
          "type": "address"
        },
        {
          "internalType": "uint256[]",
          "name": "ids",
          "type": "uint256[]"
        },
        {
          "internalType": "uint256[]",
          "name": "amounts",
          "type": "uint256[]"
        },
        {
          "internalType": "bytes",
          "name": "data",
          "type": "bytes"
        }
      ],
      "name": "safeBatchTransferFrom",
      "outputs": [],
      "stateMutability": "nonpayable",
      "type": "function"
    },
    {
      "inputs": [
        {
          "internalType": "address",
          "name": "from",
          "type": "address"
        },
        {
          "internalType": "address",
          "name": "to",
          "type": "address"
        },
        {
          "internalType": "uint256",
          "name": "id",
          "type": "uint256"
        },
        {
          "internalType": "uint256",
          "name": "amount",
          "type": "uint256"
        },
        {
          "internalType": "bytes",
          "name": "data",
          "type": "bytes"
        }
      ],
      "name": "safeTransferFrom",
      "outputs": [],
      "stateMutability": "nonpayable",
      "type": "function"
    },
    {
      "inputs": [
        {
          "internalType": "address",
          "name": "operator",
          "type": "address"
        },
        {
          "internalType": "bool",
          "name": "approved",
          "type": "bool"
        }
      ],
      "name": "setApprovalForAll",
      "outputs": [],
      "stateMutability": "nonpayable",
      "type": "function"
    },
    {
      "inputs": [
        {
          "internalType": "string",
          "name": "baseUri",
          "type": "string"
        }
      ],
      "name": "setBaseURI",
      "outputs": [],
      "stateMutability": "nonpayable",
      "type": "function"
    },
    {
      "inputs": [
        {
          "internalType": "address",
          "name": "dealer_",
          "type": "address"
        }
      ],
      "name": "setDealer",
      "outputs": [],
      "stateMutability": "nonpayable",
      "type": "function"
    },
    {
      "inputs": [
        {
          "internalType": "bytes4",
          "name": "interfaceId",
          "type": "bytes4"
        }
      ],
      "name": "supportsInterface",
      "outputs": [
        {
          "internalType": "bool",
          "name": "",
          "type": "bool"
        }
      ],
      "stateMutability": "view",
      "type": "function"
    },
    {
      "inputs": [],
      "name": "symbol",
      "outputs": [
        {
          "internalType": "string",
          "name": "",
          "type": "string"
        }
      ],
      "stateMutability": "view",
      "type": "function"
    },
    {
      "inputs": [
        {
          "internalType": "uint256",
          "name": "id",
          "type": "uint256"
        }
      ],
      "name": "totalSupply",
      "outputs": [
        {
          "internalType": "uint256",
          "name": "",
          "type": "uint256"
        }
      ],
      "stateMutability": "view",
      "type": "function"
    },
    {
      "inputs": [
        {
          "internalType": "uint256[]",
          "name": "ids",
          "type": "uint256[]"
        }
      ],
      "name": "totalSupplyBatch",
      "outputs": [
        {
          "internalType": "uint256[]",
          "name": "",
          "type": "uint256[]"
        }
      ],
      "stateMutability": "view",
      "type": "function"
    },
    {
      "inputs": [
        {
          "internalType": "address",
          "name": "newOwner",
          "type": "address"
        }
      ],
      "name": "transferOwnership",
      "outputs": [],
      "stateMutability": "nonpayable",
      "type": "function"
    },
    {
      "inputs": [
        {
          "internalType": "uint256",
          "name": "id",
          "type": "uint256"
        }
      ],
      "name": "uri",
      "outputs": [
        {
          "internalType": "string",
          "name": "",
          "type": "string"
        }
      ],
      "stateMutability": "view",
      "type": "function"
    }
  ],
  "bytecode": "0x608060405260006007553480156200001657600080fd5b50604051620022ab380380620022ab833981016040819052620000399162000257565b8062000045816200008f565b506200005a62000054620000a8565b620000ac565b82516200006f906005906020860190620000fe565b50815162000085906006906020850190620000fe565b5050505062000337565b8051620000a4906002906020840190620000fe565b5050565b3390565b600380546001600160a01b038381166001600160a01b0319831681179093556040519116919082907f8be0079c531659141344cd1fd0a4f28419497f9722a3daafe3b4186f6b6457e090600090a35050565b8280546200010c90620002e4565b90600052602060002090601f0160209004810192826200013057600085556200017b565b82601f106200014b57805160ff19168380011785556200017b565b828001600101855582156200017b579182015b828111156200017b5782518255916020019190600101906200015e565b50620001899291506200018d565b5090565b5b808211156200018957600081556001016200018e565b600082601f830112620001b5578081fd5b81516001600160401b0380821115620001d257620001d262000321565b604051601f8301601f19908116603f01168101908282118183101715620001fd57620001fd62000321565b8160405283815260209250868385880101111562000219578485fd5b8491505b838210156200023c57858201830151818301840152908201906200021d565b838211156200024d57848385830101525b9695505050505050565b6000806000606084860312156200026c578283fd5b83516001600160401b038082111562000283578485fd5b6200029187838801620001a4565b94506020860151915080821115620002a7578384fd5b620002b587838801620001a4565b93506040860151915080821115620002cb578283fd5b50620002da86828701620001a4565b9150509250925092565b600281046001821680620002f957607f821691505b602082108114156200031b57634e487b7160e01b600052602260045260246000fd5b50919050565b634e487b7160e01b600052604160045260246000fd5b611f6480620003476000396000f3fe608060405234801561001057600080fd5b506004361061018d5760003560e01c80638da5cb5b116100de578063b28a0a7f11610097578063e985e9c511610071578063e985e9c51461033e578063ea66696c14610351578063f242432a14610364578063f2fde38b146103725761018d565b8063b28a0a7f14610305578063bd85b03914610318578063c9d9c3bd1461032b5761018d565b80638da5cb5b146102a757806395d89b41146102bc5780639de2ee21146102c4578063a22cb465146102cc578063a9a2b82f146102df578063acf11e31146102f25761018d565b80632986c0e51161014b57806355f804b31161012557806355f804b3146102665780636f6b84ce14610279578063715018a61461028c57806377954ac2146102945761018d565b80632986c0e51461022b5780632eb2c2d6146102335780634e1273f4146102465761018d565b8062fdd58e1461019257806301ffc9a7146101bb57806306fdde03146101db5780630e89341c146101f05780631601ecdd146102035780631e665f3214610216575b600080fd5b6101a56101a0366004611676565b610385565b6040516101b29190611d40565b60405180910390f35b6101ce6101c93660046117af565b6103dc565b6040516101b291906119fa565b6101e3610424565b6040516101b29190611a05565b6101e36101fe366004611834565b6104b2565b6101a5610211366004611834565b610511565b6102296102243660046114e9565b610523565b005b6101a561054d565b610229610241366004611535565b610553565b61025961025436600461169f565b61056b565b6040516101b291906119b9565b6102296102743660046117e7565b61068a565b61022961028736600461184c565b6106d5565b610229610743565b6102596102a2366004611741565b610757565b6102af61082f565b6040516101b29190611902565b6101e361083f565b6102af61084c565b6102296102da36600461163c565b61085b565b6101a56102ed366004611834565b610871565b6101a5610300366004611834565b610883565b6101a5610313366004611834565b610895565b6101a5610326366004611834565b6108a7565b6101a5610339366004611834565b6108b9565b6101ce61034c366004611503565b6108cb565b61022961035f3660046116ff565b6108f9565b6102296102413660046115da565b6102296103803660046114e9565b610a49565b60006001600160a01b0383166103b65760405162461bcd60e51b81526004016103ad90611ac7565b60405180910390fd5b506000908152602081815260408083206001600160a01b03949094168352929052205490565b60006001600160e01b03198216636cdb3d1360e11b148061040d57506001600160e01b031982166303a24d0760e21b145b8061041c575061041c82610a83565b90505b919050565b6005805461043190611dc2565b80601f016020809104026020016040519081016040528092919081815260200182805461045d90611dc2565b80156104aa5780601f1061047f576101008083540402835291602001916104aa565b820191906000526020600020905b81548152906001019060200180831161048d57829003601f168201915b505050505081565b606060006104bf83610a9c565b905060008151116104df576040518060200160405280600081525061050a565b806104e984610b30565b6040516020016104fa9291906118d3565b6040516020818303038152906040525b9392505050565b600c6020526000908152604090205481565b61052b610bd2565b600480546001600160a01b0319166001600160a01b0392909216919091179055565b60075481565b60405162461bcd60e51b81526004016103ad90611bb4565b6060815183511461058e5760405162461bcd60e51b81526004016103ad90611c34565b600083516001600160401b038111156105b757634e487b7160e01b600052604160045260246000fd5b6040519080825280602002602001820160405280156105e0578160200160208202803683370190505b50905060005b84518110156106825761064785828151811061061257634e487b7160e01b600052603260045260246000fd5b602002602001015185838151811061063a57634e487b7160e01b600052603260045260246000fd5b6020026020010151610385565b82828151811061066757634e487b7160e01b600052603260045260246000fd5b602090810291909101015261067b81611e29565b90506105e6565b509392505050565b610692610bd2565b61069b81610d8c565b7fafa35f42f46f5052816d7c6a2e9406eca98294b20726677862d83b4a7418d8d5816040516106ca9190611a05565b60405180910390a150565b6004546001600160a01b031633146106ff5760405162461bcd60e51b81526004016103ad90611b11565b60075461070d906001611d7a565b60078181556000848152600860209081526040808320859055938252600981528382209590955590548152600a90935290912055565b61074b610bd2565b6107556000610d9f565b565b60606000826001600160401b0381111561078157634e487b7160e01b600052604160045260246000fd5b6040519080825280602002602001820160405280156107aa578160200160208202803683370190505b50905060005b8381101561068257600a60008686848181106107dc57634e487b7160e01b600052603260045260246000fd5b9050602002013581526020019081526020016000205482828151811061081257634e487b7160e01b600052603260045260246000fd5b60209081029190910101528061082781611e29565b9150506107b0565b6003546001600160a01b03165b90565b6006805461043190611dc2565b6004546001600160a01b031681565b61086d610866610df1565b8383610df5565b5050565b60096020526000908152604090205481565b600b6020526000908152604090205481565b60086020526000908152604090205481565b6000908152600a602052604090205490565b600a6020526000908152604090205481565b6001600160a01b03918216600090815260016020908152604080832093909416825291909152205460ff1690565b6004546001600160a01b031633146109235760405162461bcd60e51b81526004016103ad90611b11565b6007546000908152600a60209081526040808320548551600c90935292205461094c9190611d7a565b111561096a5760405162461bcd60e51b81526004016103ad90611a60565b81516000828152600c60205260409020546109859190611d7a565b6000828152600c60205260408120919091555b8251811015610a44576109d28382815181106109c457634e487b7160e01b600052603260045260246000fd5b602002602001015183610385565b156109ef5760405162461bcd60e51b81526004016103ad90611d12565b610a32838281518110610a1257634e487b7160e01b600052603260045260246000fd5b602002602001015183600160405180602001604052806000815250610e98565b80610a3c81611e29565b915050610998565b505050565b610a51610bd2565b6001600160a01b038116610a775760405162461bcd60e51b81526004016103ad90611a81565b610a8081610d9f565b50565b6001600160e01b031981166301ffc9a760e01b14919050565b606060028054610aab90611dc2565b80601f0160208091040260200160405190810160405280929190818152602001828054610ad790611dc2565b8015610b245780601f10610af957610100808354040283529160200191610b24565b820191906000526020600020905b815481529060010190602001808311610b0757829003601f168201915b50505050509050919050565b60606000610b3d83610fa9565b60010190506000816001600160401b03811115610b6a57634e487b7160e01b600052604160045260246000fd5b6040519080825280601f01601f191660200182016040528015610b94576020820181803683370190505b5090508181016020015b600019016f181899199a1a9b1b9c1cb0b131b232b360811b600a86061a8153600a8504945084610bcd57610682565b610b9e565b610bda610df1565b6001600160a01b0316610beb61082f565b6001600160a01b0316146107555760405162461bcd60e51b81526004016103ad90611b7f565b8451811015610d10576000858281518110610c3c57634e487b7160e01b600052603260045260246000fd5b602002602001015190506000858381518110610c6857634e487b7160e01b600052603260045260246000fd5b602090810291909101810151600084815280835260408082206001600160a01b038e168352909352919091205490915081811015610cb85760405162461bcd60e51b81526004016103ad90611b35565b6000838152602081815260408083206001600160a01b038e8116855292528083208585039055908b16825281208054849290610cf5908490611d7a565b9250508190555050505080610d0990611e29565b9050610c11565b50846001600160a01b0316866001600160a01b0316826001600160a01b03167f4a39dc06d4c0dbc64b70af90fd698a233a518aa5d07e595d983b8c0526c8f7fb8787604051610d609291906119cc565b60405180910390a4610d76818787878787610d84565b610d84818787878787611081565b505050505050565b805161086d9060029060208401906112df565b600380546001600160a01b038381166001600160a01b0319831681179093556040519116919082907f8be0079c531659141344cd1fd0a4f28419497f9722a3daafe3b4186f6b6457e090600090a35050565b3390565b816001600160a01b0316836001600160a01b03161415610e275760405162461bcd60e51b81526004016103ad90611beb565b6001600160a01b0383811660008181526001602090815260408083209487168084529490915290819020805460ff1916851515179055517f17307eab39ab6107e8899845ad3d59bd9653f200f220920489ca2b5937696c3190610e8b9085906119fa565b60405180910390a3505050565b6001600160a01b038416610ebe5760405162461bcd60e51b81526004016103ad90611c7d565b6000610ec8610df1565b90506000610ed5856111a6565b90506000610ee2856111a6565b9050610ef383600089858589610d84565b6000868152602081815260408083206001600160a01b038b16845290915281208054879290610f23908490611d7a565b92505081905550866001600160a01b031660006001600160a01b0316846001600160a01b03167fc3d58168c5ae7397731d063d5bbf3d657854427343f4c083240f7aacaa2d0f628989604051610f7a929190611d49565b60405180910390a4610f9183600089858589610d84565b610fa0836000898989896111ff565b50505050505050565b60008072184f03e93ff9f4daa797ed6e38ed64bf6a1f0160401b8310610fe85772184f03e93ff9f4daa797ed6e38ed64bf6a1f0160401b830492506040015b6d04ee2d6d415b85acef81000000008310611014576d04ee2d6d415b85acef8100000000830492506020015b662386f26fc10000831061103257662386f26fc10000830492506010015b6305f5e100831061104a576305f5e100830492506008015b612710831061105e57612710830492506004015b60648310611070576064830492506002015b600a831061041c5760010192915050565b611093846001600160a01b03166112d0565b15610d845760405163bc197c8160e01b81526001600160a01b0385169063bc197c81906110cc9089908990889088908890600401611916565b602060405180830381600087803b1580156110e657600080fd5b505af1925050508015611116575060408051601f3d908101601f19168201909252611113918101906117cb565b60015b61117657611122611e70565b806308c379a0141561115c5750611137611e87565b80611142575061115e565b8060405162461bcd60e51b81526004016103ad9190611a05565b505b60405162461bcd60e51b81526004016103ad90611cbe565b6001600160e01b0319811663bc197c8160e01b14610fa05760405162461bcd60e51b81526004016103ad90611a18565b604080516001808252818301909252606091600091906020808301908036833701905050905082816000815181106111ee57634e487b7160e01b600052603260045260246000fd5b602090810291909101015292915050565b611211846001600160a01b03166112d0565b15610d845760405163f23a6e6160e01b81526001600160a01b0385169063f23a6e619061124a9089908990889088908890600401611974565b602060405180830381600087803b15801561126457600080fd5b505af1925050508015611294575060408051601f3d908101601f19168201909252611291918101906117cb565b60015b6112a057611122611e70565b6001600160e01b0319811663f23a6e6160e01b14610fa05760405162461bcd60e51b81526004016103ad90611a18565b6001600160a01b03163b151590565b8280546112eb90611dc2565b90600052602060002090601f01602090048101928261130d5760008555611353565b82601f1061132657805160ff1916838001178555611353565b82800160010185558215611353579182015b82811115611353578251825591602001919060010190611338565b5061135f929150611363565b5090565b5b8082111561135f5760008155600101611364565b60006001600160401b0383111561139157611391611e5a565b6040516113a8601f8501601f191660200182611dfd565b8091508381528484840111156113bd57600080fd5b83836020830137600060208583010152509392505050565b80356001600160a01b038116811461041f57600080fd5b600082601f8301126113fc578081fd5b8135602061140982611d57565b6040516114168282611dfd565b838152828101915085830183850287018401881015611433578586fd5b855b8581101561145857611446826113d5565b84529284019290840190600101611435565b5090979650505050505050565b600082601f830112611475578081fd5b8135602061148282611d57565b60405161148f8282611dfd565b8381528281019150858301838502870184018810156114ac578586fd5b855b85811015611458578135845292840192908401906001016114ae565b600082601f8301126114da578081fd5b61050a83833560208501611378565b6000602082840312156114fa578081fd5b61050a826113d5565b60008060408385031215611515578081fd5b61151e836113d5565b915061152c602084016113d5565b90509250929050565b600080600080600060a0868803121561154c578081fd5b611555866113d5565b9450611563602087016113d5565b935060408601356001600160401b038082111561157e578283fd5b61158a89838a01611465565b9450606088013591508082111561159f578283fd5b6115ab89838a01611465565b935060808801359150808211156115c0578283fd5b506115cd888289016114ca565b9150509295509295909350565b600080600080600060a086880312156115f1578081fd5b6115fa866113d5565b9450611608602087016113d5565b9350604086013592506060860135915060808601356001600160401b03811115611630578182fd5b6115cd888289016114ca565b6000806040838503121561164e578182fd5b611657836113d5565b91506020830135801515811461166b578182fd5b809150509250929050565b60008060408385031215611688578182fd5b611691836113d5565b946020939093013593505050565b600080604083850312156116b1578182fd5b82356001600160401b03808211156116c7578384fd5b6116d3868387016113ec565b935060208501359150808211156116e8578283fd5b506116f585828601611465565b9150509250929050565b60008060408385031215611711578081fd5b82356001600160401b03811115611726578182fd5b611732858286016113ec565b95602094909401359450505050565b60008060208385031215611753578182fd5b82356001600160401b0380821115611769578384fd5b818501915085601f83011261177c578384fd5b81358181111561178a578485fd5b866020808302850101111561179d578485fd5b60209290920196919550909350505050565b6000602082840312156117c0578081fd5b813561050a81611f18565b6000602082840312156117dc578081fd5b815161050a81611f18565b6000602082840312156117f8578081fd5b81356001600160401b0381111561180d578182fd5b8201601f8101841361181d578182fd5b61182c84823560208401611378565b949350505050565b600060208284031215611845578081fd5b5035919050565b6000806040838503121561185e578182fd5b50508035926020909101359150565b6000815180845260208085019450808401835b8381101561189c57815187529582019590820190600101611880565b509495945050505050565b600081518084526118bf816020860160208601611d92565b601f01601f19169290920160200192915050565b600083516118e5818460208801611d92565b8351908301906118f9818360208801611d92565b01949350505050565b6001600160a01b0391909116815260200190565b6001600160a01b0386811682528516602082015260a0604082018190526000906119429083018661186d565b8281036060840152611954818661186d565b9050828103608084015261196881856118a7565b98975050505050505050565b6001600160a01b03868116825285166020820152604081018490526060810183905260a0608082018190526000906119ae908301846118a7565b979650505050505050565b60006020825261050a602083018461186d565b6000604082526119df604083018561186d565b82810360208401526119f1818561186d565b95945050505050565b901515815260200190565b60006020825261050a60208301846118a7565b60208082526028908201527f455243313135353a204552433131353552656365697665722072656a656374656040820152676420746f6b656e7360c01b606082015260800190565b602080825260079082015266537570706c792160c81b604082015260600190565b60208082526026908201527f4f776e61626c653a206e6577206f776e657220697320746865207a65726f206160408201526564647265737360d01b606082015260800190565b6020808252602a908201527f455243313135353a2061646472657373207a65726f206973206e6f742061207660408201526930b634b21037bbb732b960b11b606082015260800190565b6020808252600a90820152693737ba102232b0b632b960b11b604082015260600190565b6020808252602a908201527f455243313135353a20696e73756666696369656e742062616c616e636520666f60408201526939103a3930b739b332b960b11b606082015260800190565b6020808252818101527f4f776e61626c653a2063616c6c6572206973206e6f7420746865206f776e6572604082015260600190565b60208082526019908201527f455243313135353a2063616e206e6f74207472616e7366657200000000000000604082015260600190565b60208082526029908201527f455243313135353a2073657474696e6720617070726f76616c20737461747573604082015268103337b91039b2b63360b91b606082015260800190565b60208082526029908201527f455243313135353a206163636f756e747320616e6420696473206c656e677468604082015268040dad2e6dac2e8c6d60bb1b606082015260800190565b60208082526021908201527f455243313135353a206d696e7420746f20746865207a65726f206164647265736040820152607360f81b606082015260800190565b60208082526034908201527f455243313135353a207472616e7366657220746f206e6f6e2d455243313135356040820152732932b1b2b4bb32b91034b6b83632b6b2b73a32b960611b606082015260800190565b6020808252601490820152733cb7ba903430bb32903132b2b710383630bcb2b960611b604082015260600190565b90815260200190565b918252602082015260400190565b60006001600160401b03821115611d7057611d70611e5a565b5060209081020190565b60008219821115611d8d57611d8d611e44565b500190565b60005b83811015611dad578181015183820152602001611d95565b83811115611dbc576000848401525b50505050565b600281046001821680611dd657607f821691505b60208210811415611df757634e487b7160e01b600052602260045260246000fd5b50919050565b601f8201601f191681016001600160401b0381118282101715611e2257611e22611e5a565b6040525050565b6000600019821415611e3d57611e3d611e44565b5060010190565b634e487b7160e01b600052601160045260246000fd5b634e487b7160e01b600052604160045260246000fd5b600060033d111561083c57600481823e5160e01c90565b600060443d1015611e975761083c565b6040516003193d81016004833e81513d6001600160401b038160248401118184111715611ec857505050505061083c565b8285019150815181811115611ee25750505050505061083c565b843d8701016020828501011115611efe5750505050505061083c565b611f0d60208286010187611dfd565b509094505050505090565b6001600160e01b031981168114610a8057600080fdfea2646970667358221220b51cd4973d666b002b62aa2a5a9360fd8eaf4967a63b390c622c538ecc9a000764736f6c63430008010033",
  "linkReferences": {},
  "deployedLinkReferences": {}
}