{
  "_format": "hh-sol-artifact-1",
  "contractName": "Player",
  "sourceName": "contracts/proof/Player.sol",
  "abi": [
    {
      "inputs": [
        {
          "internalType": "string",
          "name": "name_",
          "type": "string"
        },
        {
          "internalType": "string",
          "name": "symbol_",
          "type": "string"
        },
        {
          "internalType": "string",
          "name": "tokenURI_",
          "type": "string"
        }
      ],
      "stateMutability": "nonpayable",
      "type": "constructor"
    },
    {
      "anonymous": false,
      "inputs": [
        {
          "indexed": true,
          "internalType": "address",
          "name": "account",
          "type": "address"
        },
        {
          "indexed": true,
          "internalType": "address",
          "name": "operator",
          "type": "address"
        },
        {
          "indexed": false,
          "internalType": "bool",
          "name": "approved",
          "type": "bool"
        }
      ],
      "name": "ApprovalForAll",
      "type": "event"
    },
    {
      "anonymous": false,
      "inputs": [
        {
          "indexed": false,
          "internalType": "uint256",
          "name": "index",
          "type": "uint256"
        },
        {
          "indexed": false,
          "internalType": "address",
          "name": "pool",
          "type": "address"
        }
      ],
      "name": "CreateID",
      "type": "event"
    },
    {
      "anonymous": false,
      "inputs": [
        {
          "indexed": false,
          "internalType": "uint256",
          "name": "index",
          "type": "uint256"
        },
        {
          "indexed": false,
          "internalType": "address[]",
          "name": "users",
          "type": "address[]"
        }
      ],
      "name": "Mint",
      "type": "event"
    },
    {
      "anonymous": false,
      "inputs": [
        {
          "indexed": true,
          "internalType": "address",
          "name": "previousOwner",
          "type": "address"
        },
        {
          "indexed": true,
          "internalType": "address",
          "name": "newOwner",
          "type": "address"
        }
      ],
      "name": "OwnershipTransferred",
      "type": "event"
    },
    {
      "anonymous": false,
      "inputs": [
        {
          "indexed": true,
          "internalType": "address",
          "name": "operator",
          "type": "address"
        },
        {
          "indexed": true,
          "internalType": "address",
          "name": "from",
          "type": "address"
        },
        {
          "indexed": true,
          "internalType": "address",
          "name": "to",
          "type": "address"
        },
        {
          "indexed": false,
          "internalType": "uint256[]",
          "name": "ids",
          "type": "uint256[]"
        },
        {
          "indexed": false,
          "internalType": "uint256[]",
          "name": "values",
          "type": "uint256[]"
        }
      ],
      "name": "TransferBatch",
      "type": "event"
    },
    {
      "anonymous": false,
      "inputs": [
        {
          "indexed": true,
          "internalType": "address",
          "name": "operator",
          "type": "address"
        },
        {
          "indexed": true,
          "internalType": "address",
          "name": "from",
          "type": "address"
        },
        {
          "indexed": true,
          "internalType": "address",
          "name": "to",
          "type": "address"
        },
        {
          "indexed": false,
          "internalType": "uint256",
          "name": "id",
          "type": "uint256"
        },
        {
          "indexed": false,
          "internalType": "uint256",
          "name": "value",
          "type": "uint256"
        }
      ],
      "name": "TransferSingle",
      "type": "event"
    },
    {
      "anonymous": false,
      "inputs": [
        {
          "indexed": false,
          "internalType": "string",
          "name": "value",
          "type": "string"
        },
        {
          "indexed": true,
          "internalType": "uint256",
          "name": "id",
          "type": "uint256"
        }
      ],
      "name": "URI",
      "type": "event"
    },
    {
      "inputs": [
        {
          "internalType": "address",
          "name": "account",
          "type": "address"
        },
        {
          "internalType": "uint256",
          "name": "id",
          "type": "uint256"
        }
      ],
      "name": "balanceOf",
      "outputs": [
        {
          "internalType": "uint256",
          "name": "",
          "type": "uint256"
        }
      ],
      "stateMutability": "view",
      "type": "function"
    },
    {
      "inputs": [
        {
          "internalType": "address[]",
          "name": "accounts",
          "type": "address[]"
        },
        {
          "internalType": "uint256[]",
          "name": "ids",
          "type": "uint256[]"
        }
      ],
      "name": "balanceOfBatch",
      "outputs": [
        {
          "internalType": "uint256[]",
          "name": "",
          "type": "uint256[]"
        }
      ],
      "stateMutability": "view",
      "type": "function"
    },
    {
      "inputs": [
        {
          "internalType": "uint256",
          "name": "id",
          "type": "uint256"
        },
        {
          "internalType": "address",
          "name": "pool",
          "type": "address"
        },
        {
          "internalType": "int256",
          "name": "supply",
          "type": "int256"
        }
      ],
      "name": "createID",
      "outputs": [
        {
          "internalType": "uint256",
          "name": "idex",
          "type": "uint256"
        }
      ],
      "stateMutability": "nonpayable",
      "type": "function"
    },
    {
      "inputs": [],
      "name": "dealer",
      "outputs": [
        {
          "internalType": "address",
          "name": "",
          "type": "address"
        }
      ],
      "stateMutability": "view",
      "type": "function"
    },
    {
      "inputs": [
        {
          "internalType": "address[]",
          "name": "users",
          "type": "address[]"
        },
        {
          "internalType": "uint256",
          "name": "idex",
          "type": "uint256"
        }
      ],
      "name": "dealerMint",
      "outputs": [],
      "stateMutability": "nonpayable",
      "type": "function"
    },
    {
      "inputs": [],
      "name": "index",
      "outputs": [
        {
          "internalType": "uint256",
          "name": "",
          "type": "uint256"
        }
      ],
      "stateMutability": "view",
      "type": "function"
    },
    {
      "inputs": [
        {
          "internalType": "address",
          "name": "account",
          "type": "address"
        },
        {
          "internalType": "address",
          "name": "operator",
          "type": "address"
        }
      ],
      "name": "isApprovedForAll",
      "outputs": [
        {
          "internalType": "bool",
          "name": "",
          "type": "bool"
        }
      ],
      "stateMutability": "view",
      "type": "function"
    },
    {
      "inputs": [],
      "name": "name",
      "outputs": [
        {
          "internalType": "string",
          "name": "",
          "type": "string"
        }
      ],
      "stateMutability": "view",
      "type": "function"
    },
    {
      "inputs": [],
      "name": "owner",
      "outputs": [
        {
          "internalType": "address",
          "name": "",
          "type": "address"
        }
      ],
      "stateMutability": "view",
      "type": "function"
    },
    {
      "inputs": [
        {
          "internalType": "uint256",
          "name": "",
          "type": "uint256"
        }
      ],
      "name": "playerToAmount",
      "outputs": [
        {
          "internalType": "uint256",
          "name": "",
          "type": "uint256"
        }
      ],
      "stateMutability": "view",
      "type": "function"
    },
    {
      "inputs": [
        {
          "internalType": "uint256",
          "name": "",
          "type": "uint256"
        }
      ],
      "name": "playerToDealer",
      "outputs": [
        {
          "internalType": "uint256",
          "name": "",
          "type": "uint256"
        }
      ],
      "stateMutability": "view",
      "type": "function"
    },
    {
      "inputs": [
        {
          "internalType": "uint256",
          "name": "",
          "type": "uint256"
        }
      ],
      "name": "playerToPool",
      "outputs": [
        {
          "internalType": "address",
          "name": "",
          "type": "address"
        }
      ],
      "stateMutability": "view",
      "type": "function"
    },
    {
      "inputs": [
        {
          "internalType": "uint256",
          "name": "",
          "type": "uint256"
        }
      ],
      "name": "playerToSupply",
      "outputs": [
        {
          "internalType": "int256",
          "name": "",
          "type": "int256"
        }
      ],
      "stateMutability": "view",
      "type": "function"
    },
    {
      "inputs": [],
      "name": "renounceOwnership",
      "outputs": [],
      "stateMutability": "nonpayable",
      "type": "function"
    },
    {
      "inputs": [
        {
          "internalType": "address",
          "name": "from",
          "type": "address"
        },
        {
          "internalType": "address",
          "name": "to",
          "type": "address"
        },
        {
          "internalType": "uint256[]",
          "name": "ids",
          "type": "uint256[]"
        },
        {
          "internalType": "uint256[]",
          "name": "amounts",
          "type": "uint256[]"
        },
        {
          "internalType": "bytes",
          "name": "data",
          "type": "bytes"
        }
      ],
      "name": "safeBatchTransferFrom",
      "outputs": [],
      "stateMutability": "nonpayable",
      "type": "function"
    },
    {
      "inputs": [
        {
          "internalType": "address",
          "name": "from",
          "type": "address"
        },
        {
          "internalType": "address",
          "name": "to",
          "type": "address"
        },
        {
          "internalType": "uint256",
          "name": "id",
          "type": "uint256"
        },
        {
          "internalType": "uint256",
          "name": "amount",
          "type": "uint256"
        },
        {
          "internalType": "bytes",
          "name": "data",
          "type": "bytes"
        }
      ],
      "name": "safeTransferFrom",
      "outputs": [],
      "stateMutability": "nonpayable",
      "type": "function"
    },
    {
      "inputs": [
        {
          "internalType": "address",
          "name": "operator",
          "type": "address"
        },
        {
          "internalType": "bool",
          "name": "approved",
          "type": "bool"
        }
      ],
      "name": "setApprovalForAll",
      "outputs": [],
      "stateMutability": "nonpayable",
      "type": "function"
    },
    {
      "inputs": [
        {
          "internalType": "string",
          "name": "baseUri",
          "type": "string"
        }
      ],
      "name": "setBaseURI",
      "outputs": [],
      "stateMutability": "nonpayable",
      "type": "function"
    },
    {
      "inputs": [
        {
          "internalType": "address",
          "name": "dealer_",
          "type": "address"
        }
      ],
      "name": "setDealer",
      "outputs": [],
      "stateMutability": "nonpayable",
      "type": "function"
    },
    {
      "inputs": [
        {
          "internalType": "bytes4",
          "name": "interfaceId",
          "type": "bytes4"
        }
      ],
      "name": "supportsInterface",
      "outputs": [
        {
          "internalType": "bool",
          "name": "",
          "type": "bool"
        }
      ],
      "stateMutability": "view",
      "type": "function"
    },
    {
      "inputs": [],
      "name": "symbol",
      "outputs": [
        {
          "internalType": "string",
          "name": "",
          "type": "string"
        }
      ],
      "stateMutability": "view",
      "type": "function"
    },
    {
      "inputs": [
        {
          "internalType": "uint256",
          "name": "id",
          "type": "uint256"
        }
      ],
      "name": "totalSupply",
      "outputs": [
        {
          "internalType": "int256",
          "name": "",
          "type": "int256"
        }
      ],
      "stateMutability": "view",
      "type": "function"
    },
    {
      "inputs": [
        {
          "internalType": "uint256[]",
          "name": "ids",
          "type": "uint256[]"
        }
      ],
      "name": "totalSupplyBatch",
      "outputs": [
        {
          "internalType": "int256[]",
          "name": "",
          "type": "int256[]"
        }
      ],
      "stateMutability": "view",
      "type": "function"
    },
    {
      "inputs": [
        {
          "internalType": "address",
          "name": "newOwner",
          "type": "address"
        }
      ],
      "name": "transferOwnership",
      "outputs": [],
      "stateMutability": "nonpayable",
      "type": "function"
    },
    {
      "inputs": [
        {
          "internalType": "uint256",
          "name": "id",
          "type": "uint256"
        }
      ],
      "name": "uri",
      "outputs": [
        {
          "internalType": "string",
          "name": "",
          "type": "string"
        }
      ],
      "stateMutability": "view",
      "type": "function"
    }
  ],
  "bytecode": "0x608060405260006007553480156200001657600080fd5b506040516200238638038062002386833981016040819052620000399162000257565b8062000045816200008f565b506200005a62000054620000a8565b620000ac565b82516200006f906005906020860190620000fe565b50815162000085906006906020850190620000fe565b5050505062000337565b8051620000a4906002906020840190620000fe565b5050565b3390565b600380546001600160a01b038381166001600160a01b0319831681179093556040519116919082907f8be0079c531659141344cd1fd0a4f28419497f9722a3daafe3b4186f6b6457e090600090a35050565b8280546200010c90620002e4565b90600052602060002090601f0160209004810192826200013057600085556200017b565b82601f106200014b57805160ff19168380011785556200017b565b828001600101855582156200017b579182015b828111156200017b5782518255916020019190600101906200015e565b50620001899291506200018d565b5090565b5b808211156200018957600081556001016200018e565b600082601f830112620001b5578081fd5b81516001600160401b0380821115620001d257620001d262000321565b604051601f8301601f19908116603f01168101908282118183101715620001fd57620001fd62000321565b8160405283815260209250868385880101111562000219578485fd5b8491505b838210156200023c57858201830151818301840152908201906200021d565b838211156200024d57848385830101525b9695505050505050565b6000806000606084860312156200026c578283fd5b83516001600160401b038082111562000283578485fd5b6200029187838801620001a4565b94506020860151915080821115620002a7578384fd5b620002b587838801620001a4565b93506040860151915080821115620002cb578283fd5b50620002da86828701620001a4565b9150509250925092565b600281046001821680620002f957607f821691505b602082108114156200031b57634e487b7160e01b600052602260045260246000fd5b50919050565b634e487b7160e01b600052604160045260246000fd5b61203f80620003476000396000f3fe608060405234801561001057600080fd5b50600436106101625760003560e01c806377954ac2116100ce578063aa680ea611610087578063aa680ea6146102d4578063bd85b039146102e7578063be8544c5146102fa578063c9d9c3bd1461030d578063e985e9c514610320578063f242432a14610333578063f2fde38b1461034157610162565b806377954ac2146102695780638da5cb5b1461028957806395d89b411461029e5780639de2ee21146102a6578063a22cb465146102ae578063a9a2b82f146102c157610162565b80632eb2c2d6116101205780632eb2c2d6146101f55780634e1273f41461020857806355f804b314610228578063601c67691461023b578063715018a61461024e5780637312895e1461025657610162565b8062fdd58e1461016757806301ffc9a71461019057806306fdde03146101b05780630e89341c146101c55780631e665f32146101d85780632986c0e5146101ed575b600080fd5b61017a61017536600461169c565b610354565b6040516101879190611a82565b60405180910390f35b6101a361019e3660046117d5565b6103ab565b6040516101879190611a77565b6101b86103f3565b6040516101879190611a8b565b6101b86101d336600461185a565b610481565b6101eb6101e636600461150f565b6104e0565b005b61017a61050a565b6101eb61020336600461155b565b610510565b61021b6102163660046116c5565b610528565b6040516101879190611a36565b6101eb61023636600461180d565b610647565b6101eb610249366004611725565b61065b565b6101eb6107e1565b61017a61026436600461185a565b6107f5565b61027c610277366004611767565b610807565b60405161018791906119f2565b6102916108df565b604051610187919061193b565b6101b86108ef565b6102916108fc565b6101eb6102bc366004611662565b61090b565b61017a6102cf36600461185a565b610921565b61017a6102e2366004611872565b610933565b61017a6102f536600461185a565b610a05565b61029161030836600461185a565b610a17565b61017a61031b36600461185a565b610a32565b6101a361032e366004611529565b610a44565b6101eb610203366004611600565b6101eb61034f36600461150f565b610a72565b60006001600160a01b0383166103855760405162461bcd60e51b815260040161037c90611b4d565b60405180910390fd5b506000908152602081815260408083206001600160a01b03949094168352929052205490565b60006001600160e01b03198216636cdb3d1360e11b14806103dc57506001600160e01b031982166303a24d0760e21b145b806103eb57506103eb82610aa9565b90505b919050565b6005805461040090611e9d565b80601f016020809104026020016040519081016040528092919081815260200182805461042c90611e9d565b80156104795780601f1061044e57610100808354040283529160200191610479565b820191906000526020600020905b81548152906001019060200180831161045c57829003601f168201915b505050505081565b6060600061048e83610ac2565b905060008151116104ae57604051806020016040528060008152506104d9565b806104b884610b56565b6040516020016104c992919061190c565b6040516020818303038152906040525b9392505050565b6104e8610bf8565b600480546001600160a01b0319166001600160a01b0392909216919091179055565b60075481565b60405162461bcd60e51b815260040161037c90611b97565b6060815183511461054b5760405162461bcd60e51b815260040161037c90611cb8565b600083516001600160401b0381111561057457634e487b7160e01b600052604160045260246000fd5b60405190808252806020026020018201604052801561059d578160200160208202803683370190505b50905060005b845181101561063f576106048582815181106105cf57634e487b7160e01b600052603260045260246000fd5b60200260200101518583815181106105f757634e487b7160e01b600052603260045260246000fd5b6020026020010151610354565b82828151811061062457634e487b7160e01b600052603260045260246000fd5b602090810291909101015261063881611f04565b90506105a3565b509392505050565b61064f610bf8565b61065881610db2565b50565b6004546001600160a01b031633146106855760405162461bcd60e51b815260040161037c90611bcc565b6000818152600a60209081526040808320548551600b9093529220546106ab9190611e55565b13156106c95760405162461bcd60e51b815260040161037c90611ae6565b81516000828152600b60205260409020546106e49190611e55565b6000828152600b60205260408120919091555b82518110156107a35761073183828151811061072357634e487b7160e01b600052603260045260246000fd5b602002602001015183610354565b1561074e5760405162461bcd60e51b815260040161037c90611d96565b61079183828151811061077157634e487b7160e01b600052603260045260246000fd5b602002602001015183600160405180602001604052806000815250610dc5565b8061079b81611f04565b9150506106f7565b507f22d71287e8162390aa55fb951be1d54701154fb4f9536659eb96157ad34fe82481836040516107d5929190611ddb565b60405180910390a15050565b6107e9610bf8565b6107f36000610ed6565b565b600a6020526000908152604090205481565b60606000826001600160401b0381111561083157634e487b7160e01b600052604160045260246000fd5b60405190808252806020026020018201604052801561085a578160200160208202803683370190505b50905060005b8381101561063f57600a600086868481811061088c57634e487b7160e01b600052603260045260246000fd5b905060200201358152602001908152602001600020548282815181106108c257634e487b7160e01b600052603260045260246000fd5b6020908102919091010152806108d781611f04565b915050610860565b6003546001600160a01b03165b90565b6006805461040090611e9d565b6004546001600160a01b031681565b61091d610916610f28565b8383610f2c565b5050565b60086020526000908152604090205481565b6004546000906001600160a01b031633146109605760405162461bcd60e51b815260040161037c90611bcc565b6007805490600061097083611f04565b909155505060078054600090815260086020908152604080832088905583548352600a82528083208690558354835260099091529081902080546001600160a01b0319166001600160a01b038716179055905490517f6c9a86a52fcf0188bd47ea4c84c286e4356fae2da6a8632093807ec5b5ed9871916109f2918690611dc4565b60405180910390a1506007549392505050565b6000908152600a602052604090205490565b6009602052600090815260409020546001600160a01b031681565b600b6020526000908152604090205481565b6001600160a01b03918216600090815260016020908152604080832093909416825291909152205460ff1690565b610a7a610bf8565b6001600160a01b038116610aa05760405162461bcd60e51b815260040161037c90611b07565b61065881610ed6565b6001600160e01b031981166301ffc9a760e01b14919050565b606060028054610ad190611e9d565b80601f0160208091040260200160405190810160405280929190818152602001828054610afd90611e9d565b8015610b4a5780601f10610b1f57610100808354040283529160200191610b4a565b820191906000526020600020905b815481529060010190602001808311610b2d57829003601f168201915b50505050509050919050565b60606000610b6383610fcf565b60010190506000816001600160401b03811115610b9057634e487b7160e01b600052604160045260246000fd5b6040519080825280601f01601f191660200182016040528015610bba576020820181803683370190505b5090508181016020015b600019016f181899199a1a9b1b9c1cb0b131b232b360811b600a86061a8153600a8504945084610bf35761063f565b610bc4565b610c00610f28565b6001600160a01b0316610c116108df565b6001600160a01b0316146107f35760405162461bcd60e51b815260040161037c90611c3a565b8451811015610d36576000858281518110610c6257634e487b7160e01b600052603260045260246000fd5b602002602001015190506000858381518110610c8e57634e487b7160e01b600052603260045260246000fd5b602090810291909101810151600084815280835260408082206001600160a01b038e168352909352919091205490915081811015610cde5760405162461bcd60e51b815260040161037c90611bf0565b6000838152602081815260408083206001600160a01b038e8116855292528083208585039055908b16825281208054849290610d1b908490611e55565b9250508190555050505080610d2f90611f04565b9050610c37565b50846001600160a01b0316866001600160a01b0316826001600160a01b03167f4a39dc06d4c0dbc64b70af90fd698a233a518aa5d07e595d983b8c0526c8f7fb8787604051610d86929190611a49565b60405180910390a4610d9c818787878787610daa565b610daa8187878787876110a7565b505050505050565b805161091d906002906020840190611305565b6001600160a01b038416610deb5760405162461bcd60e51b815260040161037c90611d01565b6000610df5610f28565b90506000610e02856111cc565b90506000610e0f856111cc565b9050610e2083600089858589610daa565b6000868152602081815260408083206001600160a01b038b16845290915281208054879290610e50908490611e55565b92505081905550866001600160a01b031660006001600160a01b0316846001600160a01b03167fc3d58168c5ae7397731d063d5bbf3d657854427343f4c083240f7aacaa2d0f628989604051610ea7929190611e24565b60405180910390a4610ebe83600089858589610daa565b610ecd83600089898989611225565b50505050505050565b600380546001600160a01b038381166001600160a01b0319831681179093556040519116919082907f8be0079c531659141344cd1fd0a4f28419497f9722a3daafe3b4186f6b6457e090600090a35050565b3390565b816001600160a01b0316836001600160a01b03161415610f5e5760405162461bcd60e51b815260040161037c90611c6f565b6001600160a01b0383811660008181526001602090815260408083209487168084529490915290819020805460ff1916851515179055517f17307eab39ab6107e8899845ad3d59bd9653f200f220920489ca2b5937696c3190610fc2908590611a77565b60405180910390a3505050565b60008072184f03e93ff9f4daa797ed6e38ed64bf6a1f0160401b831061100e5772184f03e93ff9f4daa797ed6e38ed64bf6a1f0160401b830492506040015b6d04ee2d6d415b85acef8100000000831061103a576d04ee2d6d415b85acef8100000000830492506020015b662386f26fc10000831061105857662386f26fc10000830492506010015b6305f5e1008310611070576305f5e100830492506008015b612710831061108457612710830492506004015b60648310611096576064830492506002015b600a83106103eb5760010192915050565b6110b9846001600160a01b03166112f6565b15610daa5760405163bc197c8160e01b81526001600160a01b0385169063bc197c81906110f2908990899088908890889060040161194f565b602060405180830381600087803b15801561110c57600080fd5b505af192505050801561113c575060408051601f3d908101601f19168201909252611139918101906117f1565b60015b61119c57611148611f4b565b806308c379a01415611182575061115d611f62565b806111685750611184565b8060405162461bcd60e51b815260040161037c9190611a8b565b505b60405162461bcd60e51b815260040161037c90611d42565b6001600160e01b0319811663bc197c8160e01b14610ecd5760405162461bcd60e51b815260040161037c90611a9e565b6040805160018082528183019092526060916000919060208083019080368337019050509050828160008151811061121457634e487b7160e01b600052603260045260246000fd5b602090810291909101015292915050565b611237846001600160a01b03166112f6565b15610daa5760405163f23a6e6160e01b81526001600160a01b0385169063f23a6e619061127090899089908890889088906004016119ad565b602060405180830381600087803b15801561128a57600080fd5b505af19250505080156112ba575060408051601f3d908101601f191682019092526112b7918101906117f1565b60015b6112c657611148611f4b565b6001600160e01b0319811663f23a6e6160e01b14610ecd5760405162461bcd60e51b815260040161037c90611a9e565b6001600160a01b03163b151590565b82805461131190611e9d565b90600052602060002090601f0160209004810192826113335760008555611379565b82601f1061134c57805160ff1916838001178555611379565b82800160010185558215611379579182015b8281111561137957825182559160200191906001019061135e565b50611385929150611389565b5090565b5b80821115611385576000815560010161138a565b60006001600160401b038311156113b7576113b7611f35565b6040516113ce601f8501601f191660200182611ed8565b8091508381528484840111156113e357600080fd5b83836020830137600060208583010152509392505050565b80356001600160a01b03811681146103ee57600080fd5b600082601f830112611422578081fd5b8135602061142f82611e32565b60405161143c8282611ed8565b838152828101915085830183850287018401881015611459578586fd5b855b8581101561147e5761146c826113fb565b8452928401929084019060010161145b565b5090979650505050505050565b600082601f83011261149b578081fd5b813560206114a882611e32565b6040516114b58282611ed8565b8381528281019150858301838502870184018810156114d2578586fd5b855b8581101561147e578135845292840192908401906001016114d4565b600082601f830112611500578081fd5b6104d98383356020850161139e565b600060208284031215611520578081fd5b6104d9826113fb565b6000806040838503121561153b578081fd5b611544836113fb565b9150611552602084016113fb565b90509250929050565b600080600080600060a08688031215611572578081fd5b61157b866113fb565b9450611589602087016113fb565b935060408601356001600160401b03808211156115a4578283fd5b6115b089838a0161148b565b945060608801359150808211156115c5578283fd5b6115d189838a0161148b565b935060808801359150808211156115e6578283fd5b506115f3888289016114f0565b9150509295509295909350565b600080600080600060a08688031215611617578081fd5b611620866113fb565b945061162e602087016113fb565b9350604086013592506060860135915060808601356001600160401b03811115611656578182fd5b6115f3888289016114f0565b60008060408385031215611674578182fd5b61167d836113fb565b915060208301358015158114611691578182fd5b809150509250929050565b600080604083850312156116ae578182fd5b6116b7836113fb565b946020939093013593505050565b600080604083850312156116d7578182fd5b82356001600160401b03808211156116ed578384fd5b6116f986838701611412565b9350602085013591508082111561170e578283fd5b5061171b8582860161148b565b9150509250929050565b60008060408385031215611737578182fd5b82356001600160401b0381111561174c578283fd5b61175885828601611412565b95602094909401359450505050565b60008060208385031215611779578182fd5b82356001600160401b038082111561178f578384fd5b818501915085601f8301126117a2578384fd5b8135818111156117b0578485fd5b86602080830285010111156117c3578485fd5b60209290920196919550909350505050565b6000602082840312156117e6578081fd5b81356104d981611ff3565b600060208284031215611802578081fd5b81516104d981611ff3565b60006020828403121561181e578081fd5b81356001600160401b03811115611833578182fd5b8201601f81018413611843578182fd5b6118528482356020840161139e565b949350505050565b60006020828403121561186b578081fd5b5035919050565b600080600060608486031215611886578081fd5b83359250611896602085016113fb565b9150604084013590509250925092565b6000815180845260208085019450808401835b838110156118d5578151875295820195908201906001016118b9565b509495945050505050565b600081518084526118f8816020860160208601611e6d565b601f01601f19169290920160200192915050565b6000835161191e818460208801611e6d565b835190830190611932818360208801611e6d565b01949350505050565b6001600160a01b0391909116815260200190565b6001600160a01b0386811682528516602082015260a06040820181905260009061197b908301866118a6565b828103606084015261198d81866118a6565b905082810360808401526119a181856118e0565b98975050505050505050565b6001600160a01b03868116825285166020820152604081018490526060810183905260a0608082018190526000906119e7908301846118e0565b979650505050505050565b6020808252825182820181905260009190848201906040850190845b81811015611a2a57835183529284019291840191600101611a0e565b50909695505050505050565b6000602082526104d960208301846118a6565b600060408252611a5c60408301856118a6565b8281036020840152611a6e81856118a6565b95945050505050565b901515815260200190565b90815260200190565b6000602082526104d960208301846118e0565b60208082526028908201527f455243313135353a204552433131353552656365697665722072656a656374656040820152676420746f6b656e7360c01b606082015260800190565b602080825260079082015266537570706c792160c81b604082015260600190565b60208082526026908201527f4f776e61626c653a206e6577206f776e657220697320746865207a65726f206160408201526564647265737360d01b606082015260800190565b6020808252602a908201527f455243313135353a2061646472657373207a65726f206973206e6f742061207660408201526930b634b21037bbb732b960b11b606082015260800190565b6020808252818101527f455243313135353a20706c617965722063616e206e6f74207472616e73666572604082015260600190565b6020808252600a90820152693737ba102232b0b632b960b11b604082015260600190565b6020808252602a908201527f455243313135353a20696e73756666696369656e742062616c616e636520666f60408201526939103a3930b739b332b960b11b606082015260800190565b6020808252818101527f4f776e61626c653a2063616c6c6572206973206e6f7420746865206f776e6572604082015260600190565b60208082526029908201527f455243313135353a2073657474696e6720617070726f76616c20737461747573604082015268103337b91039b2b63360b91b606082015260800190565b60208082526029908201527f455243313135353a206163636f756e747320616e6420696473206c656e677468604082015268040dad2e6dac2e8c6d60bb1b606082015260800190565b60208082526021908201527f455243313135353a206d696e7420746f20746865207a65726f206164647265736040820152607360f81b606082015260800190565b60208082526034908201527f455243313135353a207472616e7366657220746f206e6f6e2d455243313135356040820152732932b1b2b4bb32b91034b6b83632b6b2b73a32b960611b606082015260800190565b6020808252601490820152733cb7ba903430bb32903132b2b710383630bcb2b960611b604082015260600190565b9182526001600160a01b0316602082015260400190565b60006040820184835260206040818501528185518084526060860191508287019350845b8181101561147e5784516001600160a01b031683529383019391830191600101611dff565b918252602082015260400190565b60006001600160401b03821115611e4b57611e4b611f35565b5060209081020190565b60008219821115611e6857611e68611f1f565b500190565b60005b83811015611e88578181015183820152602001611e70565b83811115611e97576000848401525b50505050565b600281046001821680611eb157607f821691505b60208210811415611ed257634e487b7160e01b600052602260045260246000fd5b50919050565b601f8201601f191681016001600160401b0381118282101715611efd57611efd611f35565b6040525050565b6000600019821415611f1857611f18611f1f565b5060010190565b634e487b7160e01b600052601160045260246000fd5b634e487b7160e01b600052604160045260246000fd5b600060033d11156108ec57600481823e5160e01c90565b600060443d1015611f72576108ec565b6040516003193d81016004833e81513d6001600160401b038160248401118184111715611fa35750505050506108ec565b8285019150815181811115611fbd575050505050506108ec565b843d8701016020828501011115611fd9575050505050506108ec565b611fe860208286010187611ed8565b509094505050505090565b6001600160e01b03198116811461065857600080fdfea2646970667358221220d36e0859fc3d51c108bd038d7ecf376f421ff84dbf2a7604162692eab27c4bd564736f6c63430008010033",
  "linkReferences": {},
  "deployedLinkReferences": {}
}