{
  "_format": "hh-sol-artifact-1",
  "contractName": "Player",
  "sourceName": "contracts/proof/Player.sol",
  "abi": [
    {
      "inputs": [
        {
          "internalType": "string",
          "name": "name_",
          "type": "string"
        },
        {
          "internalType": "string",
          "name": "symbol_",
          "type": "string"
        },
        {
          "internalType": "string",
          "name": "tokenURI_",
          "type": "string"
        }
      ],
      "stateMutability": "nonpayable",
      "type": "constructor"
    },
    {
      "anonymous": false,
      "inputs": [
        {
          "indexed": true,
          "internalType": "address",
          "name": "account",
          "type": "address"
        },
        {
          "indexed": true,
          "internalType": "address",
          "name": "operator",
          "type": "address"
        },
        {
          "indexed": false,
          "internalType": "bool",
          "name": "approved",
          "type": "bool"
        }
      ],
      "name": "ApprovalForAll",
      "type": "event"
    },
    {
      "anonymous": false,
      "inputs": [
        {
          "indexed": false,
          "internalType": "uint256",
          "name": "index",
          "type": "uint256"
        },
        {
          "indexed": false,
          "internalType": "address",
          "name": "pool",
          "type": "address"
        }
      ],
      "name": "CreateID",
      "type": "event"
    },
    {
      "anonymous": false,
      "inputs": [
        {
          "indexed": false,
          "internalType": "uint256",
          "name": "index",
          "type": "uint256"
        },
        {
          "indexed": false,
          "internalType": "address[]",
          "name": "users",
          "type": "address[]"
        }
      ],
      "name": "Mint",
      "type": "event"
    },
    {
      "anonymous": false,
      "inputs": [
        {
          "indexed": true,
          "internalType": "address",
          "name": "previousOwner",
          "type": "address"
        },
        {
          "indexed": true,
          "internalType": "address",
          "name": "newOwner",
          "type": "address"
        }
      ],
      "name": "OwnershipTransferred",
      "type": "event"
    },
    {
      "anonymous": false,
      "inputs": [
        {
          "indexed": true,
          "internalType": "address",
          "name": "operator",
          "type": "address"
        },
        {
          "indexed": true,
          "internalType": "address",
          "name": "from",
          "type": "address"
        },
        {
          "indexed": true,
          "internalType": "address",
          "name": "to",
          "type": "address"
        },
        {
          "indexed": false,
          "internalType": "uint256[]",
          "name": "ids",
          "type": "uint256[]"
        },
        {
          "indexed": false,
          "internalType": "uint256[]",
          "name": "values",
          "type": "uint256[]"
        }
      ],
      "name": "TransferBatch",
      "type": "event"
    },
    {
      "anonymous": false,
      "inputs": [
        {
          "indexed": true,
          "internalType": "address",
          "name": "operator",
          "type": "address"
        },
        {
          "indexed": true,
          "internalType": "address",
          "name": "from",
          "type": "address"
        },
        {
          "indexed": true,
          "internalType": "address",
          "name": "to",
          "type": "address"
        },
        {
          "indexed": false,
          "internalType": "uint256",
          "name": "id",
          "type": "uint256"
        },
        {
          "indexed": false,
          "internalType": "uint256",
          "name": "value",
          "type": "uint256"
        }
      ],
      "name": "TransferSingle",
      "type": "event"
    },
    {
      "anonymous": false,
      "inputs": [
        {
          "indexed": false,
          "internalType": "string",
          "name": "value",
          "type": "string"
        },
        {
          "indexed": true,
          "internalType": "uint256",
          "name": "id",
          "type": "uint256"
        }
      ],
      "name": "URI",
      "type": "event"
    },
    {
      "inputs": [
        {
          "internalType": "address",
          "name": "account",
          "type": "address"
        },
        {
          "internalType": "uint256",
          "name": "id",
          "type": "uint256"
        }
      ],
      "name": "balanceOf",
      "outputs": [
        {
          "internalType": "uint256",
          "name": "",
          "type": "uint256"
        }
      ],
      "stateMutability": "view",
      "type": "function"
    },
    {
      "inputs": [
        {
          "internalType": "address[]",
          "name": "accounts",
          "type": "address[]"
        },
        {
          "internalType": "uint256[]",
          "name": "ids",
          "type": "uint256[]"
        }
      ],
      "name": "balanceOfBatch",
      "outputs": [
        {
          "internalType": "uint256[]",
          "name": "",
          "type": "uint256[]"
        }
      ],
      "stateMutability": "view",
      "type": "function"
    },
    {
      "inputs": [
        {
          "internalType": "uint256",
          "name": "id",
          "type": "uint256"
        },
        {
          "internalType": "address",
          "name": "pool",
          "type": "address"
        },
        {
          "internalType": "int256",
          "name": "supply",
          "type": "int256"
        },
        {
          "internalType": "uint256",
          "name": "model",
          "type": "uint256"
        }
      ],
      "name": "createID",
      "outputs": [
        {
          "internalType": "uint256",
          "name": "idex",
          "type": "uint256"
        }
      ],
      "stateMutability": "nonpayable",
      "type": "function"
    },
    {
      "inputs": [],
      "name": "dealer",
      "outputs": [
        {
          "internalType": "address",
          "name": "",
          "type": "address"
        }
      ],
      "stateMutability": "view",
      "type": "function"
    },
    {
      "inputs": [
        {
          "internalType": "address[]",
          "name": "users",
          "type": "address[]"
        },
        {
          "internalType": "uint256",
          "name": "idex",
          "type": "uint256"
        }
      ],
      "name": "dealerMint",
      "outputs": [],
      "stateMutability": "nonpayable",
      "type": "function"
    },
    {
      "inputs": [],
      "name": "index",
      "outputs": [
        {
          "internalType": "uint256",
          "name": "",
          "type": "uint256"
        }
      ],
      "stateMutability": "view",
      "type": "function"
    },
    {
      "inputs": [
        {
          "internalType": "address",
          "name": "account",
          "type": "address"
        },
        {
          "internalType": "address",
          "name": "operator",
          "type": "address"
        }
      ],
      "name": "isApprovedForAll",
      "outputs": [
        {
          "internalType": "bool",
          "name": "",
          "type": "bool"
        }
      ],
      "stateMutability": "view",
      "type": "function"
    },
    {
      "inputs": [],
      "name": "name",
      "outputs": [
        {
          "internalType": "string",
          "name": "",
          "type": "string"
        }
      ],
      "stateMutability": "view",
      "type": "function"
    },
    {
      "inputs": [],
      "name": "owner",
      "outputs": [
        {
          "internalType": "address",
          "name": "",
          "type": "address"
        }
      ],
      "stateMutability": "view",
      "type": "function"
    },
    {
      "inputs": [
        {
          "internalType": "uint256",
          "name": "",
          "type": "uint256"
        }
      ],
      "name": "playerToAmount",
      "outputs": [
        {
          "internalType": "uint256",
          "name": "",
          "type": "uint256"
        }
      ],
      "stateMutability": "view",
      "type": "function"
    },
    {
      "inputs": [
        {
          "internalType": "uint256",
          "name": "",
          "type": "uint256"
        }
      ],
      "name": "playerToDealer",
      "outputs": [
        {
          "internalType": "uint256",
          "name": "",
          "type": "uint256"
        }
      ],
      "stateMutability": "view",
      "type": "function"
    },
    {
      "inputs": [
        {
          "internalType": "uint256",
          "name": "",
          "type": "uint256"
        }
      ],
      "name": "playerToPool",
      "outputs": [
        {
          "internalType": "address",
          "name": "",
          "type": "address"
        }
      ],
      "stateMutability": "view",
      "type": "function"
    },
    {
      "inputs": [
        {
          "internalType": "uint256",
          "name": "",
          "type": "uint256"
        }
      ],
      "name": "playerToSupply",
      "outputs": [
        {
          "internalType": "int256",
          "name": "",
          "type": "int256"
        }
      ],
      "stateMutability": "view",
      "type": "function"
    },
    {
      "inputs": [
        {
          "internalType": "uint256",
          "name": "idex",
          "type": "uint256"
        }
      ],
      "name": "publicMint",
      "outputs": [],
      "stateMutability": "nonpayable",
      "type": "function"
    },
    {
      "inputs": [],
      "name": "renounceOwnership",
      "outputs": [],
      "stateMutability": "nonpayable",
      "type": "function"
    },
    {
      "inputs": [
        {
          "internalType": "address",
          "name": "from",
          "type": "address"
        },
        {
          "internalType": "address",
          "name": "to",
          "type": "address"
        },
        {
          "internalType": "uint256[]",
          "name": "ids",
          "type": "uint256[]"
        },
        {
          "internalType": "uint256[]",
          "name": "amounts",
          "type": "uint256[]"
        },
        {
          "internalType": "bytes",
          "name": "data",
          "type": "bytes"
        }
      ],
      "name": "safeBatchTransferFrom",
      "outputs": [],
      "stateMutability": "nonpayable",
      "type": "function"
    },
    {
      "inputs": [
        {
          "internalType": "address",
          "name": "from",
          "type": "address"
        },
        {
          "internalType": "address",
          "name": "to",
          "type": "address"
        },
        {
          "internalType": "uint256",
          "name": "id",
          "type": "uint256"
        },
        {
          "internalType": "uint256",
          "name": "amount",
          "type": "uint256"
        },
        {
          "internalType": "bytes",
          "name": "data",
          "type": "bytes"
        }
      ],
      "name": "safeTransferFrom",
      "outputs": [],
      "stateMutability": "nonpayable",
      "type": "function"
    },
    {
      "inputs": [
        {
          "internalType": "address",
          "name": "operator",
          "type": "address"
        },
        {
          "internalType": "bool",
          "name": "approved",
          "type": "bool"
        }
      ],
      "name": "setApprovalForAll",
      "outputs": [],
      "stateMutability": "nonpayable",
      "type": "function"
    },
    {
      "inputs": [
        {
          "internalType": "string",
          "name": "baseUri",
          "type": "string"
        }
      ],
      "name": "setBaseURI",
      "outputs": [],
      "stateMutability": "nonpayable",
      "type": "function"
    },
    {
      "inputs": [
        {
          "internalType": "address",
          "name": "dealer_",
          "type": "address"
        }
      ],
      "name": "setDealer",
      "outputs": [],
      "stateMutability": "nonpayable",
      "type": "function"
    },
    {
      "inputs": [
        {
          "internalType": "bytes4",
          "name": "interfaceId",
          "type": "bytes4"
        }
      ],
      "name": "supportsInterface",
      "outputs": [
        {
          "internalType": "bool",
          "name": "",
          "type": "bool"
        }
      ],
      "stateMutability": "view",
      "type": "function"
    },
    {
      "inputs": [],
      "name": "symbol",
      "outputs": [
        {
          "internalType": "string",
          "name": "",
          "type": "string"
        }
      ],
      "stateMutability": "view",
      "type": "function"
    },
    {
      "inputs": [
        {
          "internalType": "uint256",
          "name": "id",
          "type": "uint256"
        }
      ],
      "name": "totalSupply",
      "outputs": [
        {
          "internalType": "int256",
          "name": "",
          "type": "int256"
        }
      ],
      "stateMutability": "view",
      "type": "function"
    },
    {
      "inputs": [
        {
          "internalType": "uint256[]",
          "name": "ids",
          "type": "uint256[]"
        }
      ],
      "name": "totalSupplyBatch",
      "outputs": [
        {
          "internalType": "int256[]",
          "name": "",
          "type": "int256[]"
        }
      ],
      "stateMutability": "view",
      "type": "function"
    },
    {
      "inputs": [
        {
          "internalType": "address",
          "name": "newOwner",
          "type": "address"
        }
      ],
      "name": "transferOwnership",
      "outputs": [],
      "stateMutability": "nonpayable",
      "type": "function"
    },
    {
      "inputs": [
        {
          "internalType": "uint256",
          "name": "id",
          "type": "uint256"
        }
      ],
      "name": "uri",
      "outputs": [
        {
          "internalType": "string",
          "name": "",
          "type": "string"
        }
      ],
      "stateMutability": "view",
      "type": "function"
    }
  ],
  "bytecode": "0x608060405260006007553480156200001657600080fd5b50604051620025e0380380620025e0833981016040819052620000399162000257565b8062000045816200008f565b506200005a62000054620000a8565b620000ac565b82516200006f906005906020860190620000fe565b50815162000085906006906020850190620000fe565b5050505062000337565b8051620000a4906002906020840190620000fe565b5050565b3390565b600380546001600160a01b038381166001600160a01b0319831681179093556040519116919082907f8be0079c531659141344cd1fd0a4f28419497f9722a3daafe3b4186f6b6457e090600090a35050565b8280546200010c90620002e4565b90600052602060002090601f0160209004810192826200013057600085556200017b565b82601f106200014b57805160ff19168380011785556200017b565b828001600101855582156200017b579182015b828111156200017b5782518255916020019190600101906200015e565b50620001899291506200018d565b5090565b5b808211156200018957600081556001016200018e565b600082601f830112620001b5578081fd5b81516001600160401b0380821115620001d257620001d262000321565b604051601f8301601f19908116603f01168101908282118183101715620001fd57620001fd62000321565b8160405283815260209250868385880101111562000219578485fd5b8491505b838210156200023c57858201830151818301840152908201906200021d565b838211156200024d57848385830101525b9695505050505050565b6000806000606084860312156200026c578283fd5b83516001600160401b038082111562000283578485fd5b6200029187838801620001a4565b94506020860151915080821115620002a7578384fd5b620002b587838801620001a4565b93506040860151915080821115620002cb578283fd5b50620002da86828701620001a4565b9150509250925092565b600281046001821680620002f957607f821691505b602082108114156200031b57634e487b7160e01b600052602260045260246000fd5b50919050565b634e487b7160e01b600052604160045260246000fd5b61229980620003476000396000f3fe608060405234801561001057600080fd5b506004361061018d5760003560e01c806377954ac2116100de578063bd85b03911610097578063d42e3cc711610071578063d42e3cc71461034b578063e985e9c51461035e578063f242432a14610371578063f2fde38b1461037f5761018d565b8063bd85b03914610312578063be8544c514610325578063c9d9c3bd146103385761018d565b806377954ac2146102a75780638da5cb5b146102c757806395d89b41146102dc5780639de2ee21146102e4578063a22cb465146102ec578063a9a2b82f146102ff5761018d565b80632db115441161014b57806355f804b31161012557806355f804b314610266578063601c676914610279578063715018a61461028c5780637312895e146102945761018d565b80632db11544146102205780632eb2c2d6146102335780634e1273f4146102465761018d565b8062fdd58e1461019257806301ffc9a7146101bb57806306fdde03146101db5780630e89341c146101f05780631e665f32146102035780632986c0e514610218575b600080fd5b6101a56101a0366004611878565b610392565b6040516101b29190611c85565b60405180910390f35b6101ce6101c93660046119b1565b6103e9565b6040516101b29190611c7a565b6101e3610431565b6040516101b29190611c8e565b6101e36101fe366004611a36565b6104bf565b6102166102113660046116eb565b61051e565b005b6101a5610548565b61021661022e366004611a36565b61054e565b610216610241366004611737565b610694565b6102596102543660046118a1565b6106ac565b6040516101b29190611c39565b6102166102743660046119e9565b6107cb565b610216610287366004611901565b6107df565b610216610985565b6101a56102a2366004611a36565b610999565b6102ba6102b5366004611943565b6109ab565b6040516101b29190611bf5565b6102cf610a83565b6040516101b29190611b3e565b6101e3610a93565b6102cf610aa0565b6102166102fa36600461183e565b610aaf565b6101a561030d366004611a36565b610ac5565b6101a5610320366004611a36565b610ad7565b6102cf610333366004611a36565b610ae9565b6101a5610346366004611a36565b610b04565b6101a5610359366004611a4e565b610b16565b6101ce61036c366004611705565b610c20565b6102166102413660046117dc565b61021661038d3660046116eb565b610c4e565b60006001600160a01b0383166103c35760405162461bcd60e51b81526004016103ba90611d7c565b60405180910390fd5b506000908152602081815260408083206001600160a01b03949094168352929052205490565b60006001600160e01b03198216636cdb3d1360e11b148061041a57506001600160e01b031982166303a24d0760e21b145b80610429575061042982610c85565b90505b919050565b6005805461043e906120f7565b80601f016020809104026020016040519081016040528092919081815260200182805461046a906120f7565b80156104b75780601f1061048c576101008083540402835291602001916104b7565b820191906000526020600020905b81548152906001019060200180831161049a57829003601f168201915b505050505081565b606060006104cc83610c9e565b905060008151116104ec5760405180602001604052806000815250610517565b806104f684610d32565b604051602001610507929190611b0f565b6040516020818303038152906040525b9392505050565b610526610dd4565b600480546001600160a01b0319166001600160a01b0392909216919091179055565b60075481565b60008181526009602090815260409182902054825163056ce82960e11b815292516001600160a01b0390911692630ad9d052926004808301939192829003018186803b15801561059d57600080fd5b505afa1580156105b1573d6000803e3d6000fd5b505050506040513d601f19601f820116820180604052508101906105d59190611a88565b60ff166002146105f75760405162461bcd60e51b81526004016103ba90611dfb565b6106133382600160405180602001604052806000815250610e13565b6060338160008151811061063757634e487b7160e01b600052603260045260246000fd5b60200260200101906001600160a01b031690816001600160a01b0316815250507f22d71287e8162390aa55fb951be1d54701154fb4f9536659eb96157ad34fe8248282604051610688929190612035565b60405180910390a15050565b60405162461bcd60e51b81526004016103ba90611dc6565b606081518351146106cf5760405162461bcd60e51b81526004016103ba90611f12565b600083516001600160401b038111156106f857634e487b7160e01b600052604160045260246000fd5b604051908082528060200260200182016040528015610721578160200160208202803683370190505b50905060005b84518110156107c35761078885828151811061075357634e487b7160e01b600052603260045260246000fd5b602002602001015185838151811061077b57634e487b7160e01b600052603260045260246000fd5b6020026020010151610392565b8282815181106107a857634e487b7160e01b600052603260045260246000fd5b60209081029190910101526107bc8161215e565b9050610727565b509392505050565b6107d3610dd4565b6107dc8161109f565b50565b6004546001600160a01b031633146108095760405162461bcd60e51b81526004016103ba90611e26565b6000818152600a6020526040812054136108355760405162461bcd60e51b81526004016103ba90611ca1565b6000818152600a60209081526040808320548551600b90935292205461085b91906120af565b13156108795760405162461bcd60e51b81526004016103ba90611d15565b81516000828152600b602052604090205461089491906120af565b6000828152600b60205260408120919091555b8251811015610953576108e18382815181106108d357634e487b7160e01b600052603260045260246000fd5b602002602001015183610392565b156108fe5760405162461bcd60e51b81526004016103ba90611ff0565b61094183828151811061092157634e487b7160e01b600052603260045260246000fd5b602002602001015183600160405180602001604052806000815250610e13565b8061094b8161215e565b9150506108a7565b507f22d71287e8162390aa55fb951be1d54701154fb4f9536659eb96157ad34fe8248183604051610688929190612035565b61098d610dd4565b61099760006110b2565b565b600a6020526000908152604090205481565b60606000826001600160401b038111156109d557634e487b7160e01b600052604160045260246000fd5b6040519080825280602002602001820160405280156109fe578160200160208202803683370190505b50905060005b838110156107c357600a6000868684818110610a3057634e487b7160e01b600052603260045260246000fd5b90506020020135815260200190815260200160002054828281518110610a6657634e487b7160e01b600052603260045260246000fd5b602090810291909101015280610a7b8161215e565b915050610a04565b6003546001600160a01b03165b90565b6006805461043e906120f7565b6004546001600160a01b031681565b610ac1610aba611104565b8383611108565b5050565b60086020526000908152604090205481565b6000908152600a602052604090205490565b6009602052600090815260409020546001600160a01b031681565b600b6020526000908152604090205481565b6004546000906001600160a01b03163314610b435760405162461bcd60e51b81526004016103ba90611e26565b60078054906000610b538361215e565b909155505060075460009081526008602052604090208590556001821415610b90576007546000908152600a602052604090206000199055610bae565b8160021415610bae576007546000908152600a602052604090208390555b600780546000908152600960205260409081902080546001600160a01b0319166001600160a01b038816179055905490517f6c9a86a52fcf0188bd47ea4c84c286e4356fae2da6a8632093807ec5b5ed987191610c0c91879061201e565b60405180910390a150600754949350505050565b6001600160a01b03918216600090815260016020908152604080832093909416825291909152205460ff1690565b610c56610dd4565b6001600160a01b038116610c7c5760405162461bcd60e51b81526004016103ba90611d36565b6107dc816110b2565b6001600160e01b031981166301ffc9a760e01b14919050565b606060028054610cad906120f7565b80601f0160208091040260200160405190810160405280929190818152602001828054610cd9906120f7565b8015610d265780601f10610cfb57610100808354040283529160200191610d26565b820191906000526020600020905b815481529060010190602001808311610d0957829003601f168201915b50505050509050919050565b60606000610d3f836111ab565b60010190506000816001600160401b03811115610d6c57634e487b7160e01b600052604160045260246000fd5b6040519080825280601f01601f191660200182016040528015610d96576020820181803683370190505b5090508181016020015b600019016f181899199a1a9b1b9c1cb0b131b232b360811b600a86061a8153600a8504945084610dcf576107c3565b610da0565b610ddc611104565b6001600160a01b0316610ded610a83565b6001600160a01b0316146109975760405162461bcd60e51b81526004016103ba90611e94565b6001600160a01b038416610e395760405162461bcd60e51b81526004016103ba90611f5b565b6000610e43611104565b90506000610e5085611283565b90506000610e5d85611283565b9050610e6e83600089858589611097565b6000868152602081815260408083206001600160a01b038b16845290915281208054879290610e9e9084906120af565b92505081905550866001600160a01b031660006001600160a01b0316846001600160a01b03167fc3d58168c5ae7397731d063d5bbf3d657854427343f4c083240f7aacaa2d0f628989604051610ef592919061207e565b60405180910390a4610f0c83600089858589611097565b610f1b836000898989896112dc565b50505050505050565b8451811015611023576000858281518110610f4f57634e487b7160e01b600052603260045260246000fd5b602002602001015190506000858381518110610f7b57634e487b7160e01b600052603260045260246000fd5b602090810291909101810151600084815280835260408082206001600160a01b038e168352909352919091205490915081811015610fcb5760405162461bcd60e51b81526004016103ba90611e4a565b6000838152602081815260408083206001600160a01b038e8116855292528083208585039055908b168252812080548492906110089084906120af565b925050819055505050508061101c9061215e565b9050610f24565b50846001600160a01b0316866001600160a01b0316826001600160a01b03167f4a39dc06d4c0dbc64b70af90fd698a233a518aa5d07e595d983b8c0526c8f7fb8787604051611073929190611c4c565b60405180910390a4611089818787878787611097565b611097818787878787611401565b505050505050565b8051610ac19060029060208401906114e1565b600380546001600160a01b038381166001600160a01b0319831681179093556040519116919082907f8be0079c531659141344cd1fd0a4f28419497f9722a3daafe3b4186f6b6457e090600090a35050565b3390565b816001600160a01b0316836001600160a01b0316141561113a5760405162461bcd60e51b81526004016103ba90611ec9565b6001600160a01b0383811660008181526001602090815260408083209487168084529490915290819020805460ff1916851515179055517f17307eab39ab6107e8899845ad3d59bd9653f200f220920489ca2b5937696c319061119e908590611c7a565b60405180910390a3505050565b60008072184f03e93ff9f4daa797ed6e38ed64bf6a1f0160401b83106111ea5772184f03e93ff9f4daa797ed6e38ed64bf6a1f0160401b830492506040015b6d04ee2d6d415b85acef81000000008310611216576d04ee2d6d415b85acef8100000000830492506020015b662386f26fc10000831061123457662386f26fc10000830492506010015b6305f5e100831061124c576305f5e100830492506008015b612710831061126057612710830492506004015b60648310611272576064830492506002015b600a83106104295760010192915050565b604080516001808252818301909252606091600091906020808301908036833701905050905082816000815181106112cb57634e487b7160e01b600052603260045260246000fd5b602090810291909101015292915050565b6112ee846001600160a01b03166114d2565b156110975760405163f23a6e6160e01b81526001600160a01b0385169063f23a6e61906113279089908990889088908890600401611bb0565b602060405180830381600087803b15801561134157600080fd5b505af1925050508015611371575060408051601f3d908101601f1916820190925261136e918101906119cd565b60015b6113d15761137d6121a5565b806308c379a014156113b757506113926121bc565b8061139d57506113b9565b8060405162461bcd60e51b81526004016103ba9190611c8e565b505b60405162461bcd60e51b81526004016103ba90611f9c565b6001600160e01b0319811663f23a6e6160e01b14610f1b5760405162461bcd60e51b81526004016103ba90611ccd565b611413846001600160a01b03166114d2565b156110975760405163bc197c8160e01b81526001600160a01b0385169063bc197c819061144c9089908990889088908890600401611b52565b602060405180830381600087803b15801561146657600080fd5b505af1925050508015611496575060408051601f3d908101601f19168201909252611493918101906119cd565b60015b6114a25761137d6121a5565b6001600160e01b0319811663bc197c8160e01b14610f1b5760405162461bcd60e51b81526004016103ba90611ccd565b6001600160a01b03163b151590565b8280546114ed906120f7565b90600052602060002090601f01602090048101928261150f5760008555611555565b82601f1061152857805160ff1916838001178555611555565b82800160010185558215611555579182015b8281111561155557825182559160200191906001019061153a565b50611561929150611565565b5090565b5b808211156115615760008155600101611566565b60006001600160401b038311156115935761159361218f565b6040516115aa601f8501601f191660200182612132565b8091508381528484840111156115bf57600080fd5b83836020830137600060208583010152509392505050565b80356001600160a01b038116811461042c57600080fd5b600082601f8301126115fe578081fd5b8135602061160b8261208c565b6040516116188282612132565b838152828101915085830183850287018401881015611635578586fd5b855b8581101561165a57611648826115d7565b84529284019290840190600101611637565b5090979650505050505050565b600082601f830112611677578081fd5b813560206116848261208c565b6040516116918282612132565b8381528281019150858301838502870184018810156116ae578586fd5b855b8581101561165a578135845292840192908401906001016116b0565b600082601f8301126116dc578081fd5b6105178383356020850161157a565b6000602082840312156116fc578081fd5b610517826115d7565b60008060408385031215611717578081fd5b611720836115d7565b915061172e602084016115d7565b90509250929050565b600080600080600060a0868803121561174e578081fd5b611757866115d7565b9450611765602087016115d7565b935060408601356001600160401b0380821115611780578283fd5b61178c89838a01611667565b945060608801359150808211156117a1578283fd5b6117ad89838a01611667565b935060808801359150808211156117c2578283fd5b506117cf888289016116cc565b9150509295509295909350565b600080600080600060a086880312156117f3578081fd5b6117fc866115d7565b945061180a602087016115d7565b9350604086013592506060860135915060808601356001600160401b03811115611832578182fd5b6117cf888289016116cc565b60008060408385031215611850578182fd5b611859836115d7565b91506020830135801515811461186d578182fd5b809150509250929050565b6000806040838503121561188a578182fd5b611893836115d7565b946020939093013593505050565b600080604083850312156118b3578081fd5b82356001600160401b03808211156118c9578283fd5b6118d5868387016115ee565b935060208501359150808211156118ea578283fd5b506118f785828601611667565b9150509250929050565b60008060408385031215611913578182fd5b82356001600160401b03811115611928578283fd5b611934858286016115ee565b95602094909401359450505050565b60008060208385031215611955578182fd5b82356001600160401b038082111561196b578384fd5b818501915085601f83011261197e578384fd5b81358181111561198c578485fd5b866020808302850101111561199f578485fd5b60209290920196919550909350505050565b6000602082840312156119c2578081fd5b81356105178161224d565b6000602082840312156119de578081fd5b81516105178161224d565b6000602082840312156119fa578081fd5b81356001600160401b03811115611a0f578182fd5b8201601f81018413611a1f578182fd5b611a2e8482356020840161157a565b949350505050565b600060208284031215611a47578081fd5b5035919050565b60008060008060808587031215611a63578182fd5b84359350611a73602086016115d7565b93969395505050506040820135916060013590565b600060208284031215611a99578081fd5b815160ff81168114610517578182fd5b6000815180845260208085019450808401835b83811015611ad857815187529582019590820190600101611abc565b509495945050505050565b60008151808452611afb8160208601602086016120c7565b601f01601f19169290920160200192915050565b60008351611b218184602088016120c7565b835190830190611b358183602088016120c7565b01949350505050565b6001600160a01b0391909116815260200190565b6001600160a01b0386811682528516602082015260a060408201819052600090611b7e90830186611aa9565b8281036060840152611b908186611aa9565b90508281036080840152611ba48185611ae3565b98975050505050505050565b6001600160a01b03868116825285166020820152604081018490526060810183905260a060808201819052600090611bea90830184611ae3565b979650505050505050565b6020808252825182820181905260009190848201906040850190845b81811015611c2d57835183529284019291840191600101611c11565b50909695505050505050565b6000602082526105176020830184611aa9565b600060408252611c5f6040830185611aa9565b8281036020840152611c718185611aa9565b95945050505050565b901515815260200190565b90815260200190565b6000602082526105176020830184611ae3565b6020808252601290820152716d6f64656c3a206e6f74207072697661746560701b604082015260600190565b60208082526028908201527f455243313135353a204552433131353552656365697665722072656a656374656040820152676420746f6b656e7360c01b606082015260800190565b602080825260079082015266537570706c792160c81b604082015260600190565b60208082526026908201527f4f776e61626c653a206e6577206f776e657220697320746865207a65726f206160408201526564647265737360d01b606082015260800190565b6020808252602a908201527f455243313135353a2061646472657373207a65726f206973206e6f742061207660408201526930b634b21037bbb732b960b11b606082015260800190565b6020808252818101527f455243313135353a20706c617965722063616e206e6f74207472616e73666572604082015260600190565b6020808252601190820152706d6f64656c3a206e6f74207075626c696360781b604082015260600190565b6020808252600a90820152693737ba102232b0b632b960b11b604082015260600190565b6020808252602a908201527f455243313135353a20696e73756666696369656e742062616c616e636520666f60408201526939103a3930b739b332b960b11b606082015260800190565b6020808252818101527f4f776e61626c653a2063616c6c6572206973206e6f7420746865206f776e6572604082015260600190565b60208082526029908201527f455243313135353a2073657474696e6720617070726f76616c20737461747573604082015268103337b91039b2b63360b91b606082015260800190565b60208082526029908201527f455243313135353a206163636f756e747320616e6420696473206c656e677468604082015268040dad2e6dac2e8c6d60bb1b606082015260800190565b60208082526021908201527f455243313135353a206d696e7420746f20746865207a65726f206164647265736040820152607360f81b606082015260800190565b60208082526034908201527f455243313135353a207472616e7366657220746f206e6f6e2d455243313135356040820152732932b1b2b4bb32b91034b6b83632b6b2b73a32b960611b606082015260800190565b6020808252601490820152733cb7ba903430bb32903132b2b710383630bcb2b960611b604082015260600190565b9182526001600160a01b0316602082015260400190565b60006040820184835260206040818501528185518084526060860191508287019350845b8181101561165a5784516001600160a01b031683529383019391830191600101612059565b918252602082015260400190565b60006001600160401b038211156120a5576120a561218f565b5060209081020190565b600082198211156120c2576120c2612179565b500190565b60005b838110156120e25781810151838201526020016120ca565b838111156120f1576000848401525b50505050565b60028104600182168061210b57607f821691505b6020821081141561212c57634e487b7160e01b600052602260045260246000fd5b50919050565b601f8201601f191681016001600160401b03811182821017156121575761215761218f565b6040525050565b600060001982141561217257612172612179565b5060010190565b634e487b7160e01b600052601160045260246000fd5b634e487b7160e01b600052604160045260246000fd5b600060033d1115610a9057600481823e5160e01c90565b600060443d10156121cc57610a90565b6040516003193d81016004833e81513d6001600160401b0381602484011181841117156121fd575050505050610a90565b828501915081518181111561221757505050505050610a90565b843d870101602082850101111561223357505050505050610a90565b61224260208286010187612132565b509094505050505090565b6001600160e01b0319811681146107dc57600080fdfea26469706673582212204f50a238c534175044a8971368134c0270f30f86d3bd1173aef43890e4d897a864736f6c63430008010033",
  "linkReferences": {},
  "deployedLinkReferences": {}
}