{
  "_format": "hh-sol-artifact-1",
  "contractName": "Pool",
  "sourceName": "contracts/Pool.sol",
  "abi": [
    {
      "inputs": [
        {
          "internalType": "address",
          "name": "payToken_",
          "type": "address"
        },
        {
          "internalType": "address",
          "name": "oracle_",
          "type": "address"
        },
        {
          "internalType": "bool",
          "name": "reverse_",
          "type": "bool"
        },
        {
          "internalType": "uint8",
          "name": "typ",
          "type": "uint8"
        },
        {
          "internalType": "uint256",
          "name": "id_",
          "type": "uint256"
        },
        {
          "internalType": "address",
          "name": "dealer_",
          "type": "address"
        },
        {
          "internalType": "address",
          "name": "player_",
          "type": "address"
        }
      ],
      "stateMutability": "nonpayable",
      "type": "constructor"
    },
    {
      "anonymous": false,
      "inputs": [
        {
          "indexed": false,
          "internalType": "uint16",
          "name": "level",
          "type": "uint16"
        }
      ],
      "name": "AddLevel",
      "type": "event"
    },
    {
      "anonymous": false,
      "inputs": [
        {
          "indexed": false,
          "internalType": "uint32",
          "name": "index",
          "type": "uint32"
        },
        {
          "indexed": false,
          "internalType": "address",
          "name": "user",
          "type": "address"
        },
        {
          "indexed": false,
          "internalType": "uint256",
          "name": "receiveLp",
          "type": "uint256"
        },
        {
          "indexed": false,
          "internalType": "uint256",
          "name": "receivePosition",
          "type": "uint256"
        },
        {
          "indexed": false,
          "internalType": "uint256",
          "name": "closePrice",
          "type": "uint256"
        },
        {
          "indexed": false,
          "internalType": "uint256",
          "name": "protocolFee",
          "type": "uint256"
        }
      ],
      "name": "Close",
      "type": "event"
    },
    {
      "anonymous": false,
      "inputs": [
        {
          "indexed": false,
          "internalType": "uint256",
          "name": "deadline",
          "type": "uint256"
        }
      ],
      "name": "Deadline",
      "type": "event"
    },
    {
      "anonymous": false,
      "inputs": [
        {
          "indexed": false,
          "internalType": "uint32",
          "name": "index",
          "type": "uint32"
        },
        {
          "indexed": false,
          "internalType": "address",
          "name": "liquidator",
          "type": "address"
        },
        {
          "indexed": false,
          "internalType": "uint256",
          "name": "receiveLp",
          "type": "uint256"
        },
        {
          "indexed": false,
          "internalType": "uint256",
          "name": "receivePosition",
          "type": "uint256"
        },
        {
          "indexed": false,
          "internalType": "uint256",
          "name": "liqPrice",
          "type": "uint256"
        },
        {
          "indexed": false,
          "internalType": "uint256",
          "name": "protocolFee",
          "type": "uint256"
        }
      ],
      "name": "Liquidate",
      "type": "event"
    },
    {
      "anonymous": false,
      "inputs": [
        {
          "indexed": false,
          "internalType": "uint32",
          "name": "index",
          "type": "uint32"
        },
        {
          "indexed": false,
          "internalType": "address",
          "name": "user",
          "type": "address"
        },
        {
          "indexed": false,
          "internalType": "uint256",
          "name": "margin",
          "type": "uint256"
        },
        {
          "indexed": false,
          "internalType": "uint256",
          "name": "lp",
          "type": "uint256"
        },
        {
          "indexed": false,
          "internalType": "uint256",
          "name": "openPrice",
          "type": "uint256"
        },
        {
          "indexed": false,
          "internalType": "int16",
          "name": "level",
          "type": "int16"
        }
      ],
      "name": "Open",
      "type": "event"
    },
    {
      "anonymous": false,
      "inputs": [
        {
          "indexed": true,
          "internalType": "address",
          "name": "previousOwner",
          "type": "address"
        },
        {
          "indexed": true,
          "internalType": "address",
          "name": "newOwner",
          "type": "address"
        }
      ],
      "name": "OwnershipTransferred",
      "type": "event"
    },
    {
      "anonymous": false,
      "inputs": [
        {
          "indexed": false,
          "internalType": "uint256",
          "name": "price",
          "type": "uint256"
        },
        {
          "indexed": false,
          "internalType": "uint256",
          "name": "longLp",
          "type": "uint256"
        },
        {
          "indexed": false,
          "internalType": "uint256",
          "name": "shortLp",
          "type": "uint256"
        }
      ],
      "name": "Rebase",
      "type": "event"
    },
    {
      "anonymous": false,
      "inputs": [
        {
          "indexed": false,
          "internalType": "uint16",
          "name": "level",
          "type": "uint16"
        }
      ],
      "name": "RemoveLevel",
      "type": "event"
    },
    {
      "anonymous": false,
      "inputs": [
        {
          "indexed": false,
          "internalType": "uint256",
          "name": "liqProtocolFee",
          "type": "uint256"
        }
      ],
      "name": "SetLiqProtocolFee",
      "type": "event"
    },
    {
      "anonymous": false,
      "inputs": [
        {
          "indexed": false,
          "internalType": "uint256",
          "name": "marginRatio",
          "type": "uint256"
        }
      ],
      "name": "SetMarginRatio",
      "type": "event"
    },
    {
      "anonymous": false,
      "inputs": [
        {
          "indexed": false,
          "internalType": "uint256",
          "name": "protocolFee",
          "type": "uint256"
        }
      ],
      "name": "SetProtocolFee",
      "type": "event"
    },
    {
      "inputs": [
        {
          "internalType": "uint16",
          "name": "level",
          "type": "uint16"
        }
      ],
      "name": "addLevel",
      "outputs": [],
      "stateMutability": "nonpayable",
      "type": "function"
    },
    {
      "inputs": [],
      "name": "beginPrice",
      "outputs": [
        {
          "internalType": "uint256",
          "name": "",
          "type": "uint256"
        }
      ],
      "stateMutability": "view",
      "type": "function"
    },
    {
      "inputs": [
        {
          "internalType": "uint32",
          "name": "index",
          "type": "uint32"
        },
        {
          "internalType": "address",
          "name": "user",
          "type": "address"
        },
        {
          "internalType": "address",
          "name": "receipt",
          "type": "address"
        }
      ],
      "name": "close",
      "outputs": [],
      "stateMutability": "nonpayable",
      "type": "function"
    },
    {
      "inputs": [],
      "name": "deadLine",
      "outputs": [
        {
          "internalType": "uint256",
          "name": "",
          "type": "uint256"
        }
      ],
      "stateMutability": "view",
      "type": "function"
    },
    {
      "inputs": [],
      "name": "dealer",
      "outputs": [
        {
          "internalType": "address",
          "name": "",
          "type": "address"
        }
      ],
      "stateMutability": "view",
      "type": "function"
    },
    {
      "inputs": [],
      "name": "endPrice",
      "outputs": [
        {
          "internalType": "uint256",
          "name": "",
          "type": "uint256"
        }
      ],
      "stateMutability": "view",
      "type": "function"
    },
    {
      "inputs": [],
      "name": "getPoolType",
      "outputs": [
        {
          "internalType": "bool",
          "name": "",
          "type": "bool"
        }
      ],
      "stateMutability": "nonpayable",
      "type": "function"
    },
    {
      "inputs": [],
      "name": "getPrice",
      "outputs": [
        {
          "internalType": "uint256",
          "name": "",
          "type": "uint256"
        }
      ],
      "stateMutability": "view",
      "type": "function"
    },
    {
      "inputs": [],
      "name": "getPriceAddress",
      "outputs": [
        {
          "internalType": "address",
          "name": "",
          "type": "address"
        }
      ],
      "stateMutability": "view",
      "type": "function"
    },
    {
      "inputs": [],
      "name": "id",
      "outputs": [
        {
          "internalType": "uint256",
          "name": "",
          "type": "uint256"
        }
      ],
      "stateMutability": "view",
      "type": "function"
    },
    {
      "inputs": [],
      "name": "index",
      "outputs": [
        {
          "internalType": "uint32",
          "name": "",
          "type": "uint32"
        }
      ],
      "stateMutability": "view",
      "type": "function"
    },
    {
      "inputs": [],
      "name": "lastPrice",
      "outputs": [
        {
          "internalType": "uint256",
          "name": "",
          "type": "uint256"
        }
      ],
      "stateMutability": "view",
      "type": "function"
    },
    {
      "inputs": [
        {
          "internalType": "int16",
          "name": "",
          "type": "int16"
        }
      ],
      "name": "levels",
      "outputs": [
        {
          "internalType": "bool",
          "name": "",
          "type": "bool"
        }
      ],
      "stateMutability": "view",
      "type": "function"
    },
    {
      "inputs": [
        {
          "internalType": "uint32",
          "name": "index",
          "type": "uint32"
        }
      ],
      "name": "liqPrice",
      "outputs": [
        {
          "internalType": "uint256",
          "name": "",
          "type": "uint256"
        }
      ],
      "stateMutability": "view",
      "type": "function"
    },
    {
      "inputs": [],
      "name": "liqProtocolFee",
      "outputs": [
        {
          "internalType": "uint256",
          "name": "",
          "type": "uint256"
        }
      ],
      "stateMutability": "view",
      "type": "function"
    },
    {
      "inputs": [
        {
          "internalType": "address",
          "name": "user",
          "type": "address"
        },
        {
          "internalType": "uint32",
          "name": "index",
          "type": "uint32"
        },
        {
          "internalType": "address",
          "name": "receipt",
          "type": "address"
        }
      ],
      "name": "liquidate",
      "outputs": [],
      "stateMutability": "nonpayable",
      "type": "function"
    },
    {
      "inputs": [],
      "name": "lpPrice",
      "outputs": [
        {
          "internalType": "uint256",
          "name": "",
          "type": "uint256"
        }
      ],
      "stateMutability": "view",
      "type": "function"
    },
    {
      "inputs": [],
      "name": "marginRatio",
      "outputs": [
        {
          "internalType": "uint256",
          "name": "",
          "type": "uint256"
        }
      ],
      "stateMutability": "view",
      "type": "function"
    },
    {
      "inputs": [],
      "name": "mergedLong",
      "outputs": [
        {
          "internalType": "uint256",
          "name": "asset",
          "type": "uint256"
        },
        {
          "internalType": "uint256",
          "name": "lp",
          "type": "uint256"
        },
        {
          "internalType": "uint256",
          "name": "openPrice",
          "type": "uint256"
        },
        {
          "internalType": "uint256",
          "name": "openLp",
          "type": "uint256"
        }
      ],
      "stateMutability": "view",
      "type": "function"
    },
    {
      "inputs": [],
      "name": "mergedShort",
      "outputs": [
        {
          "internalType": "uint256",
          "name": "asset",
          "type": "uint256"
        },
        {
          "internalType": "uint256",
          "name": "fakeLp",
          "type": "uint256"
        },
        {
          "internalType": "uint256",
          "name": "lp",
          "type": "uint256"
        },
        {
          "internalType": "uint256",
          "name": "openPrice",
          "type": "uint256"
        },
        {
          "internalType": "uint256",
          "name": "openLp",
          "type": "uint256"
        }
      ],
      "stateMutability": "view",
      "type": "function"
    },
    {
      "inputs": [
        {
          "internalType": "address",
          "name": "user",
          "type": "address"
        },
        {
          "internalType": "uint256",
          "name": "deadLine_",
          "type": "uint256"
        }
      ],
      "name": "open",
      "outputs": [],
      "stateMutability": "nonpayable",
      "type": "function"
    },
    {
      "inputs": [],
      "name": "owner",
      "outputs": [
        {
          "internalType": "address",
          "name": "",
          "type": "address"
        }
      ],
      "stateMutability": "view",
      "type": "function"
    },
    {
      "inputs": [],
      "name": "payToken",
      "outputs": [
        {
          "internalType": "address",
          "name": "",
          "type": "address"
        }
      ],
      "stateMutability": "view",
      "type": "function"
    },
    {
      "inputs": [],
      "name": "player",
      "outputs": [
        {
          "internalType": "address",
          "name": "",
          "type": "address"
        }
      ],
      "stateMutability": "view",
      "type": "function"
    },
    {
      "inputs": [
        {
          "internalType": "uint32",
          "name": "",
          "type": "uint32"
        }
      ],
      "name": "positions",
      "outputs": [
        {
          "internalType": "address",
          "name": "router",
          "type": "address"
        },
        {
          "internalType": "address",
          "name": "user",
          "type": "address"
        },
        {
          "internalType": "int16",
          "name": "level",
          "type": "int16"
        },
        {
          "internalType": "uint256",
          "name": "asset",
          "type": "uint256"
        },
        {
          "internalType": "uint256",
          "name": "lp",
          "type": "uint256"
        },
        {
          "internalType": "uint256",
          "name": "openPrice",
          "type": "uint256"
        }
      ],
      "stateMutability": "view",
      "type": "function"
    },
    {
      "inputs": [],
      "name": "protocolFee",
      "outputs": [
        {
          "internalType": "uint256",
          "name": "",
          "type": "uint256"
        }
      ],
      "stateMutability": "view",
      "type": "function"
    },
    {
      "inputs": [],
      "name": "protocolReceipt",
      "outputs": [
        {
          "internalType": "address",
          "name": "",
          "type": "address"
        }
      ],
      "stateMutability": "view",
      "type": "function"
    },
    {
      "inputs": [
        {
          "internalType": "uint16",
          "name": "level",
          "type": "uint16"
        }
      ],
      "name": "removeLevel",
      "outputs": [],
      "stateMutability": "nonpayable",
      "type": "function"
    },
    {
      "inputs": [],
      "name": "renounceOwnership",
      "outputs": [],
      "stateMutability": "nonpayable",
      "type": "function"
    },
    {
      "inputs": [],
      "name": "setEndPrice",
      "outputs": [],
      "stateMutability": "nonpayable",
      "type": "function"
    },
    {
      "inputs": [
        {
          "internalType": "uint256",
          "name": "marginRatio_",
          "type": "uint256"
        }
      ],
      "name": "setMarginRatio",
      "outputs": [],
      "stateMutability": "nonpayable",
      "type": "function"
    },
    {
      "inputs": [
        {
          "internalType": "address",
          "name": "protocolReceipt_",
          "type": "address"
        }
      ],
      "name": "setProtocolReceipt",
      "outputs": [],
      "stateMutability": "nonpayable",
      "type": "function"
    },
    {
      "inputs": [
        {
          "internalType": "address",
          "name": "user",
          "type": "address"
        },
        {
          "internalType": "uint256",
          "name": "margin",
          "type": "uint256"
        },
        {
          "internalType": "int16",
          "name": "level",
          "type": "int16"
        }
      ],
      "name": "submit",
      "outputs": [],
      "stateMutability": "nonpayable",
      "type": "function"
    },
    {
      "inputs": [],
      "name": "totalPosition",
      "outputs": [
        {
          "internalType": "uint256",
          "name": "",
          "type": "uint256"
        }
      ],
      "stateMutability": "view",
      "type": "function"
    },
    {
      "inputs": [
        {
          "internalType": "address",
          "name": "newOwner",
          "type": "address"
        }
      ],
      "name": "transferOwnership",
      "outputs": [],
      "stateMutability": "nonpayable",
      "type": "function"
    },
    {
      "inputs": [],
      "name": "waitIndex",
      "outputs": [
        {
          "internalType": "uint32",
          "name": "",
          "type": "uint32"
        }
      ],
      "stateMutability": "view",
      "type": "function"
    },
    {
      "inputs": [
        {
          "internalType": "uint32",
          "name": "",
          "type": "uint32"
        }
      ],
      "name": "waitPositions",
      "outputs": [
        {
          "internalType": "address",
          "name": "router",
          "type": "address"
        },
        {
          "internalType": "address",
          "name": "user",
          "type": "address"
        },
        {
          "internalType": "int16",
          "name": "level",
          "type": "int16"
        },
        {
          "internalType": "uint256",
          "name": "asset",
          "type": "uint256"
        }
      ],
      "stateMutability": "view",
      "type": "function"
    }
  ],
  "bytecode": "0x6080604052600e8054600160a01b600160e01b03191690556000600f553480156200002957600080fd5b50604051620036a0380380620036a08339810160408190526200004c9162000685565b620000606200005a620005f0565b620005f4565b600280546001600160a01b038085166001600160a01b03199283161790925560018054848416908316179055600385905560088054928a1692909116919091179055604080516390666ff960e01b81529051339182916390666ff991600480820192602092909190829003018186803b158015620000dd57600080fd5b505afa158015620000f2573d6000803e3d6000fd5b505050506040513d601f19601f8201168201806040525081019062000118919062000661565b600e80546001600160a01b0319166001600160a01b0392831617908190556040516310cd532560e01b81529116906310cd53259062000160908a9089908b9060040162000736565b600060405180830381600087803b1580156200017b57600080fd5b505af115801562000190573d6000803e3d6000fd5b5050505060405180608001604052806000815260200160008152602001600e60009054906101000a90046001600160a01b03166001600160a01b03166398d5fdca6040518163ffffffff1660e01b815260040160206040518083038186803b158015620001fc57600080fd5b505afa15801562000211573d6000803e3d6000fd5b505050506040513d601f19601f820116820180604052508101906200023791906200071d565b815260006020918201819052825160115582820151601255604080840151601355606093840151601455805160a08101825282815280840183905280820192909252600e548151634c6afee560e11b8152915192948501936001600160a01b03909116926398d5fdca926004808201939291829003018186803b158015620002be57600080fd5b505afa158015620002d3573d6000803e3d6000fd5b505050506040513d601f19601f82011682018060405250810190620002f991906200071d565b8152600060209182015281516015558181015160165560408083015160175560608301516018556080909201516019558151631698e0b760e11b815291516001600160a01b03841692632d31c16e926004828101939192829003018186803b1580156200036557600080fd5b505afa1580156200037a573d6000803e3d6000fd5b505050506040513d601f19601f82011682018060405250810190620003a091906200071d565b600a81905550806001600160a01b031663b0e21e8a6040518163ffffffff1660e01b815260040160206040518083038186803b158015620003e057600080fd5b505afa158015620003f5573d6000803e3d6000fd5b505050506040513d601f19601f820116820180604052508101906200041b91906200071d565b600b81905550806001600160a01b031663ac02c0bd6040518163ffffffff1660e01b815260040160206040518083038186803b1580156200045b57600080fd5b505afa15801562000470573d6000803e3d6000fd5b505050506040513d601f19601f820116820180604052508101906200049691906200071d565b600c81905550806001600160a01b0316633a267ea36040518163ffffffff1660e01b815260040160206040518083038186803b158015620004d657600080fd5b505afa158015620004eb573d6000803e3d6000fd5b505050506040513d601f19601f8201168201806040525081019062000511919062000661565b600d80546001600160a01b0319166001600160a01b0392909216919091179055600a546040517f60e314eb1dcc14680ab3be0aaa5b70ea0d3828f11e6bcb38305fea8bbf2d49cc9162000564916200075c565b60405180910390a17fdc0410a296e1e33943a772020d333d5f99319d7fcad932a484c53889f7aaa2b1600b546040516200059f91906200075c565b60405180910390a17ffec3e2cce26c0fccf827d7f8d326ecb9f37ad07b47912dc290d75e165e8e61ae600c54604051620005da91906200075c565b60405180910390a1505050505050505062000765565b3390565b600080546001600160a01b038381166001600160a01b0319831681178455604051919092169283917f8be0079c531659141344cd1fd0a4f28419497f9722a3daafe3b4186f6b6457e09190a35050565b80516001600160a01b03811681146200065c57600080fd5b919050565b60006020828403121562000673578081fd5b6200067e8262000644565b9392505050565b600080600080600080600060e0888a031215620006a0578283fd5b620006ab8862000644565b9650620006bb6020890162000644565b955060408801518015158114620006d0578384fd5b606089015190955060ff81168114620006e7578384fd5b60808901519094509250620006ff60a0890162000644565b91506200070f60c0890162000644565b905092959891949750929550565b6000602082840312156200072f578081fd5b5051919050565b6001600160a01b0393909316835260ff9190911660208301521515604082015260600190565b90815260200190565b612f2b80620007756000396000f3fe608060405234801561001057600080fd5b50600436106102275760003560e01c80638fd418d311610130578063b868723e116100b8578063da8e1d751161007c578063da8e1d751461040a578063deebe41014610412578063e38fd53114610437578063ebe79a341461044a578063f2fde38b1461045257610227565b8063b868723e146103d7578063b9dcde10146103df578063bef3a083146103e7578063cf9afab5146103ef578063d3ce1c82146103f757610227565b8063ac02c0bd116100ff578063ac02c0bd14610389578063af640d0f14610391578063b0e21e8a14610399578063b22e2b93146103a1578063b6d7a1c9146103c457610227565b80638fd418d31461035957806396336b301461037157806398d5fdca146103795780639de2ee211461038157610227565b80633608cdf8116101b35780635d9e05db116101825780635d9e05db1461030e578063669c636d1461032e57806369145d6e14610336578063715018a6146103495780638da5cb5b1461035157610227565b80633608cdf8146102cb5780633627d0e0146102de5780633a267ea3146102f157806348db5f891461030657610227565b80632843d22d116101fa5780632843d22d1461026f5780632986c0e5146102825780632d1aeb28146102975780632d31c16e146102aa57806335726234146102b257610227565b8063053f14da1461022c5780630a0e5c9d1461024a5780630c2804441461025f57806317fbe35414610267575b600080fd5b610234610465565b6040516102419190612bc3565b60405180910390f35b61025d6102583660046125db565b61046b565b005b6102346106df565b6102346106ef565b61025d61027d366004612731565b6106f5565b61028a610ca5565b6040516102419190612c4d565b61025d6102a5366004612606565b610cb8565b61023461101a565b6102ba611020565b604051610241959493929190612c2a565b6102346102d9366004612717565b611032565b61025d6102ec3660046126c5565b6110d9565b6102f9611171565b604051610241919061277a565b6102f9611180565b61032161031c3660046126ab565b61118f565b604051610241919061280c565b61025d6111a4565b61025d6103443660046125a3565b611239565b61025d611263565b6102f9611277565b610361611286565b6040516102419493929190612c0f565b6102f9611295565b6102346112a4565b6102f9611325565b610234611334565b61023461133a565b610234611340565b6103b46103af366004612717565b611346565b604051610241949392919061278e565b61025d6103d23660046126e7565b611380565b6102346113bd565b6102346113c3565b6102346113c9565b6103216113cf565b61025d610405366004612643565b6113d8565b61028a61190f565b610425610420366004612717565b611922565b604051610241969594939291906127ba565b61025d6104453660046126c5565b61196a565b6102f96119f5565b61025d6104603660046125a3565b611a04565b600f5481565b6002546003546040516331a9108f60e11b815284926001600160a01b0380851693911691636352211e916104a191600401612bc3565b60206040518083038186803b1580156104b957600080fd5b505afa1580156104cd573d6000803e3d6000fd5b505050506040513d601f19601f820116820180604052508101906104f191906125bf565b6001600160a01b0316146105205760405162461bcd60e51b8152600401610517906129d2565b60405180910390fd5b600454156105405760405162461bcd60e51b8152600401610517906128cc565b42821161055f5760405162461bcd60e51b815260040161051790612a94565b600254600354604051630a15c49160e11b81526001600160a01b039092169163142b892291610592918690600401612beb565b600060405180830381600087803b1580156105ac57600080fd5b505af11580156105c0573d6000803e3d6000fd5b506001925050505b600e5463ffffffff600160c01b90910481169082161161063a5763ffffffff81166000908152601a602052604090208054600180830154600290930154610627936001600160a01b0393841693811692600160a01b909104900b611a3e565b508061063281612e70565b9150506105c8565b506002546003546040516338d9f74f60e01b81526001600160a01b03909216916338d9f74f9161066f91600090600401612beb565b600060405180830381600087803b15801561068957600080fd5b505af115801561069d573d6000803e3d6000fd5b505050507f02cd0f962e62be582c42a69232ce8a51199f039c40654f85b95cd182797ab8d66004546040516106d29190612bc3565b60405180910390a1505050565b60006106e9611d69565b90505b90565b60105481565b60015460035460405163b28a0a7f60e01b815284926000926001600160a01b039091169162fdd58e918591849163b28a0a7f916107359190600401612bc3565b60206040518083038186803b15801561074d57600080fd5b505afa158015610761573d6000803e3d6000fd5b505050506040513d601f19601f8201168201806040525081019061078591906126ff565b6040518363ffffffff1660e01b81526004016107a29291906127f3565b60206040518083038186803b1580156107ba57600080fd5b505afa1580156107ce573d6000803e3d6000fd5b505050506040513d601f19601f820116820180604052508101906107f291906126ff565b1161080f5760405162461bcd60e51b815260040161051790612895565b6108176113cf565b156108345760405162461bcd60e51b8152600401610517906128f9565b63ffffffff84166000908152601b6020908152604091829020825160c08101845281546001600160a01b0390811680835260018085015492831695840195909552600160a01b909104840b840b90930b9381019390935260028101546060840152600381015460808401526004015460a083015233146108c65760405162461bcd60e51b815260040161051790612a17565b836001600160a01b031681602001516001600160a01b0316146108fb5760405162461bcd60e51b815260040161051790612986565b60065461090781611dc9565b600061092e83608001516109288560a0015185611e6e90919063ffffffff16565b90611e92565b9050600061096e6000856040015160010b1361095a57846040015161095290612e94565b60010b610963565b846040015160010b5b606086015190611eab565b9050600080856040015160010b131561099a5761099361098c611d69565b8490611e92565b90506109ca565b6109c76109a5611d69565b610928856109c160028a60800151611eb790919063ffffffff16565b90611ec3565b90505b60006109e1600b5483611e9290919063ffffffff16565b9050610a1081610a0a6109ff600a5487611e9290919063ffffffff16565b60608a015190611ecf565b90611ecf565b610a1a8385611ecf565b11610a375760405162461bcd60e51b81526004016105179061284a565b6000866040015160010b1315610a8b57601254841115610a575760125493505b601254610a649085611ec3565b60125560138590556060860151601154610a7d91611ec3565b601155601254601455610adf565b601654841115610a9b5760165493505b60188590556060860151601554610ab191611ec3565b601555601654610ac19085611ec3565b6016556080860151601754610ad591611ec3565b6017556016546019555b816010541015610aef5760105491505b601054610afc9083611ec3565b6010556060860151600090610b15906109c18587611ecf565b6008546040516370a0823160e01b81529192506000916001600160a01b03909116906370a0823190610b4b90309060040161277a565b60206040518083038186803b158015610b6357600080fd5b505afa158015610b77573d6000803e3d6000fd5b505050506040513d601f19601f82011682018060405250810190610b9b91906126ff565b905081811015610ba9578091505b600b5415610bf457610bd28a610bbf8486611ec3565b6008546001600160a01b03169190611edb565b600d54600854610bef916001600160a01b03918216911685611edb565b610c0b565b600854610c0b906001600160a01b03168b84611edb565b7fd0f219269b2989457aec2ba9ff3e215e5834b740f1bbea057f5ab4c7f250cf1d8c896020015188878b88604051610c4896959493929190612c9a565b60405180910390a150505063ffffffff9098166000908152601b6020526040812080546001600160a01b03191681556001810180546001600160b01b03191690556002810182905560038101829055600401555050505050505050565b600e54600160c01b900463ffffffff1681565b60015460035460405163b28a0a7f60e01b815285926000926001600160a01b039091169162fdd58e918591849163b28a0a7f91610cf89190600401612bc3565b60206040518083038186803b158015610d1057600080fd5b505afa158015610d24573d6000803e3d6000fd5b505050506040513d601f19601f82011682018060405250810190610d4891906126ff565b6040518363ffffffff1660e01b8152600401610d659291906127f3565b60206040518083038186803b158015610d7d57600080fd5b505afa158015610d91573d6000803e3d6000fd5b505050506040513d601f19601f82011682018060405250810190610db591906126ff565b11610dd25760405162461bcd60e51b815260040161051790612895565b60045415610df25760405162461bcd60e51b8152600401610517906128cc565b60015460035460405163b28a0a7f60e01b81526001600160a01b039092169162fdd58e918791849163b28a0a7f91610e2d9190600401612bc3565b60206040518083038186803b158015610e4557600080fd5b505afa158015610e59573d6000803e3d6000fd5b505050506040513d601f19601f82011682018060405250810190610e7d91906126ff565b6040518363ffffffff1660e01b8152600401610e9a9291906127f3565b60206040518083038186803b158015610eb257600080fd5b505afa158015610ec6573d6000803e3d6000fd5b505050506040513d601f19601f82011682018060405250810190610eea91906126ff565b6001600160a01b03851660009081526007602052604090205410610f205760405162461bcd60e51b815260040161051790612b41565b600e8054600160a01b900463ffffffff16906014610f3d83612e70565b82546101009290920a63ffffffff818102199093169183160217909155604080516080810182523381526001600160a01b03888116602080840182815260018a810b868801908152606087018d8152600e54600160a01b90819004909a166000908152601a8652898120985189546001600160a01b0319908116918a16919091178a559451898501805494519490961698169790971761ffff60a01b191661ffff9290930b91909116909802179055945160029093019290925590815260079092528120805492509061100f83612e55565b919050555050505050565b600a5481565b60155460165460175460185460195485565b63ffffffff81166000908152601b60209081526040808320815160c08101835281546001600160a01b03908116825260018084015491821695830195909552600160a01b9004840b840b90930b918301919091526002810154606083018190526003820154608084015260049091015460a08301526110c35760405162461bcd60e51b815260040161051790612b6a565b60006110ce82611f36565b50925050505b919050565b6110e1612181565b600181810b810b60009081526009602081905260408220805460ff1916841790559061110c84612e94565b60010b60010b815260200190815260200160002060006101000a81548160ff0219169083151502179055507ff67b5be99da014dc5bbb05f7a10b5c1e1eaf761dcff49aef0a830ffd33b5c9dc816040516111669190612bb4565b60405180910390a150565b600d546001600160a01b031681565b6001546001600160a01b031681565b60096020526000908152604090205460ff1681565b6111ac612181565b600e60009054906101000a90046001600160a01b03166001600160a01b0316631bde34566040518163ffffffff1660e01b8152600401602060405180830381600087803b1580156111fc57600080fd5b505af1158015611210573d6000803e3d6000fd5b505050506040513d601f19601f8201168201806040525081019061123491906126ff565b600655565b611241612181565b600d80546001600160a01b0319166001600160a01b0392909216919091179055565b61126b612181565b61127560006121c0565b565b6000546001600160a01b031690565b60115460125460135460145484565b6008546001600160a01b031681565b600e5460405163a35668bf60e01b81526000916001600160a01b03169063a35668bf906112d590309060040161277a565b60206040518083038186803b1580156112ed57600080fd5b505afa158015611301573d6000803e3d6000fd5b505050506040513d601f19601f820116820180604052508101906106e991906126ff565b6002546001600160a01b031681565b600c5481565b60035481565b600b5481565b601a60205260009081526040902080546001808301546002909301546001600160a01b039283169392831692600160a01b900490910b9084565b611388612181565b600a8190556040517f60e314eb1dcc14680ab3be0aaa5b70ea0d3828f11e6bcb38305fea8bbf2d49cc90611166908390612bc3565b60065481565b60055481565b60045481565b60045442111590565b60015460035460405163b28a0a7f60e01b815285926000926001600160a01b039091169162fdd58e918591849163b28a0a7f916114189190600401612bc3565b60206040518083038186803b15801561143057600080fd5b505afa158015611444573d6000803e3d6000fd5b505050506040513d601f19601f8201168201806040525081019061146891906126ff565b6040518363ffffffff1660e01b81526004016114859291906127f3565b60206040518083038186803b15801561149d57600080fd5b505afa1580156114b1573d6000803e3d6000fd5b505050506040513d601f19601f820116820180604052508101906114d591906126ff565b116114f25760405162461bcd60e51b815260040161051790612895565b6114fa6113cf565b156115175760405162461bcd60e51b8152600401610517906128f9565b63ffffffff83166000908152601b6020908152604091829020825160c08101845281546001600160a01b03908116825260018084015491821694830194909452600160a01b9004830b830b90920b928201929092526002820154606082018190526003830154608083015260049092015460a0820152906115aa5760405162461bcd60e51b8152600401610517906129f6565b6006546000806115b984611f36565b915091506000198214156115df5760405162461bcd60e51b8152600401610517906129a8565b816115ec5782915061161b565b6000846040015160010b13151583831115151461161b5760405162461bcd60e51b8152600401610517906129a8565b61162482611dc9565b600061164585608001516109288760a0015186611e6e90919063ffffffff16565b9050600080866040015160010b13156116715761166a611663611d69565b8390611e92565b905061169b565b61169861167c611d69565b610928846109c160028b60800151611eb790919063ffffffff16565b90505b6000866040015160010b13156116ee576012548211156116bb5760125491505b601384905560608601516011546116d191611ec3565b6011556012546116e19083611ec3565b6012819055601455611742565b6016548211156116fe5760165491505b6018849055606086015160155461171491611ec3565b6015556016546117249083611ec3565b601655608086015160175461173891611ec3565b6017556016546019555b80601054101561175157506010545b60105461175e9082611ec3565b6010556008546040516370a0823160e01b81526000916001600160a01b0316906370a082319061179290309060040161277a565b60206040518083038186803b1580156117aa57600080fd5b505afa1580156117be573d6000803e3d6000fd5b505050506040513d601f19601f820116820180604052508101906117e291906126ff565b905060006117fb600a5486611e9290919063ffffffff16565b9050600080600c5411156118555781831015611815578291505b600c54611823908390611e92565b90506118338b610bbf8484611ec3565b600d54600854611850916001600160a01b03918216911683611edb565b611878565b81831015611861578291505b600854611878906001600160a01b03168c84611edb565b7f6f38507ff54d95a72680dddf08a58aa66bd84d38c252b5bbf63465b56e11aed28c8c87878b866040516118b196959493929190612c9a565b60405180910390a150505063ffffffff9098166000908152601b6020526040812080546001600160a01b03191681556001810180546001600160b01b0319169055600281018290556003810182905560040155505050505050505050565b600e54600160a01b900463ffffffff1681565b601b6020526000908152604090208054600180830154600284015460038501546004909501546001600160a01b039485169594831694600160a01b90930490930b9290919086565b611972612181565b600181810b900b60009081526009602081905260408220805460ff191690558161199b84612e94565b60010b60010b815260200190815260200160002060006101000a81548160ff0219169083151502179055507f0ad48029b5a777c16c44eb514377797a70850e93d05fabaffea42f2595440126816040516111669190612bb4565b600e546001600160a01b031690565b611a0c612181565b6001600160a01b038116611a325760405162461bcd60e51b815260040161051790612920565b611a3b816121c0565b50565b600181810b900b60009081526009602052604081205460ff16611a735760405162461bcd60e51b815260040161051790612872565b60008311611a935760405162461bcd60e51b815260040161051790612a3b565b611a9d8484612210565b600e5460408051630def1a2b60e11b815290516000926001600160a01b031691631bde345691600480830192602092919082900301818787803b158015611ae357600080fd5b505af1158015611af7573d6000803e3d6000fd5b505050506040513d601f19601f82011682018060405250810190611b1b91906126ff565b60058190559050611b2b81611dc9565b600e8054600160c01b900463ffffffff16906018611b4883612e70565b91906101000a81548163ffffffff021916908363ffffffff160217905550506000808460010b13611b8e57611b89611b7f85612e94565b869060010b611eb7565b611b9c565b611b9c85600186900b611eb7565b90506000611bb2611bab611d69565b8390611e6e565b6040805160c0810182526001600160a01b03808c1682528a8116602080840191825260018b810b858701818152606087018b8152608088018a815260a089018e8152600e5463ffffffff600160c01b909104166000908152601b909752998620985189549089166001600160a01b0319918216178a5596518986018054945190960b61ffff16600160a01b0261ffff60a01b199190991693909716929092179590951695909517909155915160028501559151600384015592516004909201919091559192501315611cad576013839055601154611c909083611ecf565b601155601254611ca09082611ecf565b6012819055601455611ce9565b6018839055601554611cbf9083611ecf565b601555601654611ccf9082611ecf565b601655601754611cdf9082611ecf565b6017556016546019555b601054611cf69083611ecf565b601055600e546040517f561cdb01c3e4e301a13e882a3914d5d30dbb217e14dab8bfec1730111b32426091611d4391600160c01b90910463ffffffff16908a908a90869089908c90612c5e565b60405180910390a15050600e54600160c01b900463ffffffff169150505b949350505050565b601654601754600091611d8f91611d8691906109c1906002611eb7565b60125490611ecf565b611da25750670de0b6b3a76400006106ec565b6016546017546106e991611dc091611d8691906109c1906002611eb7565b60105490611e6e565b80600f541415611dd857611a3b565b600f819055601154611dee576000601255611e08565b601454601354611e049190610928908490611e6e565b6012555b601554611e1e5760006016819055601755611e38565b601954601854611e349190610928908490611e6e565b6016555b6012546016546040517fc6642d24d84e7f3d36ca39f5cce10e75639d9b158d5193aa350e2f900653e4c092611166928592612bf9565b6000611e8b611e8584670de0b6b3a7640000611eb7565b83611eab565b9392505050565b6000611e8b611ea18484611eb7565b670de0b6b3a76400005b6000611e8b8284612d19565b6000611e8b8284612db0565b6000611e8b8284612e0e565b6000611e8b8284612cd3565b611f318363a9059cbb60e01b8484604051602401611efa9291906127f3565b60408051601f198184030181529190526020810180516001600160e01b03166001600160e01b0319909316929092179091526123e8565b505050565b600080611f756000846040015160010b13611f61578360400151611f5990612e94565b60010b611f6a565b836040015160010b5b606085015190611eab565b90506000611fa0611f95600a54670de0b6b3a764000061098c9190612e0e565b606086015190611ec3565b90506000846040015160010b131561205257601854601954600091611ff391611fc891611e6e565b610a0a60105461092886611fed8b60a001518c60800151611e6e90919063ffffffff16565b90611e6e565b60135460145491925060009161200891611e6e565b90508082111561204657601754612023576000199450612041565b61203e6120308383611ec3565b601754611fed906002611eb7565b94505b61204b565b600094505b505061217b565b6013546014546000916120659190611e6e565b60185460195491925060009161207a91611e6e565b90506000818311156120be576120b76120a46120968486612e0e565b601054610928908890611e6e565b60a089015160808a0151610a0a91611e6e565b90506120f9565b6120d96120cb8484612e0e565b601054610928908790611e6e565b60a088015160808901516120ec91611e6e565b6120f69190612dcf565b90505b6000612124600261211e6015600201546109286010548a611e6e90919063ffffffff16565b90611eb7565b6080890151612134906002611eb7565b61213e9190612dcf565b90506000808313908213146121565760009650612176565b81612169670de0b6b3a764000083612d2d565b6121739190612ceb565b96505b505050505b50915091565b612189612477565b6001600160a01b031661219a611277565b6001600160a01b0316146112755760405162461bcd60e51b815260040161051790612a5f565b600080546001600160a01b038381166001600160a01b0319831681178455604051919092169283917f8be0079c531659141344cd1fd0a4f28419497f9722a3daafe3b4186f6b6457e09190a35050565b601c5460ff16156122335760405162461bcd60e51b815260040161051790612b96565b601c805460ff191660011790556008546040516370a0823160e01b81526000916001600160a01b0316906370a082319061227190309060040161277a565b60206040518083038186803b15801561228957600080fd5b505afa15801561229d573d6000803e3d6000fd5b505050506040513d601f19601f820116820180604052508101906122c191906126ff565b6008546040516327adaa4560e01b815291925033916327adaa45916122f69186916001600160a01b0316908890600401612bcc565b600060405180830381600087803b15801561231057600080fd5b505af1158015612324573d6000803e3d6000fd5b5050505061233b8282611ecf90919063ffffffff16565b6008546040516370a0823160e01b81526001600160a01b03909116906370a082319061236b90309060040161277a565b60206040518083038186803b15801561238357600080fd5b505afa158015612397573d6000803e3d6000fd5b505050506040513d601f19601f820116820180604052508101906123bb91906126ff565b10156123d95760405162461bcd60e51b815260040161051790612966565b5050601c805460ff1916905550565b600061243d826040518060400160405280602081526020017f5361666545524332303a206c6f772d6c6576656c2063616c6c206661696c6564815250856001600160a01b031661247b9092919063ffffffff16565b805190915015611f31578080602001905181019061245b919061268b565b611f315760405162461bcd60e51b815260040161051790612af7565b3390565b6060611d61848460008585600080866001600160a01b031685876040516124a2919061275e565b60006040518083038185875af1925050503d80600081146124df576040519150601f19603f3d011682016040523d82523d6000602084013e6124e4565b606091505b50915091506124f587838387612500565b979650505050505050565b6060831561253a5782516125335761251785612544565b6125335760405162461bcd60e51b815260040161051790612ac0565b5081611d61565b611d618383612553565b6001600160a01b03163b151590565b8151156125635781518083602001fd5b8060405162461bcd60e51b81526004016105179190612817565b8035600181900b81146110d457600080fd5b803563ffffffff811681146110d457600080fd5b6000602082840312156125b4578081fd5b8135611e8b81612ee0565b6000602082840312156125d0578081fd5b8151611e8b81612ee0565b600080604083850312156125ed578081fd5b82356125f881612ee0565b946020939093013593505050565b60008060006060848603121561261a578081fd5b833561262581612ee0565b92506020840135915061263a6040850161257d565b90509250925092565b600080600060608486031215612657578283fd5b833561266281612ee0565b92506126706020850161258f565b9150604084013561268081612ee0565b809150509250925092565b60006020828403121561269c578081fd5b81518015158114611e8b578182fd5b6000602082840312156126bc578081fd5b611e8b8261257d565b6000602082840312156126d6578081fd5b813561ffff81168114611e8b578182fd5b6000602082840312156126f8578081fd5b5035919050565b600060208284031215612710578081fd5b5051919050565b600060208284031215612728578081fd5b611e8b8261258f565b600080600060608486031215612745578283fd5b61274e8461258f565b9250602084013561267081612ee0565b60008251612770818460208701612e25565b9190910192915050565b6001600160a01b0391909116815260200190565b6001600160a01b03948516815292909316602083015260010b6040820152606081019190915260800190565b6001600160a01b03968716815294909516602085015260019290920b60408401526060830152608082015260a081019190915260c00190565b6001600160a01b03929092168252602082015260400190565b901515815260200190565b6000602082528251806020840152612836816040850160208701612e25565b601f01601f19169190910160400192915050565b6020808252600e908201526d34b7103634b8bab4b230ba34b7b760911b604082015260600190565b6020808252600990820152683632bb32b61022b93960b91b604082015260600190565b6020808252601c908201527f796f7520617265206e6f74207468697320706f6f6c20706c6179657200000000604082015260600190565b6020808252601390820152722837b7b6103430b9903132b2b7103132b3bab760691b604082015260600190565b6020808252600d908201526c506f6f6c20697320676f696e6760981b604082015260600190565b60208082526026908201527f4f776e61626c653a206e6577206f776e657220697320746865207a65726f206160408201526564647265737360d01b606082015260800190565b602080825260069082015265282a1022b93960d11b604082015260600190565b6020808252600890820152673ab9b2b91022b93960c11b604082015260600190565b60208082526010908201526f1b1a5c5d5a59185d1a5bdb8819985a5b60821b604082015260600190565b6020808252600a90820152693737ba102232b0b632b960b11b604082015260600190565b6020808252600790820152663634b89022b93960c91b604082015260600190565b6020808252600a90820152693937baba32b91022b93960b11b604082015260600190565b6020808252600a908201526936b0b933b4b71022b93960b11b604082015260600190565b6020808252818101527f4f776e61626c653a2063616c6c6572206973206e6f7420746865206f776e6572604082015260600190565b602080825260129082015271646561646c696e6520746f6f206561726c7960701b604082015260600190565b6020808252601d908201527f416464726573733a2063616c6c20746f206e6f6e2d636f6e7472616374000000604082015260600190565b6020808252602a908201527f5361666545524332303a204552433230206f7065726174696f6e20646964206e6040820152691bdd081cdd58d8d9595960b21b606082015260800190565b6020808252600f908201526e1e5bdd481a185d99481bdc195b9959608a1b604082015260600190565b6020808252601290820152713737b716b2bc34b9ba103837b9b4ba34b7b760711b604082015260600190565b6020808252600490820152634c4f434b60e01b604082015260600190565b61ffff91909116815260200190565b90815260200190565b9283526001600160a01b03918216602084015216604082015260600190565b918252602082015260400190565b9283526020830191909152604082015260600190565b93845260208401929092526040830152606082015260800190565b948552602085019390935260408401919091526060830152608082015260a00190565b63ffffffff91909116815260200190565b63ffffffff9690961686526001600160a01b0394909416602086015260408501929092526060840152608083015260010b60a082015260c00190565b63ffffffff9690961686526001600160a01b0394909416602086015260408501929092526060840152608083015260a082015260c00190565b60008219821115612ce657612ce6612eb4565b500190565b600082612cfa57612cfa612eca565b600160ff1b821460001984141615612d1457612d14612eb4565b500590565b600082612d2857612d28612eca565b500490565b60006001600160ff1b0381841382841380821686840486111615612d5357612d53612eb4565b600160ff1b84871282811687830589121615612d7157612d71612eb4565b858712925087820587128484161615612d8c57612d8c612eb4565b87850587128184161615612da257612da2612eb4565b505050929093029392505050565b6000816000190483118215151615612dca57612dca612eb4565b500290565b60008083128015600160ff1b850184121615612ded57612ded612eb4565b6001600160ff1b0384018313811615612e0857612e08612eb4565b50500390565b600082821015612e2057612e20612eb4565b500390565b60005b83811015612e40578181015183820152602001612e28565b83811115612e4f576000848401525b50505050565b6000600019821415612e6957612e69612eb4565b5060010190565b600063ffffffff80831681811415612e8a57612e8a612eb4565b6001019392505050565b60008160010b617fff19811415612ead57612ead612eb4565b9003919050565b634e487b7160e01b600052601160045260246000fd5b634e487b7160e01b600052601260045260246000fd5b6001600160a01b0381168114611a3b57600080fdfea26469706673582212203db153fb1c2f16c51ff90024d831bdecd6c7aa912262b1ba6e789e00bd280c8b64736f6c63430008010033",
  "linkReferences": {},
  "deployedLinkReferences": {}
}