{
  "_format": "hh-sol-artifact-1",
  "contractName": "Pool",
  "sourceName": "contracts/Pool.sol",
  "abi": [
    {
      "inputs": [
        {
          "internalType": "uint256",
          "name": "id_",
          "type": "uint256"
        },
        {
          "internalType": "address",
          "name": "payToken_",
          "type": "address"
        },
        {
          "internalType": "address",
          "name": "oracle_",
          "type": "address"
        },
        {
          "internalType": "bool",
          "name": "reverse_",
          "type": "bool"
        },
        {
          "internalType": "uint8",
          "name": "typ",
          "type": "uint8"
        },
        {
          "internalType": "uint8",
          "name": "model_",
          "type": "uint8"
        }
      ],
      "stateMutability": "nonpayable",
      "type": "constructor"
    },
    {
      "anonymous": false,
      "inputs": [
        {
          "indexed": false,
          "internalType": "uint16",
          "name": "level",
          "type": "uint16"
        }
      ],
      "name": "AddLevel",
      "type": "event"
    },
    {
      "anonymous": false,
      "inputs": [
        {
          "indexed": false,
          "internalType": "uint32",
          "name": "index",
          "type": "uint32"
        },
        {
          "indexed": false,
          "internalType": "address",
          "name": "user",
          "type": "address"
        },
        {
          "indexed": false,
          "internalType": "uint256",
          "name": "receiveLp",
          "type": "uint256"
        },
        {
          "indexed": false,
          "internalType": "uint256",
          "name": "receivePosition",
          "type": "uint256"
        },
        {
          "indexed": false,
          "internalType": "uint256",
          "name": "closePrice",
          "type": "uint256"
        },
        {
          "indexed": false,
          "internalType": "uint256",
          "name": "protocolFee",
          "type": "uint256"
        }
      ],
      "name": "Close",
      "type": "event"
    },
    {
      "anonymous": false,
      "inputs": [
        {
          "indexed": false,
          "internalType": "uint256",
          "name": "deadline",
          "type": "uint256"
        }
      ],
      "name": "Deadline",
      "type": "event"
    },
    {
      "anonymous": false,
      "inputs": [
        {
          "indexed": false,
          "internalType": "uint256",
          "name": "endPrice",
          "type": "uint256"
        }
      ],
      "name": "EndPrice",
      "type": "event"
    },
    {
      "anonymous": false,
      "inputs": [
        {
          "indexed": false,
          "internalType": "uint32",
          "name": "index",
          "type": "uint32"
        },
        {
          "indexed": false,
          "internalType": "address",
          "name": "liquidator",
          "type": "address"
        },
        {
          "indexed": false,
          "internalType": "uint256",
          "name": "receiveLp",
          "type": "uint256"
        },
        {
          "indexed": false,
          "internalType": "uint256",
          "name": "receivePosition",
          "type": "uint256"
        },
        {
          "indexed": false,
          "internalType": "uint256",
          "name": "liqPrice",
          "type": "uint256"
        },
        {
          "indexed": false,
          "internalType": "uint256",
          "name": "protocolFee",
          "type": "uint256"
        }
      ],
      "name": "Liquidate",
      "type": "event"
    },
    {
      "anonymous": false,
      "inputs": [
        {
          "indexed": false,
          "internalType": "uint32",
          "name": "index",
          "type": "uint32"
        },
        {
          "indexed": false,
          "internalType": "address",
          "name": "user",
          "type": "address"
        },
        {
          "indexed": false,
          "internalType": "uint256",
          "name": "margin",
          "type": "uint256"
        },
        {
          "indexed": false,
          "internalType": "uint256",
          "name": "lp",
          "type": "uint256"
        },
        {
          "indexed": false,
          "internalType": "uint256",
          "name": "openPrice",
          "type": "uint256"
        },
        {
          "indexed": false,
          "internalType": "int16",
          "name": "level",
          "type": "int16"
        }
      ],
      "name": "Open",
      "type": "event"
    },
    {
      "anonymous": false,
      "inputs": [
        {
          "indexed": true,
          "internalType": "address",
          "name": "previousOwner",
          "type": "address"
        },
        {
          "indexed": true,
          "internalType": "address",
          "name": "newOwner",
          "type": "address"
        }
      ],
      "name": "OwnershipTransferred",
      "type": "event"
    },
    {
      "anonymous": false,
      "inputs": [
        {
          "indexed": false,
          "internalType": "uint256",
          "name": "price",
          "type": "uint256"
        },
        {
          "indexed": false,
          "internalType": "uint256",
          "name": "longLp",
          "type": "uint256"
        },
        {
          "indexed": false,
          "internalType": "uint256",
          "name": "shortLp",
          "type": "uint256"
        }
      ],
      "name": "Rebase",
      "type": "event"
    },
    {
      "anonymous": false,
      "inputs": [
        {
          "indexed": false,
          "internalType": "uint16",
          "name": "level",
          "type": "uint16"
        }
      ],
      "name": "RemoveLevel",
      "type": "event"
    },
    {
      "anonymous": false,
      "inputs": [
        {
          "indexed": false,
          "internalType": "uint256",
          "name": "liqProtocolFee",
          "type": "uint256"
        }
      ],
      "name": "SetLiqProtocolFee",
      "type": "event"
    },
    {
      "anonymous": false,
      "inputs": [
        {
          "indexed": false,
          "internalType": "uint256",
          "name": "marginRatio",
          "type": "uint256"
        }
      ],
      "name": "SetMarginRatio",
      "type": "event"
    },
    {
      "anonymous": false,
      "inputs": [
        {
          "indexed": false,
          "internalType": "uint256",
          "name": "protocolFee",
          "type": "uint256"
        }
      ],
      "name": "SetProtocolFee",
      "type": "event"
    },
    {
      "inputs": [],
      "name": "MIN_DURATION",
      "outputs": [
        {
          "internalType": "uint256",
          "name": "",
          "type": "uint256"
        }
      ],
      "stateMutability": "view",
      "type": "function"
    },
    {
      "inputs": [],
      "name": "beginPrice",
      "outputs": [
        {
          "internalType": "uint256",
          "name": "",
          "type": "uint256"
        }
      ],
      "stateMutability": "view",
      "type": "function"
    },
    {
      "inputs": [
        {
          "internalType": "uint32",
          "name": "index",
          "type": "uint32"
        },
        {
          "internalType": "address",
          "name": "user",
          "type": "address"
        },
        {
          "internalType": "address",
          "name": "receipt",
          "type": "address"
        }
      ],
      "name": "close",
      "outputs": [],
      "stateMutability": "nonpayable",
      "type": "function"
    },
    {
      "inputs": [],
      "name": "deadLine",
      "outputs": [
        {
          "internalType": "uint256",
          "name": "",
          "type": "uint256"
        }
      ],
      "stateMutability": "view",
      "type": "function"
    },
    {
      "inputs": [],
      "name": "dealer",
      "outputs": [
        {
          "internalType": "address",
          "name": "",
          "type": "address"
        }
      ],
      "stateMutability": "view",
      "type": "function"
    },
    {
      "inputs": [],
      "name": "dealerId",
      "outputs": [
        {
          "internalType": "uint256",
          "name": "",
          "type": "uint256"
        }
      ],
      "stateMutability": "view",
      "type": "function"
    },
    {
      "inputs": [],
      "name": "endPrice",
      "outputs": [
        {
          "internalType": "uint256",
          "name": "",
          "type": "uint256"
        }
      ],
      "stateMutability": "view",
      "type": "function"
    },
    {
      "inputs": [],
      "name": "getPoolType",
      "outputs": [
        {
          "internalType": "bool",
          "name": "",
          "type": "bool"
        }
      ],
      "stateMutability": "nonpayable",
      "type": "function"
    },
    {
      "inputs": [],
      "name": "getPrice",
      "outputs": [
        {
          "internalType": "uint256",
          "name": "",
          "type": "uint256"
        }
      ],
      "stateMutability": "view",
      "type": "function"
    },
    {
      "inputs": [],
      "name": "getPriceAddress",
      "outputs": [
        {
          "internalType": "address",
          "name": "",
          "type": "address"
        }
      ],
      "stateMutability": "view",
      "type": "function"
    },
    {
      "inputs": [],
      "name": "index",
      "outputs": [
        {
          "internalType": "uint32",
          "name": "",
          "type": "uint32"
        }
      ],
      "stateMutability": "view",
      "type": "function"
    },
    {
      "inputs": [],
      "name": "lastPrice",
      "outputs": [
        {
          "internalType": "uint256",
          "name": "",
          "type": "uint256"
        }
      ],
      "stateMutability": "view",
      "type": "function"
    },
    {
      "inputs": [
        {
          "internalType": "int16",
          "name": "",
          "type": "int16"
        }
      ],
      "name": "levels",
      "outputs": [
        {
          "internalType": "bool",
          "name": "",
          "type": "bool"
        }
      ],
      "stateMutability": "view",
      "type": "function"
    },
    {
      "inputs": [
        {
          "internalType": "uint32",
          "name": "index",
          "type": "uint32"
        }
      ],
      "name": "liqPrice",
      "outputs": [
        {
          "internalType": "uint256",
          "name": "",
          "type": "uint256"
        }
      ],
      "stateMutability": "view",
      "type": "function"
    },
    {
      "inputs": [],
      "name": "liqProtocolFee",
      "outputs": [
        {
          "internalType": "uint256",
          "name": "",
          "type": "uint256"
        }
      ],
      "stateMutability": "view",
      "type": "function"
    },
    {
      "inputs": [
        {
          "internalType": "address",
          "name": "user",
          "type": "address"
        },
        {
          "internalType": "uint32",
          "name": "index",
          "type": "uint32"
        },
        {
          "internalType": "address",
          "name": "receipt",
          "type": "address"
        }
      ],
      "name": "liquidate",
      "outputs": [],
      "stateMutability": "nonpayable",
      "type": "function"
    },
    {
      "inputs": [],
      "name": "lpPrice",
      "outputs": [
        {
          "internalType": "uint256",
          "name": "",
          "type": "uint256"
        }
      ],
      "stateMutability": "view",
      "type": "function"
    },
    {
      "inputs": [],
      "name": "marginRatio",
      "outputs": [
        {
          "internalType": "uint256",
          "name": "",
          "type": "uint256"
        }
      ],
      "stateMutability": "view",
      "type": "function"
    },
    {
      "inputs": [],
      "name": "mergedLong",
      "outputs": [
        {
          "internalType": "uint256",
          "name": "asset",
          "type": "uint256"
        },
        {
          "internalType": "uint256",
          "name": "lp",
          "type": "uint256"
        },
        {
          "internalType": "uint256",
          "name": "openPrice",
          "type": "uint256"
        },
        {
          "internalType": "uint256",
          "name": "openLp",
          "type": "uint256"
        }
      ],
      "stateMutability": "view",
      "type": "function"
    },
    {
      "inputs": [],
      "name": "mergedShort",
      "outputs": [
        {
          "internalType": "uint256",
          "name": "asset",
          "type": "uint256"
        },
        {
          "internalType": "uint256",
          "name": "fakeLp",
          "type": "uint256"
        },
        {
          "internalType": "uint256",
          "name": "lp",
          "type": "uint256"
        },
        {
          "internalType": "uint256",
          "name": "openPrice",
          "type": "uint256"
        },
        {
          "internalType": "uint256",
          "name": "openLp",
          "type": "uint256"
        }
      ],
      "stateMutability": "view",
      "type": "function"
    },
    {
      "inputs": [],
      "name": "model",
      "outputs": [
        {
          "internalType": "uint8",
          "name": "",
          "type": "uint8"
        }
      ],
      "stateMutability": "view",
      "type": "function"
    },
    {
      "inputs": [
        {
          "internalType": "address",
          "name": "user",
          "type": "address"
        },
        {
          "internalType": "uint256",
          "name": "deadLine_",
          "type": "uint256"
        }
      ],
      "name": "open",
      "outputs": [],
      "stateMutability": "nonpayable",
      "type": "function"
    },
    {
      "inputs": [],
      "name": "owner",
      "outputs": [
        {
          "internalType": "address",
          "name": "",
          "type": "address"
        }
      ],
      "stateMutability": "view",
      "type": "function"
    },
    {
      "inputs": [],
      "name": "payToken",
      "outputs": [
        {
          "internalType": "address",
          "name": "",
          "type": "address"
        }
      ],
      "stateMutability": "view",
      "type": "function"
    },
    {
      "inputs": [],
      "name": "player",
      "outputs": [
        {
          "internalType": "address",
          "name": "",
          "type": "address"
        }
      ],
      "stateMutability": "view",
      "type": "function"
    },
    {
      "inputs": [],
      "name": "playerIndex",
      "outputs": [
        {
          "internalType": "uint256",
          "name": "",
          "type": "uint256"
        }
      ],
      "stateMutability": "view",
      "type": "function"
    },
    {
      "inputs": [
        {
          "internalType": "uint32",
          "name": "",
          "type": "uint32"
        }
      ],
      "name": "positions",
      "outputs": [
        {
          "internalType": "address",
          "name": "router",
          "type": "address"
        },
        {
          "internalType": "address",
          "name": "user",
          "type": "address"
        },
        {
          "internalType": "int16",
          "name": "level",
          "type": "int16"
        },
        {
          "internalType": "uint256",
          "name": "asset",
          "type": "uint256"
        },
        {
          "internalType": "uint256",
          "name": "lp",
          "type": "uint256"
        },
        {
          "internalType": "uint256",
          "name": "openPrice",
          "type": "uint256"
        }
      ],
      "stateMutability": "view",
      "type": "function"
    },
    {
      "inputs": [],
      "name": "protocolFee",
      "outputs": [
        {
          "internalType": "uint256",
          "name": "",
          "type": "uint256"
        }
      ],
      "stateMutability": "view",
      "type": "function"
    },
    {
      "inputs": [],
      "name": "protocolReceipt",
      "outputs": [
        {
          "internalType": "address",
          "name": "",
          "type": "address"
        }
      ],
      "stateMutability": "view",
      "type": "function"
    },
    {
      "inputs": [
        {
          "internalType": "uint16",
          "name": "level",
          "type": "uint16"
        }
      ],
      "name": "removeLevel",
      "outputs": [],
      "stateMutability": "nonpayable",
      "type": "function"
    },
    {
      "inputs": [],
      "name": "renounceOwnership",
      "outputs": [],
      "stateMutability": "nonpayable",
      "type": "function"
    },
    {
      "inputs": [],
      "name": "setEndPrice",
      "outputs": [],
      "stateMutability": "nonpayable",
      "type": "function"
    },
    {
      "inputs": [
        {
          "internalType": "uint256",
          "name": "marginRatio_",
          "type": "uint256"
        }
      ],
      "name": "setMarginRatio",
      "outputs": [],
      "stateMutability": "nonpayable",
      "type": "function"
    },
    {
      "inputs": [
        {
          "internalType": "uint256",
          "name": "index_",
          "type": "uint256"
        }
      ],
      "name": "setPlayerIndex",
      "outputs": [],
      "stateMutability": "nonpayable",
      "type": "function"
    },
    {
      "inputs": [
        {
          "internalType": "address",
          "name": "protocolReceipt_",
          "type": "address"
        }
      ],
      "name": "setProtocolReceipt",
      "outputs": [],
      "stateMutability": "nonpayable",
      "type": "function"
    },
    {
      "inputs": [
        {
          "internalType": "address",
          "name": "user",
          "type": "address"
        },
        {
          "internalType": "uint256",
          "name": "margin",
          "type": "uint256"
        },
        {
          "internalType": "int16",
          "name": "level",
          "type": "int16"
        }
      ],
      "name": "submit",
      "outputs": [],
      "stateMutability": "nonpayable",
      "type": "function"
    },
    {
      "inputs": [],
      "name": "totalPosition",
      "outputs": [
        {
          "internalType": "uint256",
          "name": "",
          "type": "uint256"
        }
      ],
      "stateMutability": "view",
      "type": "function"
    },
    {
      "inputs": [
        {
          "internalType": "address",
          "name": "newOwner",
          "type": "address"
        }
      ],
      "name": "transferOwnership",
      "outputs": [],
      "stateMutability": "nonpayable",
      "type": "function"
    },
    {
      "inputs": [],
      "name": "waitIndex",
      "outputs": [
        {
          "internalType": "uint32",
          "name": "",
          "type": "uint32"
        }
      ],
      "stateMutability": "view",
      "type": "function"
    },
    {
      "inputs": [
        {
          "internalType": "uint32",
          "name": "",
          "type": "uint32"
        }
      ],
      "name": "waitPositions",
      "outputs": [
        {
          "internalType": "address",
          "name": "router",
          "type": "address"
        },
        {
          "internalType": "address",
          "name": "user",
          "type": "address"
        },
        {
          "internalType": "int16",
          "name": "level",
          "type": "int16"
        },
        {
          "internalType": "uint256",
          "name": "asset",
          "type": "uint256"
        }
      ],
      "stateMutability": "view",
      "type": "function"
    }
  ],
  "bytecode": "0x608060405260108054600160a01b600160e01b031916905560006011553480156200002957600080fd5b5060405162003758380380620037588339810160408190526200004c91620007d0565b620000606200005a62000612565b62000616565b60038690556005805460ff191660ff8316179055600a80546001600160a01b0319166001600160a01b038716179055604080516390666ff960e01b81529051339182916390666ff991600480820192602092909190829003018186803b158015620000ca57600080fd5b505afa158015620000df573d6000803e3d6000fd5b505050506040513d601f19601f8201168201806040525081019062000105919062000793565b601080546001600160a01b0319166001600160a01b0392831617908190556040516310cd532560e01b81529116906310cd5325906200014d9088908790899060040162000860565b600060405180830381600087803b1580156200016857600080fd5b505af11580156200017d573d6000803e3d6000fd5b50506040805160808101825260008082526020820152601054825163a35668bf60e01b815291945091840192506001600160a01b039091169063a35668bf90620001cc9030906004016200084c565b60206040518083038186803b158015620001e557600080fd5b505afa158015620001fa573d6000803e3d6000fd5b505050506040513d601f19601f82011682018060405250810190620002209190620007b7565b815260006020918201819052825160135582820151601455604080840151601555606093840151601655805160a08101825282815292830182905282810191909152601054905163a35668bf60e01b815291928301916001600160a01b039091169063a35668bf90620002989030906004016200084c565b60206040518083038186803b158015620002b157600080fd5b505afa158015620002c6573d6000803e3d6000fd5b505050506040513d601f19601f82011682018060405250810190620002ec9190620007b7565b815260006020918201528151601755818101516018556040808301516019556060830151601a55608090920151601b558151631698e0b760e11b815291516001600160a01b03841692632d31c16e926004828101939192829003018186803b1580156200035857600080fd5b505afa1580156200036d573d6000803e3d6000fd5b505050506040513d601f19601f82011682018060405250810190620003939190620007b7565b600c81905550806001600160a01b031663b0e21e8a6040518163ffffffff1660e01b815260040160206040518083038186803b158015620003d357600080fd5b505afa158015620003e8573d6000803e3d6000fd5b505050506040513d601f19601f820116820180604052508101906200040e9190620007b7565b600d81905550806001600160a01b031663ac02c0bd6040518163ffffffff1660e01b815260040160206040518083038186803b1580156200044e57600080fd5b505afa15801562000463573d6000803e3d6000fd5b505050506040513d601f19601f82011682018060405250810190620004899190620007b7565b600e81905550806001600160a01b0316633a267ea36040518163ffffffff1660e01b815260040160206040518083038186803b158015620004c957600080fd5b505afa158015620004de573d6000803e3d6000fd5b505050506040513d601f19601f8201168201806040525081019062000504919062000793565b600f80546001600160a01b0319166001600160a01b039290921691909117905562000530600262000666565b6200053c600562000666565b62000548600a62000666565b62000554601462000666565b7f60e314eb1dcc14680ab3be0aaa5b70ea0d3828f11e6bcb38305fea8bbf2d49cc600c54604051620005879190620008ca565b60405180910390a17fdc0410a296e1e33943a772020d333d5f99319d7fcad932a484c53889f7aaa2b1600d54604051620005c29190620008ca565b60405180910390a17ffec3e2cce26c0fccf827d7f8d326ecb9f37ad07b47912dc290d75e165e8e61ae600e54604051620005fd9190620008ca565b60405180910390a15050505050505062000900565b3390565b600080546001600160a01b038381166001600160a01b0319831681178455604051919092169283917f8be0079c531659141344cd1fd0a4f28419497f9722a3daafe3b4186f6b6457e09190a35050565b6200067062000704565b600181810b810b6000908152600b602081905260408220805460ff191684179055906200069d84620008d3565b60010b60010b815260200190815260200160002060006101000a81548160ff0219169083151502179055507ff67b5be99da014dc5bbb05f7a10b5c1e1eaf761dcff49aef0a830ffd33b5c9dc81604051620006f99190620008bb565b60405180910390a150565b6200070e62000612565b6001600160a01b03166200072162000755565b6001600160a01b031614620007535760405162461bcd60e51b81526004016200074a9062000886565b60405180910390fd5b565b6000546001600160a01b031690565b80516001600160a01b03811681146200077c57600080fd5b919050565b805160ff811681146200077c57600080fd5b600060208284031215620007a5578081fd5b620007b08262000764565b9392505050565b600060208284031215620007c9578081fd5b5051919050565b60008060008060008060c08789031215620007e9578182fd5b86519550620007fb6020880162000764565b94506200080b6040880162000764565b93506060870151801515811462000820578283fd5b9250620008306080880162000781565b91506200084060a0880162000781565b90509295509295509295565b6001600160a01b0391909116815260200190565b6001600160a01b0393909316835260ff9190911660208301521515604082015260600190565b6020808252818101527f4f776e61626c653a2063616c6c6572206973206e6f7420746865206f776e6572604082015260600190565b61ffff91909116815260200190565b90815260200190565b60008160010b617fff19811415620008f957634e487b7160e01b82526011600452602482fd5b9003919050565b612e4880620009106000396000f3fe608060405234801561001057600080fd5b50600436106102485760003560e01c80638da5cb5b1161013b578063b868723e116100b8578063da8e1d751161007c578063da8e1d7514610450578063deebe41014610458578063e38fd5311461047d578063ebe79a3414610490578063f2fde38b1461049857610248565b8063b868723e1461041d578063b9dcde1014610425578063bef3a0831461042d578063cf9afab514610435578063d3ce1c821461043d57610248565b8063ac02c0bd116100ff578063ac02c0bd146103cf578063b0e21e8a146103d7578063b22e2b93146103df578063b6a6d17714610402578063b6d7a1c91461040a57610248565b80638da5cb5b146103975780638fd418d31461039f57806396336b30146103b757806398d5fdca146103bf5780639de2ee21146103c757610248565b806335726234116101c957806348db5f891161018d57806348db5f891461034c5780635d9e05db14610354578063669c636d1461037457806369145d6e1461037c578063715018a61461038f57610248565b806335726234146102f05780633608cdf8146103095780633a267ea31461031c5780633ac3f524146103315780633d1c76f61461033957610248565b806317fbe3541161021057806317fbe354146102a55780632843d22d146102ad5780632986c0e5146102c05780632d1aeb28146102d55780632d31c16e146102e857610248565b8063053f14da1461024d5780630a0e5c9d1461026b5780630ad9d052146102805780630c280444146102955780631372088a1461029d575b600080fd5b6102556104ab565b6040516102629190612ad2565b60405180910390f35b61027e61027936600461249d565b6104b1565b005b6102886106cf565b6040516102629190612be2565b6102556106d8565b6102556106e8565b6102556106ee565b61027e6102bb3660046125f3565b6106f4565b6102c8610c3d565b6040516102629190612b5c565b61027e6102e33660046124c8565b610c50565b610255610ee8565b6102f8610eee565b604051610262959493929190612b39565b6102556103173660046125d9565b610f00565b610324610fa7565b604051610262919061263c565b610255610fb6565b61027e6103473660046125a9565b610fbc565b610324610feb565b61036761036236600461256d565b610ffa565b60405161026291906126ce565b61027e61100f565b61027e61038a366004612465565b61115b565b61027e611185565b610324611199565b6103a76111a8565b6040516102629493929190612b1e565b6103246111b7565b6102556111c6565b610324611247565b610255611256565b61025561125c565b6103f26103ed3660046125d9565b611262565b6040516102629493929190612650565b61025561129c565b61027e6104183660046125a9565b6112a2565b6102556112ea565b6102556112f0565b6102556112f6565b6103676112fc565b61027e61044b366004612505565b611305565b6102c86117d5565b61046b6104663660046125d9565b6117e8565b6040516102629695949392919061267c565b61027e61048b366004612587565b611830565b6103246118bb565b61027e6104a6366004612465565b6118ca565b60115481565b6002546003546040516331a9108f60e11b815284926001600160a01b0380851693911691636352211e916104e791600401612ad2565b60206040518083038186803b1580156104ff57600080fd5b505afa158015610513573d6000803e3d6000fd5b505050506040513d601f19601f820116820180604052508101906105379190612481565b6001600160a01b0316146105665760405162461bcd60e51b815260040161055d90612888565b60405180910390fd5b600654156105865760405162461bcd60e51b815260040161055d90612734565b610592610e1042612bf0565b8210156105b15760405162461bcd60e51b815260040161055d906127f1565b6006829055600280546003546040516362538f0f60e01b81526001600160a01b03909216926362538f0f926105ea929190600401612afa565b600060405180830381600087803b15801561060457600080fd5b505af1158015610618573d6000803e3d6000fd5b506001925050505b60105463ffffffff600160a01b9091048116908216116106925763ffffffff81166000908152601c60205260409020805460018083015460029093015461067f936001600160a01b0393841693811692600160a01b909104900b611904565b508061068a81612d8d565b915050610620565b507f02cd0f962e62be582c42a69232ce8a51199f039c40654f85b95cd182797ab8d6826040516106c29190612ad2565b60405180910390a1505050565b60055460ff1681565b60006106e2611c28565b90505b90565b60035481565b60125481565b60015460048054604051627eeac760e11b815285936000936001600160a01b039091169262fdd58e9261072a92879291016126b5565b60206040518083038186803b15801561074257600080fd5b505afa158015610756573d6000803e3d6000fd5b505050506040513d601f19601f8201168201806040525081019061077a91906125c1565b118061078b575060055460ff166002145b6107a75760405162461bcd60e51b815260040161055d9061277c565b6107af6112fc565b156107cc5760405162461bcd60e51b815260040161055d906128e2565b63ffffffff84166000908152601d6020908152604091829020825160c08101845281546001600160a01b0390811680835260018085015492831695840195909552600160a01b909104840b840b90930b9381019390935260028101546060840152600381015460808401526004015460a0830152331461085e5760405162461bcd60e51b815260040161055d9061292e565b836001600160a01b031681602001516001600160a01b0316146108935760405162461bcd60e51b815260040161055d9061283e565b60085461089f81611c88565b60006108c683608001516108c08560a0015185611d2d90919063ffffffff16565b90611d51565b905060006109066000856040015160010b136108f25784604001516108ea90612db1565b60010b6108fb565b846040015160010b5b606086015190611d6a565b9050600080856040015160010b13156109325761092b610924611c28565b8490611d51565b9050610962565b61095f61093d611c28565b6108c08561095960028a60800151611d7690919063ffffffff16565b90611d82565b90505b6000610979600d5483611d5190919063ffffffff16565b90506109a8816109a2610997600c5487611d5190919063ffffffff16565b60608a015190611d8e565b90611d8e565b6109b28385611d8e565b116109cf5760405162461bcd60e51b815260040161055d9061270c565b6000866040015160010b1315610a23576014548411156109ef5760145493505b6014546109fc9085611d82565b60145560158590556060860151601354610a1591611d82565b601355601454601655610a77565b601854841115610a335760185493505b601a8590556060860151601754610a4991611d82565b601755601854610a599085611d82565b6018556080860151601954610a6d91611d82565b601955601854601b555b816012541015610a875760125491505b601254610a949083611d82565b6012556060860151600090610aad906109598587611d8e565b600a546040516370a0823160e01b81529192506000916001600160a01b03909116906370a0823190610ae390309060040161263c565b60206040518083038186803b158015610afb57600080fd5b505afa158015610b0f573d6000803e3d6000fd5b505050506040513d601f19601f82011682018060405250810190610b3391906125c1565b905081811015610b41578091505b600d5415610b8c57610b6a8a610b578486611d82565b600a546001600160a01b03169190611d9a565b600f54600a54610b87916001600160a01b03918216911685611d9a565b610ba3565b600a54610ba3906001600160a01b03168b84611d9a565b7fd0f219269b2989457aec2ba9ff3e215e5834b740f1bbea057f5ab4c7f250cf1d8c896020015188878b88604051610be096959493929190612ba9565b60405180910390a150505063ffffffff9098166000908152601d6020526040812080546001600160a01b03191681556001810180546001600160b01b03191690556002810182905560038101829055600401555050505050505050565b601054600160c01b900463ffffffff1681565b60015460048054604051627eeac760e11b815286936000936001600160a01b039091169262fdd58e92610c8692879291016126b5565b60206040518083038186803b158015610c9e57600080fd5b505afa158015610cb2573d6000803e3d6000fd5b505050506040513d601f19601f82011682018060405250810190610cd691906125c1565b1180610ce7575060055460ff166002145b610d035760405162461bcd60e51b815260040161055d9061277c565b60065415610d235760405162461bcd60e51b815260040161055d90612734565b60015460048054604051627eeac760e11b81526001600160a01b039093169262fdd58e92610d559289929091016126b5565b60206040518083038186803b158015610d6d57600080fd5b505afa158015610d81573d6000803e3d6000fd5b505050506040513d601f19601f82011682018060405250810190610da591906125c1565b6001600160a01b03851660009081526009602052604090205410610ddb5760405162461bcd60e51b815260040161055d90612860565b60108054600160a01b900463ffffffff16906014610df883612d8d565b82546101009290920a63ffffffff818102199093169183160217909155604080516080810182523381526001600160a01b038881166020808401918252600189810b858701908152606086018c8152601054600160a01b908190049099166000908152601c90945296909220945185546001600160a01b03199081169186169190911786559251858201805493519390941694169390931761ffff60a01b191661ffff9190930b16909402179092555160029091015550610eb98484611df5565b6001600160a01b0384166000908152600960205260408120805491610edd83612d72565b919050555050505050565b600c5481565b601754601854601954601a54601b5485565b63ffffffff81166000908152601d60209081526040808320815160c08101835281546001600160a01b03908116825260018084015491821695830195909552600160a01b9004840b840b90930b918301919091526002810154606083018190526003820154608084015260049091015460a0830152610f915760405162461bcd60e51b815260040161055d90612a56565b6000610f9c82611fcd565b50925050505b919050565b600f546001600160a01b031681565b60045481565b6002546001600160a01b03163314610fe65760405162461bcd60e51b815260040161055d90612a2c565b600455565b6001546001600160a01b031681565b600b6020526000908152604090205460ff1681565b611017612218565b600854156110375760405162461bcd60e51b815260040161055d90612a82565b60105460405163a35668bf60e01b81526001600160a01b039091169063a35668bf9061106790309060040161263c565b60206040518083038186803b15801561107f57600080fd5b505afa158015611093573d6000803e3d6000fd5b505050506040513d601f19601f820116820180604052508101906110b791906125c1565b6008556002546003546040516362538f0f60e01b81526001600160a01b03909216916362538f0f916110ee91600090600401612afa565b600060405180830381600087803b15801561110857600080fd5b505af115801561111c573d6000803e3d6000fd5b505050507fe2dee4afc68516aab54e66400fa6cbe718ff6041441d05f358f158474dd94bd06008546040516111519190612ad2565b60405180910390a1565b611163612218565b600f80546001600160a01b0319166001600160a01b0392909216919091179055565b61118d612218565b6111976000612257565b565b6000546001600160a01b031690565b60135460145460155460165484565b600a546001600160a01b031681565b60105460405163a35668bf60e01b81526000916001600160a01b03169063a35668bf906111f790309060040161263c565b60206040518083038186803b15801561120f57600080fd5b505afa158015611223573d6000803e3d6000fd5b505050506040513d601f19601f820116820180604052508101906106e291906125c1565b6002546001600160a01b031681565b600e5481565b600d5481565b601c60205260009081526040902080546001808301546002909301546001600160a01b039283169392831692600160a01b900490910b9084565b610e1081565b6112aa612218565b600c8190556040517f60e314eb1dcc14680ab3be0aaa5b70ea0d3828f11e6bcb38305fea8bbf2d49cc906112df908390612ad2565b60405180910390a150565b60085481565b60075481565b60065481565b60065442111590565b60015460048054604051627eeac760e11b815286936000936001600160a01b039091169262fdd58e9261133b92879291016126b5565b60206040518083038186803b15801561135357600080fd5b505afa158015611367573d6000803e3d6000fd5b505050506040513d601f19601f8201168201806040525081019061138b91906125c1565b118061139c575060055460ff166002145b6113b85760405162461bcd60e51b815260040161055d9061277c565b6113c06112fc565b156113dd5760405162461bcd60e51b815260040161055d906128e2565b63ffffffff83166000908152601d6020908152604091829020825160c08101845281546001600160a01b03908116825260018084015491821694830194909452600160a01b9004830b830b90920b928201929092526002820154606082018190526003830154608083015260049092015460a0820152906114705760405162461bcd60e51b815260040161055d9061290d565b60085460008061147f84611fcd565b915091506000198214156114a55760405162461bcd60e51b815260040161055d906128b8565b816114b2578291506114e1565b6000846040015160010b1315158383111515146114e15760405162461bcd60e51b815260040161055d906128b8565b6114ea82611c88565b600061150b85608001516108c08760a0015186611d2d90919063ffffffff16565b9050600080866040015160010b131561153757611530611529611c28565b8390611d51565b9050611561565b61155e611542611c28565b6108c08461095960028b60800151611d7690919063ffffffff16565b90505b6000866040015160010b13156115b4576014548211156115815760145491505b6015849055606086015160135461159791611d82565b6013556014546115a79083611d82565b6014819055601655611608565b6018548211156115c45760185491505b601a84905560608601516017546115da91611d82565b6017556018546115ea9083611d82565b60185560808601516019546115fe91611d82565b601955601854601b555b80601254101561161757506012545b6012546116249082611d82565b601255600a546040516370a0823160e01b81526000916001600160a01b0316906370a082319061165890309060040161263c565b60206040518083038186803b15801561167057600080fd5b505afa158015611684573d6000803e3d6000fd5b505050506040513d601f19601f820116820180604052508101906116a891906125c1565b905060006116c1600c5486611d5190919063ffffffff16565b9050600080600e54111561171b57818310156116db578291505b600e546116e9908390611d51565b90506116f98b610b578484611d82565b600f54600a54611716916001600160a01b03918216911683611d9a565b61173e565b81831015611727578291505b600a5461173e906001600160a01b03168c84611d9a565b7f6f38507ff54d95a72680dddf08a58aa66bd84d38c252b5bbf63465b56e11aed28c8c87878b8660405161177796959493929190612ba9565b60405180910390a150505063ffffffff9098166000908152601d6020526040812080546001600160a01b03191681556001810180546001600160b01b0319169055600281018290556003810182905560040155505050505050505050565b601054600160a01b900463ffffffff1681565b601d6020526000908152604090208054600180830154600284015460038501546004909501546001600160a01b039485169594831694600160a01b90930490930b9290919086565b611838612218565b600181810b900b6000908152600b602081905260408220805460ff191690558161186184612db1565b60010b60010b815260200190815260200160002060006101000a81548160ff0219169083151502179055507f0ad48029b5a777c16c44eb514377797a70850e93d05fabaffea42f2595440126816040516112df9190612ac3565b6010546001600160a01b031690565b6118d2612218565b6001600160a01b0381166118f85760405162461bcd60e51b815260040161055d906127ab565b61190181612257565b50565b600181810b900b6000908152600b602052604081205460ff166119395760405162461bcd60e51b815260040161055d90612759565b600083116119595760405162461bcd60e51b815260040161055d90612952565b60105460405163a35668bf60e01b81526000916001600160a01b03169063a35668bf9061198a90309060040161263c565b60206040518083038186803b1580156119a257600080fd5b505afa1580156119b6573d6000803e3d6000fd5b505050506040513d601f19601f820116820180604052508101906119da91906125c1565b600781905590506119ea81611c88565b60108054600160c01b900463ffffffff16906018611a0783612d8d565b91906101000a81548163ffffffff021916908363ffffffff160217905550506000808460010b13611a4d57611a48611a3e85612db1565b869060010b611d76565b611a5b565b611a5b85600186900b611d76565b90506000611a71611a6a611c28565b8390611d2d565b6040805160c0810182526001600160a01b03808c1682528a8116602080840191825260018b810b858701818152606087018b8152608088018a815260a089018e815260105463ffffffff600160c01b909104166000908152601d909752998620985189549089166001600160a01b0319918216178a5596518986018054945190960b61ffff16600160a01b0261ffff60a01b199190991693909716929092179590951695909517909155915160028501559151600384015592516004909201919091559192501315611b6c576015839055601354611b4f9083611d8e565b601355601454611b5f9082611d8e565b6014819055601655611ba8565b601a839055601754611b7e9083611d8e565b601755601854611b8e9082611d8e565b601855601954611b9e9082611d8e565b601955601854601b555b601254611bb59083611d8e565b6012556010546040517f561cdb01c3e4e301a13e882a3914d5d30dbb217e14dab8bfec1730111b32426091611c0291600160c01b90910463ffffffff16908a908a90869089908c90612b6d565b60405180910390a15050601054600160c01b900463ffffffff169150505b949350505050565b601854601954600091611c4e91611c459190610959906002611d76565b60145490611d8e565b611c615750670de0b6b3a76400006106e5565b6018546019546106e291611c7f91611c459190610959906002611d76565b60125490611d2d565b806011541415611c9757611901565b6011819055601354611cad576000601455611cc7565b601654601554611cc391906108c0908490611d2d565b6014555b601754611cdd5760006018819055601955611cf7565b601b54601a54611cf391906108c0908490611d2d565b6018555b6014546018546040517fc6642d24d84e7f3d36ca39f5cce10e75639d9b158d5193aa350e2f900653e4c0926112df928592612b08565b6000611d4a611d4484670de0b6b3a7640000611d76565b83611d6a565b9392505050565b6000611d4a611d608484611d76565b670de0b6b3a76400005b6000611d4a8284612c36565b6000611d4a8284612ccd565b6000611d4a8284612d2b565b6000611d4a8284612bf0565b611df08363a9059cbb60e01b8484604051602401611db99291906126b5565b60408051601f198184030181529190526020810180516001600160e01b03166001600160e01b0319909316929092179091526122a7565b505050565b601e5460ff1615611e185760405162461bcd60e51b815260040161055d90612aa5565b601e805460ff19166001179055600a546040516370a0823160e01b81526000916001600160a01b0316906370a0823190611e5690309060040161263c565b60206040518083038186803b158015611e6e57600080fd5b505afa158015611e82573d6000803e3d6000fd5b505050506040513d601f19601f82011682018060405250810190611ea691906125c1565b600a546040516327adaa4560e01b815291925033916327adaa4591611edb9186916001600160a01b0316908890600401612adb565b600060405180830381600087803b158015611ef557600080fd5b505af1158015611f09573d6000803e3d6000fd5b50505050611f208282611d8e90919063ffffffff16565b600a546040516370a0823160e01b81526001600160a01b03909116906370a0823190611f5090309060040161263c565b60206040518083038186803b158015611f6857600080fd5b505afa158015611f7c573d6000803e3d6000fd5b505050506040513d601f19601f82011682018060405250810190611fa091906125c1565b1015611fbe5760405162461bcd60e51b815260040161055d9061281e565b5050601e805460ff1916905550565b60008061200c6000846040015160010b13611ff8578360400151611ff090612db1565b60010b612001565b836040015160010b5b606085015190611d6a565b9050600061203761202c600c54670de0b6b3a76400006109249190612d2b565b606086015190611d82565b90506000846040015160010b13156120e957601a54601b5460009161208a9161205f91611d2d565b6109a26012546108c0866120848b60a001518c60800151611d2d90919063ffffffff16565b90611d2d565b60155460165491925060009161209f91611d2d565b9050808211156120dd576019546120ba5760001994506120d8565b6120d56120c78383611d82565b601954612084906002611d76565b94505b6120e2565b600094505b5050612212565b6015546016546000916120fc9190611d2d565b601a54601b5491925060009161211191611d2d565b90506000818311156121555761214e61213b61212d8486612d2b565b6012546108c0908890611d2d565b60a089015160808a01516109a291611d2d565b9050612190565b6121706121628484612d2b565b6012546108c0908790611d2d565b60a0880151608089015161218391611d2d565b61218d9190612cec565b90505b60006121bb60026121b56017600201546108c06012548a611d2d90919063ffffffff16565b90611d76565b60808901516121cb906002611d76565b6121d59190612cec565b90506000808313908213146121ed576000965061220d565b81612200670de0b6b3a764000083612c4a565b61220a9190612c08565b96505b505050505b50915091565b612220612339565b6001600160a01b0316612231611199565b6001600160a01b0316146111975760405162461bcd60e51b815260040161055d90612976565b600080546001600160a01b038381166001600160a01b0319831681178455604051919092169283917f8be0079c531659141344cd1fd0a4f28419497f9722a3daafe3b4186f6b6457e09190a35050565b60006122fc826040518060400160405280602081526020017f5361666545524332303a206c6f772d6c6576656c2063616c6c206661696c6564815250856001600160a01b031661233d9092919063ffffffff16565b905080516000148061231d57508080602001905181019061231d919061254d565b611df05760405162461bcd60e51b815260040161055d906129e2565b3390565b6060611c20848460008585600080866001600160a01b031685876040516123649190612620565b60006040518083038185875af1925050503d80600081146123a1576040519150601f19603f3d011682016040523d82523d6000602084013e6123a6565b606091505b50915091506123b7878383876123c2565b979650505050505050565b606083156123fc5782516123f5576123d985612406565b6123f55760405162461bcd60e51b815260040161055d906129ab565b5081611c20565b611c208383612415565b6001600160a01b03163b151590565b8151156124255781518083602001fd5b8060405162461bcd60e51b815260040161055d91906126d9565b8035600181900b8114610fa257600080fd5b803563ffffffff81168114610fa257600080fd5b600060208284031215612476578081fd5b8135611d4a81612dfd565b600060208284031215612492578081fd5b8151611d4a81612dfd565b600080604083850312156124af578081fd5b82356124ba81612dfd565b946020939093013593505050565b6000806000606084860312156124dc578081fd5b83356124e781612dfd565b9250602084013591506124fc6040850161243f565b90509250925092565b600080600060608486031215612519578283fd5b833561252481612dfd565b925061253260208501612451565b9150604084013561254281612dfd565b809150509250925092565b60006020828403121561255e578081fd5b81518015158114611d4a578182fd5b60006020828403121561257e578081fd5b611d4a8261243f565b600060208284031215612598578081fd5b813561ffff81168114611d4a578182fd5b6000602082840312156125ba578081fd5b5035919050565b6000602082840312156125d2578081fd5b5051919050565b6000602082840312156125ea578081fd5b611d4a82612451565b600080600060608486031215612607578283fd5b61261084612451565b9250602084013561253281612dfd565b60008251612632818460208701612d42565b9190910192915050565b6001600160a01b0391909116815260200190565b6001600160a01b03948516815292909316602083015260010b6040820152606081019190915260800190565b6001600160a01b03968716815294909516602085015260019290920b60408401526060830152608082015260a081019190915260c00190565b6001600160a01b03929092168252602082015260400190565b901515815260200190565b60006020825282518060208401526126f8816040850160208701612d42565b601f01601f19169190910160400192915050565b6020808252600e908201526d34b7103634b8bab4b230ba34b7b760911b604082015260600190565b6020808252600b908201526a2827a7a61d102122a3aaa760a91b604082015260600190565b6020808252600990820152683632bb32b61022b93960b91b604082015260600190565b6020808252601590820152742827a7a61d102727aa102827a7a610282620aca2a960591b604082015260600190565b60208082526026908201527f4f776e61626c653a206e6577206f776e657220697320746865207a65726f206160408201526564647265737360d01b606082015260800190565b602080825260139082015272444541444c494e453a20544f4f204541524c5960681b604082015260600190565b602080825260069082015265282a1022b93960d11b604082015260600190565b6020808252600890820152673ab9b2b91022b93960c11b604082015260600190565b6020808252600e908201526d1413105651548e8813d41153915160921b604082015260600190565b6020808252601690820152752827a7a61d102727aa102222a0a622a91027aba722a960511b604082015260600190565b60208082526010908201526f1b1a5c5d5a59185d1a5bdb8819985a5b60821b604082015260600190565b60208082526011908201527011115051131253914e881393d508115391607a1b604082015260600190565b6020808252600790820152663634b89022b93960c91b604082015260600190565b6020808252600a90820152693937baba32b91022b93960b11b604082015260600190565b6020808252600a908201526936b0b933b4b71022b93960b11b604082015260600190565b6020808252818101527f4f776e61626c653a2063616c6c6572206973206e6f7420746865206f776e6572604082015260600190565b6020808252601d908201527f416464726573733a2063616c6c20746f206e6f6e2d636f6e7472616374000000604082015260600190565b6020808252602a908201527f5361666545524332303a204552433230206f7065726174696f6e20646964206e6040820152691bdd081cdd58d8d9595960b21b606082015260800190565b60208082526010908201526f2827a7a61d102727aa102222a0a622a960811b604082015260600190565b6020808252601290820152713737b716b2bc34b9ba103837b9b4ba34b7b760711b604082015260600190565b6020808252600990820152681413d3d30e8811539160ba1b604082015260600190565b6020808252600490820152634c4f434b60e01b604082015260600190565b61ffff91909116815260200190565b90815260200190565b9283526001600160a01b03918216602084015216604082015260600190565b918252602082015260400190565b9283526020830191909152604082015260600190565b93845260208401929092526040830152606082015260800190565b948552602085019390935260408401919091526060830152608082015260a00190565b63ffffffff91909116815260200190565b63ffffffff9690961686526001600160a01b0394909416602086015260408501929092526060840152608083015260010b60a082015260c00190565b63ffffffff9690961686526001600160a01b0394909416602086015260408501929092526060840152608083015260a082015260c00190565b60ff91909116815260200190565b60008219821115612c0357612c03612dd1565b500190565b600082612c1757612c17612de7565b600160ff1b821460001984141615612c3157612c31612dd1565b500590565b600082612c4557612c45612de7565b500490565b60006001600160ff1b0381841382841380821686840486111615612c7057612c70612dd1565b600160ff1b84871282811687830589121615612c8e57612c8e612dd1565b858712925087820587128484161615612ca957612ca9612dd1565b87850587128184161615612cbf57612cbf612dd1565b505050929093029392505050565b6000816000190483118215151615612ce757612ce7612dd1565b500290565b60008083128015600160ff1b850184121615612d0a57612d0a612dd1565b6001600160ff1b0384018313811615612d2557612d25612dd1565b50500390565b600082821015612d3d57612d3d612dd1565b500390565b60005b83811015612d5d578181015183820152602001612d45565b83811115612d6c576000848401525b50505050565b6000600019821415612d8657612d86612dd1565b5060010190565b600063ffffffff80831681811415612da757612da7612dd1565b6001019392505050565b60008160010b617fff19811415612dca57612dca612dd1565b9003919050565b634e487b7160e01b600052601160045260246000fd5b634e487b7160e01b600052601260045260246000fd5b6001600160a01b038116811461190157600080fdfea26469706673582212207a1753a32baf12844ed0776f0f3b9b4b78344cf71be3e63a890bf498da315d9e64736f6c63430008010033",
  "linkReferences": {},
  "deployedLinkReferences": {}
}