{
  "_format": "hh-sol-artifact-1",
  "contractName": "Price",
  "sourceName": "contracts/Price.sol",
  "abi": [
    {
      "inputs": [],
      "stateMutability": "nonpayable",
      "type": "constructor"
    },
    {
      "inputs": [
        {
          "internalType": "address",
          "name": "",
          "type": "address"
        }
      ],
      "name": "chainLinkOracles",
      "outputs": [
        {
          "internalType": "address",
          "name": "oracle",
          "type": "address"
        },
        {
          "internalType": "uint8",
          "name": "decimals",
          "type": "uint8"
        }
      ],
      "stateMutability": "view",
      "type": "function"
    },
    {
      "inputs": [],
      "name": "getPrice",
      "outputs": [
        {
          "internalType": "uint256",
          "name": "",
          "type": "uint256"
        }
      ],
      "stateMutability": "view",
      "type": "function"
    },
    {
      "inputs": [
        {
          "internalType": "address",
          "name": "pool",
          "type": "address"
        }
      ],
      "name": "getPriceAndUpdate",
      "outputs": [
        {
          "internalType": "uint256",
          "name": "",
          "type": "uint256"
        }
      ],
      "stateMutability": "nonpayable",
      "type": "function"
    },
    {
      "inputs": [
        {
          "internalType": "address",
          "name": "pool",
          "type": "address"
        }
      ],
      "name": "getPriceChainLink",
      "outputs": [
        {
          "internalType": "uint256",
          "name": "",
          "type": "uint256"
        }
      ],
      "stateMutability": "view",
      "type": "function"
    },
    {
      "inputs": [
        {
          "internalType": "address",
          "name": "",
          "type": "address"
        }
      ],
      "name": "oracleTypes",
      "outputs": [
        {
          "internalType": "uint8",
          "name": "",
          "type": "uint8"
        }
      ],
      "stateMutability": "view",
      "type": "function"
    },
    {
      "inputs": [
        {
          "internalType": "address",
          "name": "oracle",
          "type": "address"
        },
        {
          "internalType": "uint8",
          "name": "typ",
          "type": "uint8"
        },
        {
          "internalType": "bool",
          "name": "reverse",
          "type": "bool"
        }
      ],
      "name": "setPool",
      "outputs": [],
      "stateMutability": "nonpayable",
      "type": "function"
    },
    {
      "inputs": [
        {
          "internalType": "address",
          "name": "",
          "type": "address"
        }
      ],
      "name": "v2Oracles",
      "outputs": [
        {
          "internalType": "uint32",
          "name": "timestampOld",
          "type": "uint32"
        },
        {
          "internalType": "uint256",
          "name": "priceCumulativeOld",
          "type": "uint256"
        },
        {
          "internalType": "uint256",
          "name": "priceOld",
          "type": "uint256"
        },
        {
          "internalType": "int8",
          "name": "precisionDiff",
          "type": "int8"
        },
        {
          "internalType": "address",
          "name": "oracle",
          "type": "address"
        },
        {
          "internalType": "bool",
          "name": "reverse",
          "type": "bool"
        }
      ],
      "stateMutability": "view",
      "type": "function"
    },
    {
      "inputs": [
        {
          "internalType": "address",
          "name": "",
          "type": "address"
        }
      ],
      "name": "v3Oracles",
      "outputs": [
        {
          "internalType": "int8",
          "name": "precisionDiff",
          "type": "int8"
        },
        {
          "internalType": "address",
          "name": "oracle",
          "type": "address"
        },
        {
          "internalType": "bool",
          "name": "reverse",
          "type": "bool"
        }
      ],
      "stateMutability": "view",
      "type": "function"
    }
  ],
  "bytecode": "0x60806040523480156200001157600080fd5b5060408051808201909152603c815260006020820152620000379060049060026200003e565b506200010b565b82805482825590600052602060002090600701600890048101928215620000e25791602002820160005b83821115620000ae57835183826101000a81548163ffffffff021916908363ffffffff160217905550926020019260040160208160030104928301926001030262000068565b8015620000e05782816101000a81549063ffffffff0219169055600401602081600301049283019260010302620000ae565b505b50620000f0929150620000f4565b5090565b5b80821115620000f05760008155600101620000f5565b61240c806200011b6000396000f3fe608060405234801561001057600080fd5b50600436106100885760003560e01c806398d5fdca1161005b57806398d5fdca1461010e578063a35668bf14610116578063d460c87014610129578063f30729c41461014957610088565b80630832b8341461008d57806310cd5325146100b6578063266980a1146100cb578063661aaa36146100ed575b600080fd5b6100a061009b366004611b0a565b61016e565b6040516100ad9190611f74565b60405180910390f35b6100c96100c4366004611b42565b6101fe565b005b6100de6100d9366004611b0a565b610b23565b6040516100ad93929190611eec565b6101006100fb366004611b0a565b610b53565b6040516100ad929190611cd9565b6100a0610b7a565b6100a0610124366004611b0a565b610bec565b61013c610137366004611b0a565b610caf565b6040516100ad9190611fbb565b61015c610157366004611b0a565b610cc4565b6040516100ad96959493929190611f7d565b6001600160a01b03811660009081526020819052604081205460ff1660018114156101a25761019c83610d0e565b506101f3565b8060ff16600214156101d75760008060006101bb610de0565b9250925092506101cc8383836111a4565b93506101f992505050565b8060ff16600314156101f3576101eb6112d2565b9150506101f9565b60009150505b919050565b8160ff166001148061021357508160ff166002145b8061022157508160ff166003145b6102465760405162461bcd60e51b815260040161023d90611f12565b60405180910390fd5b336000908152602081905260409020805460ff191660ff84169081179091556001141561034e576040518060400160405280846001600160a01b03168152602001846001600160a01b031663313ce5676040518163ffffffff1660e01b815260040160206040518083038186803b1580156102c057600080fd5b505afa1580156102d4573d6000803e3d6000fd5b505050506040513d601f19601f820116820180604052508101906102f89190611cb3565b60ff908116909152336000908152600160209081526040909120835181549490920151909216600160a01b0260ff60a01b196001600160a01b03929092166001600160a01b031990941693909317169190911790555b8160ff166002148061036357508160ff166004145b156108b65760008390506000816001600160a01b0316630dfe16816040518163ffffffff1660e01b815260040160206040518083038186803b1580156103a857600080fd5b505afa1580156103bc573d6000803e3d6000fd5b505050506040513d601f19601f820116820180604052508101906103e09190611b26565b90506000826001600160a01b031663d21220a76040518163ffffffff1660e01b815260040160206040518083038186803b15801561041d57600080fd5b505afa158015610431573d6000803e3d6000fd5b505050506040513d601f19601f820116820180604052508101906104559190611b26565b90506000816001600160a01b031663313ce5676040518163ffffffff1660e01b815260040160206040518083038186803b15801561049257600080fd5b505afa1580156104a6573d6000803e3d6000fd5b505050506040513d601f19601f820116820180604052508101906104ca9190611cb3565b836001600160a01b031663313ce5676040518163ffffffff1660e01b815260040160206040518083038186803b15801561050357600080fd5b505afa158015610517573d6000803e3d6000fd5b505050506040513d601f19601f8201168201806040525081019061053b9190611cb3565b6105459190612275565b90506000806000806000886001600160a01b0316630902f1ac6040518163ffffffff1660e01b815260040160606040518083038186803b15801561058857600080fd5b505afa15801561059c573d6000803e3d6000fd5b505050506040513d601f19601f820116820180604052508101906105c09190611c70565b919650945092506001600160701b038516158015906105e857506000846001600160701b0316115b6106045760405162461bcd60e51b815260040161023d90611f37565b89156106ae57886001600160a01b0316635a3d54936040518163ffffffff1660e01b815260040160206040518083038186803b15801561064357600080fd5b505afa158015610657573d6000803e3d6000fd5b505050506040513d601f19601f8201168201806040525081019061067b9190611c58565b91506001600160701b038085169061069d908716670de0b6b3a76400006115d7565b6106a791906120a6565b905061074e565b886001600160a01b0316635909c0d56040518163ffffffff1660e01b815260040160206040518083038186803b1580156106e757600080fd5b505afa1580156106fb573d6000803e3d6000fd5b505050506040513d601f19601f8201168201806040525081019061071f9190611c58565b91506001600160701b0380861690610741908616670de0b6b3a76400006115d7565b61074b91906120a6565b90505b60008660000b13156107765761076f61076887600a61210f565b82906115d7565b9050610797565b61077f8661235a565b61078a90600a61210f565b61079490826120a6565b90505b6040518060c001604052808463ffffffff1681526020018381526020018281526020018760000b81526020018d6001600160a01b031681526020018b151581525060026000336001600160a01b03166001600160a01b0316815260200190815260200160002060008201518160000160006101000a81548163ffffffff021916908363ffffffff160217905550602082015181600101556040820151816002015560608201518160030160006101000a81548160ff021916908360000b60ff16021790555060808201518160030160016101000a8154816001600160a01b0302191690836001600160a01b0316021790555060a08201518160030160156101000a81548160ff0219169083151502179055509050505050505050505050505b8160ff1660031415610b1e576000836001600160a01b0316630dfe16816040518163ffffffff1660e01b815260040160206040518083038186803b1580156108fd57600080fd5b505afa158015610911573d6000803e3d6000fd5b505050506040513d601f19601f820116820180604052508101906109359190611b26565b90506000846001600160a01b031663d21220a76040518163ffffffff1660e01b815260040160206040518083038186803b15801561097257600080fd5b505afa158015610986573d6000803e3d6000fd5b505050506040513d601f19601f820116820180604052508101906109aa9190611b26565b90506000816001600160a01b031663313ce5676040518163ffffffff1660e01b815260040160206040518083038186803b1580156109e757600080fd5b505afa1580156109fb573d6000803e3d6000fd5b505050506040513d601f19601f82011682018060405250810190610a1f9190611cb3565b836001600160a01b031663313ce5676040518163ffffffff1660e01b815260040160206040518083038186803b158015610a5857600080fd5b505afa158015610a6c573d6000803e3d6000fd5b505050506040513d601f19601f82011682018060405250810190610a909190611cb3565b610a9a9190612275565b60408051606081018252600092830b81526001600160a01b03808a166020808401918252891515848601908152338752600390915293852092518354915194511515600160a81b0260ff60a81b199590931661010002610100600160a81b03199190960b60ff1660ff19909216919091171693909317919091169190911790555050505b505050565b6003602052600090815260408120549081900b9061010081046001600160a01b031690600160a81b900460ff1683565b6001602052600090815260409020546001600160a01b03811690600160a01b900460ff1682565b3360009081526020819052604081205460ff166001811415610ba557610b9f33610d0e565b50610be3565b8060ff1660021415610bc7576000610bbb610de0565b9450610be99350505050565b8060ff1660031415610be357610bdb6112d2565b915050610be9565b60009150505b90565b6001600160a01b038181166000908152600160209081526040808320815180830183529054948516808252600160a01b90950460ff168184015281516350d25bcd60e01b8152915193949093859391926350d25bcd926004808301939192829003018186803b158015610c5e57600080fd5b505afa158015610c72573d6000803e3d6000fd5b505050506040513d601f19601f82011682018060405250810190610c969190611c58565b9050610ca7816402540be400612207565b949350505050565b60006020819052908152604090205460ff1681565b60026020819052600091825260408220805460018201549282015460039092015463ffffffff9091169381900b9061010081046001600160a01b031690600160a81b900460ff1686565b6001600160a01b038181166000908152600160209081526040808320815180830183529054948516808252600160a01b90950460ff168184015281516350d25bcd60e01b8152915193949093859391926350d25bcd926004808301939192829003018186803b158015610d8057600080fd5b505afa158015610d94573d6000803e3d6000fd5b505050506040513d601f19601f82011682018060405250810190610db89190611c58565b905081602001516012610dcb91906122e8565b610dd690600a61210f565b610ca79082612207565b336000908152600260208181526040808420815160c081018352815463ffffffff168152600182015493810193909352928301548282015260039092015480840b840b840b6060808401919091526001600160a01b0361010083041660808401819052600160a81b90920460ff16151560a08401528351630240bc6b60e21b815293518594859493928592839283928692630902f1ac926004808201939291829003018186803b158015610e9357600080fd5b505afa158015610ea7573d6000803e3d6000fd5b505050506040513d601f19601f82011682018060405250810190610ecb9190611c70565b919450925090506000610ee36401000000004261230b565b9050856000015163ffffffff168163ffffffff161415610f1957856020015181876040015198509850985050505050505061119f565b8560a0015115610ffb57846001600160a01b0316635a3d54936040518163ffffffff1660e01b815260040160206040518083038186803b158015610f5c57600080fd5b505afa158015610f70573d6000803e3d6000fd5b505050506040513d601f19601f82011682018060405250810190610f949190611c58565b98508063ffffffff168263ffffffff161015610ff657610ff3610fb783836122c3565b63ffffffff16610fd985610fca886115ea565b6001600160e01b031690611609565b6001600160e01b0316610fec9190612207565b8a9061161e565b98505b6110a5565b846001600160a01b0316635909c0d56040518163ffffffff1660e01b815260040160206040518083038186803b15801561103457600080fd5b505afa158015611048573d6000803e3d6000fd5b505050506040513d601f19601f8201168201806040525081019061106c9190611c58565b98508063ffffffff168263ffffffff1610156110a5576110a261108f83836122c3565b63ffffffff16610fd986610fca876115ea565b98505b85516000906110b490836122c3565b63ffffffff166110d188602001518c61162a90919063ffffffff16565b6110db91906120a6565b9050780197d4df19d605767337e9f14d3eec8920e40000000000000081111561111b57611114607082901c670de0b6b3a76400006115d7565b9750611134565b607061112f82670de0b6b3a76400006115d7565b901c97505b6000876060015160000b13156111665761115f8760600151600a611158919061210f565b89906115d7565b975061118c565b86606001516111749061235a565b61117f90600a61210f565b61118990896120a6565b97505b8761119657600197505b50965050505050505b909192565b336000908152600260208181526040808420815160c081018352815463ffffffff90811680835260018401549583019590955294820154928101929092526003015480850b850b90940b60608201526001600160a01b036101008504166080820152600160a81b90930460ff16151560a084015290841614156112275750610b1e565b602081810194855263ffffffff9384168252604080830193845233600090815260029283905290812083518154961663ffffffff1990961695909517855594516001850155915191830191909155606081015160039092018054608083015160a0909301511515600160a81b0260ff60a81b196001600160a01b0390941661010002610100600160a81b03199590960b60ff1660ff1990921691909117939093169390931716179055565b3360009081526003602090815260408083208151606081018352905480850b850b850b82526001600160a01b03610100820416938201849052600160a81b900460ff16151581830152905163883bdbfd60e01b81529091839163883bdbfd9061133f906004908101611cf5565b60006040518083038186803b15801561135757600080fd5b505afa15801561136b573d6000803e3d6000fd5b505050506040513d6000823e601f3d908101601f191682016040526113939190810190611b90565b509050600061140b603c60030b836000815181106113c157634e487b7160e01b600052603260045260246000fd5b6020026020010151846001815181106113ea57634e487b7160e01b600052603260045260246000fd5b60200260200101516113fc9190612226565b6114069190612042565b611636565b6001600160a01b0316905060006f4b3b4ca85a86c47a098a22400000000082111561145a57611453606061144784670de0b6b3a76400006115d7565b606085901c911c6115d7565b905061152f565b8351600090810b13801561149e5750835161149b9061147d9060ff166002611a37565b61148890600a612100565b6b204fce5e3e2502611000000090611a37565b82105b156114dd57835160c0906114d4906114ba9060ff16600a612100565b6114ce670de0b6b3a76400008187806115d7565b906115d7565b901c905061152f565b6b204fce5e3e250261100000008210156115095760c06114d4670de0b6b3a76400006114ce85806115d7565b606061152a670de0b6b3a76400008261152286806115d7565b901c906115d7565b901c90505b8351600090810b13156115735783516115509061147d9060000b6002611a37565b82111561156e57835161156b906107689060000b600a612100565b90505b6115a7565b8351600090810b12156115a75783516115a4906115929060000b612340565b61159d90600a612100565b8290611a37565b90505b806115b0575060015b8360400151156115c6576115c381611a43565b90505b806115cf575060015b935050505090565b60006115e38284612207565b9392505050565b6000611603600160701b6001600160701b0384166121e1565b92915050565b60006115e36001600160701b03831684612080565b60006115e3828461202a565b60006115e382846122ac565b60008060008360020b1261164d578260020b61165a565b8260020b61165a90612340565b9050611669620d89e71961231f565b60020b81111561168b5760405162461bcd60e51b815260040161023d90611f59565b60006001821661169f57600160801b6116b1565b6ffffcb933bd6fad37aa2d162d1a5940015b70ffffffffffffffffffffffffffffffffff16905060028216156116f05760806116eb826ffff97272373d413259a46990580e213a612207565b901c90505b600482161561171a576080611715826ffff2e50f5f656932ef12357cf3c7fdcc612207565b901c90505b600882161561174457608061173f826fffe5caca7e10e4e61c3624eaa0941cd0612207565b901c90505b601082161561176e576080611769826fffcb9843d60f6159c9db58835c926644612207565b901c90505b6020821615611798576080611793826fff973b41fa98c081472e6896dfb254c0612207565b901c90505b60408216156117c25760806117bd826fff2ea16466c96a3843ec78b326b52861612207565b901c90505b60808216156117ec5760806117e7826ffe5dee046a99a2a811c461f1969c3053612207565b901c90505b610100821615611817576080611812826ffcbe86c7900a88aedcffc83b479aa3a4612207565b901c90505b61020082161561184257608061183d826ff987a7253ac413176f2b074cf7815e54612207565b901c90505b61040082161561186d576080611868826ff3392b0822b70005940c7a398e4b70f3612207565b901c90505b610800821615611898576080611893826fe7159475a2c29b7443b29c7fa6e889d9612207565b901c90505b6110008216156118c35760806118be826fd097f3bdfd2022b8845ad8f792aa5825612207565b901c90505b6120008216156118ee5760806118e9826fa9f746462d870fdf8a65dc1f90e061e5612207565b901c90505b614000821615611919576080611914826f70d869a156d2a1b890bb3df62baf32f7612207565b901c90505b61800082161561194457608061193f826f31be135f97d08fd981231505542fcfa6612207565b901c90505b6201000082161561197057608061196b826f09aa508b5b7a84e1c677de54f3e99bc9612207565b901c90505b6202000082161561199b576080611996826e5d6af8dedb81196699c329225ee604612207565b901c90505b620400008216156119c55760806119c0826d2216e584f5fa1ea926041bedfe98612207565b901c90505b620800008216156119ed5760806119e8826b048a170391f7dc42444e8fa2612207565b901c90505b60008460020b1315611a0857611a05816000196120a6565b90505b611a176401000000008261230b565b15611a23576001611a26565b60005b610ca79060ff16602083901c61202a565b60006115e382846120a6565b600080611a596002670de0b6b3a764000061210f565b90506000611a68846002611a37565b9050610ca784611a78838561161e565b90611a37565b600082601f830112611a8e578081fd5b81516020611aa3611a9e83611ffa565b611fc9565b8281528181019085830183850287018401881015611abf578586fd5b855b85811015611ae6578151611ad4816123af565b84529284019290840190600101611ac1565b5090979650505050505050565b80516001600160701b03811681146101f957600080fd5b600060208284031215611b1b578081fd5b81356115e3816123af565b600060208284031215611b37578081fd5b81516115e3816123af565b600080600060608486031215611b56578182fd5b8335611b61816123af565b92506020840135611b71816123c7565b915060408401358015158114611b85578182fd5b809150509250925092565b60008060408385031215611ba2578182fd5b825167ffffffffffffffff80821115611bb9578384fd5b818501915085601f830112611bcc578384fd5b81516020611bdc611a9e83611ffa565b82815281810190858301838502870184018b1015611bf8578889fd5b8896505b84871015611c285780518060060b8114611c1457898afd5b835260019690960195918301918301611bfc565b5091880151919650909350505080821115611c41578283fd5b50611c4e85828601611a7e565b9150509250929050565b600060208284031215611c69578081fd5b5051919050565b600080600060608486031215611c84578283fd5b611c8d84611af3565b9250611c9b60208501611af3565b9150604084015163ffffffff81168114611b85578182fd5b600060208284031215611cc4578081fd5b81516115e3816123c7565b63ffffffff169052565b6001600160a01b0392909216825260ff16602082015260400190565b60006020808301818452808554611d0c8184611f74565b9150611d178761201e565b9250845b81600782011015611dd257835463ffffffff611d3985828416611ccf565b611d4987860182848a1c16611ccf565b6040611d5b8187018385841c16611ccf565b506060611d6e8187018385841c16611ccf565b506080611d818187018385841c16611ccf565b5060a0611d948187018385841c16611ccf565b5060c0611da78187018385841c16611ccf565b505060e0611db981860183831c611ccf565b5050600193909301926101009290920191600801611d1b565b92549281811015611df557611ded8363ffffffff8616611ccf565b918401916001015b81811015611e1757611e0f8363ffffffff86881c16611ccf565b918401916001015b81811015611e3a57611e328363ffffffff8660401c16611ccf565b918401916001015b81811015611e5d57611e558363ffffffff8660601c16611ccf565b918401916001015b81811015611e8057611e788363ffffffff8660801c16611ccf565b918401916001015b81811015611ea357611e9b8363ffffffff8660a01c16611ccf565b918401916001015b81811015611ec657611ebe8363ffffffff8660c01c16611ccf565b918401916001015b81811015611ee057611edb838560e01c611ccf565b918401915b50909695505050505050565b60009390930b83526001600160a01b039190911660208301521515604082015260600190565b6020808252600b908201526a0756e6b6e6f776e207479760ac1b604082015260600190565b6020808252600890820152671b9bdd081a5b9a5d60c21b604082015260600190565b6020808252600190820152601560fa1b604082015260600190565b90815260200190565b63ffffffff9690961686526020860194909452604085019290925260000b60608401526001600160a01b03166080830152151560a082015260c00190565b60ff91909116815260200190565b604051601f8201601f1916810167ffffffffffffffff81118282101715611ff257611ff2612399565b604052919050565b600067ffffffffffffffff82111561201457612014612399565b5060209081020190565b60009081526020902090565b6000821982111561203d5761203d61236d565b500190565b60008160060b8360060b8061205957612059612383565b667fffffffffffff198214600019821416156120775761207761236d565b90059392505050565b60006001600160e01b038381168061209a5761209a612383565b92169190910492915050565b6000826120b5576120b5612383565b500490565b80825b60018086116120cc57506120f7565b8187048211156120de576120de61236d565b808616156120eb57918102915b9490941c9380026120bd565b94509492505050565b60006115e3600019848461211d565b60006115e360001960ff8516845b60008261212c575060016115e3565b81612139575060006115e3565b816001811461214f576002811461215957612186565b60019150506115e3565b60ff84111561216a5761216a61236d565b6001841b9150848211156121805761218061236d565b506115e3565b5060208310610133831016604e8410600b84101617156121b9575081810a838111156121b4576121b461236d565b6115e3565b6121c684848460016120ba565b8086048211156121d8576121d861236d565b02949350505050565b60006001600160e01b03828116848216811515828404821116156121d8576121d861236d565b60008160001904831182151516156122215761222161236d565b500290565b60008160060b8360060b82811281667fffffffffffff19018312811516156122505761225061236d565b81667fffffffffffff01831381161561226b5761226b61236d565b5090039392505050565b600081810b83820b8281128015607f198301841216156122975761229761236d565b81607f01831381161561226b5761226b61236d565b6000828210156122be576122be61236d565b500390565b600063ffffffff838116908316818110156122e0576122e061236d565b039392505050565b600060ff821660ff8416808210156123025761230261236d565b90039392505050565b60008261231a5761231a612383565b500690565b60008160020b627fffff198114156123395761233961236d565b9003919050565b6000600160ff1b8214156123565761235661236d565b0390565b600081810b607f19811415612339576123395b634e487b7160e01b600052601160045260246000fd5b634e487b7160e01b600052601260045260246000fd5b634e487b7160e01b600052604160045260246000fd5b6001600160a01b03811681146123c457600080fd5b50565b60ff811681146123c457600080fdfea2646970667358221220e31fcedfb77bc4d4e2810571039d1012491ef4a08196baab78bfdc06887710ba64736f6c63430008010033",
  "linkReferences": {},
  "deployedLinkReferences": {}
}