{
  "contractName": "Price",
  "abi": [
    {
      "inputs": [],
      "stateMutability": "nonpayable",
      "type": "constructor"
    },
    {
      "inputs": [
        {
          "internalType": "address",
          "name": "",
          "type": "address"
        }
      ],
      "name": "chainLinkOracles",
      "outputs": [
        {
          "internalType": "address",
          "name": "oracle",
          "type": "address"
        },
        {
          "internalType": "uint8",
          "name": "decimals",
          "type": "uint8"
        }
      ],
      "stateMutability": "view",
      "type": "function"
    },
    {
      "inputs": [
        {
          "internalType": "address",
          "name": "",
          "type": "address"
        }
      ],
      "name": "oracleTypes",
      "outputs": [
        {
          "internalType": "uint8",
          "name": "",
          "type": "uint8"
        }
      ],
      "stateMutability": "view",
      "type": "function"
    },
    {
      "inputs": [
        {
          "internalType": "address",
          "name": "",
          "type": "address"
        }
      ],
      "name": "v2Oracles",
      "outputs": [
        {
          "internalType": "uint32",
          "name": "timestampOld",
          "type": "uint32"
        },
        {
          "internalType": "uint256",
          "name": "priceCumulativeOld",
          "type": "uint256"
        },
        {
          "internalType": "uint256",
          "name": "priceOld",
          "type": "uint256"
        },
        {
          "internalType": "int8",
          "name": "precisionDiff",
          "type": "int8"
        },
        {
          "internalType": "address",
          "name": "oracle",
          "type": "address"
        },
        {
          "internalType": "bool",
          "name": "reverse",
          "type": "bool"
        }
      ],
      "stateMutability": "view",
      "type": "function"
    },
    {
      "inputs": [
        {
          "internalType": "address",
          "name": "",
          "type": "address"
        }
      ],
      "name": "v3Oracles",
      "outputs": [
        {
          "internalType": "int8",
          "name": "precisionDiff",
          "type": "int8"
        },
        {
          "internalType": "address",
          "name": "oracle",
          "type": "address"
        },
        {
          "internalType": "bool",
          "name": "reverse",
          "type": "bool"
        }
      ],
      "stateMutability": "view",
      "type": "function"
    },
    {
      "inputs": [
        {
          "internalType": "address",
          "name": "oracle",
          "type": "address"
        },
        {
          "internalType": "uint8",
          "name": "typ",
          "type": "uint8"
        },
        {
          "internalType": "bool",
          "name": "reverse",
          "type": "bool"
        }
      ],
      "name": "setPool",
      "outputs": [],
      "stateMutability": "nonpayable",
      "type": "function"
    },
    {
      "inputs": [],
      "name": "getPrice",
      "outputs": [
        {
          "internalType": "uint256",
          "name": "",
          "type": "uint256"
        }
      ],
      "stateMutability": "view",
      "type": "function"
    },
    {
      "inputs": [],
      "name": "getPriceAndUpdate",
      "outputs": [
        {
          "internalType": "uint256",
          "name": "",
          "type": "uint256"
        }
      ],
      "stateMutability": "nonpayable",
      "type": "function"
    }
  ],
  "bytecode": "0x60806040523480156200001157600080fd5b5060408051808201909152603c815260006020820152620000379060049060026200003e565b506200010b565b82805482825590600052602060002090600701600890048101928215620000e25791602002820160005b83821115620000ae57835183826101000a81548163ffffffff021916908363ffffffff160217905550926020019260040160208160030104928301926001030262000068565b8015620000e05782816101000a81549063ffffffff0219169055600401602081600301049283019260010302620000ae565b505b50620000f0929150620000f4565b5090565b5b80821115620000f05760008155600101620000f5565b6122d6806200011b6000396000f3fe608060405234801561001057600080fd5b506004361061006d5760003560e01c806310cd5325146100725780631bde345614610087578063266980a1146100a5578063661aaa36146100c757806398d5fdca146100e8578063d460c870146100f0578063f30729c414610110575b600080fd5b610085610080366004611a0c565b610135565b005b61008f610a5a565b60405161009c9190611e3e565b60405180910390f35b6100b86100b33660046119d4565b610ade565b60405161009c93929190611db6565b6100da6100d53660046119d4565b610b0e565b60405161009c929190611ba3565b61008f610b35565b6101036100fe3660046119d4565b610b7b565b60405161009c9190611e85565b61012361011e3660046119d4565b610b90565b60405161009c96959493929190611e47565b8160ff166001148061014a57508160ff166002145b8061015857508160ff166003145b61017d5760405162461bcd60e51b815260040161017490611ddc565b60405180910390fd5b336000908152602081905260409020805460ff191660ff841690811790915560011415610285576040518060400160405280846001600160a01b03168152602001846001600160a01b031663313ce5676040518163ffffffff1660e01b815260040160206040518083038186803b1580156101f757600080fd5b505afa15801561020b573d6000803e3d6000fd5b505050506040513d601f19601f8201168201806040525081019061022f9190611b7d565b60ff908116909152336000908152600160209081526040909120835181549490920151909216600160a01b0260ff60a01b196001600160a01b03929092166001600160a01b031990941693909317169190911790555b8160ff166002148061029a57508160ff166004145b156107ed5760008390506000816001600160a01b0316630dfe16816040518163ffffffff1660e01b815260040160206040518083038186803b1580156102df57600080fd5b505afa1580156102f3573d6000803e3d6000fd5b505050506040513d601f19601f8201168201806040525081019061031791906119f0565b90506000826001600160a01b031663d21220a76040518163ffffffff1660e01b815260040160206040518083038186803b15801561035457600080fd5b505afa158015610368573d6000803e3d6000fd5b505050506040513d601f19601f8201168201806040525081019061038c91906119f0565b90506000816001600160a01b031663313ce5676040518163ffffffff1660e01b815260040160206040518083038186803b1580156103c957600080fd5b505afa1580156103dd573d6000803e3d6000fd5b505050506040513d601f19601f820116820180604052508101906104019190611b7d565b836001600160a01b031663313ce5676040518163ffffffff1660e01b815260040160206040518083038186803b15801561043a57600080fd5b505afa15801561044e573d6000803e3d6000fd5b505050506040513d601f19601f820116820180604052508101906104729190611b7d565b61047c919061213f565b90506000806000806000886001600160a01b0316630902f1ac6040518163ffffffff1660e01b815260040160606040518083038186803b1580156104bf57600080fd5b505afa1580156104d3573d6000803e3d6000fd5b505050506040513d601f19601f820116820180604052508101906104f79190611b3a565b919650945092506001600160701b0385161580159061051f57506000846001600160701b0316115b61053b5760405162461bcd60e51b815260040161017490611e01565b89156105e557886001600160a01b0316635a3d54936040518163ffffffff1660e01b815260040160206040518083038186803b15801561057a57600080fd5b505afa15801561058e573d6000803e3d6000fd5b505050506040513d601f19601f820116820180604052508101906105b29190611b22565b91506001600160701b03808516906105d4908716670de0b6b3a7640000610bda565b6105de9190611f70565b9050610685565b886001600160a01b0316635909c0d56040518163ffffffff1660e01b815260040160206040518083038186803b15801561061e57600080fd5b505afa158015610632573d6000803e3d6000fd5b505050506040513d601f19601f820116820180604052508101906106569190611b22565b91506001600160701b0380861690610678908616670de0b6b3a7640000610bda565b6106829190611f70565b90505b60008660000b13156106ad576106a661069f87600a611fd9565b8290610bda565b90506106ce565b6106b686612224565b6106c190600a611fd9565b6106cb9082611f70565b90505b6040518060c001604052808463ffffffff1681526020018381526020018281526020018760000b81526020018d6001600160a01b031681526020018b151581525060026000336001600160a01b03166001600160a01b0316815260200190815260200160002060008201518160000160006101000a81548163ffffffff021916908363ffffffff160217905550602082015181600101556040820151816002015560608201518160030160006101000a81548160ff021916908360000b60ff16021790555060808201518160030160016101000a8154816001600160a01b0302191690836001600160a01b0316021790555060a08201518160030160156101000a81548160ff0219169083151502179055509050505050505050505050505b8160ff1660031415610a55576000836001600160a01b0316630dfe16816040518163ffffffff1660e01b815260040160206040518083038186803b15801561083457600080fd5b505afa158015610848573d6000803e3d6000fd5b505050506040513d601f19601f8201168201806040525081019061086c91906119f0565b90506000846001600160a01b031663d21220a76040518163ffffffff1660e01b815260040160206040518083038186803b1580156108a957600080fd5b505afa1580156108bd573d6000803e3d6000fd5b505050506040513d601f19601f820116820180604052508101906108e191906119f0565b90506000816001600160a01b031663313ce5676040518163ffffffff1660e01b815260040160206040518083038186803b15801561091e57600080fd5b505afa158015610932573d6000803e3d6000fd5b505050506040513d601f19601f820116820180604052508101906109569190611b7d565b836001600160a01b031663313ce5676040518163ffffffff1660e01b815260040160206040518083038186803b15801561098f57600080fd5b505afa1580156109a3573d6000803e3d6000fd5b505050506040513d601f19601f820116820180604052508101906109c79190611b7d565b6109d1919061213f565b60408051606081018252600092830b81526001600160a01b03808a166020808401918252891515848601908152338752600390915293852092518354915194511515600160a81b0260ff60a81b199590931661010002610100600160a81b03199190960b60ff1660ff19909216919091171693909317919091169190911790555050505b505050565b3360009081526020819052604081205460ff166001811415610a8457610a7e610bed565b50610ad5565b8060ff1660021415610ab9576000806000610a9d610cc1565b925092509250610aae83838361107f565b9350610adb92505050565b8060ff1660031415610ad557610acd6111ad565b915050610adb565b60009150505b90565b6003602052600090815260408120549081900b9061010081046001600160a01b031690600160a81b900460ff1683565b6001602052600090815260409020546001600160a01b03811690600160a01b900460ff1682565b3360009081526020819052604081205460ff166001811415610b5957610a7e610bed565b8060ff1660021415610ab9576000610b6f610cc1565b9450610adb9350505050565b60006020819052908152604090205460ff1681565b60026020819052600091825260408220805460018201549282015460039092015463ffffffff9091169381900b9061010081046001600160a01b031690600160a81b900460ff1686565b6000610be682846120d1565b9392505050565b3360009081526001602090815260408083208151808301835290546001600160a01b038116808352600160a01b90910460ff168285015282516350d25bcd60e01b815292519193859391926350d25bcd926004808201939291829003018186803b158015610c5a57600080fd5b505afa158015610c6e573d6000803e3d6000fd5b505050506040513d601f19601f82011682018060405250810190610c929190611b22565b905081602001516012610ca591906121b2565b610cb090600a611fd9565b610cba90826120d1565b9250505090565b336000908152600260208181526040808420815160c081018352815463ffffffff168152600182015493810193909352928301548282015260039092015480840b840b840b6060808401919091526001600160a01b0361010083041660808401819052600160a81b90920460ff16151560a08401528351630240bc6b60e21b815293518594859493928592839283928692630902f1ac926004808201939291829003018186803b158015610d7457600080fd5b505afa158015610d88573d6000803e3d6000fd5b505050506040513d601f19601f82011682018060405250810190610dac9190611b3a565b919450925090506000610dc3600160201b426121d5565b9050856000015163ffffffff168163ffffffff161415610df957856020015181876040015198509850985050505050505061107a565b8560a0015115610edb57846001600160a01b0316635a3d54936040518163ffffffff1660e01b815260040160206040518083038186803b158015610e3c57600080fd5b505afa158015610e50573d6000803e3d6000fd5b505050506040513d601f19601f82011682018060405250810190610e749190611b22565b98508063ffffffff168263ffffffff161015610ed657610ed3610e97838361218d565b63ffffffff16610eb985610eaa886114b2565b6001600160e01b0316906114d1565b6001600160e01b0316610ecc91906120d1565b8a906114e6565b98505b610f85565b846001600160a01b0316635909c0d56040518163ffffffff1660e01b815260040160206040518083038186803b158015610f1457600080fd5b505afa158015610f28573d6000803e3d6000fd5b505050506040513d601f19601f82011682018060405250810190610f4c9190611b22565b98508063ffffffff168263ffffffff161015610f8557610f82610f6f838361218d565b63ffffffff16610eb986610eaa876114b2565b98505b8551600090610f94908361218d565b63ffffffff16610fb188602001518c6114f290919063ffffffff16565b610fbb9190611f70565b90507065f537c675815d9ccdfa7c534fbb224839603a1b811115610ff657610fef607082901c670de0b6b3a7640000610bda565b975061100f565b607061100a82670de0b6b3a7640000610bda565b901c97505b6000876060015160000b13156110415761103a8760600151600a6110339190611fd9565b8990610bda565b9750611067565b866060015161104f90612224565b61105a90600a611fd9565b6110649089611f70565b97505b8761107157600197505b50965050505050505b909192565b336000908152600260208181526040808420815160c081018352815463ffffffff90811680835260018401549583019590955294820154928101929092526003015480850b850b90940b60608201526001600160a01b036101008504166080820152600160a81b90930460ff16151560a084015290841614156111025750610a55565b602081810194855263ffffffff9384168252604080830193845233600090815260029283905290812083518154961663ffffffff1990961695909517855594516001850155915191830191909155606081015160039092018054608083015160a0909301511515600160a81b0260ff60a81b196001600160a01b0390941661010002610100600160a81b03199590960b60ff1660ff1990921691909117939093169390931716179055565b3360009081526003602090815260408083208151606081018352905480850b850b850b82526001600160a01b03610100820416938201849052600160a81b900460ff16151581830152905163883bdbfd60e01b81529091839163883bdbfd9061121a906004908101611bbf565b60006040518083038186803b15801561123257600080fd5b505afa158015611246573d6000803e3d6000fd5b505050506040513d6000823e601f3d908101601f1916820160405261126e9190810190611a5a565b50905060006112e6603c60030b8360008151811061129c57634e487b7160e01b600052603260045260246000fd5b6020026020010151846001815181106112c557634e487b7160e01b600052603260045260246000fd5b60200260200101516112d791906120f0565b6112e19190611f0c565b6114fe565b6001600160a01b0316905060006f4b3b4ca85a86c47a098a2240000000008211156113355761132e606061132284670de0b6b3a7640000610bda565b606085901c911c610bda565b905061140a565b8351600090810b13801561137957508351611376906113589060ff1660026118fc565b61136390600a611fca565b6b204fce5e3e25026110000000906118fc565b82105b156113b857835160c0906113af906113959060ff16600a611fca565b6113a9670de0b6b3a7640000818780610bda565b90610bda565b901c905061140a565b6b204fce5e3e250261100000008210156113e45760c06113af670de0b6b3a76400006113a98580610bda565b6060611405670de0b6b3a7640000826113fd8680610bda565b901c90610bda565b901c90505b8351600090810b131561144e57835161142b906113589060000b60026118fc565b8211156114495783516114469061069f9060000b600a611fca565b90505b611482565b8351600090810b121561148257835161147f9061146d9060000b61220a565b61147890600a611fca565b82906118fc565b90505b8061148b575060015b8360400151156114a15761149e81611908565b90505b806114aa575060015b935050505090565b60006114cb600160701b6001600160701b0384166120ab565b92915050565b6000610be66001600160701b03831684611f4a565b6000610be68284611ef4565b6000610be68284612176565b60008060008360020b12611515578260020b611522565b8260020b6115229061220a565b9050611531620d89e7196121e9565b60020b8111156115535760405162461bcd60e51b815260040161017490611e23565b60006001821661156757600160801b611579565b6ffffcb933bd6fad37aa2d162d1a5940015b6001600160881b0316905060028216156115ae5760806115a9826ffff97272373d413259a46990580e213a6120d1565b901c90505b60048216156115d85760806115d3826ffff2e50f5f656932ef12357cf3c7fdcc6120d1565b901c90505b60088216156116025760806115fd826fffe5caca7e10e4e61c3624eaa0941cd06120d1565b901c90505b601082161561162c576080611627826fffcb9843d60f6159c9db58835c9266446120d1565b901c90505b6020821615611656576080611651826fff973b41fa98c081472e6896dfb254c06120d1565b901c90505b604082161561168057608061167b826fff2ea16466c96a3843ec78b326b528616120d1565b901c90505b60808216156116aa5760806116a5826ffe5dee046a99a2a811c461f1969c30536120d1565b901c90505b6101008216156116d55760806116d0826ffcbe86c7900a88aedcffc83b479aa3a46120d1565b901c90505b6102008216156117005760806116fb826ff987a7253ac413176f2b074cf7815e546120d1565b901c90505b61040082161561172b576080611726826ff3392b0822b70005940c7a398e4b70f36120d1565b901c90505b610800821615611756576080611751826fe7159475a2c29b7443b29c7fa6e889d96120d1565b901c90505b61100082161561178157608061177c826fd097f3bdfd2022b8845ad8f792aa58256120d1565b901c90505b6120008216156117ac5760806117a7826fa9f746462d870fdf8a65dc1f90e061e56120d1565b901c90505b6140008216156117d75760806117d2826f70d869a156d2a1b890bb3df62baf32f76120d1565b901c90505b6180008216156118025760806117fd826f31be135f97d08fd981231505542fcfa66120d1565b901c90505b6201000082161561182e576080611829826f09aa508b5b7a84e1c677de54f3e99bc96120d1565b901c90505b62020000821615611859576080611854826e5d6af8dedb81196699c329225ee6046120d1565b901c90505b6204000082161561188357608061187e826d2216e584f5fa1ea926041bedfe986120d1565b901c90505b620800008216156118ab5760806118a6826b048a170391f7dc42444e8fa26120d1565b901c90505b60008460020b13156118c6576118c381600019611f70565b90505b6118d4600160201b826121d5565b156118e05760016118e3565b60005b6118f49060ff16602083901c611ef4565b949350505050565b6000610be68284611f70565b60008061191e6002670de0b6b3a7640000611fd9565b9050600061192d8460026118fc565b90506118f48461193d83856114e6565b906118fc565b919050565b600082601f830112611958578081fd5b8151602061196d61196883611ec4565b611e93565b8281528181019085830183850287018401881015611989578586fd5b855b858110156119b057815161199e81612279565b8452928401929084019060010161198b565b5090979650505050505050565b80516001600160701b038116811461194357600080fd5b6000602082840312156119e5578081fd5b8135610be681612279565b600060208284031215611a01578081fd5b8151610be681612279565b600080600060608486031215611a20578182fd5b8335611a2b81612279565b92506020840135611a3b81612291565b915060408401358015158114611a4f578182fd5b809150509250925092565b60008060408385031215611a6c578182fd5b825167ffffffffffffffff80821115611a83578384fd5b818501915085601f830112611a96578384fd5b81516020611aa661196883611ec4565b82815281810190858301838502870184018b1015611ac2578889fd5b8896505b84871015611af25780518060060b8114611ade57898afd5b835260019690960195918301918301611ac6565b5091880151919650909350505080821115611b0b578283fd5b50611b1885828601611948565b9150509250929050565b600060208284031215611b33578081fd5b5051919050565b600080600060608486031215611b4e578283fd5b611b57846119bd565b9250611b65602085016119bd565b9150604084015163ffffffff81168114611a4f578182fd5b600060208284031215611b8e578081fd5b8151610be681612291565b63ffffffff169052565b6001600160a01b0392909216825260ff16602082015260400190565b60006020808301818452808554611bd68184611e3e565b9150611be187611ee8565b9250845b81600782011015611c9c57835463ffffffff611c0385828416611b99565b611c1387860182848a1c16611b99565b6040611c258187018385841c16611b99565b506060611c388187018385841c16611b99565b506080611c4b8187018385841c16611b99565b5060a0611c5e8187018385841c16611b99565b5060c0611c718187018385841c16611b99565b505060e0611c8381860183831c611b99565b5050600193909301926101009290920191600801611be5565b92549281811015611cbf57611cb78363ffffffff8616611b99565b918401916001015b81811015611ce157611cd98363ffffffff86881c16611b99565b918401916001015b81811015611d0457611cfc8363ffffffff8660401c16611b99565b918401916001015b81811015611d2757611d1f8363ffffffff8660601c16611b99565b918401916001015b81811015611d4a57611d428363ffffffff8660801c16611b99565b918401916001015b81811015611d6d57611d658363ffffffff8660a01c16611b99565b918401916001015b81811015611d9057611d888363ffffffff8660c01c16611b99565b918401916001015b81811015611daa57611da5838560e01c611b99565b918401915b50909695505050505050565b60009390930b83526001600160a01b039190911660208301521515604082015260600190565b6020808252600b908201526a0756e6b6e6f776e207479760ac1b604082015260600190565b6020808252600890820152671b9bdd081a5b9a5d60c21b604082015260600190565b6020808252600190820152601560fa1b604082015260600190565b90815260200190565b63ffffffff9690961686526020860194909452604085019290925260000b60608401526001600160a01b03166080830152151560a082015260c00190565b60ff91909116815260200190565b604051601f8201601f1916810167ffffffffffffffff81118282101715611ebc57611ebc612263565b604052919050565b600067ffffffffffffffff821115611ede57611ede612263565b5060209081020190565b60009081526020902090565b60008219821115611f0757611f07612237565b500190565b60008160060b8360060b80611f2357611f2361224d565b667fffffffffffff19821460001982141615611f4157611f41612237565b90059392505050565b60006001600160e01b0383811680611f6457611f6461224d565b92169190910492915050565b600082611f7f57611f7f61224d565b500490565b80825b6001808611611f965750611fc1565b818704821115611fa857611fa8612237565b80861615611fb557918102915b9490941c938002611f87565b94509492505050565b6000610be66000198484611fe7565b6000610be660001960ff8516845b600082611ff657506001610be6565b8161200357506000610be6565b8160018114612019576002811461202357612050565b6001915050610be6565b60ff84111561203457612034612237565b6001841b91508482111561204a5761204a612237565b50610be6565b5060208310610133831016604e8410600b8410161715612083575081810a8381111561207e5761207e612237565b610be6565b6120908484846001611f84565b8086048211156120a2576120a2612237565b02949350505050565b60006001600160e01b03828116848216811515828404821116156120a2576120a2612237565b60008160001904831182151516156120eb576120eb612237565b500290565b60008160060b8360060b82811281667fffffffffffff190183128115161561211a5761211a612237565b81667fffffffffffff01831381161561213557612135612237565b5090039392505050565b600081810b83820b8281128015607f1983018412161561216157612161612237565b81607f01831381161561213557612135612237565b60008282101561218857612188612237565b500390565b600063ffffffff838116908316818110156121aa576121aa612237565b039392505050565b600060ff821660ff8416808210156121cc576121cc612237565b90039392505050565b6000826121e4576121e461224d565b500690565b60008160020b627fffff1981141561220357612203612237565b9003919050565b6000600160ff1b82141561222057612220612237565b0390565b600081810b607f19811415612203576122035b634e487b7160e01b600052601160045260246000fd5b634e487b7160e01b600052601260045260246000fd5b634e487b7160e01b600052604160045260246000fd5b6001600160a01b038116811461228e57600080fd5b50565b60ff8116811461228e57600080fdfea2646970667358221220def972c51d203bf02fc01747c60978a2c2e0e4a905b26be08f1281299caadf8964736f6c63430008010033",
  "immutableReferences": {},
  "source": "pragma solidity ^0.8.0;\n\nimport \"@chainlink/contracts/src/v0.5/interfaces/AggregatorV2V3Interface.sol\";\nimport \"@openzeppelin/contracts/token/ERC20/ERC20.sol\";\nimport \"@openzeppelin/contracts/utils/math/SafeMath.sol\";\nimport \"@uniswap/v3-core/contracts/interfaces/IUniswapV3Pool.sol\";\nimport \"@uniswap/v2-core/contracts/interfaces/IUniswapV2Pair.sol\";\nimport \"@uniswap/v3-core/contracts/libraries/SafeCast.sol\";\nimport \"./libraries/TickMath.sol\";\nimport './libraries/UQ112x112.sol';\nimport \"./interfaces/IPrice.sol\";\n\ncontract Price is IPrice {\n\n    using SafeMath for uint256;\n    using SafeCast for uint256;\n    using UQ112x112 for uint224;\n\n    struct ChainLinkInfo {\n        address oracle;\n        uint8 decimals;\n    }\n\n    struct V2Info {\n        uint32 timestampOld;\n        uint256 priceCumulativeOld;\n        uint256 priceOld;\n        int8  precisionDiff;\n        address oracle;\n        bool reverse;\n    }\n\n    struct V3Info {\n        int8  precisionDiff;\n        address oracle;\n        bool reverse;\n    }\n\n    using SafeMath for uint256;\n\n    mapping(address => uint8) public override oracleTypes;\n    mapping(address => ChainLinkInfo) public override chainLinkOracles;\n    mapping(address => V2Info) public override v2Oracles;\n    mapping(address => V3Info) public override v3Oracles;\n\n    uint32[] private _secondsAgo;\n    uint32 private constant OBSERVE_TIME_INTERVAL = 60;\n\n    uint256 private constant E18 = 1e18;\n    uint256 private constant E28 = 1e28;\n    uint256 private constant E38 = 1e38;\n    uint256 private constant E58 = 1e58;\n\n    constructor() {\n        _secondsAgo = [OBSERVE_TIME_INTERVAL, 0];\n    }\n\n    function setPool(address oracle, uint8 typ, bool reverse) external override {\n        require(typ == 1 || typ == 2 || typ == 3 , \"unknown typ\");\n        oracleTypes[msg.sender] = typ;\n\n        if (typ == 1) {\n            chainLinkOracles[msg.sender] = ChainLinkInfo(oracle, AggregatorV2V3Interface(oracle).decimals());\n        }\n\n        if (typ == 2 || typ == 4) {\n            IUniswapV2Pair pair = IUniswapV2Pair(oracle);\n            address token0 = pair.token0();\n            address token1 = pair.token1();\n            int8 precisionDiff = int8(ERC20(token0).decimals()) - int8(ERC20(token1).decimals());\n\n            uint112 reverse0;\n            uint112 reverse1;\n            uint32 timestampOld;\n            uint256 priceCumulativeOld;\n            uint256 priceOld;\n\n            (reverse0, reverse1, timestampOld) = pair.getReserves();\n            require(reverse0 > 0 && reverse1 > 0, \"not init\");\n\n            if (reverse) {\n                priceCumulativeOld = pair.price1CumulativeLast();\n                priceOld = uint256(reverse0).mul(E18) / reverse1;\n            } else {\n                priceCumulativeOld = pair.price0CumulativeLast();\n                priceOld = uint256(reverse1).mul(E18) / reverse0;\n            }\n\n            if (precisionDiff > 0) {\n                priceOld = priceOld.mul(10**uint8(precisionDiff));\n            } else {\n                priceOld = priceOld / 10**uint8(-precisionDiff);\n            }\n\n            v2Oracles[msg.sender] = V2Info(timestampOld, priceCumulativeOld, priceOld, precisionDiff, oracle, reverse);\n        }\n\n        if (typ == 3) {\n            address token0 = IUniswapV3Pool(oracle).token0();\n            address token1 = IUniswapV3Pool(oracle).token1();\n            int8 precisionDiff = int8(ERC20(token0).decimals()) - int8(ERC20(token1).decimals());\n            v3Oracles[msg.sender] = V3Info(precisionDiff, oracle, reverse);\n        }\n\n    }\n\n    function getPrice() external override view returns (uint256) {\n\n        uint8 typ = oracleTypes[msg.sender];\n\n        if (typ == 1) {\n            _getPriceChainLink();\n        } else if (typ == 2) {\n            (, , uint256 price) = _getPriceV2();\n            return price;\n        } else if (typ == 3) {\n            return _getPriceV3();\n        }\n\n        return 0;\n    }\n\n    function getPriceAndUpdate() external override returns (uint256) {\n        uint8 typ = oracleTypes[msg.sender];\n\n        if (typ == 1) {\n            _getPriceChainLink();\n        } else if (typ == 2) {\n            (uint256 priceCumulativeLast, uint32 timestampLast, uint256 price) = _getPriceV2();\n            _updatePriceV2(priceCumulativeLast, timestampLast, price);\n            return price;\n        } else if (typ == 3) {\n            return _getPriceV3();\n        }\n\n        return 0;\n    }\n\n    function _getPriceChainLink() internal view returns (uint256) {\n        ChainLinkInfo memory info = chainLinkOracles[msg.sender];\n        uint256 price = uint256(AggregatorV2V3Interface(info.oracle).latestAnswer());\n\n        return price * (10 ** (18 - info.decimals));\n    }\n\n    function _getPriceV2() internal view returns (uint256 priceCumulativeLast, uint32 , uint256 price) {\n        V2Info memory info = v2Oracles[msg.sender];\n\n        IUniswapV2Pair pair = IUniswapV2Pair(info.oracle);\n        (uint112 _reserve0, uint112 _reserve1, uint32 timestampLast) = pair.getReserves();\n\n        uint32 blockTimestamp = uint32(block.timestamp % 2**32);\n        if (blockTimestamp == info.timestampOld) {\n            return (info.priceCumulativeOld, blockTimestamp, info.priceOld);\n        }\n\n        if (info.reverse) {\n            priceCumulativeLast = pair.price1CumulativeLast();\n            if (timestampLast < blockTimestamp) {\n                priceCumulativeLast = priceCumulativeLast.add(uint(UQ112x112.encode(_reserve0).uqdiv(_reserve1)) * (blockTimestamp - timestampLast));\n            }\n        } else {\n            priceCumulativeLast = pair.price0CumulativeLast();\n            if (timestampLast < blockTimestamp) {\n                priceCumulativeLast = priceCumulativeLast.add(uint(UQ112x112.encode(_reserve1).uqdiv(_reserve0)) * (blockTimestamp - timestampLast));\n            }\n        }\n\n        uint256 priceX112 = priceCumulativeLast.sub(info.priceCumulativeOld) / (blockTimestamp - info.timestampOld);\n\n        if (priceX112 > E58) {\n            price = (priceX112 >> 112).mul(E18);\n        } else {\n            price = (priceX112.mul(E18)) >> 112;\n        }\n\n        if (info.precisionDiff > 0) {\n            price = price.mul(10**uint8(info.precisionDiff));\n        } else {\n            price = price / 10**uint8(-info.precisionDiff);\n        }\n\n        if (price == 0) {\n            price = 1;\n        }\n\n        return (priceCumulativeLast, blockTimestamp, price);\n    }\n\n    function _getPriceV3() internal view returns (uint256) {\n        V3Info memory info = v3Oracles[msg.sender];\n\n        (int56[] memory tickCumulatives, ) = IUniswapV3Pool(info.oracle).observe(\n            _secondsAgo\n        );\n        uint256 sqrtPriceX96 = uint256(\n            TickMath.getSqrtRatioAtTick(\n                int24((tickCumulatives[1] - tickCumulatives[0]) /\n                int56(int32(OBSERVE_TIME_INTERVAL)))\n            )\n        );\n        uint256 price;\n        if (sqrtPriceX96 > E38) {\n            price = (sqrtPriceX96 >> 96).mul((sqrtPriceX96.mul(E18)) >> 96);\n        } else if (\n            info.precisionDiff > 0 &&\n            sqrtPriceX96 < E28.div(10**(uint256(uint8(info.precisionDiff)).div(2)))\n        ) {\n            price =\n            (\n            sqrtPriceX96.mul(sqrtPriceX96).mul(E18).mul(\n                10**uint256(uint8(info.precisionDiff))\n            )\n            ) >>\n            192;\n        } else if (sqrtPriceX96 < E28) {\n            price = (sqrtPriceX96.mul(sqrtPriceX96).mul(E18)) >> 192;\n        } else {\n            price = (((sqrtPriceX96.mul(sqrtPriceX96)) >> 96).mul(E18)) >> 96;\n        }\n\n        if (info.precisionDiff > 0) {\n            if (sqrtPriceX96 > E28.div(10**(uint256(int256(info.precisionDiff)).div(2)))) {\n                price = price.mul(10**uint256(int256(info.precisionDiff)));\n            }\n        } else if (info.precisionDiff < 0) {\n            price = price.div(10**uint256(-int256(info.precisionDiff)));\n        }\n        if (price == 0) {\n            price = 1;\n        }\n        if (info.reverse) {\n            price = _priceReciprocal(price);\n        }\n        if (price == 0) {\n            price = 1;\n        }\n        return price;\n    }\n\n    function _updatePriceV2(uint256 priceCumulativeLast, uint32 timestampLast, uint256 price) internal {\n        V2Info memory info = v2Oracles[msg.sender];\n\n        if (timestampLast == info.timestampOld) {\n            return;\n        }\n\n        info.priceCumulativeOld = priceCumulativeLast;\n        info.timestampOld = timestampLast;\n        info.priceOld = price;\n        v2Oracles[msg.sender] = info;\n    }\n\n    function _priceReciprocal(uint256 originalPrice) internal pure returns (uint256)\n    {\n        uint256 one = E18**2;\n        uint256 half = originalPrice.div(2);\n        return half.add(one).div(originalPrice);\n    }\n}\n",
  "sourcePath": "/Users/pengyun/Desktop/code/qilin-pvp-v2/contracts/Price.sol",
  "compiler": {
    "name": "solc",
    "version": "0.8.1+commit.df193b15.Emscripten.clang"
  },
  "schemaVersion": "3.3.3",
  "updatedAt": "2023-05-16T06:26:32.145Z",
  "devdoc": {
    "kind": "dev",
    "methods": {},
    "version": 1
  },
  "userdoc": {
    "kind": "user",
    "methods": {},
    "version": 1
  }
}