{
  "_format": "hh-sol-artifact-1",
  "contractName": "Price",
  "sourceName": "contracts/Price.sol",
  "abi": [
    {
      "inputs": [],
      "stateMutability": "nonpayable",
      "type": "constructor"
    },
    {
      "inputs": [
        {
          "internalType": "address",
          "name": "",
          "type": "address"
        }
      ],
      "name": "chainLinkOracles",
      "outputs": [
        {
          "internalType": "address",
          "name": "oracle",
          "type": "address"
        },
        {
          "internalType": "uint8",
          "name": "decimals",
          "type": "uint8"
        }
      ],
      "stateMutability": "view",
      "type": "function"
    },
    {
      "inputs": [],
      "name": "getPrice",
      "outputs": [
        {
          "internalType": "uint256",
          "name": "",
          "type": "uint256"
        }
      ],
      "stateMutability": "view",
      "type": "function"
    },
    {
      "inputs": [],
      "name": "getPriceAndUpdate",
      "outputs": [
        {
          "internalType": "uint256",
          "name": "",
          "type": "uint256"
        }
      ],
      "stateMutability": "nonpayable",
      "type": "function"
    },
    {
      "inputs": [
        {
          "internalType": "address",
          "name": "pool",
          "type": "address"
        }
      ],
      "name": "getPriceChainLink",
      "outputs": [
        {
          "internalType": "uint256",
          "name": "",
          "type": "uint256"
        }
      ],
      "stateMutability": "view",
      "type": "function"
    },
    {
      "inputs": [
        {
          "internalType": "address",
          "name": "",
          "type": "address"
        }
      ],
      "name": "oracleTypes",
      "outputs": [
        {
          "internalType": "uint8",
          "name": "",
          "type": "uint8"
        }
      ],
      "stateMutability": "view",
      "type": "function"
    },
    {
      "inputs": [
        {
          "internalType": "address",
          "name": "oracle",
          "type": "address"
        },
        {
          "internalType": "uint8",
          "name": "typ",
          "type": "uint8"
        },
        {
          "internalType": "bool",
          "name": "reverse",
          "type": "bool"
        }
      ],
      "name": "setPool",
      "outputs": [],
      "stateMutability": "nonpayable",
      "type": "function"
    },
    {
      "inputs": [
        {
          "internalType": "address",
          "name": "",
          "type": "address"
        }
      ],
      "name": "v2Oracles",
      "outputs": [
        {
          "internalType": "uint32",
          "name": "timestampOld",
          "type": "uint32"
        },
        {
          "internalType": "uint256",
          "name": "priceCumulativeOld",
          "type": "uint256"
        },
        {
          "internalType": "uint256",
          "name": "priceOld",
          "type": "uint256"
        },
        {
          "internalType": "int8",
          "name": "precisionDiff",
          "type": "int8"
        },
        {
          "internalType": "address",
          "name": "oracle",
          "type": "address"
        },
        {
          "internalType": "bool",
          "name": "reverse",
          "type": "bool"
        }
      ],
      "stateMutability": "view",
      "type": "function"
    },
    {
      "inputs": [
        {
          "internalType": "address",
          "name": "",
          "type": "address"
        }
      ],
      "name": "v3Oracles",
      "outputs": [
        {
          "internalType": "int8",
          "name": "precisionDiff",
          "type": "int8"
        },
        {
          "internalType": "address",
          "name": "oracle",
          "type": "address"
        },
        {
          "internalType": "bool",
          "name": "reverse",
          "type": "bool"
        }
      ],
      "stateMutability": "view",
      "type": "function"
    }
  ],
  "bytecode": "0x60806040523480156200001157600080fd5b5060408051808201909152603c815260006020820152620000379060049060026200003e565b506200010b565b82805482825590600052602060002090600701600890048101928215620000e25791602002820160005b83821115620000ae57835183826101000a81548163ffffffff021916908363ffffffff160217905550926020019260040160208160030104928301926001030262000068565b8015620000e05782816101000a81549063ffffffff0219169055600401602081600301049283019260010302620000ae565b505b50620000f0929150620000f4565b5090565b5b80821115620000f05760008155600101620000f5565b6123cd806200011b6000396000f3fe608060405234801561001057600080fd5b50600436106100885760003560e01c806398d5fdca1161005b57806398d5fdca14610103578063a35668bf1461010b578063d460c8701461011e578063f30729c41461013e57610088565b806310cd53251461008d5780631bde3456146100a2578063266980a1146100c0578063661aaa36146100e2575b600080fd5b6100a061009b366004611b03565b610163565b005b6100aa610a88565b6040516100b79190611f35565b60405180910390f35b6100d36100ce366004611acb565b610b0d565b6040516100b793929190611ead565b6100f56100f0366004611acb565b610b3d565b6040516100b7929190611c9a565b6100aa610b64565b6100aa610119366004611acb565b610bab565b61013161012c366004611acb565b610c70565b6040516100b79190611f7c565b61015161014c366004611acb565b610c85565b6040516100b796959493929190611f3e565b8160ff166001148061017857508160ff166002145b8061018657508160ff166003145b6101ab5760405162461bcd60e51b81526004016101a290611ed3565b60405180910390fd5b336000908152602081905260409020805460ff191660ff8416908117909155600114156102b3576040518060400160405280846001600160a01b03168152602001846001600160a01b031663313ce5676040518163ffffffff1660e01b815260040160206040518083038186803b15801561022557600080fd5b505afa158015610239573d6000803e3d6000fd5b505050506040513d601f19601f8201168201806040525081019061025d9190611c74565b60ff908116909152336000908152600160209081526040909120835181549490920151909216600160a01b0260ff60a01b196001600160a01b03929092166001600160a01b031990941693909317169190911790555b8160ff16600214806102c857508160ff166004145b1561081b5760008390506000816001600160a01b0316630dfe16816040518163ffffffff1660e01b815260040160206040518083038186803b15801561030d57600080fd5b505afa158015610321573d6000803e3d6000fd5b505050506040513d601f19601f820116820180604052508101906103459190611ae7565b90506000826001600160a01b031663d21220a76040518163ffffffff1660e01b815260040160206040518083038186803b15801561038257600080fd5b505afa158015610396573d6000803e3d6000fd5b505050506040513d601f19601f820116820180604052508101906103ba9190611ae7565b90506000816001600160a01b031663313ce5676040518163ffffffff1660e01b815260040160206040518083038186803b1580156103f757600080fd5b505afa15801561040b573d6000803e3d6000fd5b505050506040513d601f19601f8201168201806040525081019061042f9190611c74565b836001600160a01b031663313ce5676040518163ffffffff1660e01b815260040160206040518083038186803b15801561046857600080fd5b505afa15801561047c573d6000803e3d6000fd5b505050506040513d601f19601f820116820180604052508101906104a09190611c74565b6104aa9190612236565b90506000806000806000886001600160a01b0316630902f1ac6040518163ffffffff1660e01b815260040160606040518083038186803b1580156104ed57600080fd5b505afa158015610501573d6000803e3d6000fd5b505050506040513d601f19601f820116820180604052508101906105259190611c31565b919650945092506001600160701b0385161580159061054d57506000846001600160701b0316115b6105695760405162461bcd60e51b81526004016101a290611ef8565b891561061357886001600160a01b0316635a3d54936040518163ffffffff1660e01b815260040160206040518083038186803b1580156105a857600080fd5b505afa1580156105bc573d6000803e3d6000fd5b505050506040513d601f19601f820116820180604052508101906105e09190611c19565b91506001600160701b0380851690610602908716670de0b6b3a7640000610ccf565b61060c9190612067565b90506106b3565b886001600160a01b0316635909c0d56040518163ffffffff1660e01b815260040160206040518083038186803b15801561064c57600080fd5b505afa158015610660573d6000803e3d6000fd5b505050506040513d601f19601f820116820180604052508101906106849190611c19565b91506001600160701b03808616906106a6908616670de0b6b3a7640000610ccf565b6106b09190612067565b90505b60008660000b13156106db576106d46106cd87600a6120d0565b8290610ccf565b90506106fc565b6106e48661231b565b6106ef90600a6120d0565b6106f99082612067565b90505b6040518060c001604052808463ffffffff1681526020018381526020018281526020018760000b81526020018d6001600160a01b031681526020018b151581525060026000336001600160a01b03166001600160a01b0316815260200190815260200160002060008201518160000160006101000a81548163ffffffff021916908363ffffffff160217905550602082015181600101556040820151816002015560608201518160030160006101000a81548160ff021916908360000b60ff16021790555060808201518160030160016101000a8154816001600160a01b0302191690836001600160a01b0316021790555060a08201518160030160156101000a81548160ff0219169083151502179055509050505050505050505050505b8160ff1660031415610a83576000836001600160a01b0316630dfe16816040518163ffffffff1660e01b815260040160206040518083038186803b15801561086257600080fd5b505afa158015610876573d6000803e3d6000fd5b505050506040513d601f19601f8201168201806040525081019061089a9190611ae7565b90506000846001600160a01b031663d21220a76040518163ffffffff1660e01b815260040160206040518083038186803b1580156108d757600080fd5b505afa1580156108eb573d6000803e3d6000fd5b505050506040513d601f19601f8201168201806040525081019061090f9190611ae7565b90506000816001600160a01b031663313ce5676040518163ffffffff1660e01b815260040160206040518083038186803b15801561094c57600080fd5b505afa158015610960573d6000803e3d6000fd5b505050506040513d601f19601f820116820180604052508101906109849190611c74565b836001600160a01b031663313ce5676040518163ffffffff1660e01b815260040160206040518083038186803b1580156109bd57600080fd5b505afa1580156109d1573d6000803e3d6000fd5b505050506040513d601f19601f820116820180604052508101906109f59190611c74565b6109ff9190612236565b60408051606081018252600092830b81526001600160a01b03808a166020808401918252891515848601908152338752600390915293852092518354915194511515600160a81b0260ff60a81b199590931661010002610100600160a81b03199190960b60ff1660ff19909216919091171693909317919091169190911790555050505b505050565b3360009081526020819052604081205460ff166001811415610ab357610aad33610ce2565b50610b04565b8060ff1660021415610ae8576000806000610acc610db4565b925092509250610add838383611178565b9350610b0a92505050565b8060ff1660031415610b0457610afc6112a6565b915050610b0a565b60009150505b90565b6003602052600090815260408120549081900b9061010081046001600160a01b031690600160a81b900460ff1683565b6001602052600090815260409020546001600160a01b03811690600160a01b900460ff1682565b3360009081526020819052604081205460ff166001811415610b8957610aad33610ce2565b8060ff1660021415610ae8576000610b9f610db4565b9450610b0a9350505050565b6001600160a01b038181166000908152600160209081526040808320815180830183529054948516808252600160a01b90950460ff168184015281516350d25bcd60e01b8152915193949093859391926350d25bcd926004808301939192829003018186803b158015610c1d57600080fd5b505afa158015610c31573d6000803e3d6000fd5b505050506040513d601f19601f82011682018060405250810190610c559190611c19565b9050610c66816402540be4006121c8565b925050505b919050565b60006020819052908152604090205460ff1681565b60026020819052600091825260408220805460018201549282015460039092015463ffffffff9091169381900b9061010081046001600160a01b031690600160a81b900460ff1686565b6000610cdb82846121c8565b9392505050565b6001600160a01b038181166000908152600160209081526040808320815180830183529054948516808252600160a01b90950460ff168184015281516350d25bcd60e01b8152915193949093859391926350d25bcd926004808301939192829003018186803b158015610d5457600080fd5b505afa158015610d68573d6000803e3d6000fd5b505050506040513d601f19601f82011682018060405250810190610d8c9190611c19565b905081602001516012610d9f91906122a9565b610daa90600a6120d0565b610c6690826121c8565b336000908152600260208181526040808420815160c081018352815463ffffffff168152600182015493810193909352928301548282015260039092015480840b840b840b6060808401919091526001600160a01b0361010083041660808401819052600160a81b90920460ff16151560a08401528351630240bc6b60e21b815293518594859493928592839283928692630902f1ac926004808201939291829003018186803b158015610e6757600080fd5b505afa158015610e7b573d6000803e3d6000fd5b505050506040513d601f19601f82011682018060405250810190610e9f9190611c31565b919450925090506000610eb7640100000000426122cc565b9050856000015163ffffffff168163ffffffff161415610eed578560200151818760400151985098509850505050505050611173565b8560a0015115610fcf57846001600160a01b0316635a3d54936040518163ffffffff1660e01b815260040160206040518083038186803b158015610f3057600080fd5b505afa158015610f44573d6000803e3d6000fd5b505050506040513d601f19601f82011682018060405250810190610f689190611c19565b98508063ffffffff168263ffffffff161015610fca57610fc7610f8b8383612284565b63ffffffff16610fad85610f9e886115ab565b6001600160e01b0316906115ca565b6001600160e01b0316610fc091906121c8565b8a906115df565b98505b611079565b846001600160a01b0316635909c0d56040518163ffffffff1660e01b815260040160206040518083038186803b15801561100857600080fd5b505afa15801561101c573d6000803e3d6000fd5b505050506040513d601f19601f820116820180604052508101906110409190611c19565b98508063ffffffff168263ffffffff161015611079576110766110638383612284565b63ffffffff16610fad86610f9e876115ab565b98505b85516000906110889083612284565b63ffffffff166110a588602001518c6115eb90919063ffffffff16565b6110af9190612067565b9050780197d4df19d605767337e9f14d3eec8920e4000000000000008111156110ef576110e8607082901c670de0b6b3a7640000610ccf565b9750611108565b607061110382670de0b6b3a7640000610ccf565b901c97505b6000876060015160000b131561113a576111338760600151600a61112c91906120d0565b8990610ccf565b9750611160565b86606001516111489061231b565b61115390600a6120d0565b61115d9089612067565b97505b8761116a57600197505b50965050505050505b909192565b336000908152600260208181526040808420815160c081018352815463ffffffff90811680835260018401549583019590955294820154928101929092526003015480850b850b90940b60608201526001600160a01b036101008504166080820152600160a81b90930460ff16151560a084015290841614156111fb5750610a83565b602081810194855263ffffffff9384168252604080830193845233600090815260029283905290812083518154961663ffffffff1990961695909517855594516001850155915191830191909155606081015160039092018054608083015160a0909301511515600160a81b0260ff60a81b196001600160a01b0390941661010002610100600160a81b03199590960b60ff1660ff1990921691909117939093169390931716179055565b3360009081526003602090815260408083208151606081018352905480850b850b850b82526001600160a01b03610100820416938201849052600160a81b900460ff16151581830152905163883bdbfd60e01b81529091839163883bdbfd90611313906004908101611cb6565b60006040518083038186803b15801561132b57600080fd5b505afa15801561133f573d6000803e3d6000fd5b505050506040513d6000823e601f3d908101601f191682016040526113679190810190611b51565b50905060006113df603c60030b8360008151811061139557634e487b7160e01b600052603260045260246000fd5b6020026020010151846001815181106113be57634e487b7160e01b600052603260045260246000fd5b60200260200101516113d091906121e7565b6113da9190612003565b6115f7565b6001600160a01b0316905060006f4b3b4ca85a86c47a098a22400000000082111561142e57611427606061141b84670de0b6b3a7640000610ccf565b606085901c911c610ccf565b9050611503565b8351600090810b1380156114725750835161146f906114519060ff1660026119f8565b61145c90600a6120c1565b6b204fce5e3e25026110000000906119f8565b82105b156114b157835160c0906114a89061148e9060ff16600a6120c1565b6114a2670de0b6b3a7640000818780610ccf565b90610ccf565b901c9050611503565b6b204fce5e3e250261100000008210156114dd5760c06114a8670de0b6b3a76400006114a28580610ccf565b60606114fe670de0b6b3a7640000826114f68680610ccf565b901c90610ccf565b901c90505b8351600090810b1315611547578351611524906114519060000b60026119f8565b82111561154257835161153f906106cd9060000b600a6120c1565b90505b61157b565b8351600090810b121561157b578351611578906115669060000b612301565b61157190600a6120c1565b82906119f8565b90505b80611584575060015b83604001511561159a5761159781611a04565b90505b806115a3575060015b935050505090565b60006115c4600160701b6001600160701b0384166121a2565b92915050565b6000610cdb6001600160701b03831684612041565b6000610cdb8284611feb565b6000610cdb828461226d565b60008060008360020b1261160e578260020b61161b565b8260020b61161b90612301565b905061162a620d89e7196122e0565b60020b81111561164c5760405162461bcd60e51b81526004016101a290611f1a565b60006001821661166057600160801b611672565b6ffffcb933bd6fad37aa2d162d1a5940015b70ffffffffffffffffffffffffffffffffff16905060028216156116b15760806116ac826ffff97272373d413259a46990580e213a6121c8565b901c90505b60048216156116db5760806116d6826ffff2e50f5f656932ef12357cf3c7fdcc6121c8565b901c90505b6008821615611705576080611700826fffe5caca7e10e4e61c3624eaa0941cd06121c8565b901c90505b601082161561172f57608061172a826fffcb9843d60f6159c9db58835c9266446121c8565b901c90505b6020821615611759576080611754826fff973b41fa98c081472e6896dfb254c06121c8565b901c90505b604082161561178357608061177e826fff2ea16466c96a3843ec78b326b528616121c8565b901c90505b60808216156117ad5760806117a8826ffe5dee046a99a2a811c461f1969c30536121c8565b901c90505b6101008216156117d85760806117d3826ffcbe86c7900a88aedcffc83b479aa3a46121c8565b901c90505b6102008216156118035760806117fe826ff987a7253ac413176f2b074cf7815e546121c8565b901c90505b61040082161561182e576080611829826ff3392b0822b70005940c7a398e4b70f36121c8565b901c90505b610800821615611859576080611854826fe7159475a2c29b7443b29c7fa6e889d96121c8565b901c90505b61100082161561188457608061187f826fd097f3bdfd2022b8845ad8f792aa58256121c8565b901c90505b6120008216156118af5760806118aa826fa9f746462d870fdf8a65dc1f90e061e56121c8565b901c90505b6140008216156118da5760806118d5826f70d869a156d2a1b890bb3df62baf32f76121c8565b901c90505b618000821615611905576080611900826f31be135f97d08fd981231505542fcfa66121c8565b901c90505b6201000082161561193157608061192c826f09aa508b5b7a84e1c677de54f3e99bc96121c8565b901c90505b6202000082161561195c576080611957826e5d6af8dedb81196699c329225ee6046121c8565b901c90505b62040000821615611986576080611981826d2216e584f5fa1ea926041bedfe986121c8565b901c90505b620800008216156119ae5760806119a9826b048a170391f7dc42444e8fa26121c8565b901c90505b60008460020b13156119c9576119c681600019612067565b90505b6119d8640100000000826122cc565b156119e45760016119e7565b60005b610c669060ff16602083901c611feb565b6000610cdb8284612067565b600080611a1a6002670de0b6b3a76400006120d0565b90506000611a298460026119f8565b9050610c6684611a3983856115df565b906119f8565b600082601f830112611a4f578081fd5b81516020611a64611a5f83611fbb565b611f8a565b8281528181019085830183850287018401881015611a80578586fd5b855b85811015611aa7578151611a9581612370565b84529284019290840190600101611a82565b5090979650505050505050565b80516001600160701b0381168114610c6b57600080fd5b600060208284031215611adc578081fd5b8135610cdb81612370565b600060208284031215611af8578081fd5b8151610cdb81612370565b600080600060608486031215611b17578182fd5b8335611b2281612370565b92506020840135611b3281612388565b915060408401358015158114611b46578182fd5b809150509250925092565b60008060408385031215611b63578182fd5b825167ffffffffffffffff80821115611b7a578384fd5b818501915085601f830112611b8d578384fd5b81516020611b9d611a5f83611fbb565b82815281810190858301838502870184018b1015611bb9578889fd5b8896505b84871015611be95780518060060b8114611bd557898afd5b835260019690960195918301918301611bbd565b5091880151919650909350505080821115611c02578283fd5b50611c0f85828601611a3f565b9150509250929050565b600060208284031215611c2a578081fd5b5051919050565b600080600060608486031215611c45578283fd5b611c4e84611ab4565b9250611c5c60208501611ab4565b9150604084015163ffffffff81168114611b46578182fd5b600060208284031215611c85578081fd5b8151610cdb81612388565b63ffffffff169052565b6001600160a01b0392909216825260ff16602082015260400190565b60006020808301818452808554611ccd8184611f35565b9150611cd887611fdf565b9250845b81600782011015611d9357835463ffffffff611cfa85828416611c90565b611d0a87860182848a1c16611c90565b6040611d1c8187018385841c16611c90565b506060611d2f8187018385841c16611c90565b506080611d428187018385841c16611c90565b5060a0611d558187018385841c16611c90565b5060c0611d688187018385841c16611c90565b505060e0611d7a81860183831c611c90565b5050600193909301926101009290920191600801611cdc565b92549281811015611db657611dae8363ffffffff8616611c90565b918401916001015b81811015611dd857611dd08363ffffffff86881c16611c90565b918401916001015b81811015611dfb57611df38363ffffffff8660401c16611c90565b918401916001015b81811015611e1e57611e168363ffffffff8660601c16611c90565b918401916001015b81811015611e4157611e398363ffffffff8660801c16611c90565b918401916001015b81811015611e6457611e5c8363ffffffff8660a01c16611c90565b918401916001015b81811015611e8757611e7f8363ffffffff8660c01c16611c90565b918401916001015b81811015611ea157611e9c838560e01c611c90565b918401915b50909695505050505050565b60009390930b83526001600160a01b039190911660208301521515604082015260600190565b6020808252600b908201526a0756e6b6e6f776e207479760ac1b604082015260600190565b6020808252600890820152671b9bdd081a5b9a5d60c21b604082015260600190565b6020808252600190820152601560fa1b604082015260600190565b90815260200190565b63ffffffff9690961686526020860194909452604085019290925260000b60608401526001600160a01b03166080830152151560a082015260c00190565b60ff91909116815260200190565b604051601f8201601f1916810167ffffffffffffffff81118282101715611fb357611fb361235a565b604052919050565b600067ffffffffffffffff821115611fd557611fd561235a565b5060209081020190565b60009081526020902090565b60008219821115611ffe57611ffe61232e565b500190565b60008160060b8360060b8061201a5761201a612344565b667fffffffffffff198214600019821416156120385761203861232e565b90059392505050565b60006001600160e01b038381168061205b5761205b612344565b92169190910492915050565b60008261207657612076612344565b500490565b80825b600180861161208d57506120b8565b81870482111561209f5761209f61232e565b808616156120ac57918102915b9490941c93800261207e565b94509492505050565b6000610cdb60001984846120de565b6000610cdb60001960ff8516845b6000826120ed57506001610cdb565b816120fa57506000610cdb565b8160018114612110576002811461211a57612147565b6001915050610cdb565b60ff84111561212b5761212b61232e565b6001841b9150848211156121415761214161232e565b50610cdb565b5060208310610133831016604e8410600b841016171561217a575081810a838111156121755761217561232e565b610cdb565b612187848484600161207b565b8086048211156121995761219961232e565b02949350505050565b60006001600160e01b03828116848216811515828404821116156121995761219961232e565b60008160001904831182151516156121e2576121e261232e565b500290565b60008160060b8360060b82811281667fffffffffffff19018312811516156122115761221161232e565b81667fffffffffffff01831381161561222c5761222c61232e565b5090039392505050565b600081810b83820b8281128015607f198301841216156122585761225861232e565b81607f01831381161561222c5761222c61232e565b60008282101561227f5761227f61232e565b500390565b600063ffffffff838116908316818110156122a1576122a161232e565b039392505050565b600060ff821660ff8416808210156122c3576122c361232e565b90039392505050565b6000826122db576122db612344565b500690565b60008160020b627fffff198114156122fa576122fa61232e565b9003919050565b6000600160ff1b8214156123175761231761232e565b0390565b600081810b607f198114156122fa576122fa5b634e487b7160e01b600052601160045260246000fd5b634e487b7160e01b600052601260045260246000fd5b634e487b7160e01b600052604160045260246000fd5b6001600160a01b038116811461238557600080fd5b50565b60ff8116811461238557600080fdfea2646970667358221220b9dbdc5ee8e1e5f6625cc3e24de14ccf4fba9cf3a5bdfc688195e0a43042366a64736f6c63430008010033",
  "linkReferences": {},
  "deployedLinkReferences": {}
}