{
  "contractName": "Router",
  "abi": [
    {
      "inputs": [
        {
          "internalType": "address",
          "name": "factory",
          "type": "address"
        },
        {
          "internalType": "address",
          "name": "wETH",
          "type": "address"
        }
      ],
      "stateMutability": "nonpayable",
      "type": "constructor"
    },
    {
      "stateMutability": "nonpayable",
      "type": "fallback"
    },
    {
      "inputs": [],
      "name": "_factory",
      "outputs": [
        {
          "internalType": "address",
          "name": "",
          "type": "address"
        }
      ],
      "stateMutability": "view",
      "type": "function"
    },
    {
      "inputs": [],
      "name": "_wETH",
      "outputs": [
        {
          "internalType": "address",
          "name": "",
          "type": "address"
        }
      ],
      "stateMutability": "view",
      "type": "function"
    },
    {
      "inputs": [
        {
          "internalType": "bytes[]",
          "name": "data",
          "type": "bytes[]"
        }
      ],
      "name": "multicall",
      "outputs": [
        {
          "internalType": "bytes[]",
          "name": "results",
          "type": "bytes[]"
        }
      ],
      "stateMutability": "payable",
      "type": "function"
    },
    {
      "stateMutability": "payable",
      "type": "receive"
    },
    {
      "inputs": [
        {
          "internalType": "uint256",
          "name": "amount",
          "type": "uint256"
        },
        {
          "internalType": "address",
          "name": "payToken",
          "type": "address"
        },
        {
          "internalType": "address",
          "name": "payer",
          "type": "address"
        }
      ],
      "name": "poolCallback",
      "outputs": [],
      "stateMutability": "payable",
      "type": "function"
    },
    {
      "inputs": [
        {
          "internalType": "address",
          "name": "pool",
          "type": "address"
        }
      ],
      "name": "getPrice",
      "outputs": [
        {
          "internalType": "uint256",
          "name": "",
          "type": "uint256"
        }
      ],
      "stateMutability": "view",
      "type": "function"
    },
    {
      "inputs": [
        {
          "internalType": "address",
          "name": "pool",
          "type": "address"
        },
        {
          "internalType": "uint256",
          "name": "margin",
          "type": "uint256"
        },
        {
          "internalType": "int16",
          "name": "level",
          "type": "int16"
        }
      ],
      "name": "submit",
      "outputs": [],
      "stateMutability": "nonpayable",
      "type": "function"
    },
    {
      "inputs": [
        {
          "internalType": "address",
          "name": "pool",
          "type": "address"
        },
        {
          "internalType": "uint256",
          "name": "deadLine",
          "type": "uint256"
        }
      ],
      "name": "open",
      "outputs": [],
      "stateMutability": "nonpayable",
      "type": "function"
    },
    {
      "inputs": [
        {
          "internalType": "address",
          "name": "pool",
          "type": "address"
        },
        {
          "internalType": "uint32",
          "name": "index",
          "type": "uint32"
        },
        {
          "internalType": "address",
          "name": "receipt",
          "type": "address"
        }
      ],
      "name": "close",
      "outputs": [],
      "stateMutability": "nonpayable",
      "type": "function"
    },
    {
      "inputs": [
        {
          "internalType": "address",
          "name": "pool",
          "type": "address"
        },
        {
          "internalType": "uint32",
          "name": "index",
          "type": "uint32"
        },
        {
          "internalType": "address",
          "name": "receipt",
          "type": "address"
        }
      ],
      "name": "liquidate",
      "outputs": [],
      "stateMutability": "nonpayable",
      "type": "function"
    },
    {
      "inputs": [
        {
          "internalType": "address",
          "name": "payToken",
          "type": "address"
        }
      ],
      "name": "withdrawERC20",
      "outputs": [],
      "stateMutability": "nonpayable",
      "type": "function"
    },
    {
      "inputs": [],
      "name": "withdrawETH",
      "outputs": [],
      "stateMutability": "nonpayable",
      "type": "function"
    }
  ],
  "bytecode": "0x608060405234801561001057600080fd5b5060405161126838038061126883398101604081905261002f9161007c565b600080546001600160a01b039384166001600160a01b031991821617909155600180549290931691161790556100ae565b80516001600160a01b038116811461007757600080fd5b919050565b6000806040838503121561008e578182fd5b61009783610060565b91506100a560208401610060565b90509250929050565b6111ab806100bd6000396000f3fe6080604052600436106100905760003560e01c80630a0e5c9d146100a657806327adaa45146100c85780632d1aeb28146100db57806337e8822d146100fb57806341976e091461011b578063ac9650d814610151578063c0c7df6f14610171578063c5cc6b6a14610193578063d3ce1c82146101a8578063e086e5ec146101c8578063f4f3b200146101dd57610097565b3661009757005b3480156100a357600080fd5b50005b3480156100b257600080fd5b506100c66100c1366004610bb0565b6101fd565b005b6100c66100d6366004610dac565b610261565b3480156100e757600080fd5b506100c66100f6366004610bd9565b61042f565b34801561010757600080fd5b506100c6610116366004610c1d565b610496565b34801561012757600080fd5b5061013b610136366004610b96565b6104c6565b6040516101489190611091565b60405180910390f35b61016461015f366004610c69565b610541565b6040516101489190610ec6565b34801561017d57600080fd5b506101866106c2565b6040516101489190610e28565b34801561019f57600080fd5b506101866106d1565b3480156101b457600080fd5b506100c66101c3366004610c1d565b6106e0565b3480156101d457600080fd5b506100c6610710565b3480156101e957600080fd5b506100c66101f8366004610b96565b61089c565b604051630a0e5c9d60e01b81526001600160a01b03831690630a0e5c9d9061022b9033908590600401610e60565b600060405180830381600087803b15801561024557600080fd5b505af1158015610259573d6000803e3d6000fd5b505050505050565b6000546040516329018f6f60e21b81526001600160a01b0390911690819063a4063dbc90610293903390600401610e28565b60206040518083038186803b1580156102ab57600080fd5b505afa1580156102bf573d6000803e3d6000fd5b505050506040513d601f19601f820116820180604052508101906102e39190610cd7565b6103085760405162461bcd60e51b81526004016102ff90610f7f565b60405180910390fd5b6001546001600160a01b0384811691161480156103255750834710155b156104145760015460408051630d0e30db60e41b815290516001600160a01b0390921691829163d0e30db091889160048082019260009290919082900301818588803b15801561037457600080fd5b505af1158015610388573d6000803e3d6000fd5b505060405163a9059cbb60e01b81526001600160a01b038516935063a9059cbb92506103bb915033908990600401610e60565b602060405180830381600087803b1580156103d557600080fd5b505af11580156103e9573d6000803e3d6000fd5b505050506040513d601f19601f8201168201806040525081019061040d9190610cd7565b5050610429565b6104296001600160a01b038416833387610958565b50505050565b6040516305a35d6560e31b81526001600160a01b03841690632d1aeb289061045f90339086908690600401610e79565b600060405180830381600087803b15801561047957600080fd5b505af115801561048d573d6000803e3d6000fd5b50505050505050565b604051632843d22d60e01b81526001600160a01b03841690632843d22d9061045f9085903390869060040161109a565b6000816001600160a01b03166398d5fdca6040518163ffffffff1660e01b815260040160206040518083038186803b15801561050157600080fd5b505afa158015610515573d6000803e3d6000fd5b505050506040513d601f19601f820116820180604052508101906105399190610d94565b90505b919050565b6060816001600160401b0381111561056957634e487b7160e01b600052604160045260246000fd5b60405190808252806020026020018201604052801561059c57816020015b60608152602001906001900390816105875790505b50905060005b828110156106bb57600080308686858181106105ce57634e487b7160e01b600052603260045260246000fd5b90506020028101906105e091906110c1565b6040516105ee929190610dfc565b600060405180830381855af49150503d8060008114610629576040519150601f19603f3d011682016040523d82523d6000602084013e61062e565b606091505b50915091508161067a5760448151101561064757600080fd5b600481019050808060200190518101906106619190610cf7565b60405162461bcd60e51b81526004016102ff9190610f26565b8084848151811061069b57634e487b7160e01b600052603260045260246000fd5b6020026020010181905250505080806106b390611138565b9150506105a2565b5092915050565b6001546001600160a01b031681565b6000546001600160a01b031681565b6040516369e70e4160e11b81526001600160a01b0384169063d3ce1c829061045f90339086908690600401610e9d565b6001546040516370a0823160e01b81526000916001600160a01b0316906370a0823190610741903090600401610e28565b60206040518083038186803b15801561075957600080fd5b505afa15801561076d573d6000803e3d6000fd5b505050506040513d601f19601f820116820180604052508101906107919190610d94565b9050600081116107b35760405162461bcd60e51b81526004016102ff90610faf565b600154604051632e1a7d4d60e01b81526001600160a01b0390911690632e1a7d4d906107e3908490600401611091565b600060405180830381600087803b1580156107fd57600080fd5b505af1158015610811573d6000803e3d6000fd5b50506040805160008082526020820192839052935033925084916108359190610e0c565b60006040518083038185875af1925050503d8060008114610872576040519150601f19603f3d011682016040523d82523d6000602084013e610877565b606091505b50509050806108985760405162461bcd60e51b81526004016102ff90610fe3565b5050565b6040516370a0823160e01b815281906000906001600160a01b038316906370a08231906108cd903090600401610e28565b60206040518083038186803b1580156108e557600080fd5b505afa1580156108f9573d6000803e3d6000fd5b505050506040513d601f19601f8201168201806040525081019061091d9190610d94565b90506000811161093f5760405162461bcd60e51b81526004016102ff90610faf565b6109536001600160a01b03831633836109b0565b505050565b610429846323b872dd60e01b85858560405160240161097993929190610e3c565b60408051601f198184030181529190526020810180516001600160e01b03166001600160e01b0319909316929092179091526109cf565b6109538363a9059cbb60e01b8484604051602401610979929190610e60565b6000610a24826040518060400160405280602081526020017f5361666545524332303a206c6f772d6c6576656c2063616c6c206661696c6564815250856001600160a01b0316610a5e9092919063ffffffff16565b8051909150156109535780806020019051810190610a429190610cd7565b6109535760405162461bcd60e51b81526004016102ff90611047565b6060610a6d8484600085610a77565b90505b9392505050565b606082471015610a995760405162461bcd60e51b81526004016102ff90610f39565b610aa285610b37565b610abe5760405162461bcd60e51b81526004016102ff90611010565b600080866001600160a01b03168587604051610ada9190610e0c565b60006040518083038185875af1925050503d8060008114610b17576040519150601f19603f3d011682016040523d82523d6000602084013e610b1c565b606091505b5091509150610b2c828286610b46565b979650505050505050565b6001600160a01b03163b151590565b60608315610b55575081610a70565b825115610b655782518084602001fd5b8160405162461bcd60e51b81526004016102ff9190610f26565b80356001600160a01b038116811461053c57600080fd5b600060208284031215610ba7578081fd5b610a7082610b7f565b60008060408385031215610bc2578081fd5b610bcb83610b7f565b946020939093013593505050565b600080600060608486031215610bed578081fd5b610bf684610b7f565b92506020840135915060408401358060010b8114610c12578182fd5b809150509250925092565b600080600060608486031215610c31578283fd5b610c3a84610b7f565b9250602084013563ffffffff81168114610c52578283fd5b9150610c6060408501610b7f565b90509250925092565b60008060208385031215610c7b578182fd5b82356001600160401b0380821115610c91578384fd5b818501915085601f830112610ca4578384fd5b813581811115610cb2578485fd5b8660208083028501011115610cc5578485fd5b60209290920196919550909350505050565b600060208284031215610ce8578081fd5b81518015158114610a70578182fd5b600060208284031215610d08578081fd5b81516001600160401b0380821115610d1e578283fd5b818401915084601f830112610d31578283fd5b815181811115610d4357610d4361115f565b604051601f8201601f19908116603f01168101908382118183101715610d6b57610d6b61115f565b81604052828152876020848701011115610d83578586fd5b610b2c83602083016020880161110c565b600060208284031215610da5578081fd5b5051919050565b600080600060608486031215610dc0578283fd5b83359250610c5260208501610b7f565b60008151808452610de881602086016020860161110c565b601f01601f19169290920160200192915050565b6000828483379101908152919050565b60008251610e1e81846020870161110c565b9190910192915050565b6001600160a01b0391909116815260200190565b6001600160a01b039384168152919092166020820152604081019190915260600190565b6001600160a01b03929092168252602082015260400190565b6001600160a01b03939093168352602083019190915260010b604082015260600190565b6001600160a01b03938416815263ffffffff929092166020830152909116604082015260600190565b6000602080830181845280855180835260408601915060408482028701019250838701855b82811015610f1957603f19888603018452610f07858351610dd0565b94509285019290850190600101610eeb565b5092979650505050505050565b600060208252610a706020830184610dd0565b60208082526026908201527f416464726573733a20696e73756666696369656e742062616c616e636520666f6040820152651c8818d85b1b60d21b606082015260800190565b60208082526016908201527518d85b1b195c881a5cc81b9bdd081d1a19481c1bdbdb60521b604082015260600190565b6020808252601a9082015279062616c616e6365206f6620726f75746572206d757374203e20360341b604082015260600190565b602080825260139082015272115512081d1c985b9cd9995c8819985a5b1959606a1b604082015260600190565b6020808252601d908201527f416464726573733a2063616c6c20746f206e6f6e2d636f6e7472616374000000604082015260600190565b6020808252602a908201527f5361666545524332303a204552433230206f7065726174696f6e20646964206e6040820152691bdd081cdd58d8d9595960b21b606082015260800190565b90815260200190565b63ffffffff9390931683526001600160a01b03918216602084015216604082015260600190565b6000808335601e198436030181126110d7578283fd5b8301803591506001600160401b038211156110f0578283fd5b60200191503681900382131561110557600080fd5b9250929050565b60005b8381101561112757818101518382015260200161110f565b838111156104295750506000910152565b600060001982141561115857634e487b7160e01b81526011600452602481fd5b5060010190565b634e487b7160e01b600052604160045260246000fdfea2646970667358221220d5f866f750847ed842b9d4e4c18256ccaf9f9a1ff41209858e1c4ee3a290cb1164736f6c63430008010033",
  "immutableReferences": {},
  "source": "pragma solidity ^0.8.0;\n\nimport \"@openzeppelin/contracts/token/ERC20/ERC20.sol\";\nimport \"@openzeppelin/contracts/token/ERC20/IERC20.sol\";\nimport \"@openzeppelin/contracts/token/ERC20/utils/SafeERC20.sol\";\nimport \"@openzeppelin/contracts/utils/math/SafeMath.sol\";\nimport \"./interfaces/IPool.sol\";\nimport \"./interfaces/IRouter01.sol\";\nimport \"./interfaces/IRouter02.sol\";\nimport \"./interfaces/IFactory.sol\";\nimport \"./interfaces/IWETH.sol\";\nimport \"./interfaces/IPoolCallback.sol\";\nimport \"./Multicall.sol\";\n\ncontract Router is IRouter01, IRouter02, IPoolCallback, Multicall {\n    fallback() external {}\n    receive() payable external {}\n\n    using SafeERC20 for IERC20;\n\n    address public _factory;\n    address public _wETH;\n\n    constructor(address factory, address wETH) {\n        _factory = factory;\n        _wETH = wETH;\n    }\n\n    function poolCallback(\n        uint256 amount,\n        address payToken,\n        address payer\n    ) external override payable {\n        IFactory factory = IFactory(_factory);\n        require(factory.pools(msg.sender), \"caller is not the pool\");\n\n        if (payToken == _wETH && address(this).balance >= amount) {\n            IWETH wETH = IWETH(_wETH);\n            wETH.deposit{value: amount}();\n            wETH.transfer(msg.sender, amount);\n        } else {\n            IERC20(payToken).safeTransferFrom(payer, msg.sender, amount);\n        }\n    }\n\n    function getPrice(address pool) external override view returns (uint256) {\n        return IPool(pool).getPrice();\n    }\n\n    function submit(address pool, uint256 margin, int16 level) external override {\n        IPool(pool).submit(msg.sender, margin, level);\n    }\n\n    function open(address pool, uint256 deadLine) external override {\n        IPool(pool).open(msg.sender, deadLine);\n    }\n\n    // function open(address pool, uint256 margin, int16 level) external override {\n    //     IPool(pool).open(msg.sender, margin, level);\n    // }\n\n    function close(address pool, uint32 index, address receipt) external override {\n        IPool(pool).close(index, msg.sender, receipt);\n    }\n\n    function liquidate(address pool, uint32 index, address receipt) external override {\n        IPool(pool).liquidate(msg.sender, index, receipt);\n    }\n\n    function withdrawERC20(address payToken) external override {\n        IERC20 erc20 = IERC20(payToken);\n        uint256 balance = erc20.balanceOf(address(this));\n        require(balance > 0, \"balance of router must > 0\");\n        erc20.safeTransfer(msg.sender, balance);\n    }\n\n    function withdrawETH() external override {\n        uint256 balance = IERC20(_wETH).balanceOf(address(this));\n        require(balance > 0, \"balance of router must > 0\");\n        IWETH(_wETH).withdraw(balance);\n        (bool success, ) = msg.sender.call{value: balance}(new bytes(0));\n        require(success, \"ETH transfer failed\");\n    }\n\n}\n",
  "sourcePath": "/Users/pengyun/Desktop/code/qilin-pvp-v2/contracts/Router.sol",
  "compiler": {
    "name": "solc",
    "version": "0.8.1+commit.df193b15.Emscripten.clang"
  },
  "schemaVersion": "3.3.3",
  "updatedAt": "2023-05-16T08:28:23.328Z",
  "devdoc": {
    "kind": "dev",
    "methods": {},
    "version": 1
  },
  "userdoc": {
    "kind": "user",
    "methods": {},
    "version": 1
  }
}