{
  "_format": "hh-sol-artifact-1",
  "contractName": "Router",
  "sourceName": "contracts/Router.sol",
  "abi": [
    {
      "inputs": [
        {
          "internalType": "address",
          "name": "factory",
          "type": "address"
        },
        {
          "internalType": "address",
          "name": "wETH",
          "type": "address"
        }
      ],
      "stateMutability": "nonpayable",
      "type": "constructor"
    },
    {
      "stateMutability": "nonpayable",
      "type": "fallback"
    },
    {
      "inputs": [],
      "name": "_factory",
      "outputs": [
        {
          "internalType": "address",
          "name": "",
          "type": "address"
        }
      ],
      "stateMutability": "view",
      "type": "function"
    },
    {
      "inputs": [],
      "name": "_wETH",
      "outputs": [
        {
          "internalType": "address",
          "name": "",
          "type": "address"
        }
      ],
      "stateMutability": "view",
      "type": "function"
    },
    {
      "inputs": [
        {
          "internalType": "address",
          "name": "pool",
          "type": "address"
        },
        {
          "internalType": "uint32",
          "name": "index",
          "type": "uint32"
        },
        {
          "internalType": "address",
          "name": "receipt",
          "type": "address"
        }
      ],
      "name": "close",
      "outputs": [],
      "stateMutability": "nonpayable",
      "type": "function"
    },
    {
      "inputs": [
        {
          "internalType": "address",
          "name": "pool",
          "type": "address"
        }
      ],
      "name": "getPrice",
      "outputs": [
        {
          "internalType": "uint256",
          "name": "",
          "type": "uint256"
        }
      ],
      "stateMutability": "view",
      "type": "function"
    },
    {
      "inputs": [
        {
          "internalType": "address",
          "name": "pool",
          "type": "address"
        },
        {
          "internalType": "uint32",
          "name": "index",
          "type": "uint32"
        },
        {
          "internalType": "address",
          "name": "receipt",
          "type": "address"
        }
      ],
      "name": "liquidate",
      "outputs": [],
      "stateMutability": "nonpayable",
      "type": "function"
    },
    {
      "inputs": [
        {
          "internalType": "bytes[]",
          "name": "data",
          "type": "bytes[]"
        }
      ],
      "name": "multicall",
      "outputs": [
        {
          "internalType": "bytes[]",
          "name": "results",
          "type": "bytes[]"
        }
      ],
      "stateMutability": "payable",
      "type": "function"
    },
    {
      "inputs": [
        {
          "internalType": "address",
          "name": "pool",
          "type": "address"
        },
        {
          "internalType": "uint256",
          "name": "deadLine",
          "type": "uint256"
        }
      ],
      "name": "open",
      "outputs": [],
      "stateMutability": "nonpayable",
      "type": "function"
    },
    {
      "inputs": [
        {
          "internalType": "uint256",
          "name": "amount",
          "type": "uint256"
        },
        {
          "internalType": "address",
          "name": "payToken",
          "type": "address"
        },
        {
          "internalType": "address",
          "name": "payer",
          "type": "address"
        }
      ],
      "name": "poolCallback",
      "outputs": [],
      "stateMutability": "payable",
      "type": "function"
    },
    {
      "inputs": [
        {
          "internalType": "address",
          "name": "pool",
          "type": "address"
        },
        {
          "internalType": "uint256",
          "name": "margin",
          "type": "uint256"
        },
        {
          "internalType": "int16",
          "name": "level",
          "type": "int16"
        }
      ],
      "name": "submit",
      "outputs": [],
      "stateMutability": "nonpayable",
      "type": "function"
    },
    {
      "inputs": [
        {
          "internalType": "address",
          "name": "payToken",
          "type": "address"
        }
      ],
      "name": "withdrawERC20",
      "outputs": [],
      "stateMutability": "nonpayable",
      "type": "function"
    },
    {
      "inputs": [],
      "name": "withdrawETH",
      "outputs": [],
      "stateMutability": "nonpayable",
      "type": "function"
    },
    {
      "stateMutability": "payable",
      "type": "receive"
    }
  ],
  "bytecode": "0x608060405234801561001057600080fd5b5060405161129838038061129883398101604081905261002f9161007c565b600080546001600160a01b039384166001600160a01b031991821617909155600180549290931691161790556100ae565b80516001600160a01b038116811461007757600080fd5b919050565b6000806040838503121561008e578182fd5b61009783610060565b91506100a560208401610060565b90509250929050565b6111db806100bd6000396000f3fe6080604052600436106100a05760003560e01c8063ac9650d811610064578063ac9650d814610161578063c0c7df6f14610181578063c5cc6b6a146101a3578063d3ce1c82146101b8578063e086e5ec146101d8578063f4f3b200146101ed576100a7565b80630a0e5c9d146100b657806327adaa45146100d85780632d1aeb28146100eb57806337e8822d1461010b57806341976e091461012b576100a7565b366100a757005b3480156100b357600080fd5b50005b3480156100c257600080fd5b506100d66100d1366004610bda565b61020d565b005b6100d66100e6366004610dd8565b610271565b3480156100f757600080fd5b506100d6610106366004610c03565b61043f565b34801561011757600080fd5b506100d6610126366004610c47565b6104a6565b34801561013757600080fd5b5061014b610146366004610bb9565b6104d6565b60405161015891906110c0565b60405180910390f35b61017461016f366004610c93565b610551565b6040516101589190610ef2565b34801561018d57600080fd5b506101966106d3565b6040516101589190610e54565b3480156101af57600080fd5b506101966106e2565b3480156101c457600080fd5b506100d66101d3366004610c47565b6106f1565b3480156101e457600080fd5b506100d6610721565b3480156101f957600080fd5b506100d6610208366004610bb9565b6108ad565b604051630a0e5c9d60e01b81526001600160a01b03831690630a0e5c9d9061023b9033908590600401610e8c565b600060405180830381600087803b15801561025557600080fd5b505af1158015610269573d6000803e3d6000fd5b505050505050565b6000546040516329018f6f60e21b81526001600160a01b0390911690819063a4063dbc906102a3903390600401610e54565b60206040518083038186803b1580156102bb57600080fd5b505afa1580156102cf573d6000803e3d6000fd5b505050506040513d601f19601f820116820180604052508101906102f39190610d02565b6103185760405162461bcd60e51b815260040161030f90610fab565b60405180910390fd5b6001546001600160a01b0384811691161480156103355750834710155b156104245760015460408051630d0e30db60e41b815290516001600160a01b0390921691829163d0e30db091889160048082019260009290919082900301818588803b15801561038457600080fd5b505af1158015610398573d6000803e3d6000fd5b505060405163a9059cbb60e01b81526001600160a01b038516935063a9059cbb92506103cb915033908990600401610e8c565b602060405180830381600087803b1580156103e557600080fd5b505af11580156103f9573d6000803e3d6000fd5b505050506040513d601f19601f8201168201806040525081019061041d9190610d02565b5050610439565b6104396001600160a01b038416833387610969565b50505050565b6040516305a35d6560e31b81526001600160a01b03841690632d1aeb289061046f90339086908690600401610ea5565b600060405180830381600087803b15801561048957600080fd5b505af115801561049d573d6000803e3d6000fd5b50505050505050565b604051632843d22d60e01b81526001600160a01b03841690632843d22d9061046f908590339086906004016110c9565b6000816001600160a01b03166398d5fdca6040518163ffffffff1660e01b815260040160206040518083038186803b15801561051157600080fd5b505afa158015610525573d6000803e3d6000fd5b505050506040513d601f19601f820116820180604052508101906105499190610dc0565b90505b919050565b60608167ffffffffffffffff81111561057a57634e487b7160e01b600052604160045260246000fd5b6040519080825280602002602001820160405280156105ad57816020015b60608152602001906001900390816105985790505b50905060005b828110156106cc57600080308686858181106105df57634e487b7160e01b600052603260045260246000fd5b90506020028101906105f191906110f0565b6040516105ff929190610e28565b600060405180830381855af49150503d806000811461063a576040519150601f19603f3d011682016040523d82523d6000602084013e61063f565b606091505b50915091508161068b5760448151101561065857600080fd5b600481019050808060200190518101906106729190610d22565b60405162461bcd60e51b815260040161030f9190610f52565b808484815181106106ac57634e487b7160e01b600052603260045260246000fd5b6020026020010181905250505080806106c490611168565b9150506105b3565b5092915050565b6001546001600160a01b031681565b6000546001600160a01b031681565b6040516369e70e4160e11b81526001600160a01b0384169063d3ce1c829061046f90339086908690600401610ec9565b6001546040516370a0823160e01b81526000916001600160a01b0316906370a0823190610752903090600401610e54565b60206040518083038186803b15801561076a57600080fd5b505afa15801561077e573d6000803e3d6000fd5b505050506040513d601f19601f820116820180604052508101906107a29190610dc0565b9050600081116107c45760405162461bcd60e51b815260040161030f90610fdb565b600154604051632e1a7d4d60e01b81526001600160a01b0390911690632e1a7d4d906107f49084906004016110c0565b600060405180830381600087803b15801561080e57600080fd5b505af1158015610822573d6000803e3d6000fd5b50506040805160008082526020820192839052935033925084916108469190610e38565b60006040518083038185875af1925050503d8060008114610883576040519150601f19603f3d011682016040523d82523d6000602084013e610888565b606091505b50509050806108a95760405162461bcd60e51b815260040161030f90611012565b5050565b6040516370a0823160e01b815281906000906001600160a01b038316906370a08231906108de903090600401610e54565b60206040518083038186803b1580156108f657600080fd5b505afa15801561090a573d6000803e3d6000fd5b505050506040513d601f19601f8201168201806040525081019061092e9190610dc0565b9050600081116109505760405162461bcd60e51b815260040161030f90610fdb565b6109646001600160a01b03831633836109c1565b505050565b610439846323b872dd60e01b85858560405160240161098a93929190610e68565b60408051601f198184030181529190526020810180516001600160e01b03166001600160e01b0319909316929092179091526109e0565b6109648363a9059cbb60e01b848460405160240161098a929190610e8c565b6000610a35826040518060400160405280602081526020017f5361666545524332303a206c6f772d6c6576656c2063616c6c206661696c6564815250856001600160a01b0316610a729092919063ffffffff16565b9050805160001480610a56575080806020019051810190610a569190610d02565b6109645760405162461bcd60e51b815260040161030f90611076565b6060610a818484600085610a89565b949350505050565b606082471015610aab5760405162461bcd60e51b815260040161030f90610f65565b600080866001600160a01b03168587604051610ac79190610e38565b60006040518083038185875af1925050503d8060008114610b04576040519150601f19603f3d011682016040523d82523d6000602084013e610b09565b606091505b5091509150610b1a87838387610b25565b979650505050505050565b60608315610b5f578251610b5857610b3c85610b69565b610b585760405162461bcd60e51b815260040161030f9061103f565b5081610a81565b610a818383610b78565b6001600160a01b03163b151590565b815115610b885781518083602001fd5b8060405162461bcd60e51b815260040161030f9190610f52565b80356001600160a01b038116811461054c57600080fd5b600060208284031215610bca578081fd5b610bd382610ba2565b9392505050565b60008060408385031215610bec578081fd5b610bf583610ba2565b946020939093013593505050565b600080600060608486031215610c17578081fd5b610c2084610ba2565b92506020840135915060408401358060010b8114610c3c578182fd5b809150509250925092565b600080600060608486031215610c5b578283fd5b610c6484610ba2565b9250602084013563ffffffff81168114610c7c578283fd5b9150610c8a60408501610ba2565b90509250925092565b60008060208385031215610ca5578182fd5b823567ffffffffffffffff80821115610cbc578384fd5b818501915085601f830112610ccf578384fd5b813581811115610cdd578485fd5b8660208083028501011115610cf0578485fd5b60209290920196919550909350505050565b600060208284031215610d13578081fd5b81518015158114610bd3578182fd5b600060208284031215610d33578081fd5b815167ffffffffffffffff80821115610d4a578283fd5b818401915084601f830112610d5d578283fd5b815181811115610d6f57610d6f61118f565b604051601f8201601f19908116603f01168101908382118183101715610d9757610d9761118f565b81604052828152876020848701011115610daf578586fd5b610b1a83602083016020880161113c565b600060208284031215610dd1578081fd5b5051919050565b600080600060608486031215610dec578283fd5b83359250610c7c60208501610ba2565b60008151808452610e1481602086016020860161113c565b601f01601f19169290920160200192915050565b6000828483379101908152919050565b60008251610e4a81846020870161113c565b9190910192915050565b6001600160a01b0391909116815260200190565b6001600160a01b039384168152919092166020820152604081019190915260600190565b6001600160a01b03929092168252602082015260400190565b6001600160a01b03939093168352602083019190915260010b604082015260600190565b6001600160a01b03938416815263ffffffff929092166020830152909116604082015260600190565b6000602080830181845280855180835260408601915060408482028701019250838701855b82811015610f4557603f19888603018452610f33858351610dfc565b94509285019290850190600101610f17565b5092979650505050505050565b600060208252610bd36020830184610dfc565b60208082526026908201527f416464726573733a20696e73756666696369656e742062616c616e636520666f6040820152651c8818d85b1b60d21b606082015260800190565b60208082526016908201527518d85b1b195c881a5cc81b9bdd081d1a19481c1bdbdb60521b604082015260600190565b6020808252601a908201527f62616c616e6365206f6620726f75746572206d757374203e2030000000000000604082015260600190565b602080825260139082015272115512081d1c985b9cd9995c8819985a5b1959606a1b604082015260600190565b6020808252601d908201527f416464726573733a2063616c6c20746f206e6f6e2d636f6e7472616374000000604082015260600190565b6020808252602a908201527f5361666545524332303a204552433230206f7065726174696f6e20646964206e6040820152691bdd081cdd58d8d9595960b21b606082015260800190565b90815260200190565b63ffffffff9390931683526001600160a01b03918216602084015216604082015260600190565b6000808335601e19843603018112611106578283fd5b83018035915067ffffffffffffffff821115611120578283fd5b60200191503681900382131561113557600080fd5b9250929050565b60005b8381101561115757818101518382015260200161113f565b838111156104395750506000910152565b600060001982141561118857634e487b7160e01b81526011600452602481fd5b5060010190565b634e487b7160e01b600052604160045260246000fdfea2646970667358221220dcfdd90740cb0f9fb32b20c65dabf357c2dc6cd9c662c4bb5c6cdc68f6ed9bc964736f6c63430008010033",
  "linkReferences": {},
  "deployedLinkReferences": {}
}