{
  "contractName": "Asset",
  "abi": [
    {
      "inputs": [
        {
          "internalType": "address",
          "name": "poolToken",
          "type": "address"
        },
        {
          "internalType": "address",
          "name": "setting",
          "type": "address"
        }
      ],
      "stateMutability": "nonpayable",
      "type": "constructor"
    },
    {
      "inputs": [],
      "name": "StandardDecimal",
      "outputs": [
        {
          "internalType": "uint256",
          "name": "",
          "type": "uint256"
        }
      ],
      "stateMutability": "view",
      "type": "function"
    },
    {
      "inputs": [],
      "name": "_applyRemoveLp",
      "outputs": [
        {
          "internalType": "uint256",
          "name": "",
          "type": "uint256"
        }
      ],
      "stateMutability": "view",
      "type": "function"
    },
    {
      "inputs": [],
      "name": "_assetAddress",
      "outputs": [
        {
          "internalType": "address",
          "name": "",
          "type": "address"
        }
      ],
      "stateMutability": "view",
      "type": "function"
    },
    {
      "inputs": [],
      "name": "_currentEpoch",
      "outputs": [
        {
          "internalType": "uint32",
          "name": "",
          "type": "uint32"
        }
      ],
      "stateMutability": "view",
      "type": "function"
    },
    {
      "inputs": [
        {
          "internalType": "uint32",
          "name": "",
          "type": "uint32"
        }
      ],
      "name": "_epochInfos",
      "outputs": [
        {
          "internalType": "uint256",
          "name": "lpAmount",
          "type": "uint256"
        },
        {
          "internalType": "uint256",
          "name": "tokenAmount",
          "type": "uint256"
        },
        {
          "internalType": "uint256",
          "name": "beginTime",
          "type": "uint256"
        }
      ],
      "stateMutability": "view",
      "type": "function"
    },
    {
      "inputs": [],
      "name": "_liquidityAmount",
      "outputs": [
        {
          "internalType": "uint256",
          "name": "",
          "type": "uint256"
        }
      ],
      "stateMutability": "view",
      "type": "function"
    },
    {
      "inputs": [],
      "name": "_lp",
      "outputs": [
        {
          "internalType": "address",
          "name": "",
          "type": "address"
        }
      ],
      "stateMutability": "view",
      "type": "function"
    },
    {
      "inputs": [],
      "name": "_positionIndex",
      "outputs": [
        {
          "internalType": "uint32",
          "name": "",
          "type": "uint32"
        }
      ],
      "stateMutability": "view",
      "type": "function"
    },
    {
      "inputs": [
        {
          "internalType": "uint32",
          "name": "",
          "type": "uint32"
        }
      ],
      "name": "_positions",
      "outputs": [
        {
          "internalType": "address",
          "name": "poolAddress",
          "type": "address"
        },
        {
          "internalType": "uint32",
          "name": "positionId",
          "type": "uint32"
        },
        {
          "internalType": "address",
          "name": "userAddress",
          "type": "address"
        }
      ],
      "stateMutability": "view",
      "type": "function"
    },
    {
      "inputs": [],
      "name": "_precisionDiff",
      "outputs": [
        {
          "internalType": "uint256",
          "name": "",
          "type": "uint256"
        }
      ],
      "stateMutability": "view",
      "type": "function"
    },
    {
      "inputs": [],
      "name": "_removeIndex",
      "outputs": [
        {
          "internalType": "uint32",
          "name": "",
          "type": "uint32"
        }
      ],
      "stateMutability": "view",
      "type": "function"
    },
    {
      "inputs": [
        {
          "internalType": "uint32",
          "name": "",
          "type": "uint32"
        }
      ],
      "name": "_removeInfos",
      "outputs": [
        {
          "internalType": "address",
          "name": "owner",
          "type": "address"
        },
        {
          "internalType": "address",
          "name": "receipt",
          "type": "address"
        },
        {
          "internalType": "uint256",
          "name": "lpAmount",
          "type": "uint256"
        },
        {
          "internalType": "uint32",
          "name": "outEpoch",
          "type": "uint32"
        },
        {
          "internalType": "uint32",
          "name": "epoch",
          "type": "uint32"
        }
      ],
      "stateMutability": "view",
      "type": "function"
    },
    {
      "inputs": [],
      "name": "_settingAddress",
      "outputs": [
        {
          "internalType": "address",
          "name": "",
          "type": "address"
        }
      ],
      "stateMutability": "view",
      "type": "function"
    },
    {
      "inputs": [],
      "name": "unlocked",
      "outputs": [
        {
          "internalType": "bool",
          "name": "",
          "type": "bool"
        }
      ],
      "stateMutability": "view",
      "type": "function"
    },
    {
      "inputs": [],
      "name": "_liquidityPool",
      "outputs": [
        {
          "internalType": "uint256",
          "name": "",
          "type": "uint256"
        }
      ],
      "stateMutability": "view",
      "type": "function"
    },
    {
      "inputs": [
        {
          "internalType": "address",
          "name": "receipt",
          "type": "address"
        },
        {
          "components": [
            {
              "internalType": "uint256",
              "name": "amount",
              "type": "uint256"
            },
            {
              "internalType": "uint32",
              "name": "payType",
              "type": "uint32"
            },
            {
              "internalType": "address",
              "name": "payerAddress",
              "type": "address"
            }
          ],
          "internalType": "struct IAsset.AmountIn",
          "name": "amountIn",
          "type": "tuple"
        }
      ],
      "name": "addLiquidity",
      "outputs": [],
      "stateMutability": "nonpayable",
      "type": "function"
    },
    {
      "inputs": [
        {
          "internalType": "address",
          "name": "receipt",
          "type": "address"
        },
        {
          "components": [
            {
              "internalType": "uint256",
              "name": "amount",
              "type": "uint256"
            },
            {
              "internalType": "uint32",
              "name": "payType",
              "type": "uint32"
            },
            {
              "internalType": "address",
              "name": "payerAddress",
              "type": "address"
            }
          ],
          "internalType": "struct IAsset.AmountIn",
          "name": "amountIn",
          "type": "tuple"
        }
      ],
      "name": "applyRemove",
      "outputs": [],
      "stateMutability": "nonpayable",
      "type": "function"
    },
    {
      "inputs": [
        {
          "internalType": "uint32",
          "name": "removeIndex",
          "type": "uint32"
        }
      ],
      "name": "cancleApplyRemove",
      "outputs": [],
      "stateMutability": "nonpayable",
      "type": "function"
    },
    {
      "inputs": [
        {
          "internalType": "uint32",
          "name": "removeIndex",
          "type": "uint32"
        }
      ],
      "name": "removeLiquidity",
      "outputs": [],
      "stateMutability": "nonpayable",
      "type": "function"
    },
    {
      "inputs": [
        {
          "internalType": "address",
          "name": "poolAddress",
          "type": "address"
        },
        {
          "components": [
            {
              "internalType": "uint256",
              "name": "amount",
              "type": "uint256"
            },
            {
              "internalType": "uint32",
              "name": "payType",
              "type": "uint32"
            },
            {
              "internalType": "address",
              "name": "payerAddress",
              "type": "address"
            }
          ],
          "internalType": "struct IAsset.AmountIn",
          "name": "amountIn",
          "type": "tuple"
        },
        {
          "internalType": "bytes",
          "name": "openParam",
          "type": "bytes"
        }
      ],
      "name": "openPosition",
      "outputs": [
        {
          "internalType": "uint32",
          "name": "",
          "type": "uint32"
        }
      ],
      "stateMutability": "nonpayable",
      "type": "function"
    },
    {
      "inputs": [
        {
          "internalType": "uint32",
          "name": "positionId",
          "type": "uint32"
        },
        {
          "components": [
            {
              "internalType": "uint256",
              "name": "amount",
              "type": "uint256"
            },
            {
              "internalType": "uint32",
              "name": "payType",
              "type": "uint32"
            },
            {
              "internalType": "address",
              "name": "payerAddress",
              "type": "address"
            }
          ],
          "internalType": "struct IAsset.AmountIn",
          "name": "amountIn",
          "type": "tuple"
        }
      ],
      "name": "addMargin",
      "outputs": [],
      "stateMutability": "nonpayable",
      "type": "function"
    },
    {
      "inputs": [
        {
          "internalType": "uint32",
          "name": "positionId",
          "type": "uint32"
        },
        {
          "internalType": "address",
          "name": "receipt",
          "type": "address"
        }
      ],
      "name": "closePosition",
      "outputs": [],
      "stateMutability": "nonpayable",
      "type": "function"
    },
    {
      "inputs": [
        {
          "internalType": "uint32",
          "name": "positionId",
          "type": "uint32"
        },
        {
          "internalType": "address",
          "name": "receipt",
          "type": "address"
        }
      ],
      "name": "liquidity",
      "outputs": [],
      "stateMutability": "nonpayable",
      "type": "function"
    },
    {
      "inputs": [
        {
          "internalType": "uint32",
          "name": "positionId",
          "type": "uint32"
        },
        {
          "internalType": "address",
          "name": "receipt",
          "type": "address"
        }
      ],
      "name": "exitPosition",
      "outputs": [],
      "stateMutability": "nonpayable",
      "type": "function"
    },
    {
      "inputs": [
        {
          "internalType": "address",
          "name": "pool",
          "type": "address"
        }
      ],
      "name": "testUpdate",
      "outputs": [],
      "stateMutability": "nonpayable",
      "type": "function"
    }
  ],
  "bytecode": "0x608060405260006005556000600660146101000a81548163ffffffff021916908363ffffffff1602179055506000600660186101000a81548163ffffffff021916908363ffffffff16021790555060006006601c6101000a81548163ffffffff021916908363ffffffff16021790555060006007556001600960006101000a81548160ff0219169083151502179055503480156200009c57600080fd5b506040516200583b3803806200583b8339818101604052810190620000c29190620004bc565b81600360006101000a81548173ffffffffffffffffffffffffffffffffffffffff021916908373ffffffffffffffffffffffffffffffffffffffff16021790555080600460006101000a81548173ffffffffffffffffffffffffffffffffffffffff021916908373ffffffffffffffffffffffffffffffffffffffff16021790555060008273ffffffffffffffffffffffffffffffffffffffff1663313ce5676040518163ffffffff1660e01b815260040160206040518083038186803b1580156200018d57600080fd5b505afa158015620001a2573d6000803e3d6000fd5b505050506040513d601f19601f82011682018060405250810190620001c89190620004fd565b60ff16601211620001db5760006200026f565b8273ffffffffffffffffffffffffffffffffffffffff1663313ce5676040518163ffffffff1660e01b815260040160206040518083038186803b1580156200022257600080fd5b505afa15801562000237573d6000803e3d6000fd5b505050506040513d601f19601f820116820180604052508101906200025d9190620004fd565b60ff1660126200026e9190620006ff565b5b90506000811115620002965780600a6200028a9190620005c2565b6008819055506200029f565b60016008819055505b600460009054906101000a900473ffffffffffffffffffffffffffffffffffffffff1673ffffffffffffffffffffffffffffffffffffffff1663f88c90fb6040518163ffffffff1660e01b815260040160206040518083038186803b1580156200030857600080fd5b505afa1580156200031d573d6000803e3d6000fd5b505050506040513d601f19601f8201168201806040525081019062000343919062000490565b73ffffffffffffffffffffffffffffffffffffffff16631a0133c9600360009054906101000a900473ffffffffffffffffffffffffffffffffffffffff16600460009054906101000a900473ffffffffffffffffffffffffffffffffffffffff166040518363ffffffff1660e01b8152600401620003c39291906200053a565b602060405180830381600087803b158015620003de57600080fd5b505af1158015620003f3573d6000803e3d6000fd5b505050506040513d601f19601f8201168201806040525081019062000419919062000490565b600660006101000a81548173ffffffffffffffffffffffffffffffffffffffff021916908373ffffffffffffffffffffffffffffffffffffffff160217905550505050620007f5565b6000815190506200047381620007c1565b92915050565b6000815190506200048a81620007db565b92915050565b600060208284031215620004a357600080fd5b6000620004b38482850162000462565b91505092915050565b60008060408385031215620004d057600080fd5b6000620004e08582860162000462565b9250506020620004f38582860162000462565b9150509250929050565b6000602082840312156200051057600080fd5b6000620005208482850162000479565b91505092915050565b62000534816200073a565b82525050565b600060408201905062000551600083018562000529565b62000560602083018462000529565b9392505050565b6000808291508390505b6001851115620005b95780860481111562000591576200059062000785565b5b6001851615620005a15780820291505b8081029050620005b185620007b4565b945062000571565b94509492505050565b6000620005cf826200076e565b9150620005dc836200076e565b92506200060b7fffffffffffffffffffffffffffffffffffffffffffffffffffffffffffffffff848462000613565b905092915050565b600082620006255760019050620006f8565b81620006355760009050620006f8565b81600181146200064e576002811462000659576200068f565b6001915050620006f8565b60ff8411156200066e576200066d62000785565b5b8360020a91508482111562000688576200068762000785565b5b50620006f8565b5060208310610133831016604e8410600b8410161715620006c95782820a905083811115620006c357620006c262000785565b5b620006f8565b620006d8848484600162000567565b92509050818404811115620006f257620006f162000785565b5b81810290505b9392505050565b60006200070c826200076e565b915062000719836200076e565b9250828210156200072f576200072e62000785565b5b828203905092915050565b600062000747826200074e565b9050919050565b600073ffffffffffffffffffffffffffffffffffffffff82169050919050565b6000819050919050565b600060ff82169050919050565b7f4e487b7100000000000000000000000000000000000000000000000000000000600052601160045260246000fd5b60008160011c9050919050565b620007cc816200073a565b8114620007d857600080fd5b50565b620007e68162000778565b8114620007f257600080fd5b50565b61503680620008056000396000f3fe608060405234801561001057600080fd5b50600436106101a25760003560e01c8063934da467116100ee578063d14821d011610097578063e6060f1711610071578063e6060f171461045f578063eac936971461047d578063f23ac9bd14610499578063f4085b57146104b7576101a2565b8063d14821d0146103f1578063df9dfd6b1461040f578063e4f43ae014610441576101a2565b8063abe47061116100c8578063abe4706114610387578063b1eb805b146103b7578063c4487dff146103d3576101a2565b8063934da46714610331578063998275c41461034d5780639dedebf71461036b576101a2565b80634c98e243116101505780637911e7141161012a5780637911e714146102c55780637b08e9df146102e15780637d2a8ff914610313576101a2565b80634c98e2431461026d5780636a5e26501461028b578063741c21c4146102a9576101a2565b806326adb2581161018157806326adb258146102015780632bb7b4e71461021d5780632cbf3ff114610239576101a2565b80625a3ff1146101a75780631121355b146101c5578063207deba0146101e3575b600080fd5b6101af6104d3565b6040516101bc9190614464565b60405180910390f35b6101cd6104f9565b6040516101da9190614842565b60405180910390f35b6101eb6104fe565b6040516101f89190614842565b60405180910390f35b61021b600480360381019061021691906140fc565b6105e4565b005b61023760048036038101906102329190614138565b610b98565b005b610253600480360381019061024e91906140aa565b610cff565b6040516102649594939291906144df565b60405180910390f35b610275610d95565b60405161028291906148cb565b60405180910390f35b610293610dab565b6040516102a09190614653565b60405180910390f35b6102c360048036038101906102be9190613e5d565b610dbe565b005b6102df60048036038101906102da9190613eaf565b610e21565b005b6102fb60048036038101906102f691906140aa565b61133c565b60405161030a939291906145d7565b60405180910390f35b61031b6113b6565b60405161032891906148cb565b60405180910390f35b61034b600480360381019061034691906140fc565b6113cc565b005b610355611a1f565b6040516103629190614842565b60405180910390f35b610385600480360381019061038091906140aa565b611a25565b005b6103a1600480360381019061039c9190613eeb565b611db2565b6040516103ae91906148cb565b60405180910390f35b6103d160048036038101906103cc9190613eaf565b612199565b005b6103db61235c565b6040516103e89190614842565b60405180910390f35b6103f9612362565b6040516104069190614842565b60405180910390f35b610429600480360381019061042491906140aa565b612368565b60405161043893929190614894565b60405180910390f35b610449612392565b6040516104569190614464565b60405180910390f35b6104676123b8565b60405161047491906148cb565b60405180910390f35b610497600480360381019061049291906140aa565b6123ce565b005b6104a1612889565b6040516104ae9190614464565b60405180910390f35b6104d160048036038101906104cc91906140fc565b6128af565b005b600660009054906101000a900473ffffffffffffffffffffffffffffffffffffffff1681565b601281565b600080600660009054906101000a900473ffffffffffffffffffffffffffffffffffffffff1673ffffffffffffffffffffffffffffffffffffffff166318160ddd6040518163ffffffff1660e01b815260040160206040518083038186803b15801561056957600080fd5b505afa15801561057d573d6000803e3d6000fd5b505050506040513d601f19601f820116820180604052508101906105a19190614032565b90506105de6105bb60075483612ec290919063ffffffff16565b6105d083600554612ed890919063ffffffff16565b612eee90919063ffffffff16565b91505090565b6105ec612f04565b60008060008463ffffffff1663ffffffff1681526020019081526020016000206040518060600160405290816000820160009054906101000a900473ffffffffffffffffffffffffffffffffffffffff1673ffffffffffffffffffffffffffffffffffffffff1673ffffffffffffffffffffffffffffffffffffffff1681526020016000820160149054906101000a900463ffffffff1663ffffffff1663ffffffff1681526020016001820160009054906101000a900473ffffffffffffffffffffffffffffffffffffffff1673ffffffffffffffffffffffffffffffffffffffff1673ffffffffffffffffffffffffffffffffffffffff16815250509050600073ffffffffffffffffffffffffffffffffffffffff16816000015173ffffffffffffffffffffffffffffffffffffffff16141561075f576040517f08c379a000000000000000000000000000000000000000000000000000000000815260040161075690614722565b60405180910390fd5b6001600460009054906101000a900473ffffffffffffffffffffffffffffffffffffffff1673ffffffffffffffffffffffffffffffffffffffff16638e0b5c823084600001516040518363ffffffff1660e01b81526004016107c292919061447f565b60206040518083038186803b1580156107da57600080fd5b505afa1580156107ee573d6000803e3d6000fd5b505050506040513d601f19601f820116820180604052508101906108129190614174565b60ff1614610855576040517f08c379a000000000000000000000000000000000000000000000000000000000815260040161084c90614782565b60405180910390fd5b61085d613cd9565b816000015173ffffffffffffffffffffffffffffffffffffffff16637b08e9df83602001516040518263ffffffff1660e01b815260040161089e91906148cb565b6101006040518083038186803b1580156108b757600080fd5b505afa1580156108cb573d6000803e3d6000fd5b505050506040513d601f19601f820116820180604052508101906108ef9190613f57565b508760000188602001896040018a6060018b6080018c60a0018d60c0018761ffff1661ffff168152508760ff1660ff16815250878152508781525087815250878152508773ffffffffffffffffffffffffffffffffffffffff1673ffffffffffffffffffffffffffffffffffffffff16815250505050505050506109826008548260600151612eee90919063ffffffff16565b816060018181525050600080836000015173ffffffffffffffffffffffffffffffffffffffff16635b5b121d85602001516040518263ffffffff1660e01b81526004016109cf91906148cb565b606060405180830381600087803b1580156109e957600080fd5b505af11580156109fd573d6000803e3d6000fd5b505050506040513d601f19601f82011682018060405250810190610a21919061405b565b5091509150610a3b60085483612eee90919063ffffffff16565b9150610a5260085482612eee90919063ffffffff16565b9050610a7f82610a718560600151600554612ec290919063ffffffff16565b61342290919063ffffffff16565b6005819055506000808763ffffffff1663ffffffff168152602001908152602001600020600080820160006101000a81549073ffffffffffffffffffffffffffffffffffffffff02191690556000820160146101000a81549063ffffffff02191690556001820160006101000a81549073ffffffffffffffffffffffffffffffffffffffff02191690555050610b588583600360009054906101000a900473ffffffffffffffffffffffffffffffffffffffff1673ffffffffffffffffffffffffffffffffffffffff166134389092919063ffffffff16565b6000858760055485604051602001610b73949392919061460e565b6040516020818303038152906040529050610b8f6006826134be565b50505050505050565b610ba0612f04565b6001816020016020810190610bb591906140aa565b63ffffffff161415610bd457610bcf3382600001356135ce565b610c18565b610c17816040016020810190610bea9190613e5d565b600360009054906101000a900473ffffffffffffffffffffffffffffffffffffffff168360000135613621565b5b6000808363ffffffff1663ffffffff16815260200190815260200160002060000160009054906101000a900473ffffffffffffffffffffffffffffffffffffffff1673ffffffffffffffffffffffffffffffffffffffff166398db84686000808563ffffffff1663ffffffff16815260200190815260200160002060000160149054906101000a900463ffffffff1683600001356040518363ffffffff1660e01b8152600401610cc99291906149cb565b600060405180830381600087803b158015610ce357600080fd5b505af1158015610cf7573d6000803e3d6000fd5b505050505050565b60016020528060005260406000206000915090508060000160009054906101000a900473ffffffffffffffffffffffffffffffffffffffff16908060010160009054906101000a900473ffffffffffffffffffffffffffffffffffffffff16908060020154908060030160009054906101000a900463ffffffff16908060030160049054906101000a900463ffffffff16905085565b6006601c9054906101000a900463ffffffff1681565b600960009054906101000a900460ff1681565b8073ffffffffffffffffffffffffffffffffffffffff16638759b3426040518163ffffffff1660e01b8152600401600060405180830381600087803b158015610e0657600080fd5b505af1158015610e1a573d6000803e3d6000fd5b5050505050565b610e29612f04565b6000816000013511610e70576040517f08c379a0000000000000000000000000000000000000000000000000000000008152600401610e6790614762565b60405180910390fd5b6001816020016020810190610e8591906140aa565b63ffffffff161415610ea457610e9f338260000135613885565b610ee8565b610ee7816040016020810190610eba9190613e5d565b600660009054906101000a900473ffffffffffffffffffffffffffffffffffffffff168360000135613621565b5b600660009054906101000a900473ffffffffffffffffffffffffffffffffffffffff1673ffffffffffffffffffffffffffffffffffffffff16639dc29fac3083600001356040518363ffffffff1660e01b8152600401610f49929190614577565b600060405180830381600087803b158015610f6357600080fd5b505af1158015610f77573d6000803e3d6000fd5b50505050610f948160000135600754612ec290919063ffffffff16565b6007819055506000600460009054906101000a900473ffffffffffffffffffffffffffffffffffffffff1673ffffffffffffffffffffffffffffffffffffffff1663980bdc70306040518263ffffffff1660e01b8152600401610ff79190614464565b60206040518083038186803b15801561100f57600080fd5b505afa158015611023573d6000803e3d6000fd5b505050506040513d601f19601f8201168201806040525081019061104791906140d3565b90506006601881819054906101000a900463ffffffff168092919061106b90614c8b565b91906101000a81548163ffffffff021916908363ffffffff160217905550506040518060a001604052803373ffffffffffffffffffffffffffffffffffffffff1681526020018473ffffffffffffffffffffffffffffffffffffffff168152602001836000013581526020018263ffffffff1681526020016006601c9054906101000a900463ffffffff1663ffffffff1681525060016000600660189054906101000a900463ffffffff1663ffffffff1663ffffffff16815260200190815260200160002060008201518160000160006101000a81548173ffffffffffffffffffffffffffffffffffffffff021916908373ffffffffffffffffffffffffffffffffffffffff16021790555060208201518160010160006101000a81548173ffffffffffffffffffffffffffffffffffffffff021916908373ffffffffffffffffffffffffffffffffffffffff1602179055506040820151816002015560608201518160030160006101000a81548163ffffffff021916908363ffffffff16021790555060808201518160030160046101000a81548163ffffffff021916908363ffffffff1602179055509050506000600260008363ffffffff1663ffffffff1681526020019081526020016000206040518060600160405290816000820154815260200160018201548152602001600282015481525050905061128083600001358260000151612ec290919063ffffffff16565b81600001818152505080600260008463ffffffff1663ffffffff1681526020019081526020016000206000820151816000015560208201518160010155604082015181600201559050506000600660189054906101000a900463ffffffff1633868660000135866006601c9054906101000a900463ffffffff1660075488600001516040516020016113199897969594939291906148e6565b60405160208183030381529060405290506113356007826134be565b5050505050565b60006020528060005260406000206000915090508060000160009054906101000a900473ffffffffffffffffffffffffffffffffffffffff16908060000160149054906101000a900463ffffffff16908060010160009054906101000a900473ffffffffffffffffffffffffffffffffffffffff16905083565b600660149054906101000a900463ffffffff1681565b6113d4612f04565b60008060008463ffffffff1663ffffffff1681526020019081526020016000206040518060600160405290816000820160009054906101000a900473ffffffffffffffffffffffffffffffffffffffff1673ffffffffffffffffffffffffffffffffffffffff1673ffffffffffffffffffffffffffffffffffffffff1681526020016000820160149054906101000a900463ffffffff1663ffffffff1663ffffffff1681526020016001820160009054906101000a900473ffffffffffffffffffffffffffffffffffffffff1673ffffffffffffffffffffffffffffffffffffffff1673ffffffffffffffffffffffffffffffffffffffff16815250509050600073ffffffffffffffffffffffffffffffffffffffff16816000015173ffffffffffffffffffffffffffffffffffffffff161415611547576040517f08c379a000000000000000000000000000000000000000000000000000000000815260040161153e90614722565b60405180910390fd5b3373ffffffffffffffffffffffffffffffffffffffff16816040015173ffffffffffffffffffffffffffffffffffffffff16146115b9576040517f08c379a00000000000000000000000000000000000000000000000000000000081526004016115b0906147a2565b60405180910390fd5b6001600460009054906101000a900473ffffffffffffffffffffffffffffffffffffffff1673ffffffffffffffffffffffffffffffffffffffff16638e0b5c823084600001516040518363ffffffff1660e01b815260040161161c92919061447f565b60206040518083038186803b15801561163457600080fd5b505afa158015611648573d6000803e3d6000fd5b505050506040513d601f19601f8201168201806040525081019061166c9190614174565b60ff16146116af576040517f08c379a00000000000000000000000000000000000000000000000000000000081526004016116a690614782565b60405180910390fd5b6116b7613cd9565b816000015173ffffffffffffffffffffffffffffffffffffffff16637b08e9df83602001516040518263ffffffff1660e01b81526004016116f891906148cb565b6101006040518083038186803b15801561171157600080fd5b505afa158015611725573d6000803e3d6000fd5b505050506040513d601f19601f820116820180604052508101906117499190613f57565b508760000188602001896040018a6060018b6080018c60a0018d60c0018761ffff1661ffff168152508760ff1660ff16815250878152508781525087815250878152508773ffffffffffffffffffffffffffffffffffffffff1673ffffffffffffffffffffffffffffffffffffffff1681525050505050505050600080836000015173ffffffffffffffffffffffffffffffffffffffff166351f954bf85602001516040518263ffffffff1660e01b815260040161180791906148cb565b606060405180830381600087803b15801561182157600080fd5b505af1158015611835573d6000803e3d6000fd5b505050506040513d601f19601f82011682018060405250810190611859919061405b565b50915091506118776008548460600151612eee90919063ffffffff16565b83606001818152505061189560085483612eee90919063ffffffff16565b91506118ac60085482612eee90919063ffffffff16565b90506118c78360600151600554612ec290919063ffffffff16565b6005819055506005548211156118f1576118ee81846060015161342290919063ffffffff16565b91505b6119068260055461342290919063ffffffff16565b6005819055506000808763ffffffff1663ffffffff168152602001908152602001600020600080820160006101000a81549073ffffffffffffffffffffffffffffffffffffffff02191690556000820160146101000a81549063ffffffff02191690556001820160006101000a81549073ffffffffffffffffffffffffffffffffffffffff021916905550506119df8583600360009054906101000a900473ffffffffffffffffffffffffffffffffffffffff1673ffffffffffffffffffffffffffffffffffffffff166134389092919063ffffffff16565b60008587600554856040516020016119fa949392919061460e565b6040516020818303038152906040529050611a166005826134be565b50505050505050565b60085481565b611a2d612f04565b3373ffffffffffffffffffffffffffffffffffffffff16600160008363ffffffff1663ffffffff16815260200190815260200160002060000160009054906101000a900473ffffffffffffffffffffffffffffffffffffffff1673ffffffffffffffffffffffffffffffffffffffff161480611b1657503373ffffffffffffffffffffffffffffffffffffffff16600160008363ffffffff1663ffffffff16815260200190815260200160002060010160009054906101000a900473ffffffffffffffffffffffffffffffffffffffff1673ffffffffffffffffffffffffffffffffffffffff16145b611b55576040517f08c379a0000000000000000000000000000000000000000000000000000000008152600401611b4c906146e2565b60405180910390fd5b600060026000600160008563ffffffff1663ffffffff16815260200190815260200160002060030160009054906101000a900463ffffffff1663ffffffff1663ffffffff16815260200190815260200160002090506000816001015411611bf1576040517f08c379a0000000000000000000000000000000000000000000000000000000008152600401611be890614702565b60405180910390fd5b6000611c428260000154611c34600160008763ffffffff1663ffffffff168152602001908152602001600020600201548560010154612ed890919063ffffffff16565b612eee90919063ffffffff16565b9050611cd3600160008563ffffffff1663ffffffff16815260200190815260200160002060010160009054906101000a900473ffffffffffffffffffffffffffffffffffffffff1682600360009054906101000a900473ffffffffffffffffffffffffffffffffffffffff1673ffffffffffffffffffffffffffffffffffffffff166134389092919063ffffffff16565b600160008463ffffffff1663ffffffff168152602001908152602001600020600080820160006101000a81549073ffffffffffffffffffffffffffffffffffffffff02191690556001820160006101000a81549073ffffffffffffffffffffffffffffffffffffffff021916905560028201600090556003820160006101000a81549063ffffffff02191690556003820160046101000a81549063ffffffff021916905550506000833383604051602001611d9093929190614964565b6040516020818303038152906040529050611dac6003826134be565b50505050565b6000611dbc612f04565b6001600460009054906101000a900473ffffffffffffffffffffffffffffffffffffffff1673ffffffffffffffffffffffffffffffffffffffff16638e0b5c8230886040518363ffffffff1660e01b8152600401611e1b92919061447f565b60206040518083038186803b158015611e3357600080fd5b505afa158015611e47573d6000803e3d6000fd5b505050506040513d601f19601f82011682018060405250810190611e6b9190614174565b60ff1614611eae576040517f08c379a0000000000000000000000000000000000000000000000000000000008152600401611ea590614782565b60405180910390fd5b6001846020016020810190611ec391906140aa565b63ffffffff161415611ee257611edd3385600001356135ce565b611f26565b611f25846040016020810190611ef89190613e5d565b600360009054906101000a900473ffffffffffffffffffffffffffffffffffffffff168660000135613621565b5b60008573ffffffffffffffffffffffffffffffffffffffff16638b100c86858588600001356040518463ffffffff1660e01b8152600401611f699392919061466e565b602060405180830381600087803b158015611f8357600080fd5b505af1158015611f97573d6000803e3d6000fd5b505050506040513d601f19601f82011682018060405250810190611fbb91906140d3565b90506006601481819054906101000a900463ffffffff1680929190611fdf90614c8b565b91906101000a81548163ffffffff021916908363ffffffff1602179055505060405180606001604052808773ffffffffffffffffffffffffffffffffffffffff1681526020018263ffffffff1681526020013373ffffffffffffffffffffffffffffffffffffffff16815250600080600660149054906101000a900463ffffffff1663ffffffff1663ffffffff16815260200190815260200160002060008201518160000160006101000a81548173ffffffffffffffffffffffffffffffffffffffff021916908373ffffffffffffffffffffffffffffffffffffffff16021790555060208201518160000160146101000a81548163ffffffff021916908363ffffffff16021790555060408201518160010160006101000a81548173ffffffffffffffffffffffffffffffffffffffff021916908373ffffffffffffffffffffffffffffffffffffffff1602179055509050506000338783600660149054906101000a900463ffffffff1660405160200161215e9493929190614532565b604051602081830303815290604052905061217a6004826134be565b600660149054906101000a900463ffffffff1692505050949350505050565b6121a1612f04565b60008160000135116121e8576040517f08c379a00000000000000000000000000000000000000000000000000000000081526004016121df90614762565b60405180910390fd5b60018160200160208101906121fd91906140aa565b63ffffffff16141561221c576122173382600001356135ce565b612260565b61225f8160400160208101906122329190613e5d565b600360009054906101000a900473ffffffffffffffffffffffffffffffffffffffff168360000135613621565b5b600061226f82600001356138d8565b905061228a8260000135600554612ec290919063ffffffff16565b600581905550600660009054906101000a900473ffffffffffffffffffffffffffffffffffffffff1673ffffffffffffffffffffffffffffffffffffffff166340c10f1984836040518363ffffffff1660e01b81526004016122ed929190614577565b600060405180830381600087803b15801561230757600080fd5b505af115801561231b573d6000803e3d6000fd5b5050505060008383600001358360405160200161233a939291906145a0565b60405160208183030381529060405290506123566002826134be565b50505050565b60055481565b60075481565b60026020528060005260406000206000915090508060000154908060010154908060020154905083565b600360009054906101000a900473ffffffffffffffffffffffffffffffffffffffff1681565b600660189054906101000a900463ffffffff1681565b6123d6612f04565b3373ffffffffffffffffffffffffffffffffffffffff16600160008363ffffffff1663ffffffff16815260200190815260200160002060000160009054906101000a900473ffffffffffffffffffffffffffffffffffffffff1673ffffffffffffffffffffffffffffffffffffffff1614612486576040517f08c379a000000000000000000000000000000000000000000000000000000000815260040161247d906146e2565b60405180910390fd5b600660009054906101000a900473ffffffffffffffffffffffffffffffffffffffff1673ffffffffffffffffffffffffffffffffffffffff166340c10f19600160008463ffffffff1663ffffffff16815260200190815260200160002060000160009054906101000a900473ffffffffffffffffffffffffffffffffffffffff16600160008563ffffffff1663ffffffff168152602001908152602001600020600201546040518363ffffffff1660e01b8152600401612547929190614577565b600060405180830381600087803b15801561256157600080fd5b505af1158015612575573d6000803e3d6000fd5b505050506006601c9054906101000a900463ffffffff1663ffffffff16600160008363ffffffff1663ffffffff16815260200190815260200160002060030160009054906101000a900463ffffffff1663ffffffff161061274657612607600160008363ffffffff1663ffffffff1681526020019081526020016000206002015460075461342290919063ffffffff16565b600781905550600060026000600160008563ffffffff1663ffffffff16815260200190815260200160002060030160009054906101000a900463ffffffff1663ffffffff1663ffffffff168152602001908152602001600020604051806060016040529081600082015481526020016001820154815260200160028201548152505090506126c4600160008463ffffffff1663ffffffff16815260200190815260200160002060020154826000015161342290919063ffffffff16565b8160000181815250508060026000600160008663ffffffff1663ffffffff16815260200190815260200160002060030160009054906101000a900463ffffffff1663ffffffff1663ffffffff16815260200190815260200160002060008201518160000155602082015181600101556040820151816002015590505050612788565b6000612787576040517f08c379a000000000000000000000000000000000000000000000000000000000815260040161277e906146c2565b60405180910390fd5b5b600081600160008463ffffffff1663ffffffff168152602001908152602001600020600201546007546040516020016127c3939291906149f4565b60405160208183030381529060405290506127df6008826134be565b600160008363ffffffff1663ffffffff168152602001908152602001600020600080820160006101000a81549073ffffffffffffffffffffffffffffffffffffffff02191690556001820160006101000a81549073ffffffffffffffffffffffffffffffffffffffff021916905560028201600090556003820160006101000a81549063ffffffff02191690556003820160046101000a81549063ffffffff021916905550505050565b600460009054906101000a900473ffffffffffffffffffffffffffffffffffffffff1681565b6128b7612f04565b60008060008463ffffffff1663ffffffff1681526020019081526020016000206040518060600160405290816000820160009054906101000a900473ffffffffffffffffffffffffffffffffffffffff1673ffffffffffffffffffffffffffffffffffffffff1673ffffffffffffffffffffffffffffffffffffffff1681526020016000820160149054906101000a900463ffffffff1663ffffffff1663ffffffff1681526020016001820160009054906101000a900473ffffffffffffffffffffffffffffffffffffffff1673ffffffffffffffffffffffffffffffffffffffff1673ffffffffffffffffffffffffffffffffffffffff16815250509050600073ffffffffffffffffffffffffffffffffffffffff16816000015173ffffffffffffffffffffffffffffffffffffffff161415612a2a576040517f08c379a0000000000000000000000000000000000000000000000000000000008152600401612a2190614722565b60405180910390fd5b3373ffffffffffffffffffffffffffffffffffffffff16816040015173ffffffffffffffffffffffffffffffffffffffff1614612a9c576040517f08c379a0000000000000000000000000000000000000000000000000000000008152600401612a93906147a2565b60405180910390fd5b6002600460009054906101000a900473ffffffffffffffffffffffffffffffffffffffff1673ffffffffffffffffffffffffffffffffffffffff16638e0b5c823084600001516040518363ffffffff1660e01b8152600401612aff92919061447f565b60206040518083038186803b158015612b1757600080fd5b505afa158015612b2b573d6000803e3d6000fd5b505050506040513d601f19601f82011682018060405250810190612b4f9190614174565b60ff1614612b92576040517f08c379a0000000000000000000000000000000000000000000000000000000008152600401612b8990614782565b60405180910390fd5b612b9a613cd9565b816000015173ffffffffffffffffffffffffffffffffffffffff16637b08e9df83602001516040518263ffffffff1660e01b8152600401612bdb91906148cb565b6101006040518083038186803b158015612bf457600080fd5b505afa158015612c08573d6000803e3d6000fd5b505050506040513d601f19601f82011682018060405250810190612c2c9190613f57565b508760000188602001896040018a6060018b6080018c60a0018d60c0018761ffff1661ffff168152508760ff1660ff16815250878152508781525087815250878152508773ffffffffffffffffffffffffffffffffffffffff1673ffffffffffffffffffffffffffffffffffffffff16815250505050505050506000826000015173ffffffffffffffffffffffffffffffffffffffff1663f50d58ab84602001516040518263ffffffff1660e01b8152600401612ce991906148cb565b606060405180830381600087803b158015612d0357600080fd5b505af1158015612d17573d6000803e3d6000fd5b505050506040513d601f19601f82011682018060405250810190612d3b919061405b565b50915050612d5460085482612eee90919063ffffffff16565b9050612d6b81600554612ec290919063ffffffff16565b600581905550612d8a6008548360600151612eee90919063ffffffff16565b826060018181525050612daa81836060015161342290919063ffffffff16565b90506000808663ffffffff1663ffffffff168152602001908152602001600020600080820160006101000a81549073ffffffffffffffffffffffffffffffffffffffff02191690556000820160146101000a81549063ffffffff02191690556001820160006101000a81549073ffffffffffffffffffffffffffffffffffffffff02191690555050612e7f8482600360009054906101000a900473ffffffffffffffffffffffffffffffffffffffff1673ffffffffffffffffffffffffffffffffffffffff166134389092919063ffffffff16565b600084866005548560600151604051602001612e9e949392919061460e565b6040516020818303038152906040529050612eba6007826134be565b505050505050565b60008183612ed09190614a6e565b905092915050565b60008183612ee69190614af5565b905092915050565b60008183612efc9190614ac4565b905092915050565b6000600260006006601c9054906101000a900463ffffffff1663ffffffff1663ffffffff1681526020019081526020016000206040518060600160405290816000820154815260200160018201548152602001600282015481525050905060606000600460009054906101000a900473ffffffffffffffffffffffffffffffffffffffff1673ffffffffffffffffffffffffffffffffffffffff16637a5d9e173085604001516040518363ffffffff1660e01b8152600401612fc7929190614577565b60206040518083038186803b158015612fdf57600080fd5b505afa158015612ff3573d6000803e3d6000fd5b505050506040513d601f19601f820116820180604052508101906130179190614032565b9050600081141561302a57505050613420565b60005b81811461331d57600260006006601c9054906101000a900463ffffffff1663ffffffff1663ffffffff1681526020019081526020016000206040518060600160405290816000820154815260200160018201548152602001600282015481525050935060008460000151146132bb5761317a613153600660009054906101000a900473ffffffffffffffffffffffffffffffffffffffff1673ffffffffffffffffffffffffffffffffffffffff166318160ddd6040518163ffffffff1660e01b815260040160206040518083038186803b15801561310a57600080fd5b505afa15801561311e573d6000803e3d6000fd5b505050506040513d601f19601f820116820180604052508101906131429190614032565b600754612ec290919063ffffffff16565b61316c6005548760000151612ed890919063ffffffff16565b612eee90919063ffffffff16565b8460200181815250506000846040015114156131e057428460400181815250506006601c9054906101000a900463ffffffff1684604001516040516020016131c39291906149cb565b60405160208183030381529060405292506131df600a846134be565b5b6131f9846000015160075461342290919063ffffffff16565b600781905550613218846020015160055461342290919063ffffffff16565b60058190555083600260006006601c9054906101000a900463ffffffff1663ffffffff1663ffffffff1681526020019081526020016000206000820151816000015560208201518160010155604082015181600201559050506006601c9054906101000a900463ffffffff16846020015160055460405160200161329e939291906149f4565b60405160208183030381529060405292506132ba6009846134be565b5b6006601c81819054906101000a900463ffffffff16809291906132dd90614c8b565b91906101000a81548163ffffffff021916908363ffffffff16021790555050600381111561330a5761331d565b808061331590614c42565b91505061302d565b50600260006006601c9054906101000a900463ffffffff1663ffffffff1663ffffffff168152602001908152602001600020604051806060016040529081600082015481526020016001820154815260200160028201548152505092504283604001818152505082600260006006601c9054906101000a900463ffffffff1663ffffffff1663ffffffff1681526020019081526020016000206000820151816000015560208201518160010155604082015181600201559050506006601c9054906101000a900463ffffffff1683604001516040516020016134009291906149cb565b604051602081830303815290604052915061341c600a836134be565b5050505b565b600081836134309190614b4f565b905092915050565b6134b98363a9059cbb60e01b8484604051602401613457929190614577565b604051602081830303815290604052907bffffffffffffffffffffffffffffffffffffffffffffffffffffffff19166020820180517bffffffffffffffffffffffffffffffffffffffffffffffffffffffff83818316178352505050506139ba565b505050565b600460009054906101000a900473ffffffffffffffffffffffffffffffffffffffff1673ffffffffffffffffffffffffffffffffffffffff166301d277556040518163ffffffff1660e01b815260040160206040518083038186803b15801561352657600080fd5b505afa15801561353a573d6000803e3d6000fd5b505050506040513d601f19601f8201168201806040525081019061355e9190613e86565b73ffffffffffffffffffffffffffffffffffffffff1663fdbb9d4a83836040518363ffffffff1660e01b815260040161359892919061499b565b600060405180830381600087803b1580156135b257600080fd5b505af11580156135c6573d6000803e3d6000fd5b505050505050565b61361d823083600360009054906101000a900473ffffffffffffffffffffffffffffffffffffffff1673ffffffffffffffffffffffffffffffffffffffff16613a82909392919063ffffffff16565b5050565b600960009054906101000a900460ff16613670576040517f08c379a0000000000000000000000000000000000000000000000000000000008152600401613667906147e2565b60405180910390fd5b6000600960006101000a81548160ff02191690831515021790555060008273ffffffffffffffffffffffffffffffffffffffff166370a08231306040518263ffffffff1660e01b81526004016136c69190614464565b60206040518083038186803b1580156136de57600080fd5b505afa1580156136f2573d6000803e3d6000fd5b505050506040513d601f19601f820116820180604052508101906137169190614032565b90503373ffffffffffffffffffffffffffffffffffffffff16631dfa3bd78385876040518463ffffffff1660e01b81526004016137559392919061485d565b600060405180830381600087803b15801561376f57600080fd5b505af1158015613783573d6000803e3d6000fd5b5050505061379a8282612ec290919063ffffffff16565b8373ffffffffffffffffffffffffffffffffffffffff166370a08231306040518263ffffffff1660e01b81526004016137d39190614464565b60206040518083038186803b1580156137eb57600080fd5b505afa1580156137ff573d6000803e3d6000fd5b505050506040513d601f19601f820116820180604052508101906138239190614032565b1015613864576040517f08c379a000000000000000000000000000000000000000000000000000000000815260040161385b90614822565b60405180910390fd5b506001600960006101000a81548160ff021916908315150217905550505050565b6138d4823083600660009054906101000a900473ffffffffffffffffffffffffffffffffffffffff1673ffffffffffffffffffffffffffffffffffffffff16613a82909392919063ffffffff16565b5050565b60008060055414156138ec578190506139b5565b6139b26005546139a4600660009054906101000a900473ffffffffffffffffffffffffffffffffffffffff1673ffffffffffffffffffffffffffffffffffffffff166318160ddd6040518163ffffffff1660e01b815260040160206040518083038186803b15801561395d57600080fd5b505afa158015613971573d6000803e3d6000fd5b505050506040513d601f19601f820116820180604052508101906139959190614032565b85612ed890919063ffffffff16565b612eee90919063ffffffff16565b90505b919050565b6000613a1c826040518060400160405280602081526020017f5361666545524332303a206c6f772d6c6576656c2063616c6c206661696c65648152508573ffffffffffffffffffffffffffffffffffffffff16613b0b9092919063ffffffff16565b9050600081511480613a3e575080806020019051810190613a3d9190614009565b5b613a7d576040517f08c379a0000000000000000000000000000000000000000000000000000000008152600401613a7490614802565b60405180910390fd5b505050565b613b05846323b872dd60e01b858585604051602401613aa3939291906144a8565b604051602081830303815290604052907bffffffffffffffffffffffffffffffffffffffffffffffffffffffff19166020820180517bffffffffffffffffffffffffffffffffffffffffffffffffffffffff83818316178352505050506139ba565b50505050565b6060613b1a8484600085613b23565b90509392505050565b606082471015613b68576040517f08c379a0000000000000000000000000000000000000000000000000000000008152600401613b5f90614742565b60405180910390fd5b6000808673ffffffffffffffffffffffffffffffffffffffff168587604051613b91919061444d565b60006040518083038185875af1925050503d8060008114613bce576040519150601f19603f3d011682016040523d82523d6000602084013e613bd3565b606091505b5091509150613be487838387613bf0565b92505050949350505050565b60608315613c5357600083511415613c4b57613c0b85613c66565b613c4a576040517f08c379a0000000000000000000000000000000000000000000000000000000008152600401613c41906147c2565b60405180910390fd5b5b829050613c5e565b613c5d8383613c89565b5b949350505050565b6000808273ffffffffffffffffffffffffffffffffffffffff163b119050919050565b600082511115613c9c5781518083602001fd5b806040517f08c379a0000000000000000000000000000000000000000000000000000000008152600401613cd091906146a0565b60405180910390fd5b604051806101000160405280600073ffffffffffffffffffffffffffffffffffffffff16815260200160008152602001600081526020016000815260200160008152602001600060ff168152602001600061ffff168152602001600081525090565b600081359050613d4a81614f5f565b92915050565b600081519050613d5f81614f5f565b92915050565b600081519050613d7481614f76565b92915050565b60008083601f840112613d8c57600080fd5b8235905067ffffffffffffffff811115613da557600080fd5b602083019150836001820283011115613dbd57600080fd5b9250929050565b600081519050613dd381614f8d565b92915050565b600060608284031215613deb57600080fd5b81905092915050565b600081519050613e0381614fa4565b92915050565b600081519050613e1881614fbb565b92915050565b600081359050613e2d81614fd2565b92915050565b600081519050613e4281614fd2565b92915050565b600081519050613e5781614fe9565b92915050565b600060208284031215613e6f57600080fd5b6000613e7d84828501613d3b565b91505092915050565b600060208284031215613e9857600080fd5b6000613ea684828501613d50565b91505092915050565b60008060808385031215613ec257600080fd5b6000613ed085828601613d3b565b9250506020613ee185828601613dd9565b9150509250929050565b60008060008060a08587031215613f0157600080fd5b6000613f0f87828801613d3b565b9450506020613f2087828801613dd9565b935050608085013567ffffffffffffffff811115613f3d57600080fd5b613f4987828801613d7a565b925092505092959194509250565b600080600080600080600080610100898b031215613f7457600080fd5b6000613f828b828c01613d50565b9850506020613f938b828c01613e09565b9750506040613fa48b828c01613e09565b9650506060613fb58b828c01613e09565b9550506080613fc68b828c01613e09565b94505060a0613fd78b828c01613e48565b93505060c0613fe88b828c01613df4565b92505060e0613ff98b828c01613dc4565b9150509295985092959890939650565b60006020828403121561401b57600080fd5b600061402984828501613d65565b91505092915050565b60006020828403121561404457600080fd5b600061405284828501613e09565b91505092915050565b60008060006060848603121561407057600080fd5b600061407e86828701613e09565b935050602061408f86828701613e09565b92505060406140a086828701613dc4565b9150509250925092565b6000602082840312156140bc57600080fd5b60006140ca84828501613e1e565b91505092915050565b6000602082840312156140e557600080fd5b60006140f384828501613e33565b91505092915050565b6000806040838503121561410f57600080fd5b600061411d85828601613e1e565b925050602061412e85828601613d3b565b9150509250929050565b6000806080838503121561414b57600080fd5b600061415985828601613e1e565b925050602061416a85828601613dd9565b9150509250929050565b60006020828403121561418657600080fd5b600061419484828501613e48565b91505092915050565b6141a681614b83565b82525050565b6141b581614b95565b82525050565b60006141c78385614a41565b93506141d4838584614c00565b6141dd83614d16565b840190509392505050565b60006141f382614a2b565b6141fd8185614a41565b935061420d818560208601614c0f565b61421681614d16565b840191505092915050565b600061422c82614a2b565b6142368185614a52565b9350614246818560208601614c0f565b80840191505092915050565b600061425d82614a36565b6142678185614a5d565b9350614277818560208601614c0f565b61428081614d16565b840191505092915050565b6000614298600e83614a5d565b91506142a382614d27565b602082019050919050565b60006142bb600e83614a5d565b91506142c682614d50565b602082019050919050565b60006142de600c83614a5d565b91506142e982614d79565b602082019050919050565b6000614301601083614a5d565b915061430c82614da2565b602082019050919050565b6000614324602683614a5d565b915061432f82614dcb565b604082019050919050565b6000614347601083614a5d565b915061435282614e1a565b602082019050919050565b600061436a601183614a5d565b915061437582614e43565b602082019050919050565b600061438d600b83614a5d565b915061439882614e6c565b602082019050919050565b60006143b0601d83614a5d565b91506143bb82614e95565b602082019050919050565b60006143d3600383614a5d565b91506143de82614ebe565b602082019050919050565b60006143f6602a83614a5d565b915061440182614ee7565b604082019050919050565b6000614419601783614a5d565b915061442482614f36565b602082019050919050565b61443881614bd9565b82525050565b61444781614be3565b82525050565b60006144598284614221565b915081905092915050565b6000602082019050614479600083018461419d565b92915050565b6000604082019050614494600083018561419d565b6144a1602083018461419d565b9392505050565b60006060820190506144bd600083018661419d565b6144ca602083018561419d565b6144d7604083018461442f565b949350505050565b600060a0820190506144f4600083018861419d565b614501602083018761419d565b61450e604083018661442f565b61451b606083018561443e565b614528608083018461443e565b9695505050505050565b6000608082019050614547600083018761419d565b614554602083018661419d565b614561604083018561443e565b61456e606083018461443e565b95945050505050565b600060408201905061458c600083018561419d565b614599602083018461442f565b9392505050565b60006060820190506145b5600083018661419d565b6145c2602083018561442f565b6145cf604083018461442f565b949350505050565b60006060820190506145ec600083018661419d565b6145f9602083018561443e565b614606604083018461419d565b949350505050565b6000608082019050614623600083018761419d565b614630602083018661443e565b61463d604083018561442f565b61464a606083018461442f565b95945050505050565b600060208201905061466860008301846141ac565b92915050565b600060408201905081810360008301526146898185876141bb565b9050614698602083018461442f565b949350505050565b600060208201905081810360008301526146ba8184614252565b905092915050565b600060208201905081810360008301526146db8161428b565b9050919050565b600060208201905081810360008301526146fb816142ae565b9050919050565b6000602082019050818103600083015261471b816142d1565b9050919050565b6000602082019050818103600083015261473b816142f4565b9050919050565b6000602082019050818103600083015261475b81614317565b9050919050565b6000602082019050818103600083015261477b8161433a565b9050919050565b6000602082019050818103600083015261479b8161435d565b9050919050565b600060208201905081810360008301526147bb81614380565b9050919050565b600060208201905081810360008301526147db816143a3565b9050919050565b600060208201905081810360008301526147fb816143c6565b9050919050565b6000602082019050818103600083015261481b816143e9565b9050919050565b6000602082019050818103600083015261483b8161440c565b9050919050565b6000602082019050614857600083018461442f565b92915050565b6000606082019050614872600083018661442f565b61487f602083018561419d565b61488c604083018461419d565b949350505050565b60006060820190506148a9600083018661442f565b6148b6602083018561442f565b6148c3604083018461442f565b949350505050565b60006020820190506148e0600083018461443e565b92915050565b6000610100820190506148fc600083018b61443e565b614909602083018a61419d565b614916604083018961419d565b614923606083018861442f565b614930608083018761443e565b61493d60a083018661443e565b61494a60c083018561442f565b61495760e083018461442f565b9998505050505050505050565b6000606082019050614979600083018661443e565b614986602083018561419d565b614993604083018461442f565b949350505050565b60006040820190506149b0600083018561443e565b81810360208301526149c281846141e8565b90509392505050565b60006040820190506149e0600083018561443e565b6149ed602083018461442f565b9392505050565b6000606082019050614a09600083018661443e565b614a16602083018561442f565b614a23604083018461442f565b949350505050565b600081519050919050565b600081519050919050565b600082825260208201905092915050565b600081905092915050565b600082825260208201905092915050565b6000614a7982614bd9565b9150614a8483614bd9565b9250827fffffffffffffffffffffffffffffffffffffffffffffffffffffffffffffffff03821115614ab957614ab8614cb8565b5b828201905092915050565b6000614acf82614bd9565b9150614ada83614bd9565b925082614aea57614ae9614ce7565b5b828204905092915050565b6000614b0082614bd9565b9150614b0b83614bd9565b9250817fffffffffffffffffffffffffffffffffffffffffffffffffffffffffffffffff0483118215151615614b4457614b43614cb8565b5b828202905092915050565b6000614b5a82614bd9565b9150614b6583614bd9565b925082821015614b7857614b77614cb8565b5b828203905092915050565b6000614b8e82614bb9565b9050919050565b60008115159050919050565b6000819050919050565b600061ffff82169050919050565b600073ffffffffffffffffffffffffffffffffffffffff82169050919050565b6000819050919050565b600063ffffffff82169050919050565b600060ff82169050919050565b82818337600083830152505050565b60005b83811015614c2d578082015181840152602081019050614c12565b83811115614c3c576000848401525b50505050565b6000614c4d82614bd9565b91507fffffffffffffffffffffffffffffffffffffffffffffffffffffffffffffffff821415614c8057614c7f614cb8565b5b600182019050919050565b6000614c9682614be3565b915063ffffffff821415614cad57614cac614cb8565b5b600182019050919050565b7f4e487b7100000000000000000000000000000000000000000000000000000000600052601160045260246000fd5b7f4e487b7100000000000000000000000000000000000000000000000000000000600052601260045260246000fd5b6000601f19601f8301169050919050565b7f63616e206e6f742063616e636c65000000000000000000000000000000000000600082015250565b7f696e76616c69642063616c6c6572000000000000000000000000000000000000600082015250565b7f6e6f20746f6b656e206f75740000000000000000000000000000000000000000600082015250565b7f4572726f7220706f736974696f6e496400000000000000000000000000000000600082015250565b7f416464726573733a20696e73756666696369656e742062616c616e636520666f60008201527f722063616c6c0000000000000000000000000000000000000000000000000000602082015250565b7f696e76616c696420616d6f756e74496e00000000000000000000000000000000600082015250565b7f77726f6e6720706f6f6c20737461747573000000000000000000000000000000600082015250565b7f4572726f72206f776e6572000000000000000000000000000000000000000000600082015250565b7f416464726573733a2063616c6c20746f206e6f6e2d636f6e7472616374000000600082015250565b7f4c4f4b0000000000000000000000000000000000000000000000000000000000600082015250565b7f5361666545524332303a204552433230206f7065726174696f6e20646964206e60008201527f6f74207375636365656400000000000000000000000000000000000000000000602082015250565b7f706f6f6c546f6b656e206973206e6f7420656e6f756768000000000000000000600082015250565b614f6881614b83565b8114614f7357600080fd5b50565b614f7f81614b95565b8114614f8a57600080fd5b50565b614f9681614ba1565b8114614fa157600080fd5b50565b614fad81614bab565b8114614fb857600080fd5b50565b614fc481614bd9565b8114614fcf57600080fd5b50565b614fdb81614be3565b8114614fe657600080fd5b50565b614ff281614bf3565b8114614ffd57600080fd5b5056fea26469706673582212200de8239133f9a8fa48c826746a1d8e6d3a6c0e4c34dedc871ec3f90c7b68672064736f6c63430008010033",
  "immutableReferences": {},
  "source": "pragma solidity 0.8.1;\npragma abicoder v2;\n\nimport \"./interfaces/IAsset.sol\";\nimport \"./interfaces/IAssetSettings.sol\";\nimport \"./interfaces/ILpDeployer.sol\";\nimport \"./interfaces/IQLP.sol\";\nimport \"../Pool/interfaces/IPool.sol\";\nimport \"../interfaces/ICallback.sol\";\n\nimport \"../interfaces/IEventOut.sol\";\nimport \"@openzeppelin/contracts/token/ERC20/ERC20.sol\";\nimport \"@openzeppelin/contracts/token/ERC20/utils/SafeERC20.sol\";\nimport \"@openzeppelin/contracts/token/ERC20/IERC20.sol\";\nimport \"@openzeppelin/contracts/utils/math/SafeMath.sol\";\n\n\n//\n//LP PVE\ncontract Asset is IAsset{\n\n    using SafeERC20 for ERC20;\n    using SafeERC20 for IERC20;\n    using SafeMath for uint256;\n\n    mapping(uint32 => Position) public _positions;\n    mapping(uint32 => RemoveInfo) public _removeInfos;\n    mapping(uint32 => EpochInfo) public _epochInfos;\n\n    address public _assetAddress;\n    address public _settingAddress;\n    uint256 public _liquidityAmount = 0;//\n    address public _lp;\n    uint32 public _positionIndex = 0;\n    uint32 public _removeIndex = 0;\n    uint32 public override _currentEpoch = 0;\n    //\n    uint256 public _applyRemoveLp = 0;\n    // //LP\n    // uint256 public _settleRemoveLp = 0;\n\n    uint256 public constant StandardDecimal = 18;\n    uint256 public override _precisionDiff;\n\n    bool public unlocked = true;\n\n    modifier lock() {\n        require(unlocked, 'LOK');\n        unlocked = false;\n        _;\n        unlocked = true;\n    }\n\n    constructor(address poolToken,address setting) {\n        _assetAddress = poolToken;\n        _settingAddress = setting;\n\n        uint256 _poolDecimalDiff = StandardDecimal > ERC20(poolToken).decimals()\n        ? StandardDecimal - ERC20(poolToken).decimals()\n        : 0;\n        if (_poolDecimalDiff > 0) {\n            _precisionDiff = 10**_poolDecimalDiff;\n        } else {\n            _precisionDiff = 1;\n        }\n        _lp = ILpDeployer(IAssetSettings(_settingAddress).lpDeployer()).deployLP(_assetAddress,_settingAddress);\n        // \n        // bytes memory data = abi.encode(_assetAddress,_settingAddress,_lp,address(this)ERC20(poolToken).decimals());\n        // eventOut(1,data);\n    }\n    function userPayAsset(address payer,\n        uint256 amount) internal {\n        IERC20(_assetAddress).safeTransferFrom(payer,address(this),amount);\n    }\n\n    function userPayLp(address payer,\n        uint256 amount) internal {\n        IERC20(_lp).safeTransferFrom(payer,address(this),amount);\n        \n    }\n\n    function tokenCallBack(address user,address tokenAddress, uint256 amount) internal lock {\n        uint256 balanceBefore = IERC20(tokenAddress).balanceOf(address(this));\n        ICallback(msg.sender).assetCallback(\n            amount,\n            tokenAddress,\n            user\n        );\n        require(\n            IERC20(tokenAddress).balanceOf(address(this)) >=\n                balanceBefore.add(amount),\n            \"poolToken is not enough\"\n        );\n    }\n\n    function getLPAmount(uint256 assetAmount) internal view returns (uint256) {\n        if (_liquidityAmount == 0) {\n            return assetAmount;\n        }\n        return assetAmount.mul(IERC20(_lp).totalSupply()).div(_liquidityAmount);\n    }\n\n    function getAssetAmount(uint256 lpAmount) internal view returns (uint256) {\n        return lpAmount.mul(_liquidityAmount).div(IERC20(_lp).totalSupply());\n    }\n    //applyLp\n    function _liquidityPool() external override view returns(uint256) {\n        uint256 lpToken = IERC20(_lp).totalSupply();\n        return _liquidityAmount.mul(lpToken).div(lpToken.add(_applyRemoveLp));\n    }\n\n\n    function addLiquidity(address receipt,AmountIn calldata amountIn) external override{\n        settleEpoch();\n        require(amountIn.amount > 0,\"invalid amountIn\");\n        if (amountIn.payType == 1) {\n            userPayAsset(msg.sender,amountIn.amount);\n        } else {\n            tokenCallBack(amountIn.payerAddress,_assetAddress,amountIn.amount);\n        }\n        uint256 lpAmount = getLPAmount(amountIn.amount);\n        _liquidityAmount = _liquidityAmount.add(amountIn.amount);\n\n        IQLP(_lp).mint(receipt,lpAmount);\n        bytes memory data = abi.encode(receipt,amountIn.amount,lpAmount);\n        eventOut(2,data);\n\n    }\n    //liquidity\n    function applyRemove(address receipt,AmountIn calldata amountIn) external override {\n        settleEpoch();\n        require(amountIn.amount > 0,\"invalid amountIn\");\n        if (amountIn.payType == 1) {\n            userPayLp(msg.sender,amountIn.amount);\n        } else {\n            tokenCallBack(amountIn.payerAddress,_lp,amountIn.amount);\n        }\n        IQLP(_lp).burn(address(this),amountIn.amount);\n        _applyRemoveLp = _applyRemoveLp.add(amountIn.amount);\n        uint32 outEpoch = IAssetSettings(_settingAddress).getOutEpoch(address(this));\n        _removeIndex++;\n        _removeInfos[_removeIndex] = RemoveInfo(\n            msg.sender,\n            receipt,\n            amountIn.amount,\n            outEpoch,\n            _currentEpoch\n        );\n        // out\n        EpochInfo memory epochData = _epochInfos[outEpoch];\n        epochData.lpAmount = epochData.lpAmount.add(amountIn.amount);\n        _epochInfos[outEpoch] = epochData;\n\n        bytes memory data = abi.encode(_removeIndex,msg.sender,receipt,amountIn.amount,outEpoch,_currentEpoch,_applyRemoveLp,epochData.lpAmount);\n        eventOut(7,data);\n        //eventOutremoveIndex\n    }\n    //apply\n    function cancleApplyRemove(uint32 removeIndex) external override {\n        settleEpoch();\n        require(_removeInfos[removeIndex].owner == msg.sender,\"invalid caller\");\n        IQLP(_lp).mint(_removeInfos[removeIndex].owner,_removeInfos[removeIndex].lpAmount);\n        if (_removeInfos[removeIndex].outEpoch >= _currentEpoch) {\n            _applyRemoveLp = _applyRemoveLp.sub(_removeInfos[removeIndex].lpAmount);\n\n            EpochInfo memory epochData = _epochInfos[_removeInfos[removeIndex].outEpoch];\n            epochData.lpAmount = epochData.lpAmount.sub(_removeInfos[removeIndex].lpAmount);\n            _epochInfos[_removeInfos[removeIndex].outEpoch] = epochData;  \n        } else {\n            require(false,\"can not cancle\");\n        }\n\n        bytes memory data = abi.encode(removeIndex,_removeInfos[removeIndex].lpAmount,_applyRemoveLp);\n        eventOut(8,data);\n        delete _removeInfos[removeIndex];\n\n    }\n    //lastTime   \n    function settleEpoch() internal {\n        EpochInfo memory epochData = _epochInfos[_currentEpoch];\n        bytes memory data;\n        // Start\n        uint256 moveEpoch = IAssetSettings(_settingAddress).isNextEpoch(address(this),epochData.beginTime);\n        if (moveEpoch == 0) {\n            return ;\n        }\n\n        for (uint256 i = 0;i!=moveEpoch;i++) {\n            epochData = _epochInfos[_currentEpoch];\n            if (epochData.lpAmount != 0) {\n                epochData.tokenAmount = epochData.lpAmount.mul(_liquidityAmount).div(_applyRemoveLp.add(IERC20(_lp).totalSupply()));\n                if (epochData.beginTime == 0) {\n                    epochData.beginTime = block.timestamp;\n                    data = abi.encode(_currentEpoch,epochData.beginTime);\n                    eventOut(10,data);\n                }\n                _applyRemoveLp = _applyRemoveLp.sub(epochData.lpAmount);\n                _liquidityAmount = _liquidityAmount.sub(epochData.tokenAmount);\n                _epochInfos[_currentEpoch] = epochData;    \n                data = abi.encode(_currentEpoch,epochData.tokenAmount,_liquidityAmount);\n                eventOut(9,data);  \n            }\n            _currentEpoch++;\n            if (i > 3) {\n                break;\n            }\n        }\n        epochData = _epochInfos[_currentEpoch];\n        epochData.beginTime = block.timestamp;\n        _epochInfos[_currentEpoch] = epochData;  \n        data = abi.encode(_currentEpoch,epochData.beginTime);\n        eventOut(10,data);\n    }\n\n    function removeLiquidity(uint32 removeIndex) external override {\n        settleEpoch();\n        require(_removeInfos[removeIndex].owner == msg.sender || _removeInfos[removeIndex].receipt == msg.sender,\"invalid caller\");\n        EpochInfo storage epoch = _epochInfos[_removeInfos[removeIndex].outEpoch];\n        require(epoch.tokenAmount > 0,\"no token out\");\n        uint256 tokenOut = epoch.tokenAmount.mul(_removeInfos[removeIndex].lpAmount).div(epoch.lpAmount);\n        IERC20(_assetAddress).safeTransfer(_removeInfos[removeIndex].receipt,tokenOut); \n        delete _removeInfos[removeIndex];\n\n        bytes memory data = abi.encode(removeIndex,msg.sender,tokenOut);\n        eventOut(3,data);\n    }\n    //\n\n    // function removeLiquidity(address receipt,AmountIn calldata amountIn) external override {\n    //     if (amountIn.payType == 1) {\n    //         userPayLp(msg.sender,amountIn.amount);\n    //     } else {\n    //         tokenCallBack(amountIn.payerAddress,_lp,amountIn.amount);\n    //     }\n    //     uint256 assetAmount =  getAssetAmount(amountIn.amount);\n    //     _liquidityAmount = _liquidityAmount.sub(amountIn.amount);\n\n    //     IERC20(_assetAddress).safeTransfer(receipt,assetAmount);  \n    //     IQLP(_lp).burn(address(this),amountIn.amount);\n    //     bytes memory data = abi.encode(receipt,assetAmount,amountIn.amount);\n    //     eventOut(3,data);\n    // }\n\n    function openPosition(address poolAddress,AmountIn calldata amountIn,bytes calldata openParam) external override returns (uint32){\n        settleEpoch();\n        require(IAssetSettings(_settingAddress).poolStatus(address(this),poolAddress) == 1,\"wrong pool status\");\n        if (amountIn.payType == 1) {\n            userPayAsset(msg.sender,amountIn.amount);\n        } else {\n            tokenCallBack(amountIn.payerAddress,_assetAddress,amountIn.amount);\n        }\n        uint32 positionId = IPool(poolAddress).openPosition(openParam,amountIn.amount);\n        _positionIndex++;\n        _positions[_positionIndex] = Position(\n            poolAddress,\n            positionId,\n            msg.sender\n        );\n\n        bytes memory data = abi.encode(msg.sender,poolAddress,positionId,_positionIndex);\n        eventOut(4,data);\n        return _positionIndex;\n    }\n\n    function addMargin(uint32 positionId,AmountIn calldata amountIn) external override {\n        settleEpoch();\n        if (amountIn.payType == 1) {\n            userPayAsset(msg.sender,amountIn.amount);\n        } else {\n            tokenCallBack(amountIn.payerAddress,_assetAddress,amountIn.amount);\n        }\n\n        IPool(_positions[positionId].poolAddress).addMargin(_positions[positionId].positionId,amountIn.amount);\n    }\n\n    function closePosition(uint32 positionId,address receipt) external override {\n        settleEpoch();\n        Position memory p = _positions[positionId];\n        require(p.poolAddress != address(0),\"Error positionId\");\n        require(p.userAddress == msg.sender,\"Error owner\");\n        require(IAssetSettings(_settingAddress).poolStatus(address(this),p.poolAddress) == 1,\"wrong pool status\");\n        IPool.Position memory pPosition;\n        (pPosition.sender,pPosition.openPrice,pPosition.openBlock,pPosition.margin,pPosition.size,pPosition.direction,pPosition.leverage,) = IPool(p.poolAddress)._positions(p.positionId);\n        (uint256 transferOut,uint256 fee,) = IPool(p.poolAddress).closePosition(p.positionId);\n        pPosition.margin = pPosition.margin.div(_precisionDiff);\n\n        transferOut = transferOut.div(_precisionDiff);\n        fee = fee.div(_precisionDiff);//fee\n        _liquidityAmount = _liquidityAmount.add(pPosition.margin);\n        if (transferOut > _liquidityAmount) {\n            transferOut = pPosition.margin.sub(fee);\n        }\n        _liquidityAmount = _liquidityAmount.sub(transferOut);\n\n        delete _positions[positionId];\n        IERC20(_assetAddress).safeTransfer(receipt,transferOut);\n\n        bytes memory data = abi.encode(receipt,positionId,_liquidityAmount,transferOut);\n        eventOut(5,data);\n    }\n\n    function liquidity(uint32 positionId,address receipt) external override {\n        settleEpoch();\n        Position memory p = _positions[positionId];\n        require(p.poolAddress != address(0),\"Error positionId\"); \n        require(IAssetSettings(_settingAddress).poolStatus(address(this),p.poolAddress) == 1,\"wrong pool status\");\n        IPool.Position memory pPosition;\n        (pPosition.sender,pPosition.openPrice,pPosition.openBlock,pPosition.margin,pPosition.size,pPosition.direction,pPosition.leverage,) = IPool(p.poolAddress)._positions(p.positionId);\n        pPosition.margin = pPosition.margin.div(_precisionDiff);\n        (uint256 transferOut,uint256 fee,) = IPool(p.poolAddress).liquidate(p.positionId);\n        transferOut = transferOut.div(_precisionDiff);\n        fee = fee.div(_precisionDiff);\n\n        _liquidityAmount = _liquidityAmount.add(pPosition.margin).sub(transferOut);  \n        delete _positions[positionId];\n        IERC20(_assetAddress).safeTransfer(receipt,transferOut);\n        bytes memory data = abi.encode(receipt,positionId,_liquidityAmount,transferOut);\n        eventOut(6,data);\n    }\n\n    function exitPosition(uint32 positionId,address receipt) external override {\n        settleEpoch();\n        Position memory p = _positions[positionId];\n        require(p.poolAddress != address(0),\"Error positionId\");\n        require(p.userAddress == msg.sender,\"Error owner\");\n        require(IAssetSettings(_settingAddress).poolStatus(address(this),p.poolAddress) == 2,\"wrong pool status\");\n        //LP\n        IPool.Position memory pPosition;\n        (pPosition.sender,pPosition.openPrice,pPosition.openBlock,pPosition.margin,pPosition.size,pPosition.direction,pPosition.leverage,) = IPool(p.poolAddress)._positions(p.positionId);\n\n        (,uint256 fee,) = IPool(p.poolAddress).exit(p.positionId);\n        fee = fee.div(_precisionDiff);\n        _liquidityAmount = _liquidityAmount.add(fee);  \n        pPosition.margin = pPosition.margin.div(_precisionDiff);\n        fee = pPosition.margin.sub(fee);\n\n        delete _positions[positionId];\n        IERC20(_assetAddress).safeTransfer(receipt,fee);\n        bytes memory data = abi.encode(receipt,positionId,_liquidityAmount,pPosition.margin);\n        eventOut(7,data);\n    }\n\n    function eventOut(uint32 _type,bytes memory _value) internal {\n        IEventOut(IAssetSettings(_settingAddress).eventOut()).eventOut(_type,_value);\n    }\n\n    function testUpdate(address pool) public {\n        IPool(pool).testAssetUpdate();\n    }\n\n}\n",
  "sourcePath": "/Users/xuyapeng/work/foreststone2020/qilin-v3-pve/contracts/Asset/Asset.sol",
  "compiler": {
    "name": "solc",
    "version": "0.8.1+commit.df193b15.Emscripten.clang"
  },
  "schemaVersion": "3.4.3",
  "updatedAt": "2023-08-04T10:25:30.065Z",
  "devdoc": {
    "kind": "dev",
    "methods": {},
    "version": 1
  },
  "userdoc": {
    "kind": "user",
    "methods": {},
    "version": 1
  }
}