{
  "contractName": "Asset",
  "abi": [
    {
      "inputs": [
        {
          "internalType": "address",
          "name": "poolToken",
          "type": "address"
        },
        {
          "internalType": "address",
          "name": "setting",
          "type": "address"
        }
      ],
      "stateMutability": "nonpayable",
      "type": "constructor"
    },
    {
      "inputs": [],
      "name": "StandardDecimal",
      "outputs": [
        {
          "internalType": "uint256",
          "name": "",
          "type": "uint256"
        }
      ],
      "stateMutability": "view",
      "type": "function"
    },
    {
      "inputs": [],
      "name": "_assetAddress",
      "outputs": [
        {
          "internalType": "address",
          "name": "",
          "type": "address"
        }
      ],
      "stateMutability": "view",
      "type": "function"
    },
    {
      "inputs": [],
      "name": "_liquidityPool",
      "outputs": [
        {
          "internalType": "uint256",
          "name": "",
          "type": "uint256"
        }
      ],
      "stateMutability": "view",
      "type": "function"
    },
    {
      "inputs": [],
      "name": "_lp",
      "outputs": [
        {
          "internalType": "address",
          "name": "",
          "type": "address"
        }
      ],
      "stateMutability": "view",
      "type": "function"
    },
    {
      "inputs": [],
      "name": "_positionIndex",
      "outputs": [
        {
          "internalType": "uint32",
          "name": "",
          "type": "uint32"
        }
      ],
      "stateMutability": "view",
      "type": "function"
    },
    {
      "inputs": [
        {
          "internalType": "uint32",
          "name": "",
          "type": "uint32"
        }
      ],
      "name": "_positions",
      "outputs": [
        {
          "internalType": "address",
          "name": "poolAddress",
          "type": "address"
        },
        {
          "internalType": "uint32",
          "name": "positionId",
          "type": "uint32"
        },
        {
          "internalType": "address",
          "name": "userAddress",
          "type": "address"
        }
      ],
      "stateMutability": "view",
      "type": "function"
    },
    {
      "inputs": [],
      "name": "_precisionDiff",
      "outputs": [
        {
          "internalType": "uint256",
          "name": "",
          "type": "uint256"
        }
      ],
      "stateMutability": "view",
      "type": "function"
    },
    {
      "inputs": [],
      "name": "_settingAddress",
      "outputs": [
        {
          "internalType": "address",
          "name": "",
          "type": "address"
        }
      ],
      "stateMutability": "view",
      "type": "function"
    },
    {
      "inputs": [],
      "name": "unlocked",
      "outputs": [
        {
          "internalType": "bool",
          "name": "",
          "type": "bool"
        }
      ],
      "stateMutability": "view",
      "type": "function"
    },
    {
      "inputs": [
        {
          "internalType": "address",
          "name": "receipt",
          "type": "address"
        },
        {
          "components": [
            {
              "internalType": "uint256",
              "name": "amount",
              "type": "uint256"
            },
            {
              "internalType": "uint32",
              "name": "payType",
              "type": "uint32"
            },
            {
              "internalType": "address",
              "name": "payerAddress",
              "type": "address"
            }
          ],
          "internalType": "struct IAsset.AmountIn",
          "name": "amountIn",
          "type": "tuple"
        }
      ],
      "name": "addLiquidity",
      "outputs": [],
      "stateMutability": "nonpayable",
      "type": "function"
    },
    {
      "inputs": [
        {
          "internalType": "address",
          "name": "receipt",
          "type": "address"
        },
        {
          "components": [
            {
              "internalType": "uint256",
              "name": "amount",
              "type": "uint256"
            },
            {
              "internalType": "uint32",
              "name": "payType",
              "type": "uint32"
            },
            {
              "internalType": "address",
              "name": "payerAddress",
              "type": "address"
            }
          ],
          "internalType": "struct IAsset.AmountIn",
          "name": "amountIn",
          "type": "tuple"
        }
      ],
      "name": "removeLiquidity",
      "outputs": [],
      "stateMutability": "nonpayable",
      "type": "function"
    },
    {
      "inputs": [
        {
          "internalType": "address",
          "name": "poolAddress",
          "type": "address"
        },
        {
          "components": [
            {
              "internalType": "uint256",
              "name": "amount",
              "type": "uint256"
            },
            {
              "internalType": "uint32",
              "name": "payType",
              "type": "uint32"
            },
            {
              "internalType": "address",
              "name": "payerAddress",
              "type": "address"
            }
          ],
          "internalType": "struct IAsset.AmountIn",
          "name": "amountIn",
          "type": "tuple"
        },
        {
          "internalType": "bytes",
          "name": "openParam",
          "type": "bytes"
        }
      ],
      "name": "openPosition",
      "outputs": [
        {
          "internalType": "uint32",
          "name": "",
          "type": "uint32"
        }
      ],
      "stateMutability": "nonpayable",
      "type": "function"
    },
    {
      "inputs": [
        {
          "internalType": "uint32",
          "name": "positionId",
          "type": "uint32"
        },
        {
          "components": [
            {
              "internalType": "uint256",
              "name": "amount",
              "type": "uint256"
            },
            {
              "internalType": "uint32",
              "name": "payType",
              "type": "uint32"
            },
            {
              "internalType": "address",
              "name": "payerAddress",
              "type": "address"
            }
          ],
          "internalType": "struct IAsset.AmountIn",
          "name": "amountIn",
          "type": "tuple"
        }
      ],
      "name": "addMargin",
      "outputs": [],
      "stateMutability": "nonpayable",
      "type": "function"
    },
    {
      "inputs": [
        {
          "internalType": "uint32",
          "name": "positionId",
          "type": "uint32"
        },
        {
          "internalType": "address",
          "name": "receipt",
          "type": "address"
        }
      ],
      "name": "closePosition",
      "outputs": [],
      "stateMutability": "nonpayable",
      "type": "function"
    },
    {
      "inputs": [
        {
          "internalType": "uint32",
          "name": "positionId",
          "type": "uint32"
        },
        {
          "internalType": "address",
          "name": "receipt",
          "type": "address"
        }
      ],
      "name": "liquidity",
      "outputs": [],
      "stateMutability": "nonpayable",
      "type": "function"
    }
  ],
  "bytecode": "0x608060405260006003556000600460146101000a81548163ffffffff021916908363ffffffff1602179055506001600660006101000a81548160ff0219169083151502179055503480156200005357600080fd5b5060405162003a6738038062003a67833981810160405281019062000079919062000473565b81600160006101000a81548173ffffffffffffffffffffffffffffffffffffffff021916908373ffffffffffffffffffffffffffffffffffffffff16021790555080600260006101000a81548173ffffffffffffffffffffffffffffffffffffffff021916908373ffffffffffffffffffffffffffffffffffffffff16021790555060008273ffffffffffffffffffffffffffffffffffffffff1663313ce5676040518163ffffffff1660e01b815260040160206040518083038186803b1580156200014457600080fd5b505afa15801562000159573d6000803e3d6000fd5b505050506040513d601f19601f820116820180604052508101906200017f9190620004b4565b60ff166012116200019257600062000226565b8273ffffffffffffffffffffffffffffffffffffffff1663313ce5676040518163ffffffff1660e01b815260040160206040518083038186803b158015620001d957600080fd5b505afa158015620001ee573d6000803e3d6000fd5b505050506040513d601f19601f82011682018060405250810190620002149190620004b4565b60ff166012620002259190620006b6565b5b905060008111156200024d5780600a62000241919062000579565b60058190555062000256565b60016005819055505b600260009054906101000a900473ffffffffffffffffffffffffffffffffffffffff1673ffffffffffffffffffffffffffffffffffffffff1663f88c90fb6040518163ffffffff1660e01b815260040160206040518083038186803b158015620002bf57600080fd5b505afa158015620002d4573d6000803e3d6000fd5b505050506040513d601f19601f82011682018060405250810190620002fa919062000447565b73ffffffffffffffffffffffffffffffffffffffff16631a0133c9600160009054906101000a900473ffffffffffffffffffffffffffffffffffffffff16600260009054906101000a900473ffffffffffffffffffffffffffffffffffffffff166040518363ffffffff1660e01b81526004016200037a929190620004f1565b602060405180830381600087803b1580156200039557600080fd5b505af1158015620003aa573d6000803e3d6000fd5b505050506040513d601f19601f82011682018060405250810190620003d0919062000447565b600460006101000a81548173ffffffffffffffffffffffffffffffffffffffff021916908373ffffffffffffffffffffffffffffffffffffffff160217905550505050620007ac565b6000815190506200042a8162000778565b92915050565b600081519050620004418162000792565b92915050565b6000602082840312156200045a57600080fd5b60006200046a8482850162000419565b91505092915050565b600080604083850312156200048757600080fd5b6000620004978582860162000419565b9250506020620004aa8582860162000419565b9150509250929050565b600060208284031215620004c757600080fd5b6000620004d78482850162000430565b91505092915050565b620004eb81620006f1565b82525050565b6000604082019050620005086000830185620004e0565b620005176020830184620004e0565b9392505050565b6000808291508390505b600185111562000570578086048111156200054857620005476200073c565b5b6001851615620005585780820291505b808102905062000568856200076b565b945062000528565b94509492505050565b6000620005868262000725565b9150620005938362000725565b9250620005c27fffffffffffffffffffffffffffffffffffffffffffffffffffffffffffffffff8484620005ca565b905092915050565b600082620005dc5760019050620006af565b81620005ec5760009050620006af565b8160018114620006055760028114620006105762000646565b6001915050620006af565b60ff8411156200062557620006246200073c565b5b8360020a9150848211156200063f576200063e6200073c565b5b50620006af565b5060208310610133831016604e8410600b8410161715620006805782820a9050838111156200067a57620006796200073c565b5b620006af565b6200068f84848460016200051e565b92509050818404811115620006a957620006a86200073c565b5b81810290505b9392505050565b6000620006c38262000725565b9150620006d08362000725565b925082821015620006e657620006e56200073c565b5b828203905092915050565b6000620006fe8262000705565b9050919050565b600073ffffffffffffffffffffffffffffffffffffffff82169050919050565b6000819050919050565b600060ff82169050919050565b7f4e487b7100000000000000000000000000000000000000000000000000000000600052601160045260246000fd5b60008160011c9050919050565b6200078381620006f1565b81146200078f57600080fd5b50565b6200079d816200072f565b8114620007a957600080fd5b50565b6132ab80620007bc6000396000f3fe608060405234801561001057600080fd5b50600436106100f45760003560e01c80637d2a8ff911610097578063b1eb805b11610066578063b1eb805b14610263578063c6f1078c1461027f578063e4f43ae01461029b578063f23ac9bd146102b9576100f4565b80637d2a8ff9146101db578063934da467146101f9578063998275c414610215578063abe4706114610233576100f4565b806326adb258116100d357806326adb258146101535780632bb7b4e71461016f5780636a5e26501461018b5780637b08e9df146101a9576100f4565b80625a3ff1146100f95780631121355b14610117578063207deba014610135575b600080fd5b6101016102d7565b60405161010e9190612973565b60405180910390f35b61011f6102fd565b60405161012c9190612c9e565b60405180910390f35b61013d610302565b60405161014a9190612c9e565b60405180910390f35b61016d60048036038101906101689190612674565b610308565b005b610189600480360381019061018491906126b0565b6108b4565b005b610193610a13565b6040516101a09190612b0f565b60405180910390f35b6101c360048036038101906101be9190612622565b610a26565b6040516101d293929190612a93565b60405180910390f35b6101e3610aa0565b6040516101f09190612cf0565b60405180910390f35b610213600480360381019061020e9190612674565b610ab6565b005b61021d6110ed565b60405161022a9190612c9e565b60405180910390f35b61024d60048036038101906102489190612463565b6110f3565b60405161025a9190612cf0565b60405180910390f35b61027d60048036038101906102789190612427565b6114bd565b005b61029960048036038101906102949190612427565b611678565b005b6102a361183d565b6040516102b09190612973565b60405180910390f35b6102c1611863565b6040516102ce9190612973565b60405180910390f35b600460009054906101000a900473ffffffffffffffffffffffffffffffffffffffff1681565b601281565b60035481565b60008060008463ffffffff1663ffffffff1681526020019081526020016000206040518060600160405290816000820160009054906101000a900473ffffffffffffffffffffffffffffffffffffffff1673ffffffffffffffffffffffffffffffffffffffff1673ffffffffffffffffffffffffffffffffffffffff1681526020016000820160149054906101000a900463ffffffff1663ffffffff1663ffffffff1681526020016001820160009054906101000a900473ffffffffffffffffffffffffffffffffffffffff1673ffffffffffffffffffffffffffffffffffffffff1673ffffffffffffffffffffffffffffffffffffffff16815250509050600073ffffffffffffffffffffffffffffffffffffffff16816000015173ffffffffffffffffffffffffffffffffffffffff16141561047b576040517f08c379a000000000000000000000000000000000000000000000000000000000815260040161047290612b7e565b60405180910390fd5b6001600260009054906101000a900473ffffffffffffffffffffffffffffffffffffffff1673ffffffffffffffffffffffffffffffffffffffff16638e0b5c823084600001516040518363ffffffff1660e01b81526004016104de92919061298e565b60206040518083038186803b1580156104f657600080fd5b505afa15801561050a573d6000803e3d6000fd5b505050506040513d601f19601f8201168201806040525081019061052e91906126ec565b60ff1614610571576040517f08c379a000000000000000000000000000000000000000000000000000000000815260040161056890612bde565b60405180910390fd5b610579612251565b816000015173ffffffffffffffffffffffffffffffffffffffff16637b08e9df83602001516040518263ffffffff1660e01b81526004016105ba9190612cf0565b6101006040518083038186803b1580156105d357600080fd5b505afa1580156105e7573d6000803e3d6000fd5b505050506040513d601f19601f8201168201806040525081019061060b91906124cf565b508760000188602001896040018a6060018b6080018c60a0018d60c0018761ffff1661ffff168152508760ff1660ff16815250878152508781525087815250878152508773ffffffffffffffffffffffffffffffffffffffff1673ffffffffffffffffffffffffffffffffffffffff168152505050505050505061069e600554826060015161188990919063ffffffff16565b816060018181525050600080836000015173ffffffffffffffffffffffffffffffffffffffff16635b5b121d85602001516040518263ffffffff1660e01b81526004016106eb9190612cf0565b606060405180830381600087803b15801561070557600080fd5b505af1158015610719573d6000803e3d6000fd5b505050506040513d601f19601f8201168201806040525081019061073d91906125d3565b50915091506107576005548361188990919063ffffffff16565b915061076e6005548261188990919063ffffffff16565b905061079b8261078d856060015160035461189f90919063ffffffff16565b6118b590919063ffffffff16565b6003819055506000808763ffffffff1663ffffffff168152602001908152602001600020600080820160006101000a81549073ffffffffffffffffffffffffffffffffffffffff02191690556000820160146101000a81549063ffffffff02191690556001820160006101000a81549073ffffffffffffffffffffffffffffffffffffffff021916905550506108748583600160009054906101000a900473ffffffffffffffffffffffffffffffffffffffff1673ffffffffffffffffffffffffffffffffffffffff166118cb9092919063ffffffff16565b600085876003548560405160200161088f9493929190612aca565b60405160208183030381529060405290506108ab600682611951565b50505050505050565b60018160200160208101906108c99190612622565b63ffffffff1614156108e8576108e3338260000135611a61565b61092c565b61092b8160400160208101906108fe91906123d5565b600160009054906101000a900473ffffffffffffffffffffffffffffffffffffffff168360000135611ab4565b5b6000808363ffffffff1663ffffffff16815260200190815260200160002060000160009054906101000a900473ffffffffffffffffffffffffffffffffffffffff1673ffffffffffffffffffffffffffffffffffffffff166398db84686000808563ffffffff1663ffffffff16815260200190815260200160002060000160149054906101000a900463ffffffff1683600001356040518363ffffffff1660e01b81526004016109dd929190612d3b565b600060405180830381600087803b1580156109f757600080fd5b505af1158015610a0b573d6000803e3d6000fd5b505050505050565b600660009054906101000a900460ff1681565b60006020528060005260406000206000915090508060000160009054906101000a900473ffffffffffffffffffffffffffffffffffffffff16908060000160149054906101000a900463ffffffff16908060010160009054906101000a900473ffffffffffffffffffffffffffffffffffffffff16905083565b600460149054906101000a900463ffffffff1681565b60008060008463ffffffff1663ffffffff1681526020019081526020016000206040518060600160405290816000820160009054906101000a900473ffffffffffffffffffffffffffffffffffffffff1673ffffffffffffffffffffffffffffffffffffffff1673ffffffffffffffffffffffffffffffffffffffff1681526020016000820160149054906101000a900463ffffffff1663ffffffff1663ffffffff1681526020016001820160009054906101000a900473ffffffffffffffffffffffffffffffffffffffff1673ffffffffffffffffffffffffffffffffffffffff1673ffffffffffffffffffffffffffffffffffffffff16815250509050600073ffffffffffffffffffffffffffffffffffffffff16816000015173ffffffffffffffffffffffffffffffffffffffff161415610c29576040517f08c379a0000000000000000000000000000000000000000000000000000000008152600401610c2090612b7e565b60405180910390fd5b3373ffffffffffffffffffffffffffffffffffffffff16816040015173ffffffffffffffffffffffffffffffffffffffff1614610c9b576040517f08c379a0000000000000000000000000000000000000000000000000000000008152600401610c9290612bfe565b60405180910390fd5b6001600260009054906101000a900473ffffffffffffffffffffffffffffffffffffffff1673ffffffffffffffffffffffffffffffffffffffff16638e0b5c823084600001516040518363ffffffff1660e01b8152600401610cfe92919061298e565b60206040518083038186803b158015610d1657600080fd5b505afa158015610d2a573d6000803e3d6000fd5b505050506040513d601f19601f82011682018060405250810190610d4e91906126ec565b60ff1614610d91576040517f08c379a0000000000000000000000000000000000000000000000000000000008152600401610d8890612bde565b60405180910390fd5b610d99612251565b816000015173ffffffffffffffffffffffffffffffffffffffff16637b08e9df83602001516040518263ffffffff1660e01b8152600401610dda9190612cf0565b6101006040518083038186803b158015610df357600080fd5b505afa158015610e07573d6000803e3d6000fd5b505050506040513d601f19601f82011682018060405250810190610e2b91906124cf565b508760000188602001896040018a6060018b6080018c60a0018d60c0018761ffff1661ffff168152508760ff1660ff16815250878152508781525087815250878152508773ffffffffffffffffffffffffffffffffffffffff1673ffffffffffffffffffffffffffffffffffffffff1681525050505050505050600080836000015173ffffffffffffffffffffffffffffffffffffffff166351f954bf85602001516040518263ffffffff1660e01b8152600401610ee99190612cf0565b606060405180830381600087803b158015610f0357600080fd5b505af1158015610f17573d6000803e3d6000fd5b505050506040513d601f19601f82011682018060405250810190610f3b91906125d3565b5091509150610f59600554846060015161188990919063ffffffff16565b836060018181525050610f776005548361188990919063ffffffff16565b9150610f8e6005548261188990919063ffffffff16565b9050610fa9836060015160035461189f90919063ffffffff16565b600381905550600354821115610fbf5760035491505b610fd4826003546118b590919063ffffffff16565b6003819055506000808763ffffffff1663ffffffff168152602001908152602001600020600080820160006101000a81549073ffffffffffffffffffffffffffffffffffffffff02191690556000820160146101000a81549063ffffffff02191690556001820160006101000a81549073ffffffffffffffffffffffffffffffffffffffff021916905550506110ad8583600160009054906101000a900473ffffffffffffffffffffffffffffffffffffffff1673ffffffffffffffffffffffffffffffffffffffff166118cb9092919063ffffffff16565b60008587600354856040516020016110c89493929190612aca565b60405160208183030381529060405290506110e4600582611951565b50505050505050565b60055481565b60006001600260009054906101000a900473ffffffffffffffffffffffffffffffffffffffff1673ffffffffffffffffffffffffffffffffffffffff16638e0b5c8230886040518363ffffffff1660e01b815260040161115492919061298e565b60206040518083038186803b15801561116c57600080fd5b505afa158015611180573d6000803e3d6000fd5b505050506040513d601f19601f820116820180604052508101906111a491906126ec565b60ff16146111e7576040517f08c379a00000000000000000000000000000000000000000000000000000000081526004016111de90612bde565b60405180910390fd5b60018460200160208101906111fc9190612622565b63ffffffff16141561121b57611216338560000135611a61565b61125f565b61125e84604001602081019061123191906123d5565b600160009054906101000a900473ffffffffffffffffffffffffffffffffffffffff168660000135611ab4565b5b60008573ffffffffffffffffffffffffffffffffffffffff16638b100c86858588600001356040518463ffffffff1660e01b81526004016112a293929190612b2a565b602060405180830381600087803b1580156112bc57600080fd5b505af11580156112d0573d6000803e3d6000fd5b505050506040513d601f19601f820116820180604052508101906112f4919061264b565b90506004601481819054906101000a900463ffffffff168092919061131890612f7b565b91906101000a81548163ffffffff021916908363ffffffff1602179055505060405180606001604052808773ffffffffffffffffffffffffffffffffffffffff1681526020018263ffffffff1681526020013373ffffffffffffffffffffffffffffffffffffffff16815250600080600460149054906101000a900463ffffffff1663ffffffff1663ffffffff16815260200190815260200160002060008201518160000160006101000a81548173ffffffffffffffffffffffffffffffffffffffff021916908373ffffffffffffffffffffffffffffffffffffffff16021790555060208201518160000160146101000a81548163ffffffff021916908363ffffffff16021790555060408201518160010160006101000a81548173ffffffffffffffffffffffffffffffffffffffff021916908373ffffffffffffffffffffffffffffffffffffffff1602179055509050506000338783600460149054906101000a900463ffffffff1660405160200161149794939291906129ee565b60405160208183030381529060405290506114b3600482611951565b5050949350505050565b6000816000013511611504576040517f08c379a00000000000000000000000000000000000000000000000000000000081526004016114fb90612bbe565b60405180910390fd5b60018160200160208101906115199190612622565b63ffffffff16141561153857611533338260000135611a61565b61157c565b61157b81604001602081019061154e91906123d5565b600160009054906101000a900473ffffffffffffffffffffffffffffffffffffffff168360000135611ab4565b5b600061158b8260000135611d18565b90506115a6826000013560035461189f90919063ffffffff16565b600381905550600460009054906101000a900473ffffffffffffffffffffffffffffffffffffffff1673ffffffffffffffffffffffffffffffffffffffff166340c10f1984836040518363ffffffff1660e01b8152600401611609929190612a33565b600060405180830381600087803b15801561162357600080fd5b505af1158015611637573d6000803e3d6000fd5b5050505060008383600001358360405160200161165693929190612a5c565b6040516020818303038152906040529050611672600282611951565b50505050565b600181602001602081019061168d9190612622565b63ffffffff1614156116ac576116a7338260000135611dfa565b6116f0565b6116ef8160400160208101906116c291906123d5565b600460009054906101000a900473ffffffffffffffffffffffffffffffffffffffff168360000135611ab4565b5b60006116ff8260000135611e4d565b905061171a82600001356003546118b590919063ffffffff16565b60038190555061176d8382600160009054906101000a900473ffffffffffffffffffffffffffffffffffffffff1673ffffffffffffffffffffffffffffffffffffffff166118cb9092919063ffffffff16565b600460009054906101000a900473ffffffffffffffffffffffffffffffffffffffff1673ffffffffffffffffffffffffffffffffffffffff16639dc29fac3084600001356040518363ffffffff1660e01b81526004016117ce929190612a33565b600060405180830381600087803b1580156117e857600080fd5b505af11580156117fc573d6000803e3d6000fd5b5050505060008382846000013560405160200161181b93929190612a5c565b6040516020818303038152906040529050611837600382611951565b50505050565b600160009054906101000a900473ffffffffffffffffffffffffffffffffffffffff1681565b600260009054906101000a900473ffffffffffffffffffffffffffffffffffffffff1681565b600081836118979190612dfd565b905092915050565b600081836118ad9190612da7565b905092915050565b600081836118c39190612e88565b905092915050565b61194c8363a9059cbb60e01b84846040516024016118ea929190612a33565b604051602081830303815290604052907bffffffffffffffffffffffffffffffffffffffffffffffffffffffff19166020820180517bffffffffffffffffffffffffffffffffffffffffffffffffffffffff8381831617835250505050611f1c565b505050565b600260009054906101000a900473ffffffffffffffffffffffffffffffffffffffff1673ffffffffffffffffffffffffffffffffffffffff166301d277556040518163ffffffff1660e01b815260040160206040518083038186803b1580156119b957600080fd5b505afa1580156119cd573d6000803e3d6000fd5b505050506040513d601f19601f820116820180604052508101906119f191906123fe565b73ffffffffffffffffffffffffffffffffffffffff1663fdbb9d4a83836040518363ffffffff1660e01b8152600401611a2b929190612d0b565b600060405180830381600087803b158015611a4557600080fd5b505af1158015611a59573d6000803e3d6000fd5b505050505050565b611ab0823083600160009054906101000a900473ffffffffffffffffffffffffffffffffffffffff1673ffffffffffffffffffffffffffffffffffffffff16611fe4909392919063ffffffff16565b5050565b600660009054906101000a900460ff16611b03576040517f08c379a0000000000000000000000000000000000000000000000000000000008152600401611afa90612c3e565b60405180910390fd5b6000600660006101000a81548160ff02191690831515021790555060008273ffffffffffffffffffffffffffffffffffffffff166370a08231306040518263ffffffff1660e01b8152600401611b599190612973565b60206040518083038186803b158015611b7157600080fd5b505afa158015611b85573d6000803e3d6000fd5b505050506040513d601f19601f82011682018060405250810190611ba991906125aa565b90503373ffffffffffffffffffffffffffffffffffffffff16631dfa3bd78385876040518463ffffffff1660e01b8152600401611be893929190612cb9565b600060405180830381600087803b158015611c0257600080fd5b505af1158015611c16573d6000803e3d6000fd5b50505050611c2d828261189f90919063ffffffff16565b8373ffffffffffffffffffffffffffffffffffffffff166370a08231306040518263ffffffff1660e01b8152600401611c669190612973565b60206040518083038186803b158015611c7e57600080fd5b505afa158015611c92573d6000803e3d6000fd5b505050506040513d601f19601f82011682018060405250810190611cb691906125aa565b1015611cf7576040517f08c379a0000000000000000000000000000000000000000000000000000000008152600401611cee90612c7e565b60405180910390fd5b506001600660006101000a81548160ff021916908315150217905550505050565b6000806003541415611d2c57819050611df5565b611df2600354611de4600460009054906101000a900473ffffffffffffffffffffffffffffffffffffffff1673ffffffffffffffffffffffffffffffffffffffff166318160ddd6040518163ffffffff1660e01b815260040160206040518083038186803b158015611d9d57600080fd5b505afa158015611db1573d6000803e3d6000fd5b505050506040513d601f19601f82011682018060405250810190611dd591906125aa565b8561206d90919063ffffffff16565b61188990919063ffffffff16565b90505b919050565b611e49823083600460009054906101000a900473ffffffffffffffffffffffffffffffffffffffff1673ffffffffffffffffffffffffffffffffffffffff16611fe4909392919063ffffffff16565b5050565b6000611f15600460009054906101000a900473ffffffffffffffffffffffffffffffffffffffff1673ffffffffffffffffffffffffffffffffffffffff166318160ddd6040518163ffffffff1660e01b815260040160206040518083038186803b158015611eba57600080fd5b505afa158015611ece573d6000803e3d6000fd5b505050506040513d601f19601f82011682018060405250810190611ef291906125aa565b611f076003548561206d90919063ffffffff16565b61188990919063ffffffff16565b9050919050565b6000611f7e826040518060400160405280602081526020017f5361666545524332303a206c6f772d6c6576656c2063616c6c206661696c65648152508573ffffffffffffffffffffffffffffffffffffffff166120839092919063ffffffff16565b9050600081511480611fa0575080806020019051810190611f9f9190612581565b5b611fdf576040517f08c379a0000000000000000000000000000000000000000000000000000000008152600401611fd690612c5e565b60405180910390fd5b505050565b612067846323b872dd60e01b858585604051602401612005939291906129b7565b604051602081830303815290604052907bffffffffffffffffffffffffffffffffffffffffffffffffffffffff19166020820180517bffffffffffffffffffffffffffffffffffffffffffffffffffffffff8381831617835250505050611f1c565b50505050565b6000818361207b9190612e2e565b905092915050565b6060612092848460008561209b565b90509392505050565b6060824710156120e0576040517f08c379a00000000000000000000000000000000000000000000000000000000081526004016120d790612b9e565b60405180910390fd5b6000808673ffffffffffffffffffffffffffffffffffffffff168587604051612109919061295c565b60006040518083038185875af1925050503d8060008114612146576040519150601f19603f3d011682016040523d82523d6000602084013e61214b565b606091505b509150915061215c87838387612168565b92505050949350505050565b606083156121cb576000835114156121c357612183856121de565b6121c2576040517f08c379a00000000000000000000000000000000000000000000000000000000081526004016121b990612c1e565b60405180910390fd5b5b8290506121d6565b6121d58383612201565b5b949350505050565b6000808273ffffffffffffffffffffffffffffffffffffffff163b119050919050565b6000825111156122145781518083602001fd5b806040517f08c379a00000000000000000000000000000000000000000000000000000000081526004016122489190612b5c565b60405180910390fd5b604051806101000160405280600073ffffffffffffffffffffffffffffffffffffffff16815260200160008152602001600081526020016000815260200160008152602001600060ff168152602001600061ffff168152602001600081525090565b6000813590506122c2816131d4565b92915050565b6000815190506122d7816131d4565b92915050565b6000815190506122ec816131eb565b92915050565b60008083601f84011261230457600080fd5b8235905067ffffffffffffffff81111561231d57600080fd5b60208301915083600182028301111561233557600080fd5b9250929050565b60008151905061234b81613202565b92915050565b60006060828403121561236357600080fd5b81905092915050565b60008151905061237b81613219565b92915050565b60008151905061239081613230565b92915050565b6000813590506123a581613247565b92915050565b6000815190506123ba81613247565b92915050565b6000815190506123cf8161325e565b92915050565b6000602082840312156123e757600080fd5b60006123f5848285016122b3565b91505092915050565b60006020828403121561241057600080fd5b600061241e848285016122c8565b91505092915050565b6000806080838503121561243a57600080fd5b6000612448858286016122b3565b925050602061245985828601612351565b9150509250929050565b60008060008060a0858703121561247957600080fd5b6000612487878288016122b3565b945050602061249887828801612351565b935050608085013567ffffffffffffffff8111156124b557600080fd5b6124c1878288016122f2565b925092505092959194509250565b600080600080600080600080610100898b0312156124ec57600080fd5b60006124fa8b828c016122c8565b985050602061250b8b828c01612381565b975050604061251c8b828c01612381565b965050606061252d8b828c01612381565b955050608061253e8b828c01612381565b94505060a061254f8b828c016123c0565b93505060c06125608b828c0161236c565b92505060e06125718b828c0161233c565b9150509295985092959890939650565b60006020828403121561259357600080fd5b60006125a1848285016122dd565b91505092915050565b6000602082840312156125bc57600080fd5b60006125ca84828501612381565b91505092915050565b6000806000606084860312156125e857600080fd5b60006125f686828701612381565b935050602061260786828701612381565b92505060406126188682870161233c565b9150509250925092565b60006020828403121561263457600080fd5b600061264284828501612396565b91505092915050565b60006020828403121561265d57600080fd5b600061266b848285016123ab565b91505092915050565b6000806040838503121561268757600080fd5b600061269585828601612396565b92505060206126a6858286016122b3565b9150509250929050565b600080608083850312156126c357600080fd5b60006126d185828601612396565b92505060206126e285828601612351565b9150509250929050565b6000602082840312156126fe57600080fd5b600061270c848285016123c0565b91505092915050565b61271e81612ebc565b82525050565b61272d81612ece565b82525050565b600061273f8385612d7a565b935061274c838584612f39565b61275583613006565b840190509392505050565b600061276b82612d64565b6127758185612d7a565b9350612785818560208601612f48565b61278e81613006565b840191505092915050565b60006127a482612d64565b6127ae8185612d8b565b93506127be818560208601612f48565b80840191505092915050565b60006127d582612d6f565b6127df8185612d96565b93506127ef818560208601612f48565b6127f881613006565b840191505092915050565b6000612810601083612d96565b915061281b82613017565b602082019050919050565b6000612833602683612d96565b915061283e82613040565b604082019050919050565b6000612856601083612d96565b91506128618261308f565b602082019050919050565b6000612879601183612d96565b9150612884826130b8565b602082019050919050565b600061289c600b83612d96565b91506128a7826130e1565b602082019050919050565b60006128bf601d83612d96565b91506128ca8261310a565b602082019050919050565b60006128e2600383612d96565b91506128ed82613133565b602082019050919050565b6000612905602a83612d96565b91506129108261315c565b604082019050919050565b6000612928601783612d96565b9150612933826131ab565b602082019050919050565b61294781612f12565b82525050565b61295681612f1c565b82525050565b60006129688284612799565b915081905092915050565b60006020820190506129886000830184612715565b92915050565b60006040820190506129a36000830185612715565b6129b06020830184612715565b9392505050565b60006060820190506129cc6000830186612715565b6129d96020830185612715565b6129e6604083018461293e565b949350505050565b6000608082019050612a036000830187612715565b612a106020830186612715565b612a1d604083018561294d565b612a2a606083018461294d565b95945050505050565b6000604082019050612a486000830185612715565b612a55602083018461293e565b9392505050565b6000606082019050612a716000830186612715565b612a7e602083018561293e565b612a8b604083018461293e565b949350505050565b6000606082019050612aa86000830186612715565b612ab5602083018561294d565b612ac26040830184612715565b949350505050565b6000608082019050612adf6000830187612715565b612aec602083018661294d565b612af9604083018561293e565b612b06606083018461293e565b95945050505050565b6000602082019050612b246000830184612724565b92915050565b60006040820190508181036000830152612b45818587612733565b9050612b54602083018461293e565b949350505050565b60006020820190508181036000830152612b7681846127ca565b905092915050565b60006020820190508181036000830152612b9781612803565b9050919050565b60006020820190508181036000830152612bb781612826565b9050919050565b60006020820190508181036000830152612bd781612849565b9050919050565b60006020820190508181036000830152612bf78161286c565b9050919050565b60006020820190508181036000830152612c178161288f565b9050919050565b60006020820190508181036000830152612c37816128b2565b9050919050565b60006020820190508181036000830152612c57816128d5565b9050919050565b60006020820190508181036000830152612c77816128f8565b9050919050565b60006020820190508181036000830152612c978161291b565b9050919050565b6000602082019050612cb3600083018461293e565b92915050565b6000606082019050612cce600083018661293e565b612cdb6020830185612715565b612ce86040830184612715565b949350505050565b6000602082019050612d05600083018461294d565b92915050565b6000604082019050612d20600083018561294d565b8181036020830152612d328184612760565b90509392505050565b6000604082019050612d50600083018561294d565b612d5d602083018461293e565b9392505050565b600081519050919050565b600081519050919050565b600082825260208201905092915050565b600081905092915050565b600082825260208201905092915050565b6000612db282612f12565b9150612dbd83612f12565b9250827fffffffffffffffffffffffffffffffffffffffffffffffffffffffffffffffff03821115612df257612df1612fa8565b5b828201905092915050565b6000612e0882612f12565b9150612e1383612f12565b925082612e2357612e22612fd7565b5b828204905092915050565b6000612e3982612f12565b9150612e4483612f12565b9250817fffffffffffffffffffffffffffffffffffffffffffffffffffffffffffffffff0483118215151615612e7d57612e7c612fa8565b5b828202905092915050565b6000612e9382612f12565b9150612e9e83612f12565b925082821015612eb157612eb0612fa8565b5b828203905092915050565b6000612ec782612ef2565b9050919050565b60008115159050919050565b6000819050919050565b600061ffff82169050919050565b600073ffffffffffffffffffffffffffffffffffffffff82169050919050565b6000819050919050565b600063ffffffff82169050919050565b600060ff82169050919050565b82818337600083830152505050565b60005b83811015612f66578082015181840152602081019050612f4b565b83811115612f75576000848401525b50505050565b6000612f8682612f1c565b915063ffffffff821415612f9d57612f9c612fa8565b5b600182019050919050565b7f4e487b7100000000000000000000000000000000000000000000000000000000600052601160045260246000fd5b7f4e487b7100000000000000000000000000000000000000000000000000000000600052601260045260246000fd5b6000601f19601f8301169050919050565b7f4572726f7220706f736974696f6e496400000000000000000000000000000000600082015250565b7f416464726573733a20696e73756666696369656e742062616c616e636520666f60008201527f722063616c6c0000000000000000000000000000000000000000000000000000602082015250565b7f696e76616c696420616d6f756e74496e00000000000000000000000000000000600082015250565b7f77726f6e6720706f6f6c20737461747573000000000000000000000000000000600082015250565b7f4572726f72206f776e6572000000000000000000000000000000000000000000600082015250565b7f416464726573733a2063616c6c20746f206e6f6e2d636f6e7472616374000000600082015250565b7f4c4f4b0000000000000000000000000000000000000000000000000000000000600082015250565b7f5361666545524332303a204552433230206f7065726174696f6e20646964206e60008201527f6f74207375636365656400000000000000000000000000000000000000000000602082015250565b7f706f6f6c546f6b656e206973206e6f7420656e6f756768000000000000000000600082015250565b6131dd81612ebc565b81146131e857600080fd5b50565b6131f481612ece565b81146131ff57600080fd5b50565b61320b81612eda565b811461321657600080fd5b50565b61322281612ee4565b811461322d57600080fd5b50565b61323981612f12565b811461324457600080fd5b50565b61325081612f1c565b811461325b57600080fd5b50565b61326781612f2c565b811461327257600080fd5b5056fea264697066735822122012ee41491b4f7be12b731e7ff483f743ed733e3128d7995cb713bcf444d9b3b664736f6c63430008010033",
  "immutableReferences": {},
  "source": "pragma solidity 0.8.1;\npragma abicoder v2;\n\nimport \"./interfaces/IAsset.sol\";\nimport \"./interfaces/IAssetSettings.sol\";\nimport \"./interfaces/ILpDeployer.sol\";\nimport \"./interfaces/IQLP.sol\";\nimport \"../Pool/interfaces/IPool.sol\";\nimport \"../interfaces/ICallback.sol\";\n\nimport \"../interfaces/IEventOut.sol\";\nimport \"@openzeppelin/contracts/token/ERC20/ERC20.sol\";\nimport \"@openzeppelin/contracts/token/ERC20/utils/SafeERC20.sol\";\nimport \"@openzeppelin/contracts/token/ERC20/IERC20.sol\";\nimport \"@openzeppelin/contracts/utils/math/SafeMath.sol\";\n\n\n//\n//LP PVE\ncontract Asset is IAsset{\n\n    using SafeERC20 for ERC20;\n    using SafeERC20 for IERC20;\n    using SafeMath for uint256;\n\n    mapping(uint32 => Position) public _positions;\n    address public _assetAddress;\n    address public _settingAddress;\n    uint256 public override _liquidityPool = 0;//\n    address public _lp;\n    uint32 public _positionIndex = 0;\n    uint256 public constant StandardDecimal = 18;\n    uint256 public override _precisionDiff;\n\n    bool public unlocked = true;\n\n    modifier lock() {\n        require(unlocked, 'LOK');\n        unlocked = false;\n        _;\n        unlocked = true;\n    }\n\n    constructor(address poolToken,address setting) {\n        _assetAddress = poolToken;\n        _settingAddress = setting;\n\n        uint256 _poolDecimalDiff = StandardDecimal > ERC20(poolToken).decimals()\n        ? StandardDecimal - ERC20(poolToken).decimals()\n        : 0;\n        if (_poolDecimalDiff > 0) {\n            _precisionDiff = 10**_poolDecimalDiff;\n        } else {\n            _precisionDiff = 1;\n        }\n        _lp = ILpDeployer(IAssetSettings(_settingAddress).lpDeployer()).deployLP(_assetAddress,_settingAddress);\n        // \n        // bytes memory data = abi.encode(_assetAddress,_settingAddress,_lp,address(this)ERC20(poolToken).decimals());\n        // eventOut(1,data);\n    }\n    function userPayAsset(address payer,\n        uint256 amount) internal {\n        IERC20(_assetAddress).safeTransferFrom(payer,address(this),amount);\n    }\n\n    function userPayLp(address payer,\n        uint256 amount) internal {\n        IERC20(_lp).safeTransferFrom(payer,address(this),amount);\n        \n    }\n\n    function tokenCallBack(address user,address tokenAddress, uint256 amount) internal lock {\n        uint256 balanceBefore = IERC20(tokenAddress).balanceOf(address(this));\n        ICallback(msg.sender).assetCallback(\n            amount,\n            tokenAddress,\n            user\n        );\n        require(\n            IERC20(tokenAddress).balanceOf(address(this)) >=\n                balanceBefore.add(amount),\n            \"poolToken is not enough\"\n        );\n    }\n\n    function getLPAmount(uint256 assetAmount) internal view returns (uint256) {\n        if (_liquidityPool == 0) {\n            return assetAmount;\n        }\n        return assetAmount.mul(IERC20(_lp).totalSupply()).div(_liquidityPool);\n    }\n\n    function getAssetAmount(uint256 lpAmount) internal view returns (uint256) {\n        return lpAmount.mul(_liquidityPool).div(IERC20(_lp).totalSupply());\n    }\n\n    function addLiquidity(address receipt,AmountIn calldata amountIn) external override{\n        require(amountIn.amount > 0,\"invalid amountIn\");\n        if (amountIn.payType == 1) {\n            userPayAsset(msg.sender,amountIn.amount);\n        } else {\n            tokenCallBack(amountIn.payerAddress,_assetAddress,amountIn.amount);\n        }\n        uint256 lpAmount = getLPAmount(amountIn.amount);\n        _liquidityPool = _liquidityPool.add(amountIn.amount);\n\n        IQLP(_lp).mint(receipt,lpAmount);\n        bytes memory data = abi.encode(receipt,amountIn.amount,lpAmount);\n        eventOut(2,data);\n\n    }\n\n    function removeLiquidity(address receipt,AmountIn calldata amountIn) external override {\n        if (amountIn.payType == 1) {\n            userPayLp(msg.sender,amountIn.amount);\n        } else {\n            tokenCallBack(amountIn.payerAddress,_lp,amountIn.amount);\n        }\n        uint256 assetAmount =  getAssetAmount(amountIn.amount);\n        _liquidityPool = _liquidityPool.sub(amountIn.amount);\n\n        IERC20(_assetAddress).safeTransfer(receipt,assetAmount);  \n        IQLP(_lp).burn(address(this),amountIn.amount);\n        bytes memory data = abi.encode(receipt,assetAmount,amountIn.amount);\n        eventOut(3,data);\n    }\n\n    function openPosition(address poolAddress,AmountIn calldata amountIn,bytes calldata openParam) external override returns (uint32){\n        require(IAssetSettings(_settingAddress).poolStatus(address(this),poolAddress) == 1,\"wrong pool status\");\n        if (amountIn.payType == 1) {\n            userPayAsset(msg.sender,amountIn.amount);\n        } else {\n            tokenCallBack(amountIn.payerAddress,_assetAddress,amountIn.amount);\n        }\n        uint32 positionId = IPool(poolAddress).openPosition(openParam,amountIn.amount);\n        _positionIndex++;\n        _positions[_positionIndex] = Position(\n            poolAddress,\n            positionId,\n            msg.sender\n        );\n\n        bytes memory data = abi.encode(msg.sender,poolAddress,positionId,_positionIndex);\n        eventOut(4,data);\n    }\n\n    function addMargin(uint32 positionId,AmountIn calldata amountIn) external override {\n        if (amountIn.payType == 1) {\n            userPayAsset(msg.sender,amountIn.amount);\n        } else {\n            tokenCallBack(amountIn.payerAddress,_assetAddress,amountIn.amount);\n        }\n\n        IPool(_positions[positionId].poolAddress).addMargin(_positions[positionId].positionId,amountIn.amount);\n    }\n\n    function closePosition(uint32 positionId,address receipt) external override {\n        Position memory p = _positions[positionId];\n        require(p.poolAddress != address(0),\"Error positionId\");\n        require(p.userAddress == msg.sender,\"Error owner\");\n        require(IAssetSettings(_settingAddress).poolStatus(address(this),p.poolAddress) == 1,\"wrong pool status\");\n        IPool.Position memory pPosition;\n        (pPosition.sender,pPosition.openPrice,pPosition.openBlock,pPosition.margin,pPosition.size,pPosition.direction,pPosition.leverage,) = IPool(p.poolAddress)._positions(p.positionId);\n        (uint256 transferOut,uint256 fee,) = IPool(p.poolAddress).closePosition(p.positionId);\n        pPosition.margin = pPosition.margin.div(_precisionDiff);\n\n        transferOut = transferOut.div(_precisionDiff);\n        fee = fee.div(_precisionDiff);//fee\n        _liquidityPool = _liquidityPool.add(pPosition.margin);\n        if (transferOut > _liquidityPool) {\n            transferOut = _liquidityPool;\n        }\n        _liquidityPool = _liquidityPool.sub(transferOut);\n\n        delete _positions[positionId];\n        IERC20(_assetAddress).safeTransfer(receipt,transferOut);\n\n        bytes memory data = abi.encode(receipt,positionId,_liquidityPool,transferOut);\n        eventOut(5,data);\n    }\n\n    function liquidity(uint32 positionId,address receipt) external override {\n        Position memory p = _positions[positionId];\n        require(p.poolAddress != address(0),\"Error positionId\"); \n        require(IAssetSettings(_settingAddress).poolStatus(address(this),p.poolAddress) == 1,\"wrong pool status\");\n        IPool.Position memory pPosition;\n        (pPosition.sender,pPosition.openPrice,pPosition.openBlock,pPosition.margin,pPosition.size,pPosition.direction,pPosition.leverage,) = IPool(p.poolAddress)._positions(p.positionId);\n        pPosition.margin = pPosition.margin.div(_precisionDiff);\n        (uint256 transferOut,uint256 fee,) = IPool(p.poolAddress).liquidate(p.positionId);\n        transferOut = transferOut.div(_precisionDiff);\n        fee = fee.div(_precisionDiff);\n\n        _liquidityPool = _liquidityPool.add(pPosition.margin).sub(transferOut);  \n        delete _positions[positionId];\n        IERC20(_assetAddress).safeTransfer(receipt,transferOut);\n        bytes memory data = abi.encode(receipt,positionId,_liquidityPool,transferOut);\n        eventOut(6,data);\n    }\n\n    function eventOut(uint32 _type,bytes memory _value) internal {\n        IEventOut(IAssetSettings(_settingAddress).eventOut()).eventOut(_type,_value);\n    }\n\n}\n",
  "sourcePath": "/Users/xuyapeng/work/foreststone2020/qilin-v3-pve/contracts/Asset/Asset.sol",
  "compiler": {
    "name": "solc",
    "version": "0.8.1+commit.df193b15.Emscripten.clang"
  },
  "schemaVersion": "3.4.3",
  "updatedAt": "2023-06-19T03:09:02.650Z",
  "devdoc": {
    "kind": "dev",
    "methods": {},
    "version": 1
  },
  "userdoc": {
    "kind": "user",
    "methods": {},
    "version": 1
  }
}