{
  "contractName": "Factory",
  "abi": [
    {
      "anonymous": false,
      "inputs": [
        {
          "indexed": true,
          "internalType": "address",
          "name": "previousOwner",
          "type": "address"
        },
        {
          "indexed": true,
          "internalType": "address",
          "name": "newOwner",
          "type": "address"
        }
      ],
      "name": "OwnershipTransferred",
      "type": "event"
    },
    {
      "inputs": [],
      "name": "_assetDeployer",
      "outputs": [
        {
          "internalType": "address",
          "name": "",
          "type": "address"
        }
      ],
      "stateMutability": "view",
      "type": "function",
      "constant": true
    },
    {
      "inputs": [],
      "name": "_assetSettings",
      "outputs": [
        {
          "internalType": "address",
          "name": "",
          "type": "address"
        }
      ],
      "stateMutability": "view",
      "type": "function",
      "constant": true
    },
    {
      "inputs": [],
      "name": "_poolDeployer",
      "outputs": [
        {
          "internalType": "address",
          "name": "",
          "type": "address"
        }
      ],
      "stateMutability": "view",
      "type": "function",
      "constant": true
    },
    {
      "inputs": [
        {
          "internalType": "address",
          "name": "",
          "type": "address"
        },
        {
          "internalType": "address",
          "name": "",
          "type": "address"
        },
        {
          "internalType": "address",
          "name": "",
          "type": "address"
        },
        {
          "internalType": "bool",
          "name": "",
          "type": "bool"
        }
      ],
      "name": "_poolInfo",
      "outputs": [
        {
          "internalType": "address",
          "name": "asset",
          "type": "address"
        },
        {
          "internalType": "address",
          "name": "pool",
          "type": "address"
        }
      ],
      "stateMutability": "view",
      "type": "function",
      "constant": true
    },
    {
      "inputs": [],
      "name": "_poolSettings",
      "outputs": [
        {
          "internalType": "address",
          "name": "",
          "type": "address"
        }
      ],
      "stateMutability": "view",
      "type": "function",
      "constant": true
    },
    {
      "inputs": [],
      "name": "owner",
      "outputs": [
        {
          "internalType": "address",
          "name": "",
          "type": "address"
        }
      ],
      "stateMutability": "view",
      "type": "function",
      "constant": true
    },
    {
      "inputs": [],
      "name": "renounceOwnership",
      "outputs": [],
      "stateMutability": "nonpayable",
      "type": "function"
    },
    {
      "inputs": [
        {
          "internalType": "address",
          "name": "newOwner",
          "type": "address"
        }
      ],
      "name": "transferOwnership",
      "outputs": [],
      "stateMutability": "nonpayable",
      "type": "function"
    },
    {
      "inputs": [
        {
          "internalType": "address",
          "name": "pt",
          "type": "address"
        },
        {
          "internalType": "address",
          "name": "oracle",
          "type": "address"
        },
        {
          "internalType": "address",
          "name": "rate",
          "type": "address"
        },
        {
          "internalType": "bool",
          "name": "reserve",
          "type": "bool"
        }
      ],
      "name": "createPool",
      "outputs": [],
      "stateMutability": "nonpayable",
      "type": "function"
    },
    {
      "inputs": [
        {
          "internalType": "address",
          "name": "ats",
          "type": "address"
        },
        {
          "internalType": "address",
          "name": "pls",
          "type": "address"
        },
        {
          "internalType": "address",
          "name": "ad",
          "type": "address"
        },
        {
          "internalType": "address",
          "name": "pd",
          "type": "address"
        }
      ],
      "name": "initialize",
      "outputs": [],
      "stateMutability": "nonpayable",
      "type": "function"
    }
  ],
  "bytecode": "0x608060405234801561001057600080fd5b5061002d61002261003260201b60201c565b61003a60201b60201c565b6100fe565b600033905090565b60008060009054906101000a900473ffffffffffffffffffffffffffffffffffffffff169050816000806101000a81548173ffffffffffffffffffffffffffffffffffffffff021916908373ffffffffffffffffffffffffffffffffffffffff1602179055508173ffffffffffffffffffffffffffffffffffffffff168173ffffffffffffffffffffffffffffffffffffffff167f8be0079c531659141344cd1fd0a4f28419497f9722a3daafe3b4186f6b6457e060405160405180910390a35050565b6116288061010d6000396000f3fe608060405234801561001057600080fd5b50600436106100be5760003560e01c80638da5cb5b11610076578063cc9b5a591161005b578063cc9b5a5914610192578063f2fde38b146101b0578063f8c8765e146101cc576100be565b80638da5cb5b14610156578063b4673aef14610174576100be565b80636da980bc116100a75780636da980bc146100fd578063715018a61461011b57806379c1d33514610125576100be565b806312802e34146100c357806328d743d0146100df575b600080fd5b6100dd60048036038101906100d89190610fe4565b6101e8565b005b6100e761092e565b6040516100f4919061113e565b60405180910390f35b610105610954565b604051610112919061113e565b60405180910390f35b61012361097a565b005b61013f600480360381019061013a9190610fe4565b61098e565b60405161014d929190611159565b60405180910390f35b61015e610a19565b60405161016b919061113e565b60405180910390f35b61017c610a42565b604051610189919061113e565b60405180910390f35b61019a610a68565b6040516101a7919061113e565b60405180910390f35b6101ca60048036038101906101c59190610ef3565b610a8e565b005b6101e660048036038101906101e19190610f81565b610b12565b005b600080600160009054906101000a900473ffffffffffffffffffffffffffffffffffffffff1673ffffffffffffffffffffffffffffffffffffffff1663efb617c787600360009054906101000a900473ffffffffffffffffffffffffffffffffffffffff166040518363ffffffff1660e01b815260040161026a929190611159565b6040805180830381600087803b15801561028357600080fd5b505af1158015610297573d6000803e3d6000fd5b505050506040513d601f19601f820116820180604052508101906102bb9190610f45565b915091506000600260009054906101000a900473ffffffffffffffffffffffffffffffffffffffff1673ffffffffffffffffffffffffffffffffffffffff1663ea4adc8d878688600460009054906101000a900473ffffffffffffffffffffffffffffffffffffffff166040518563ffffffff1660e01b81526004016103449493929190611367565b602060405180830381600087803b15801561035e57600080fd5b505af1158015610372573d6000803e3d6000fd5b505050506040513d601f19601f820116820180604052508101906103969190610f1c565b9050600360009054906101000a900473ffffffffffffffffffffffffffffffffffffffff1673ffffffffffffffffffffffffffffffffffffffff1663e039fdcb848360016040518463ffffffff1660e01b81526004016103f89392919061128b565b600060405180830381600087803b15801561041257600080fd5b505af1158015610426573d6000803e3d6000fd5b50505050600460009054906101000a900473ffffffffffffffffffffffffffffffffffffffff1673ffffffffffffffffffffffffffffffffffffffff16637f2f72d7848360026040518463ffffffff1660e01b815260040161048a939291906112f9565b600060405180830381600087803b1580156104a457600080fd5b505af11580156104b8573d6000803e3d6000fd5b50505050600460009054906101000a900473ffffffffffffffffffffffffffffffffffffffff1673ffffffffffffffffffffffffffffffffffffffff16637f2f72d7848360056040518463ffffffff1660e01b815260040161051c93929190611330565b600060405180830381600087803b15801561053657600080fd5b505af115801561054a573d6000803e3d6000fd5b50505050600460009054906101000a900473ffffffffffffffffffffffffffffffffffffffff1673ffffffffffffffffffffffffffffffffffffffff16637f2f72d78483600a6040518463ffffffff1660e01b81526004016105ae93929190611254565b600060405180830381600087803b1580156105c857600080fd5b505af11580156105dc573d6000803e3d6000fd5b50505050600460009054906101000a900473ffffffffffffffffffffffffffffffffffffffff1673ffffffffffffffffffffffffffffffffffffffff16637f2f72d7848360146040518463ffffffff1660e01b8152600401610640939291906112c2565b600060405180830381600087803b15801561065a57600080fd5b505af115801561066e573d6000803e3d6000fd5b50505050600460009054906101000a900473ffffffffffffffffffffffffffffffffffffffff1673ffffffffffffffffffffffffffffffffffffffff166370114b4384836040518363ffffffff1660e01b81526004016106cf929190611159565b600060405180830381600087803b1580156106e957600080fd5b505af11580156106fd573d6000803e3d6000fd5b5050505060405180604001604052808473ffffffffffffffffffffffffffffffffffffffff1681526020018273ffffffffffffffffffffffffffffffffffffffff16815250600560008973ffffffffffffffffffffffffffffffffffffffff1673ffffffffffffffffffffffffffffffffffffffff16815260200190815260200160002060008873ffffffffffffffffffffffffffffffffffffffff1673ffffffffffffffffffffffffffffffffffffffff16815260200190815260200160002060008773ffffffffffffffffffffffffffffffffffffffff1673ffffffffffffffffffffffffffffffffffffffff16815260200190815260200160002060008615151515815260200190815260200160002060008201518160000160006101000a81548173ffffffffffffffffffffffffffffffffffffffff021916908373ffffffffffffffffffffffffffffffffffffffff16021790555060208201518160010160006101000a81548173ffffffffffffffffffffffffffffffffffffffff021916908373ffffffffffffffffffffffffffffffffffffffff16021790555090505060008784600360009054906101000a900473ffffffffffffffffffffffffffffffffffffffff16858a8a8a88600460009054906101000a900473ffffffffffffffffffffffffffffffffffffffff16604051602001610908999897969594939291906111c7565b6040516020818303038152906040529050610924600282610c5a565b5050505050505050565b600460009054906101000a900473ffffffffffffffffffffffffffffffffffffffff1681565b600260009054906101000a900473ffffffffffffffffffffffffffffffffffffffff1681565b610982610d6a565b61098c6000610de8565b565b60056020528360005260406000206020528260005260406000206020528160005260406000206020528060005260406000206000935093505050508060000160009054906101000a900473ffffffffffffffffffffffffffffffffffffffff16908060010160009054906101000a900473ffffffffffffffffffffffffffffffffffffffff16905082565b60008060009054906101000a900473ffffffffffffffffffffffffffffffffffffffff16905090565b600360009054906101000a900473ffffffffffffffffffffffffffffffffffffffff1681565b600160009054906101000a900473ffffffffffffffffffffffffffffffffffffffff1681565b610a96610d6a565b600073ffffffffffffffffffffffffffffffffffffffff168173ffffffffffffffffffffffffffffffffffffffff161415610b06576040517f08c379a0000000000000000000000000000000000000000000000000000000008152600401610afd906113ac565b60405180910390fd5b610b0f81610de8565b50565b610b1a610d6a565b81600160006101000a81548173ffffffffffffffffffffffffffffffffffffffff021916908373ffffffffffffffffffffffffffffffffffffffff16021790555080600260006101000a81548173ffffffffffffffffffffffffffffffffffffffff021916908373ffffffffffffffffffffffffffffffffffffffff16021790555083600360006101000a81548173ffffffffffffffffffffffffffffffffffffffff021916908373ffffffffffffffffffffffffffffffffffffffff16021790555082600460006101000a81548173ffffffffffffffffffffffffffffffffffffffff021916908373ffffffffffffffffffffffffffffffffffffffff160217905550600082858386604051602001610c379493929190611182565b6040516020818303038152906040529050610c53600182610c5a565b5050505050565b600460009054906101000a900473ffffffffffffffffffffffffffffffffffffffff1673ffffffffffffffffffffffffffffffffffffffff166301d277556040518163ffffffff1660e01b815260040160206040518083038186803b158015610cc257600080fd5b505afa158015610cd6573d6000803e3d6000fd5b505050506040513d601f19601f82011682018060405250810190610cfa9190610f1c565b73ffffffffffffffffffffffffffffffffffffffff1663fdbb9d4a83836040518363ffffffff1660e01b8152600401610d349291906113ec565b600060405180830381600087803b158015610d4e57600080fd5b505af1158015610d62573d6000803e3d6000fd5b505050505050565b610d72610eac565b73ffffffffffffffffffffffffffffffffffffffff16610d90610a19565b73ffffffffffffffffffffffffffffffffffffffff1614610de6576040517f08c379a0000000000000000000000000000000000000000000000000000000008152600401610ddd906113cc565b60405180910390fd5b565b60008060009054906101000a900473ffffffffffffffffffffffffffffffffffffffff169050816000806101000a81548173ffffffffffffffffffffffffffffffffffffffff021916908373ffffffffffffffffffffffffffffffffffffffff1602179055508173ffffffffffffffffffffffffffffffffffffffff168173ffffffffffffffffffffffffffffffffffffffff167f8be0079c531659141344cd1fd0a4f28419497f9722a3daafe3b4186f6b6457e060405160405180910390a35050565b600033905090565b600081359050610ec3816115c4565b92915050565b600081519050610ed8816115c4565b92915050565b600081359050610eed816115db565b92915050565b600060208284031215610f0557600080fd5b6000610f1384828501610eb4565b91505092915050565b600060208284031215610f2e57600080fd5b6000610f3c84828501610ec9565b91505092915050565b60008060408385031215610f5857600080fd5b6000610f6685828601610ec9565b9250506020610f7785828601610ec9565b9150509250929050565b60008060008060808587031215610f9757600080fd5b6000610fa587828801610eb4565b9450506020610fb687828801610eb4565b9350506040610fc787828801610eb4565b9250506060610fd887828801610eb4565b91505092959194509250565b60008060008060808587031215610ffa57600080fd5b600061100887828801610eb4565b945050602061101987828801610eb4565b935050604061102a87828801610eb4565b925050606061103b87828801610ede565b91505092959194509250565b61105081611449565b82525050565b61105f8161145b565b82525050565b60006110708261141c565b61107a8185611427565b935061108a818560208601611508565b6110938161153b565b840191505092915050565b6110a7816114ae565b82525050565b6110b6816114c0565b82525050565b6110c5816114d2565b82525050565b6110d4816114e4565b82525050565b6110e3816114f6565b82525050565b60006110f6602683611438565b91506111018261154c565b604082019050919050565b6000611119602083611438565b91506111248261159b565b602082019050919050565b61113881611491565b82525050565b60006020820190506111536000830184611047565b92915050565b600060408201905061116e6000830185611047565b61117b6020830184611047565b9392505050565b60006080820190506111976000830187611047565b6111a46020830186611047565b6111b16040830185611047565b6111be6060830184611047565b95945050505050565b6000610120820190506111dd600083018c611047565b6111ea602083018b611047565b6111f7604083018a611047565b6112046060830189611047565b6112116080830188611047565b61121e60a0830187611047565b61122b60c0830186611056565b61123860e0830185611047565b611246610100830184611047565b9a9950505050505050505050565b60006060820190506112696000830186611047565b6112766020830185611047565b611283604083018461109e565b949350505050565b60006060820190506112a06000830186611047565b6112ad6020830185611047565b6112ba60408301846110ad565b949350505050565b60006060820190506112d76000830186611047565b6112e46020830185611047565b6112f160408301846110bc565b949350505050565b600060608201905061130e6000830186611047565b61131b6020830185611047565b61132860408301846110cb565b949350505050565b60006060820190506113456000830186611047565b6113526020830185611047565b61135f60408301846110da565b949350505050565b600060808201905061137c6000830187611047565b6113896020830186611056565b6113966040830185611047565b6113a36060830184611047565b95945050505050565b600060208201905081810360008301526113c5816110e9565b9050919050565b600060208201905081810360008301526113e58161110c565b9050919050565b6000604082019050611401600083018561112f565b81810360208301526114138184611065565b90509392505050565b600081519050919050565b600082825260208201905092915050565b600082825260208201905092915050565b600061145482611467565b9050919050565b60008115159050919050565b600073ffffffffffffffffffffffffffffffffffffffff82169050919050565b6000819050919050565b600063ffffffff82169050919050565b600060ff82169050919050565b60006114b982611487565b9050919050565b60006114cb826114a1565b9050919050565b60006114dd82611487565b9050919050565b60006114ef82611487565b9050919050565b600061150182611487565b9050919050565b60005b8381101561152657808201518184015260208101905061150b565b83811115611535576000848401525b50505050565b6000601f19601f8301169050919050565b7f4f776e61626c653a206e6577206f776e657220697320746865207a65726f206160008201527f6464726573730000000000000000000000000000000000000000000000000000602082015250565b7f4f776e61626c653a2063616c6c6572206973206e6f7420746865206f776e6572600082015250565b6115cd81611449565b81146115d857600080fd5b50565b6115e48161145b565b81146115ef57600080fd5b5056fea2646970667358221220bf9595e7e139d88d60aeb602e56a9040bcd9de3ca9571183a6341b0587c9708164736f6c63430008010033",
  "immutableReferences": {},
  "source": "pragma solidity 0.8.1;\nimport \"./Pool/interfaces/IPoolDeployer.sol\";\nimport \"./Pool/interfaces/IPoolSettings.sol\";\n\nimport \"./Asset/interfaces/IAssetDeployer.sol\";\nimport \"./Asset/interfaces/IAssetSettings.sol\";\nimport \"./interfaces/IEventOut.sol\";\n\nimport \"@openzeppelin/contracts/access/Ownable.sol\";\n\ncontract Factory is Ownable  {\n    address public _assetDeployer;\n    address public _poolDeployer;\n    address public _assetSettings;\n    address public _poolSettings;\n\n    //\n    struct poolInfo {\n        address asset;\n        address pool;\n    }\n    mapping(address =>mapping(address =>mapping(address=>mapping(bool=>poolInfo)))) public _poolInfo;\n\n    function createPool(address pt,address oracle,address rate,bool reserve) public {\n        (address assetAddress,address lpAddress) = IAssetDeployer(_assetDeployer).deployAsset(pt,_assetSettings);\n        address poolAddress = IPoolDeployer(_poolDeployer).deployPool(oracle,reserve,rate,_poolSettings);\n        //\n        IAssetSettings(_assetSettings).setPoolStatus(assetAddress,poolAddress,1);\n        IPoolSettings(_poolSettings).setLegalLevel(assetAddress,poolAddress,2);\n        IPoolSettings(_poolSettings).setLegalLevel(assetAddress,poolAddress,5);\n        IPoolSettings(_poolSettings).setLegalLevel(assetAddress,poolAddress,10);\n        IPoolSettings(_poolSettings).setLegalLevel(assetAddress,poolAddress,20);\n        IPoolSettings(_poolSettings).InitPool(assetAddress,poolAddress);\n\n        _poolInfo[pt][oracle][rate][reserve] = poolInfo(assetAddress,poolAddress);\n        bytes memory data = abi.encode(pt,assetAddress,_assetSettings,lpAddress,oracle,rate,reserve,poolAddress,_poolSettings);\n        eventOut(2,data);\n    }\n\n    function initialize(address ats,address pls,address ad,address pd) public onlyOwner {\n        _assetDeployer = ad;\n        _poolDeployer = pd;\n        _assetSettings = ats;\n        _poolSettings = pls;\n\n        bytes memory data = abi.encode(ad,ats,pd,pls);\n        eventOut(1,data);\n    }\n\n    function eventOut(uint32 _type,bytes memory _value) internal {\n        IEventOut(IPoolSettings(_poolSettings).eventOut()).eventOut(_type,_value);\n    }\n}",
  "sourcePath": "/Users/xuyapeng/work/foreststone2020/qilin-v3-pve/contracts/Factory.sol",
  "compiler": {
    "name": "solc",
    "version": "0.8.1+commit.df193b15.Emscripten.clang"
  },
  "schemaVersion": "3.4.3",
  "updatedAt": "2023-06-27T11:22:41.965Z",
  "networkType": "ethereum",
  "devdoc": {
    "kind": "dev",
    "methods": {
      "owner()": {
        "details": "Returns the address of the current owner."
      },
      "renounceOwnership()": {
        "details": "Leaves the contract without owner. It will not be possible to call `onlyOwner` functions. Can only be called by the current owner. NOTE: Renouncing ownership will leave the contract without an owner, thereby disabling any functionality that is only available to the owner."
      },
      "transferOwnership(address)": {
        "details": "Transfers ownership of the contract to a new account (`newOwner`). Can only be called by the current owner."
      }
    },
    "version": 1
  },
  "userdoc": {
    "kind": "user",
    "methods": {},
    "version": 1
  }
}