{
  "contractName": "mockToken",
  "abi": [
    {
      "inputs": [
        {
          "internalType": "string",
          "name": "name_",
          "type": "string"
        },
        {
          "internalType": "string",
          "name": "symbol_",
          "type": "string"
        },
        {
          "internalType": "uint256",
          "name": "amount",
          "type": "uint256"
        }
      ],
      "stateMutability": "nonpayable",
      "type": "constructor"
    },
    {
      "anonymous": false,
      "inputs": [
        {
          "indexed": true,
          "internalType": "address",
          "name": "owner",
          "type": "address"
        },
        {
          "indexed": true,
          "internalType": "address",
          "name": "spender",
          "type": "address"
        },
        {
          "indexed": false,
          "internalType": "uint256",
          "name": "value",
          "type": "uint256"
        }
      ],
      "name": "Approval",
      "type": "event"
    },
    {
      "anonymous": false,
      "inputs": [
        {
          "indexed": true,
          "internalType": "address",
          "name": "from",
          "type": "address"
        },
        {
          "indexed": true,
          "internalType": "address",
          "name": "to",
          "type": "address"
        },
        {
          "indexed": false,
          "internalType": "uint256",
          "name": "value",
          "type": "uint256"
        }
      ],
      "name": "Transfer",
      "type": "event"
    },
    {
      "inputs": [
        {
          "internalType": "address",
          "name": "",
          "type": "address"
        }
      ],
      "name": "_mintAlready",
      "outputs": [
        {
          "internalType": "bool",
          "name": "",
          "type": "bool"
        }
      ],
      "stateMutability": "view",
      "type": "function",
      "constant": true
    },
    {
      "inputs": [
        {
          "internalType": "address",
          "name": "owner",
          "type": "address"
        },
        {
          "internalType": "address",
          "name": "spender",
          "type": "address"
        }
      ],
      "name": "allowance",
      "outputs": [
        {
          "internalType": "uint256",
          "name": "",
          "type": "uint256"
        }
      ],
      "stateMutability": "view",
      "type": "function",
      "constant": true
    },
    {
      "inputs": [
        {
          "internalType": "address",
          "name": "spender",
          "type": "address"
        },
        {
          "internalType": "uint256",
          "name": "amount",
          "type": "uint256"
        }
      ],
      "name": "approve",
      "outputs": [
        {
          "internalType": "bool",
          "name": "",
          "type": "bool"
        }
      ],
      "stateMutability": "nonpayable",
      "type": "function"
    },
    {
      "inputs": [
        {
          "internalType": "address",
          "name": "account",
          "type": "address"
        }
      ],
      "name": "balanceOf",
      "outputs": [
        {
          "internalType": "uint256",
          "name": "",
          "type": "uint256"
        }
      ],
      "stateMutability": "view",
      "type": "function",
      "constant": true
    },
    {
      "inputs": [],
      "name": "decimals",
      "outputs": [
        {
          "internalType": "uint8",
          "name": "",
          "type": "uint8"
        }
      ],
      "stateMutability": "view",
      "type": "function",
      "constant": true
    },
    {
      "inputs": [
        {
          "internalType": "address",
          "name": "spender",
          "type": "address"
        },
        {
          "internalType": "uint256",
          "name": "subtractedValue",
          "type": "uint256"
        }
      ],
      "name": "decreaseAllowance",
      "outputs": [
        {
          "internalType": "bool",
          "name": "",
          "type": "bool"
        }
      ],
      "stateMutability": "nonpayable",
      "type": "function"
    },
    {
      "inputs": [
        {
          "internalType": "address",
          "name": "spender",
          "type": "address"
        },
        {
          "internalType": "uint256",
          "name": "addedValue",
          "type": "uint256"
        }
      ],
      "name": "increaseAllowance",
      "outputs": [
        {
          "internalType": "bool",
          "name": "",
          "type": "bool"
        }
      ],
      "stateMutability": "nonpayable",
      "type": "function"
    },
    {
      "inputs": [],
      "name": "name",
      "outputs": [
        {
          "internalType": "string",
          "name": "",
          "type": "string"
        }
      ],
      "stateMutability": "view",
      "type": "function",
      "constant": true
    },
    {
      "inputs": [],
      "name": "symbol",
      "outputs": [
        {
          "internalType": "string",
          "name": "",
          "type": "string"
        }
      ],
      "stateMutability": "view",
      "type": "function",
      "constant": true
    },
    {
      "inputs": [],
      "name": "totalSupply",
      "outputs": [
        {
          "internalType": "uint256",
          "name": "",
          "type": "uint256"
        }
      ],
      "stateMutability": "view",
      "type": "function",
      "constant": true
    },
    {
      "inputs": [
        {
          "internalType": "address",
          "name": "to",
          "type": "address"
        },
        {
          "internalType": "uint256",
          "name": "amount",
          "type": "uint256"
        }
      ],
      "name": "transfer",
      "outputs": [
        {
          "internalType": "bool",
          "name": "",
          "type": "bool"
        }
      ],
      "stateMutability": "nonpayable",
      "type": "function"
    },
    {
      "inputs": [
        {
          "internalType": "address",
          "name": "from",
          "type": "address"
        },
        {
          "internalType": "address",
          "name": "to",
          "type": "address"
        },
        {
          "internalType": "uint256",
          "name": "amount",
          "type": "uint256"
        }
      ],
      "name": "transferFrom",
      "outputs": [
        {
          "internalType": "bool",
          "name": "",
          "type": "bool"
        }
      ],
      "stateMutability": "nonpayable",
      "type": "function"
    },
    {
      "inputs": [],
      "name": "mintTest",
      "outputs": [],
      "stateMutability": "nonpayable",
      "type": "function"
    }
  ],
  "bytecode": "0x60806040523480156200001157600080fd5b5060405162001cac38038062001cac833981810160405281019062000037919062000339565b828281600390805190602001906200005192919062000200565b5080600490805190602001906200006a92919062000200565b5050506200007f33826200008860201b60201c565b50505062000692565b600073ffffffffffffffffffffffffffffffffffffffff168273ffffffffffffffffffffffffffffffffffffffff161415620000fb576040517f08c379a0000000000000000000000000000000000000000000000000000000008152600401620000f290620003f9565b60405180910390fd5b6200010f60008383620001f660201b60201c565b8060026000828254620001239190620004a8565b92505081905550806000808473ffffffffffffffffffffffffffffffffffffffff1673ffffffffffffffffffffffffffffffffffffffff168152602001908152602001600020600082825401925050819055508173ffffffffffffffffffffffffffffffffffffffff16600073ffffffffffffffffffffffffffffffffffffffff167fddf252ad1be2c89b69c2b068fc378daa952ba7f163c4a11628f55a4df523b3ef83604051620001d691906200041b565b60405180910390a3620001f260008383620001fb60201b60201c565b5050565b505050565b505050565b8280546200020e9062000545565b90600052602060002090601f0160209004810192826200023257600085556200027e565b82601f106200024d57805160ff19168380011785556200027e565b828001600101855582156200027e579182015b828111156200027d57825182559160200191906001019062000260565b5b5090506200028d919062000291565b5090565b5b80821115620002ac57600081600090555060010162000292565b5090565b6000620002c7620002c18462000461565b62000438565b905082815260208101848484011115620002e057600080fd5b620002ed8482856200050f565b509392505050565b600082601f8301126200030757600080fd5b815162000319848260208601620002b0565b91505092915050565b600081519050620003338162000678565b92915050565b6000806000606084860312156200034f57600080fd5b600084015167ffffffffffffffff8111156200036a57600080fd5b6200037886828701620002f5565b935050602084015167ffffffffffffffff8111156200039657600080fd5b620003a486828701620002f5565b9250506040620003b78682870162000322565b9150509250925092565b6000620003d0601f8362000497565b9150620003dd826200064f565b602082019050919050565b620003f38162000505565b82525050565b600060208201905081810360008301526200041481620003c1565b9050919050565b6000602082019050620004326000830184620003e8565b92915050565b60006200044462000457565b90506200045282826200057b565b919050565b6000604051905090565b600067ffffffffffffffff8211156200047f576200047e6200060f565b5b6200048a826200063e565b9050602081019050919050565b600082825260208201905092915050565b6000620004b58262000505565b9150620004c28362000505565b9250827fffffffffffffffffffffffffffffffffffffffffffffffffffffffffffffffff03821115620004fa57620004f9620005b1565b5b828201905092915050565b6000819050919050565b60005b838110156200052f57808201518184015260208101905062000512565b838111156200053f576000848401525b50505050565b600060028204905060018216806200055e57607f821691505b60208210811415620005755762000574620005e0565b5b50919050565b62000586826200063e565b810181811067ffffffffffffffff82111715620005a857620005a76200060f565b5b80604052505050565b7f4e487b7100000000000000000000000000000000000000000000000000000000600052601160045260246000fd5b7f4e487b7100000000000000000000000000000000000000000000000000000000600052602260045260246000fd5b7f4e487b7100000000000000000000000000000000000000000000000000000000600052604160045260246000fd5b6000601f19601f8301169050919050565b7f45524332303a206d696e7420746f20746865207a65726f206164647265737300600082015250565b620006838162000505565b81146200068f57600080fd5b50565b61160a80620006a26000396000f3fe608060405234801561001057600080fd5b50600436106100df5760003560e01c806366675aa91161008c57806395d89b411161006657806395d89b4114610238578063a457c2d714610256578063a9059cbb14610286578063dd62ed3e146102b6576100df565b806366675aa9146101ce57806370a08231146101d85780637425d2d414610208576100df565b806323b872dd116100bd57806323b872dd14610150578063313ce56714610180578063395093511461019e576100df565b806306fdde03146100e4578063095ea7b31461010257806318160ddd14610132575b600080fd5b6100ec6102e6565b6040516100f9919061103e565b60405180910390f35b61011c60048036038101906101179190610e46565b610378565b6040516101299190611023565b60405180910390f35b61013a61039b565b6040516101479190611180565b60405180910390f35b61016a60048036038101906101659190610df7565b6103a5565b6040516101779190611023565b60405180910390f35b6101886103d4565b604051610195919061119b565b60405180910390f35b6101b860048036038101906101b39190610e46565b6103dd565b6040516101c59190611023565b60405180910390f35b6101d6610414565b005b6101f260048036038101906101ed9190610d92565b610515565b6040516101ff9190611180565b60405180910390f35b610222600480360381019061021d9190610d92565b61055d565b60405161022f9190611023565b60405180910390f35b61024061057d565b60405161024d919061103e565b60405180910390f35b610270600480360381019061026b9190610e46565b61060f565b60405161027d9190611023565b60405180910390f35b6102a0600480360381019061029b9190610e46565b610686565b6040516102ad9190611023565b60405180910390f35b6102d060048036038101906102cb9190610dbb565b6106a9565b6040516102dd9190611180565b60405180910390f35b6060600380546102f5906112b0565b80601f0160208091040260200160405190810160405280929190818152602001828054610321906112b0565b801561036e5780601f106103435761010080835404028352916020019161036e565b820191906000526020600020905b81548152906001019060200180831161035157829003601f168201915b5050505050905090565b600080610383610730565b9050610390818585610738565b600191505092915050565b6000600254905090565b6000806103b0610730565b90506103bd858285610903565b6103c885858561098f565b60019150509392505050565b60006012905090565b6000806103e8610730565b90506104098185856103fa85896106a9565b61040491906111d2565b610738565b600191505092915050565b60001515600560003373ffffffffffffffffffffffffffffffffffffffff1673ffffffffffffffffffffffffffffffffffffffff16815260200190815260200160002060009054906101000a900460ff161515146104a7576040517f08c379a000000000000000000000000000000000000000000000000000000000815260040161049e90611080565b60405180910390fd5b6104bb3369021e19e0c9bab2400000610c07565b6001600560003373ffffffffffffffffffffffffffffffffffffffff1673ffffffffffffffffffffffffffffffffffffffff16815260200190815260200160002060006101000a81548160ff021916908315150217905550565b60008060008373ffffffffffffffffffffffffffffffffffffffff1673ffffffffffffffffffffffffffffffffffffffff168152602001908152602001600020549050919050565b60056020528060005260406000206000915054906101000a900460ff1681565b60606004805461058c906112b0565b80601f01602080910402602001604051908101604052809291908181526020018280546105b8906112b0565b80156106055780601f106105da57610100808354040283529160200191610605565b820191906000526020600020905b8154815290600101906020018083116105e857829003601f168201915b5050505050905090565b60008061061a610730565b9050600061062882866106a9565b90508381101561066d576040517f08c379a000000000000000000000000000000000000000000000000000000000815260040161066490611140565b60405180910390fd5b61067a8286868403610738565b60019250505092915050565b600080610691610730565b905061069e81858561098f565b600191505092915050565b6000600160008473ffffffffffffffffffffffffffffffffffffffff1673ffffffffffffffffffffffffffffffffffffffff16815260200190815260200160002060008373ffffffffffffffffffffffffffffffffffffffff1673ffffffffffffffffffffffffffffffffffffffff16815260200190815260200160002054905092915050565b600033905090565b600073ffffffffffffffffffffffffffffffffffffffff168373ffffffffffffffffffffffffffffffffffffffff1614156107a8576040517f08c379a000000000000000000000000000000000000000000000000000000000815260040161079f90611120565b60405180910390fd5b600073ffffffffffffffffffffffffffffffffffffffff168273ffffffffffffffffffffffffffffffffffffffff161415610818576040517f08c379a000000000000000000000000000000000000000000000000000000000815260040161080f906110a0565b60405180910390fd5b80600160008573ffffffffffffffffffffffffffffffffffffffff1673ffffffffffffffffffffffffffffffffffffffff16815260200190815260200160002060008473ffffffffffffffffffffffffffffffffffffffff1673ffffffffffffffffffffffffffffffffffffffff168152602001908152602001600020819055508173ffffffffffffffffffffffffffffffffffffffff168373ffffffffffffffffffffffffffffffffffffffff167f8c5be1e5ebec7d5bd14f71427d1e84f3dd0314c0f7b2291e5b200ac8c7c3b925836040516108f69190611180565b60405180910390a3505050565b600061090f84846106a9565b90507fffffffffffffffffffffffffffffffffffffffffffffffffffffffffffffffff8114610989578181101561097b576040517f08c379a0000000000000000000000000000000000000000000000000000000008152600401610972906110c0565b60405180910390fd5b6109888484848403610738565b5b50505050565b600073ffffffffffffffffffffffffffffffffffffffff168373ffffffffffffffffffffffffffffffffffffffff1614156109ff576040517f08c379a00000000000000000000000000000000000000000000000000000000081526004016109f690611100565b60405180910390fd5b600073ffffffffffffffffffffffffffffffffffffffff168273ffffffffffffffffffffffffffffffffffffffff161415610a6f576040517f08c379a0000000000000000000000000000000000000000000000000000000008152600401610a6690611060565b60405180910390fd5b610a7a838383610d5e565b60008060008573ffffffffffffffffffffffffffffffffffffffff1673ffffffffffffffffffffffffffffffffffffffff16815260200190815260200160002054905081811015610b00576040517f08c379a0000000000000000000000000000000000000000000000000000000008152600401610af7906110e0565b60405180910390fd5b8181036000808673ffffffffffffffffffffffffffffffffffffffff1673ffffffffffffffffffffffffffffffffffffffff16815260200190815260200160002081905550816000808573ffffffffffffffffffffffffffffffffffffffff1673ffffffffffffffffffffffffffffffffffffffff168152602001908152602001600020600082825401925050819055508273ffffffffffffffffffffffffffffffffffffffff168473ffffffffffffffffffffffffffffffffffffffff167fddf252ad1be2c89b69c2b068fc378daa952ba7f163c4a11628f55a4df523b3ef84604051610bee9190611180565b60405180910390a3610c01848484610d63565b50505050565b600073ffffffffffffffffffffffffffffffffffffffff168273ffffffffffffffffffffffffffffffffffffffff161415610c77576040517f08c379a0000000000000000000000000000000000000000000000000000000008152600401610c6e90611160565b60405180910390fd5b610c8360008383610d5e565b8060026000828254610c9591906111d2565b92505081905550806000808473ffffffffffffffffffffffffffffffffffffffff1673ffffffffffffffffffffffffffffffffffffffff168152602001908152602001600020600082825401925050819055508173ffffffffffffffffffffffffffffffffffffffff16600073ffffffffffffffffffffffffffffffffffffffff167fddf252ad1be2c89b69c2b068fc378daa952ba7f163c4a11628f55a4df523b3ef83604051610d469190611180565b60405180910390a3610d5a60008383610d63565b5050565b505050565b505050565b600081359050610d77816115a6565b92915050565b600081359050610d8c816115bd565b92915050565b600060208284031215610da457600080fd5b6000610db284828501610d68565b91505092915050565b60008060408385031215610dce57600080fd5b6000610ddc85828601610d68565b9250506020610ded85828601610d68565b9150509250929050565b600080600060608486031215610e0c57600080fd5b6000610e1a86828701610d68565b9350506020610e2b86828701610d68565b9250506040610e3c86828701610d7d565b9150509250925092565b60008060408385031215610e5957600080fd5b6000610e6785828601610d68565b9250506020610e7885828601610d7d565b9150509250929050565b610e8b8161123a565b82525050565b6000610e9c826111b6565b610ea681856111c1565b9350610eb681856020860161127d565b610ebf81611340565b840191505092915050565b6000610ed76023836111c1565b9150610ee282611351565b604082019050919050565b6000610efa6003836111c1565b9150610f05826113a0565b602082019050919050565b6000610f1d6022836111c1565b9150610f28826113c9565b604082019050919050565b6000610f40601d836111c1565b9150610f4b82611418565b602082019050919050565b6000610f636026836111c1565b9150610f6e82611441565b604082019050919050565b6000610f866025836111c1565b9150610f9182611490565b604082019050919050565b6000610fa96024836111c1565b9150610fb4826114df565b604082019050919050565b6000610fcc6025836111c1565b9150610fd78261152e565b604082019050919050565b6000610fef601f836111c1565b9150610ffa8261157d565b602082019050919050565b61100e81611266565b82525050565b61101d81611270565b82525050565b60006020820190506110386000830184610e82565b92915050565b600060208201905081810360008301526110588184610e91565b905092915050565b6000602082019050818103600083015261107981610eca565b9050919050565b6000602082019050818103600083015261109981610eed565b9050919050565b600060208201905081810360008301526110b981610f10565b9050919050565b600060208201905081810360008301526110d981610f33565b9050919050565b600060208201905081810360008301526110f981610f56565b9050919050565b6000602082019050818103600083015261111981610f79565b9050919050565b6000602082019050818103600083015261113981610f9c565b9050919050565b6000602082019050818103600083015261115981610fbf565b9050919050565b6000602082019050818103600083015261117981610fe2565b9050919050565b60006020820190506111956000830184611005565b92915050565b60006020820190506111b06000830184611014565b92915050565b600081519050919050565b600082825260208201905092915050565b60006111dd82611266565b91506111e883611266565b9250827fffffffffffffffffffffffffffffffffffffffffffffffffffffffffffffffff0382111561121d5761121c6112e2565b5b828201905092915050565b600061123382611246565b9050919050565b60008115159050919050565b600073ffffffffffffffffffffffffffffffffffffffff82169050919050565b6000819050919050565b600060ff82169050919050565b60005b8381101561129b578082015181840152602081019050611280565b838111156112aa576000848401525b50505050565b600060028204905060018216806112c857607f821691505b602082108114156112dc576112db611311565b5b50919050565b7f4e487b7100000000000000000000000000000000000000000000000000000000600052601160045260246000fd5b7f4e487b7100000000000000000000000000000000000000000000000000000000600052602260045260246000fd5b6000601f19601f8301169050919050565b7f45524332303a207472616e7366657220746f20746865207a65726f206164647260008201527f6573730000000000000000000000000000000000000000000000000000000000602082015250565b7f41204d0000000000000000000000000000000000000000000000000000000000600082015250565b7f45524332303a20617070726f766520746f20746865207a65726f20616464726560008201527f7373000000000000000000000000000000000000000000000000000000000000602082015250565b7f45524332303a20696e73756666696369656e7420616c6c6f77616e6365000000600082015250565b7f45524332303a207472616e7366657220616d6f756e742065786365656473206260008201527f616c616e63650000000000000000000000000000000000000000000000000000602082015250565b7f45524332303a207472616e736665722066726f6d20746865207a65726f20616460008201527f6472657373000000000000000000000000000000000000000000000000000000602082015250565b7f45524332303a20617070726f76652066726f6d20746865207a65726f2061646460008201527f7265737300000000000000000000000000000000000000000000000000000000602082015250565b7f45524332303a2064656372656173656420616c6c6f77616e63652062656c6f7760008201527f207a65726f000000000000000000000000000000000000000000000000000000602082015250565b7f45524332303a206d696e7420746f20746865207a65726f206164647265737300600082015250565b6115af81611228565b81146115ba57600080fd5b50565b6115c681611266565b81146115d157600080fd5b5056fea2646970667358221220a19cce60ea57108b30a2653d7b0f8803a0f93c5440bdacbc2e983dc70169c7b664736f6c63430008010033",
  "immutableReferences": {},
  "source": "pragma solidity =0.8.1;\n\nimport \"@openzeppelin/contracts/token/ERC20/ERC20.sol\";\n\ncontract mockToken is ERC20 {\n    constructor(\n        string memory name_,\n        string memory symbol_,\n        uint256 amount\n    ) ERC20(name_, symbol_) {\n        _mint(msg.sender, amount);\n    }\n\n    mapping(address=>bool) public _mintAlready;\n    function mintTest()external  {\n        require(_mintAlready[msg.sender] == false,\"A M\");\n        _mint(msg.sender, 1e22);\n        _mintAlready[msg.sender] = true;\n    }\n}\n",
  "sourcePath": "/Users/xuyapeng/work/foreststone2020/qilin-v3-pve/contracts/mock/mockToken.sol",
  "compiler": {
    "name": "solc",
    "version": "0.8.1+commit.df193b15.Emscripten.clang"
  },
  "schemaVersion": "3.4.3",
  "updatedAt": "2023-08-30T07:41:32.178Z",
  "networkType": "ethereum",
  "devdoc": {
    "kind": "dev",
    "methods": {
      "allowance(address,address)": {
        "details": "See {IERC20-allowance}."
      },
      "approve(address,uint256)": {
        "details": "See {IERC20-approve}. NOTE: If `amount` is the maximum `uint256`, the allowance is not updated on `transferFrom`. This is semantically equivalent to an infinite approval. Requirements: - `spender` cannot be the zero address."
      },
      "balanceOf(address)": {
        "details": "See {IERC20-balanceOf}."
      },
      "decimals()": {
        "details": "Returns the number of decimals used to get its user representation. For example, if `decimals` equals `2`, a balance of `505` tokens should be displayed to a user as `5.05` (`505 / 10 ** 2`). Tokens usually opt for a value of 18, imitating the relationship between Ether and Wei. This is the default value returned by this function, unless it's overridden. NOTE: This information is only used for _display_ purposes: it in no way affects any of the arithmetic of the contract, including {IERC20-balanceOf} and {IERC20-transfer}."
      },
      "decreaseAllowance(address,uint256)": {
        "details": "Atomically decreases the allowance granted to `spender` by the caller. This is an alternative to {approve} that can be used as a mitigation for problems described in {IERC20-approve}. Emits an {Approval} event indicating the updated allowance. Requirements: - `spender` cannot be the zero address. - `spender` must have allowance for the caller of at least `subtractedValue`."
      },
      "increaseAllowance(address,uint256)": {
        "details": "Atomically increases the allowance granted to `spender` by the caller. This is an alternative to {approve} that can be used as a mitigation for problems described in {IERC20-approve}. Emits an {Approval} event indicating the updated allowance. Requirements: - `spender` cannot be the zero address."
      },
      "name()": {
        "details": "Returns the name of the token."
      },
      "symbol()": {
        "details": "Returns the symbol of the token, usually a shorter version of the name."
      },
      "totalSupply()": {
        "details": "See {IERC20-totalSupply}."
      },
      "transfer(address,uint256)": {
        "details": "See {IERC20-transfer}. Requirements: - `to` cannot be the zero address. - the caller must have a balance of at least `amount`."
      },
      "transferFrom(address,address,uint256)": {
        "details": "See {IERC20-transferFrom}. Emits an {Approval} event indicating the updated allowance. This is not required by the EIP. See the note at the beginning of {ERC20}. NOTE: Does not update the allowance if the current allowance is the maximum `uint256`. Requirements: - `from` and `to` cannot be the zero address. - `from` must have a balance of at least `amount`. - the caller must have allowance for ``from``'s tokens of at least `amount`."
      }
    },
    "version": 1
  },
  "userdoc": {
    "kind": "user",
    "methods": {},
    "version": 1
  }
}