{
  "contractName": "justNft",
  "abi": [
    {
      "inputs": [
        {
          "internalType": "string",
          "name": "name_",
          "type": "string"
        }
      ],
      "stateMutability": "nonpayable",
      "type": "constructor"
    },
    {
      "anonymous": false,
      "inputs": [
        {
          "indexed": true,
          "internalType": "address",
          "name": "owner",
          "type": "address"
        },
        {
          "indexed": true,
          "internalType": "address",
          "name": "approved",
          "type": "address"
        },
        {
          "indexed": true,
          "internalType": "uint256",
          "name": "tokenId",
          "type": "uint256"
        }
      ],
      "name": "Approval",
      "type": "event"
    },
    {
      "anonymous": false,
      "inputs": [
        {
          "indexed": true,
          "internalType": "address",
          "name": "owner",
          "type": "address"
        },
        {
          "indexed": true,
          "internalType": "address",
          "name": "operator",
          "type": "address"
        },
        {
          "indexed": false,
          "internalType": "bool",
          "name": "approved",
          "type": "bool"
        }
      ],
      "name": "ApprovalForAll",
      "type": "event"
    },
    {
      "anonymous": false,
      "inputs": [
        {
          "indexed": true,
          "internalType": "address",
          "name": "previousOwner",
          "type": "address"
        },
        {
          "indexed": true,
          "internalType": "address",
          "name": "newOwner",
          "type": "address"
        }
      ],
      "name": "OwnershipTransferred",
      "type": "event"
    },
    {
      "anonymous": false,
      "inputs": [
        {
          "indexed": true,
          "internalType": "address",
          "name": "from",
          "type": "address"
        },
        {
          "indexed": true,
          "internalType": "address",
          "name": "to",
          "type": "address"
        },
        {
          "indexed": true,
          "internalType": "uint256",
          "name": "tokenId",
          "type": "uint256"
        }
      ],
      "name": "Transfer",
      "type": "event"
    },
    {
      "inputs": [
        {
          "internalType": "address",
          "name": "",
          "type": "address"
        }
      ],
      "name": "_userId",
      "outputs": [
        {
          "internalType": "uint256",
          "name": "",
          "type": "uint256"
        }
      ],
      "stateMutability": "view",
      "type": "function",
      "constant": true
    },
    {
      "inputs": [
        {
          "internalType": "address",
          "name": "to",
          "type": "address"
        },
        {
          "internalType": "uint256",
          "name": "tokenId",
          "type": "uint256"
        }
      ],
      "name": "approve",
      "outputs": [],
      "stateMutability": "nonpayable",
      "type": "function"
    },
    {
      "inputs": [
        {
          "internalType": "address",
          "name": "owner",
          "type": "address"
        }
      ],
      "name": "balanceOf",
      "outputs": [
        {
          "internalType": "uint256",
          "name": "",
          "type": "uint256"
        }
      ],
      "stateMutability": "view",
      "type": "function",
      "constant": true
    },
    {
      "inputs": [
        {
          "internalType": "uint256",
          "name": "tokenId",
          "type": "uint256"
        }
      ],
      "name": "getApproved",
      "outputs": [
        {
          "internalType": "address",
          "name": "",
          "type": "address"
        }
      ],
      "stateMutability": "view",
      "type": "function",
      "constant": true
    },
    {
      "inputs": [
        {
          "internalType": "address",
          "name": "owner",
          "type": "address"
        },
        {
          "internalType": "address",
          "name": "operator",
          "type": "address"
        }
      ],
      "name": "isApprovedForAll",
      "outputs": [
        {
          "internalType": "bool",
          "name": "",
          "type": "bool"
        }
      ],
      "stateMutability": "view",
      "type": "function",
      "constant": true
    },
    {
      "inputs": [],
      "name": "name",
      "outputs": [
        {
          "internalType": "string",
          "name": "",
          "type": "string"
        }
      ],
      "stateMutability": "view",
      "type": "function",
      "constant": true
    },
    {
      "inputs": [],
      "name": "owner",
      "outputs": [
        {
          "internalType": "address",
          "name": "",
          "type": "address"
        }
      ],
      "stateMutability": "view",
      "type": "function",
      "constant": true
    },
    {
      "inputs": [
        {
          "internalType": "uint256",
          "name": "tokenId",
          "type": "uint256"
        }
      ],
      "name": "ownerOf",
      "outputs": [
        {
          "internalType": "address",
          "name": "",
          "type": "address"
        }
      ],
      "stateMutability": "view",
      "type": "function",
      "constant": true
    },
    {
      "inputs": [],
      "name": "renounceOwnership",
      "outputs": [],
      "stateMutability": "nonpayable",
      "type": "function"
    },
    {
      "inputs": [
        {
          "internalType": "address",
          "name": "from",
          "type": "address"
        },
        {
          "internalType": "address",
          "name": "to",
          "type": "address"
        },
        {
          "internalType": "uint256",
          "name": "tokenId",
          "type": "uint256"
        }
      ],
      "name": "safeTransferFrom",
      "outputs": [],
      "stateMutability": "nonpayable",
      "type": "function"
    },
    {
      "inputs": [
        {
          "internalType": "address",
          "name": "from",
          "type": "address"
        },
        {
          "internalType": "address",
          "name": "to",
          "type": "address"
        },
        {
          "internalType": "uint256",
          "name": "tokenId",
          "type": "uint256"
        },
        {
          "internalType": "bytes",
          "name": "data",
          "type": "bytes"
        }
      ],
      "name": "safeTransferFrom",
      "outputs": [],
      "stateMutability": "nonpayable",
      "type": "function"
    },
    {
      "inputs": [
        {
          "internalType": "address",
          "name": "operator",
          "type": "address"
        },
        {
          "internalType": "bool",
          "name": "approved",
          "type": "bool"
        }
      ],
      "name": "setApprovalForAll",
      "outputs": [],
      "stateMutability": "nonpayable",
      "type": "function"
    },
    {
      "inputs": [
        {
          "internalType": "bytes4",
          "name": "interfaceId",
          "type": "bytes4"
        }
      ],
      "name": "supportsInterface",
      "outputs": [
        {
          "internalType": "bool",
          "name": "",
          "type": "bool"
        }
      ],
      "stateMutability": "view",
      "type": "function",
      "constant": true
    },
    {
      "inputs": [],
      "name": "symbol",
      "outputs": [
        {
          "internalType": "string",
          "name": "",
          "type": "string"
        }
      ],
      "stateMutability": "view",
      "type": "function",
      "constant": true
    },
    {
      "inputs": [],
      "name": "tokenID",
      "outputs": [
        {
          "internalType": "uint256",
          "name": "",
          "type": "uint256"
        }
      ],
      "stateMutability": "view",
      "type": "function",
      "constant": true
    },
    {
      "inputs": [
        {
          "internalType": "address",
          "name": "from",
          "type": "address"
        },
        {
          "internalType": "address",
          "name": "to",
          "type": "address"
        },
        {
          "internalType": "uint256",
          "name": "tokenId",
          "type": "uint256"
        }
      ],
      "name": "transferFrom",
      "outputs": [],
      "stateMutability": "nonpayable",
      "type": "function"
    },
    {
      "inputs": [
        {
          "internalType": "address",
          "name": "newOwner",
          "type": "address"
        }
      ],
      "name": "transferOwnership",
      "outputs": [],
      "stateMutability": "nonpayable",
      "type": "function"
    },
    {
      "inputs": [],
      "name": "mint",
      "outputs": [],
      "stateMutability": "nonpayable",
      "type": "function"
    },
    {
      "inputs": [
        {
          "internalType": "string",
          "name": "tokenURI_",
          "type": "string"
        }
      ],
      "name": "setTokenURI",
      "outputs": [],
      "stateMutability": "nonpayable",
      "type": "function"
    },
    {
      "inputs": [
        {
          "internalType": "uint256",
          "name": "tokenId",
          "type": "uint256"
        }
      ],
      "name": "tokenURI",
      "outputs": [
        {
          "internalType": "string",
          "name": "",
          "type": "string"
        }
      ],
      "stateMutability": "view",
      "type": "function",
      "constant": true
    }
  ],
  "bytecode": "0x60806040523480156200001157600080fd5b5060405162001a0d38038062001a0d833981016040819052620000349162000188565b8051819081906200004d906000906020840190620000e2565b50805162000063906001906020840190620000e2565b505050620000806200007a6200008c60201b60201c565b62000090565b506001600755620002b1565b3390565b600680546001600160a01b038381166001600160a01b0319831681179093556040519116919082907f8be0079c531659141344cd1fd0a4f28419497f9722a3daafe3b4186f6b6457e090600090a35050565b828054620000f0906200025e565b90600052602060002090601f0160209004810192826200011457600085556200015f565b82601f106200012f57805160ff19168380011785556200015f565b828001600101855582156200015f579182015b828111156200015f57825182559160200191906001019062000142565b506200016d92915062000171565b5090565b5b808211156200016d576000815560010162000172565b600060208083850312156200019b578182fd5b82516001600160401b0380821115620001b2578384fd5b818501915085601f830112620001c6578384fd5b815181811115620001db57620001db6200029b565b604051601f8201601f19908116603f011681019083821181831017156200020657620002066200029b565b8160405282815288868487010111156200021e578687fd5b8693505b8284101562000241578484018601518185018701529285019262000222565b828411156200025257868684830101525b98975050505050505050565b6002810460018216806200027357607f821691505b602082108114156200029557634e487b7160e01b600052602260045260246000fd5b50919050565b634e487b7160e01b600052604160045260246000fd5b61174c80620002c16000396000f3fe608060405234801561001057600080fd5b506004361061016c5760003560e01c80638da5cb5b116100cd578063b88d4fde11610081578063e0df5b6f11610066578063e0df5b6f146102b1578063e985e9c5146102c4578063f2fde38b146102d75761016c565b8063b88d4fde1461028b578063c87b56dd1461029e5761016c565b8063a22cb465116100b2578063a22cb4651461025d578063a5c42ef114610270578063afb55d03146102785761016c565b80638da5cb5b1461024d57806395d89b41146102555761016c565b806323b872dd116101245780636352211e116101095780636352211e1461021257806370a0823114610225578063715018a6146102455761016c565b806323b872dd146101ec57806342842e0e146101ff5761016c565b8063081812fc11610155578063081812fc146101af578063095ea7b3146101cf5780631249c58b146101e45761016c565b806301ffc9a71461017157806306fdde031461019a575b600080fd5b61018461017f366004611105565b6102ea565b6040516101919190611236565b60405180910390f35b6101a2610364565b6040516101919190611241565b6101c26101bd366004611183565b6103f6565b60405161019191906111e6565b6101e26101dd3660046110dc565b61041d565b005b6101e26104be565b6101e26101fa366004610fee565b61051c565b6101e261020d366004610fee565b610554565b6101c2610220366004611183565b61056f565b610238610233366004610f9b565b6105a3565b6040516101919190611682565b6101e26105e7565b6101c26105fb565b6101a261060a565b6101e261026b3660046110a2565b610619565b61023861062f565b610238610286366004610f9b565b610635565b6101e2610299366004611029565b610647565b6101a26102ac366004611183565b610686565b6101e26102bf36600461113d565b610723565b6101846102d2366004610fbc565b61073e565b6101e26102e5366004610f9b565b61076c565b60006001600160e01b031982167f80ac58cd00000000000000000000000000000000000000000000000000000000148061034d57506001600160e01b031982167f5b5e139f00000000000000000000000000000000000000000000000000000000145b8061035c575061035c826107a6565b90505b919050565b606060008054610373906116af565b80601f016020809104026020016040519081016040528092919081815260200182805461039f906116af565b80156103ec5780601f106103c1576101008083540402835291602001916103ec565b820191906000526020600020905b8154815290600101906020018083116103cf57829003601f168201915b5050505050905090565b6000610401826107d8565b506000908152600460205260409020546001600160a01b031690565b60006104288261056f565b9050806001600160a01b0316836001600160a01b031614156104655760405162461bcd60e51b815260040161045c90611591565b60405180910390fd5b806001600160a01b03166104776107fd565b6001600160a01b031614806104935750610493816102d26107fd565b6104af5760405162461bcd60e51b815260040161045c906115ee565b6104b98383610801565b505050565b33600090815260086020526040902054156104eb5760405162461bcd60e51b815260040161045c9061164b565b6104f73360075461087c565b60075433600090815260086020526040902081905561051790600161168b565b600755565b61052d6105276107fd565b8261097e565b6105495760405162461bcd60e51b815260040161045c90611254565b6104b98383836109dd565b6104b983838360405180602001604052806000815250610647565b60008061057b83610b27565b90506001600160a01b03811661035c5760405162461bcd60e51b815260040161045c9061155a565b60006001600160a01b0382166105cb5760405162461bcd60e51b815260040161045c90611493565b506001600160a01b031660009081526003602052604090205490565b6105ef610b42565b6105f96000610b81565b565b6006546001600160a01b031690565b606060018054610373906116af565b61062b6106246107fd565b8383610be0565b5050565b60075481565b60086020526000908152604090205481565b6106586106526107fd565b8361097e565b6106745760405162461bcd60e51b815260040161045c90611254565b61068084848484610c83565b50505050565b6060610691826107d8565b6009805461069e906116af565b80601f01602080910402602001604051908101604052809291908181526020018280546106ca906116af565b80156107175780601f106106ec57610100808354040283529160200191610717565b820191906000526020600020905b8154815290600101906020018083116106fa57829003601f168201915b50505050509050919050565b61072b610b42565b805161062b906009906020840190610e75565b6001600160a01b03918216600090815260056020908152604080832093909416825291909152205460ff1690565b610774610b42565b6001600160a01b03811661079a5760405162461bcd60e51b815260040161045c9061130e565b6107a381610b81565b50565b6001600160e01b031981167f01ffc9a70000000000000000000000000000000000000000000000000000000014919050565b6107e181610cb6565b6107a35760405162461bcd60e51b815260040161045c9061155a565b3390565b6000818152600460205260409020805473ffffffffffffffffffffffffffffffffffffffff19166001600160a01b03841690811790915581906108438261056f565b6001600160a01b03167f8c5be1e5ebec7d5bd14f71427d1e84f3dd0314c0f7b2291e5b200ac8c7c3b92560405160405180910390a45050565b6001600160a01b0382166108a25760405162461bcd60e51b815260040161045c906114f0565b6108ab81610cb6565b156108c85760405162461bcd60e51b815260040161045c906113c8565b6108d6600083836001610680565b6108df81610cb6565b156108fc5760405162461bcd60e51b815260040161045c906113c8565b6001600160a01b0382166000818152600360209081526040808320805460010190558483526002909152808220805473ffffffffffffffffffffffffffffffffffffffff19168417905551839291907fddf252ad1be2c89b69c2b068fc378daa952ba7f163c4a11628f55a4df523b3ef908290a461062b600083836001610cd3565b60008061098a8361056f565b9050806001600160a01b0316846001600160a01b031614806109b157506109b1818561073e565b806109d55750836001600160a01b03166109ca846103f6565b6001600160a01b0316145b949350505050565b826001600160a01b03166109f08261056f565b6001600160a01b031614610a165760405162461bcd60e51b815260040161045c9061136b565b6001600160a01b038216610a3c5760405162461bcd60e51b815260040161045c906113ff565b610a498383836001610680565b826001600160a01b0316610a5c8261056f565b6001600160a01b031614610a825760405162461bcd60e51b815260040161045c9061136b565b6000818152600460209081526040808320805473ffffffffffffffffffffffffffffffffffffffff199081169091556001600160a01b0387811680865260038552838620805460001901905590871680865283862080546001019055868652600290945282852080549092168417909155905184937fddf252ad1be2c89b69c2b068fc378daa952ba7f163c4a11628f55a4df523b3ef91a46104b98383836001610cd3565b6000908152600260205260409020546001600160a01b031690565b610b4a6107fd565b6001600160a01b0316610b5b6105fb565b6001600160a01b0316146105f95760405162461bcd60e51b815260040161045c90611525565b600680546001600160a01b0383811673ffffffffffffffffffffffffffffffffffffffff19831681179093556040519116919082907f8be0079c531659141344cd1fd0a4f28419497f9722a3daafe3b4186f6b6457e090600090a35050565b816001600160a01b0316836001600160a01b03161415610c125760405162461bcd60e51b815260040161045c9061145c565b6001600160a01b0383811660008181526005602090815260408083209487168084529490915290819020805460ff1916851515179055517f17307eab39ab6107e8899845ad3d59bd9653f200f220920489ca2b5937696c3190610c76908590611236565b60405180910390a3505050565b610c8e8484846109dd565b610c9a84848484610d32565b6106805760405162461bcd60e51b815260040161045c906112b1565b600080610cc283610b27565b6001600160a01b0316141592915050565b6001600160a01b03831660009081526008602052604090205415610d095760405162461bcd60e51b815260040161045c9061164b565b506001600160a01b03928316600090815260086020526040808220829055929093168352912055565b6000610d46846001600160a01b0316610e66565b15610e5b57836001600160a01b031663150b7a02610d626107fd565b8786866040518563ffffffff1660e01b8152600401610d8494939291906111fa565b602060405180830381600087803b158015610d9e57600080fd5b505af1925050508015610dce575060408051601f3d908101601f19168201909252610dcb91810190611121565b60015b610e28573d808015610dfc576040519150601f19603f3d011682016040523d82523d6000602084013e610e01565b606091505b508051610e205760405162461bcd60e51b815260040161045c906112b1565b805181602001fd5b6001600160e01b0319167f150b7a02000000000000000000000000000000000000000000000000000000001490506109d5565b506001949350505050565b6001600160a01b03163b151590565b828054610e81906116af565b90600052602060002090601f016020900481019282610ea35760008555610ee9565b82601f10610ebc57805160ff1916838001178555610ee9565b82800160010185558215610ee9579182015b82811115610ee9578251825591602001919060010190610ece565b50610ef5929150610ef9565b5090565b5b80821115610ef55760008155600101610efa565b600067ffffffffffffffff80841115610f2957610f296116ea565b604051601f8501601f19908116603f01168101908282118183101715610f5157610f516116ea565b81604052809350858152868686011115610f6a57600080fd5b858560208301376000602087830101525050509392505050565b80356001600160a01b038116811461035f57600080fd5b600060208284031215610fac578081fd5b610fb582610f84565b9392505050565b60008060408385031215610fce578081fd5b610fd783610f84565b9150610fe560208401610f84565b90509250929050565b600080600060608486031215611002578081fd5b61100b84610f84565b925061101960208501610f84565b9150604084013590509250925092565b6000806000806080858703121561103e578081fd5b61104785610f84565b935061105560208601610f84565b925060408501359150606085013567ffffffffffffffff811115611077578182fd5b8501601f81018713611087578182fd5b61109687823560208401610f0e565b91505092959194509250565b600080604083850312156110b4578182fd5b6110bd83610f84565b9150602083013580151581146110d1578182fd5b809150509250929050565b600080604083850312156110ee578182fd5b6110f783610f84565b946020939093013593505050565b600060208284031215611116578081fd5b8135610fb581611700565b600060208284031215611132578081fd5b8151610fb581611700565b60006020828403121561114e578081fd5b813567ffffffffffffffff811115611164578182fd5b8201601f81018413611174578182fd5b6109d584823560208401610f0e565b600060208284031215611194578081fd5b5035919050565b60008151808452815b818110156111c0576020818501810151868301820152016111a4565b818111156111d15782602083870101525b50601f01601f19169290920160200192915050565b6001600160a01b0391909116815260200190565b60006001600160a01b0380871683528086166020840152508360408301526080606083015261122c608083018461119b565b9695505050505050565b901515815260200190565b600060208252610fb5602083018461119b565b6020808252602d908201527f4552433732313a2063616c6c6572206973206e6f7420746f6b656e206f776e6560408201527f72206f7220617070726f76656400000000000000000000000000000000000000606082015260800190565b60208082526032908201527f4552433732313a207472616e7366657220746f206e6f6e20455243373231526560408201527f63656976657220696d706c656d656e7465720000000000000000000000000000606082015260800190565b60208082526026908201527f4f776e61626c653a206e6577206f776e657220697320746865207a65726f206160408201527f6464726573730000000000000000000000000000000000000000000000000000606082015260800190565b60208082526025908201527f4552433732313a207472616e736665722066726f6d20696e636f72726563742060408201527f6f776e6572000000000000000000000000000000000000000000000000000000606082015260800190565b6020808252601c908201527f4552433732313a20746f6b656e20616c7265616479206d696e74656400000000604082015260600190565b60208082526024908201527f4552433732313a207472616e7366657220746f20746865207a65726f2061646460408201527f7265737300000000000000000000000000000000000000000000000000000000606082015260800190565b60208082526019908201527f4552433732313a20617070726f766520746f2063616c6c657200000000000000604082015260600190565b60208082526029908201527f4552433732313a2061646472657373207a65726f206973206e6f74206120766160408201527f6c6964206f776e65720000000000000000000000000000000000000000000000606082015260800190565b6020808252818101527f4552433732313a206d696e7420746f20746865207a65726f2061646472657373604082015260600190565b6020808252818101527f4f776e61626c653a2063616c6c6572206973206e6f7420746865206f776e6572604082015260600190565b60208082526018908201527f4552433732313a20696e76616c696420746f6b656e2049440000000000000000604082015260600190565b60208082526021908201527f4552433732313a20617070726f76616c20746f2063757272656e74206f776e6560408201527f7200000000000000000000000000000000000000000000000000000000000000606082015260800190565b6020808252603d908201527f4552433732313a20617070726f76652063616c6c6572206973206e6f7420746f60408201527f6b656e206f776e6572206f7220617070726f76656420666f7220616c6c000000606082015260800190565b6020808252600e908201527f616c7265616479206d696e746564000000000000000000000000000000000000604082015260600190565b90815260200190565b600082198211156116aa57634e487b7160e01b81526011600452602481fd5b500190565b6002810460018216806116c357607f821691505b602082108114156116e457634e487b7160e01b600052602260045260246000fd5b50919050565b634e487b7160e01b600052604160045260246000fd5b6001600160e01b0319811681146107a357600080fdfea26469706673582212203d5198affea43b22c9debbe5ceab39595203ebbcce2fdc9eba588f6c81b0026b64736f6c63430008010033",
  "immutableReferences": {},
  "source": "pragma solidity =0.8.1;\n\nimport \"@openzeppelin/contracts/token/ERC721/ERC721.sol\";\nimport \"@openzeppelin/contracts/access/Ownable.sol\";\n\ncontract justNft is ERC721,Ownable {\n\n    uint256 public tokenID;\n    mapping(address => uint256) public _userId;\n    string private _tokenURI;\n\n    constructor(\n        string memory name_\n    ) ERC721(name_, name_) {\n        tokenID = 1;\n    }\n    //mint\n    function mint() public   {\n        require(_userId[msg.sender] == 0,\"already minted\");\n        _mint(msg.sender, tokenID);\n        _userId[msg.sender] = tokenID;\n        tokenID = tokenID + 1;\n    }\n\n    function _afterTokenTransfer(\n        address from,\n        address to,\n        uint256 firstTokenId,\n        uint256 batchSize\n    ) internal override {\n        require(_userId[to] == 0,\"already minted\");\n        _userId[from] = 0;\n        _userId[to] = firstTokenId;\n    }\n\n    function setTokenURI(string memory tokenURI_) public onlyOwner {\n        _tokenURI = tokenURI_;\n    }\n\n    function tokenURI(uint256 tokenId) public view override returns (string memory) {\n        _requireMinted(tokenId);\n\n        // string memory baseURI = _baseURI();\n        return _tokenURI;\n    }\n\n}",
  "sourcePath": "/Users/xuyapeng/work/foreststone2020/nftMethod/contracts/mock/justNft.sol",
  "compiler": {
    "name": "solc",
    "version": "0.8.1+commit.df193b15.Emscripten.clang"
  },
  "schemaVersion": "3.4.3",
  "updatedAt": "2023-06-12T03:15:04.547Z",
  "networkType": "ethereum",
  "devdoc": {
    "kind": "dev",
    "methods": {
      "approve(address,uint256)": {
        "details": "See {IERC721-approve}."
      },
      "balanceOf(address)": {
        "details": "See {IERC721-balanceOf}."
      },
      "getApproved(uint256)": {
        "details": "See {IERC721-getApproved}."
      },
      "isApprovedForAll(address,address)": {
        "details": "See {IERC721-isApprovedForAll}."
      },
      "name()": {
        "details": "See {IERC721Metadata-name}."
      },
      "owner()": {
        "details": "Returns the address of the current owner."
      },
      "ownerOf(uint256)": {
        "details": "See {IERC721-ownerOf}."
      },
      "renounceOwnership()": {
        "details": "Leaves the contract without owner. It will not be possible to call `onlyOwner` functions anymore. Can only be called by the current owner. NOTE: Renouncing ownership will leave the contract without an owner, thereby removing any functionality that is only available to the owner."
      },
      "safeTransferFrom(address,address,uint256)": {
        "details": "See {IERC721-safeTransferFrom}."
      },
      "safeTransferFrom(address,address,uint256,bytes)": {
        "details": "See {IERC721-safeTransferFrom}."
      },
      "setApprovalForAll(address,bool)": {
        "details": "See {IERC721-setApprovalForAll}."
      },
      "supportsInterface(bytes4)": {
        "details": "See {IERC165-supportsInterface}."
      },
      "symbol()": {
        "details": "See {IERC721Metadata-symbol}."
      },
      "tokenURI(uint256)": {
        "details": "See {IERC721Metadata-tokenURI}."
      },
      "transferFrom(address,address,uint256)": {
        "details": "See {IERC721-transferFrom}."
      },
      "transferOwnership(address)": {
        "details": "Transfers ownership of the contract to a new account (`newOwner`). Can only be called by the current owner."
      }
    },
    "version": 1
  },
  "userdoc": {
    "kind": "user",
    "methods": {},
    "version": 1
  }
}