{
  "contractName": "MultiNftFlashLoan",
  "abi": [
    {
      "inputs": [
        {
          "internalType": "bytes",
          "name": "actionData",
          "type": "bytes"
        }
      ],
      "name": "action",
      "outputs": [],
      "stateMutability": "nonpayable",
      "type": "function"
    }
  ],
  "bytecode": "0x608060405234801561001057600080fd5b506103d9806100206000396000f3fe608060405234801561001057600080fd5b506004361061002b5760003560e01c8063a1aca61814610030575b600080fd5b61004361003e366004610220565b610045565b005b610084816040518060400160405280600581526020017f66696e616c000000000000000000000000000000000000000000000000000000815250610127565b1561008e57610124565b600080600080848060200190518101906100a8919061017d565b93509350935093508273ffffffffffffffffffffffffffffffffffffffff16630dcbc1d98584846040518463ffffffff1660e01b81526004016100ed93929190610294565b600060405180830381600087803b15801561010757600080fd5b505af115801561011b573d6000803e3d6000fd5b50505050505050505b50565b6000815183511461013a5750600061014e565b818051906020012083805190602001201490505b92915050565b805173ffffffffffffffffffffffffffffffffffffffff8116811461017857600080fd5b919050565b60008060008060808587031215610192578384fd5b61019b85610154565b93506101a960208601610154565b925060408501519150606085015167ffffffffffffffff8111156101cb578182fd5b8501601f810187136101db578182fd5b80516101ee6101e98261031c565b6102eb565b818152886020838501011115610202578384fd5b610213826020830160208601610344565b9598949750929550505050565b600060208284031215610231578081fd5b813567ffffffffffffffff811115610247578182fd5b8201601f81018413610257578182fd5b80356102656101e98261031c565b818152856020838501011115610279578384fd5b81602084016020830137908101602001929092525092915050565b600073ffffffffffffffffffffffffffffffffffffffff851682528360208301526060604083015282518060608401526102d5816080850160208701610344565b601f01601f191691909101608001949350505050565b604051601f8201601f1916810167ffffffffffffffff8111828210171561031457610314610374565b604052919050565b600067ffffffffffffffff82111561033657610336610374565b50601f01601f191660200190565b60005b8381101561035f578181015183820152602001610347565b8381111561036e576000848401525b50505050565b7f4e487b7100000000000000000000000000000000000000000000000000000000600052604160045260246000fdfea2646970667358221220a37121c6e508e1f2fd80a78b4fc6df4cce71f056de8aa3e3b476e658081bdfb964736f6c63430008010033",
  "immutableReferences": {},
  "source": "pragma solidity ^0.8.1;\n\nimport \"../interfaces/IMethodNft.sol\";\nimport \"../interfaces/IMethodCall.sol\";\n\n//,\ncontract MultiNftFlashLoan is IMethodCall {\n    //user?\n    function compareStr(bytes memory a,bytes memory b) internal returns (bool) {\n        if (a.length != b.length) {\n            return false;\n        } else {\n            return keccak256(a) == keccak256(b);\n        }\n    }\n\n    function action(bytes memory actionData) external override {\n        //\n        //actionData \n        if (compareStr(actionData,bytes(\"final\"))) {\n            return ;\n        }\n        (address user,address nftAddress,uint256 nftID,bytes memory data) = abi.decode(actionData,(address,address,uint256,bytes));\n        IMethodNft(nftAddress).funcCall(user,nftID,data);\n    }\n}",
  "sourcePath": "/Users/xuyapeng/work/foreststone2020/nftMethod/contracts/0530/MultiNftFlashLoan.sol",
  "compiler": {
    "name": "solc",
    "version": "0.8.1+commit.df193b15.Emscripten.clang"
  },
  "schemaVersion": "3.4.3",
  "updatedAt": "2023-06-02T07:57:59.815Z",
  "networkType": "ethereum",
  "devdoc": {
    "kind": "dev",
    "methods": {},
    "version": 1
  },
  "userdoc": {
    "kind": "user",
    "methods": {},
    "version": 1
  }
}